:020000040800F2
:10000000080E00207D3C00082F0200083102000885
:1000100035020008390200083D0200080000000017
:100020000000000000000000000000004102000885
:1000300043020008000000004502000847020008D3
:10004000973C0008973C0008973C0008973C000844
:10005000973C0008973C0008973C0008973C000834
:10006000973C0008973C0008973C0008973C000824
:10007000973C0008973C0008973C0008B50E000824
:10008000973C0008973C0008973C0008CB05000807
:10009000E1050008973C0008973C0008973C0008E1
:1000A000973C0008973C0008973C0008973C0008E4
:1000B000973C0008973C0008973C0008973C0008D4
:1000C000973C0008973C0008973C0008973C0008C4
:1000D000973C00089F0800086D0A0008510C0008B2
:1000E000973C0008973C0008973C0008973C0008A4
:1000F000973C0008973C0008973C0008973C000894
:10010000973C0008973C0008973C0008973C000883
:10011000470E000859110008F3130008973C000827
:10012000973C0008973C0008973C0008973C000863
:10013000973C0008973C0008973C00081B07000804
:1001400031070008973C0008973C0008973C0008DE
:10015000973C0008973C0008973C00080D130008E6
:10016000973C0008973C0008973C0008973C000823
:10017000973C0008973C0008973C0008973C000813
:10018000973C0008973C000800F002F800F03CF8AB
:100190000AA090E8000C82448344AAF10107DA45E2
:1001A00001D100F031F8AFF2090EBAE80F0013F0F8
:1001B000010F18BFFB1A43F001031847843B0000EE
:1001C000A43B0000103A24BF78C878C1FAD852077F
:1001D00024BF30C830C144BF04680C6070470000C1
:1001E0000023002400250026103A28BF78C1FBD840
:1001F000520728BF30C148BF0B6070471FB503F0DE
:100200009AFD1FBD10B510BD03F060FD1146FFF74C
:10021000F5FF00F008F803F07EFD03B4FFF7F2FFEE
:1002200003BC03F081FD00F017F900BFFEE7704743
:1002300000BFFEE700BFFEE700BFFEE700BFFEE72E
:1002400070477047704770470CB5002001900090D0
:100250007648006840F480307449086000BF7348F5
:10026000006800F4003000900198401C0190009854
:1002700018B90198B0F5A06FF1D16C48006800F48E
:10028000003010B10120009001E0002000900098A3
:10029000012846D165484030006840F080506349ED
:1002A000403108606248006840F44040604908609E
:1002B0005E48083000685D490831086008460068FB
:1002C00040F4004008600846006840F4A050086010
:1002D0005848091F0860081F006840F08070091F17
:1002E000086000BF5148006800F000700028F9D095
:1002F00040F20570504908604C480830006820F012
:1003000003004A49083108600846006840F00200CE
:10031000086000BF45480830006800F00C0008285D
:10032000F8D10CBD10B54548006840F47000434951
:1003300008603E48006840F001003C490860002029
:100340003A4908310860394800683D490840374952
:1003500008603C48091D0860081F006820F48020E0
:10036000091F0860002031490C310860FFF76CFF5D
:100370004FF0006031498039086010BD70B5002031
:100380000022022300240221284D08352D6805F0A3
:100390000C0020B1042806D0082834D107E02A4DEB
:1003A0002A4E356033E02A4D284E35602FE01F4D30
:1003B0002D1D2D68C5F380541C4D2D1D2D6805F095
:1003C0003F0154B1224DB5FBF1F5184E361D36688C
:1003D000C6F3881605FB06F209E01B4DB5FBF1F5E7
:1003E000124E361D3668C6F3881605FB06F20F4D11
:1003F0002D1D2D68C5F301456D1C6B00B2FBF3F597
:10040000124E356003E0104D104E356000BF00BF46
:10041000064D08352D68C5F303150E4E705D0B4D66
:100420002D68C540094E356070BD0000003802409F
:100430000070004008544007003C024088ED00E096
:10044000FFFFF6FE103000240024F400000000201E
:1004500000127A000400002010B54FF4A06000F0F4
:10046000DDFF124800F086F94FF4E13000F066FA43
:100470004FF4612000F049FB4FF4E13000F00CFC38
:100480004FF4E13000F04AFD00F0B9FE00230322F2
:100490000821104600F026F8002303220821104608
:1004A00000F0B9F800F074FF10BD0000A086010054
:1004B00002480068401C0149086070471400002091
:1004C0000168A1F2052101B900E000BF00BF70473B
:1004D0000168A1F2052101B900E000BF00BF70472B
:1004E00070470000F0B58BB004460D4616461F4617
:1004F0000121084602F0F2F90121480602F037FA1C
:1005000009220B21964801F0D6FF09220C219448BC
:1005100001F0D1FF4FF4C050099002208DF828005F
:1005200009A98F4801F03CFF14208DF80400032036
:100530008DF8050001208DF806008DF8070001A850
:1005400000F071FF874800F0D9FF06A801F0FAF823
:1005500000208DF81E0001208DF81F0000208DF86E
:1005600020008DF821008DF822008DF823008DF8F1
:100570001A708DF81B008DF81C508DF81D40ADF8D9
:10058000186006A9774800F0D2FF00208DF812000D
:100590008DF8130001208DF814000020ADF808003C
:1005A000ADF80A00ADF80C00ADF80E00ADF8100083
:1005B00001208DF8150002A801F043F80122022164
:1005C000684801F03DFB0BB0F0BD10B50121654856
:1005D00001F09EFB18B10121624801F034FC10BD0E
:1005E00000B585B002215F4801F092FB88B104217B
:1005F0005C4801F028FC5C495A4801F066FB6A46F9
:100600000021584801F001FA00BF6846FFF758FF83
:1006100000BF05B000BDF0B58BB004460D461646D0
:100620001F460121022002F059F90121880602F03B
:100630009EF909220C214D4801F03DFF09220D21B0
:100640004A4801F038FF4FF44050029002208DF8E4
:100650000C0002A9454801F0A3FE40208DF80400DB
:1006600003208DF805008DF8060001208DF80700A5
:1006700001A800F0D8FE3F208DF8040003208DF87B
:1006800005008DF8060001208DF8070001A800F094
:10069000CAFE374800F032FF08A801F053F80020E6
:1006A0008DF8260001208DF8270000208DF8280005
:1006B0008DF829008DF82A008DF82B008DF8220086
:1006C0008DF823008DF824508DF82540ADF820607A
:1006D00008A9274800F02BFF0E208DF81A000020F3
:1006E0008DF81B0001208DF81C000020ADF81000D3
:1006F000ADF81200ADF81400ADF81600ADF8180012
:1007000001208DF81D0004A800F09BFF01220221AA
:10071000174801F095FA0BB0F0BD10B5012114484F
:1007200001F0F6FA18B10121114801F08CFB10BD5F
:1007300000B585B002210E4801F0EAFA68B1022145
:100740000B4801F080FB6A460021094801F05DF981
:1007500000BF6846FFF7BCFE00BF05B000BD00004B
:100760000000024000640040080000320004024023
:100770000068004010B596B004460121022002F046
:10078000ADF80121880502F0A9F80121102002F03E
:10079000FFF807221146FE4801F08DFE14A801F073
:1007A00047FE8020149002208DF8540000208DF820
:1007B000550001208DF8570014A9F54801F0F0FD0F
:1007C000F44803F031F810A803F0FBF8109400206F
:1007D000ADF84400ADF846004FF48060ADF8480035
:1007E0000420ADF84A000020ADF84C0010A9E948FB
:1007F00003F081F801224021E64803F0B1F9E64810
:1008000001F074FB684601F03CFC4FF00060009082
:10081000E048001D0190E148029000200390402034
:100820000490002005904FF480600690002007900F
:1008300008904FF48070099000020A9000200B90FD
:100840000C900D900E906946D34801F0F1FB002208
:10085000D2494031D04801F04CFC0121CE4801F092
:1008600054FC0121CC4801F01DFC25208DF83C00F2
:1008700000208DF83D008DF83E0001208DF83F00EE
:100880000FA800F0D0FD012240F22441C14803F03E
:1008900070F90121BF4803F0B6F816B010BD10B5CD
:1008A00040F22441BB4803F09FF9002845D0B948E5
:1008B0000088B8488088B84801F037FCF0B90021BA
:1008C000B54801F0EFFBB649B34801F064FCB2480B
:1008D00001F00BFCC0F14000B24908604020AE4975
:1008E000091D0860081F006840F40020091F086007
:1008F0000121A94801F0D6FB00BF1EE00021A64857
:1009000001F0D0FBA649A44801F045FCA24801F043
:10091000ECFBC0F14000A349086040209E49091D3E
:100920000860081F006820F40020091F08600121EA
:10093000994801F0B7FB00BF00BF10BD10B596B0DD
:1009400004460121084601F0C9FF0121480501F0D4
:10095000C5FF0121480402F00AF80722022192484B
:1009600001F0A9FD072203218F4801F0A4FD14A87E
:1009700001F05EFD0C20149002208DF85400002040
:100980008DF8550001208DF8570014A9864801F014
:1009900007FD864802F048FF10A803F012F81094F3
:1009A0000020ADF84400ADF84600ADF848000C203A
:1009B000ADF84A000020ADF84C0010A97B4802F0C9
:1009C0009AFF01224021734803F0CAF8784801F0E9
:1009D0008DFA684601F055FB4FF0006000907348B7
:1009E000001D019073480290002003906420049041
:1009F000002005904FF4806006900020079008903A
:100A00004FF48070099000020A9000200B900C9027
:100A10000D900E906946664801F00AFB0022654978
:100A20006431634801F065FB0121614801F06DFB11
:100A300001215F4801F036FB26208DF83C000020A4
:100A40008DF83D008DF83E0001208DF83F000FA885
:100A500000F0E9FC012240F22441544803F089F8F7
:100A60000121524802F0CFFF16B010BD10B540F280
:100A700024414E4803F0B8F828B34C4800884B484E
:100A8000001D008800214A4801F00CFB4A494848F3
:100A900001F081FB464801F028FBC0F164004749A2
:100AA000086064204249091D086041488838D0F830
:100AB000880040F40020091F086001213C4801F033
:100AC000F1FA00BF20E00021394801F0EBFA3A4981
:100AD000374801F060FB364801F007FBC0F16400C5
:100AE0003649086064203249091D0860304888385A
:100AF000D0F8880020F40020091F086001212C484C
:100B000001F0D0FA00BF00BF10BD10B596B004468A
:100B10000121022001F0E2FE0121880401F027FFFB
:100B20000121480501F0DAFE07220A21184801F0E8
:100B3000C2FC07220B21164801F0BDFC02208DF8F3
:100B4000440003208DF8450000208DF84600012068
:100B50008DF847008002109010A90D4801F020FC8C
:100B60004FF40060109010A9094801F019FC2720EB
:100B70008DF8000002208DF8010001208DF80200A0
:100B80008DF80300684600F04EFC1294002017E038
:100B9000000402400010014040640240380400207C
:100BA0000000301018000020000002400044004007
:100BB00088600240B8040020000C00201C000020C7
:100BC000ADF84C00ADF84E00ADF85000ADF8540053
:100BD0000C20ADF8520012A9FE4802F08CFE012252
:100BE00040F22441FB4802F0C4FF5021F94802F0D2
:100BF000F2FF6420059000200C900D900E9009905B
:100C00004FF48060079080100A90F248001D029017
:100C100000200F90089006904FF400300B90800257
:100C2000019000200490EC48039001A9EB4801F0EA
:100C3000FFF90121E94801F035FA01224021E54898
:100C400002F08EFF0121E34802F0DDFE16B010BD78
:100C500010B540F22441DF4802F0C6FFD8B1DD48AC
:100C600002F000FF40F22441DA4802F0F8FF0021D0
:100C7000DA4801F017FA00224021D64802F070FF4E
:100C800000BF00BF01224021D24802F069FF0121CC
:100C9000D24801F007FA10BD10B596B00446012104
:100CA000042001F01BFE0121C80401F060FE0822AF
:100CB0000A21CB4801F0FFFB08220B21C84801F0B4
:100CC000FAFB0121480501F009FE4FF44060109045
:100CD00002208DF8440000208DF8460003208DF896
:100CE000450001208DF8470010A9BD4801F058FBD0
:100CF00012940020ADF84C00ADF84E00ADF8500055
:100D00000C20ADF852000020ADF8540012A9B548EF
:100D100002F0F1FD01224021B24802F021FFAF486C
:100D2000183001F0E3F8684601F0ABF94FF00060CD
:100D30000090AC48001D0190AB4802900020039049
:100D400064200490002005904FF4806006900020FD
:100D50000790089009904FF480300A9000200B9083
:100D60000C900D900E9069469C48183001F060F987
:100D700001219A48183001F095F934208DF83C0093
:100D800003208DF83D008DF83E0001208DF83F00D6
:100D90000FA800F048FB01228021924802F0E0FEFB
:100DA00000218E48483001F07DF98C48483001F030
:100DB0009DF800BF8948483001F0C1F90028F9D1F9
:100DC0004FF0006000908748001D01908748029016
:100DD000402003900020049005904FF4806006901E
:100DE00000200790089009904FF480300A9000206E
:100DF0000B9003200C9000200D900E9069467748D0
:100E0000483001F015F90F208DF83C0003208DF8D3
:100E10003D008DF83E0001208DF83F000FA800F046
:100E200002FB012210216D48483001F0C8F901226F
:100E300040F224416B4802F09CFE0121694802F017
:100E4000E2FD16B010BD10B5002440F22441654803
:100E500002F0CAFE08B3634800886248001D00889B
:100E600000215E48183001F01DF961495B481830D7
:100E700001F091F95948183001F037F9C0F16400D8
:100E8000C4B200BF00BF64215448183001F02BF9F0
:100E900001215248183001F005F910BD70B5044623
:100EA0000D462946204601F01EF90121204601F099
:100EB000F9F870BD10B54F494848483001F04FF976
:100EC00048B100214548483001F0ECF84949434811
:100ED000483001F060F910BD70B504460025434D5F
:100EE00005F8014B01213D484830FFF7D7FF70BDA1
:100EF0002DE9F04105460E46002400273B4F00BF78
:100F000003E0285D3855601C84B2B442F9DB3146F9
:100F100032484830FFF7C2FFBDE8F08110B596B007
:100F200004460121042001F0D9FC0121082001F030
:100F3000D5FC0121080501F01AFD0121480501F049
:100F4000CDFC02208DF8540000208DF856004FF49F
:100F50008050149001208DF8570003208DF8550023
:100F600014A91F4801F01CFA02208DF8540000203B
:100F70008DF856000420149001208DF857000320AE
:100F80008DF8550014A91C4801F00AFA08220C211A
:100F9000134801F090FA08220221174801F08BFA59
:100FA00010940020ADF84C000C20ADF84A00002051
:100FB000ADF84800ADF84600ADF8440010A90F4860
:100FC00002F099FC01210D4802F01DFD0122402193
:100FD0000A4815E0004800408005002028600240D3
:100FE00000080240004C0040E4050020AC06002050
:100FF0000000301020000020000C02400050004093
:1010000002F0AEFD684601F03CF8D34802904FF480
:101010000070049080040090D0480190002003905C
:1010200005904FF48060069000200890079009908A
:101030004FF480300A9000200B900C900D900E9091
:101040006946C74800F0F4FF0121C54801F02AF8BD
:101050000022C449C24801F04CF80121C04801F007
:1010600054F835208DF83C0001208DF83F008DF8B4
:101070003D0002208DF83E000FA800F0D4F90122B7
:1010800040F22441B548001F02F073FD0121B3482E
:10109000001F02F0B8FC01228021B048001F02F0BE
:1010A0005FFD0021AE48A83000F0FCFFAC48A8303E
:1010B00000F01CFF00BFAA48A83001F040F800284B
:1010C000F9D14FF000600090A4480190A64802902A
:1010D0004020039096200490002005904FF48060FB
:1010E000069000200790089009900A900B9003202A
:1010F0000C9000200D900E9069469948A83000F0A1
:1011000097FF01219648A83000F0CCFF2F208DF8E2
:101110003C0002208DF83D0001208DF83E008DF846
:101120003F000FA800F07FF916B010BD70B504465F
:101130000D460021204600F0B5FF00BF204600F01C
:10114000FEFF0028FAD12946204600F0CCFF0121FD
:10115000204600F0A7FF70BD10B540F224417F4843
:10116000001F02F041FD002848D07C48001F008885
:101170007A48001F80887A4800F0D7FFF8B900212C
:10118000774800F08FFF7949754801F004F87448FA
:1011900000F0ABFFC0F50070754908604FF40071B6
:1011A0006F4800F0A0FF4FF400226E496C4800F039
:1011B000B7FF01216A4800F075FF00BF1EE0002163
:1011C000674800F06FFF6949654800F0E4FF644834
:1011D00000F08BFFC0F50070654908604FF40071A6
:1011E0005F4800F080FF00225B495D4800F098FFF7
:1011F00001215B4800F056FF00BF00BF10BD00B5E5
:1012000097B00121042001F069FB0121880501F05C
:1012100065FB0121202001F0BBFB08220621554877
:1012200001F049F908220721524801F044F9C02091
:10123000119002208DF8480000208DF84A0002200D
:101240008DF8490000208DF84B0011A9494801F0A4
:10125000A7F8494802F0E8FA484813900020ADF892
:101260005000ADF85200ADF854000C20ADF8560017
:101270000020ADF8580013A93F4802F03CFB0122C2
:1012800040213D4802F06CFC3D4800F02FFE4FF03D
:10129000206001903848001D02903A4803900020D9
:1012A000049064200590002006904FF48060079021
:1012B0000020089009900A904FF480300B90002095
:1012C0000C900D900E900F9001A92D4800F0B0FEEB
:1012D00001212B4800F0E6FE47208DF84000032056
:1012E0008DF841008DF8420001208DF8430010A8D0
:1012F00000F099F8012240F224411F4802F039FC25
:1013000001211D4802F07FFB17B000BD10B540F26F
:101310002441194802F068FCE8B1174800881648D3
:10132000001D00880021164800F0BCFE1649144834
:1013300000F031FF124800F0D8FEC0F164001349FC
:10134000086000BF00BF64210D4800F0CCFE012101
:101350000B4800F0A7FE10BD3800002004500040EC
:1013600010600240380200201007002030000010FA
:10137000200000200008024000140140B0AA0E0026
:101380002864024048060020000C001024000020C1
:101390001FB50121102001F0EAFA36208DF8000077
:1013A00003208DF8010002208DF8020001208DF845
:1013B0000300684600F037F85320ADF80400002021
:1013C000ADF80600ADF80C0040F2E730029001A93C
:1013D000114801F084FC01210F4801F009FD0122B0
:1013E00011460D4802F01CF901210B4802F02CF9BE
:1013F0001FBD10B50121084802F029F958B101219B
:10140000054802F035F90121034802F01DF900BF3B
:10141000FFF74EF800BF10BD0010004032490143F5
:10142000324A1160704770B5002100230F22C47842
:101430001CB32E4C246804F4E064C4F5E064C4F3E7
:101440000721C1F10404E3B20A4144789C40E1B2AF
:101450008478144021430C07210E254C05786155F2
:10146000047804F01F050124AC4005786D11AD002F
:1014700005F1E025C5F8004109E0047804F01F05F6
:101480000124AC401B4D0678761145F8264070BD0E
:10149000194A0A400243154B1B1F1A60704739B1A5
:1014A000124A121D12680243104B1B1D1A6006E0FF
:1014B0000E4A121D126882430C4B1B1D1A607047A6
:1014C000042808D14FF0E021096941F004014FF0F0
:1014D000E022116107E04FF0E021096921F00401E9
:1014E0004FF0E022116170470000FA050CED00E0BA
:1014F00000E400E080E100E080FFFF1F10B504463B
:10150000FE48844209D10121480601F085FA0021F4
:101510004FF0007001F080FA08E00121880601F028
:101520007BFA00214FF0806001F076FA10BD30B5F3
:10153000024600200023146824F00204146014689A
:1015400044F00104146000E05B1C546804F00104E2
:101550001CB94FF6FF74A342F6D1546804F001049D
:101560000CB900206CE08C79012C04D1146844F093
:101570008004146003E0146824F080041460CC79C3
:10158000012C04D1146844F04004146003E0146892
:1015900024F0400414600C7A012C04D1146844F047
:1015A0002004146003E0146824F0200414604C7AD2
:1015B000012C04D1146844F01004146003E0146892
:1015C00024F0100414608C7A012C04D1146844F0C7
:1015D0000804146003E0146824F008041460CC7A52
:1015E000012C04D1146844F00404146003E014686E
:1015F00024F0040414608C78A407CD7844EA0564D0
:101600000D7944EA05444D7944EA05540D886D1E70
:101610002C43D461146824F001041460002300E01A
:101620005B1C546804F001041CB14FF6FF74A34224
:10163000F6D1546804F001040CB1002000E0012050
:1016400030BD10B50021837A012202FA03F1AC4AC1
:10165000126842F00102AA4B1A60A94A1C321268B1
:101660008A43A74B1C331A60027BCAB9A44A0C32C6
:1016700012688A43A24B0C331A604288C38842EA3C
:1016800003439F4A4032847A42F834300288838888
:1016900042EA03439A4A4032847A02EBC40253601E
:1016A000027B012A19D1964A0C3212680A43944BE4
:1016B0000C331A604288038842EA0343904A40325E
:1016C000847A42F83430C288838842EA03438C4AE1
:1016D0004032847A02EBC4025360C27A3AB9884A33
:1016E000121D12688A43864B1B1D1A6006E0844A4D
:1016F000121D12680A43824B1B1D1A60028932B9FF
:101700007F4A143212688A437D4B14331A6002896F
:10171000012A06D17A4A143212680A43784B1433EC
:101720001A60427B012A06D1754A1C3212680A43AC
:10173000734B1C331A60724A126822F00102704B1C
:101740001A6010BD00218171C171017241728172F4
:10175000C1728170C17003210171022141710121A7
:10176000018070476649096841F00101644A1160CF
:101770001146096843F60E729143614A11601146A1
:10178000096841EA002111601146096821F0010150
:101790001160704721B1026842F48032026003E0B8
:1017A000026822F4803202607047E1B1026842F0C0
:1017B000800202604FF4C272125842F480734FF4F8
:1017C000C27213504FF4CA72125842F480734FF42D
:1017D000CA7213504FF4D272125842F480734FF40D
:1017E000D27213501BE0026822F0800202604FF4B4
:1017F000C272125822F480734FF4C27213504FF425
:10180000CA72125822F480734FF4CA7213504FF404
:10181000D272125822F480734FF4D2721350704770
:1018200010B502460020936803F08063B3F1806F27
:1018300000D110E0936803F00063B3F1006F01D1B1
:10184000012008E0936803F08053B3F1805F01D179
:10185000022000E00420042879D002F5C07303EBD5
:1018600000131B6803F0010402F5C07303EB0013BF
:101870001C600B7A7BB94B7A0C8843EA445302F51F
:10188000C07404EB00142468234302F5C07404EB15
:101890000014236010E00B7A4C6843EAC4034C7ACE
:1018A000234302F5C07404EB00142468234302F5BB
:1018B000C07404EB001423608B7A03F00F038B7267
:1018C00002F5C07303EB00135B6823F00F0402F50D
:1018D000C07303EB00135C6002F5C07303EB0013ED
:1018E0005B688C7A234302F5C07404EB00146360D8
:1018F0008B7B1C064B7B44EA034403E000640040FE
:10190000006600400B7B44EA0323CC7A234302F5B4
:10191000C07404EB0014A3608B7C1C064B7C44EA6F
:1019200003440B7C44EA0323CC7B234302F5C074BD
:1019300004EB0014E36002F5C07303EB00131B68B3
:1019400043F0010402F5C07303EB00131C6010BDEB
:1019500010B50246002321B1012907D002290FD179
:1019600009E09068F94C00EA04030BE09068F84C39
:1019700000EA040306E09068F64C00EA040301E084
:10198000002300BF00BFF44C181BA34216D007DC95
:1019900083B16FF08060184470B1022818D111E053
:1019A000B0F5007F10D0ED4C204448B1B0F5003FB9
:1019B0000ED10BE002230DE000230BE0002309E031
:1019C000002307E0012305E0012303E0012301E0F8
:1019D000002300BF00BFD8B210BD21B1012907D03C
:1019E00002290FD109E0826842F0800282600AE099
:1019F000826842F40042826005E0826842F400029C
:101A0000826000E000BF00BF704710B500F5D873DA
:101A100003EB01131B6803F004031372137A53B929
:101A200000F5D87303EB01131B6840F2FF7404EA5E
:101A30005353136009E000F5D87303EB01131B68DF
:101A40006FF0604404EAD303536000F5D87303EBEE
:101A500001131B6803F00203537200F5D87303EB04
:101A600001135B6803F00F03937200F5D87303EB67
:101A700001135B681B0AD37400F5D87303EB0113E1
:101A80009B68D37200F5D87303EB01139B681C0AA3
:101A9000147300F5D87303EB01139B681C0C54738B
:101AA00000F5D87303EB01139B681B0E937300F5CD
:101AB000D87303EB0113DB68D37300F5D87303EB22
:101AC0000113DB681C0A147400F5D87303EB0113CF
:101AD000DB681C0C547400F5D87303EB0113DB684E
:101AE0001B0E937421B9C36843F02003C36003E065
:101AF000036943F02003036110BD21B9C26842F0BD
:101B00002002C26003E0026942F0200202617047D5
:101B10000246002019B9D36803F0030006E001294A
:101B200003D1136903F0030000E00020704710B5F3
:101B300002460B4600204FF6FF71BBB9146824F033
:101B4000020444F00104146000E0491E546804F0EB
:101B50000304012C01D00029F7D1546804F00304D8
:101B6000012C01D0002032E0012030E0012B13D104
:101B7000146824F00304146000E0491E546804F063
:101B800003040CB10029F8D1546804F003040CB12B
:101B900000201CE001201AE0022B17D1146824F069
:101BA000010444F00204146000E0491E546804F08B
:101BB0000304022C01D00029F7D1546804F0030477
:101BC000022C01D0002002E0012000E0002010BD26
:101BD000014600200A6822F0010242F002020A6077
:101BE0004A6802F00302022A00D101207047014630
:101BF0004FF6FF7200200B6823F002030B6000E039
:101C0000521E4B6803F00203022B01D1002AF7D1C8
:101C10004B6803F00203022B00D0012070470146FD
:101C200000208A6902F070007047014600208A692E
:101C3000100E7047014600208A69C2F307407047C2
:101C40001AB143690B43436102E043698B4343612B
:101C5000704710B50246002001F4700343B1936948
:101C6000C1F3130423400BB101202DE000202BE031
:101C700001F0807343B15368C1F3130423400BB1E7
:101C8000012021E000201FE001F0006343B19368D0
:101C9000C1F3130423400BB1012015E0002013E031
:101CA00001F0007343B1D368C1F3130423400BB1B7
:101CB000012009E0002007E01369C1F31304234069
:101CC0000BB1012000E0002010BD0022244B9942FE
:101CD00002D10023836111E0C1F3130201F000730C
:101CE0000BB1C2600AE001F080630BB1026105E054
:101CF00001F000630BB1826000E042607047024671
:101D0000002002EA01030BB1012000E0002070472F
:101D100070B504460D46002660692840002872D040
:101D2000B5F5807F69D01DDC082D42D006DC012D81
:101D30002DD0022D31D0042D7FD134E0102D3ED096
:101D4000202D42D0402D78D145E000000300000452
:101D50000003000800000310000100080001FFF765
:101D60007000F030B5F5004F61D009DCB5F5007FAB
:101D70004AD0B5F5806F4DD0B5F5006F5DD150E01C
:101D8000B5F5803F2DD0B5F5003F56D12FE0A068C6
:101D90005549FFF7B4FF064651E0E0680321FFF71D
:101DA000AEFF06464BE0E0680821FFF7A8FF0646B5
:101DB00045E0E0681021FFF7A2FF06463FE02069FA
:101DC0000321FFF79CFF064639E020690821FFF751
:101DD00096FF064633E020691021FFF790FF064684
:101DE0002DE060680821FFF78AFF064627E060685B
:101DF0001021FFF784FF064621E0A0690121FFF7CB
:101E00007EFF06461BE01BE0A0690221FFF777FF7B
:101E1000064614E0A0690421FFF771FF06460EE0B4
:101E20000BE0A0697021FFF76AFF064607E06068D3
:101E30000421FFF764FF064601E0002600BF00E032
:101E40000026304670BDB1F5007F3AD00FDC202966
:101E500028D006DC01291CD004291DD0082940D136
:101E60001DE0402921D0B1F5807F3AD126E0B1F5BF
:101E7000004F31D006DCB1F5806F25D0B1F5006F91
:101E80002FD124E0B1F5803F12D0B1F5003F28D129
:101E900011E0154A826025E00822C26022E010228B
:101EA000C2601FE0082202611CE01022026119E0FA
:101EB0000822426016E01022426013E004224260D1
:101EC00010E0042242600DE0042242600AE0002299
:101ED00082610422426005E00022826104224260A5
:101EE00000E000BF00BF704701010100016821F060
:101EF000010101600021016041608160C1600161F8
:101F000021214161DB49884204D13D21D94A103A5F
:101F100091608CE0D7491831884205D14FF4746143
:101F2000D44A103A916082E0D2493031884205D1DA
:101F30004FF47411CF4A103A916078E0CD4948319E
:101F4000884205D14FF07461CA4A103A91606EE040
:101F5000C8496031884204D1C749C64A103AD160A5
:101F600065E0C4497831884204D1C449C14A103A75
:101F7000D1605CE0BF499031884204D1C049BD4A7C
:101F8000103AD16053E0BB49A831884205D14FF0E7
:101F90003D51B84A103AD16049E0BA49884204D16B
:101FA0003D21B84A083A116041E0B64918318842EB
:101FB00005D14FF47461B34A083A116037E0B14972
:101FC0003031884205D14FF47411AE4A083A11609D
:101FD0002DE0AC494831884205D14FF07461A94ADF
:101FE000083A116023E0A7496031884204D1A24930
:101FF000A44A121F11601AE0A2497831884204D124
:102000009E49A04A121F116011E09E4990318842FA
:1020100004D19B499B4A121F116008E09949A831DD
:10202000884204D14FF03D51964A121F116070470B
:1020300010B500220268944B1A40CC680B68234309
:102040004C6923438C692343CC6923430C6A2343A3
:102050004C6A23438C6A23434C6B23438C6B23438E
:102060001A430260426922F00702D1E90B3423438C
:102070001A4342610B6943604B6883608B68C3609D
:1020800010BD0021016041608160C160016141615A
:102090008161C161016241628162C1620163416328
:1020A0008163704721B1026842F00102026003E0DF
:1020B000026822F001020260704721B1026842F416
:1020C0000042026003E0026822F4004202607047AE
:1020D00021B1026842F02002026003E0026822F0AF
:1020E000200202607047416070470146486880B234
:1020F000704722B1036843F40023036003E00368E0
:1021000023F4002303600161704721B1026842F4A7
:102110008022026003E0026822F48022026070479D
:102120000AB1016100E0C1607047014600200A6801
:1021300002F400220AB1012000E0002070470146AD
:1021400000200A6802F001020AB1012000E000202C
:102150007047014600204A6902F03800704730B5E8
:1021600003460A4600200024464DAB4202D24149B4
:10217000103901E04349103902F000550DB14C68A7
:1021800000E00C68414D2C4004EA02050DB101202D
:1021900000E0002030BD02463A4B9A4202D2354858
:1021A000103801E03748103801F000531BB1374BAD
:1021B0000B40C36002E0354B0B408360704710B5A5
:1021C00001F080034BB122B1436943F080034361C6
:1021D00003E0436923F08003436180290BD02AB1D7
:1021E000036801F01E042343036004E0036801F068
:1021F0001E04A343036010BD70B5024600200024F6
:102200000025204EB24202D21A4B103B01E01D4B7A
:10221000103B1F4E0E4036B11E2606EAD12416682A
:1022200006EA040502E0566906F0800501F0005652
:102230000EB15C6800E01C68144E344004EA0106EC
:1022400016B10DB1012000E0002070BD02460D4B1B
:102250009A4202D20748103801E00A48103801F0CB
:1022600000531BB1094B0B40C36002E0074B0B400E
:1022700083607047106002403D000020400F002046
:1022800000003D20106402403F801CF07D0F7D0F58
:102290003C0F3C0F10B504469848844208D10121F8
:1022A000084600F086FB0021012000F082FB76E06A
:1022B0009348844208D10121022000F07AFB0021DA
:1022C000022000F076FB6AE08E48844208D10121AA
:1022D000042000F06EFB0021042000F06AFB5EE0A9
:1022E0008948844208D10121082000F062FB0021C6
:1022F000082000F05EFB52E08448844208D10121AE
:10230000102000F056FB0021102000F052FB46E0A8
:102310007F48844208D10121202000F04AFB00219F
:10232000202000F046FB3AE07A48844208D101219F
:10233000402000F03EFB0021402000F03AFB2EE060
:102340007548844208D10121802000F032FB002131
:10235000802000F02EFB22E07048844208D1012149
:10236000801500F026FB0021A01500F022FB16E0EE
:102370006B48844208D10121401500F01AFB00216E
:10238000601500F016FB0AE06648844207D101217F
:10239000001500F00EFB0021201500F00AFB10BD17
:1023A000F0B50A4600210023002400BF3DE00125CE
:1023B00005FA01F3156805EA03049C4234D1056867
:1023C0004F000326BE40B543056015794E00B54069
:1023D0000668354305601579012D02D01579022D67
:1023E00016D185684F000326BE40B54385605579F8
:1023F0004E00B540866835438560456801268E40AD
:10240000B5434560456896798E40B6B23543456020
:10241000C5684F000326BE40B543C560D5794E0060
:10242000B540C6683543C560491C1029BFD3F0BD0F
:102430004FF6FF7101600021017141718171C1711D
:10244000704708B54FF480320092009A0A43009218
:10245000009AC261C161009AC261C2690092C269F8
:10246000009208BD0246002013690B400BB1012009
:1024700000E0002070470146086980B270470246BC
:10248000002053690B400BB1012000E00020704791
:102490000146486980B270470183704741837047A5
:1024A0000AB1018300E0418370474161704742698E
:1024B0004A4042617047F0B5002300244D07ED0EFD
:1024C00002FA05F3CE1000F1200555F826504E070C
:1024D000F70E0F26BE40B543CF1000F1200646F898
:1024E0002750CE1000F1200555F8265045EA030488
:1024F000CE1000F1200545F82640F0BD0000024056
:102500000004024000080240000C0240001002409B
:102510000014024000180240001C0240002002404B
:102520000024024000280240F948006840F0010001
:10253000F74908600020F64908310860F44800684F
:10254000F4490840F2490860F348091D0860F3485F
:10255000EF4984310860F0481038091D0860EC48E4
:10256000006820F48020EA4908600020E8490C3126
:102570000860E7498C31086070470021E44A921CEA
:10258000117011460870704710B5014600220023F3
:1025900000204A11012A02D1DD4C236808E0022AFA
:1025A00003D1DB4C7034236802E0D94C74342368C7
:1025B00001F01F02012494401C400CB1012000E0F6
:1025C000002010BD38B5002000900024002500BF79
:1025D0003120FFF7D9FF05460098401C0090009875
:1025E000B0F5A06F01D0002DF2D03120FFF7CCFF65
:1025F00008B1012400E00024204638BD0146002037
:10260000C34A106820F0F80040EAC100106070472B
:10261000C349086070470021BD4A703211701170C3
:10262000012802D004280AD104E00121B84A7032FE
:10263000117005E00521B64A7032117000E000BF4C
:1026400000BF7047B7490860704770B5049C41EA05
:1026500082150126C6EB530645EA0645054345EAC1
:102660000465AB4E361D356070BDAD4908667047D8
:10267000820142EA0172A64B84331A607047A8496E
:102680008866704710B5830143EA016343EA027329
:102690009F4C8834236010BDA14908677047A0494A
:1026A000C864704702460020994B0833186820F030
:1026B000EC6042EA01031843954B083318607047F9
:1026C00002460020924B0833186820F0784042EA16
:1026D000010318438E4B08331860704701460020F1
:1026E0008B4A0832106820F00300084310607047DE
:1026F00087480830006800F00C0070470146002051
:10270000834A0832106820F0F000084310607047D8
:10271000014600207E4A0832106820F4E050084349
:102720001060704701460020794A0832106820F492
:10273000604040EAC10010607047F0B500210022FF
:102740000024022500260223714F08373F6807F056
:102750000C0121B1042905D0082937D105E0724FB9
:10276000076036E0714F076033E0694F3F1D3F68F7
:10277000C7F38056664F3F1D3F6807F03F036EB1B9
:102780006A4FB7FBF3F7DFF888C10CF1040CDCF8F3
:1027900000C0CCF3881C07FB0CF40CE0624FB7FBC5
:1027A000F3F7DFF86CC10CF1040CDCF800C0CCF3DB
:1027B000881C07FB0CF4564F3F1D3F68C7F30147C9
:1027C0007F1C7D00B4FBF5F7076002E0564F076001
:1027D00000BF00BF4E4F08373F6807F0F0010909FE
:1027E000534F7A5C0768D7404760494F08373F68C6
:1027F00007F4E051890A4E4F7A5C4768D7408760FA
:10280000434F08373F6807F46041490B484F7A5CF3
:102810004768D740C760F0BD002100F44072B2F5B0
:10282000407F0AD13A4A0832116821F4F811414A2E
:1028300002401143364A08321160354A703212683C
:10284000C0F30B031A43324B70331A60704735499B
:102850004439086070473349403908607047364949
:102860000860704701460020294A8C32106820F029
:102870001F004A1E1043264A8C32106070470146E2
:102880000020234A8C32106820F4F8504A1E40EA97
:1028900002201F4A8C3210607047014600201C4AFB
:1028A0008C32106820F440100843106070470146D5
:1028B0000020174A8C32106820F440000843106052
:1028C000704701460020124A8C32106820F44030D4
:1028D00008431060704719490860704739B10C4AC5
:1028E0003032126802430A4B30331A6006E0084A5D
:1028F000303212688243064B30331A607047F9B1A8
:10290000034A343212680243014B34331A601CE02C
:1029100000380240FFFFF6EA1030002400300020AB
:1029200000004742800E47420024F40000127A0063
:1029300028000020FFFCFF0F5C014742E0114742E6
:102940008F4A126882438E4B1A60704739B18C4AA5
:10295000121D126802438A4B1B1D1A6006E0884A4A
:10296000121D12688243864B1B1D1A60704739B1D5
:10297000834A0C3212680243814B0C331A6006E022
:102980007F4A0C32126882437D4B0C331A607047C9
:1029900039B17B4A103212680243794B10331A6006
:1029A00006E0774A103212688243754B10331A6082
:1029B000704739B1724A243A12680243704B243B83
:1029C0001A6006E06E4A243A126882436C4B243B3C
:1029D0001A60704739B16A4A203A12680243684B5C
:1029E000203B1A6006E0664A203A12688243644B34
:1029F000203B1A60704739B1614A1C3A12680243A1
:102A00005F4B1C3B1A6006E05D4A1C3A1268824329
:102A10005B4B1C3B1A60704739B1594A143A126833
:102A20000243574B143B1A6006E0554A143A1268A9
:102A30008243534B143B1A60704739B1504A103AE5
:102A4000126802434E4B103B1A6006E04C4A103AA3
:102A5000126882434A4B103B1A60704739B1484AAA
:102A60001C3212680243464B1C331A6006E0444A8B
:102A70001C3212688243424B1C331A60704739B1D2
:102A80003F4A2032126802433D4B20331A6006E071
:102A90003B4A203212688243394B20331A60704718
:102AA00039B1374A243212680243354B24331A6055
:102AB00006E0334A243212688243314B24331A60D1
:102AC000704739B12E4A2C32126802432C4B2C33FA
:102AD0001A6006E02A4A2C3212688243284B2C33B3
:102AE0001A60704739B1264A303212680243244BCB
:102AF00030331A6006E0224A303212688243204B9B
:102B000030331A607047012808D11D493C310968EB
:102B100041F008011A4A3C32116007E018493C3183
:102B2000096821F00801164A3C321160704739B13A
:102B3000134A273A12780243114B273B1A7006E0DA
:102B40000F4A273A127882430D4B273B1A70704781
:102B50000B484030006840F08070094940310860FF
:102B6000704701460020064A283A12680A400AB116
:102B7000012000E0002070470149263908707047A5
:102B80003438024010B50446FE48844208D1012181
:102B90000846FFF752FF00210120FFF74EFF9DE09E
:102BA000B4F1804F08D101210846FFF735FF00211D
:102BB0000120FFF731FF91E0F348844208D1012161
:102BC0000220FFF729FF00210220FFF725FF85E003
:102BD000EE48844208D101210420FFF71DFF0021A7
:102BE0000420FFF719FF79E0E948844208D1012168
:102BF0000820FFF711FF00210820FFF70DFF6DE00F
:102C0000E448844208D101211020FFF705FF00218C
:102C10001020FFF701FF61E0DF48844208D1012165
:102C20002020FFF7F9FE00212020FFF7F5FE55E0F8
:102C3000DA48844208D101210220FFF7FEFE00217C
:102C40000220FFF7FAFE49E0D548844209D101216C
:102C50000804FFF7F2FE00214FF48030FFF7EDFE8D
:102C60003CE0D048844209D101214804FFF7E5FE49
:102C700000214FF40030FFF7E0FE2FE0CA48844205
:102C800009D101218804FFF7D8FE00214FF48020EC
:102C9000FFF7D3FE22E0C548844208D1012140203D
:102CA000FFF7BAFE00214020FFF7B6FE16E0C0484D
:102CB000844208D101218020FFF7AEFE0021802050
:102CC000FFF7AAFE0AE0BB48844207D10121801524
:102CD000FFF7A2FE0021A015FFF79EFE10BD002207
:102CE0000288A84B98420ED0AC4B98420BD0B0F162
:102CF000804F08D0A44B984205D0A44B984202D0F4
:102D0000A34B984204D14FF68F731A404B881A4355
:102D1000A04B984207D0A04B984204D04FF6FF43F7
:102D20001A400B891A4302804B68C3620B880385E3
:102D3000944B984202D0994B984201D18B7A0386EA
:102D40000123838270474FF0FF31416000210180F1
:102D500001814180817270470185828270470A46F5
:102D6000002101884FF68F7319401143018070478D
:102D700041627047C16270470146486A7047014628
:102D8000088D704721B1028842F00202028004E0FF
:102D900002884FF6FD731A400280704721B1028805
:102DA00042F00402028004E002884FF6FB731A40EE
:102DB0000280704721B1028842F08002028004E064
:102DC00002884FF67F731A400280704702884FF6E0
:102DD000F7731A40028002880A4302807047028813
:102DE0004FF6FF431A40028002880A430280704770
:102DF00021B1028842F00102028004E002884FF60D
:102E0000FE731A400280704770B500240022002330
:102E1000058C4FF6FE7635400584028C8388048B42
:102E20004FF68F752C40B51E2C400D882C43751E17
:102E30002A408D892A434D882A43524DA84202D008
:102E4000564DA84213D14FF6F7752A40CD892A4333
:102E50004FF6FB752A408D882A434FF6FF652B40BD
:102E60004FF6FF552B400D8A2B434D8A2B43838011
:102E700004838D684563028470BD70B50024002210
:102E80000023058C4FF6EF7635400584028C83884D
:102E9000048B48F6FF752C404FF6FF452C400D88FB
:102EA0004FF6FF7606EA05252C434FF6DF752A40DC
:102EB0008D8906EA05152A434D8806EA05152A4339
:102EC000304DA84202D0354DA8421DD14FF67F7536
:102ED0002A40CD894FF6FF7606EA05152A434FF6BC
:102EE000BF752A408D8806EA05152A434FF6FF353F
:102EF0002B404FF2FF752B400D8A06EA85052B43C8
:102F00004D8A06EA85052B43838004838D6885639B
:102F1000028470BD70B5002400220023058C4FF69A
:102F2000FF6635400584028C8388848B4FF68F754D
:102F30002C404FF6FC752C400D882C434FF6FF5566
:102F40002A408D894FF6FF7606EA05252A434D88EB
:102F500006EA05252A430B4DA84202D00F4DA84290
:102F600038D14FF2FF752A40CD894FF6FF7606EA39
:102F700005252A434FF6FF352A408D8806EA0525A8
:102F80002A4319E00000014000040040000800400E
:102F9000000C0040001000400014004000040140FC
:102FA000004001400044014000480140001800403A
:102FB000001C0040002000404EF6FF752B404DF6EF
:102FC000FF752B400D8A06EA05152B434D8A06EA4C
:102FD00005152B43838084838D68C563028470BD8F
:102FE00070B5002200230024058C4EF6FF76354094
:102FF0000584038C8488828B48F6FF752A404FF63F
:10300000FF452A400D884FF6FF7606EA05252A433C
:103010004DF6FF752B408D8906EA05352B434D880B
:1030200006EA05352B43FE4DA84202D0FD4DA842CD
:1030300008D14BF6FF752C400D8A4FF6FF7606EA55
:1030400085152C43848082838D680564038470BD5C
:10305000002101804180818081608181C181018264
:103060004182704770B5034600200024184618308E
:1030700001258D40ACB21D8CA5431D8409B10829E2
:103080000AD100EB610005684FF68F763540056088
:103090000568154305600FE00D1FC5F34E05284474
:1030A000056848F6FF763540056005684FF6FF76FF
:1030B00006EA02263543056070BD416370478163AF
:1030C0007047C1637047016470470A460021018B55
:1030D0004FF68F7319401143018370470A46002150
:1030E000018B48F6FF7319404FF6FF7303EA022382
:1030F0001943018370470A460021818B4FF68F7375
:1031000019401143818370470A460021818B48F69C
:10311000FF7319404FF6FF7303EA022319438183BB
:1031200070470A460021018B4FF6F773194011438F
:10313000018370470A460021018B4FF2FF7319404B
:103140004FF6FF7303EA02231943018370470A46CF
:103150000021818B4FF6F77319401143818370472B
:103160000A460021818B4FF2FF7319404FF6FF731F
:1031700003EA02231943818370470A460021018B29
:103180004FF6FB7319401143018370470A46002133
:10319000018B4FF6FF3319404FF6FF7303EA02230A
:1031A0001943018370470A460021818B4FF6FB7358
:1031B00019401143818370470A460021818B4FF6E5
:1031C000FF3319404FF6FF7303EA0223194381834B
:1031D00070470A460021018B4FF67F731940114357
:1031E000018370470A460021018BC1F30E014FF69F
:1031F000FF7303EA02231943018370470A46002143
:10320000818B4FF67F7319401143818370470A46C3
:103210000021818BC1F30E014FF6FF7303EA0223F5
:103220001943818370470A460021018C4FF6FD73D4
:1032300019401143018470470A460021018C4FF662
:10324000F77319401143018470470A460021018C2D
:103250004FF6DF7319404FF6FF7303EA0213194369
:10326000018470470A460021018C4FF67F73194094
:103270004FF6FF7303EA02131943018470470A46AD
:103280000021018C4FF6FF5319404FF6FF7303EAFC
:1032900002231943018470470A460021018C4FF232
:1032A000FF7319404FF6FF7303EA022319430184A9
:1032B00070470A460021018C4DF6FF7319404FF606
:1032C000FF7303EA023319430184704730B50023CA
:1032D00001248C40A3B2048C9C430484048C02FA25
:1032E00001F5ADB22C43048430BD30B50023042475
:1032F0008C40A3B2048C9C430484048C02FA01F534
:10330000ADB22C43048430BD828B4FF2FF331A40A0
:103310008283828B4FF6FF7303EA01231A43828371
:103320007047F0B50C461546002100220026078C98
:103330004EF6FF7C07EA0C070784818B028C4FF660
:10334000FF7707EA043640F6FF4739404FF6FF772C
:1033500007EA052739434FF6FF7707EA0337394372
:1033600045F6FF773A4046F480573A43818302841A
:10337000F0BD828B4FF6F3731A408283828B0A432F
:1033800082837047F0B50C461546002100220026C6
:10339000078C4FF6FF6C07EA0C070784818B028CC1
:1033A0004FF6FF7707EA04264FF60C7739404FF6C1
:1033B000FF7707EA03172F4339434FF2FF573A408D
:1033C00046F480773A4381830284F0BD028B4FF24A
:1033D000FF331A400283028B4FF6FF7303EA012387
:1033E0001A4302837047F0B50C46154600210022AF
:1033F0000026078C4FF6EF7C07EA0C070784018B49
:10340000028C4FF6FF7707EA041640F6FF47394073
:103410004FF6FF7707EA033739434FF6FF7703E0AC
:10342000000001400004014007EA052739434FF638
:103430005F773A4046F010073A4301830284F0BDBB
:10344000028B4FF6F3731A400283028B0A43028306
:103450007047F0B50C46154600210022068C4FF649
:10346000FE773E400684018B028C4FF60C7631408D
:103470007E1C06EA03162E4331434FF6F5763240A2
:1034800044F00106324301830284F0BD70B5054665
:103490000C46208850B92389A28861882846FFF706
:1034A000D8FFE1882846FFF7CBFF25E020880428D5
:1034B0000AD12389A28861882846FFF794FFE18812
:1034C0002846FFF783FF17E0208808280AD12389C0
:1034D000A28861882846FFF755FFE1882846FFF754
:1034E00048FF09E02389A28861882846FFF719FF71
:1034F000E1882846FFF708FF70BD00210180418068
:10350000012181800021C180018170472DE9F041B6
:1035100005460C4600260127608808B9022600E00F
:103520000026A088012801D1022700E00127208879
:10353000A0B92389A28861882846FFF78AFFE1881D
:103540002846FFF77DFF23893A4631462846FFF794
:103550004AFFE1882846FFF739FF13E02389A28854
:1035600061882846FFF73FFFE1882846FFF72EFFD6
:1035700023893A4631462846FFF76BFFE188284603
:10358000FFF75EFFBDE8F0810146486B70470146DA
:10359000886B70470146C86B70470146086C7047DE
:1035A0000A884B881A438B881A43CB881A430B89A5
:1035B0001A434B891A438B891A43A0F84420704759
:1035C0000021018041808180C18001814181818110
:1035D000704731B1B0F8442042F40042A0F84420D2
:1035E00005E0B0F84420C2F30E02A0F84420704772
:1035F00021B1828842F00402828004E082884FF682
:10360000FB731A408280704721B1828842F0010228
:10361000828004E082884FF6FE731A4082807047F1
:103620001AB183890B43838102E083898B438381B1
:1036300070478182704702460020138A0B400BB10D
:10364000012000E000207047CA430282704730B575
:103650000246002000230024158A05EA010395890B
:1036600005EA010413B10CB1012000E0002030BDD7
:10367000CA430282704741EA0203A0F8483070470B
:103680001AB183890B43838102E083898B43838151
:10369000704721B1828842F00802828004E082886B
:1036A0004FF6F7731A408280704701894FF6F8721F
:1036B0001140018170470A46002101894FF68F733E
:1036C000194011430181704730B504460D46294623
:1036D0002046FFF7F0FF208940F00700208130BD31
:1036E0002DE9F04104460D4616461F46602D06D1D1
:1036F0003B46012231462046FFF775FE05E03B467A
:10370000012231462046FFF7A4FE29462046FFF756
:10371000D2FF208940F007002081BDE8F08130B55C
:103720000C4600210189C9B24FF6FF7505EA032551
:10373000154325432943018130BD2DE9F04105465C
:103740000E4617469846002443463A4631462846D8
:10375000FFF7E5FF2C894FF6F870044044F00704AA
:103760004FF68F70044044F070042C81BDE8F08166
:10377000F0B504460D4616461F463B4632462946DE
:103780002046FFF7CCFF208940F480402081F0BD27
:1037900082884FF68F731A40828082880A43828023
:1037A000704702894FF6F8731A40028102890A4372
:1037B0000281704702894FF67F731A4002810289A5
:1037C0000A4302817047F0B50C4615461E4600219B
:1037D000002200230189028B038C4FF6F8773940D1
:1037E00021434FF6FC473A4040F201173A434FF667
:1037F000DD773B404FF6FF7707EA06172F433B4341
:10380000018102830384F0BD21B1828842F08002ED
:10381000828004E082884FF67F731A40828070476E
:10382000A0F850107047000010B50446FA488442D2
:1038300008D101211020FFF700F900211020FFF727
:10384000FCF857E0F548844209D101214804FFF70C
:10385000E3F800214FF40030FFF7DEF84AE0F048CB
:10386000844209D101218804FFF7D6F800214FF4E2
:103870008020FFF7D1F83DE0EA48844209D10121D8
:10388000C804FFF7C9F800214FF40020FFF7C4F87F
:1038900030E0E548844209D101210805FFF7BCF872
:1038A00000214FF48010FFF7B7F823E0DF4884428F
:1038B00008D101212020FFF7C0F800212020FFF7C8
:1038C000BCF817E0DA48844209D101218807FFF7E4
:1038D000A3F800214FF08040FFF79EF80AE0D5489A
:1038E000844207D101214005FFF796F800216005C9
:1038F000FFF792F810BD2DE9FF4705460E4600245C
:10390000A14600BFA046B08900B100BF2C8A24F4B4
:103910004054F08804432C82AC8941F20C6084430B
:10392000B08831890843718908430443AC81AC8A6B
:1039300024F44074B0890443AC826846FEF7FDFE6F
:10394000B548854202D0B948854202D1DDF80C90D5
:1039500001E0DDF80890A88900F4004040B109EBCF
:10396000C90000EB091031684900B0FBF1F707E02E
:1039700009EBC90000EB091031688900B0FBF1F7D1
:103980006420B7FBF0F004012009642101FB1078EA
:10399000A88900F4004040B1322000EBC800B0FB21
:1039A000F1F000F00700044308E0322000EB0810BB
:1039B0006421B0FBF1F000F00F0004432C81BDE85E
:1039C000FF874FF41651016000218180C180018181
:1039D0000C21418100218181704710B502460020F1
:1039E000108A20F470600B884C8823438C88234312
:1039F000CC8823431843108210BD002101804180F0
:103A00008180C180704721B1828942F40052828155
:103A100004E082894DF6FF731A4082817047028B61
:103A200002F47F420283028B0A430283704721B172
:103A3000828942F40042828103E08289C2F30E024D
:103A40008281704721B1828A42F40062828204E05E
:103A5000828A4FF2FF731A4082827047C1F30802D4
:103A60008280704701468888C0F308007047028A48
:103A70004FF6F0731A400282028A0A4302827047AC
:103A800021B1828942F00202828104E082894FF6EC
:103A9000FD731A408281704782894FF2FF731A408A
:103AA000828182890A4382817047028A4FF6DF73DE
:103AB0001A400282028A0A430282704721B1028AB6
:103AC00042F48042028204E0028A4BF6FF731A40FD
:103AD00002827047818941F001018181704721B1E3
:103AE000828A42F00802828204E0828A4FF6F773EB
:103AF0001A4082827047028BD2B20283028B42EA62
:103B000001220283704721B1828A42F02002828220
:103B100004E0828A4FF6DF731A408282704721B137
:103B2000828A42F01002828204E0828A4FF6EF73AA
:103B30001A4082827047828A4FF6FB731A40828253
:103B4000828A0A438282704721B1828A42F002024D
:103B5000828204E0828A4FF6FD731A4082827047A7
:103B60001AB1838A0B43838202E0838A8B43838268
:103B70007047F0B50346002400260025002040F6DB
:103B80006A17B94200D100BF1846C1F3421401F0D0
:103B90001F06012707FA06F5012C01D10C3004E0BD
:103BA000022C01D1103000E014301AB107682F4305
:103BB000076002E00768AF430760F0BD02460020DF
:103BC000B1F5007F00D100BF13880B400BB101207D
:103BD00000E00020704701F40072B2F5007F00D1D0
:103BE00000BFCA430280704770B50246002400231C
:103BF0000025002040F66A16B14200D100BFC1F393
:103C0000421501F01F03012606FA03F3012D13D11B
:103C10009689334017E00000001001400044004046
:103C200000480040004C004000500040001401409B
:103C300000780040007C0040022D02D1168A3340FB
:103C400001E0968A33400C12012606FA04F4168825
:103C5000344013B10CB1012000E0002070BD10B55C
:103C60000022002340F66A14A14200D100BF0A12CC
:103C700001249440A3B2DC43048010BD094880476E
:103C800009480047FEE7FEE7FEE7FEE7FEE7FEE73E
:103C9000FEE7FEE7FEE7FEE704480549054A064B56
:103CA000704700002503000889010008080800206B
:103CB000080E0020080A0020080A002070477047FC
:103CC0007047000000487047A80700207546FFF7BE
:103CD000F9FFAE4605006946534620F007008546C9
:103CE00018B020B5FFF7D8FFBDE820404FF0000620
:103CF0004FF000074FF000084FF0000B21F00701D4
:103D0000AC46ACE8C009ACE8C009ACE8C009ACE816
:103D1000C0098D46704710B50446AFF300802046B9
:103D2000BDE81040FCF779BA01491820ABBEFEE7A8
:103D30002600020070474FF04070E1EE100A704715
:103D4000603D00080000002038000000C4010008A9
:103D5000983D000838000020D00D0000E001000868
:103D6000007A030A000000000000000001020304C2
:103D70000607080900000000000000000000000025
:103D80000000000000000000000000000102030429
:083D9000010203040607080903
:040000050800018965
:00000001FF
