:020000040800F2
:10000000584100200D560008315600083B560008A4
:1000100045560008495600084D56000800000000EB
:100020000000000000000000000000005156000821
:1000300053560008000000005556000825560008D9
:10004000275600082756000827560008275600089C
:100050002756000827560008BD050008CF050008F0
:10006000275600082756000827560008275600087C
:100070002756000827560008F50A00080B1000084C
:10008000275600082756000827560008275600085C
:100090006304000827560008275600082756000862
:1000A000275600082756000827560008275600083C
:1000B000330700082756000827560008275600086F
:1000C000275600082756000827560008275600081C
:1000D00027560008D70800082756000827560008AA
:1000E00027560008275600082756000827560008FC
:1000F000275600082756000827560008131800083E
:1001000027560008275600082756000827560008DB
:10011000A30F00088717000861070008275600088A
:1001200027560008275600082756000827560008BB
:1001300027560008275600082756000829030008FC
:100140003F030008275600082756000827560008D6
:10015000275600082756000827560008E919000806
:10016000275600082756000827560008275600087B
:10017000275600082756000827560008275600086B
:100180002756000827560008DFF80CD015F0CCFFE2
:100190000048004721020008584100201CB50121F9
:1001A000042006F04DFF012000908DF8040000208F
:1001B0008DF8060003208DF805006946164806F004
:1001C000F9FC0121144806F073FD1CBD1CB501218A
:1001D000042006F035FF0820009001208DF804006F
:1001E00000208DF8060003208DF8050069460A48B6
:1001F00006F0E0FC0821084806F05AFD1CBD10B5C9
:100200004FF4A06005F040FA044800F0CFFA00F087
:10021000B7F800F009F810BD00080240A086010000
:10022000FFF7EDFF00BFFEE700B58BB00121022014
:1002300006F006FF0121880606F035FF09220C2191
:100240004C4806F042FD09220D214A4806F03DFDCA
:100250004FF44050029002208DF80C0002A945484E
:1002600006F0A8FC40208DF8040003208DF805005E
:100270008DF8060001208DF8070001A805F009FAA5
:100280003F208DF8040003208DF805008DF806004E
:1002900001208DF8070001A805F0FBF9364805F0AC
:1002A00063FA08A805F084FB00208DF826000120E1
:1002B0008DF8270000208DF828008DF829008DF892
:1002C0002A008DF82B008DF822008DF823000820DD
:1002D0008DF8240003208DF82500ADF8200008A932
:1002E000254805F05AFA0E208DF81A0000208DF8E6
:1002F0001B0001208DF81C000020ADF81000ADF8A7
:100300001200ADF81400ADF81600ADF81800012089
:100310008DF81D0004A805F0CAFA01220221164832
:1003200005F0C4FD0BB000BD10B50121124805F069
:1003300025FE18B10121104805F0BBFE10BD00B527
:1003400085B00E480068401C0C49086002210A482C
:1003500005F014FE58B10221074805F0AAFE6A46CE
:100360000021054805F087FC68460AF081FC05B0CD
:1003700000BD00000004024000680040240000208E
:1003800000B58BB00121084606F05AFE012148064F
:1003900006F089FE09220B21354806F096FC092259
:1003A0000C21334806F091FC4FF4C0500990022014
:1003B0008DF8280009A92E4806F0FCFB14208DF8C2
:1003C000040003208DF8050001208DF806008DF84B
:1003D000070001A805F05DF9264805F0C5F906A853
:1003E00005F0E6FA00208DF81E0001208DF81F00B0
:1003F00000208DF820008DF821008DF822008DF866
:1004000023008DF81A008DF81B0008208DF81C00C1
:1004100003208DF81D00ADF8180006A9154805F059
:10042000BCF900208DF812008DF8130001208DF822
:1004300014000020ADF80800ADF80A00ADF80C007B
:10044000ADF80E00ADF8100001208DF8150002A8DF
:1004500005F02DFA01220221064805F027FD0BB018
:1004600000BD10B50221034805F088FD10BD000055
:10047000000002400064004010B5002107E04AF28D
:10048000104200BF131EA2F10102FBD1491C8142A0
:10049000F5D310BD10B5002106E0282200BF131EC1
:1004A000A2F10102FBD1491C8142F6D310BD10B567
:1004B000002107E04AF2104200BF131EA2F1010220
:1004C000FBD1491C8142F5D310BD10B5002106E0D7
:1004D000282200BF131EA2F10102FBD1491C814258
:1004E000F6D310BD00B585B00121880306F0ECFD00
:1004F0000121142006F0A4FD00208DF810008DF8D5
:10050000120001208DF8130000208DF81100032047
:10051000039003A9324806F04DFB6020039003A925
:10052000304806F047FB0021022006F0D5FE0121ED
:10053000022006F0D1FE0521042006F0CDFE0621A2
:10054000042006F0C9FE6320019000208DF8080009
:100550000C208DF8090001208DF80A0001A805F093
:10056000DDFF06208DF8000002208DF8010001203B
:100570008DF802008DF80300684605F08AF8072020
:100580008DF8000002208DF801008DF80200012096
:100590008DF80300684605F07CF817208DF8000000
:1005A00002208DF8010003208DF8020001208DF853
:1005B0000300684605F06DF805B000BD10B50120D8
:1005C00006F012F810B1012006F01FF810BD10B5AA
:1005D000022006F009F810B1022006F016F810BD4E
:1005E00000080240001002400EB50121022006F072
:1005F0006BFD4FF0FF300190A720ADF80000002008
:10060000ADF80800ADF802000121634806F0B4FF20
:100610006946614806F045FF01215F4806F0ACFFDE
:10062000002211465C4806F079FF01215A4806F085
:100630008BFF0121584806F0BDFF0EBD1FB50121FB
:10064000102006F030FD36208DF8000000208DF8D7
:10065000010002208DF8020001208DF80300684699
:1006600005F017F85320ADF804000020ADF806009F
:10067000ADF80C004FF47A70029001A9474806F0DB
:1006800010FF1FBD10B50121444806F093FF012261
:100690001146424807F0A6FB0121404807F0B6FB8F
:1006A00010BD0EB50121042006F0FDFC4FF0FF3017
:1006B0000190A720ADF800000020ADF80800ADF8CB
:1006C00002000121364806F057FF6946344806F01B
:1006D000E8FE0121324806F04FFF00221146304863
:1006E00006F01CFF01212E4806F02EFF01212C48A8
:1006F00006F060FF0EBD0EB50121084606F0D3FCE2
:100700004FF0FF3001905320ADF800000020ADF80D
:100710000800ADF802000121880706F02DFF6946A8
:100720004FF0804006F0BDFE0121880706F042FF31
:100730000EBD10B50121880707F06BFB78B10121D0
:10074000880707F077FB0121880707F05FFB02218C
:10075000144806F0B6FA0421124806F0B2FA10BDA9
:1007600010B501210D4807F054FB40B101210D489F
:1007700006F0A7FA0C48008808B108F04DF90121ED
:10078000064807F057FB0121044807F03FFB10BD66
:100790004FF08040406A7047000401400010004064
:1007A00000080040000802400C00002010B596B080
:1007B00004460121022006F043FC0121102006F02E
:1007C00083FC072211466F4806F07FFA07220621B4
:1007D0006C4806F07AFA14A806F034FAC020149097
:1007E00002208DF8540000208DF8550001208DF86E
:1007F000570014A9634806F0DDF9634807F0F6FBDB
:1008000010A807F0A7FC10940020ADF84400ADF844
:100810004600ADF84800ADF84C000C20ADF84A0099
:1008200010A9594807F030FC012240F225515648E2
:1008300007F068FD25208DF83C0000208DF83D0074
:100840008DF83E0001208DF83F000FA804F021FF35
:100850000121880506F0F4FB012240214A4807F0F7
:1008600048FD4A4805F078FC684605F040FD4848D8
:100870000290402004904648029080200490000599
:1008800000904148001D01900020039005904FF416
:10089000806006900020079008904FF480700990C7
:1008A00000020A9000200B900C900D900E9069466B
:1008B000364805F0F3FC002235494031334805F055
:1008C0004EFD0121314805F056FD01212F4805F06C
:1008D0001FFD16B010BD10B540F224412A4807F0A4
:1008E0004CFD002843D028480088274880882748A6
:1008F00005F051FDE8B90021244805F009FD25491E
:10090000224805F07EFD214805F025FDC0F140009C
:100910002149086040201D49091D0860081F006822
:1009200040F40020091F08600121184805F0F0FC80
:100930001DE00021154805F0EBFC1649134805F0B1
:1009400060FD124805F007FDC0F140001249086043
:1009500040200E49091D0860081F006820F400208F
:10096000091F08600121094805F0D2FC00BF10BD35
:1009700010B5072312220949094814F00DFD10BDD6
:1009800007487047000402400010014040640240E4
:10099000000A0020000030102C000020800A0020F7
:1009A000400C002000BF704700BFB14A128802F01F
:1009B0004002002AF9D0C2B2AD4B1B1D1A8070470D
:1009C00000B597B00121022006F03AFB012188040E
:1009D00006F069FB07220A21A64806F076F90722ED
:1009E0000B21A44806F071F94FF4406011900220E9
:1009F0008DF8480000208DF84A0002208DF849004B
:100A000000208DF84B0011A99A4806F0D3F89848B9
:100A100007F0ECFA13A807F09DFB4FF4E1301390B8
:100A20000020ADF85000ADF85200ADF85400082099
:100A3000ADF856000020ADF8580013A98C4807F017
:100A400023FB01218A4807F0A7FB01228021884867
:100A500007F04FFC0021884805F05AFC864805F055
:100A60007BFB00BF844805F0A0FC0028FAD14FF0C2
:100A7000006001907E48001D029080480390402055
:100A800004900020059006904FF4806007900020AD
:100A9000089009900A904FF480300B9000200C9041
:100AA00003200D9000200E900F9001A9724805F0D0
:100AB000F5FB0E208DF8400002208DF8410001204A
:100AC0008DF842008DF8430010A804F0E2FD0122E9
:100AD0001021694805F0A9FC17B000BD70B50446A7
:100AE0000D462946204605F034FC0121204605F03C
:100AF0000FFC70BD10B54FF0C0515F4805F065FCAC
:100B000040B100215C4805F003FC4FF0C0515A4849
:100B100005F077FC10BD70B504460025574D05F86B
:100B2000014B01215448FFF7D9FF70BD2DE9F04179
:100B300005460E4600240027504F00BF03E0285D05
:100B40003855601C84B2B442F9DB31464A48FFF79D
:100B5000C5FFBDE8F08100B597B00121022006F085
:100B60006FFA0121480506F06BFA0121880406F0AE
:100B70009AFA07220A213F4806F0A7F807220B211C
:100B80003C4806F0A2F84FF44060119002208DF826
:100B9000480000208DF84A0002208DF8490000200E
:100BA0008DF84B0011A9334806F004F8304807F0DF
:100BB0001DFA4FF4E13013900020ADF85000ADF86D
:100BC0005200ADF854000C20ADF856000020ADF8EE
:100BD000580013A9264807F057FA0122402124485B
:100BE00007F087FB2448303805F0B6FA4FF0006074
:100BF00001901F48001D029021480390002004909E
:100C000064200590002006904FF48060079000203B
:100C1000089009900A904FF480300B9000200C90BF
:100C20000D900E900F9001A91348303805F036FB57
:100C300001211148303805F06BFB27208DF840006A
:100C400003208DF841008DF8420001208DF843000B
:100C500010A804F01EFD012240F22441044807F0D0
:100C600051FB0121024807F097FA17B000BD0000C0
:100C7000004800400004024058600240300000205C
:100C8000590C002001460878704701464E488142C1
:100C900001D2002070474D48814201D20820F9E777
:100CA0004B48814201D21020F4E74A48814201D2E8
:100CB0001820EFE74848814201D22020EAE7474860
:100CC000814201D22820E5E74548814201D2302007
:100CD000E0E74448814201D23820DBE742488142C4
:100CE00001D24020D6E74148814201D24820D1E7D5
:100CF0003F48814201D25020CCE75820CAE72DE975
:100D0000FC5F04460D4690464FF008090120019013
:100D100000264FF0000A4FF0000B00200090002743
:100D2000B4F1006F01D2BDE8FC9F05F0B5FC0020D6
:100D300005F095FC264604EB080A3046FFF7A5FFB0
:100D400083465046FFF7A1FF00902A48864211D201
:100D50005F460BE00221384605F0EAFC8146B9F116
:100D6000080F02D00020019003E008370098874266
:100D7000F0D900BFB9F1080F0ED10AE0297820465A
:100D800005F0D1FD082802D00020019003E0641C8A
:100D90006D1C5445F2D300BF012005F060FC05F046
:100DA00088FC0198BFE72DE9F04107460D4616463D
:100DB000002405E03846FFF765FF28557F1C641CBA
:100DC000B442F7D3BDE8F08100400008008000087D
:100DD00000C000080000010800000208000004082C
:100DE000000006080000080800000A0800000C08BF
:100DF00000000E080000FF1F00B597B0012104207D
:100E000006F01EF90121C80406F04DF908220A2156
:100E1000984805F05AFF08220B21964805F055FF27
:100E20000121480506F00CF94FF4406011900220B2
:100E30008DF8480000208DF84A0003208DF8490005
:100E400001208DF84B0011A98A4805F0B3FE4FF43C
:100E5000E13013900020ADF85000ADF85200ADF82D
:100E600054000C20ADF856000020ADF8580013A92E
:100E7000814807F009F9012240217F4807F039FA3B
:100E80007E4805F069F901A805F031FA4FF00060DD
:100E900001907948001D0290794803900020049049
:100EA00020200590002006904FF4806007900020DD
:100EB000089009900A904FF480300B9000200C901D
:100EC0000D900E900F9001A96C4805F0E7F90121F3
:100ED0006A4805F01DFA34208DF8400002208DF894
:100EE000410001208DF842008DF8430010A804F065
:100EF000D0FB01228021604807F0FBF900215F4808
:100F0000303005F005FA5D48303005F025F900BFB6
:100F10005A48303005F049FA0028F9D14FF0006006
:100F200001905548001D02905648039040200490BF
:100F30000020059006904FF48060079000200890F4
:100F400009900A904FF480300B9000200C90032001
:100F50000D9000200E900F9001A94848303005F008
:100F60009DF90F208DF8400002208DF841000120EE
:100F70008DF842008DF8430010A804F08AFB01228E
:100F800010213E48303005F050FA012240F2244151
:100F9000394807F0B7F90121374807F0FDF817B0D5
:100FA00000BD10B5002440F22441334807F0E5F9B4
:100FB000F0B1314800883048001D008800212F48DA
:100FC00005F0A6F930492D4805F01BFA2B4805F02D
:100FD000C2F9C0F12000C4B22949204610F072FACB
:100FE0002021264805F0B5F90121244805F090F9A3
:100FF00010BD70B504460D462946204605F0A9F9F6
:101000000121204605F084F970BD10B51F491B4829
:10101000303005F0DAF948B100211848303005F0D9
:1010200077F91A491548303005F0EBF910BD70B565
:1010300004460025134D05F8014B01210F483030BF
:10104000FFF7D7FF70BD2DE9F04105460E4600249D
:1010500000270C4F00BF03E0285D3855601C84B2A8
:10106000B442F9DB314605483030FFF7C2FFBDE836
:10107000F081000000080240004C00404060024047
:10108000BD0C0020DD0C00200000301020000020EE
:1010900000B597B00121042005F0D2FF01210820FE
:1010A00005F0CEFF0121080505F0FDFF08220C2107
:1010B000FE4805F00AFE08220221FD4805F005FE63
:1010C0000121480505F0BCFF02208DF848000020F2
:1010D0008DF84A004FF48050119001208DF84B009C
:1010E00003208DF8490011A9F04805F063FD0220A6
:1010F0008DF8480000208DF84A000420119001204E
:101100008DF84B0003208DF8490011A9E84805F03F
:1011100051FD4FF4E13013900C20ADF85600002043
:10112000ADF85400ADF85200ADF85000ADF85800DD
:1011300013A9E04806F0A8FF0121DE4807F02CF8CB
:1011400001224021DB4807F0D4F8DB4805F004F821
:1011500001A805F0CCF84FF000600190D548001DC3
:101160000290D6480390002004906420059000204F
:1011700006904FF4806007900020089009900A9034
:101180004FF480300B9000200C900D900E900F903B
:1011900001A9C94805F082F80121C74805F0B8F84F
:1011A00035208DF8400003208DF8410001208DF896
:1011B00042008DF8430010A804F06BFA012240F2BF
:1011C0002551BC4807F09EF80021BB48A83005F027
:1011D0009FF8B948A83004F0BFFF00BFB648A83058
:1011E00005F0E3F80028F9D14FF000600190B14814
:1011F000001D0290B24803904020049064200590A6
:10120000002006904FF4806007900020089009901D
:101210000A904FF480300B9000200C9003200D902A
:1012200000200E900F9001A9A348A83005F036F8D1
:101230002F208DF8400002208DF8410001208DF80C
:1012400042008DF8430010A804F023FA0122102177
:101250009948A83005F0E9F8012240F22441954868
:1012600007F050F80121934806F096FF17B000BD33
:1012700010B52DED0C8B00247DE29048005D6F28A9
:1012800079D1601E8D49085C5628F9D1201D085C73
:101290002E2872D1E01D085C20286ED1894890ED7F
:1012A000000AF7EE000A30EE200A80ED000AA01CCA
:1012B000085C303800EE100AB8EEC00A824880EDB3
:1012C000000AE01C085C303800EE100AB8EEC00AD4
:1012D0007E4880ED000A601D085C303800EE100A80
:1012E000B8EEC00A7A4880ED000AA01D085C3038CC
:1012F00000EE100AB8EEC00A764880ED000A0068D9
:1013000014F0BCFD41EC1B0B9FED730B53EC102B49
:1013100014F07DFC41EC190B6D48006814F0AEFD33
:1013200041EC1D0B9FED6E0B53EC102B14F06FFC7A
:1013300041EC1B0B654890ED000A6348D0ED000AB4
:10134000B2EE041A00EE810A10EE101A084614F0EC
:1013500095FD41EC1C0B53EC1B2B14F0B1FB41EC45
:101360001A0B53EC192B14F0ABFB41EC180B14F0D7
:10137000C9FD5D4908606CE0FFE75049E01C085C6E
:101380002E2866D1A01D085C202862D14D4890ED22
:10139000000AF7EE000A30EE200A80ED000AA01CD9
:1013A000085C303800EE100AB8EEC00A474880EDFD
:1013B000000A201D085C303800EE100AB8EEC00AA2
:1013C000434880ED000A601D085C303800EE100ACA
:1013D000B8EEC00A3F4880ED000A006814F04EFDE8
:1013E00041EC1B0B9FED3C0B53EC102B14F00FFC4E
:1013F00041EC190B3648006814F040FD41EC1D0B20
:101400009FED370B53EC102B14F001FC41EC1B0B40
:101410002E4890ED000A2C48D0ED000AB2EE041AD6
:1014200000EE810A10EE101A084614F027FD41EC78
:101430001C0B53EC1B2B14F043FB41EC1A0B53EC2D
:10144000192B14F03DFB41EC180B14F05BFD264901
:1014500008601A48005D73287DD1601E1749085C3A
:101460005028F9D1201D085C2E2875D1E01D085C9C
:101470000D2871D104F10800085C0A286CD11B48C2
:1014800090ED000AF7EE000A30EE200A80ED000A27
:10149000A01C085C303800EE100AB8EEC00A1448F0
:1014A00080ED000AE01C085C303823E000080240B0
:1014B000000C02400050004010600240A30D0020CC
:1014C000070E0020C80000209C000020A000002083
:1014D000A4000020A80000207B14AE47E17A843FDE
:1014E0009A9999999999B93FAC000020CC000020B5
:1014F000B000002000EE100AB8EEC00ADA4880ED15
:10150000000A601D085C303800EE100AB8EEC00A10
:10151000D64880ED000AA01D085C303800EE100AA5
:10152000B8EEC00AD24880ED000A006814F0A6FCAC
:1015300041EC1B0B1FED180B53EC102B14F067FB49
:1015400041EC190BC948006814F098FC41EC1D0BE4
:101550001FED1D0B01E00DE127E053EC102B14F003
:1015600056FB41EC1B0BC04890ED000AC148D0ED82
:10157000000AB2EE041A00EE810A10EE101A0846B4
:1015800014F07CFC41EC1C0B53EC1B2B14F098FA70
:1015900041EC1A0B53EC192B14F092FA41EC180B96
:1015A00014F0B0FCB4490860E4E0B449601D085C84
:1015B0002E287DD104F10800085C0D287ED104F1AD
:1015C0000900085C0A2879D1A01C085C303800EEBC
:1015D000100AB8EEC00AAA4880ED000AE01C085CB8
:1015E000303800EE100AB8EEC00AA24880ED000ABA
:1015F000201D085C303800EE100AB8EEC00A9A4888
:1016000080ED000AA01D085C303800EE100AB8EE2C
:10161000C00A964880ED000AE01D085C303800EEF4
:10162000100AB8EEC00A924880ED000A006814F073
:1016300025FC41EC1B0B1FED580B53EC102B14F049
:10164000E6FA41EC180B8948006814F017FC41ECED
:101650001D0B1FED5D0B53EC102B14F0D8FA41EC71
:101660001B0B874890ED000ADFED860A20EE200A6A
:101670008048D0ED000AB2EE041A00EE810A7A48E2
:10168000D0ED000A30EE200A10EE101A084614F0D1
:10169000F5FB41EC1C0B53EC1B2B14F011FA41EC45
:1016A0001A0B53EC182B14F00BFA41EC190B00E059
:1016B00004E014F027FC704908605BE06F49E01C0F
:1016C000085C2E2856D1A01D085C0D2852D1E01DC3
:1016D000085C0A284ED1A01C085C303800EE100AC5
:1016E000B8EEC00A604880ED000A201D085C303862
:1016F00000EE100AB8EEC00A5C4880ED000A601DDA
:10170000085C303800EE100AB8EEC00A584880ED88
:10171000000A006814F0B2FB41EC1B0B1FED920BAA
:1017200053EC102B14F073FA41EC190B4F4800687E
:1017300014F0A4FB41EC1D0B1FED970B53EC102B89
:1017400014F065FA41EC1B0B4748006814F096FB57
:1017500041EC1C0B53EC1B2B14F0B2F941EC1A0BAF
:1017600053EC192B14F0ACF941EC180B14F0CAFB34
:1017700041490860641C444800788442FFF67DAD0E
:10178000BDEC0C8B10BD10B540F225513F4806F062
:10179000F4FDC0B13D4800883C48808800213C48A9
:1017A00004F0B6FD3B493A4804F02BFE384804F0FB
:1017B000D2FDC0F1640034490870FFF759FD0121E2
:1017C000334804F0A5FD10BD70B505460C464FF03A
:1017D00020512F48A83004F014FE012280212B480C
:1017E00006F087FD00212A48A83004F091FD00BFD3
:1017F0002748A83004F0D9FD0028F9D12146244813
:10180000A83004F0A6FD01212148A83004F080FD95
:1018100070BD10B54FF020511D48A83004F0D5FD23
:1018200050B100211A48A83004F072FD4FF0205149
:101830001748A83004F0E5FD10BD2DE9F04105463C
:101840000E4600240027144F00BF03E0285D3855E2
:10185000601C84B2B442F9DB31460D48A830FFF772
:10186000B3FFBDE8F0810000B4000020B800002004
:10187000BC000020B0000020C4000020A30D002008
:10188000C00000200000C842980000200050004026
:101890001060024030000010070E0020F0B5034633
:1018A0000C461888002113E0675C80EA07200025B9
:1018B0000BE0460000F4004CBCF1000F03D041F2F5
:1018C000210C86EA0C0630466D1C082DF1D3491C0C
:1018D0009142E9D31880F0BD00B597B001210420F2
:1018E00005F0AEFB0121880505F0AAFB01212020AF
:1018F00005F0EAFB08220621FE4805F0E6F9082279
:101900000721FC4805F0E1F9C020119002208DF874
:10191000480000208DF84A0002208DF84900002080
:101920008DF84B0011A9F34805F044F9F24806F090
:101930005DFB4FF4E13013900020ADF85000ADF89E
:101940005200ADF854000C20ADF856000020ADF860
:10195000580013A9E84806F097FB01224021E64809
:1019600006F0C7FCE54804F0F7FB4FF0206001905B
:10197000E148001D0290E24803900020049064209A
:101980000590002006904FF480600790002008909A
:1019900009900A904FF480300B9000200C900D902D
:1019A0000E900F9001A9D54804F078FC0121D3488E
:1019B00004F0AEFC47208DF8400003208DF8410074
:1019C0008DF8420001208DF8430010A803F061FE5D
:1019D000012240F22441C84806F094FC0121C64887
:1019E00006F0DAFB17B000BD2DE9F8430027002010
:1019F000009000268046062540F22441BE4806F0AD
:101A0000BCFC002873D0BC480088BB48001D00887F
:101A10000021BA4804F07CFCBA49B84804F0F1FC53
:101A2000B64804F098FCC0F16400C6B2B6484078ED
:101A300000285DD00020B24981F86300B2484078A8
:101A4000C0F3800078B1B1A1AD4814F012F8B049EC
:101A500008600846006830B1AB48007820F0040008
:101A6000001DA9490870A848407800F0010078B12D
:101A7000A6A1A34813F0FDFFA54908600846006829
:101A800030B1A148007820F00100401C9E49087048
:101A90009D484078C0F3400078B19CA1984813F06D
:101AA000E8FF9B4908600846006830B19648007816
:101AB00020F00200801C9449087093484078C0F3DD
:101AC000C00078B193A18E4813F0D3FF904908600D
:101AD0000846006830B18C48007820F008000830D3
:101AE000894908706421864813F0B8FF4EE155E13A
:101AF000834800785A28F9D181484078A528F5D143
:101B00007F4880787E49C97800EB0120801DB04273
:101B1000ECD1082EEADB042279496846FFF7BEFEC5
:101B2000B21F7749891D6846FFF7B8FE74480079EF
:101B30007349497900EB012087B2BDF80000B84233
:101B4000D4D106251FE16E4844192078C02869D0F9
:101B500008DC90280FD0A02813D0A5282CD0B028BE
:101B60007BD144E0D0287CD0D12878D0D92877D038
:101B7000F028F5D101E160786B490870A81CC5B266
:101B800000E16078A17800EB012000B26649A1F87D
:101B90000100E078217900EB012000B26249A1F850
:101BA00003006079A17900EB012000B25E49A1F841
:101BB0000500E81DC5B2E5E06078A17800EB0120E2
:101BC00000B25949A1F80700E078217900EB012023
:101BD00000B25549A1F809006079A17900EB012014
:101BE00000B25149A1F80B00E81DC5B2CAE0607807
:101BF000A17800EB012000B24B49A1F80D00E0787C
:101C0000217900EB012000B24749A1F80F0060796B
:101C1000A17900EB012000B24349A1F81100E81DB1
:101C2000C5B2AFE06078A17800EB012000B23E4978
:101C3000A1F81300E078217900EB012000B23A49C5
:101C4000A1F815006079A17900EB012000B23649B6
:101C5000A1F81700E81DC5B294E091E001E079E039
:101C600068E06078A17800EB012000B22E49A1F86D
:101C70001900E078217900EB012000B22A49A1F88F
:101C80001B006079A17900EB012000B22649A1F880
:101C90001D000846B0F9190000EE100AB8EEC00A9F
:101CA000DFED220A20EE200A10EE100AC1F83B00F8
:101CB0000846B0F91B0000EE100AB8EEC00ADFEDCE
:101CC0001B0A20EE200A10EE100AC1F83F00084659
:101CD000B0F91D0000EE100AB8EEC00ADFED140ADC
:101CE00020EE200A10EE100AC1F84300E81DC5B22C
:101CF00048E000000008024000140140286402404F
:101D0000B20E0020000C0010D40000204F4B000049
:101D1000D80000206E6577207061636B6574206960
:101D200074656D73000000006B0E00200AD7233C21
:101D3000CDCCCC3D9B4854F8011FC0F81F10616802
:101D4000C0F82310A168641EC0F8271005F10D002B
:101D5000C5B217E0934854F8011FC0F82B10616812
:101D6000C0F82F10A168C0F83310E168641EC0F8F5
:101D7000371005F11100C5B204E0681DC5B201E0DD
:101D8000354600BF00BFB542FFF6DDAE6421864890
:101D900004F0DFFA0121844804F0BAFABDE8F883C0
:101DA00010B58048B0F91100404200EE100AB8EEBC
:101DB000C00A5FED210A20EE200A7C4880ED000A6F
:101DC0007848B0F90F00404200EE100AB8EEC00AA1
:101DD0005FED290A20EE200A754880ED000A75485B
:101DE00090ED000A744880ED000A6E48D0F8430078
:101DF00000EE100AB1EE400A6E4880ED000A90ED48
:101E0000000A6D48D0ED000A30EE600ADFED6B0A83
:101E1000B4EEE00AF1EE10FA05DB69480068401EF6
:101E20006749086013E0634890ED000A6248D0ED0E
:101E3000000A30EE600ADFED630AB4EEE00AF1EE6C
:101E400010FA04D85E480068401C5D4908605C4890
:101E500000684FF4B471484300EE100AB8EEC00AAF
:101E60005448D0ED000A30EE200A574880ED000AB1
:101E70004C48D0F83B0055490860012006F05CFC56
:101E8000044613F093FD10BD10B504460DE0214645
:101E90004FA014F087F95148407820F00200801CD0
:101EA0004E4948706420FEF7E7FA4C480078C0F3CA
:101EB00040000028EBD04948407820F00200474914
:101EC000487010BD10B504460DE0214644A014F042
:101ED00069F94248407820F00400001D3F494870ED
:101EE0006420FEF7C9FA3D480078C0F3800000285E
:101EF000EBD03A48407820F004003849487010BDD3
:101F000010B504460DE0214639A014F04BF93348D2
:101F1000407820F008000830304948706420FEF70F
:101F2000ABFA2E480078C0F3C0000028EBD02B4855
:101F3000407820F008002949487010BD10B50446CB
:101F40000DE021462EA014F02DF92448407820F011
:101F50000100401C214948706420FEF78DFA1F489B
:101F6000007800F001000028EBD01C48407820F0F9
:101F700001001A49487010BD10B525A014F012F9DF
:101F800010BD10B525A0FFF7D9FF25A0FFF79AFFD8
:101F900025A0FFF779FF26A0FFF7B2FFFFF7ECFFC0
:101FA00010BD00006B0E0020286402402C070020AA
:101FB00028070020E0000020DC0000200000A543EE
:101FC000E40000200000A5C31C070020200700201B
:101FD00041542B4F44523D25730D0A00D40000207C
:101FE00041542B424155443D25730D0A0000000029
:101FF00041542B53455450544C3D25730D0A000059
:1020000041542B454F55543D25730D0A00000000E7
:1020100041542B5253540D0A0000000030000000C0
:1020200031313532303000003130303000000000C6
:1020300041302C42302C43302C44302C44390000A9
:10204000F9A07047FA48704770B505460C4620461F
:1020500015F0FCFA70BD70B505460C46204615F02B
:10206000CDFA70BD2DE9F05F0546884692462C46B4
:10207000A06800EB08096068484525D2D4F814B080
:1020800060684600BBF1000F01D1DFF8A8B300E0A3
:1020900076004E45FCD33146584602F035FE0746E1
:1020A0000FB9BDE8F09F3846D4E9022113F0AFFC28
:1020B000206920B15846E16802F02EFE01E00120BF
:1020C0002061E760666000BFD4E9022188184246BB
:1020D000514613F09CFCC4F8089000BFE1E70146AC
:1020E000102901D201207047B1F5006F01D2022002
:1020F000F9E7B1F5802F01D20320F4E7B1F1007FB9
:1021000001D20420EFE70520EDE70146802901D246
:1021100001207047B1F5804F01D20220F9E7B1F5F7
:10212000001F01D20320F4E7B1F1805F01D2042047
:10213000EFE70520EDE70146002901DA0A207047A4
:10214000802901DA0120FAE7B1F5804F01DA022097
:10215000F5E7B1F5001F01DA0320F0E7B1F1805F88
:1021600001DA0420EBE70520E9E770B505460E46E5
:1021700034461CB92846FFF7C8FF70BD082C01D2B1
:102180000520FAE7B4F5806F01D20620F5E7B4F533
:10219000003F01D20720F0E7B4F1807F01D2082090
:1021A000EBE7B4F1004F01D20920E6E70A20E4E7AB
:1021B0002DE9F05F80460D4692460026DAF8007061
:1021C00015B90020BDE8F09FD8F80400FFF787FF9D
:1021D000814698F81C0000F0010008B909FB05F9D8
:1021E00098F80900112814D2DFE800F015094839E1
:1021F0002B4E20493A4F4A5054145666730000241F
:1022000005E057F8240002F0CDFD0644641CAC4202
:10221000F7D36EE000BF002405E057F82400FFF775
:102220008AFF0644641CAC42F7D362E0002405E058
:1022300057F82400FFF769FF0644641CAC42F7D34B
:1022400057E0002408E007EBC400D0E90021104665
:1022500002F0B1FD0644641CAC42F4D349E000BF77
:10226000002408E007EBC401D1E900211046FFF784
:102270007CFF0644641CAC42F4D33AE000BF00BFCC
:10228000042000FB056634E000BF00BF082000FB0F
:1022900005662EE02E442CE000240AE057F82400C6
:1022A00013F0F9FB83465846FFF72FFF58440644C6
:1022B000641CAC42F2D31CE0002407E057F834B0B1
:1022C0005846FFF722FF58440644641CAC42F5D33D
:1022D0000FE000240AE057F8240000F0D6F8834607
:1022E0005846FFF712FF58440644641CAC42F2D330
:1022F00000BF00BF98F81C0000F0010018B1304684
:10230000FFF703FF814409EB06005BE770B5054664
:102310000C460026687A112860D2DFE800F012111E
:10232000141D1C1F13151E202D3909104D57580060
:10233000206808B9012000E00020064650E000BFF8
:1023400000BF00BF00BF00BF206808B9012000E047
:102350000020064644E000BF00BF00BF00BF0021D0
:102360000846D4E9003259405040014301D10120D0
:1023700000E00020064633E094ED000AB5EEC00A06
:10238000F1EE10FA01D1012000E00020064627E01E
:1023900094ED001BB0EE410AF0EE610A53EC102BF5
:1023A0009FED251B51EC110B13F07CFD01D1012099
:1023B00000E00020064613E0206810B12068007895
:1023C00008B9012000E00020064609E000BF2068AF
:1023D00008B9012000E00020064601E0012600BF08
:1023E00000BF304670BD70B504460D4629462046F4
:1023F000FFF78CFF08B1002070BD2946204600F091
:10240000B0F8F9E770B504460E461546607A102814
:1024100002D0607A0E2814D1296811B1A0698842CF
:102420000ED1002070BD0000312E332E330000008D
:10243000FB4D0F00E800002000000000000000003D
:1024400002E00EB90020EDE72946204600F089F8A9
:10245000E8E770B504460E4615466068B04201D004
:10246000002070BD607A102802D0607A0E2807D153
:10247000296811B1A069884201D10020F1E700BFAD
:102480002946204600F06DF8EBE72DE9F0470546B8
:10249000002728680068FA49884200D105E040F228
:1024A000CB22F8A1FC4812F024FF002643E0286864
:1024B000C06906EB460101EBC60100EB810420690F
:1024C00000EB0509E06800EB0508207A28B94946C9
:1024D000204600F046F807442CE0207A012802D07C
:1024E000207A03280BD1207F00F0040038B14A463F
:1024F0002046D8F80010FFF7ACFF07441AE0207A16
:10250000012807D14A462046D8F80010FFF77AFF85
:1025100007440FE0207A032805D149462046FFF7FB
:1025200062FF074406E04A462046D8F80010FFF74D
:102530003FFE0744761C28688069B042B7D8002661
:1025400009E0A86800EB06142068FFF7C8FDA16841
:1025500008440744761C6868B042F2D83846BDE8A3
:10256000F0872DE9F04106460D467068FFF7B7FD8C
:102570000446707A11285BD2DFE800F010092921A7
:102580001A2C152A222D3234300F37454C0028687A
:1025900002F008FC2044BDE8F08100BF2868FFF786
:1025A000CAFD2044F7E72868FFF7AFFD2044F2E7B3
:1025B000D5E90021104602F0FEFB2044EBE700BF06
:1025C000D5E900211046FFF7D0FD2044E3E700BF26
:1025D000201DE0E700BF04F10800DCE7601CDAE73B
:1025E000201DD8E704F10800D5E72F681FB1384651
:1025F00013F051FA00E0002080464046FFF785FDC9
:1026000020444044C7E72F683846FFF77EFD20444A
:102610003844C0E72F681FB13846FFF736FF00E0A7
:10262000002080464046FFF770FD20444044B2E75A
:1026300040F2CD1293A199A012F05BFE30B5024694
:102640000020802A21D3D3B243F080050346401CEA
:10265000CD54D209802A18D3D3B243F08005034663
:10266000401CCD54D209802A0FD3D3B243F0800549
:102670000346401CCD54D209802A06D3D3B243F07E
:1026800080050346401CCD54D2090346401CCA5461
:1026900030BD70B505460C46002D1CDAE8B240F09E
:1026A00080002070802040EAE5106070802040EAC1
:1026B000A530A070802040EA6550E070802040EA9C
:1026C00025702071FF202072E071A07160710120DF
:1026D00060720A2070BD21462846FFF7AFFFF9E778
:1026E0002DE9F04707468846144645463E462DB933
:1026F00021463046FFF7A2FFBDE8F087F0B240F078
:1027000080002070802040EAD6106070802040EA6F
:102710009630A070802040EA5650E070082D05D217
:10272000280140EA167020710520E5E76807400E91
:1027300040EA167040F080002071ED084FF0050966
:1027400007E0E8B240F08002484609F1010922544E
:10275000ED09802DF5D2484609F101092554484676
:10276000CAE72DE9F04104460D46B4F1005F05D2F9
:10277000E0002946FFF762FFBDE8F0810020C000BD
:1027800040EA5471E6002A463046FFF7A9FFF3E716
:1027900070B504460D4629462068FFF7E2FF06465D
:1027A0002878217908432870A819D4E9022113F068
:1027B0002EF9A068304470BD2DE9F05F81460E46C9
:1027C00014462146D9F80400FFF7CBFF054699F8D7
:1027D0000900112853D2DFE800F01309382D2344F3
:1027E0001B392E453A4663126B8BA100207820706E
:1027F0006119306802F0ECFA2844BDE8F09F00BF90
:102800002078207061193068FFF743FF2844F4E70F
:102810002078207061193068FFF710FF2844ECE73A
:10282000207820706219D6E90071384602F0DBFA90
:102830002844E2E700BF207820706219D6E90071D1
:102840003846FFF74DFF2844D7E700BF00BF207888
:1028500040F0050020706119306802F0D3FA284476
:10286000CBE700BF00BF207840F001002070621964
:10287000D6E90071384602F0C9FA2844BDE757E0AE
:10288000F9EEAA284253505C70726F746F627566DD
:102890002D632E6300000000687B010830000000FB
:1028A000207820706119306802F0B7FA2844A4E754
:1028B000207840F00200207004EB0508376827B943
:1028C000002088F80000012010E0384613F0E3F8FB
:1028D000824641465046FFF7B1FE834608EB0B00A7
:1028E0005246394613F093F80BEB0A00284484E76C
:1028F000207840F0020020706719D6F80080394631
:102900004046FFF79BFE824607EB0A00424671688D
:1029100013F07DF80AEB080028446EE7207840F0B9
:10292000020020706119306800F01BFA284464E747
:1029300040F27142AFF2B401AFF2A00012F0D9FC44
:1029400010B50446112C20D2DFE804F00A090C125D
:1029500011140B0D13150E16180F1A1D1B0000BFB6
:1029600000BF00BF00BF00BF00BF042010BD00BFFC
:1029700000BF00BF00BF00BF0820F7E70420F5E755
:1029800000BF0420F2E70820F0E74FF49E62AFF2A8
:102990000C11AFF2F80012F0ACFC70B505460E4613
:1029A0001446E2003146284613F031F870BD70B588
:1029B00005460E461446A2003146284613F027F875
:1029C00070BD0146022903D0072901D00A2901D18F
:1029D00004207047052903D0092901D00B2901D112
:1029E0000820F6E70120F4E72DE9FF4F87B0824683
:1029F0000D461F460998D0F800809AF81C0000F098
:102A0000010000286FD01DB900200BB0BDE8F08F89
:102A10003946DAF80400FFF7A4FE8146387840F022
:102A200002003870CDF818909AF80900FFF7C9FF36
:102A3000684305900598FFF768FB8346D94407EB88
:102A400009069AF809000E2870D2DFE800F01C2B66
:102A5000075C3A114D085D120913701B00BF00BFDF
:102A60002A4641463046FFF7A2FF06EB850675E091
:102A700000BF00BF2A4641463046FFF78EFF06EBF7
:102A8000C5066BE000BFCDF80880002407E002997E
:102A900051F824003146FFF7FCFD0644641CAC42AB
:102AA000F5D35BE0CDF80880002407E0029951F8E7
:102AB0002400314602F08CF90644641CAC42F5D384
:102AC0004CE0CDF8088000240AE0029800EBC40135
:102AD00003C93246CDE9000102F085F90644641CC1
:102AE000AC42F2D33AE064E0CDF80880002407E07D
:102AF000029951F824003146FFF7A0FD0644641CFA
:102B0000AC42F5D32AE000BFCDF8088000240AE0EB
:102B1000029800EBC40103C93246CDE90001FFF77A
:102B2000DFFD0644641CAC42F2D317E00EE0CDF8A2
:102B30000880002407E0029951F82400314602F091
:102B40006CF90644641CAC42F5D307E040F29A529B
:102B5000AFF2D021AFF2BC2012F0CBFB00BF07EBED
:102B60000900301A04900498FFF7CFFA03900398F5
:102B7000834516D00BF101010398884200D106E08D
:102B80004FF4B462AFF20431FBA012F0B2FB07EBDA
:102B9000090107EB0902501C049A12F038FF09F1F1
:102BA0000109069839180498FFF748FD049848442D
:102BB0002BE700269AF80900FFF7C2FE81460024A1
:102BC00007E0BA1941465046FFF7F6FD0644C844EF
:102BD000641CAC42F5D3304617E770B504460D4689
:102BE000164629462046FFF791FB08B1002070BD2C
:102BF000324629462046FFF7DFFDF8E72DE9F04190
:102C000004460E4615461F46607A102802D0607AA8
:102C10000E2808D1296811B1A069884202D100208C
:102C2000BDE8F08102E00EB90020F9E73A462946F6
:102C30002046FFF7C1FDF3E72DE9F04104460E46BB
:102C400015461F466068B04202D00020BDE8F08102
:102C5000607A102802D0607A0E2807D1296811B155
:102C6000A069884201D10020F0E700BF3A4629461A
:102C70002046FFF7A1FDE9E72DE9F04706460F469C
:102C8000002430680068C749884200D106E040F25D
:102C9000C652AFF21041C44812F02BFB4FF00008AF
:102CA00049E03068C06908EB480101EBC80100EB5E
:102CB0008105286900EB060AE86800EB0609287A16
:102CC00030B93A1951462846FFF776FD044430E002
:102CD000287A012802D0287A03280CD1287F00F016
:102CE000040040B13B1952462846D9F80010FFF7BE
:102CF000A3FF04441DE0287A012808D13B1952465D
:102D00002846D9F80010FFF779FF044411E0287A2B
:102D1000032806D13A1951462846FFF75EFF0444BE
:102D200007E03B1952462846D9F80010FFF75CFE31
:102D3000044408F10108306880694045B1D84FF07B
:102D4000000808E0B26802EB08103919FFF720FD0F
:102D5000044408F1010870684045F3D82046BDE8F6
:102D6000F0872DE9F04106460C4626B90020207078
:102D70000120BDE8F081611C3046FFF77DFF05466C
:102D80002846FFF7C2F90746012F04D0E0192A466A
:102D9000611C12F03CFE21462846FFF74FFC2844F8
:102DA000E7E7FEB504460D4669462068FFF7D9FC03
:102DB00006469DF80000217908438DF800006A4618
:102DC000314628462B689847D4E9021228462B68DA
:102DD0009847A0683044FEBD2DE9FF5F81460D464F
:102DE00090461E46002799F809000E2872D2DFE8A7
:102DF00000F01022075B460B34085C0C090D720FC3
:102E000000BF00BFAF0086E000BF00BFEF0082E060
:102E100000BF00240CE058F824006946FFF739FC95
:102E200082466A4651463046336898475744641C88
:102E3000AC42F0D36CE000240CE058F82400694662
:102E400001F0C6FF82466A465146304633689847CD
:102E50005744641CAC42F0D35AE000240CE058F80C
:102E600024006946FFF7EAFB82466A46514630462F
:102E7000336898475744641CAC42F0D348E00024C0
:102E80000FE008EBC4006A46D0E900B1584601F0F3
:102E9000AAFF82466A4651463046336898475744EF
:102EA000641CAC42EDD333E000BF00240FE008EB1C
:102EB000C4006A46D0E900B15846FFF711FC8246CB
:102EC0006A4651463046336898475744641CAC42C2
:102ED000EDD31DE014E000240CE058F8240069460E
:102EE00001F09BFF82466A46514630463368984758
:102EF0005744641CAC42F0D3284604B0BDE8F09FB0
:102F000040F26B72AFF28461AFF2706012F0F1F9CF
:102F100000BF3846F1E742463946304633689847A5
:102F20003846EAE72DE9F04780460D461646002769
:102F300098F809000E2873D2DFE800F01138075F17
:102F4000500C4408600D090E701000BF00BFA800AF
:102F5000BDE8F08700BF00BFE800F9E700BFB14659
:102F6000002405E059F82400FFF7E5F80744641C45
:102F7000AC42F7D35CE0000061637475616C5F6C18
:102F8000656E6774685F73697A65203D3D206C6586
:102F90006E6774685F73697A655F6D696E202B2058
:102FA00031000000F9EEAA28687B0108B146002430
:102FB00005E059F8240001F0F5FE0744641CAC421A
:102FC000F7D335E0B146002405E059F82400FFF7B7
:102FD0009CF80744641CAC42F7D329E0B1460024B6
:102FE00008E009EBC400D0E90021104601F0E3FE3F
:102FF0000744641CAC42F4D31AE000BFB14600247D
:1030000008E009EBC400D0E900211046FFF7ADF855
:103010000744641CAC42F4D30AE001E0284697E779
:1030200040F20572AFF2A471AFF2907012F061F944
:1030300000BF38468CE72DE9F04F85B004460F46B7
:1030400092461D46DAF800801FB9002005B0BDE8A1
:10305000F08F207F00F0010000282FD069466068C3
:10306000FFF77FFB0646424639462046FFF75AFFE8
:1030700081469DF8000040F002008DF800000DEB45
:1030800006014846FFF7DAFA06446A463146284602
:103090002B6898472B46424639462046FFF79CFE50
:1030A0008346CB4500D106E040F28972AFF62C0191
:1030B000FAA012F01EF906EB0900C7E74FF000096D
:1030C000607AFFF73DFC8346002607E02A4641462A
:1030D000204600F0C7F88144D844761CBE42F5D3A0
:1030E0004846B3E770B504460D46164629462046C5
:1030F000FFF70CF908B1002070BD32462946204682
:1031000000F0B0F8F8E72DE9F04104460E46154608
:103110001F46607A102802D0607A0E2808D12968EC
:1031200011B1A069884202D10020BDE8F08102E01F
:103130000EB90020F9E73A462946204600F092F8F9
:10314000F3E72DE9F04104460E4615461F46606838
:10315000B04202D00020BDE8F081607A102802D091
:10316000607A0E2807D1296811B1A069884201D17F
:103170000020F0E700BF3A462946204600F072F8EA
:10318000E9E72DE9F04705468846002728680068EA
:10319000C749884200D106E04FF4F662AFF61C1131
:1031A000C44812F0A6F8002648E02868C06906EB7B
:1031B000460101EBC60100EB8104206900EB050A22
:1031C000E06800EB0509207A30B9424651462046B6
:1031D00000F048F8074430E0207A012802D0207A35
:1031E00003280CD1207F00F0040040B14346524632
:1031F0002046D9F80010FFF7A4FF07441DE0207A0D
:10320000012808D1434652462046D9F80010FFF75E
:103210007AFF074411E0207A032806D1424651463E
:103220002046FFF75FFF074407E04346524620462B
:10323000D9F80010FFF7FFFE0744761C2868806964
:10324000B042B2D8002607E0A96801EB061041465B
:10325000FFF7A7FD0744761C6868B042F4D83846EB
:10326000BDE8F0872DE9F047CCB080460E46154604
:1032700047A9D8F80400FFF774FA044698F8090043
:10328000112874D2DFE800F01A095F4C3A742A6002
:103290004D7561768A199ABAD6009DF81C018DF891
:1032A0001C0147AA1119306801F092FD044447AA95
:1032B000214628462B6898470DE100BF9DF81C0168
:1032C0008DF81C0147AA11193068FFF7E2F9044490
:1032D00047AA214628462B689847FCE09DF81C0128
:1032E0008DF81C0147AA11193068FFF7A7F90444AB
:1032F00047AA214628462B689847ECE09DF81C0118
:103300008DF81C0147A80219D6E90091484601F042
:103310006AFD044447AA214628462B689847DAE00C
:1033200000BF9DF81C018DF81C0147A80219D6E9C1
:1033300000914846FFF7D4F9044447AA214628469D
:103340002B689847C7E000BF00BF9DF81C0140F004
:1033500005008DF81C0147AA1119306801F052FDD3
:10336000044447AA214628462B689847B3E0AAE0C0
:1033700000BF00BF9DF81C0140F001008DF81C014A
:1033800047A80219D6E90091484601F03FFD0444E0
:1033900047AA214628462B6898479CE09DF81C01C7
:1033A0008DF81C0147AA1119306801F036FD04445C
:1033B00047AA214628462B6898478CE037681FB1FA
:1033C000384612F068FB00E0002081469DF81C01A1
:1033D00040F002008DF81C0147A801194846FFF78C
:1033E0002DF9044447AA214628462B6898473A46B7
:1033F000494628462B6898474C446CE0B146D9F8BA
:1034000000709DF81C0140F002008DF81C0147A8D7
:1034100001193846FFF712F9044447AA2146284605
:103420002B689847D9F80420394628462B689847D6
:103430003C4450E0D6F8009018221F4901A812F031
:10344000E6FA07A804909DF81C0140F002008DF8F0
:103450001C01B9F1000F01D1002704E001A9484681
:10346000FFF78FFE074647A801193846FFF7E6F831
:10347000044447AA214628462B689847049A3946AF
:1034800028462B6898473C4400BF0598C8B1069869
:10349000A0B1049906984268904712E0746D7020BC
:1034A0003D3D207061796C6F61645F6C656E0000FA
:1034B000F9EEAA28687B01082C770108049814F01B
:1034C0009DF800BF07E040F26C62AFF64841AFF6EE
:1034D000344011F00EFF00BF20464CB0BDE8F0872D
:1034E000F0B50646144616B94FF0FF30F0BD002285
:1034F000354622E002EB550351F83300A04201DDCE
:103500009D1A19E0581C01EBC000406801EBC3078D
:103510007F68C01B51F833703844A04204DC581C4B
:1035200057193D1A024607E051F83300201A01EB03
:10353000C3077F683844D9E700BF012DDAD8B5B199
:1035400001EBC2004368501C01EBC0004068C71A81
:1035500051F83200A04209DC51F832003844A04250
:1035600004DD51F83200201A1844BFE700BF4FF0C5
:10357000FF30BBE7F0B5064615461F46052E01D9BC
:10358000052000E0304684460878C0F3C3030424D5
:10359000087800F0F80008B90020F0BD087800F0C5
:1035A00007003870087800F0800010B92B60012007
:1035B000F3E7012211E0885C00F0800030B1885C04
:1035C00000F07F00A0400343E41D05E0885CA040BC
:1035D00003432B60501CE0E7521C6245EBD30020F4
:1035E000DBE710B50246002005E011F8014B04F0BE
:1035F000800303B9401C131EA2F10102F5D110BDD6
:103600002DE9F74F86B081460E463068C569002423
:1036100045E104EB440000EBC40005EB8000007AB8
:1036200002287AD104EB440000EBC40005EB8000D3
:10363000C06800EB090704EB440000EBC40005EB95
:103640008000006900EB090A04EB440000EBC400B1
:1036500005EB8000C06800EB060804EB440000EBBB
:10366000C40005EB800000693044059038680028EC
:1036700051D0D8F80000002842D004EB440101EBFF
:10368000C40105EB8101487AFFF75AF9834638688F
:10369000D8F80020104400FB0BF1089801F034FB2F
:1036A0000490049818B9002009B0BDE8F08F38687C
:1036B00000FB0BF2DAF80010049812F0A8F9D8F821
:1036C000003003FB0BF2059B1968D7F800C0049B80
:1036D0000CFB0B3012F09BF905980168089801F07B
:1036E0001BFBDAF80010089801F016FBDDE9040175
:1036F00008603868D8F800100844C8F8000006E0F0
:103700003868C8F80000DAF8001005980160002059
:103710003860CAF80000C0E0FFE704EB440000EBAB
:10372000C40005EB8000007A012808D004EB4400B7
:1037300000EBC40005EB8000007A0328EBD104EB1A
:10374000440000EBC40005EB8000C06800EB090BEF
:1037500004EB440000EBC40005EB8000C06830447B
:1037600005900020049004EB440000EBC40005EB3E
:103770008000007F00F00400D0B105980068B0B967
:10378000DBF800203368D3E90901FFF7A9FE0290B6
:103790000298002801DA002086E73068C1690298A3
:1037A00000EB400202EBC00001EB800706E075E091
:1037B00004EB440000EBC40005EB8007386900EB24
:1037C0000908386900EB060AB8690390787A0E2870
:1037D0002FD00F2819D0102839D1D8F80000029026
:1037E000DAF800000190029870B1019850B1089A7F
:1037F000DDE90110FFF704FF08B9002054E70020BD
:10380000049001E0012004902CE0D8F80410DAF8CC
:103810000420039851B110B143688B4206D01AB10D
:1038200020B14368934201D1012300E000230493B7
:1038300018E0D8F80020DAF800100398824203D08C
:10384000814201D1012300E0002304930AE0DBF868
:10385000000020B10598006808B9012000E00020B0
:10386000049000BF00BF0498B0B1787AFFF768F801
:10387000029041465046029A12F0C9F84046029919
:1038800012F0ECF8F86830B1DBF800100598016030
:103890000020CBF8000000BF00BF00BF641C3068F0
:1038A0008069A0423FF6B5AE0120FDE62DE9F0416A
:1038B00006460C4617461D46112E31D2DFE806F0AB
:1038C000212209242515230A26160B172D20313213
:1038D000330000BF00BF04F0030010B10020BDE8BA
:1038E000F081A00828600120F9E700BF00BF04F0C4
:1038F000070008B10020F2E7E00828600120EEE7A9
:1039000000BF00BF00BF00BF00BF00BF3946204658
:10391000FFF767FE28600120E1E72C600120DEE769
:1039200000BF00BF00BF0020D9E702460B7803F0BC
:103930007F00012A17D94B7803F07F0340EAC310B8
:10394000022A10D98B7803F07F0340EA8330032AE0
:1039500009D9CB7803F07F0340EA4350042A02D907
:103960000B7940EA037070472DE9F05F81460C4601
:10397000B9F1050F06D221464846FFF7D6FF0021D0
:10398000BDE8F09F207800F07F02607800F07F00B3
:10399000C117C90141EA50614FEAC01C104640EA14
:1039A0000C0041EAE272A17801F07F03D917890384
:1039B00041EA934140EA83301143E27802F07F0309
:1039C000DA17520542EAD32240EA435541EA020699
:1039D0004FF01C0A04270EE0E05D00F07F084FEA7C
:1039E000E87B52464046594611F0F0FF05430E432E
:1039F0000AF1070A7F1C4F45EED328463146BFE740
:103A000002460B46002106E0585C00F07F0008B13A
:103A100001207047491C9142F6D30020F9E72DE9B7
:103A2000F047064688460EB9BDE8F087356830682D
:103A30000068F849884200D105E040F6FF42F649A7
:103A4000F64811F056FCB8F1000F01D1DFF8D08331
:103A5000002030600024FAE004EB440101EBC401D3
:103A6000E86900EB8100007F00F0040098B104EBEE
:103A7000440101EBC401E86900EB8100406804EBFC
:103A8000440202EBC402E96901EB8201C968715882
:103A9000884200D0DAE004EB440101EBC401E8699C
:103AA00000EB8100007A02285FD104EB440101EBB6
:103AB000C401E86900EB8100C06856F8009004EB8F
:103AC000440101EBC401E86900EB8100006937584B
:103AD000002F49D004EB440101EBC401E86900EB7D
:103AE0008100407A0E280CD14FF0000A06E057F80A
:103AF0002A10404601F010F90AF1010ACA45F6D32E
:103B00002EE004EB440101EBC401E86900EB810005
:103B1000407A0F280DD14FF0000A07E007EBCA00EA
:103B20004168404601F0F8F80AF1010ACA45F5D3A8
:103B300016E004EB440101EBC401E86900EB8100ED
:103B4000407A10280CD14FF0000A06E057F82A00FE
:103B50004146FFF764FF0AF1010ACA45F6D300BFE8
:103B60003946404601F0D8F86FE004EB440101EB20
:103B7000C401E86900EB8100407A0E2818D104EBFB
:103B8000440101EBC401E86900EB8100006937588A
:103B90006FB104EB440101EBC401E86900EB810063
:103BA0008069B84203D03946404601F0B5F84CE090
:103BB00004EB440101EBC401E86900EB8100407AA9
:103BC0000F281FD104EB440101EBC401E86900EBAD
:103BD000810000693044476804EB440101EBC401F3
:103BE000E86900EB8100D0F8189057B1B9F1000FE7
:103BF00003D0D9F80400B84203D03946404601F05A
:103C00008BF822E004EB440101EBC401E86900EB0E
:103C10008100407A102818D104EB440101EBC40163
:103C2000E86900EB8100006937586FB104EB44018B
:103C300001EBC401E86900EB81008069B84203D060
:103C400041463846FFF7EBFE00BF00BF641CA86981
:103C5000A0423FF601AF002407E0B06800EB04107B
:103C6000C168404601F058F8641C7068A042F4D85E
:103C7000B06818B14046B16801F04EF83146404690
:103C800001F04AF800BFCFE62DE9F05F05460E4689
:103C900017469846D5F80890D9F80C00C41999F839
:103CA0000900FEF74DFE8246D6F800B020680AFBF8
:103CB00000B100234246284600F0F8FC10B900206D
:103CC000BDE8F09F2068401C20600120F8E7024614
:103CD0000B460A2A00D90A22002105E0585C00F0B0
:103CE000800000B902E0491C9142F7D300BF914225
:103CF00001D100207047481CFCE72DE9F74F84B044
:103D00000546A86803900398C168069801EB000A6D
:103D10000399487AFEF714FE029005980168DAF8D4
:103D20000020029800FB0218697928694718697910
:103D3000E868441A00260398407A0E2872D2DFE819
:103D400000F016320791720E4F08920F0910AD1550
:103D500000BF00BF6979E868401A8608BFE000BF6D
:103D600000BF6979E868401AC608B8E000BF17E0EC
:103D700039462046FFF7ABFF8346BBF1000F03D166
:103D8000002007B0BDE8F08F3946584601F07CF8B6
:103D90003146761C48F821005F44A4EB0B0400BFB9
:103DA000002CE5D193E018E039462046FFF78FFF5D
:103DB0008346BBF1000F01D10020E2E739465846A7
:103DC000FFF7B3FD019001F067F83146761C48F823
:103DD00021005F44A4EB0B0400BF002CE4D176E08B
:103DE00015E039462046FFF772FF8346BBF1000F0E
:103DF00001D10020C5E739465846FFF796FD314608
:103E0000761C48F821005F44A4EB0B0400BF002C93
:103E1000E7D15CE0F9EEAA2884280008687B010855
:103E2000E80000204DE01AE039462046FFF74FFF3A
:103E30008346BBF1000F01D10020A2E73946584666
:103E4000FFF792FDCDE9000101F02EF83246761C15
:103E500008EBC20203C25F44A4EB0B0400BF002CBA
:103E6000E2D134E000BF16E039462046FFF72FFFCD
:103E70008346BBF1000F01D1002082E73946584646
:103E8000FFF772FD3246761C08EBC20203C25F44A4
:103E9000A4EB0B0400BF002CE6D118E026464FF03F
:103EA00000090BE017F80900012801DD002068E790
:103EB00017F8090048F8290009F10109B145F1D3C3
:103EC00005E040F62932FA49FAA011F012FA00BFD3
:103ED000DAF800003044CAF80000012051E70298E7
:103EE00006FB00F23946404611F091FDDAF8000079
:103EF0003044CAF80000012043E701460E2905D0EE
:103F00000F2903D0102901D0012070470020FCE7C1
:103F10002DE9F04104460F4615461E460123324660
:103F20003946204600F0C2FB10B90020BDE8F08100
:103F3000A068C06818B10120A168C9686850012054
:103F4000F4E72DE9FC5F80460C4616461F46D8F87C
:103F50000800C06800EB0609D9F8000000285ED010
:103F6000D9F800203368D3E90901FFF7B9FA0090C6
:103F70000098002802DA0020BDE8FC9F3068C16983
:103F8000009800EB400202EBC00001EB8005687A6C
:103F9000FEF7D6FC0190687A0E2804D00F2812D0C4
:103FA000102835D124E0A246D5F818B0DAF8000080
:103FB00040B1DAF80000584504D03846DAF800106D
:103FC00000F0AAFE25E0A246D5F818B0DAF8040001
:103FD00068B1BBF1000F05D0DAF80400DBF804107B
:103FE000884204D03846DAF8041000F095FE10E05C
:103FF000A246D5F818B0DAF8000040B1DAF80000AF
:10400000584504D03946DAF80000FFF708FD00E013
:1040100000BF00BF2046019911F020FD00BF012321
:104020003A462146404600F041FB08B90020A3E78C
:10403000D8F80000C9F8000001209DE72DE9F047FD
:1040400004460D469046A768E7B96968481C686051
:10405000A86800EB01162068306020793071E068B4
:10406000B0604046E16800F04FFEF060F06810B9C3
:104070000020BDE8F087B2682169F06811F0C7FC44
:104080000120F6E7386900EB0509387A30B10128DC
:104090000BD002281CD0032832D107E0012342466E
:1040A0004946204600F002FBE3E700BF387F00F0FE
:1040B000040030B143462A4649462046FFF741FFF7
:1040C000D7E743462A4649462046FFF721FFD0E777
:1040D000207902280DD1387F00F0010018B9787AD4
:1040E000FFF70BFF28B12A4649462046FFF705FE99
:1040F000BFE743462A4649462046FFF7C5FDB8E7D5
:104100004FF437626A496BA011F0F3F870B50446BA
:104110000E463046616911F0A1FC346000255AE07A
:1041200005EB450101EBC501E06900EB8100806909
:1041300000284FD005EB450101EBC501E06900EB1C
:104140008100007A022845D005EB450303EBC50347
:10415000E26902EB83021269901905EB450303EB58
:10416000C503E26902EB8302916905EB450303EBAA
:10417000C503E26902EB8302527A112A28D2DFE8F2
:1041800002F0090A0B1213140C0D15160E171C0F52
:10419000241F250000BF00BF00BF00BF00BF00BF3D
:1041A0000A68026014E000BF00BF00BF00BF00BF8C
:1041B0000A6802604A6842600AE00A68026007E032
:1041C0000A6802604A68426002E000BF016000BF06
:1041D00000BF00BF6D1CA069A842A1D870BD70B51A
:1041E00004460D462846E16A884770BD2DE9FF4F19
:1041F000FDB00446DDF8FCA180987C90E0697B90DE
:104200004FF0000900201390129010900DF12C0B2C
:104210000A9029492068884200D105E040F6ED3235
:10422000234926A011F065F87E9808B931487E90A0
:1042300061697E9800F068FD8046B8F1000F04D1F6
:1042400000200DF5017DBDE8F08F2BA81490A0692A
:10425000C01DC0080F900F9810280FD90F997E9895
:1042600000F052FD8346BBF1000F05D141467E9818
:1042700000F052FD0020E4E701200A9058460F9913
:1042800011F0ECFBE06A20B141462046FFF7A7FFA2
:1042900003E041462046FFF739FF1BE108AB09AABE
:1042A00050467C99FFF766F90790079820BBE6E136
:1042B0008428000830000000F9EEAA2828646573FD
:1042C00063292D3E6D61676963203D3D2050524F4B
:1042D000544F4255465F435F5F4D455353414745F9
:1042E0005F44455343524950544F525F4D414749F3
:1042F00043000000E80000207B9820B17B984068D4
:104300000999884219D0D4E90901099AFFF7E8F818
:1043100001900198002804DA00271298401C12909E
:104320000AE0E169019800EB400202EBC00001EBFA
:1043300080077B970198109000E07B9F87B1387AC7
:1043400070B910980BEBD0000078109901F00702BB
:10435000012191400843C1B210980BEBD0000170CD
:1043600007997C9808447C900798AAEB000A099862
:1043700002909DF820008DF80C0004977C98069020
:1043800000208DF80D009DF8200030B101281DD0CF
:10439000022822D0052835D12DE0BAF10A0F01D22A
:1043A000524600E00A221146002006E07C9A125C88
:1043B00002F0800202B902E0401C8842F6D300BF3E
:1043C000884200D15BE1421C05921CE0BAF1080F63
:1043D00000D254E10820059015E001AA50467C99CE
:1043E00000F023FD0590059800B948E10198C0B29E
:1043F0008DF80D0007E0BAF1040F00D23FE1042070
:10440000059000E03BE100BF09F10400012181407B
:10441000139881421AD100201390B9F1160F00D1E0
:104420002DE109F1010909F10400142101FA00F05C
:10443000019001997E9800F067FC14A941F82900C9
:1044400014A850F8290000B919E100BF14A951F8C7
:10445000293013994A1C01EB810103EB810013926F
:10446000142202A911F0D3FA67B3387A022829D1AD
:10447000F868404401909DF8200002281CD1387F44
:1044800000F0010018B9787AFFF737FDA0B19DF868
:104490000DC0069B03EB0C02059BA3EB0C01787A85
:1044A0006B46FFF703FA00B9E9E00198006800994C
:1044B00001440198016004E001980068401C0199E2
:1044C000086000BF05997C9808447C900598AAEB89
:1044D000000A00BFBAF1000F7FF4E0AE00256CE0E7
:1044E00005EB450101EBC501E06900EB8107387A76
:1044F00002283FD1787AFEF723FA0990F868404401
:1045000008900898006870B3089800680790002128
:1045100008980160D8F8000000B105E040F6A74215
:10452000FB49FCA010F0E5FE079A099800FB02F198
:104530007E9800F0E9FB06900698A8B96D1C0EE085
:1045400005EB450101EBC501E06900EB8107387A15
:10455000022803D10020F96848F801006D1CA06909
:10456000A842EDD874E004E00698396948F80100E3
:1045700000BF21E0387AF8B9B869E8B90BEBD5008B
:10458000007805F00702012191400840A0B96D1C98
:104590000EE005EB450101EBC501E06900EB810789
:1045A000387A022803D10020F96848F801006D1C10
:1045B000A069A842EDD84BE06D1CA069A8428FD835
:1045C000129850B1129801017E9800F09DFBC8F836
:1045D0000800D8F8080000B93AE00020119021E066
:1045E0001198484501D1139804E01198001D01214C
:1045F00001FA00F0099014A9119851F820700026D2
:104600000AE006EB860107EB810041467E9AFFF740
:1046100015FD00B91CE0761C09988642F1D311986B
:10462000401C119011984845DAD9012606E014A8DB
:1046300050F826107E9800F06FFB761C4E45F6D998
:104640000A9818B159467E9800F066FB4046F8E596
:1046500040467E99FFF7E3F9012606E014A850F8DA
:1046600026107E9800F058FB761C4E45F6D90A9825
:1046700018B159467E9800F04FFB0020E1E5414615
:104680007E9800F049FB012606E014A850F8261099
:104690007E9800F041FB761C4E45F6D90A9818B179
:1046A00059467E9800F038FB0020CAE52DE9FF4FFF
:1046B00083B004460D469A46E768D4F810902679F0
:1046C000A068407A112870D2DFE800F00A202D3A65
:1046D0004655162E3B562F57680970ABE90000BFB0
:1046E0001EB1002007B0BDE8F08F4946384600F003
:1046F000CBFB28600120F5E70EB10020F2E7494628
:104700003846FFF712F928600120EBE70EB10020D0
:10471000E8E749463846FFF708F9804600F0BCFB59
:1047200028600120DEE700BF00BF052E01D0002079
:10473000D8E700BFD9F8000000BF28600120D1E70A
:1047400000BF0EB10020CDE749463846FFF70CF90F
:10475000C5E900010120C5E70EB10020C2E74946C6
:104760003846FFF701F9CDE9000100F09DFBC5E9EE
:1047700000010120B6E700BF00BF012E01D00020DC
:10478000B0E700BFD9F800000090D9F8040001900C
:10479000DDE90010C5E900100120A3E749463846CD
:1047A000FFF72EF9286001209CE7C1E0A84694F8A5
:1047B00005B0022E01D0002094E7BAF1000F13D00B
:1047C000D8F8000080B1A06880690290D8F8000095
:1047D00048B1D8F800100298814204D0D8F80010EF
:1047E000059800F099FA00BFA7EB0B00411C059853
:1047F00000F08AFAC8F80000D8F8000008B90020D4
:1048000070E7A7EB0B0209EB0B01D8F8000011F0E1
:10481000FEF80020A7EB0B02D8F800108854012006
:1048200060E7A84694F805B0022E01D0002059E7B1
:10483000A06880690290BAF1000F0FD0D8F8040088
:1048400060B1029828B1D8F80410029840688142FB
:1048500004D0D8F80410059800F05EFAB7EB0B000E
:1048600014D0A7EB0B01059800F04EFAC8F804002D
:10487000D8F8040008B9002034E7A7EB0B0209EBD5
:104880000B01D8F8040011F0C2F802E00020C8F8CB
:104890000400A7EB0B00C8F80000012022E7AB469C
:1048A0000120019060790090022E01D0002019E7CC
:1048B000A06880690290009909EB01037A1AA16847
:1048C00048690599FFF792FC8046BAF1000F16D0AF
:1048D000DBF8000098B1DBF80010029881420ED09E
:1048E000B8F1000F06D0DBF800004146059AFEF74C
:1048F00087FE0190DBF800000599FFF790F8CBF8F0
:104900000080B8F1000F01D0019878B90020E9E6E5
:104910008428000872762D3E646573637269707432
:104920006F7220213D204E554C4C00000120D9E6ED
:104930000020D7E62DE9F84F044634B1206820B1B5
:1049400020680068F949884202D00020BDE8F88F4D
:104950004FF0000890E02068C06908EB480101EBC7
:10496000C80100EB81056F7A95F80890286906194F
:10497000287F00F0040038B1E96808196968026806
:10498000914200D076E000BFB9F1020F44D1E8684F
:1049900000EB040ADAF8000018B1306808B900200A
:1049A000D4E7102F13D1306800904FF0000B09E0CE
:1049B000009951F82B00FFF7BDFF08B90020C5E7AB
:1049C0000BF1010BDAF800005845F1D823E00E2F67
:1049D0000DD13268002105E052F8210008B900200D
:1049E000B4E7491CDAF800008842F5D813E00F2F2D
:1049F00011D13268002109E052F8310028B102EBF0
:104A0000C100406808B90020A0E7491CDAF800009E
:104A10008842F1D800BF2CE0102F0ED1D6F800A0AC
:104A2000B9F1000F02D0BAF1000F05D05046FFF7E0
:104A300081FF08B9002089E71BE00E2F07D13168FC
:104A4000B9F1000F02D109B900207FE711E00F2F63
:104A50000FD1E86802193146B9F1000F02D0106891
:104A6000012805D1086818B1486808B900206DE729
:104A700000BF00BF08F101082068806940453FF68B
:104A80006AAF012062E72DE9F04704460D4616465D
:104A90001F46DDF820A020684069A84200D905E043
:104AA00040F6B952A249A3A010F023FC04F10C086F
:104AB00058F8259053463A4631462046C847BDE847
:104AC000F08770B504460D461646A6492868884208
:104AD00000D105E040F6CE529549A3A010F009FCA4
:104AE0002560A660AFF2610060606869810004F132
:104AF0000C0010F0B3FF70BD10B504462046A1684D
:104B0000884710BD2DE9F0470446894600250CB1C1
:104B1000206A10B90020BDE8F087E6691FE005EBC8
:104B20005607216A51F83700494610F0BBFF80460E
:104B3000B8F1000F09D1206A00EBC700406800EB14
:104B40004000A16901EB8000E5E7B8F1000F04DA4D
:104B5000A919781C0E1A7D1C00E07E1B00BF012ED7
:104B6000DDD80EB90020D6E7216A51F83500494654
:104B700010F098FF48B9206A00EBC500406800EBD0
:104B80004000A16901EB8000C5E70020C3E770B5D4
:104B900004460D462A46D4E90901FEF7A1FC064663
:104BA000002E01DA002070BD06EB4601A06900EB83
:104BB0008100F8E72DE9F04704468A4600270CB14A
:104BC000206A10B90020BDE8F087A56921E007EB55
:104BD0005508206A50F8280000EB400101EBC000A6
:104BE000E16901EB80065146306810F05BFF8146B9
:104BF000B9F1000F01D13046E5E7B9F1000F05DA50
:104C0000791908F101000D1A074601E0A8EB070524
:104C100000BF012DDBD80DB90020D4E7206A50F881
:104C2000270000EB400101EBC000E16901EB8006C9
:104C30005146306810F036FF08B93046C3E700200F
:104C4000C1E770B504460D462A46D4E90901FEF7CE
:104C500047FC0646002E01DA002070BD06EB460137
:104C600001EBC601E06900EB8100F6E72DE9F05F9A
:104C70000446894600250CB1E06910B90020BDE862
:104C8000F09F666924E005EB5607E06950F827A01D
:104C90000AEB4A01A06950F821B04946584610F085
:104CA00001FF8046B8F1000F08D1E06950F82700F5
:104CB00000EB4000A16901EB8000E0E7B8F1000FD4
:104CC00004DAA919781C0E1A7D1C00E07E1B00BFB7
:104CD000012ED8D80EB90020D1E7E16951F825108E
:104CE00001EB4101A26952F82100494610F0DAFEB9
:104CF00040B9E06950F8250000EB4000A16901EBE4
:104D00008000BCE70020BAE770B504460D4629468E
:104D10002268A068904770BD70B504460D461DB16D
:104D20002946D4E90120904770BD0000F9EEAA2879
:104D3000842800086D6574686F645F696E646578C7
:104D4000203C20736572766963652D3E64657363EC
:104D5000726970746F722D3E6E5F6D6574686F64FA
:104D600073000000C39B1514286465736372697037
:104D7000746F72292D3E6D61676963203D3D20503F
:104D8000524F544F4255465F435F5F534552564919
:104D900043455F44455343524950544F525F4D4140
:104DA0004749430070B50446204600F098F8054690
:104DB000FDF7ABF970BD2DE9F04104460D462046E4
:104DC000294600F091F80646FDF7CFF9BDE8F081DD
:104DD00070B504460D46204600F081F80646294687
:104DE000FDF72CFC70BD2DE9F04104460D469046C0
:104DF0002046294600F078F806464246FDF770FC4A
:104E0000BDE8F08102460A600420704707B50098AB
:104E100010600198506008200EBD02460AB10120C2
:104E200000E00020087001207047F0B504460D46F0
:104E30001746052C01D2204600E0052084460022BA
:104E4000002600210BE0685C00F07F00B0400243C8
:104E5000F61D685C00F0800000B902E0491C614565
:104E6000F1D300BF614501D10020F0BD4B1C3B6078
:104E7000B2F1004F01D30020F7E79818A04201D902
:104E80000020F2E79818F0E770B504460D46294671
:104E90002046FEF74AFD70BD014601F00100C04307
:104EA000401C80EA51007047F0B502460B465D0891
:104EB0004FEA32064FF0010102EA01004FF0000410
:104EC0006FEA00016FEA04044F1C44F10004284615
:104ED000254686EA070480EA05012046F0BD014622
:104EE000480080EAE170704730B502460B469118E1
:104EF00043EB030081EAE37480EAE371204630BDAE
:104F000010B52C4C1ECC80E81E0010BD10B5044618
:104F100029492068884200D104E0132227A12CA04F
:104F200010F0E7F92046FDF7B0FA10BD70B5044661
:104F30000D4621492068884200D104E01A221FA1B1
:104F400023A010F0D6F929462046FDF795FE70BD46
:104F500070B504460D4618492068884200D104E027
:104F6000212216A11AA010F0C4F929462046FEF706
:104F700008F970BD70B504460D46164633462A46FC
:104F800021460D48FFF732F970BD70B504460D4655
:104F900004B970BD08492068884200D104E0342279
:104FA00006A10BA010F0A5F929462046FEF737FD13
:104FB00000BFEEE7C0770108847701084253505CD8
:104FC0005369676E616C2E70622D632E6300000062
:104FD0006D6573736167652D3E626173652E6465EF
:104FE0007363726970746F72203D3D202673696728
:104FF0006E616C5F5F64657363726970746F720079
:1050000010B5044620222C49204610F000FD10BDAA
:1050100010B5044629492068884200D104E01322D3
:1050200027A12EA010F065F92046FDF72EFA10BD3D
:1050300070B504460D4621492068884200D104E03D
:105040001A221FA125A010F054F929462046FDF789
:1050500013FE70BD70B504460D461849206888429D
:1050600000D104E0212216A11CA010F042F929462B
:105070002046FEF786F870BD70B504460D4616460C
:1050800033462A4621460D48FFF7B0F870BD70B58B
:1050900004460D4604B970BD08492068884200D115
:1050A00004E0342206A10DA010F023F92946204681
:1050B000FEF7B5FC00BFEEE70C790108D0780108D7
:1050C0004253505C547572726574436F6D6D616EBE
:1050D000642E70622D632E63000000006D65737393
:1050E0006167652D3E626173652E646573637269E5
:1050F00070746F72203D3D20267475727265745F06
:10510000636F6D6D616E645F5F6465736372697018
:10511000746F7200D0ED000AF4EEC00AF1EE10FADE
:1051200001DD80ED000AD0ED000AB1EE401AF4EE88
:10513000C10AF1EE10FA03D2F1EE400AC0ED000A06
:1051400070470364C263816380ED000AC0ED010A09
:1051500080ED021A704780ED000AC0ED010A80ED73
:10516000021ADFEDFE1AC0ED081ADFEDFC1AC0EDE1
:10517000091ADFEDFA1AC0ED0A1ADFEDF81AC0EDD0
:105180000B1A704710B52DED088B0446B0EE408A1F
:10519000F0EE608A84ED048AC4ED038A38EEC80A12
:1051A00084ED070A94ED0C0AB5EEC00AF1EE10FA90
:1051B00027D094ED0C0A10EE101A084610F05EFE8F
:1051C00041EC190B94ED070A10EE101A084610F086
:1051D00055FE41EC1B0BB0EE4B0AF0EE6B0A11F0E2
:1051E00083FCB0EE40AAF0EE60AA53EC192B51EC10
:1051F0001A0B10F06FFE04D29FEDD80ABDEC088B9D
:1052000010BDA06B03283ED194ED000AD4ED070A2F
:1052100020EE200A84ED080A94ED090AD4ED010A73
:1052200094ED071A00EE810A84ED090A94ED070A4D
:10523000D4ED060A30EE600AD4ED020A20EE200A10
:1052400084ED0A0AD4ED100AF8EE600AB0EE600AA6
:1052500004F12400FFF75EFF94ED080AD4ED090A7B
:1052600030EE200AD4ED0A0A30EE200A84ED0B0A53
:10527000D4ED0F0AF8EE600AB0EE600A04F12C00DB
:10528000FFF748FF42E0A06B04283FD194ED070AE6
:10529000D4ED060A30EE600AD4ED000A20EE200AB2
:1052A00084ED080A94ED010AD4ED070A20EE200AE5
:1052B00084ED090A94ED070AD4ED060AB0EE001A4F
:1052C00001EE600AD4ED050A30EE200AD4ED020AA0
:1052D00020EE200A84ED0A0A94ED080AD4ED090AAA
:1052E00030EE200AD4ED0A0A30EE200AD4ED0B0A83
:1052F00030EE200A84ED0B0AD4ED0F0AF8EE600AB6
:10530000B0EE600A04F12C00FFF704FF94ED060AEA
:1053100084ED050A94ED070A84ED060A94ED0D0A62
:10532000B5EEC00AF1EE10FA25D094ED0D0A10EE9C
:10533000101A084610F0A2FD41EC190B94ED0B0A6F
:1053400010EE101A084610F099FD41EC1B0BB0EE60
:105350004B0AF0EE6B0A11F0C7FBB0EE40AAF0EE7C
:1053600060AA53EC192B51EC1A0B10F09BFD02D2E2
:105370009FED7A0A42E794ED0B0A3FE710B52DED59
:10538000088B0446B0EE408AF0EE608A84ED048A11
:10539000C4ED038A38EEC80A84ED070A94ED0C0ABE
:1053A000B5EEC00AF1EE10FA27D094ED0C0A10EE1B
:1053B000101A084610F062FD41EC190B94ED070A33
:1053C00010EE101A084610F059FD41EC1B0BB0EE20
:1053D0004B0AF0EE6B0A11F087FBB0EE40AAF0EE3C
:1053E00060AA53EC192B51EC1A0B10F073FD04D288
:1053F0009FED5A0ABDEC088B10BDA06B03283ED16F
:1054000094ED000AD4ED070A20EE200A84ED080A84
:1054100094ED090AD4ED010A94ED071A00EE810A11
:1054200084ED090A94ED070AD4ED060A30EE600A0D
:10543000D4ED020A20EE200A84ED0A0AD4ED100A07
:10544000F8EE600AB0EE600A04F12400FFF762FE95
:1054500094ED080AD4ED090A30EE200AD4ED0A0AC8
:1054600030EE200A84ED0B0AD4ED0F0AF8EE600A44
:10547000B0EE600A04F12C00FFF74CFE3EE0A06B9A
:1054800004283BD194ED070AD4ED060A30EE600AF9
:10549000D4ED000A20EE200A84ED080A94ED010AFA
:1054A000D4ED070A20EE200A84ED090A94ED070ADC
:1054B000D4ED060AB0EE001A01EE600AD4ED050A3A
:1054C00030EE200AD4ED020A20EE200A84ED0A0A0A
:1054D00094ED080AD4ED0A0A30EE200AD4ED0B0A46
:1054E00030EE200A84ED0B0AD4ED0F0AF8EE600AC4
:1054F000B0EE600A04F12C00FFF70CFE94ED060AF2
:1055000084ED050A94ED070A84ED060A94ED0D0A70
:10551000B5EEC00AF1EE10FA28D094ED0D0A10EEA7
:10552000101A084610F0AAFC41EC190B94ED0B0A76
:1055300010EE101A084610F0A1FC41EC1B0BB0EE67
:105540004B0AF0EE6B0A11F0CFFAB0EE40AAF0EE83
:1055500060AA53EC192B51EC1A0B01E0000000007B
:1055600010F0A0FC02D21FED030A43E794ED0B0AF2
:1055700040E72DE9F0412DED048B04460D4616461B
:105580001F46B0EE408AF0EE608AB0EE419A1D48A8
:1055900060641D48A064B0EE491AF0EE680AB0EEEF
:1055A000480A3B46324629462046D4F844C0E047E4
:1055B000B0EE491AF0EE680AB0EE480A2046A16C37
:1055C0008847BDEC048BBDE8F0811FED1C0A80ED1F
:1055D000080A1FED1E0A80ED090A1FED200A80ED62
:1055E0000A0A1FED220A80ED0B0A1FED240A80ED46
:1055F000050A1FED260A80ED060A1FED280A80ED38
:10560000070A704743510008575100080648804771
:1056100006480047FEE7FEE7FEE7FEE7FEE7FEE797
:10562000FEE7FEE7FEE7FEE7E584000889010008E3
:10563000012000F010F800F013F8012000F00BF842
:1056400000F00EF800BFFEE700BFFEE700BFFEE778
:1056500070477047704700F0010181F3138870476D
:10566000BFF34F8F0648006800F4E0600549084327
:10567000001D03490860BFF34F8F00BF00BFFDE767
:105680000CED00E00000FA0532490143324A116096
:10569000704770B5002100230F22C4781CB32E4C34
:1056A000246804F4E064C4F5E064C4F30721C1F1A4
:1056B0000404E3B20A4144789C40E1B28478144087
:1056C00021430C07210E254C05786155047804F020
:1056D0001F050124AC4005786D11AD0005F1E025F2
:1056E000C5F8004109E0047804F01F050124AC402E
:1056F0001B4D0678761145F8264070BD194A0A40C0
:105700000243154B1B1F1A60704739B1124A121D14
:1057100012680243104B1B1D1A6006E00E4A121D50
:10572000126882430C4B1B1D1A607047042808D175
:105730004FF0E021096941F004014FF0E0221161CE
:1057400007E04FF0E021096921F004014FF0E02269
:10575000116170470000FA050CED00E000E400E084
:1057600080E100E080FFFF1F10B50446FE48844240
:1057700009D10121480601F0FEFC00214FF0007024
:1057800001F0F9FC08E00121880601F0F4FC002199
:105790004FF0806001F0EFFC10BD30B502460020F4
:1057A0000023146824F002041460146844F0010417
:1057B000146000E05B1C546804F001041CB94FF64F
:1057C000FF74A342F6D1546804F001040CB9002020
:1057D0006CE08C79012C04D1146844F080041460CE
:1057E00003E0146824F080041460CC79012C04D107
:1057F000146844F04004146003E0146824F040048A
:1058000014600C7A012C04D1146844F02004146054
:1058100003E0146824F0200414604C7A012C04D1B5
:10582000146844F01004146003E0146824F01004B9
:1058300014608C7A012C04D1146844F008041460BC
:1058400003E0146824F008041460CC7A012C04D11D
:10585000146844F00404146003E0146824F00404A1
:1058600014608C78A407CD7844EA05640D7944EA85
:1058700005444D7944EA05540D886D1E2C43D461CE
:10588000146824F001041460002300E05B1C5468D9
:1058900004F001041CB14FF6FF74A342F6D1546822
:1058A00004F001040CB1002000E0012030BD10B56F
:1058B0000021837A012202FA03F1AC4A126842F015
:1058C0000102AA4B1A60A94A1C3212688A43A74BEC
:1058D0001C331A60027BCAB9A44A0C3212688A438C
:1058E000A24B0C331A604288C38842EA03439F4AA2
:1058F0004032847A42F834300288838842EA034393
:105900009A4A4032847A02EBC4025360027B012A35
:1059100019D1964A0C3212680A43944B0C331A6020
:105920004288038842EA0343904A4032847A42F82C
:105930003430C288838842EA03438C4A4032847AF6
:1059400002EBC4025360C27A3AB9884A121D126847
:105950008A43864B1B1D1A6006E0844A121D12689A
:105960000A43824B1B1D1A60028932B97F4A1432E6
:1059700012688A437D4B14331A600289012A06D1CA
:105980007A4A143212680A43784B14331A60427B05
:10599000012A06D1754A1C3212680A43734B1C3324
:1059A0001A60724A126822F00102704B1A6010BD30
:1059B00000218171C171017241728172C172817065
:1059C000C1700321017102214171012101807047E1
:1059D0006649096841F00101644A1160114609688D
:1059E00043F60E729143614A11601146096841EA1B
:1059F000002111601146096821F001011160704712
:105A000021B1026842F48032026003E0026822F4AD
:105A1000803202607047E1B1026842F080020260A9
:105A20004FF4C272125842F480734FF4C272135092
:105A30004FF4CA72125842F480734FF4CA72135072
:105A40004FF4D272125842F480734FF4D272135052
:105A50001BE0026822F0800202604FF4C27212580A
:105A600022F480734FF4C27213504FF4CA7212586A
:105A700022F480734FF4CA7213504FF4D27212584A
:105A800022F480734FF4D2721350704710B502465F
:105A90000020936803F08063B3F1806F00D110E0C1
:105AA000936803F00063B3F1006F01D1012008E0B7
:105AB000936803F08053B3F1805F01D1022000E0CE
:105AC0000420042879D002F5C07303EB00131B688F
:105AD00003F0010402F5C07303EB00131C600B7AA2
