:020000040800F2
:100000003896002091820008B5820008BF8200085F
:10001000C9820008CD820008D182000800000000DB
:10002000000000000000000000000000D582000871
:10003000D782000800000000D9820008A9820008C9
:10004000AB820008AB820008AB820008AB820008DC
:10005000AB820008AB8200082109000833090008C0
:10006000AB820008AB820008AB820008AB820008BC
:10007000AB820008AB820008C90E0008BF1400085C
:10008000AB820008AB820008AB820008550600086E
:100090006B060008AB820008AB820008AB82000848
:1000A000AB820008AB820008AB820008AB8200087C
:1000B000D30A0008AB820008AB820008AB820008BC
:1000C000AB820008AB820008AB820008AB8200085C
:1000D000AB820008770C0008AB820008AB820008F6
:1000E000AB820008AB820008AB820008AB8200083C
:1000F000AB820008AB820008AB820008AB8200082C
:10010000AB820008AB820008AB820008AB8200081B
:1001100057140008191A0008010B0008AB820008E8
:10012000AB820008AB820008AB820008AB820008FB
:10013000AB820008AB820008AB820008930700087E
:10014000A9070008AB820008AB820008AB82000858
:10015000AB820008AB820008AB820008C51C000817
:10016000AB820008AB820008AB820008AB820008BB
:10017000AB820008AB820008AB820008AB820008AB
:10018000AB820008AB820008DFF80CD014F082FCD0
:100190000048004755020008389600201CB5012190
:1001A000042009F08FFD012000908DF8040000204C
:1001B0008DF8060003208DF805006946234809F0F4
:1001C0003BFB0121214809F0B5FB1CBD1CB50121F9
:1001D000042009F077FD0820009001208DF804002C
:1001E00000208DF8060003208DF8050069461748A9
:1001F00009F022FB0821154809F09CFB1CBD10B535
:100200004FF4A06008F082F800F0E8FB00F00AFC70
:1002100000F086F802210D4809F08CFB00F0D0F8C0
:1002200001F044F800F092FB01F00FFA00F0B2FD8B
:1002300001F0C0FC642000F0D1FA00F045F900F0B4
:1002400035FA034800F082FC10BD000000080240AF
:10025000A08601000BF09DF80CF0EDFD4FF4FA7054
:1002600000F0BCFAFFF7CBFF00F062FC2449086005
:100270000421244809F05EFB01F06EFC01202249B4
:1002800008800102214809F055FB37E0204890ED35
:10029000000ADFED200A20EE200ABDEEC00A1E484B
:1002A00080ED000A1D48D0F81E0000EE100ADFEDB8
:1002B000190A20EE200ABDEEC00A174880ED010A97
:1002C0001648D0F82E0000EE100ADFED120A20EEDC
:1002D000200ABDEEC00A104880ED020A0F48D0F88F
:1002E000360000EE100ADFED0B0A20EE200ABDEE0C
:1002F000C00A094880ED030A00F085FFC6E7000048
:1003000004000020000802400C0000200000024011
:100310004C07002000004843900700206067002041
:100320001CB50121084609F0CDFC0121042009F08B
:10033000C9FC0121022009F0C5FC06200090012023
:100340008DF8040000208DF8060003208DF80500CC
:100350006946194809F070FA012000908DF80400F0
:1003600000208DF8060003208DF80500694613482B
:1003700009F062FA0121114809F0DCFA02210E4865
:1003800009F0D6FA04210C4809F0D2FA10200090A6
:1003900003208DF8050002208DF8040001208DF85F
:1003A00007006946054809F047FA06220421034878
:1003B00009F0CDFA1CBD0000000802400004024014
:1003C00000B58BB00121042009F07CFC0121022042
:1003D00009F0ABFC02220821384809F0B8FA0222E1
:1003E0000921364809F0B3FA4FF440700990022011
:1003F0008DF8280003208DF8290000208DF82A00B0
:1004000001208DF82B0009A92C4809F015FA0222C9
:1004100008212A4809F09BFA02220921274809F0FD
:1004200096FA40F2E730ADF818000020ADF81A0057
:1004300040F28F6007900020ADF8200006A9204808
:1004400009F071FE7020ADF804000120ADF806003F
:100450000020ADF808004FF47A7003900220ADF848
:1004600010000020ADF81200ADF814004FF48070B9
:10047000ADF8160001A9124809F070FF08211048D4
:100480000AF089F801A90E4809F0CEFF08210C48AE
:100490000AF08AF801210A4809F0B0FE0121084853
:1004A00009F0CAFE5F2006493C3108607520091D2D
:1004B00008600020034908600BB000BD000802403E
:1004C000000400401000002000B58BB00121084658
:1004D00009F0F8FB0121480609F027FC09220B214D
:1004E0006E4809F034FA09220C216C4809F02FFA01
:1004F0004FF4C050029002208DF80C0002A967480A
:1005000009F09AF914208DF8040001208DF80500F7
:100510008DF806008DF8070001A807F0FCFE604882
:1005200007F064FF08A808F085F800208DF8260081
:1005300001208DF8270000208DF828008DF8290073
:100540008DF82A008DF82B008DF822008DF82300FD
:1005500008208DF8240003208DF82500ADF8200038
:1005600008A94F4807F05BFF00208DF81A008DF8AE
:100570001B0001208DF81C000020ADF81000ADF824
:100580001200ADF81400ADF81600ADF81800012007
:100590008DF81D0004A807F0CCFF0122022140487D
:1005A00008F0C6FA0BB000BD30B585B005460C4664
:1005B00040F2FF10009000208DF808008DF809002F
:1005C00008208DF80A0000208DF80B0000218DF81E
:1005D0000C108DF80D108DF80E10210A8DF80F10EB
:1005E000E1B28DF8101000218DF811108DF8121065
:1005F00069462B4808F08CF805B030BD10B586B0C0
:10060000044640F20540019000208DF80C008DF862
:100610000D0008208DF80E0020788DF80F0061780D
:100620008DF81010A1788DF81110E1788DF8121066
:1006300021798DF8131061798DF81410A1798DF856
:100640001510E1798DF8161001A9164808F060F828
:1006500006B010BD10B50121114808F0D1FA18B14B
:1006600001210F4808F067FB10BD00B585B00221DD
:100670000B4808F0C5FA78B10421094808F05BFB83
:100680000949074808F099FA6A460021044808F029
:1006900034F968460CF0DBFF05B000BD00000240F5
:1006A00000640040006800400800003200B58BB0D4
:1006B0000121022009F006FB0121880609F035FB23
:1006C00009220C21434809F042F909220D21414831
:1006D00009F03DF94FF44050029002208DF80C00D3
:1006E00002A93C4809F0A8F840208DF80400002039
:1006F0008DF8050003208DF8060001208DF8070015
:1007000001A807F008FE344807F070FE08A807F0BB
:1007100091FF00208DF8260001208DF82700002091
:100720008DF828008DF829008DF82A008DF82B000F
:100730008DF822008DF8230008208DF82400032076
:100740008DF82500ADF8200008A9234807F067FEC2
:100750000E208DF81A0000208DF81B0001208DF866
:100760001C000020ADF81000ADF81200ADF8140028
:10077000ADF81600ADF8180001208DF81D0004A892
:1007800007F0D7FE01220221134808F0D1F90BB07F
:1007900000BD10B50121104808F032FA18B101214E
:1007A0000D4808F0C8FA10BD00B585B002210A480E
:1007B00008F026FA58B10221074808F0BCFA6A4648
:1007C0000021054808F099F868460CF000FE05B0D5
:1007D00000BD0000000402400068004010B5002188
:1007E00007E04AF2104200BF131EA2F10102FBD142
:1007F000491C8142F5D310BD10B5002106E0282226
:1008000000BF131EA2F10102FBD1491C8142F6D3A5
:1008100010BD10B5002107E04AF2104200BF131EC0
:10082000A2F10102FBD1491C8142F5D310BD10B5E4
:10083000002106E0282200BF131EA2F10102FBD115
:10084000491C8142F6D310BD00B585B00121880353
:1008500009F07CFA0121142009F034FA00208DF807
:1008600010008DF8120001208DF8130000208DF883
:1008700011000320039003A9324808F0DDFF602037
:10088000039003A9304808F0D7FF0021022009F0A7
:1008900065FB0121022009F061FB0521042009F01C
:1008A0005DFB0621042009F059FB63200190002024
:1008B0008DF808000C208DF8090001208DF80A0041
:1008C00001A808F06DFC06208DF8000002208DF8CC
:1008D000010001208DF802008DF80300684607F042
:1008E0001AFD07208DF8000002208DF801008DF818
:1008F000020001208DF80300684607F00CFD172068
:100900008DF8000002208DF8010003208DF8020010
:1009100001208DF80300684607F0FDFC05B000BD1E
:1009200010B5012008F0A2FC10B1012008F0AFFCC6
:1009300010BD10B5022008F099FC10B1022008F09B
:10094000A6FC10BD00080240001002401CB50121A9
:10095000084609F0B7F94FF48070009001208DF837
:10096000040000208DF8060003208DF8050069467C
:10097000044808F061FF4FF48071024808F0DAFF84
:100980001CBD0000000002400EB50121022009F04C
:10099000DDF94FF0FF300190A720ADF800000020F6
:1009A000ADF80800ADF802000121634809F026FC0B
:1009B0006946614809F0B7FB01215F4809F01EFC58
:1009C000002211465C4809F0EBFB01215A4809F06E
:1009D000FDFB0121584809F02FFC0EBD1FB5012178
:1009E000102009F0A2F936208DF8000000208DF8C3
:1009F000010002208DF8020001208DF803006846F6
:100A000007F089FC5320ADF804000020ADF8060083
:100A1000ADF80C004FF47A70029001A9474809F034
:100A200082FB1FBD10B50121444809F005FC0122DD
:100A3000114642480AF018F8012140480AF028F807
:100A400010BD0EB50121042009F06FF94FF0FF3001
:100A50000190A720ADF800000020ADF80800ADF827
:100A600002000121364809F0C9FB6946344809F003
:100A70005AFB0121324809F0C1FB002211463048DF
:100A800009F08EFB01212E4809F0A0FB01212C4822
:100A900009F0D2FB0EBD0EB50121084609F045F95B
:100AA0004FF0FF3001905320ADF800000020ADF86A
:100AB0000800ADF802000121880709F09FFB694694
:100AC0004FF0804009F02FFB0121880709F0B4FBAB
:100AD0000EBD10B50121880709F0DDFF78B10121B5
:100AE000880709F0E9FF0121880709F0D1FF0221F9
:100AF000144808F028FF0421124808F024FF10BD14
:100B000010B501210D4809F0C6FF40B101210D4883
:100B100008F019FF0C48008808B10AF0E5FB012134
:100B2000064809F0C9FF0121044809F0B1FF10BDD2
:100B30004FF08040406A70470004014000100040C0
:100B400000080040000802400C00002010B596B0DC
:100B500004460121022009F0B5F80121880509F0B9
:100B6000B1F80121102009F0F1F8072211467A4866
:100B700008F0EDFE14A808F0A7FE802014900220D3
:100B80008DF8540000208DF8550001208DF8570095
:100B900014A9714808F050FE70480AF069F810A8CE
:100BA0000AF01AF910940020ADF84400ADF84600A0
:100BB0004FF48060ADF848000420ADF84A000020F2
:100BC000ADF84C0010A965480AF0A0F801224021B8
:100BD00062480AF0D0F9624808F000F9684608F067
:100BE000C8F94FF0006000905C48001D01905D481E
:100BF00002900020039040200490002005904FF4C4
:100C0000806006900020079008904FF48070099053
:100C100000020A9000200B900C900D900E906946F7
:100C20004F4808F07DF900224E4940314C4808F009
:100C3000D8F901214A4808F0E0F90121484808F0B4
:100C4000A9F925208DF83C0000208DF83D008DF895
:100C50003E0001208DF83F000FA807F05CFB012249
:100C600040F224413D480AF08FF901213B480AF047
:100C7000D5F816B010BD10B540F2244137480AF03F
:100C8000BEF900285DD03548008834488088344853
:100C900008F0C3F950BB0021314808F07BF9324914
:100CA0002F4808F0F0F92E4808F097F9C0F14000FD
:100CB0002E49086040202A49091D0860081F006865
:100CC00040F40020091F08600121254808F062F95E
:100CD00026480068122834D122480CF028F8002059
:100CE0000CF020FE044613F087FA2AE000211C488D
:100CF00008F050F91C491A4808F0C5F9184808F0DE
:100D00006CF9C0F140001949086040201449091DE0
:100D10000860081F006820F40020091F08600121F6
:100D20000F4808F037F911480068122809D10D481A
:100D300040300BF0FCFF00200CF0F4FD044613F0F3
:100D40005BFA10BD10B5072312220949094812F0B9
:100D500049FF10BD074870470004024000100140E1
:100D600040640240AC070020000030101400002056
:100D70002C080020EC09002000BF704700BFB14ADA
:100D8000128802F04002002AF9D0C2B2AD4B1B1DFE
:100D90001A80704700B597B00121022008F092FF39
:100DA0000121880408F0C1FF07220A21A64808F0A3
:100DB000CEFD07220B21A44808F0C9FD4FF4406086
:100DC000119002208DF8480000208DF84A00022082
:100DD0008DF8490000208DF84B0011A99A4808F0C1
:100DE0002BFD984809F044FF13A809F0F5FF4FF4D4
:100DF000E13013900020ADF85000ADF85200ADF88E
:100E000054000820ADF856000020ADF8580013A992
:100E10008C4809F07BFF01218A4809F0FFFF01227D
:100E2000802188480AF0A7F80021884808F0B2F825
:100E3000864807F0D3FF00BF844808F0F8F8002880
:100E4000FAD14FF0006001907E48001D029080486A
:100E50000390402004900020059006904FF480609D
:100E600007900020089009900A904FF480300B9072
:100E700000200C9003200D9000200E900F9001A9EF
:100E8000724808F04DF80E208DF8400002208DF8D1
:100E9000410001208DF842008DF8430010A807F0B2
:100EA0003AFA01221021694808F001F917B000BD93
:100EB00070B504460D462946204608F08CF80121FD
:100EC000204608F067F870BD10B54FF0C0515F487C
:100ED00008F0BDF840B100215C4808F05BF84FF025
:100EE000C0515A4808F0CFF810BD70B5044600252F
:100EF000574D05F8014B01215448FFF7D9FF70BD4C
:100F00002DE9F04105460E4600240027504F00BF52
:100F100003E0285D3855601C84B2B442F9DB3146E9
:100F20004A48FFF7C5FFBDE8F08100B597B0012141
:100F3000022008F0C7FE0121480508F0C3FE012188
:100F4000880408F0F2FE07220A213F4808F0FFFC5F
:100F500007220B213C4808F0FAFC4FF44060119046
:100F600002208DF8480000208DF84A0002208DF8FC
:100F7000490000208DF84B0011A9334808F05CFCB3
:100F8000304809F075FE4FF4E13013900020ADF8C1
:100F90005000ADF85200ADF854000C20ADF85600EA
:100FA0000020ADF8580013A9264809F0AFFE012231
:100FB0004021244809F0DFFF2448303807F00EFFB5
:100FC0004FF0006001901F48001D029021480390DF
:100FD0000020049064200590002006904FF480606B
:100FE00007900020089009900A904FF480300B90F1
:100FF00000200C900D900E900F9001A913483038EE
:1010000007F08EFF01211148303807F0C3FF272079
:101010008DF8400003208DF841008DF8420001203A
:101020008DF8430010A807F076F9012240F2244120
:10103000044809F0A9FF0121024809F0EFFE17B0AA
:1010400000BD00000048004000040240586002401B
:1010500018000020050A0020014608787047014664
:101060004E48814201D2002070474D48814201D252
:101070000820F9E74B48814201D21020F4E74A48A2
:10108000814201D21820EFE74848814201D2202056
:10109000EAE74748814201D22820E5E745488142F6
:1010A00001D23020E0E74448814201D23820DBE71A
:1010B0004248814201D24020D6E74148814201D2D4
:1010C0004820D1E73F48814201D25020CCE7582048
:1010D000CAE72DE9FC5F04460D4690464FF008092B
:1010E0000120019000264FF0000A4FF0000B002075
:1010F00000900027B4F1006F01D2BDE8FC9F08F01A
:101100000DF9002008F0EDF8264604EB080A3046F9
:10111000FFF7A5FF83465046FFF7A1FF00902A483E
:10112000864211D25F460BE00221384608F042F9B0
:101130008146B9F1080F02D00020019003E0083782
:1011400000988742F0D900BFB9F1080F0ED10AE02C
:101150002978204608F029FA082802D000200190BA
:1011600003E0641C6D1C5445F2D300BF012008F05D
:10117000B8F808F0E0F80198BFE72DE9F04107461C
:101180000D461646002405E03846FFF765FF285552
:101190007F1C641CB442F7D3BDE8F0810040000816
:1011A0000080000800C000080000010800000208DC
:1011B00000000408000006080000080800000A08F3
:1011C00000000C0800000E080000FF1F30B50246AA
:1011D0000B464FF6FF70002112E0555C684000247A
:1011E0000AE000F0010525B14AF2010585EA600038
:1011F00000E04010651CECB2082CF2DB4D1CE9B29B
:101200009942EADB30BD70B58CB0064600200890EC
:1012100009900A900B900490059006900790019019
:1012200002900390002500240CE056F8240008A941
:1012300041F8240008A850F8240004A941F824002B
:10124000601CC4B2042CF0DB002411E004A810F8E8
:10125000240001A901F8140004A830F82400C0F308
:101260000720012101EB440101AA5054601CC4B2C3
:10127000042CEBDB082101A8FFF7A8FF0546284650
:10128000E91705EB11610912A5EB0121C9B28DF82F
:101290000C10E91705EB1161090A8DF80D100A21F0
:1012A00001A8FFF72DFE0CB070BD000000B597B08F
:1012B0000121042008F006FD0121C80408F035FDD5
:1012C00008220A21984808F042FB08220B21964880
:1012D00008F03DFB0121480508F0F4FC4FF44060A4
:1012E000119002208DF8480000208DF84A0003205C
:1012F0008DF8490001208DF84B0011A98A4808F0AB
:101300009BFA4FF4E13013900020ADF85000ADF897
:101310005200ADF854000C20ADF856000020ADF896
:10132000580013A9814809F0F1FC012240217F48AF
:1013300009F021FE7E4807F051FD01A807F019FED3
:101340004FF0006001907948001D029079480390A9
:101350000020049064200590002006904FF48060E7
:1013600007900020089009900A904FF480300B906D
:1013700000200C900D900E900F9001A96C4807F082
:10138000CFFD01216A4807F005FE34208DF84000AA
:1013900002208DF8410001208DF842008DF84300B5
:1013A00010A806F0B8FF01228021604809F0E3FD93
:1013B00000215F48303007F0EDFD5D48303007F028
:1013C0000DFD00BF5A48303007F031FE0028F9D13A
:1013D0004FF0006001905548001D02905648039060
:1013E000402004900020059006904FF48060079004
:1013F0000020089009900A904FF480300B90002054
:101400000C9003200D9000200E900F9001A94848E9
:10141000303007F085FD0F208DF8400002208DF858
:10142000410001208DF842008DF8430010A806F01D
:1014300072FF012210213E48303007F038FE0122B1
:1014400040F22441394809F09FFD0121374809F055
:10145000E5FC17B000BD10B5002440F2244133482C
:1014600009F0CDFDF0B1314800883048001D0088FA
:1014700000212F4807F08EFD30492D4807F003FE6C
:101480002B4807F0AAFDC0F16400C4B229492046E8
:1014900010F02EFB6421264807F09DFD0121244811
:1014A00007F078FD10BD70B504460D46294620466C
:1014B00007F091FD0121204607F06CFD70BD10B5CD
:1014C0001F491B48303007F0C2FD48B100211848C1
:1014D000303007F05FFD1A491548303007F0D3FD72
:1014E00010BD70B504460025134D05F8014B0121D0
:1014F0000F483030FFF7D7FF70BD2DE9F0410546AA
:101500000E46002400270C4F00BF03E0285D38552D
:10151000601C84B2B442F9DB314605483030FFF735
:10152000C2FFBDE8F081000000080240004C00400E
:1015300040600240690A0020CD0A002000003010FF
:101540002000002030B5034605E013F8010B80EAC7
:101550000204FC48025D081EA1F10101F5D110460C
:1015600030BD70B505460C4600260DB1022C01D8E1
:10157000002070BD611EFF222846FFF7E3FF0646EC
:10158000601E285CB04201D10120F2E70020F0E7A4
:1015900070B505460C4600260DB1022C00D870BD72
:1015A000611EFF222846FFF7CDFF0646601E2E541F
:1015B00000BFF4E730B5034613B94FF6FF7030BDF6
:1015C00009E013F8014B82EA0400C0B2DE4D35F8A1
:1015D000100080EA2222081EA1F10101F1D110467B
:1015E000EDE770B505460C4600260DB1022C01D87A
:1015F000002070BDA11ED54802882846FFF7DAFFFB
:101600000646F1B2A01E285C814206D1601E285C0D
:10161000B0EB162F01D10120EBE70020E9E770B510
:1016200005460C4600260DB1022C00D870BDA11E47
:10163000C64802882846FFF7BDFF0646A01E2E5466
:10164000310A601E295400BFF0E700B597B00121B0
:10165000042008F037FB0121082008F033FB0121AA
:10166000080508F062FB0121480508F02BFB022069
:101670008DF8580000208DF85A004FF480501590D6
:1016800001208DF85B0003208DF8590015A9B048A2
:1016900008F0D2F802208DF8580000208DF85A008A
:1016A0000420159001208DF85B0003208DF859006F
:1016B00015A9A84808F0C0F808220C21A44808F091
:1016C00046F908220221A34808F041F94FF4E1301D
:1016D00011900020ADF850000C20ADF84E00002015
:1016E000ADF84C00ADF84A00ADF8480011A99A4891
:1016F00009F00CFB0121984809F090FB01224021E0
:10170000954809F038FC01A807F033FC9348039092
:101710004FF400700590800401908F48001D0290E6
:101720000020049006904FF48060079000200990FC
:1017300008900A904FF480300B9000200C900D9090
:101740000E900F9001A9864807F0EAFB012184481A
:1017500007F020FC35208DF8400001208DF8430073
:101760008DF8410002208DF8420010A806F0D3FD4C
:10177000012240F22441784809F006FC0121764814
:1017800009F04CFB01228021734809F0F4FB002191
:101790007348A83007F0FEFB7148A83007F01EFB25
:1017A00000BF6F48A83007F042FC0028F9D14FF085
:1017B000006001906848001D02906A480390402034
:1017C000049042200590002006904FF4806007901E
:1017D0000020089009900A900B900C9003200D9027
:1017E00000200E900F9001A95D48A83007F098FBEB
:1017F00001215B48A83007F0CDFB2F208DF8400079
:1018000002208DF8410001208DF842008DF8430040
:1018100010A806F080FD17B000BD70B504460D4657
:101820000021204607F0B6FB00BF204607F0FFFB73
:101830000028FAD12946204607F0CDFB0121204699
:1018400007F0A8FB70BD2DE9FC5F05468846002423
:10185000A346DCE015F80490601C295CA01C285C01
:1018600041EA0026601D295CA01D285C41EA002A8F
:101870002819C71D28190168009100798DF8040006
:1018800006F109001FFA80FBB9F1A50F72D10521FD
:101890006846FFF766FE00286CD028195946FFF706
:1018A000A0FE0028F8D0BAF5017F7DD007DCAAF2AF
:1018B000031058B1FE281DD0FF2876D15BE0AAF2B4
:1018C0000720002872D0FA28F7D194E03246394632
:1018D000254812F024FD2448363890F8380040B1ED
:1018E0002148363890F838002049096808441F49D3
:1018F000086088E01B2E24D1324639461A48C01CA5
:1019000012F00DFD1848363890F83900012809DB2F
:101910001548363890F83900072803DC02201449AE
:1019200008700EE01048363890F839000B2808DBB4
:101930000D48363890F83900112802DC01200C4996
:10194000087060E0C96F0108CA7001088E000020AD
:1019500000080240000C024000500040374F0020B9
:1019600010600240934E00200B46002084000020AF
:10197000C106002048E0102E26D1324639466C4878
:1019800012F0CDFC6B480068401C6A4908600846AC
:1019900000684FF6FF71884202DB0020654908604D
:1019A0006548408B401C02E00FE02BE015E06249E7
:1019B00048830846408B052806D1002048835F48AD
:1019C000007808B90EF066FC1DE0012E04D13878CD
:1019D0005749543981F8740015E0072E0AD1584848
:1019E0000078401C5649087032463946504823302A
:1019F00012F095FC07E0324639464D482A3012F085
:101A00008EFC00E000BF00BF04EB0B0084B2A045D9
:101A10003FF720AFBDE8FC9F10B540F22441494894
:101A200009F0EDFA28B3474800884648808800212D
:101A3000454807F0AFFA4549434807F024FB4248C0
:101A400007F0CBFAC0F50070414908604FF400710F
:101A50003D4807F0C0FA01213B4807F09BFA3C489B
:101A60000068092805D93A48008881B23948FFF74B
:101A7000EAFE10BD2DE9FF47884616461F460C9C1E
:101A800006F109001FFA80F925462F70A5F80160BC
:101A90000020E87005212046FFF77AFDBDF8000020
:101AA000A4F8050032464146E01D12F038FC4946D4
:101AB0002046FFF7B4FD204604B0BDE8F0872DE9CD
:101AC000F84306460F4615461C46DDF8208005F112
:101AD00009001FFA80F923462A4639463046CDF8D8
:101AE0000080FFF7C7FFA02C10D0A52C0ED1E10677
:101AF0001548A83007F0C7FA01228021114809F0E3
:101B00003AFA49461048A830FFF787FEBDE8F88347
:101B100070B504460D4600260CB1022D01D8FF20F9
:101B200070BDFF2229462046FFF70CFDF8E70000B4
:101B3000294600201C630020787B0020CB02002077
:101B40009100002000500040106002403000001062
:101B500094000020374F002010B545F2555009F091
:101B60009DFB002009F09DFB642009F09DFB09F01E
:101B70009EFB09F0A1FB10BDF0B503460C4618888A
:101B8000002113E0675C80EA072000250BE0460097
:101B900000F4004CBCF1000F03D041F2210C86EAA6
:101BA0000C0630466D1C082DF1D3491C9142E9D337
:101BB0001880F0BD00B597B00121042008F082F82C
:101BC0000121880508F07EF80121202008F0BEF8E8
:101BD00008220621FE4807F0BAFE08220721FC4829
:101BE00007F0B5FEC020119002208DF848000020BB
:101BF0008DF84A0002208DF8490000208DF84B0036
:101C000011A9F34807F018FEF24809F031F84FF433
:101C1000E13013900020ADF85000ADF85200ADF85F
:101C200054000C20ADF856000020ADF8580013A960
:101C3000E84809F06BF801224021E64809F09BF9D9
:101C4000E54807F0CBF84FF020600190E148001D17
:101C50000290E24803900020049064200590002048
:101C600006904FF4806007900020089009900A9039
:101C70004FF480300B9000200C900D900E900F9040
:101C800001A9D54807F04CF90121D34807F082F9A2
:101C900047208DF8400003208DF841008DF8420068
:101CA00001208DF8430010A806F035FB012240F218
:101CB0002441C84809F068F90121C64809F0AEF886
:101CC00017B000BD2DE9F843002700200090002642
:101CD0008046062540F22441BE4809F090F90028CC
:101CE00073D0BC480088BB48001D00880021BA485A
:101CF00007F050F9BA49B84807F0C5F9B64807F0F7
:101D00006CF9C0F16400C6B2B648407800285DD0D6
:101D10000020B24981F86300B2484078C0F38000E7
:101D200078B1B1A1AD4812F02CFBB049086008466B
:101D3000006830B1AB48007820F00400001DA949CC
:101D40000870A848407800F0010078B1A6A1A34827
:101D500012F017FBA54908600846006830B1A14899
:101D6000007820F00100401C9E4908709D48407892
:101D7000C0F3400078B19CA1984812F002FB9B4947
:101D800008600846006830B19648007820F00200EC
:101D9000801C9449087093484078C0F3C00078B123
:101DA00093A18E4812F0EDFA904908600846006849
:101DB00030B18C48007820F008000830894908705C
:101DC0006421864812F0D2FA4EE155E1834800784A
:101DD0005A28F9D181484078A528F5D17F488078E4
:101DE0007E49C97800EB0120801DB042ECD1082E5D
:101DF000EADB042279496846FFF7BEFEB21F774945
:101E0000891D6846FFF7B8FE74480079734949791F
:101E100000EB012087B2BDF80000B842D4D10625FE
:101E20001FE16E4844192078C02869D008DC90284A
:101E30000FD0A02813D0A5282CD0B0287BD144E007
:101E4000D0287CD0D12878D0D92877D0F028F5D1E7
:101E500001E160786B490870A81CC5B200E16078A8
:101E6000A17800EB012000B26649A1F80100E078FA
:101E7000217900EB012000B26249A1F803006079EA
:101E8000A17900EB012000B25E49A1F80500E81D30
:101E9000C5B2E5E06078A17800EB012000B25949B5
:101EA000A1F80700E078217900EB012000B2554944
:101EB000A1F809006079A17900EB012000B2514935
:101EC000A1F80B00E81DC5B2CAE06078A17800EB6C
:101ED000012000B24B49A1F80D00E078217900EB18
:101EE000012000B24749A1F80F006079A17900EB09
:101EF000012000B24349A1F81100E81DC5B2AFE0CE
:101F00006078A17800EB012000B23E49A1F81300EF
:101F1000E078217900EB012000B23A49A1F81500E0
:101F20006079A17900EB012000B23649A1F81700D1
:101F3000E81DC5B294E091E001E079E068E06078E6
:101F4000A17800EB012000B22E49A1F81900E07839
:101F5000217900EB012000B22A49A1F81B00607929
:101F6000A17900EB012000B22649A1F81D00084626
:101F7000B0F9190000EE100AB8EEC00ADFED220A2F
:101F800020EE200A10EE100AC1F83B000846B0F916
:101F90001B0000EE100AB8EEC00ADFED1B0A20EEAF
:101FA000200A10EE100AC1F83F000846B0F91D00E3
:101FB00000EE100AB8EEC00ADFED140A20EE200A87
:101FC00010EE100AC1F84300E81DC5B248E0000059
:101FD0000008024000140140286402407E510020A5
:101FE000000C0010980000204F4B00009C000020C7
:101FF0006E6577207061636B6574206974656D73BD
:1020000000000000375100200AD7233CCDCCCC3D46
:102010009D4854F8011FC0F81F106168C0F82310D4
:10202000A168641EC0F8271005F10D00C5B217E0C5
:10203000954854F8011FC0F82B106168C0F82F10A4
:10204000A168C0F83310E168641EC0F8371005F1CC
:102050001100C5B204E0681DC5B201E0354600BFFD
:1020600000BFB542FFF6DDAE6421884806F0B3FF3D
:102070000121864806F08EFFBDE8F88310B582483E
:10208000B0F91100404200EE100AB8EEC00A5FED50
:10209000210A20EE200A7E4880ED000A7A48B0F935
:1020A0000D0000EE100AB8EEC00A5FED280A20EE1F
:1020B000200A784880ED000A774890ED000A7748BA
:1020C00080ED000A7048D0F8430000EE100AB1EE2F
:1020D000400A714880ED000A90ED000A6F48D0ED8B
:1020E000000A30EE600ADFED6E0AB4EEE00AF1EEAF
:1020F00010FA05DB6B480068401E6A49086013E06F
:10210000654890ED000A6548D0ED000A30EE600A9F
:10211000DFED650AB4EEE00AF1EE10FA04D861488A
:102120000068401C5F4908605E4800684FF4B47165
:10213000484300EE100AB8EEC00A5748D0ED000A36
:1021400030EE200A594880ED000A4F48D0F83F0091
:1021500000EE100AB1EE400A554880ED000A012059
:102160000BF0E0FB044612F047F810BD10B5044632
:102170000DE021464FA012F0CBFC5148407820F0F2
:102180000200801C4E4948706420FEF727FB4C4833
:102190000078C0F340000028EBD04948407820F098
:1021A00002004749487010BD10B504460DE02146B5
:1021B00044A012F0ADFC4248407820F00400001D1D
:1021C0003F4948706420FEF709FB3D480078C0F3A2
:1021D00080000028EBD03A48407820F004003849CD
:1021E000487010BD10B504460DE0214639A012F02C
:1021F0008FFC3348407820F00800083030494870A0
:102200006420FEF7EBFA2E480078C0F3C0000028E7
:10221000EBD02B48407820F008002949487010BDC9
:1022200010B504460DE021462EA012F071FC2448A2
:10223000407820F00100401C214948706420FEF7DE
:10224000CDFA1F48007800F001000028EBD01C48B0
:10225000407820F001001A49487010BD10B525A043
:1022600012F056FC10BD10B525A0FFF7D9FF25A030
:10227000FFF79AFF25A0FFF779FF26A0FFF7B2FF2F
:10228000FFF7ECFF10BD000037510020286402402A
:102290005C07002058070020A4000020A0000020B8
:1022A0000000A543A80000200000A5C34C070020A3
:1022B0005007002041542B4F44523D25730D0A0016
:1022C0009800002041542B424155443D25730D0A8E
:1022D0000000000041542B53455450544C3D25738D
:1022E0000D0A000041542B454F55543D25730D0AEE
:1022F0000000000041542B5253540D0A000000000E
:1023000030000000313135323030000031303030B3
:102310000000000041302C42302C43302C44302C43
:102320004439000070B52DED0E8B82B006460D4687
:10233000B0EE408A9FEDFE0A28EE000A10EE104A29
:10234000204612F023FA41EC1E0BB0EE4E0AF0EEDE
:102350006E0A13F039FCB0EE40CAF0EE60CA2846AF
:1023600012F0BEF941EC1D0B53EC1C2B12F0D7F808
:1023700041EC1A0B204612F009FA41EC1E0BB0EEAC
:102380004E0AF0EE6E0A12F077FEB0EE40CAF0EEA2
:1023900060CA304612F0A4F941EC1D0B53EC1C2B23
:1023A00012F0BDF841EC1B0B53EC1A2B12F0B1F8F4
:1023B00041EC190B12F0B2F900B2ADF8040020465E
:1023C00012F0E4F941EC1E0BB0EE4E0AF0EE6E0A8C
:1023D00012F052FEB0EE40CAF0EE60CA284612F08B
:1023E0007FF941EC1D0B53EC1C2B12F098F841ECDB
:1023F0001B0B204612F0CAF941EC1E0BB0EE4E0A40
:10240000F0EE6E0A13F0E0FBB0EE40CAF0EE60CAE8
:10241000304612F065F941EC1D0B53EC1C2B12F009
:102420007EF841EC190B53EC1B2B11F0D1FF41EC62
:102430001A0B12F073F900B2ADF80600019802B061
:10244000BDEC0E8B70BD10B52DED048B82B0B9487C
:1024500090F83940672C1BD006DC032C09D0042CE3
:102460000CD0052C23D10EE0682C16D0692C1ED17F
:1024700018E040F20310B049088018E04FF4827071
:10248000AD49088013E040F20510AB4908800EE02A
:1024900040F26710A849088009E04FF4B470A649DB
:1024A000088004E040F26910A349088000BF00BF23
:1024B000A24890ED000AF7EE000A30EE200A80ED07
:1024C000000A90ED000AF1EE040AB4EEE00AF1EE23
:1024D00010FA03D201209A49086002E000209849CE
:1024E000086097480068974908609748006809683D
:1024F00088420AD093480068012806D193490860B1
:102500009FED930B944880ED000B9FED940B53ECE3
:10251000102B914890ED000B51EC100B11F0FFFFC8
:10252000904A03C29FED900B53EC102B8D4890ED19
:10253000000B51EC100B12F03DF902D10020834941
:1025400008608248006801280CD19FED890B53EC8C
:10255000102B814890ED000B51EC100B11F0D9FFBE
:102560007D4A03C27948006860B99FED810B53EC46
:10257000102B794890ED000B51EC100B11F028FF57
:10258000754A03C27C480078182882F0F283DFE89D
:1025900010F0F01318003901E0016002E102BD0300
:1025A000BA04F106A507BE086B09E609790A1F0BF4
:1025B000B00B730C890DAB0F501069111612AA12D3
:1025C000261304206D49087001204870594890F87E
:1025D00039008870574890F839000012C870564882
:1025E0000078087154480088001248716448C07827
:1025F00020F00700401C6249C8700846B0F803008C
:1026000020F470704030A1F803000846C07820F034
:1026100038001030C87000200870487001208870A1
:102620004FF470715648008961F38C005449088159
:102630004FF4E1715248B0F8090061F34F1050496E
:10264000A1F809000846007920F03C00001D08713F
:102650000846B0F80B006FF30900C01CA1F80B008E
:102660000846B0F807006FF30900401DA1F8070005
:102670000846807C20F00700401C88740846408A89
:1026800020F47070403048820846807C20F038008A
:10269000103088740020C873002139480174022169
:1026A00041744FF47071B0F8170061F38C00344935
:1026B000A1F817004FF4D2713148008B61F34F102D
:1026C0002F4908830846C07C20F03C00001DC874D8
:1026D0000846408B6FF30900C01C48830846C08A37
:1026E0006FF30900401DC882084690F8210020F0D1
:1026F0000700401C81F821000846B0F8210020F4B2
:1027000070704030A1F82100084690F8210020F0B8
:102710003800083081F8210000208877002118480F
:10272000C177032180F82010C321C08C2AE000006B
:1027300035FA8E3CD5450020B6000020E806002082
:10274000C8000020BC000020C4000020CC000020F5
:102750000000000000004940D8000020B81E85EBB2
:1027600051B89E3FD0000020000000000000000093
:10277000000000000000F03FB0000020F54E0020F7
:10278000B353002061F38C00FE49C88440F25D2100
:10279000FC48B0F8270061F34F10FA49A1F8270070
:1027A0004FF4FF71F748408D61F38C00F54948857F
:1027B00040F27B21F348B0F82B0061F34F10F14950
:1027C000A1F82B00084690F8220020F03C001030C1
:1027D00081F822000846B0F825006FF30900401C7C
:1027E000A1F825006922E84811F099FDE748A523E2
:1027F0006F22E549891F009040F20130FFF75FF931
:1028000002F0B8BA1020E049891F08700120487012
:10281000DF4890F839008870DD4890F839000012E0
:10282000C870DC4800780871DA48008800124871E6
:10283000D948C07820F00700401CD749C870084626
:10284000B0F8030020F470704030A1F8030008468F
:10285000C07820F038003830C8700020087002209E
:10286000487000208870C821CB48008961F38C0033
:10287000C94908814FF43971C748B0F8090061F3BC
:102880004F10C549A1F809000846B0F807006FF3DA
:102890000900801CA1F807001421BF48808861F35B
:1028A0008E10BD4988800C21BB48B0F8050061F34B
:1028B000CF10B949A1F80500B848007E07281DD1FE
:1028C0000846007920F03C00083008715220C87397
:1028D0004F21B14801745421417441218174542124
:1028E000C174452101755F2141754F2181755021CA
:1028F000C175452101764E2141761AE0A64800793E
:1029000020F03C001430A44908715220C8734F21B4
:10291000A148017454214174412181745421C1742E
:10292000452101755F2141754F2181754621C17592
:1029300001762D229849944811F0F1FC9348A52383
:1029400033229149891F009040F20130FFF7B7F818
:1029500056E710208C49891F0870012048708C4868
:1029600090F8390088708A4890F839000012C870D1
:1029700088480078087187480088001248718848A4
:10298000C07820F00700401C8549C8700846B0F8A0
:10299000030020F470704030A1F803000846C078AE
:1029A00020F038003830C8700020087048700420CB
:1029B0008870C8217A48008961F38C0078490881C1
:1029C00040F29E217648B0F8090061F34F10744937
:1029D000A1F809000846B0F807006FF30900801C51
:1029E000A1F8070014216E48808861F38E106C49AD
:1029F000888008216A48B0F8050061F3CF10684963
:102A0000A1F805000846007920F03C001430087158
:102A10005620C8734F21624801744C2141745421DF
:102A200081744121C17447210175452141753A21C5
:102A300081752D220146544811F071FC5348A5239D
:102A400033225149891F009040F20130FFF737F8D7
:102A5000D6E610204C49891F0870012048704C4868
:102A600090F8390088704A4890F839000012C87010
:102A70004848007808714748008800124871494862
:102A8000C07820F00700401C4649C8700846B0F8DE
:102A9000030020F470704030A1F803000846C078AD
:102AA00020F038003830C8700020087048700520C9
:102AB00088704FF4AF713B48008961F38C0039494D
:102AC000088140F29E213748B0F8090061F34F10A9
:102AD0003449A1F809000846B0F807006FF309006F
:102AE000801CA1F8070014212E48808861F38E1005
:102AF0002C49888004212B48B0F8050061F3CF10E1
:102B00002849A1F805000846007920F03C0014305F
:102B10000871254890ED010A10EE101A084611F0D0
:102B200035FE41EC180B53EC182B20A11D480F303B
:102B300011F0FEFF2D221B49134811F0F0FB134842
:102B4000A52333221049891F009040F20130FEF77F
:102B5000B6FF55E604200C49891F08700120487013
:102B60000B4890F839008870094890F83900001235
:102B7000C87008480078087106480088001248713B
:102B80000B4817E0B3530020FB4E0020934E00206B
:102B9000D5450020B60000203C5200202C7D0020AE
:102BA0006952002096520020E86600202566000049
:102BB0004A53002090F83F0020F00700401CFE49D7
:102BC00081F83F000846B0F83F0020F470704030B4
:102BD000A1F83F00084690F83F0020F03801F64881
:102BE00080F83F100020F44981F83C000021F248B1
:102BF00080F83D10062180F83E10C821B0F844004E
:102C000061F38C00EC49A1F844004FF41B71EA48D1
:102C1000B0F8450061F34F10E749A1F845004FF4C3
:102C20001B71E548B0F8490061F34F10E249A1F883
:102C30004900E24890ED010AB5EEC00AF1EE10FA43
:102C40001ADB90ED010AF2EE0A0AB4EEE00AF1EEA8
:102C500010FA11D8E621D848B0F8480061F38C008A
:102C6000D549A1F84800084690F8400020F03C0003
:102C7000143081F8400031E0D04890ED010AF2EEC6
:102C80000A0AB4EEE00AF1EE10FA27DD90ED010A2F
:102C900010EE101A084611F079FD41EC190B9FED6A
:102CA000C80B53EC102B11F034FC41EC180B11F055
:102CB00035FDC0EB0010F02101EB4000BE49B1F83A
:102CC000481060F38C01BC48A0F8481090F8400010
:102CD00020F03C001430B84981F84000B648B0F804
:102CE00043006FF309001030B349A1F84300692293
:102CF000B54811F014FBB548A5236F22B249891FCE
:102D0000009040F20130FEF7DAFE79E51020AE497E
:102D1000891F087001204870AD4890F8390088700C
:102D2000AB4890F839000012C870AA4800780871C2
:102D3000A848008800124871A748C07820F0070012
:102D4000401CA549C8700846B0F8030020F4707014
:102D50004030A1F803000846C07820F03800383031
:102D6000C870002008704870072088709B48007861
:102D7000E0BBC8219848008961F38C00964908811E
:102D800040F253219448B0F8090061F34F10924982
:102D9000A1F809000846B0F807006FF30900801C8D
:102DA000A1F8070014218C48808861F38E108A49AD
:102DB00088800B218848B0F8050061F3CF10864960
:102DC000A1F805000846007920F03C001430087195
:102DD0004E20C8734F2180480174522141744D2107
:102DE00081744121C1744C2101757CE0FFE77B486F
:102DF000007801283BD1C8217748008961F38C0015
:102E00007549088140F253217348B0F8090061F315
:102E10004F107149A1F809000846B0F807006FF398
:102E20000900801CA1F8070014216B48808861F319
:102E30008E10694988800B216748B0F8050061F35E
:102E4000CF106549A1F805000846007920F03C0044
:102E5000143008714D20C87349215F480174442122
:102E6000417481744C21C174452101753BE05B487C
:102E70000078022837D1C8215748008961F38C00B7
:102E80005549088140F253215348B0F8090061F3D5
:102E90004F105149A1F809000846B0F807006FF338
:102EA0000900801CA1F8070014214B48808861F3B9
:102EB0008E10494988800B214748B0F8050061F31E
:102EC000CF104549A1F805000846007920F03C00E4
:102ED000143008714820C87349213F4801744721C4
:102EE0004174482181742D223B49374811F017FA6B
:102EF0003648A52333223449891F009040F201301F
:102F0000FEF7DDFD7CE404202F49891F08700120B5
:102F100048702F4890F8390088702D4890F8390093
:102F20000012C8702B48007808712A4800880012E7
:102F300048712B48C07820F00700401C2849C87011
:102F40000846B0F8030020F470704030A1F8030088
:102F50000846C07820F03800C8700020087048701B
:102F6000082088704FF4C8711D48008961F38C00F7
:102F70001B49088140F24E211948B0F8090061F35D
:102F80004F101749A1F809004FF411711448B0F817
:102F90000D0061F34F101249A1F80D004FF4CD71EF
:102FA0000F48808961F38C000D49888108460079BB
:102FB00020F03C00143015E04A530020E866002061
:102FC0000000000000002A40FB4E0020934E00202D
:102FD000D5450020B60000201D5300200C0600201F
:102FE0005755002008710846B0F807006FF3090034
:102FF000401DA1F807000846807C20F00700401C17
:1030000088740846408A20F4707040304882084630
:10301000807C20F03801FE4881740020FC49C87390
:103020000021FB480174092141744FF4C871B0F8C4
:10303000170061F38C00F649A1F8170040F23A211D
:10304000F348008B61F34F10F14908834FF411717D
:10305000EF48808B61F34F10ED4988834FF4CD71B9
:10306000EB48B0F81B0061F38C00E949A1F81B00A4
:103070000846C07C20F03C001430C8740846C08A62
:103080006FF30900401DC882E248007801287DD115
:10309000084690F8210020F00700401C81F821002C
:1030A0000846B0F8210020F470704030A1F82100EB
:1030B000084690F8210020F03801D54880F821100A
:1030C0000020D34988770121D148C177002180F8B9
:1030D00020104FF4D271C08C61F38C00CC49C884AD
:1030E00040F24E21CA48B0F8270061F34F10C8499A
:1030F000A1F827004FF41171C548B0F82B0061F317
:103100004F10C349A1F82B004FF4D771C048408D30
:1031100061F38C00BE494885084690F8220020F0F3
:103120003C00143081F822000846B0F825006FF307
:103130000900401DA1F82500084690F8300020F055
:103140000700401C81F830000846008E20F47070A3
:1031500040300886084690F8300020F03801AC482E
:1031600080F830100020AA4981F82D000121A848DC
:1031700080F82E1080F82F104FF4D271B0F835007F
:1031800061F38C00A249A1F8350000E027E040F28D
:103190003A219F48C08E61F34F109D49C8864FF475
:1031A00011719B48408F61F34F10994948874FF444
:1031B000D7719748B0F8390061F38C009449A1F8B1
:1031C0003900084690F8310020F03C00143081F8B6
:1031D00031000846808E6FF30900401D88868D48B7
:1031E000007802287ED18A4890F83F0020F007003E
:1031F000401C874981F83F000846B0F83F0020F4A2
:1032000070704030A1F83F00084690F83F0020F071
:1032100038017F4880F83F1000207D4981F83C004C
:1032200001217B4880F83D10022180F83E104FF4C8
:10323000DC71B0F8440061F38C007549A1F84400DA
:1032400040F24E217248B0F8450061F34F107049CA
:10325000A1F845004FF411716D48B0F8490061F3D1
:103260004F106B49A1F849004FF4E1716848B0F87C
:10327000480061F38C006649A1F84800084690F8C0
:10328000400020F03C00143081F840000846B0F8BF
:1032900043006FF30900401DA1F84300084690F871
:1032A0004E0020F00700401C81F84E000846B0F8A0
:1032B0004E0020F470704030A1F84E00084690F89F
:1032C0004E0020F03801524880F84E10002050493E
:1032D00081F84B0001214E4880F84C10032180F802
:1032E0004D1000E036E04FF4DC71B0F8530061F3AC
:1032F0008C004749A1F8530040F23A214448B0F805
:10330000540061F34F104249A1F854004FF4117179
:103310003F48B0F8580061F34F103D49A1F85800FC
:103320004FF4E1713A48B0F8570061F38C00384926
:10333000A1F85700084690F84F0020F03C001430E8
:1033400081F84F000846B0F852006FF30900401DA5
:10335000A1F8520069222E492F4810F0E0FF2F48B3
:10336000A5236F222C49891F009040F20130FEF7FF
:10337000A6FBCAE410202849891F08700120487064
:10338000274890F839008870254890F839000012D5
:10339000C8702448007808712248008800124871DB
:1033A0002148C07820F00700401C1F49C87008461B
:1033B000B0F8030020F470704030A1F80300084614
:1033C000C07820F038003830C87000200870012024
:1033D000487004208870C8211348008961F38C006C
:1033E0001149088140F226210F48B0F8090061F325
:1033F0004F100D49A1F809000846B0F807006FF317
:103400000900801CA1F807000F21074880880DE003
:10341000575500200C060020FB4E0020934E002044
:10342000D5450020B6000020E251002061F38E1047
:10343000FE4988800B21FD48B0F8050061F3CF10EC
:10344000FA49A1F80500FA480068012819D1084690
:10345000007920F03C00083008715320C8735521D2
:10346000F2480174502141745F2181744F21C1746D
:1034700050210175452141754E2181752021C1756D
:103480001CE0EB480068C8B9E848007920F03C002F
:103490001430E64908715320C8735521E34801747C
:1034A000502141745F2181744321C1744C21017505
:1034B0004F214175532181754521C1752D22DB496D
:1034C000DC4810F02CFFDC48A5233322D949891FA2
:1034D000009040F20130FEF7F2FA16E40420D549DC
:1034E000891F087001204870D44890F8390088700E
:1034F000D24890F839000012C870D148007808719D
:10350000CF48008800124871CE48C07820F00700EC
:10351000401CCC49C8700846B0F8030020F4707015
:103520004030A1F803000846C07820F03800C87089
:103530000020087001204870052088700846807CB3
:1035400020F00700401C88740846408A20F4707000
:10355000403048820846807C20F03801B9488174A8
:103560000020B849C8730121B6480174062141748E
:10357000AF480068012853D140F28111B148008959
:1035800061F38C00AF49088140F22B21AD48B0F8BF
:10359000090061F34F10AB49A1F8090040F217216F
:1035A000A848B0F80D0061F34F10A649A1F80D002E
:1035B0004FF4C871A348808961F38C00A1498881C8
:1035C0000846007920F03C00143008714FF4E17196
:1035D0009C48B0F8170061F38C009A49A1F81700D5
:1035E00040F217219748008B61F34F1095490883EB
:1035F00040F22B219348808B61F34F1091498883CF
:1036000040F2D1118F48B0F81B0061F38C008D4956
:10361000A1F81B000846C07C20F03C001430C874A0
:1036200083480068F0BB4FF4C8718648008961F395
:103630008C008449088140F217218248B0F80900C3
:1036400061F34F107F49A1F8090040F217217D482E
:10365000B0F80D0061F34F107A49A1F80D004FF456
:10366000D2717848808961F38C0076498881084658
:10367000007920F03C00143008714FF4D771714884
:10368000B0F8170061F38C006E49A1F8170040F202
:1036900017216C48008B61F34F106A49088340F290
:1036A000172100E015E06748808B61F34F106549F2
:1036B00088834FF4E1716348B0F81B0061F38C001C
:1036C0006049A1F81B000846C07C20F03C00143083
:1036D000C8745C48B0F807006FF30900401D5949F1
:1036E000A1F807000846C08A6FF30900401DC88290
:1036F0006922504810F013FE4F48A5236F224D4910
:10370000891F009040F20130FEF7D9F931E6102010
:103710004849891F087001204870484890F83900CE
:103720008870464890F839000012C8704448007804
:10373000087143480088001248714348C07820F05F
:103740000700401C4049C8700846B0F8030020F448
:1037500070704030A1F803000846C07820F03800AF
:103760003830C87000200870012048700720887029
:10377000F0213548008961F38C003349088140F21B
:10378000C6213148B0F8090061F34F102E49A1F865
:1037900009000846B0F807006FF30900801CA1F883
:1037A00007000F212848808861F38E102649888001
:1037B00008212548B0F8050061F3CF102249A1F88F
:1037C000050022480068012813D10846007920F03E
:1037D0003C00083008714420C87345211A48017420
:1037E00054214174452181744321C17454210175D0
:1037F00017E01548007920F03C0014301249087198
:103800005520C8734E21104801744421417445214C
:1038100081745421C174452101754321417554219E
:1038200081752D220849034812E00000E251002072
:1038300010000020FB4E0020934E0020D5450020B4
:10384000B600002085540020C3520020BC00002098
:1038500010F065FDFE48A5233322FE49009040F29A
:103860000130FEF72CF984E51020FA490870012098
:103870004870F94890F839008870F74890F8390096
:103880000012C870F54800780871F44800880012EA
:103890004871F348C07820F00700401CF049C87018
:1038A0000846B0F8030020F470704030A1F803001F
:1038B0000846C07820F038003830C8700020087002
:1038C00001204870082088704FF4CD71E4480089C9
:1038D00061F38C00E249088140F2C621E048B0F86B
:1038E000090061F34F10DE49A1F809000846B0F85D
:1038F00007006FF30900801CA1F807001421D848C5
:10390000808861F38E10D64988800421D448B0F8AD
:10391000050061F3CF10D249A1F8050008460079EF
:1039200020F03C0014300871CE4890ED000B53ECB1
:10393000102BAFF68851CA480F3011F0F9F82D223C
:10394000C749C448801D10F0EAFCC148A5233322B2
:10395000C049009040F20130FEF7B1F809E50420BB
:10396000BC49087001204870BB4890F83900887045
:10397000B94890F839000012C870B848007808714A
:10398000B648008800124871B748C07820F0070098
:10399000401CB549C8700846B0F8030020F47070A8
:1039A0004030A1F803000846C07820F038001030FD
:1039B000C870002008700120487009208870AB484A
:1039C0000068012827D1DC21A748008961F38C0019
:1039D000A549088140F2B921A348B0F8090061F374
:1039E0004F10A149A1F809000846B0F80B006FF389
:1039F0000900C01CA1F80B000846007920F03C002B
:103A0000083008710846B0F807006FF30900093064
:103A1000A1F8070026E0DC219348008961F38C00BF
:103A20009149088140F2B9218F48B0F8090061F34B
:103A30004F108D49A1F809000846B0F80B006FF34C
:103A40000900C01CA1F80B000846007920F03C00DA
:103A5000143008710846B0F807006FF30900093008
:103A6000A1F80700692280497A48801D10F057FCB0
:103A70007748A5236F227749009040F20130FEF786
:103A80001EF800BF1020734908700120487072486A
:103A900090F839008870704890F839000012C870AA
:103AA0006E48007808716D480088001248717048AF
:103AB000C07820F00700801C6D49C8700846B0F837
:103AC000030020F470704030A1F803000846C0786D
:103AD00020F038003830C87000200870022048708C
:103AE00000208870C8216248008961F38C00604919
:103AF00008814FF439715E48B0F8090061F34F1046
:103B00005B49A1F809000846B0F807006FF3090007
:103B1000801CA1F8070014215548808861F38E109D
:103B2000534988800C215248B0F8050061F3CF104A
:103B30004F49A1F805004F48007E07281DD10846CF
:103B4000007920F03C00083008715220C8734F21E2
:103B50004748017454214174412181745421C17436
:103B6000452101755F2141754F2181755021C17536
:103B7000452101764E2141761AE03D48007920F03A
:103B80003C0014303A4908715220C8734F2138481C
:103B9000017454214174412181745421C17445211F
:103BA00001755F2141754F2181754621C1750176EF
:103BB0002D222F492748801D10F0B1FB2448A52352
:103BC00033222449009040F20130FDF778FF84E46D
:103BD000102020490870012048701F4890F83900D3
:103BE00088701D4890F839000012C8701B48007892
:103BF00008711A480088001248711F48C07820F0E8
:103C00000700801C1C49C8700846B0F8030020F467
:103C100070704030A1F803000846C07820F03800EA
:103C20003830C870002008704870052088704FF444
:103C3000AF711148008961F38C000F49088140F28F
:103C40009E210D48B0F8090061F34F100A4915E0B4
:103C5000934E0020F54E0020D5450020B6000020F0
:103C6000F0520020D00000201C540020BC00002096
:103C70003C5200202C7D002096520020A1F8090023
:103C80000846B0F807006FF30900801CA1F8070090
:103C90001421F848808861F38E10F6498880042149
:103CA000F448B0F8050061F3CF10F249A1F805001F
:103CB000F14890ED010A10EE101A084610F066FD6A
:103CC00041EC180B53EC182BECA1EA480F3010F024
:103CD0002FFF2D22E749EA4810F021FBE948A523F0
:103CE0003322E749891F009040F20130FDF7E7FEDB
:103CF0000CE50420E249891F087001204870E24861
:103D000090F839008870E04890F839000012C870C7
:103D1000DE4800780871DD48008800124871DC48F0
:103D200090F83F0020F00700801CD94981F83F003F
:103D30000846B0F83F0020F470704030A1F83F0012
:103D4000084690F83F0020F03801D14880F83F1035
:103D50000020CF4981F83C000021CD4880F83D107B
:103D6000062180F83E10C821B0F8440061F38C00B1
:103D7000C749A1F844004FF41B71C548B0F845008D
:103D800061F34F10C249A1F845004FF41B71C048C0
:103D9000B0F8490061F34F10BD49A1F84900B64899
:103DA00090ED010AB5EEC00AF1EE10FA1ADB90EDC3
:103DB000010AF2EE0A0AB4EEE00AF1EE10FA11D8A6
:103DC000E621B348B0F8480061F38C00B049A1F88F
:103DD0004800084690F8400020F03C00143081F87C
:103DE000400031E0A44890ED010AF2EE0A0AB4EE78
:103DF000E00AF1EE10FA27DD90ED010A10EE101A3C
:103E0000084610F0C3FC41EC190B9FEDA20B53ECDC
:103E1000102B10F07EFB41EC180B10F07FFCC0EB78
:103E20000010F02101EB40009949B1F8481060F30F
:103E30008C019748A0F8481090F8400020F03C0012
:103E40001430934981F840009148B0F843006FF373
:103E5000090010308E49A1F843006922884810F00B
:103E60005EFA8848A5236F228549891F009040F299
:103E70000130FDF724FE49E410208149891F0870B4
:103E800001204870804890F8390088707E4890F88A
:103E900039000012C8707D48007808717B4800889E
:103EA000001248717D48C07820F00700801C7B49D3
:103EB000C8700846B0F8030020F470704030A1F8D4
:103EC00003000846C07820F038003830C870002061
:103ED000087048700720887071480078E0BBC821DE
:103EE0006E48008961F38C006C49088140F25321CF
:103EF0006A48B0F8090061F34F106849A1F8090059
:103F00000846B0F807006FF30900801CA1F807000D
:103F100014216248808861F38E10604988800B21EB
:103F20005E48B0F8050061F3CF105C49A1F80500C8
:103F30000846007920F03C00143008714E20C87308
:103F40004F2156480174522141744D218174412101
:103F5000C1744C2101757CE0FFE7514800780128CD
:103F60003BD1C8214D48008961F38C004B49088141
:103F700040F253214948B0F8090061F34F10474916
:103F8000A1F809000846B0F807006FF30900801C8B
:103F9000A1F8070014214148808861F38E103F4941
:103FA00088800B213D48B0F8050061F3CF103B49F4
:103FB000A1F805000846007920F03C001430087193
:103FC0004D20C873492135480174442141748174DE
:103FD0004C21C174452101753BE03148007802282D
:103FE00037D1C8212D48008961F38C002B49088105
:103FF00040F253212948B0F8090061F34F102749D6
:10400000A1F809000846B0F807006FF30900801C0A
:10401000A1F8070014212148808861F38E101F4900
:1040200088800B211D48B0F8050061F3CF101B49B3
:10403000A1F805000846007920F03C001430087112
:104040004820C8734921154801744721417448210B
:1040500081742D2211490A4810F061F90948A523FD
:1040600033220749891F009040F20130FDF727FDF8
:1040700074E4000096520020E866002025660000E7
:10408000FB4E0020934E0020D5450020B6000020B6
:104090004A5300200000000000002A401D53002069
:1040A0000C0600200420FE49087001204870FD48DD
:1040B00090F839008870FB4890F839000012C870F9
:1040C000F94800780871F848008800124871F748EC
:1040D000007801287ED1F64890F8210020F00700F2
:1040E000401CF34981F821000846B0F8210020F473
:1040F00070704030A1F82100084690F8210020F0AF
:104100003801EB4880F821100020E9498877012127
:10411000E748C177002180F820104FF4D271C08C9D
:1041200061F38C00E249C88440F24E21E048B0F8C7
:10413000270061F34F10DE49A1F827004FF41171F9
:10414000DB48B0F82B0061F34F10D949A1F82B00E0
:104150004FF4D771D648408D61F38C00D44948851F
:10416000084690F8220020F03C00143081F822002C
:104170000846B0F825006FF30900401DA1F825009E
:10418000084690F8300020F00700401C81F830000D
:104190000846008E20F4707040300886084690F87B
:1041A000300020F03801C24880F830100020C049AB
:1041B00081F82D000121BE4880F82E1080F82F10C4
:1041C0004FF4D271B0F8350061F38C00B849A1F812
:1041D000350000E028E040F23A21B548C08E61F396
:1041E0004F10B349C8864FF41171B148408F61F345
:1041F0004F10AF4948874FF4D771AD48B0F8390038
:1042000061F38C00AA49A1F83900084690F8310002
:1042100020F03C00143081F831000846808E6FF3A6
:104220000900401D888641E0A14890F8210020F057
:104230000700C01C9E4981F821000846B0F8210003
:1042400020F470704030A1F82100084690F8210059
:1042500020F03801964880F8211000209449887792
:1042600001219348C177002180F8201090F8300098
:1042700020F00700C01C8E4981F830000846008EEF
:1042800020F4707040300886084690F8300020F026
:104290003801874880F830100020854981F82D00CA
:1042A0000121834880F82E1080F82F107F48007875
:1042B00002287CD17E4890F83F0020F00700401C87
:1042C0007B4981F83F000846B0F83F0020F4707049
:1042D0004030A1F83F00084690F83F0020F0380138
:1042E000734880F83F100020714981F83C0001219B
:1042F0006F4880F83D10022180F83E104FF4DC71C9
:10430000B0F8440061F38C006949A1F8440040F220
:104310004E216748B0F8450061F34F106449A1F899
:1043200045004FF411716248B0F8490061F34F1035
:104330005F49A1F849004FF4E1715D48B0F84800C9
:1043400061F38C005A49A1F84800084690F84000F3
:1043500020F03C00143081F840000846B0F84300DB
:104360006FF30900401DA1F84300084690F84E0085
:1043700020F00700401C81F84E000846B0F84E00BF
:1043800020F470704030A1F84E00084690F84E00BE
:1043900020F03801464880F84E100020444981F84A
:1043A0004B000121424880F84C10032100E039E025
:1043B00080F84D104FF4DC71B0F8530061F38C00BD
:1043C0003B49A1F8530040F23A213948B0F8540073
:1043D00061F34F103649A1F854004FF4117134487D
:1043E000B0F8580061F34F103149A1F858004FF46C
:1043F000E1712F48B0F8570061F38C002C49A1F807
:104400005700084690F84F0020F03C00143081F827
:104410004F000846B0F852006FF30900401DA1F8A4
:10442000520051E0224890F83F0020F00700C01CE5
:104430001F4981F83F000846B0F83F0020F4707033
:104440004030A1F83F00084690F83F0020F03801C6
:10445000174880F83F100020154981F83C000121E1
:10446000134880F83D10022180F83E1090F84E006D
:1044700020F00700C01C0E4981F84E000846B0F835
:104480004E0020F470704030A1F84E00084690F8BD
:104490004E0020F03801064880F84E10002009E058
:1044A000F54E0020D5450020B60000200C06002067
:1044B00057550020FE4981F84B000121FC4880F847
:1044C0004C10032180F84D106922F949F9480FF08A
:1044D00026FFF948A5236F22F649891F009040F274
:1044E0000130FDF7ECFAC6E41020F249891F08708C
:1044F00001204870F14890F839008870EF4890F832
:1045000039000012C870EE4800780871EC48008845
:1045100000124871EB48C07820F00700801CE94980
:10452000C8700846B0F8030020F470704030A1F85D
:1045300003000846C07820F038003830C8700020EA
:1045400008700120487004208870C821DD48008967
:1045500061F38C00DB49088140F22621D948B0F88C
:10456000090061F34F10D749A1F809000846B0F8D7
:1045700007006FF30900801CA1F807000F21D14844
:10458000808861F38E10CF4988800B21CD48B0F828
:10459000050061F3CF10CB49A1F80500CA480068B7
:1045A000012819D10846007920F03C000830087134
:1045B0005320C8735521C3480174502141745F21B1
:1045C00081744F21C17450210175452141754E21DF
:1045D00081752021C1751CE0BB480068C8B9B94885
:1045E000007920F03C001430B64908715320C8739C
:1045F0005521B4480174502141745F2181744321D5
:10460000C1744C2101754F2141755321817545219C
:10461000C1752D22AB49A7480FF081FEA648A523FE
:104620003322A449891F009040F20130FDF747FA78
:10463000A0E304209F49891F0870012048709F480B
:1046400090F8390088709D4890F839000012C870C1
:104650009B48007808719A480088001248719B486E
:10466000C07820F00700801C9849C8700846B0F850
:10467000030020F470704030A1F803000846C078B1
:1046800020F03800C8700020087001204870052014
:1046900088700846807C20F00700801C88740846DB
:1046A000408A20F47070403048820846807C20F0B8
:1046B00038018648817400208449C87301218348E9
:1046C00001740621417480480068012853D140F2EA
:1046D00081117E48008961F38C007C49088140F299
:1046E0002B217A48B0F8090061F34F107749A1F8FF
:1046F000090040F217217548B0F80D0061F34F1022
:104700007249A1F80D004FF4C8717048808961F3B7
:104710008C006E4988810846007920F03C001430F6
:1047200008714FF4E1716948B0F8170061F38C002B
:104730006649A1F8170040F217216448008B61F325
:104740004F106249088340F22B216048808B61F34F
:104750004F105E49888340F2D1115C48B0F81B00CD
:1047600061F38C005949A1F81B000846C07C20F079
:104770003C001430C87454480068E0BB4FF4C87162
:104780005248008961F38C005049088140F217219A
:104790004E48B0F8090061F34F104C49A1F80900E8
:1047A00040F217214948B0F80D0061F34F10474916
:1047B000A1F80D004FF4D2714448808961F38C0058
:1047C000424988810846007920F03C001430087185
:1047D0004FF4D7713D48B0F8170061F38C003B49A6
:1047E000A1F8170040F217213848008B61F34F10F1
:1047F0003649088300E017E040F217213348808BE8
:1048000061F34F10314988834FF4E1712F48B0F8BC
:104810001B0061F38C002D49A1F81B000846C07CE9
:1048200020F03C001430C8742848B0F807006FF33B
:104830000900401D2549A1F807000846C08A6FF30A
:104840000900401DC88269221A480FF068FD1A4805
:10485000A5236F221749891F009040F20130FDF710
:104860002EF987E210201349891F08700120487033
:10487000124890F839008870104890F839000012FA
:10488000C8700F48007808710D4800880012487100
:104890000F48C07820F00700801C0D49C8700846FA
:1048A000B0F8030020F470704030A1F8030011E06C
:1048B00057550020FB4E0020934E0020D545002088
:1048C000B6000020E2510020100000208554002096
:1048D000C35200200846C07820F038003830C87035
:1048E000002008700120487007208870F021FE48E1
:1048F000008961F38C00FC49088140F2C621FA4826
:10490000B0F8090061F34F10F749A1F80900084613
:10491000B0F807006FF30900801CA1F807000F2111
:10492000F148808861F38E10EF4988800821EE48B5
:10493000B0F8050061F3CF10EB49A1F80500EB4892
:104940000068012813D10846007920F03C000830A7
:1049500008714420C8734521E3480174542141740F
:10496000452181744321C1745421017517E0DE484B
:10497000007920F03C001430DB4908715520C873E1
:104980004E21D94801744421417445218174542138
:10499000C1744521017543214175542181752D2232
:1049A000D149D3480FF0BBFCD248A5233322D049CC
:1049B000891F009040F20130FDF781F8DAE1042010
:1049C000CB49891F087001204870CB4890F8390006
:1049D0008870C94890F839000012C870C74800783C
:1049E0000871C648008800124871C548C07820F098
:1049F0000700801CC249C8700846B0F8030020F4C4
:104A000070704030A1F803000846C07820F03800EC
:104A10001030C8700020087001204870092088708C
:104A2000B2480068012827D1DC21B548008961F32C
:104A30008C00B349088140F2B921B148B0F80900AF
:104A400061F34F10AE49A1F809000846B0F80B0019
:104A50006FF30900C01CA1F80B000846007920F094
:104A60003C00083008710846B0F807006FF30900F1
:104A70000930A1F8070026E0DC21A148008961F394
:104A80008C009F49088140F2B9219D48B0F8090087
:104A900061F34F109A49A1F809000846B0F80B00DD
:104AA0006FF30900C01CA1F80B000846007920F044
:104AB0003C00143008710846B0F807006FF3090095
:104AC0000930A1F8070069228D4989480FF027FCB9
:104AD0008848A5236F228649891F009040F2013043
:104AE000FCF7EDFF46E110208149891F0870012085
:104AF0004870814890F8390088707F4890F83900F4
:104B00000012C8707D48007808717C480088001247
:104B100048717C48C07820F00700801C7949C87033
:104B20000846B0F8030020F470704030A1F803008C
:104B30000846C07820F038003830C870002008706F
:104B400001204870082088704FF4CD716D480089AD
:104B500061F38C006B49088140F2C6216948B0F8C6
:104B6000090061F34F106749A1F809000846B0F841
:104B700007006FF30900801CA1F8070014216148A9
:104B8000808861F38E105F49888004215D48B0F809
:104B9000050061F3CF105B49A1F8050008460079D4
:104BA00020F03C0014300871574890ED000B53EC96
:104BB000102BAFF6383153480F300FF0B9FF2D22CC
:104BC00050494B480FF0ABFB4A48A52333224849D4
:104BD000891F009040F20130FCF771FFCAE0042009
:104BE0004349891F087001204870434890F83900F4
:104BF0008870414890F839000012C8703F4800782A
:104C000008713E480088001248714048C07820F082
:104C10000700801C3D49C8700846B0F8030020F426
:104C200070704030A1F803000846C07820F03800CA
:104C30001030C870002008704870012088704FF450
:104C400070713248008961F38C00304908814FF45B
:104C5000E1712E48B0F8090061F34F102B49A1F81B
:104C600009000846B0F80B006FF30900C01CA1F85A
:104C70000B000846B0F807006FF30900401DA1F8CB
:104C800007000846807C20F00700801C88740846D6
:104C9000408A20F47070403048820846807C20F0C2
:104CA0003800103088740020C87300211748017440
:104CB000022141744FF47071B0F8170061F38C0059
:104CC0001249A1F817004FF4D2711048008B61F31C
:104CD0004F100E4908830846408B6FF30900C01C33
:104CE00048830846C08A13E0C3520020BC0000205D
:104CF000FB4E0020934E0020D5450020B60000203A
:104D00001C540020F0520020D0000020B35300209B
:104D10006FF30900401DC8822748007802280CD193
:104D20000846007920F03C00001D08710846C07C50
:104D300020F03C00001DC8740BE02048007920F0F2
:104D40003C001E4908710846C07C20F03C011B480D
:104D5000C174692219491A480FF0E1FA1948A523CC
:104D60006F221749891F009040F20130FCF7A7FE1F
:104D700000E000BF00BF14480078401C12490870D2
:104D800012480078401C114908700F480078172815
:104D900002DD0D200C4908700D4800680D490860BF
:104DA00002B0BDEC048B10BD0421054A921F917125
:104DB0001146487370470000F4010020B3530020EF
:104DC000FB4E0020934E0020B0000020B1000020D8
:104DD000BC000020C4000020F9A07047FA487047CA
:104DE00070B505460C46204612F0B8F870BD70B597
:104DF00005460C46204612F089F870BD2DE9F05F9B
:104E00000546884692462C46A06800EB0809606873
:104E1000484525D2D4F814B060684600BBF1000FB5
:104E200001D1DFF8A8B300E076004E45FCD331464F
:104E3000584602F035FE07460FB9BDE8F09F3846E8
:104E4000D4E902210FF06BFA206920B15846E168DD
:104E500002F02EFE01E001202061E760666000BFE5
:104E6000D4E902218818424651460FF058FAC4F896
:104E7000089000BFE1E70146102901D201207047E8
:104E8000B1F5006F01D20220F9E7B1F5802F01D210
:104E90000320F4E7B1F1007F01D20420EFE7052001
:104EA000EDE70146802901D201207047B1F5804F1E
:104EB00001D20220F9E7B1F5001F01D20320F4E787
:104EC000B1F1805F01D20420EFE70520EDE7014654
:104ED000002901DA0A207047802901DA0120FAE767
:104EE000B1F5804F01DA0220F5E7B1F5001F01DAD4
:104EF0000320F0E7B1F1805F01DA0420EBE7052041
:104F0000E9E770B505460E4634461CB92846FFF75A
:104F1000C8FF70BD082C01D20520FAE7B4F5806FF8
:104F200001D20620F5E7B4F5003F01D20720F0E7F3
:104F3000B4F1807F01D20820EBE7B4F1004F01D239
:104F40000920E6E70A20E4E72DE9F05F80460D46F8
:104F500092460026DAF8007015B90020BDE8F09FEF
:104F6000D8F80400FFF787FF814698F81C0000F08E
:104F7000010008B909FB05F998F80900112814D2B5
:104F8000DFE800F0150948392B4E20493A4F4A50C6
:104F9000541456667300002405E057F8240002F00C
:104FA000CDFD0644641CAC42F7D36EE000BF002484
:104FB00005E057F82400FFF78AFF0644641CAC4262
:104FC000F7D362E0002405E057F82400FFF769FFFB
:104FD0000644641CAC42F7D357E0002408E007EB1A
:104FE000C400D0E90021104602F0B1FD0644641C63
:104FF000AC42F4D349E000BF002408E007EBC40151
:10500000D1E900211046FFF77CFF0644641CAC4246
:10501000F4D33AE000BF00BF042000FB056634E093
:1050200000BF00BF082000FB05662EE02E442CE0E8
:1050300000240AE057F824000FF0B5F983465846DB
:10504000FFF72FFF58440644641CAC42F2D31CE027
:10505000002407E057F834B05846FFF722FF5844C1
:105060000644641CAC42F5D30FE000240AE057F874
:10507000240000F0D6F883465846FFF712FF584444
:105080000644641CAC42F2D300BF00BF98F81C0079
:1050900000F0010018B13046FFF703FF814409EB2F
:1050A00006005BE770B505460C460026687A1128B5
:1050B00060D2DFE800F01211141D1C1F13151E2012
:1050C0002D3909104D575800206808B9012000E01B
:1050D0000020064650E000BF00BF00BF00BF00BF79
:1050E000206808B9012000E00020064644E000BF27
:1050F00000BF00BF00BF00210846D4E9003259407C
:105100005040014301D1012000E00020064633E079
:1051100094ED000AB5EEC00AF1EE10FA01D10120BB
:1051200000E00020064627E094ED001BB0EE410AA7
:10513000F0EE610A53EC102B9FED251B51EC110B87
:105140000FF038FB01D1012000E00020064613E0FB
:10515000206810B12068007808B9012000E0002024
:10516000064609E000BF206808B9012000E00020E1
:10517000064601E0012600BF00BF304670BD70B595
:1051800004460D4629462046FFF78CFF08B1002053
:1051900070BD2946204600F0B0F8F9E770B5044626
:1051A0000E461546607A102802D0607A0E2814D177
:1051B000296811B1A06988420ED1002070BD00009D
:1051C000312E332E33000000FB4D0F00E000002095
:1051D000000000000000000002E00EB90020EDE732
:1051E0002946204600F089F8E8E770B504460E46E7
:1051F00015466068B04201D0002070BD607A10286A
:1052000002D0607A0E2807D1296811B1A0698842BE
:1052100001D10020F1E700BF2946204600F06DF8DB
:10522000EBE72DE9F0470546002728680068FA49B2
:10523000884200D105E040F2CB22F8A1FC480EF0F4
:105240007EFC002643E02868C06906EB460101EBBE
:10525000C60100EB8104206900EB0509E06800EB62
:105260000508207A28B94946204600F046F8074448
:105270002CE0207A012802D0207A03280BD1207F4D
:1052800000F0040038B14A462046D8F80010FFF775
:10529000ACFF07441AE0207A012807D14A4620468D
:1052A000D8F80010FFF77AFF07440FE0207A0328B0
:1052B00005D149462046FFF762FF074406E04A460B
:1052C0002046D8F80010FFF73FFE0744761C2868F8
:1052D0008069B042B7D8002609E0A86800EB061440
:1052E0002068FFF7C8FDA16808440744761C686879
:1052F000B042F2D83846BDE8F0872DE9F0410646C5
:105300000D467068FFF7B7FD0446707A11285BD22E
:10531000DFE800F0100929211A2C152A222D323439
:10532000300F37454C00286802F008FC2044BDE8E7
:10533000F08100BF2868FFF7CAFD2044F7E728681E
:10534000FFF7AFFD2044F2E7D5E90021104602F057
:10535000FEFB2044EBE700BFD5E900211046FFF734
:10536000D0FD2044E3E700BF201DE0E700BF04F1CB
:105370000800DCE7601CDAE7201DD8E704F108002C
:10538000D5E72F681FB138460FF00DF800E0002078
:1053900080464046FFF785FD20444044C7E72F681C
:1053A0003846FFF77EFD20443844C0E72F681FB120
:1053B0003846FFF736FF00E0002080464046FFF702
:1053C00070FD20444044B2E740F2CD1293A199A071
:1053D0000EF0B5FB30B502460020802A21D3D3B2AF
:1053E00043F080050346401CCD54D209802A18D3CF
:1053F000D3B243F080050346401CCD54D209802A25
:105400000FD3D3B243F080050346401CCD54D209DC
:10541000802A06D3D3B243F080050346401CCD5406
:10542000D2090346401CCA5430BD70B505460C462F
:10543000002D1CDAE8B240F080002070802040EAA5
:10544000E5106070802040EAA530A070802040EA1E
:105450006550E070802040EA25702071FF202072A6
:10546000E071A0716071012060720A2070BD214658
:105470002846FFF7AFFFF9E72DE9F04707468846D2
:10548000144645463E462DB921463046FFF7A2FF59
:10549000BDE8F087F0B240F080002070802040EA44
:1054A000D6106070802040EA9630A070802040EADC
:1054B0005650E070082D05D2280140EA1670207180
:1054C0000520E5E76807400E40EA167040F08000CE
:1054D0002071ED084FF0050907E0E8B240F08002C6
:1054E000484609F101092254ED09802DF5D24846BC
:1054F00009F1010925544846CAE72DE9F04104465F
:105500000D46B4F1005F05D2E0002946FFF762FFC7
:10551000BDE8F0810020C00040EA5471E6002A4650
:105520003046FFF7A9FFF3E770B504460D4629465C
:105530002068FFF7E2FF06462878217908432870A3
:10554000A819D4E902210EF0EAFEA068304470BD2B
:105550002DE9F05F81460E4614462146D9F8040035
:10556000FFF7CBFF054699F80900112853D2DFE871
:1055700000F01309382D23441B392E453A46631297
:105580006B8BA100207820706119306802F0ECFA72
:105590002844BDE8F09F00BF207820706119306872
:1055A000FFF743FF2844F4E7207820706119306842
:1055B000FFF710FF2844ECE7207820706219D6E945
:1055C0000071384602F0DBFA2844E2E700BF207899
:1055D00020706219D6E900713846FFF74DFF284464
:1055E000D7E700BF00BF207840F0050020706119A8
:1055F000306802F0D3FA2844CBE700BF00BF207820
:1056000040F0010020706219D6E90071384602F0BE
:10561000C9FA2844BDE757E0F9EEAA284253505C86
:1056200070726F746F6275662D632E6300000000E8
:1056300030850F0830000000207820706119306834
:1056400002F0B7FA2844A4E7207840F00200207066
:1056500004EB0508376827B9002088F8000001200E
:1056600010E038460EF09FFE824641465046FFF756
:10567000B1FE834608EB0B00524639460EF04FFE52
:105680000BEB0A00284484E7207840F002002070E9
:105690006719D6F8008039464046FFF79BFE8246E0
:1056A00007EB0A00424671680EF039FE0AEB08006B
:1056B00028446EE7207840F00200207061193068BD
:1056C00000F01BFA284464E740F27142AFF2B401E3
:1056D000AFF2A0000EF033FA10B50446112C20D220
:1056E000DFE804F00A090C1211140B0D13150E1645
:1056F000180F1A1D1B0000BF00BF00BF00BF00BF76
:1057000000BF042010BD00BF00BF00BF00BF00BF2E
:105710000820F7E70420F5E700BF0420F2E708209F
:10572000F0E74FF49E62AFF20C11AFF2F8000EF00A
:1057300006FA70B505460E461446E2003146284684
:105740000EF0EDFD70BD70B505460E461446A20084
:10575000314628460EF0E3FD70BD0146022903D014
:10576000072901D00A2901D104207047052903D057
:10577000092901D00B2901D10820F6E70120F4E71F
:105780002DE9FF4F87B082460D461F460998D0F895
:1057900000809AF81C0000F0010000286FD01DB9AD
:1057A00000200BB0BDE8F08F3946DAF80400FFF7AF
:1057B000A4FE8146387840F002003870CDF8189089
:1057C0009AF80900FFF7C9FF684305900598FFF7AD
:1057D00068FB8346D94407EB09069AF809000E28AE
:1057E00070D2DFE800F01C2B075C3A114D085D1207
:1057F0000913701B00BF00BF2A4641463046FFF721
:10580000A2FF06EB850675E000BF00BF2A464146B1
:105810003046FFF78EFF06EBC5066BE000BFCDF804
:105820000880002407E0029951F824003146FFF770
:10583000FCFD0644641CAC42F5D35BE0CDF8088067
:10584000002407E0029951F82400314602F08CF957
:105850000644641CAC42F5D34CE0CDF8088000242B
:105860000AE0029800EBC40103C93246CDE9000109
:1058700002F085F90644641CAC42F2D33AE064E0DD
:10588000CDF80880002407E0029951F82400314641
:10589000FFF7A0FD0644641CAC42F5D32AE000BF2C
:1058A000CDF8088000240AE0029800EBC40103C987
:1058B0003246CDE90001FFF7DFFD0644641CAC422F
:1058C000F2D317E00EE0CDF80880002407E002993B
:1058D00051F82400314602F06CF90644641CAC42D5
:1058E000F5D307E040F29A52AFF2D021AFF2BC20DC
:1058F0000EF025F900BF07EB0900301A0490049858
:10590000FFF7CFFA03900398834516D00BF10101FE
:105910000398884200D106E04FF4B462AFF204313C
:10592000FBA00EF00CF907EB090107EB0902501C74
:10593000049A0EF0F4FC09F101090698391804984C
:10594000FFF748FD049848442BE700269AF8090021
:10595000FFF7C2FE8146002407E0BA1941465046CF
:10596000FFF7F6FD0644C844641CAC42F5D330464C
:1059700017E770B504460D46164629462046FFF740
:1059800091FB08B1002070BD324629462046FFF742
:10599000DFFDF8E72DE9F04104460E4615461F46A7
:1059A000607A102802D0607A0E2808D1296811B1D7
:1059B000A069884202D10020BDE8F08102E00EB962
:1059C0000020F9E73A4629462046FFF7C1FDF3E7F4
:1059D0002DE9F04104460E4615461F466068B04268
:1059E00002D00020BDE8F081607A102802D0607AF1
:1059F0000E2807D1296811B1A069884201D1002081
:105A0000F0E700BF3A4629462046FFF7A1FDE9E747
:105A10002DE9F04706460F46002430680068C74964
:105A2000884200D106E040F2C652AFF21041C448AD
:105A30000EF085F84FF0000849E03068C06908EBC7
:105A4000480101EBC80100EB8105286900EB060A5B
:105A5000E86800EB0609287A30B93A195146284619
:105A6000FFF776FD044430E0287A012802D0287A36
:105A700003280CD1287F00F0040040B13B195246A6
:105A80002846D9F80010FFF7A3FF04441DE0287A48
:105A9000012808D13B1952462846D9F80010FFF7D3
:105AA00079FF044411E0287A032806D13A195146B7
:105AB0002846FFF75EFF044407E03B19524628469C
:105AC000D9F80010FFF75CFE044408F101083068C3
:105AD00080694045B1D84FF0000808E0B26802EB99
