:020000040800F2
:10000000D03400200D7A0008A9010008AB010008D7
:10001000AF010008B3010008B701000800000000AC
:10002000000000000000000000000000BB0100080C
:10003000BD01000800000000BF010008C101000868
:10004000277A0008277A0008277A0008277A00080C
:10005000277A0008277A0008277A0008277A0008FC
:10006000277A0008277A0008277A0008277A0008EC
:10007000277A0008277A0008277A00080F4C000822
:10008000277A0008277A0008277A00081B4300080F
:1000900031430008277A0008277A0008277A0008E9
:1000A000277A0008277A0008277A0008277A0008AC
:1000B000277A0008277A0008277A0008277A00089C
:1000C000277A0008277A0008277A0008277A00088C
:1000D000277A0008D3450008BD470008AB4900084F
:1000E000277A0008277A0008277A0008277A00086C
:1000F000277A0008277A0008277A0008277A00085C
:10010000277A0008277A0008277A0008277A00084B
:10011000A14B0008B34E000883510008277A00085D
:10012000277A0008277A0008277A0008277A00082B
:10013000277A0008277A0008277A00085144000827
:1001400067440008277A0008277A0008277A000801
:10015000277A0008277A0008277A00088B500008C1
:10016000277A0008277A0008277A0008277A0008EB
:10017000277A0008277A0008277A0008277A0008DB
:10018000277A0008277A0008DFF80CD008F000F87A
:10019000004800479D010008D034002000F01AF903
:1001A00000F063F900BFFEE7704700BFFEE700BF45
:1001B000FEE700BFFEE700BFFEE7704770477047ED
:1001C000704700000CB50020019000907648006850
:1001D00040F480307449086000BF7348006800F440
:1001E000003000900198401C0190009818B90198C7
:1001F000B0F5A06FF1D16C48006800F4003010B188
:100200000120009001E0002000900098012846D1D4
:1002100065484030006840F08050634940310860D4
:100220006248006840F44040604908605E48083019
:1002300000685D49083108600846006840F40040E5
:1002400008600846006840F4A05008605848091F3C
:100250000860081F006840F08070091F086000BF38
:100260005148006800F000700028F9D040F2057095
:10027000504908604C480830006820F003004A49A3
:10028000083108600846006840F00200086000BFBE
:1002900045480830006800F00C000828F8D10CBD73
:1002A00010B54548006840F47000434908603E4876
:1002B000006840F001003C49086000203A490831DC
:1002C0000860394800683D490840374908603C48A3
:1002D000091D0860081F006820F48020091F0860BD
:1002E000002031490C310860FFF76CFF4FF00060CF
:1002F00031498039086010BD70B50020002202230A
:1003000000240221284D08352D6805F00C0020B18D
:10031000042806D0082834D107E02A4D2A4E35603B
:1003200033E02A4D284E35602FE01F4D2D1D2D68DE
:10033000C5F380541C4D2D1D2D6805F03F0154B1AF
:10034000224DB5FBF1F5184E361D3668C6F38816FA
:1003500005FB06F209E01B4DB5FBF1F5124E361D0B
:100360003668C6F3881605FB06F20F4D2D1D2D6865
:10037000C5F301456D1C6B00B2FBF3F5124E356001
:1003800003E0104D104E356000BF00BF064D08352C
:100390002D68C5F303150E4E705D0B4D2D68C540DD
:1003A000094E356070BD000000380240007000400A
:1003B00008544007003C024088ED00E0FFFFF6FED5
:1003C000103000240024F4000000002000127A0005
:1003D0000400002010B54FF4A06004F0E7FE1348BD
:1003E00004F062F84FF4E13004F053F94FF4612067
:1003F00004F038FA4FF4E13004F0FBFA4FF4E13046
:1004000004F039FC4FF4E13004F0B7FD002303227F
:100410000821104603F0FAFE0023032208211046AB
:1004200003F0A1FF04F07CFE10BD0000A0860100D7
:1004300010B511480068401C0F4908600846006864
:100440000A2190FBF1F201FB120008B902F045FA13
:100450000949086800EBD0714910A0EB410119B9B6
:1004600000F089FC02F03BFD10BD10B500F006F86D
:1004700001F07CF810BD00001400002010B540F21F
:100480005471FE4807F01CFBBAEE041ADFEDFC0ABB
:10049000BBEE040A0A234FF47A720321F748803036
:1004A00002F05FFC9FEDF71ADFEDF70AB2EE080AE3
:1004B0006423DA000321F54802F053FCB2EE041A7B
:1004C000DFEDF30AB2EE0A0A142340F6B832032134
:1004D000EA48343002F045FC9FEDEB1AF6EE000AD4
:1004E000B2EE080A32234FF4FA620321E7484C388F
:1004F00002F037FC9FEDE71ADFEDE70AB1EE040AE0
:1005000014234FF4C8720321E048983002F029FC0C
:10051000B0EE001ADFEDE10AB0EE000A32234FF42C
:100520007A720321DE4802F01CFCB2EE041ADFED01
:10053000D80AB2EE0A0A142340F6B8320321D3488F
:100540004C3002F00EFC9FEDD01AF6EE000AB2EE2F
:10055000080A32234FF4FA620321D1484C3802F0E2
:1005600000FCBAEE041ADFEDC60ABBEE040A0A2349
:100570004FF47A720321CB4802F0F3FB9FEDC11ACE
:10058000DFEDC10AB2EE080A6423DA000321C54890
:100590004C3002F0E6FBB2EE041ADFEDBD0AB2EE1B
:1005A0000A0A142340F6B8320321B8484C3002F04E
:1005B000D8FB9FEDB51AF6EE000AB2EE080A322318
:1005C0004FF4FA620321B6484C3802F0CAFBB0EE91
:1005D000001ADFEDB10AB7EE080A6423C82203212E
:1005E000AF48983002F0BDFBB0EE001ADFEDAB0A69
:1005F000B0EE000A32234FF4FA720321AA4802F047
:10060000B0FBB0EE001ADFEDA90AB3EE010A142325
:1006100040F6B8320321A2484C3002F0A2FB9FED15
:10062000A41ADFEDA20AB3EE030A32234FF4FA62F2
:1006300003219D484C3802F094FB10BD10B52DED00
:10064000028B8E4840780D281DD09A4890ED101BE3
:10065000B0EE410AF0EE610A51EC100B81F000415E
:1006600041EC180B07F040FC8449C862924890EDB9
:10067000101BB0EE410AF0EE610A51EC100B07F0CE
:1006800033FC7E4988628C4890ED101BB0EE410A25
:10069000F0EE610A51EC100B07F026FC7749086177
:1006A000844890ED101BB0EE410AF0EE610A51EC67
:1006B000100B81F0004141EC180B07F015FC6F495D
:1006C000C8607E4890ED050AB1EE400A084680ED0C
:1006D000080A7A4890ED040A084680ED070A78482F
:1006E000407D00287DD07748807BA0B3734890ED93
:1006F000020AB1EE400A084680ED040A6F4890ED08
:10070000010A084680ED030A6C4890ED050AB1EE37
:10071000400A084680ED080A684890ED040A084639
:1007200080ED070A674890ED010A084680ED020A4D
:10073000644890ED000A084680ED010A90ED020A37
:10074000FBEE090AB4EEE00AF1EE10FA04D8BBEEB3
:10075000090A80ED020A0DE0484890ED020AF3EE26
:100760000E0AB4EEE00AF1EE10FA03DBB3EE0E0A65
:1007700080ED020A534890ED062AF0EE421A3F48F7
:1007800090ED072AB0EE421A90ED032AF0EE420AED
:1007900090ED012AB0EE420A00F5BB6100F2F44090
:1007A00002F01DFBFFEE000A20EE200ABDEEC00A9B
:1007B00010EE100A01B231488184D0ED081AB0EE73
:1007C000611AD0ED041AF0EE610AD0ED021AB0EE13
:1007D000610ADFED2D1A324900F5D87002F0FFFAF8
:1007E00000E00BE0F7EE000A20EE200ABDEEC00AA2
:1007F00010EE100A01B22148C1846CE01F4890ED50
:100800000A0A80ED020A90ED0B0A80ED010AD0ED94
:10081000071AB0EE611AD0ED031AF0EE610AD0EDBE
:10082000011AB0EE610ADFED181A00F54B7100F500
:10083000257002F0D4FAFFEE000A20EE200ABDEE89
:10084000C00A10EE100A01B20C488184D0ED081ADB
:10085000B0EE611AD0ED041AF0EE610AD0ED021A82
:10086000B0EE610ADFED081A0F4900F5387002F0AA
:10087000B6FAF7EE000A20EE200A25E07401002007
:10088000CDCCCCBD00004842000000008C0200200E
:100890009A99193E000020420AD7A33C0AD7233C6C
:1008A000BC030020B4060020EC040020CDCCCC3DDD
:1008B0003333F33FD823002088230020801F0020FB
:1008C000A4280020B8270020BDEEC00A10EE100AB0
:1008D00001B2FE48C184BDEC028B10BD10B5FB48CF
:1008E0004078032812D0FA4890ED010AF74880EDCD
:1008F0000B0AF84890ED101BB0EE410AF0EE610AC9
:1009000051EC100B07F0F0FAF0498862F14890EDD5
:10091000101BB0EE410AF0EE610A51EC100B07F02B
:10092000E3FAEA490861EA4890ED010A084680EDD9
:10093000030AE74890ED050AB1EE400A084680ED4B
:10094000080AE34890ED040A084680ED070AE248E9
:10095000407D00287ED0E148807BA0B3DC4890ED4C
:10096000020AB1EE400A084680ED040AD84890ED2C
:10097000010A084680ED030AD54890ED050AB1EE5C
:10098000400A084680ED080AD14890ED040A08465E
:1009900080ED070AD14890ED010A084680ED020A71
:1009A000CE4890ED000A084680ED010A90ED020A5B
:1009B000FBEE090AB4EEE00AF1EE10FA04D8BBEE41
:1009C000090A80ED020A0DE0C04890ED020AF3EE3C
:1009D0000E0AB4EEE00AF1EE10FA03DBB3EE0E0AF3
:1009E00080ED020ABD4890ED062AF0EE421AB748A3
:1009F00090ED072AB0EE421A90ED032AF0EE420A7B
:100A000090ED012AB0EE420A00F5BB6100F2F4401D
:100A100002F0E5F9FFEE000A20EE200ABDEEC00A62
:100A200010EE100A01B2A9488184D0ED081AB0EE88
:100A3000611AD0ED041AF0EE610AD0ED021AB0EEA0
:100A4000610A5FED6F1A00F5127100F5D87002F0BF
:100A5000C6F900E00BE0F7EE000A20EE200ABDEE3A
:100A6000C00A10EE100A01B29848C18446E09748C7
:100A700090ED0A0A80ED020A90ED0B0A80ED010A62
:100A8000D0ED071AB0EE611AD0ED031AF0EE610A4C
:100A9000D0ED011AB0EE610A5FED851A00F5FE7126
:100AA00000F5B27002F09BF9FFEE000A20EE200A7A
:100AB000BDEEC00A10EE100A01B284488184D0ED68
:100AC000081AB0EE611AD0ED041AF0EE610AD0ED0A
:100AD000021AB0EE610A5FED941A00F5127100F58A
:100AE000D87002F07CF9F7EE000A20EE200ABDEE85
:100AF000C00A10EE100A01B27448C18410BD10B5CE
:100B00002DED048B0020764908707649087000BFEF
:100B10001FEDA30A6D4880ED020A6D4890ED020AB0
:100B2000B1EE400A694880ED040A1FEDA90A80ED84
:100B3000010A6D4890ED101BB0EE410AF0EE610A1B
:100B400051EC100B81F0004107F0CEF95F49C8600D
:100B50005F4890ED040A084680ED070A5C4890ED76
:100B6000050AB1EE400A084680ED080A90ED030A36
:100B7000DFED5E0A80EE201ABDEEC10A10EE104ACB
:100B80004FF4B47104FB01F000EE100AB8EEC00A95
:100B90004E4880ED010A90ED010AD0ED030A30EED7
:100BA000600ADFED530AB4EEE00AF1EE10FA08DB5A
:100BB00090ED010ADFED4D0A30EE600A80ED010A8A
:100BC00015E0424890ED010AD0ED030A30EE600ACC
:100BD000DFED480AB4EEE00AF1EE10FA07D290ED2C
:100BE000010ADFED420A30EE200A80ED010A3748A3
:100BF000D0ED071AB0EE611AD0ED031AF0EE610ADB
:100C0000D0ED011AB0EE610A5FEDE11A00F1CC01FE
:100C1000343002F0E4F8FFEE000A20EE200ABDEEC8
:100C2000C00A10EE100A01B228488184D0ED081ADB
:100C3000B0EE611AD0ED041AF0EE610AD0ED021A9E
:100C4000B0EE610A5FEDF01A00F58C71803002F0B1
:100C5000C6F8F7EE000A20EE200ABDEEC00A10EE3C
:100C6000100A01B21948C18490ED020AD0ED040ABD
:100C700030EE600A10EE101A084607F0F2F841EC68
:100C8000190BB0EE490AF0EE690A07F079FBB0EEF5
:100C9000408AF0EE608A9FED180B53EC102B51EC5C
:100CA000180B07F0F1F863D8084890ED010AD0ED71
:100CB000030A30EE600A10EE101A084607F0D1F869
:100CC00041EC190BB0EE490A1AE000007401002053
:100CD000801F002088230020A4280020B82700209F
:100CE0004C0000204D000020D82300200000B44319
:100CF00000003543000033C3000000000000104036
:100D0000F0EE690A07F03CFBB0EE408AF0EE608A34
:100D10009FED3B0B53EC102B51EC180B07F0B4F884
:100D200026D80120384981F83000384890ED101B52
:100D3000B0EE410AF0EE610A51EC100B07F0D4F866
:100D400033490860084690ED000A3248D0ED000AA9
:100D500030EE200A304880ED000A084690ED000A87
:100D60002E48D0ED000A30EE200A2D4880ED000A12
:100D7000BDEC048B10BD10B52348007830B10128BC
:100D80000DD003280ED00D2812D10EE000211E48F0
:100D90008184C18400201C4981F8300009E0FFF7FC
:100DA000AEFE06E0FFF79AFD03E0FFF747FC00E028
:100DB00000BF00BF144890ED020A1948D0ED000AA8
:100DC000B4EEE00AF1EE10FA05D890ED000A0E48F4
:100DD00080ED020A0FE00C4890ED020A0E48D0EDBB
:100DE000000AB4EEE00AF1EE10FA04DB90ED000A1E
:100DF000054880ED020A044800780349487010BD98
:100E0000000000000000F83F74010020882300204B
:100E100020000020280000201C00002024000020CA
:100E20001800002010B52DED048BF9480078F94921
:100E30000870F948807EF649087008460078F54940
:100E40000978884206D00020F44908704870F449B7
:100E500008734873F048807E012804D002287DD0B2
:100E600003287CD1CDE0ED480078012829D0EA485C
:100E7000B0F90200A0F5806000EE100AB8EEC00ADA
:100E8000F7EE080A20EE200ABDEEC00A10EE100AA6
:100E900000B2E349A1F80F00DF48B0F90000A0F567
:100EA000806000EE100AB8EEC00AF7EE080A20EEE5
:100EB000200ABDEEC00A10EE100A01B2D848A0F810
:100EC0001110D6480078032844D1D44890ED0A0A7E
:100ED000D148B0F90600A0F5806000EE900AF8EE67
:100EE000E00A9FEDD01A00EE810ACC4880ED0A0A94
:100EF00090ED0B0AC848B0F90400A0F5806000EE40
:100F0000900AF8EEE00A9FEDC81A00EE810AC34885
:100F100080ED0B0A90ED0A0AC448D0ED000AB4EE49
:100F2000E00AF1EE10FA05D890ED000ABB4880ED1A
:100F30000A0A0FE0B94890ED0A0ABD48D0ED000A50
:100F4000B4EEE00AF1EE10FA04DB90ED000AB348CB
:100F500080ED0A0AB048807F50B101E0D4E2D9E2C6
:100F60000720AF4908737821AD48A0F8131006E0B8
:100F70000021AB48A0F813100320A9490873A74823
:100F80000078012807D0A54800780C2803D0A34892
:100F900000780B2803D10120A149087306E0A0487E
:100FA000007B072802D003209D4908739B480078E6
:100FB000012809D09848807E022805D097484078BB
:100FC00010B90320954908709448407840B9934877
:100FD000007828B1012091490870002081F8300084
:100FE0008E480078032803D101208D4981F8440000
:100FF0008A4890F83000012802D103208749087000
:1010000089E28648007801287ED0834890F82C0039
:1010100038B10320824988734FF4C860854908803D
:1010200006E002207E49887340F22620814908802C
:10103000794890F8280030B17E48B0F9000078492E
:10104000A1F80F000FE0744890F82A0038B17948F1
:101050000088404200B27249A1F80F0003E000206E
:101060006F49A1F80F006C4890F82900B8B16C489E
:10107000807B03280BD16F49B1F90010484200EB87
:10108000D07149100AB26649A1F8112024E06948DC
:101090000088404201B26248A0F811101CE05E488E
:1010A00090F82B00A0B15E48807B032809D16149EC
:1010B000B1F9000000EBD0714910594AA2F81110A3
:1010C0000AE05C48B0F900105548A0F8111003E0A0
:1010D00000215348A0F811104F4890F83E0018B175
:1010E00007204F49087302E003204D4908734B481D
:1010F000007803286ED14848407DE0BB4648B0F9EF
:101100000C0010F1640F00E0B8E104DC6FF0630044
:101110004149888107E04048B0F90C00642802DBAF
:1011200064203D4988813C48B0F90E0010F1640FFD
:1011300004DC6FF063013848C18107E03648B0F93C
:101140000E00642802DB64213348C181334890EDEE
:101150000B0A3148B0F90C0000EE900AF8EEE00AF4
:101160009FED351A00EE810A2C4880ED0B0A90EDB8
:101170000A0A294800E02DE0B0F90E0000EE900ABE
:10118000F8EEE00AB1EE001A00EEC10A234880ED45
:101190000A0A90ED0A0A2548D0ED000AB4EEE00AEA
:1011A000F1EE10FA05D890ED000A1C4880ED0A0A0D
:1011B00064E11A4890ED0A0A1D48D0ED000AB4EE29
:1011C000E00AF1EE10FAF3DB90ED000A134880ED2F
:1011D0000A0A53E1114800780D28E9D10E48407DF4
:1011E0000028E5D10C4890F8280080B11348007819
:1011F00068B1094890F82C0020B3084890ED0A0A1D
:10120000DFED0F0A30EE200A80ED0A0A23E025E028
:101210005A0000205B000020A42800207401002058
:1012200028090020CDCCCC3D6F12033C18000020D3
:101230001C0000205800002031082C3D5C000020DC
:1012400000004842B84890ED0A0AF2EE0E0A30EE6D
:10125000200A80ED0A0A0020B4490870B44890F8CA
:101260002A00E0B1B3480078C8B1B14890F82C002A
:1012700048B1AD4890ED0A0A5FED0F0A30EE600A02
:1012800080ED0A0A08E0A84890ED0A0AF2EE0E0A7C
:1012900030EE600A80ED0A0A0020A6490870A448D2
:1012A00090F82900B0B3A448007898B3A04890F80B
:1012B0002C00B0B19C4890ED0B0A10EE101A0846B5
:1012C00006F0CFFD41EC190B9FED9C0B53EC102B5E
:1012D00006F0B4FC41EC180B06F006FE9249C86219
:1012E00015E0914890ED0A0A10EE101A084606F033
:1012F000B8FD41EC190B9FED930B53EC102B06F04E
:101300009DFC41EC180B06F0EFFD87498862002038
:1013100089490870864890F82B00B0B38B48007854
:1013200098B3834890F82C00B0B17F4890ED0B0A39
:1013300010EE101A084606F094FD41EC190B9FEDD3
:101340007F0B53EC102B06F0D8FB41EC180B06F08A
:10135000CBFD7549C86215E0734890ED0A0A10EE9E
:10136000101A084606F07DFD41EC190B9FED750B38
:1013700053EC102B06F0C1FB41EC180B06F0B4FD4A
:10138000694988620020714908706848007828B966
:101390006F480068401C6E49086002E000206C49FC
:1013A00008606B480068142805D101205F49087067
:1013B0000020674908605F48007828B965480068E0
:1013C000401C6449086002E00020624908606148EE
:1013D0000068142805D101205649087000205D4995
:1013E00008605548007828B95B480068401C5A4995
:1013F000086002E000205849086057480068142837
:1014000005D101204C4908700020534908604F481D
:10141000007828B951480068401C5049086002E033
:1014200000204E4908604D480068142805D101206D
:10143000464908700020494908603B4890ED0A0A77
:101440004748D0ED000AB4EEE00AF1EE10FA05D8F4
:1014500090ED000A344880ED0A0A0FE0324890ED22
:101460000A0A4048D0ED000AB4EEE00AF1EE10FAA4
:1014700004DB90ED000A2C4880ED0A0A2A48007827
:10148000012803D0284800780D2803D101203649CF
:10149000087306E03448007B072802D00320324955
:1014A000087321480078012809D02148807E02284D
:1014B00005D01D48407810B903201B4908701A4810
:1014C000407840B91848007828B1012016490870C2
:1014D000002081F8300014480078032803D101204F
:1014E000214981F84400104890F8300001280AD1C1
:1014F0000F4890F83F0018B10D200B49087002E02A
:1015000003200949087006E00020074908701649C1
:10151000087300E000BF00BF1348007B1249487306
:10152000BDEC048B10BD0000740100205C000020A5
:10153000A4280020640000206C00002000000000AF
:101540000000E03F9A9999999999C93F7400002049
:10155000600000206800002070000020780000205B
:10156000180000201C0000202809002010B5A82128
:10157000FE4806F0A5FA0120FC49087300204873D4
:101580000864FB490870B1EE041ADFEDFA0AB2EE06
:10159000000A0A234FF4FA520321F74801F0E1FB55
:1015A000B2EE041ADFEDF30A9FEDF40A4FF4FA737A
:1015B00043F698220321F24801F0D3FBB1EE041A5E
:1015C000DFEDEC0AB2EE000A0A234FF4FA520321CF
:1015D000E9484C3001F0C5FBB1EE001ADFEDE50A39
:1015E0009FEDE80A4FF4FA7343F698220321E4488A
:1015F0004C3001F0B6FBB1EE001ADFEDDE0AB2EEC0
:10160000000A0A234FF4FA520321DB48983001F014
:10161000A8FBB2EE001AF6EE000A9FEDDB0A4FF4CB
:10162000FA7343F698220321D548983001F099FBCC
:10163000B1EE001ADFEDD50AB2EE020A0A234FF42A
:10164000FA520321CC48E43001F08BFBB2EE0E1AC3
:10165000DFEDC80A9FEDCC0A4FF4FA7343F69822E7
:101660000321C748E43001F07CFB002413E004EBC5
:10167000440101EB0411C64A02EB8100B3EE041AE7
:10168000DFEDC40A9FEDC40A64234FF47A520321AC
:1016900001F067FB641C042CE9DBB0EE081ADFEDF7
:1016A000BF0AB0EE000A1E234FF4E1720321BC48CA
:1016B00001F057FB10BDF0EE400A0020B949B1F827
:1016C0005120B1F85C10491F02EB4100002801DCF9
:1016D000002004E0B0F5AF7F01DB4FF4AF70B7EE50
:1016E000000AB14981ED000A00EE100AB8EEC00A06
:1016F000704700B52DED0A8B89B0B0EE409A0020FE
:1017000021E000EB400101EB0011A84A02EB81014E
:1017100091ED000A00EB400101EB001102EB8101A9
:10172000D1ED020A70EE200AA14931F9101000EE45
:10173000101AB8EEC00A20EE800A05A901EB80015C
:1017400081ED000A401C0428DBDB002046E000EBB2
:10175000400101EB00118E4A02EB810191ED090A73
:1017600000EB400101EB001102EB8101D1ED000A19
:10177000B1EE601A7D49A03131F9101000EE901AD7
:10178000F8EEE00A01EE200A00EB400101EB001147
:1017900002EB810191ED021A7449A03131F9101068
:1017A00000EE901AF8EEE00A01EE600A00EB40014C
:1017B00001EB001102EB8101D1ED020A00EB4001C7
:1017C00001EB001102EB810191ED061A00EEC10A56
:1017D00001A901EB800181ED000A401C0428B6DB61
:1017E0009DED050A20EE000ADDED060A9DED061AC4
:1017F00000EE810ADDED070A9DED071A00EE810A71
:10180000DDED080A9DED081A00EE810ADFED690A98
:1018100020EE208A9DED050ADDED010A20EE200A6A
:10182000DDED060A9DED021A00EE810ADDED070AE4
:101830009DED031A00EE810ADDED080A9DED041A04
:1018400000EE810ADFED5C0A20EE200ADDED050ADC
:101850009DED061A70EE810A9DED071A70EE810A61
:101860009DED081A70EE810A9FED541A01EE200AD0
:101870009DED051A3D48B0F9A00000EE900AF8EE83
:10188000E00A61EE200ADDED061A3848B0F9A20040
:1018900001EE100AB8EEC11A41EE810ADDED071A19
:1018A0003248B0F9A40001EE100AB8EEC11A41EEB8
:1018B000810ADDED081A2D48B0F9A60001EE100AE4
:1018C000B8EEC11A41EE810A9FED3D1AF0EE408A52
:1018D00041EE208A9DED010A20EE000ADDED020AAC
:1018E0009DED021A00EE810ADDED030A9DED031A5B
:1018F00000EE810ADDED040A9DED041A00EE810A76
:10190000DFED2C0A20EE200ADDED010A9DED021A22
:1019100070EE810A9DED031A70EE810A9DED041AA6
:1019200070EE810A9FED251A00EE810A9DED011AE5
:101930000E48B0F9A00000EE900AF8EEE00A61EE61
:10194000200ADDED021A0948B0F9A20001EE100AE2
:10195000B8EEC11A41EE810ADDED031A0348B0F971
:10196000A40001EE100AB8EEC11A2BE028090020ED
:1019700094000020CDCCCC3DBC1A00200000524386
:101980001C1D00200000344300004843CDCCCC3E59
:101990004C1E0020CDCC4C3E000048420000000010
:1019A000B0150020F0260020C40000208014002084
:1019B0000809002058DF2C3458DFAC346019C0B758
:1019C00062BEBC3741EE810ADDED041AFE48B0F973
:1019D000A60001EE100AB8EEC11A41EE810A1FED11
:1019E000081A01EE200ADFEDF90A30EE200A70EE47
:1019F000499A28EEA80AF1EE000A68EE200A00EEE5
:101A0000E90A10EE101A084606F02BFA41EC1C0BFE
:101A10009FEDEF0B53EC102B06F06FF841EC1B0B16
:101A2000B0EE4B0AF0EE6B0A06F0FEFDB0EE40AAF7
:101A3000F0EE60AA51EC1A0B06F056FA00EE100A0E
:101A4000F1EE680A70EE200AB0EE000A28EE001AE5
:101A500080EE810A09B0BDEC0A8B00BD10B52DEDFA
:101A60000A8BB0EE408A0024DB480078032831D18D
:101A700018EE100A06F0F5F941EC190B9FEDD70BA3
:101A800053EC102B06F018FA02D24FF4E17451E037
:101A900018EE100A06F0E5F941EC1C0B9FEDD10B96
:101AA00053EC102B06F0CAF841EC1B0B9FEDCF0B4B
:101AB00053EC102B06F03AF941EC1A0B9FEDCD0BCD
:101AC00053EC102B06F0C0F841EC190B06F0AAF904
:101AD00004462FE018EE100A06F0C3F941EC190B8A
:101AE0009FEDBE0B53EC102B06F0E6F901D2FA2461
:101AF00020E018EE100A06F0B4F941EC1C0B9FED43
:101B0000B90B53EC102B06F099F841EC1B0B9FED31
:101B1000B70B53EC102B06F009F941EC1A0B9FEDB3
:101B2000B70B53EC102B06F08FF841EC190B06F0B5
:101B300079F90446002C01DC002404E0B4F5FA7FB6
:101B400001DB4FF4FA74B7EE000AAE4880ED000AEC
:101B500000EE104AB8EEC00ABDEC0A8B10BD10B5FD
:101B60002DED108B8CB0002085E000EB400101EBE7
:101B70000011A54A02EB810191ED0B0AA34901EB8B
:101B8000800181ED000AA14901EB800191ED000A7D
:101B9000DFED9F0AB4EEE00AF1EE10FA07D89FEDF0
:101BA0009C0A9A4901EB800181ED000A12E09749F5
:101BB00001EB800191ED000ADFED960AB4EEE00A38
:101BC000F1EE10FA06DB9FED930A904901EB8001DC
:101BD00081ED000A8D4901EB800191ED000A00EBD7
:101BE000400101EB0011884A02EB8101D1ED040AAA
:101BF00020EE200A8849D1ED000A20EE200A87490C
:101C000001EB800181ED000A804901EB800191ED3B
:101C1000000A8349D1ED000A20EE200A7B4901EB3E
:101C20008001D1ED000A20EE200A784901EB800105
:101C3000D1ED000A7B4991ED001A01EE200A7A49A4
:101C4000D1ED000A30EE200A784901EB800181EDE8
:101C5000000A724901EB800191ED000A734901EB22
:101C60008001D1ED000A30EE200A714901EB8001BC
:101C700081ED000A401C0428FFF677AF6C4890ED18
:101C8000000AD0ED010A30EE200AD0ED020A30EE53
:101C9000200AD0ED030A30EE200A664880ED000AE3
:101CA00090ED000AB5EEC00AF1EE10FA04D81FED6F
:101CB000C50A80ED000A0DE05E4890ED000ADFEDF8
:101CC0005E0AB4EEE00AF1EE10FA03DB9FED5A0A69
:101CD00080ED000A574890ED000ABCEEC00A10EEF5
:101CE000100A5649088008460088002802DC0020B7
:101CF000088015E05148008800EE100AB8EE400A4E
:101D00004F48D0ED000AB4EEE00AF1EE10FA07DB1E
:101D100090ED000ABCEEC00A10EE100A4749088098
:101D20004848008845490988401A47490880414881
:101D300090ED000A4248D0ED000AB4EEE00AF1EE60
:101D400010FA3FDD00240DE1394800EB840090EDEE
:101D5000000A3B48D0ED000A20EE200A3548D0EDBD
:101D6000000A80EE201A394800EB840080ED001A4A
:101D70002F4800EB840090ED000A2B48D0ED000ABC
:101D8000B4EEE00AF1EE10FA1DDD294800EB840004
:101D900090ED000A2D4800EB8400D0ED000AB4EE6F
:101DA000E00AF1EE10FA0EDD1D4890ED000A08A8D9
:101DB00000EB840080ED000A04EB440000EB04100B
:101DC000114945E0D2E0C5E028090020FA7EEA3F4B
:101DD000000000000000F03FAF0000200000000005
:101DE000008030400000000000002940000000009A
:101DF000000010400000000000207C4000000000B7
:101E000000406F40C00000201C1D0020800A002000
:101E100000401CC600401C46E8000020900A00203C
:101E2000EC000020F0000020F4000020A00A0020B8
:101E3000B00A0020D400002000007A44B600002040
:101E4000C8000020B2000020B4000020C00A00201A
:101E500001EB8000D0ED040AFE4890ED000AFE4838
:101E600090ED001A01EE200A04A800EB840080ED3A
:101E7000000AFA4800EB840090ED000AF848D0ED23
:101E8000000A30EEC00A684600EB840080ED000ACC
:101E9000F44800EB840090ED000A10EE101A08469A
:101EA00005F0DFFF41EC190B08A800EB840090ED72
:101EB000000AF0EE000A20EE200A10EE101A084682
:101EC00005F0CFFF41EC1B0B04A800EB840090ED64
:101ED000000A20EE000A08A800EB8400D0ED000AFA
:101EE000B1EE001A60EE810A684600EB840090EDC6
:101EF000001A00EEC10A10EE101A084605F0B1FFF4
:101F000041EC1F0BB0EE4F0AF0EE6F0A06F08CFBAF
:101F1000B0EE40DAF0EE60DA04A800EB840090ED59
:101F2000000AB1EE400A10EE101A084605F099FFBB
:101F300053EC1D2B05F0E1FD53EC1B2B05F0F6FED9
:101F400053EC192B05F0F2FE05F0CEFFC64941F81F
:101F5000240006E0B7EE000AC34800EB840080EDE1
:101F6000000A641C042CFFF6EFAE0BE0002007E033
:101F7000B7EE000ABC4901EB800181ED000A401C6C
:101F80000428F5DB002025E0B74901EB800191ED45
:101F9000000AB5EEC00AF1EE10FA07D89FEDB30AB9
:101FA000B14901EB800181ED000A12E0AE4901EB7D
:101FB000800191ED000AF7EE000AB4EEE00AF1EEBE
:101FC00010FA06DBB7EE000AA74901EB800181EDAC
:101FD000000A401C0428D7DB0CB0BDEC108B10BDF0
:101FE00010B52DED048BA248808900EE100AB8EEE2
:101FF000400AA04880ED000A90ED000ADFED9E0A3D
:1020000080EE201ABCEEC10A10EE100A9849C88270
:102010000846C08A00EE900AF8EE600AB0EE600A48
:10202000FFF749FB954880ED000AFFF798FD9448BB
:102030000078012803D092480078032819D18C48F1
:10204000C08A00EE900AF8EE600AB0EE600AFFF770
:1020500005FD8C48008800EE900AF8EE600A30EE2C
:10206000600AB0EE408AFFF744FB874880ED000A23
:1020700018E07F48C08A00EE900AF8EE600AB0EEE1
:10208000600AFFF718FB7F48008800EE900AF8EE20
:10209000600A30EE600AB0EE408AFFF72AFB7B4808
:1020A00080ED000A784890ED000AB5EEC00AF1EE26
:1020B00010FA04D89FED6D0A80ED000A0DE0724819
:1020C00090ED000AF7EE000AB4EEE00AF1EE10FA25
:1020D00003DBB7EE000A80ED000A6C4890ED000AC1
:1020E000B5EEC00AF1EE10FA04D89FED600A80ED5B
:1020F000000A0DE0654890ED000AF7EE000AB4EE24
:10210000E00AF1EE10FA03DBB7EE000A80ED000AF8
:102110005B480078032803D059480078022805D18D
:10212000B7EE000A5A4880ED000A77E0544800787C
:1021300001282BD15748006828B99FED570A574806
:1021400080ED000A13E05348006801280FD153487E
:1021500090ED000AB5EEC00AF1EE10FA07DD90ED41
:10216000000AF7EE000A30EE600A80ED000A4B48E4
:1021700090ED000A5FEDD00A30EEC00A5FEDD20AA2
:1021800080EE201A424880ED001A47E03C48007873
:10219000F0BB4048006898B94149B1F8510005F0DA
:1021A00034FE41EC190B9FED3F0B53EC102B05F067
:1021B0004BFD41EC180B05F097FE3849086013E021
:1021C0003448006801280FD1344890ED000AB5EE7C
:1021D000C00AF1EE10FA07DD90ED000AF7EE000AF2
:1021E00030EE600A80ED000A2D48B0F8510000EE94
:1021F000100AB8EE400A2948D0ED000A70EE600AD5
:102200002748B0F8510000EE100AB8EE400A00E08E
:1022100004E080EE801A1E4880ED001ABDEC048BAD
:1022200010BD2248407818B120484078012850D18C
:102230000020134908701D484078012803D1087018
:1022400000201B4908800E480078012836D1184824
:1022500000882FE0F0000020E8000020C00A0020E5
:10226000F4000020800A0020F00A00200000000096
:102270008C280020A80000200000C842C8000020D0
:10228000AF000020B6000020C4000020C0000020E5
:10229000BC0000208400002000805444B8000020CE
:1022A000F02600209A9999999999E93FF028002001
:1022B000B0000020401C00B2FE490880FD48B0F983
:1022C00000000A2825DB0020FB490870F949088036
:1022D0001FE00220F8490870F8484078032803D12D
:1022E00008700020F3490880F3480078032805D1DE
:1022F000F0480088401C00B2EE490880ED48B0F973
:1023000000000A2805DB0220EB4908700020E9499B
:1023100008807047DFEDEA0AB4EEE00AF1EE10FA49
:1023200006DBDFEDE70A70EE600AB0EE600A0AE055
:10233000B5EEC00AF1EE10FA05D2DFEDE10A70EE5B
:10234000200AB0EE600A704710B52DED0A8BB0EE92
:10235000409AF0EE609AB0EE418A51EC190B81F090
:10236000004141EC1C0B9FEDD70B53EC102B05F0FB
:102370006BFC41EC1B0B9FEDD51BB0EE4B0AF0EE56
:102380006B0A06F007F8B0EE40AAF0EE60AA51EC36
:102390001A0B05F0A9FD08EE100AB5EEC08AF1EEA1
:1023A00010FA05D29FEDC60A38EE000AB0EE408A58
:1023B00018EE100A05F055FD41EC100BBDEC0A8B30
:1023C00010BD1FED560AC34880ED010A1FED590AE2
:1023D00080ED000A1FED5B0A80ED020A1FED5D0A29
:1023E000BD4880ED120A7047BA48B0F9110000EEFE
:1023F000100AB8EEC00AB74880ED010AB0F90F0024
:1024000000EE100AB8EEC00AB24880ED000A1FEDD7
:10241000690A80ED020A7047704710B52DED048BF4
:10242000AD4890ED161BB0EE410AF0EE610A9FED4B
:10243000A51B53EC112B51EC100B05F005FC41ECE6
:10244000190B05F051FD08EE100AB0EE480A06F02F
:1024500023F8A04880ED0C0A9F4890ED161BB0EEC3
:10246000410AF0EE610A9FED971B53EC112B51ECE2
:10247000100B05F0E9FB41EC190B05F035FD08EEFA
:10248000100AB0EE480A05F0D3FE924880ED0D0A1E
:10249000B0F90F0000EE100AB8EEC00A8D48D0ED7A
:1024A0000D0A20EE200ABDEEC00A10EE100A00B29E
:1024B000884908870846B0F90F00404200EE100A2C
:1024C000B8EEC00A0846D0ED0C0A20EE200ABDEE98
:1024D000C00A10EE100A00B248870846B0F9110091
:1024E00000EE100AB8EEC00A0846D0ED0C0A20EE45
:1024F000200ABDEEC00A10EE100A00B28887084616
:10250000B0F9110000EE100AB8EEC00A0846D0ED8E
:102510000D0A20EE200ABDEEC00A10EE100A00B22D
:10252000C8870846B0F93A00B1F93E10084400EEF9
:10253000100AB8EEC00A674880ED010AB0F9380009
:102540006449B1F93C10084400EE100AB8EEC00A24
:10255000604880ED000AB0F9130000EE100AB8EEF2
:10256000C00A5C4880ED020ABDEC048B10BD10B5BA
:10257000594890ED130ADFED590AB4EEE00AF1EE86
:1025800010FA08DB90ED130ADFED4D0A30EE600A19
:1025900080ED140A04E0504890ED130A80ED140A0F
:1025A0004C48B0F9110000EE100AB8EEC00A4948D4
:1025B00080ED010AB0F90F0000EE100AB8EEC00A73
:1025C000444880ED000A4448D0ED140AB0EE600A99
:1025D0005FEDDA0A424800F0CDF93E4880ED020A8C
:1025E00010BD10B53B48007B072810D004DC012843
:1025F00007D0032814D107E008280BD00A280FD1F0
:102600000BE0FFF7DEFE0EE0FFF7B1FF0BE0FFF798
:1026100004FF08E0FFF700FF05E0FFF7E5FE02E03A
:10262000FFF7CFFE00BF00BF10BD0CB501461FED88
:10263000F12AF0EE421AB1EE402A32EE202ADFED06
:10264000292A01EE222AF0EE002A22EE222ABDEEED
:10265000C22A12EE100A00B2ADF8000030EE202AB5
:10266000DFED202A01EE222AF0EE002A22EE222AB5
:10267000BDEEC22A12EE100A00B2ADF8020030EE32
:10268000602ADFED182A01EE222AF0EE002A22EE5F
:10269000222ABDEEC22A12EE100A00B2ADF80400E2
:1026A000B1EE402A32EE602ADFED0E2A01EE222A38
:1026B0001AE00000B0000020AF000020F028002049
:1026C000DB0FC940000000A046DF913F0000006022
:1026D000FB21194028090020C8080020DB0F4940D1
:1026E000B01500209A997940F0EE002A22EE222AB5
:1026F000BDEEC22A12EE100A00B2ADF806000020AC
:102700001EE03DF91020002A01DB134600E0534291
:1027100002EE103AB8EEC22AB4EEE12AF1EE10FA57
:102720000CDD3DF91020002A01DB134600E0534286
:1027300002EE103AB8EEC22AF0EE421A421CD0B2B3
:102740000428DEDB9FED692AF4EEC21AF1EE10FADE
:102750001BDDDFED662A82EEA13AB0EE432A0020AF
:1027600010E03DF9102002EE902AF8EEE22A62EE27
:10277000822AFDEEE22A12EE902A12B22DF81020E3
:10278000421CD0B20428ECDB00BF0098086001981E
:1027900048600CBD00B55648D0ED021AB0EE611A83
:1027A000D0ED011AF0EE610AD0ED001AB0EE610A28
:1027B0009830FFF73AFF00BD10B5002427E004EB86
:1027C00084004C4901EB0010C06B01B24848A030B6
:1027D00020F81410A0F1080131F9141001EE101ABC
:1027E000B8EEC11AF0EE410A014631F9141001EEBB
:1027F000101AB8EEC11AB0EE410A04EB440101EB25
:1028000004113D4A02EB810000F0B4F8641C042C72
:10281000D5DB00201FE03649097BB1B100EB400158
:1028200001EB0011344A02EB810191ED0B0AF7EE46
:10283000000A20EE200ABDEEC00A10EE101A0AB2FD
:102840002B49203121F8102004E0002228492031B2
:1028500021F81020401C0428DDDB10BD10B5FFF767
:10286000ABFF10BD10B52DED028B244890ED100B81
:10287000234880ED160BD0ED131AB0EE611A90EDDF
:10288000162BB0EE420AF0EE620AFFF75DFDB0EEE5
:10289000408AF0EE608A51EC180B05F025FB1849D0
:1028A000C8641348B0F90F0000EE100AB8EEC00A71
:1028B0000F4880ED000AB0F9110000EE100AB8EEE2
:1028C000C00A0B4880ED010ABDEC028B10BD10B5AB
:1028D000FFF7C8FFFFF75EFF10BD10B5FFF781FEE1
:1028E000FFF7F5FFFFF7BAFF10BD00000040E74516
:1028F00028090020482200204C1E0020D823002058
:10290000C8080020D0ED000AF4EEC00AF1EE10FA7B
:1029100001DD80ED000AD0ED000AB1EE401AF4EEC0
:10292000C10AF1EE10FA03D2F1EE400AC0ED000A3E
:1029300070470364C263816380ED000AC0ED010A41
:1029400080ED021A704780ED000AC0ED010A80EDAB
:10295000021ADFEDFE1AC0ED081ADFEDFC1AC0ED19
:10296000091ADFEDFA1AC0ED0A1ADFEDF81AC0ED08
:102970000B1A704710B52DED088B0446B0EE408A57
:10298000F0EE608A84ED048AC4ED038A38EEC80A4A
:1029900084ED070A94ED0C0AB5EEC00AF1EE10FAC8
:1029A00027D094ED0C0A10EE101A084605F059FADB
:1029B00041EC190B94ED070A10EE101A084605F0C9
:1029C00050FA41EC1B0BB0EE4B0AF0EE6B0A05F02F
:1029D000D7FCB0EE40AAF0EE60AA53EC192B51ECF4
:1029E0001A0B05F069FA04D29FEDD80ABDEC088BEA
:1029F00010BDA06B03283ED194ED000AD4ED070A68
:102A000020EE200A84ED080A94ED090AD4ED010AAB
:102A100094ED071A00EE810A84ED090A94ED070A85
:102A2000D4ED060A30EE600AD4ED020A20EE200A48
:102A300084ED0A0AD4ED100AF8EE600AB0EE600ADE
:102A400004F12400FFF75EFF94ED080AD4ED090AB3
:102A500030EE200AD4ED0A0A30EE200A84ED0B0A8B
:102A6000D4ED0F0AF8EE600AB0EE600A04F12C0013
:102A7000FFF748FF42E0A06B04283FD194ED070A1E
:102A8000D4ED060A30EE600AD4ED000A20EE200AEA
:102A900084ED080A94ED010AD4ED070A20EE200A1D
:102AA00084ED090A94ED070AD4ED060AB0EE001A87
:102AB00001EE600AD4ED050A30EE200AD4ED020AD8
:102AC00020EE200A84ED0A0A94ED080AD4ED090AE2
:102AD00030EE200AD4ED0A0A30EE200AD4ED0B0ABB
:102AE00030EE200A84ED0B0AD4ED0F0AF8EE600AEE
:102AF000B0EE600A04F12C00FFF704FF94ED060A23
:102B000084ED050A94ED070A84ED060A94ED0D0A9A
:102B1000B5EEC00AF1EE10FA25D094ED0D0A10EED4
:102B2000101A084605F09DF941EC190B94ED0B0ABB
:102B300010EE101A084605F094F941EC1B0BB0EEAC
:102B40004B0AF0EE6B0A05F01BFCB0EE40AAF0EE6B
:102B500060AA53EC192B51EC1A0B05F095F902D22F
:102B60009FED7A0A42E794ED0B0A3FE710B52DED91
:102B7000088B0446B0EE408AF0EE608A84ED048A49
:102B8000C4ED038A38EEC80A84ED070A94ED0C0AF6
:102B9000B5EEC00AF1EE10FA27D094ED0C0A10EE53
:102BA000101A084605F05DF941EC190B94ED070A7F
:102BB00010EE101A084605F054F941EC1B0BB0EE6C
:102BC0004B0AF0EE6B0A05F0DBFBB0EE40AAF0EE2C
:102BD00060AA53EC192B51EC1A0B05F06DF904D2D5
:102BE0009FED5A0ABDEC088B10BDA06B03283ED1A7
:102BF00094ED000AD4ED070A20EE200A84ED080ABD
:102C000094ED090AD4ED010A94ED071A00EE810A49
:102C100084ED090A94ED070AD4ED060A30EE600A45
:102C2000D4ED020A20EE200A84ED0A0AD4ED100A3F
:102C3000F8EE600AB0EE600A04F12400FFF762FECD
:102C400094ED080AD4ED090A30EE200AD4ED0A0A00
:102C500030EE200A84ED0B0AD4ED0F0AF8EE600A7C
:102C6000B0EE600A04F12C00FFF74CFE3EE0A06BD2
:102C700004283BD194ED070AD4ED060A30EE600A31
:102C8000D4ED000A20EE200A84ED080A94ED010A32
:102C9000D4ED070A20EE200A84ED090A94ED070A14
:102CA000D4ED060AB0EE001A01EE600AD4ED050A72
:102CB00030EE200AD4ED020A20EE200A84ED0A0A42
:102CC00094ED080AD4ED0A0A30EE200AD4ED0B0A7E
:102CD00030EE200A84ED0B0AD4ED0F0AF8EE600AFC
:102CE000B0EE600A04F12C00FFF70CFE94ED060A2A
:102CF00084ED050A94ED070A84ED060A94ED0D0AA9
:102D0000B5EEC00AF1EE10FA28D094ED0D0A10EEDF
:102D1000101A084605F0A5F841EC190B94ED0B0AC2
:102D200010EE101A084605F09CF841EC1B0BB0EEB3
:102D30004B0AF0EE6B0A05F023FBB0EE40AAF0EE72
:102D400060AA53EC192B51EC1A0B01E000000000B3
:102D500005F09AF802D21FED030A43E794ED0B0A3F
:102D600040E72DE9F0412DED048B04460D46164653
:102D70001F46B0EE408AF0EE608AB0EE419A2948D4
:102D80006064B0EE491AF0EE680AB0EE480A3B46BD
:102D9000324629462046D4F844C0E047BDEC048BB7
:102DA000BDE8F0811FED170A80ED080A1FED190A32
:102DB00080ED090A1FED1B0A80ED0A0A1FED1D0AAE
:102DC00080ED0B0A1FED1F0A80ED050A1FED210A99
:102DD00080ED060A1FED230A80ED070A704770B5E3
:102DE0002DED068B05460C46B0EE408AF0EE608A6B
:102DF000B0EE419AF0EE619AF0EE480AB0EE680A41
:102E00002846FFF7B7FD30EE290AB0EE40AAF0EEF3
:102E10004A0AB0EE490A2046FFF7ACFDBDEC068B2E
:102E200070BD00003329000810B504463C48006816
:102E3000401C3B4908602068A0F2411038B90023CB
:102E4000224638493648006800F0CFFE00E000BF57
:102E500000BF10BD10B5044633480068401C32491D
:102E6000086040F202222068811A90421CD006DCE1
:102E7000B0F5A17F08D0A0F2012068BB0DE00129C8
:102E80001AD0022928D11FE04EF284432246274956
:102E90002548006800F0A9FE1FE022462449224888
:102EA000006800F026F918E02246214950311E48FA
:102EB000006800F01EF910E022461D49A0311A48B2
:102EC000006800F016F908E022461949F03116486A
:102ED000006800F00EF900E000BF00BF10BD08B5AB
:102EE0001448B0F924104FF4A172134800F070FF99
:102EF0001048B0F9261040F24112104800F068FF67
:102F00000F48B0F9260000900D48B0F92430B0F910
:102F10002220B0F92010084800F07BF908BD00001D
:102F2000F800002088230020FC000020D823002087
:102F30004822002074010020006800400064004026
:102F4000280900200A7BCB7A42EA03228261826947
:102F50008260826942600269521C026170472DE9F9
:102F6000F04104460D460026002720686060287B5B
:102F7000E97A40EA0120206020686168401AE06038
:102F8000E06810F5805F07DAA06B401CA063E06882
:102F900000F50050E0610DE0E068B0F5805F07DD0E
:102FA000A06B401EA063E068A0F50050E06101E066
:102FB000E068E0612168A06B01EB4030A060206810
:102FC000A269801A00EE100AF8EEC00AA06B4FF456
:102FD000B472504300EE100AB8EEC00A9FEDBB1A5F
:102FE00000EE810A10EE101A084604F03AFF41EC98
:102FF000100B84ED100BE269207D411C217504F15A
:10300000200141F82020207D062801D100202075D4
:10301000002605E004F1200050F826000744761C45
:10302000062EF7DB062097FBF0F0E063A97B687BB8
:1030300041EA002000B2A4F84C00BDE8F08170B570
:1030400004460D4620686060287BE97A40EA01204A
:10305000206020686168401AE060E06810F5805FD9
:1030600007DAA06B401CA063E06800F50050E06147
:103070000DE0E068B0F5805F07DDA06B401EA06347
:10308000E068A0F50050E06101E0E068E0612168DF
:10309000A06B01EB4030A0602068A269801A00EEAE
:1030A000100AF8EEC00AA06B4FF4B472504300EE61
:1030B000100AB8EEC00A9FED861A00EE810A10EEE3
:1030C000101A084604F0CDFE41EC100B84ED100BF5
:1030D000A97B687B41EA0020E063E06BB0F57A7F72
:1030E00004DBE06BA0F57F40FF38E063687CA06400
:1030F00070BD70B506460C461546322E04D82946DA
:103100002046FFF71FFF03E029462046FFF727FF71
:1031100070BD2DE9F04106460C4617461D460A2EA5
:1031200000D2A56139462046FFF789FF642E12D8E8
:10313000A069A168401A10F57A6F03DA05F500500E
:10314000A06108E0A069A168401AB0F57A6F02DDBD
:10315000A5F50050A061BDE8F0812DE9F04186B0F1
:1031600080460C4615461E460C9F40F2FF1001900B
:1031700000208DF80C008DF80D0008208DF80E0051
:10318000200A8DF80F008DF81040290A8DF81110D3
:103190008DF81250310A8DF813108DF81460390A29
:1031A0008DF815108DF8167001A9404602F000FA4E
:1031B00006B0BDE8F0812DE9F04186B080460C46AE
:1031C00015461E460C9F40F2FF20019000208DF80E
:1031D0000C008DF80D0008208DF80E00200A8DF8E7
:1031E0000F008DF81040290A8DF811108DF812503B
:1031F000310A8DF813108DF81460390A8DF8151006
:103200008DF8167001A9404602F0D2F906B0BDE86B
:10321000F0812DE9F04186B080460C4615461E46E9
:103220000C9F4FF40070019000208DF80C008DF879
:103230000D0008208DF80E00200A8DF80F008DF883
:103240001040290A8DF811108DF81250310A8DF8AE
:1032500013108DF81460390A8DF815108DF816705A
:1032600001A9404602F0A4F906B0BDE8F0812DE9BD
:10327000F04186B080460C4615461E460C9F40F233
:10328000FF10019000208DF80C008DF80D00082033
:103290008DF80E00200A8DF80F008DF81040290AD5
:1032A0008DF811108DF81250310A8DF813108DF829
:1032B0001460390A8DF815108DF8167001A9404672
:1032C00002F076F906B0BDE8F0810000FFFF333D63
:1032D0000000343DF0B503460C461888002113E089
:1032E000675C80EA072000250BE0460000F4004CF4
:1032F000BCF1000F03D041F2210C86EA0C063046E7
:103300006D1C082DF1D3491C9142E9D31880F0BD02
:103310002DE9F84305460F4690464FF0000900207E
:1033200000900626FE484078002859D0002085F8F5
:103330006300FB484078C0F3800078B1F9A12846CB
:1033400004F0C9FBF84908600846006830B1F44849
:10335000007820F00400001DF1490870F048407822
:1033600000F0010078B1EFA1284604F0B4FBEE496B
:1033700008600846006830B1E948007820F0010094
:10338000401CE7490870E6484078C0F3400078B137
:10339000E4A1284604F09FFBE34908600846006862
:1033A00030B1DF48007820F00200801CDC49087052
:1033B000DB484078C0F3C00078B1DCA1284604F0B7
:1033C0008AFBD94908600846006830B1D4480078C3
:1033D00020F008000830D2490870002028600AE177
:1033E00028785A28FBD16878A528F8D1A878E978F8
:1033F00000EB0120801D4045F1D1B8F1080FEEDB54
:10340000042229466846FFF765FFA8F10602A91DB8
:103410006846FFF75FFF2879697900EB01201FFA02
:1034200080F9BDF800004845D9D10626E0E0AC1986
:103430002078C02860D008DC90280FD0A02813D0B6
:10344000A52829D0B0286FD13EE0D02870D0D1284F
:103450006CD0D9286BD0F028F5D1C3E06078B8499A
:103460000870B01CC6B2C2E06078A17800EB012001
:1034700000B2B3494880E078217900EB012000B226
:10348000AF4988806079A17900EB012000B2AC4996
:10349000C880F01DC6B2AAE06078A17800EB0120D8
:1034A00000B2A7490881E078217900EB012000B241
:1034B000A34948816079A17900EB012000B2A049BD
:1034C0008881F01DC6B292E06078A17800EB0120FF
:1034D00000B29B49C881E078217900EB012000B25D
:1034E000974908826079A17900EB012000B29449E4
:1034F0004882F01DC6B27AE06078A17800EB012026
:1035000000B28F498882E078217900EB012000B277
:103510008B49C8826079A17900EB012000B288490B
:103520000883F01DC6B262E05FE001E04CE03FE0DE
:103530006078A17800EB012000B281494883E078EF
:10354000217900EB012000B27D4988836079A1795F
:1035500000EB012000B27A49C8830846B0F91A008E
:1035600000EE100AB8EEC00ADFED760A20EE200A5F
:10357000084680ED0F0AB0F91C0000EE100AB8EE04
:10358000C00ADFED700A20EE200A084680ED100A1E
:10359000B0F91E0000EE100AB8EEC00ADFED6A0AAC
:1035A00020EE200A084680ED110AF01DC6B21EE08A
:1035B000634854F8011F016261684162A168816239
:1035C00006F10D00C6B212E05D4854F8011FC16259
:1035D00061680163A1684163E168816306F11100DC
:1035E000C6B204E0701DC6B201E0464600BF00BF8F
:1035F0004645FFF61CAF5248B0F91200404200EEBB
:10360000100AB8EEC00ADFED500A20EE200A87ED5E
:10361000040A4B48B0F91000404200EE100AB8EE20
:10362000C00ADFED490A20EE200A87ED030A44486C
:10363000B0F90E00404200EE100AB8EEC00ADFED0D
:10364000420A20EE200A87ED050A404890ED000A64
:103650003F4880ED000A3A4890ED110AB1EE400A69
:103660003A4880ED000A90ED000A3948D0ED000A92
:1036700030EE600ADFED370AB4EEE00AF1EE10FA40
:1036800005DB35480068401E3349086013E02F48C9
:1036900090ED000A2E48D0ED000A30EE600ADFED12
:1036A0002F0AB4EEE00AF1EE10FA04D82A480068B6
:1036B000401C294908602A4890ED000A294880EDFD
:1036C000000A1F4890ED080A254880ED000A90ED99
:1036D000000A2448D0ED000A30EE600ADFED1D0A32
:1036E000B4EEE00AF1EE10FA05DB1F480068401E58
:1036F0001D49086013E01A4890ED000A1948D0ED02
:10370000000A30EE600ADFED150AB4EEE00AF1EED1
:1037100010FA04D814480068401C1349086025E0DA
:10372000000100204F4B0000040100206E6577204F
:103730007061636B6574206974656D7300000000CF
:10374000A82600200AD7233CCDCCCC3D0C0100207C
:10375000080100200000A543200100200000A5C3AF
:1037600014010020100100202401002031480068CD
:103770004FF4B471484300EE100AB8EEC00A2E4868
:10378000D0ED000A30EE200A87ED000A2B4890EDBC
:10379000000A2B4880ED000A2A4890ED090A2748C4
:1037A00080ED000A90ED000A2548D0ED000A30EEC9
:1037B000600A5FED180AB4EEE00AF1EE10FA05DBDC
:1037C00021480068401E2049086013E01B4890ED26
:1037D000000A1B48D0ED000A30EE600A5FED210AB6
:1037E000B4EEE00AF1EE10FA04D817480068401C65
:1037F00015490860154800684FF4B471484300EE5D
:10380000100AB8EEC00A1248D0ED000A30EE200AC5
:1038100087ED010A0B4890ED100ADFED0E0A30EE3D
:10382000200A87ED020A90ED0F0A87ED000ABDE835
:10383000F883000024010020140100201C01002056
:1038400018010020A82600202801002020010020C7
:103850000C010020A470954030B5034605E013F834
:10386000010B80EA0204B348025D081EA1F10101C8
:10387000F5D1104630BD70B505460C4600260DB199
:10388000022C01D8002070BD611EFF222846FFF7E0
:10389000E3FF0646601E285CB04201D10120F2E73A
:1038A0000020F0E770B505460C4600260DB1022C4D
:1038B00000D870BD611EFF222846FFF7CDFF0646E7
:1038C000601E2E5400BFF4E730B5034613B94FF61F
:1038D000FF7030BD09E013F8014B82EA0400C0B26A
:1038E000954D35F8100080EA2222081EA1F1010151
:1038F000F1D11046EDE770B505460C4600260DB136
:10390000022C01D8002070BDA11E8C4802882846D8
:10391000FFF7DAFF0646F1B2A01E285C814206D10D
:10392000601E285CB0EB162F01D10120EBE70020D0
:10393000E9E770B505460C4600260DB1022C00D80B
:1039400070BDA11E7D4802882846FFF7BDFF0646D0
:10395000A01E2E54310A601E295400BFF0E770B536
:1039600004460D4600260CB1022D01D8FF2070BD83
:10397000FF2229462046FFF76FFFF8E72DE9FC5F9D
:1039800005460F46092F01D8BDE8FC9F0024A1463B
:10399000CBE015F804A0601C295CA01C285C41EA5F
:1039A0000026601D295CA01D285C41EA002B281917
:1039B00000F1070828190168009100798DF80400CA
:1039C00006F109001FFA80F9BAF1A50F77D1052198
:1039D0006846FFF750FF002871D028194946FFF7C5
:1039E0008AFF0028F8D0BBF5017F6AD012DC40F2D4
:1039F0000311ABEB01008B452BD006DCBBF1010FB3
:103A00001AD0BBF1030F74D11CE0FE2828D0FF2888
:103A10006FD14BE0BBF5027F6DD006DCABF2062028
:103A2000002856D001287BD15AE0ABF201300028A3
:103A300068D0022874D16CE032464146404804F018
:103A400018F86EE0324641463D480C3004F011F85B
:103A500067E0324641463A48363004F00AF860E002
:103A60001B2E22D1324641463548393004F001F848
:103A7000334890F83900012809DB314890F83900C3
:103A8000072804DC02202E4981F8C5000DE02C48EF
:103A900090F839000B2808DB294890F839001128E4
:103AA00003DC0120264981F8C5003AE0102E05D13B
:103AB000324641462248543003F0DBFF31E031E02A
:103AC000FFE7012E04D198F800001D4981F8740029
:103AD00027E0324641461A48763003F0CAFF20E01C
:103AE000072E05D1324641461548773003F0C1FF15
:103AF00017E015E0FFE73246414611487E3003F0FB
:103B0000B8FF0EE0324641460D48843003F0B1FF65
:103B100007E0324641460A48AC3003F0AAFF00E015
:103B200000BF00BF04EB090084B2A7423FF731AFEA
:103B300000BF29E771880008728900082C01002065
:103B4000F026002070B504460D4600BF00BF206877
:103B50006060697CA87C41EA002020602068616880
:103B6000401AE060E06810F5004F07DAA06B401CD7
:103B7000A063E06800F58030E0610DE0E068B0F53A
:103B8000004F07DDA06B401EA063E068A0F5803009
:103B9000E06101E0E068E0612168A06B01EB0040BA
:103BA000A0602068A269801A00EE100AF8EEC00A30
:103BB000A06B4FF4B472504300EE100AB8EEC00A86
:103BC0009FED971A00EE810A10EE101A084604F0D5
:103BD00048F941EC100B84ED100BE97B287C41EA9D
:103BE0000020E063287BA06470BD2DE9F04106460B
:103BF0000C4617461D460A2E00D2A56139462046BE
:103C0000FFF7A0FF642E13D8A069A168401A854968
:103C1000884203DA05F58030A06109E0A069A16857
:103C2000401A47F6BC71884202DDA5F58030A061DC
:103C3000BDE8F08170B586B006460C461546019584
:103C400008208DF80E0000208DF80C008DF80D0076
:103C50008DF80F4000218DF810108DF811108DF89F
:103C600012108DF813108DF814108DF815108DF8B2
:103C7000161001A9304601F09BFC06B070BD30B5AE
:103C80002DED068B85B00546B0EE408AF0EE608AD9
:103C9000B0EE419AF0EE619AB0EE42AAF0EE62AA5E
:103CA0000C46009408208DF80A0000208DF80800CA
:103CB0008DF8090032208DF80B0000218DF80C10D2
:103CC000BCEEC80A10EE100AC1B28DF80D10BCEEA1
:103CD000E80A10EE100AC1B28DF80E10BCEEC90A47
:103CE00010EE100AC1B28DF80F10BCEEE90A10EE0A
:103CF000100AC1B28DF81010BCEECA0A10EE100AFC
:103D0000C1B28DF81110BCEEEA0A10EE100AC1B271
:103D10008DF812106946284601F04AFC05B0BDEC4A
:103D2000068B30BDF0B585B007460D4614461E46DD
:103D3000009608208DF80A0000208DF808008DF804
:103D40000900A4208DF80B0000218DF80C10E9B2B9
:103D50008DF80D10290A8DF80E10E1B28DF80F10B4
:103D6000210A8DF81010210C8DF81110210E8DF8FC
:103D700012106946384601F01BFC05B0F0BD70B565
:103D800086B006460C461546019508208DF80E00B3
:103D900000208DF80C008DF80D00A2208DF80F008A
:103DA00000218DF810108DF811108DF812108DF87B
:103DB0001340210A8DF81410210C8DF81510210ED6
:103DC0008DF8161001A9304601F0F2FB06B070BD67
:103DD00070B586B006460C461546019508208DF84C
:103DE0000E0000208DF80C008DF80D00A1208DF83C
:103DF0000F0000218DF810108DF811108DF81210A1
:103E00008DF81340210A8DF8141000218DF815103B
:103E10008DF8161001A9304601F0CAFB06B070BD3E
:103E20000000B43B4480FFFF10B503463BB1087867
:103E300038B9012008701078401C107001E0002093
:103E40000870107800EBD0746410A0EB44040CB937
:103E5000002010BD0120FCE7CB8A03400BB10123F9
:103E600000E000231370704710B5044604F12802E7
:103E700021460120FFF7F0FF04F12902214604202A
:103E8000FFF7EAFF04F12A0221460220FFF7E4FFD0
:103E900004F12B0221460820FFF7DEFF04F12C027B
:103EA00021461020FFF7D8FF04F12E0221462020E2
:103EB000FFF7D2FF04F12F0221464020FFF7CCFF8D
:103EC00004F1300221468020FFF7C6FF04F13102E1
:103ED00021464FF48070FFF7BFFF04F13202214604
:103EE0004FF40070FFF7B8FF04F1330221464FF49E
:103EF0008060FFF7B1FF04F1340221464FF4006007
:103F0000FFF7AAFF04F12D0221464FF48050FFF77E
:103F1000A3FF04F1350221464FF40050FFF79CFF48
:103F200004F1360221464FF48040FFF795FF04F17B
:103F3000370221464FF40040FFF78EFF94F8280027
:103F4000914A9249FFF770FF382108552921085DF1
:103F50008F4A9049FFF768FF392108552A21085DEB
:103F60008D4A8E49FFF760FF3A2108552B21085DE5
:103F70008B4A8C49FFF758FF3B2108552C21085DDF
:103F8000894A8A49FFF750FF3C2108552E21085DD8
:103F9000874A8849FFF748FF3E2108552F21085DD1
:103FA000854A8649FFF740FF3F2108553021085DCB
:103FB000834A8449FFF738FF402108553121085DC5
:103FC000814A8249FFF730FF412108553221085DBF
:103FD0007F4A8049FFF728FF422108553321085DB9
:103FE0007D4A7E49FFF720FF432108553421085DB3
:103FF0007B4A7C49FFF718FF442108552D21085DB5
:10400000794A7A49FFF710FF3D2108553521085DAF
:10401000774A7849FFF708FF452108553621085DA2
:10402000754A7649FFF700FF462108553721085D9C
:10403000734A7449FFF7F8FE4721085510BD817A8D
:10404000C176017FC27E891A4177C27E0277417FA5
:1040500001290ED1016A491C0162016A01EBD1728A
:104060005210A1EB420212B90022827701E0012234
:104070008277417F02290ED1416A491C4162416A1F
:1040800001EBD1725210A1EB420212B90022C277A9
:1040900001E00122C2777047C17A012901D18176FE
:1040A00008E0C17A032901D1817603E0C17A0229AF
:1040B00000D18176704730B504460D46122D00D0F0
:1040C00030BD04B9FCE72078617840EA0120C0F3F4
:1040D0000A004D4908806078C010A17840EA41107C
:1040E000C0F30A0048494880A0788011E17840EA8E
:1040F0008100217940EA8120C0F30A00424988808A
:1041000020794010617940EAC110C0F30A003E49AD
:10411000C880207C617C40EA0120C0F30A003A4953
:10412000088160790011800888726079C0F30110FD
:10413000C872A079E17940EA012000B23249888151
:10414000207A617A40EA012001B22F48C181A07A29
:10415000E17A40EA012001B22B480182217B0175FE
:10416000617B4175A07BE17B40EA01202649C88242
:104170000846FFF791FF2448FFF761FF2248FFF749
:1041800073FE00BF9CE700002F0100202E010020DD
:1041900031010020300100203301002032010020D5
:1041A00035010020340100203701002036010020B5
:1041B00039010020380100203B0100203A01002095
:1041C0003D0100203C0100203F0100203E01002075
:1041D0004101002040010020430100204201002055
:1041E0004501002044010020470100204601002035
:1041F00049010020480100204B0100204A01002015
:104200004D0100204C010020A4280020F0B58BB007
:1042100004460D4616461F460121084602F026FABE
:104220000121480602F06BFA09220B21994802F09D
:104230000AF809220C21974802F005F84FF4C05003
:10424000099002208DF8280009A9924801F070FF1A
:1042500014208DF8040003208DF8050001208DF84E
:1042600006008DF8070001A800F0A5FF13208DF8C7
:10427000040001208DF8050000208DF806000120C3
:104280008DF8070001A800F096FF834800F0FEFFBC
:1042900006A801F01FF900208DF81E0001208DF8FE
:1042A0001F0000208DF820008DF821008DF82200DD
:1042B0008DF823008DF81A708DF81B008DF81C50B6
:1042C0008DF81D40ADF8186006A9734800F0F7FF9F
:1042D00000208DF812008DF8130001208DF81400D5
:1042E0000020ADF80800ADF80A00ADF80C00ADF8FC
:1042F0000E00ADF8100001208DF8150002A801F0A5
:1043000068F801220221644801F062FB0122114693
:10431000614801F05DFB0BB0F0BD10B501215E48B6
:1043200001F0BEFB18B101215B4801F054FC10BD47
:1043300000B585B00221584801F0B2FB88B10421D4
:10434000554801F048FC5549534801F086FB6A4640
:104350000021514801F021FA00BF6846FEF764FDD4
:1043600000BF05B000BDF0B58BB004460D46164643
:104370001F460121022002F079F90121880602F08E
:10438000BEF909220C21464801F05DFF09220D21EA
:10439000434801F058FF4FF44050029002208DF83E
:1043A0000C0002A93E4801F0C3FE40208DF8040035
:1043B00003208DF8050000208DF8060001208DF8FF
:1043C000070001A800F0F7FE364800F05FFF08A8DC
:1043D00001F080F800208DF8260001208DF82700DC
:1043E00000208DF828008DF829008DF82A008DF81E
:1043F0002B008DF822008DF823008DF824508DF8C5
:104400002540ADF8206008A9264800F058FF0E208E
:104410008DF81A0000208DF81B0001208DF81C007B
:104420000020ADF81000ADF81200ADF81400ADF8A2
:104430001600ADF8180001208DF81D0004A800F04A
:10444000C8FF01220221174801F0C2FA0BB0F0BDEB
:1044500010B50121134801F023FB18B101211148C7
:1044600001F0B9FB10BD00B585B002210D4801F087
:1044700017FB68B102210B4801F0ADFB6A46002131
:10448000084801F08AF900BF6846FEF7E3FC00BF68
:1044900005B000BD0000024000640040080000328A
:1044A000000402400068004010B596B004460121A7
:1044B000022002F0DBF80121880502F0D7F8012183
:1044C000102002F02DF907221146FE4801F0BBFE34
:1044D00014A801F075FE8020149002208DF854007D
:1044E00000208DF8550001208DF8570014A9F548DB
:1044F00001F01EFEF44803F05FF810A803F029F95C
:1045000010940020ADF84400ADF846004FF48060F0
:10451000ADF848000420ADF84A000020ADF84C008A
:1045200010A9E94803F0AFF801224021E64803F062
:10453000DFF9E64801F0A2FB684601F06AFC4FF0A3
:1045400000600090E048001D0190E14802900020CA
:10455000039040200490002005904FF48060069066
:104560000020079008904FF48070099000020A9094
:1045700000200B900C900D900E906946D34801F0EE
:104580001FFC0022D2494031D04801F07AFC0121C1
:10459000CE4801F082FC0121CC4801F04BFC2520E3
:1045A0008DF83C0000208DF83D008DF83E00012084
:1045B0008DF83F000FA800F0FEFD012240F22441DB
:1045C000C14803F09EF90121BF4803F0E4F816B09A
:1045D00010BD10B540F22441BB4803F0CDF90028CE
:1045E00056D0B9480088B8488088B84801F065FCC2
:1045F00030BB0021B54801F01DFCB649B34801F0BD
:1046000092FCB24801F039FCC0F14000B2490860A8
:104610004020AE49091D0860081F006840F40020D2
:10462000091F08600121A94801F004FC00BFAA4845
:10463000008881B2A648FFF73EFDFCF7F3FB27E0B8
:104640000021A24801F0F6FBA249A04801F06BFC52
:104650009E4801F012FCC0F140009F4908604020D4
:104660009A49091D0860081F006820F40020091FEE
:1046700008600121954801F0DDFB00BF96480088E5
:1046800081B293484030FFF716FDFCF7CBFB00BF2B
:1046900010BD10B596B004460121084601F0E6FFB2
:1046A0000121480501F0E2FF0121480402F027F84A
:1046B00007220221894801F0C6FD14A801F080FDFF
:1046C0000420149002208DF8540000208DF855002D
:1046D00001208DF8570014A9804801F029FD804879
:1046E00002F06AFF10A803F034F810940020ADF82F
:1046F0004400ADF846004FF48060ADF84800042057
:10470000ADF84A000020ADF84C0010A9744802F042
:10471000BAFF012240216C4803F0EAF8714801F029
:10472000ADFA684601F075FB4FF0006000906C48F0
:10473000001D01906C4802900020039064200490BA
:10474000002005904FF480600690002007900890AC
:104750004FF48070099000020A9000200B900C909A
:104760000D900E9069465F4801F02AFB00225E49D9
:1047700064315C4801F085FB01215A4801F08DFB52
:104780000121584801F056FB26208DF83C000020FE
:104790008DF83D008DF83E0001208DF83F000FA8F8
:1047A00000F009FD012240F224414D4803F0A9F830
:1047B00001214B4802F0EFFF16B010BD10B540F2DA
:1047C0002441474803F0D8F800284AD044480088DC
:1047D0004348001D00883D4801F06FFB00BB0021ED
:1047E000404801F027FB41493E4801F09CFB3D4811
:1047F00001F043FBC0F164003D4908606420394981
:10480000091D086037488838D0F8880040F4002037
:10481000091F08600121334801F00CFB00BF20E0B4
:104820000021304801F006FB30492E4801F07BFBA7
:104830002C4801F022FBC0F164002D49086064207F
:104840002849091D086027488838D0F8880020F4D6
:104850000020091F08600121224801F0EBFA00BF87
:1048600000BF10BD10B596B004460121022001F032
:10487000FDFE0121880401F042FF0121480501F0FD
:10488000F5FE07220A210F4801F0DDFC07220B216B
:104890000C4801F0D8FC02208DF8440003208DF86C
:1048A000450000208DF8460001208DF84700800269
:1048B000109010A9034801F03BFC4FF400601090E9
:1048C00010A917E0000402400010014040640240BB
:1048D000102900200000301050010020000002408C
:1048E0000044004088600240D0290020000C0020D5
:1048F00054010020FE4801F01BFC27208DF8000029
:1049000002208DF8010001208DF802008DF80300CF
:10491000684600F050FC12940020ADF84C00ADF851
:104920004E00ADF85000ADF854000C20ADF8520028
:1049300012A9F04802F0A7FE012240F22441ED48FE
:1049400002F0DFFF5021EB4803F00DF864200590E2
:1049500000200C900D900E9009904FF4806007900D
:1049600080100A90E348001D029000200F900890EC
:1049700006904FF400300B908002019000200490CC
:10498000DD48039001A9DD4801F01AFA0121DB4856
:1049900001F050FA01224021D64802F0A9FF01217E
:1049A000D44802F0F8FE16B010BD10B540F2244114
:1049B000D04802F0E1FFD8B1CE4802F01BFF40F230
:1049C0002441CC4803F013F80021CC4801F032FA1E
:1049D00000224021C74802F08BFF00BF00BF012228
:1049E0004021C44802F084FF0121C44801F022FAAA
:1049F00010BD10B596B004460121042001F036FE2A
:104A00000121C80401F07BFE08220A21BC4801F004
:104A10001AFC08220B21BA4801F015FC01214805B7
:104A200001F024FE4FF44060109002208DF8440005
:104A300000208DF8460003208DF8450001208DF8F8
:104A4000470010A9AE4801F073FB12940020ADF8A6
:104A50004C00ADF84E00ADF850000C20ADF85200FF
:104A60000020ADF8540012A9A64802F00CFE012265
:104A70004021A44802F03CFFA048183001F0FEF8A5
:104A8000684601F0C6F94FF0006000909D48001D97
:104A900001909D4802900020039064200490002023
:104AA00005904FF4806006900020079008900990D0
:104AB0004FF480300A9000200B900C900D900E90D7
:104AC00069468E48183001F07BF901218B48183077
:104AD00001F0B0F934208DF83C0003208DF83D0042
:104AE0008DF83E0001208DF83F000FA800F063FB19
:104AF00001228021834802F0FBFE00217F484830DC
:104B000001F098F97D48483001F0B8F800BF7B48C3
:104B1000483001F0DCF90028F9D14FF00060009036
:104B20007848001D019079480290402003900020B1
:104B3000049005904FF48060069000200790089044
:104B400009904FF480300A9000200B9003200C90C5
:104B500000200D900E9069466848483001F030F909
:104B60000F208DF83C0003208DF83D008DF83E00AD
:104B700001208DF83F000FA800F01DFB012210213D
:104B80005E48483001F0E3F9012240F224415D48DB
:104B900002F0B7FE01215B4802F0FDFD16B010BD2A
:104BA00010B5002440F22441564802F0E5FE08B357
:104BB000544800885348001D008800214F48183091
:104BC00001F038F952494D48183001F0ACF94B4822
:104BD000183001F052F9C0F16400C4B200BF00BF48
:104BE00064214648183001F046F901214348183045
:104BF00001F020F910BD70B504460D462946204647
:104C000001F039F90121204601F014F970BD10B509
:104C100040493A48483001F06AF948B10021374824
:104C2000483001F007F93B493448483001F07BF93E
:104C300010BD70B504460025344D05F8014B012127
:104C40002E484830FFF7D7FF70BD2DE9F0410546EB
:104C50000E46002400272D4F00BF03E0285D385585
:104C6000601C84B2B442F9DB314624484830FFF777
:104C7000C2FFBDE8F08110B596B0044601210420C2
:104C800001F0F4FC0121082001F0F0FC01210805ED
:104C900001F035FD0121480501F0E8FC02208DF806
:104CA000540000208DF856004FF4805014900120DD
:104CB0008DF8570003208DF8550014A9104801F015
:104CC00037FA02208DF8540000208DF85600042099
:104CD000149001208DF8570003208DF8550014A979
:104CE0000D4801F025FA08220C21054816E00000C5
:104CF0000004024000480040FC2A002028600240D6
:104D000000080240004C0040602B0020C42B002013
:104D10000000301020000020000C024001F093FA47
:104D200008220221EF4801F08EFA10940020ADF81D
:104D30004C000C20ADF84A000020ADF84800ADF85A
:104D40004600ADF8440010A9E74802F09CFC0121A0
:104D5000E54802F020FD01224021E34802F0C8FDB1
:104D6000684601F056F8E14802904FF40070049054
:104D700080040090DC48001D019000200390059005
:104D80004FF48060069000200890079009904FF43F
:104D900080300A9000200B900C900D900E90694688
:104DA000D34801F00DF80121D14801F043F8002269
:104DB000D049CF4801F065F80121CD4801F06DF8E8
:104DC00035208DF83C0001208DF83F008DF83D0026
:104DD00002208DF83E000FA800F0EDF9012240F20C
:104DE0002441C14802F08DFD0121BF4802F0D3FCEF
:104DF00001228021BC4802F07BFD0021BC48A83084
:104E000001F018F8BA48A83000F038FF00BFB848E1
:104E1000A83001F05CF80028F9D14FF00060009054
:104E2000B148001D0190B4480290402003904220F8
:104E30000490002005904FF48060069000200790B9
:104E4000089009900A900B9003200C9000200D9080
:104E50000E906946A648A83000F0B2FF0121A44890
:104E6000A83000F0E7FF2F208DF83C0002208DF8DD
:104E70003D0001208DF83E008DF83F000FA800F0A6
:104E80009AF916B010BD70B504460D4600212046B3
:104E900000F0D0FF00BF204601F019F80028FAD139
:104EA0002946204600F0E7FF0121204600F0C2FF1E
:104EB00070BD10B540F224418B4802F05DFD002822
:104EC0005AD08948008888488088894800F0F5FFD2
:104ED00048BB0021864800F0ADFF8849844801F0B6
:104EE00022F8834800F0C9FFC0F5007084490860CB
:104EF0004FF400717E4800F0BEFF4FF400227D4960
:104F00007B4800F0D5FF0121794800F093FF7C48F1
:104F10000068092830D900BF7948008881B27348F9
:104F2000FEF72CFD28E00021714800F083FF734953
:104F30006F4800F0F8FF6E4800F09FFFC0F500706A
:104F40006F4908604FF40071694800F094FF002237
:104F50006649674800F0ACFF0121654800F06AFF30
:104F600067480068092807D900BF6548008881B2F2
:104F70006048FEF703FD00BF10BD00B597B00121EA
:104F8000042001F073FB0121880501F06FFB012172
:104F9000202001F0C5FB082206215A4801F053F9F0
:104FA00008220721574801F04EF9C0201190022035
:104FB0008DF8480000208DF84A0002208DF8490045
:104FC00000208DF84B0011A94E4801F0B1F84E4871
:104FD00002F0F2FA4FF4E13013900020ADF85000E7
:104FE000ADF85200ADF854000C20ADF8560000208A
:104FF000ADF8580013A9444802F045FB01224021B6
:10500000414802F075FC414800F038FE4FF0206046
:1050100001903D48001D02903D48039000200490FF
:1050200064200590002006904FF4806007900020D7
:10503000089009900A904FF480300B9000200C905B
:105040000D900E900F9001A9304800F0B9FE01219B
:105050002E4800F0EFFE47208DF8400003208DF829
:1050600041008DF8420001208DF8430010A800F0A7
:10507000A2F8012240F22441234802F042FC01211F
:10508000214802F088FB17B000BD10B540F2244162
:105090001D4802F071FC18B31B4800881A48001D17
:1050A00000880021194800F0C5FE1A49174800F091
:1050B0003AFF164800F0E1FEC0F1640016490860AE
:1050C00000BF0846027815491148FEF721F900BFD4
:1050D00064210E4800F0CFFE01210C4800F0AAFE2A
:1050E00010BD0000000C0240005000406A2C00205F
:1050F000106002406A2E0020282C00203000001092
:1051000058010020000802400014014028640240B9
:105110006A300020000C00105C010020801F00207D
:105120001FB50121102001F0EAFA36208DF80000A9
:1051300003208DF8010002208DF8020001208DF877
:105140000300684600F037F85320ADF80400002053
:10515000ADF80600ADF80C0040F2E730029001A96E
:10516000114801F084FC01210F4801F009FD0122E2
:1051700011460D4802F01CF901210B4802F02CF9F0
:105180001FBD10B50121084802F029F958B10121CD
:10519000054802F035F90121034802F01DF900BF6E
:1051A000FBF746F900BF10BD001000403249014333
:1051B000324A1160704770B5002100230F22C47875
:1051C0001CB32E4C246804F4E064C4F5E064C4F31A
:1051D0000721C1F10404E3B20A4144789C40E1B2E2
:1051E0008478144021430C07210E254C0578615525
:1051F000047804F01F050124AC4005786D11AD0062
:1052000005F1E025C5F8004109E0047804F01F0528
:105210000124AC401B4D0678761145F8264070BD40
:10522000194A0A400243154B1B1F1A60704739B1D7
:10523000124A121D12680243104B1B1D1A6006E031
:105240000E4A121D126882430C4B1B1D1A607047D8
:10525000042808D14FF0E021096941F004014FF022
:10526000E022116107E04FF0E021096921F004011B
:105270004FF0E022116170470000FA050CED00E0EC
:1052800000E400E080E100E080FFFF1F10B504466D
:10529000FE48844209D10121480601F085FA002127
:1052A0004FF0007001F080FA08E00121880601F05B
:1052B0007BFA00214FF0806001F076FA10BD30B526
:1052C000024600200023146824F0020414601468CD
:1052D00044F00104146000E05B1C546804F0010415
:1052E0001CB94FF6FF74A342F6D1546804F00104D0
:1052F0000CB900206CE08C79012C04D1146844F0C6
:105300008004146003E0146824F080041460CC79F5
:10531000012C04D1146844F04004146003E01468C4
:1053200024F0400414600C7A012C04D1146844F079
:105330002004146003E0146824F0200414604C7A04
:10534000012C04D1146844F01004146003E01468C4
:1053500024F0100414608C7A012C04D1146844F0F9
:105360000804146003E0146824F008041460CC7A84
:10537000012C04D1146844F00404146003E01468A0
:1053800024F0040414608C78A407CD7844EA056402
:105390000D7944EA05444D7944EA05540D886D1EA3
:1053A0002C43D461146824F001041460002300E04D
:1053B0005B1C546804F001041CB14FF6FF74A34257
:1053C000F6D1546804F001040CB1002000E0012083
:1053D00030BD10B50021837A012202FA03F1AC4AF4
:1053E000126842F00102AA4B1A60A94A1C321268E4
:1053F0008A43A74B1C331A60027BCAB9A44A0C32F9
:1054000012688A43A24B0C331A604288C38842EA6E
:1054100003439F4A4032847A42F8343002888388BA
:1054200042EA03439A4A4032847A02EBC402536050
:10543000027B012A19D1964A0C3212680A43944B16
:105440000C331A604288038842EA0343904A403290
:10545000847A42F83430C288838842EA03438C4A13
:105460004032847A02EBC4025360C27A3AB9884A65
:10547000121D12688A43864B1B1D1A6006E0844A7F
:10548000121D12680A43824B1B1D1A60028932B931
:105490007F4A143212688A437D4B14331A600289A2
:1054A000012A06D17A4A143212680A43784B14331F
:1054B0001A60427B012A06D1754A1C3212680A43DF
:1054C000734B1C331A60724A126822F00102704B4F
:1054D0001A6010BD00218171C17101724172817227
:1054E000C1728170C17003210171022141710121DA
:1054F000018070476649096841F00101644A116002
:105500001146096843F60E729143614A11601146D3
:10551000096841EA002111601146096821F0010182
:105520001160704721B1026842F48032026003E0EA
:10553000026822F4803202607047E1B1026842F0F2
:10554000800202604FF4C272125842F480734FF42A
:10555000C27213504FF4CA72125842F480734FF45F
:10556000CA7213504FF4D272125842F480734FF43F
:10557000D27213501BE0026822F0800202604FF4E6
:10558000C272125822F480734FF4C27213504FF457
:10559000CA72125822F480734FF4CA7213504FF437
:1055A000D272125822F480734FF4D27213507047A3
:1055B00010B502460020936803F08063B3F1806F5A
:1055C00000D110E0936803F00063B3F1006F01D1E4
:1055D000012008E0936803F08053B3F1805F01D1AC
:1055E000022000E00420042879D002F5C07303EB08
:1055F00000131B6803F0010402F5C07303EB0013F2
:105600001C600B7A7BB94B7A0C8843EA445302F551
:10561000C07404EB00142468234302F5C07404EB47
:105620000014236010E00B7A4C6843EAC4034C7A00
:10563000234302F5C07404EB00142468234302F5ED
:10564000C07404EB001423608B7A03F00F038B7299
:1056500002F5C07303EB00135B6823F00F0402F53F
:10566000C07303EB00135C6002F5C07303EB00131F
:105670005B688C7A234302F5C07404EB001463600A
:105680008B7B1C064B7B44EA034403E00064004030
:10569000006600400B7B44EA0323CC7A234302F5E7
:1056A000C07404EB0014A3608B7C1C064B7C44EAA2
:1056B00003440B7C44EA0323CC7B234302F5C074F0
:1056C00004EB0014E36002F5C07303EB00131B68E6
:1056D00043F0010402F5C07303EB00131C6010BD1E
:1056E00010B50246002321B1012907D002290FD1AC
:1056F00009E09068F94C00EA04030BE09068F84C6C
:1057000000EA040306E09068F64C00EA040301E0B6
:10571000002300BF00BFF44C181BA34216D007DCC7
:1057200083B16FF08060184470B1022818D111E085
:10573000B0F5007F10D0ED4C204448B1B0F5003FEB
:105740000ED10BE002230DE000230BE0002309E063
:10575000002307E0012305E0012303E0012301E02A
:10576000002300BF00BFD8B210BD21B1012907D06E
:1057700002290FD109E0826842F0800282600AE0CB
:10578000826842F40042826005E0826842F40002CE
:10579000826000E000BF00BF704710B500F5D8730D
:1057A00003EB01131B6803F004031372137A53B95C
:1057B00000F5D87303EB01131B6840F2FF7404EA91
:1057C0005353136009E000F5D87303EB01131B6812
:1057D0006FF0604404EAD303536000F5D87303EB21
:1057E00001131B6803F00203537200F5D87303EB37
:1057F00001135B6803F00F03937200F5D87303EB9A
:1058000001135B681B0AD37400F5D87303EB011313
:105810009B68D37200F5D87303EB01139B681C0AD5
:10582000147300F5D87303EB01139B681C0C5473BD
:1058300000F5D87303EB01139B681B0E937300F5FF
:10584000D87303EB0113DB68D37300F5D87303EB54
:105850000113DB681C0A147400F5D87303EB011301
:10586000DB681C0C547400F5D87303EB0113DB6880
:105870001B0E937421B9C36843F02003C36003E097
:10588000036943F02003036110BD21B9C26842F0EF
:105890002002C26003E0026942F020020261704708
:1058A0000246002019B9D36803F0030006E001297D
:1058B00003D1136903F0030000E00020704710B526
:1058C00002460B4600204FF6FF71BBB9146824F066
:1058D000020444F00104146000E0491E546804F01E
:1058E0000304012C01D00029F7D1546804F003040B
:1058F000012C01D0002032E0012030E0012B13D137
:10590000146824F00304146000E0491E546804F095
:1059100003040CB10029F8D1546804F003040CB15D
:1059200000201CE001201AE0022B17D1146824F09B
:10593000010444F00204146000E0491E546804F0BD
:105940000304022C01D00029F7D1546804F00304A9
:10595000022C01D0002002E0012000E0002010BD58
:10596000014600200A6822F0010242F002020A60A9
:105970004A6802F00302022A00D101207047014662
:105980004FF6FF7200200B6823F002030B6000E06B
:10599000521E4B6803F00203022B01D1002AF7D1FB
:1059A0004B6803F00203022B00D001207047014630
:1059B00000208A6902F070007047014600208A6961
:1059C000100E7047014600208A69C2F307407047F5
:1059D0001AB143690B43436102E043698B4343615E
:1059E000704710B50246002001F4700343B193697B
:1059F000C1F3130423400BB101202DE000202BE064
:105A000001F0807343B15368C1F3130423400BB119
:105A1000012021E000201FE001F0006343B1936802
:105A2000C1F3130423400BB1012015E0002013E063
:105A300001F0007343B1D368C1F3130423400BB1E9
:105A4000012009E0002007E01369C1F3130423409B
:105A50000BB1012000E0002010BD0022244B994230
:105A600002D10023836111E0C1F3130201F000733E
:105A70000BB1C2600AE001F080630BB1026105E086
:105A800001F000630BB1826000E0426070470246A3
:105A9000002002EA01030BB1012000E00020704762
:105AA00070B504460D46002660692840002872D073
:105AB000B5F5807F69D01DDC082D42D006DC012DB4
:105AC0002DD0022D31D0042D7FD134E0102D3ED0C9
:105AD000202D42D0402D78D145E000000300000485
