:020000040800F2
:1000000058410020995B0008BD5B0008C75B0008F1
:10001000D15B0008D55B0008D95B00080000000038
:10002000000000000000000000000000DD5B000890
:10003000DF5B000800000000E15B0008B15B000826
:10004000B35B0008B35B0008B35B0008B35B000858
:10005000B35B0008B35B0008D9090008EB0900088E
:10006000B35B0008B35B0008B35B0008B35B000838
:10007000B35B0008B35B0008810F00087715000828
:10008000B35B0008B35B0008B35B00083F080008DF
:1000900055080008B35B0008B35B0008B35B0008B9
:1000A000B35B0008B35B0008B35B0008B35B0008F8
:1000B0008B0B0008B35B0008B35B0008B35B000860
:1000C000B35B0008B35B0008B35B0008B35B0008D8
:1000D000B35B00082F0D0008B35B0008B35B00089A
:1000E000B35B0008B35B0008B35B0008B35B0008B8
:1000F000B35B0008B35B0008B35B00087F1D00081A
:10010000B35B0008B35B0008B35B0008B35B000897
:100110000F150008F31C0008B90B0008B35B0008BA
:10012000B35B0008B35B0008B35B0008B35B000877
:10013000B35B0008B35B0008B35B00085904000818
:100140006F040008B35B0008B35B0008B35B0008F2
:10015000B35B0008B35B0008B35B0008751F0008C1
:10016000B35B0008B35B0008B35B0008B35B000837
:10017000B35B0008B35B0008B35B0008B35B000827
:10018000B35B0008B35B0008DFF80CD016F080FB0F
:100190000048004755020008584100201CB50121C5
:1001A000042007F013FA012000908DF804000020CD
:1001B0008DF8060003208DF805006946234806F0F7
:1001C000BFFF0121214807F039F81CBD1CB50121F2
:1001D000042007F0FBF90820009001208DF80400AE
:1001E00000208DF8060003208DF8050069461748A9
:1001F00006F0A6FF0821154807F020F81CBD10B531
:100200004FF4A06005F006FD00F044FC00F066FC31
:1002100000F04EF902210D4807F010F800F098F9AF
:1002200000F014FA01F09EF800F0ECFB00F00EFE76
:1002300001F018FE642000F02DFB00F08FFA00F0B2
:100240008BF8034800F0DEFC10BD000000080240FF
:10025000A08601002DED028B01F0D0F908F016FF09
:100260000AF02DFC4FF4FA7000F014FBFFF7C7FF03
:1002700000F0BAFC2D49086004212D4806F0DEFF8D
:1002800001F0C2FD01202B4908804EE02A48806D14
:1002900000EE100ADFED290A20EE200ABDEEC00AAA
:1002A000274880ED000A274890ED101BB0EE410A68
:1002B000F0EE610A9FED241B53EC112B51EC100B57
:1002C00016F059F841EC180B16F054F91C49486027
:1002D0001F4890ED101BB0EE410AF0EE610A9FED51
:1002E0001A1B53EC112B51EC100B16F044F841EC97
:1002F000180B16F03FF912498860164890ED101B54
:10030000B0EE410AF0EE610A9FED0F1B53EC112B8A
:1003100051EC100B16F02FF841EC180B16F02AF9DF
:100320000749C860084600F0CAFFAFE70400002094
:10033000000802400C000020FD0C00200000484393
:10034000D4090020A822002000000000000059402D
:10035000082300206823002000B58BB00121022073
:1003600007F034F90121880607F063F909220C210E
:100370004C4806F070FF09220D214A4806F06BFF39
:100380004FF44050029002208DF80C0002A945481D
:1003900006F0D6FE40208DF8040003208DF80500FD
:1003A0008DF8060001208DF8070001A805F037FC44
:1003B0003F208DF8040003208DF805008DF806001D
:1003C00001208DF8070001A805F029FC364805F04A
:1003D00091FC08A805F0B2FD00208DF82600012050
:1003E0008DF8270000208DF828008DF829008DF861
:1003F0002A008DF82B008DF822008DF823000820AC
:100400008DF8240003208DF82500ADF8200008A900
:10041000254805F088FC0E208DF81A0000208DF884
:100420001B0001208DF81C000020ADF81000ADF875
:100430001200ADF81400ADF81600ADF81800012058
:100440008DF81D0004A805F0F8FC012202211648D1
:1004500005F0F2FF0BB000BD10B50121124806F007
:1004600053F818B10121104806F0E9F810BD00B5A5
:1004700085B00E480068401C0C49086002210A48FB
:1004800006F042F858B10221074806F0D8F86A464B
:100490000021054805F0B5FE68460AF0B0FE05B03B
:1004A00000BD00000004024000680040240000205D
:1004B0001CB50121084607F089F80121042007F046
:1004C00085F80121022007F081F806200090012024
:1004D0008DF8040000208DF8060003208DF805003B
:1004E0006946194806F02CFE012000908DF80400A2
:1004F00000208DF8060003208DF80500694613489A
:1005000006F01EFE0121114806F098FE02210E4859
:1005100006F092FE04210C4806F08EFE102000909A
:1005200003208DF8050002208DF8040001208DF8CD
:1005300007006946054806F003FE06220421034829
:1005400006F089FE1CBD00000008024000040240C5
:1005500000B58BB00121042007F038F801210220FA
:1005600007F067F802220821774806F074FE02229D
:100570000921754806F06FFE4FF440700990022083
:100580008DF8280003208DF8290000208DF82A001E
:1005900001208DF82B0009A96B4806F0D1FD02223D
:1005A0000821694806F057FE02220921664806F034
:1005B00052FE40F2E730ADF818000020ADF81A0006
:1005C00040F28F6007900020ADF8200006A95F4838
:1005D00007F02DFA7020ADF804000120ADF80600F8
:1005E0000020ADF808004FF47A7003900220ADF8B7
:1005F00010000020ADF81200ADF814004FF4807028
:10060000ADF8160001A9514807F02CFB08214F480E
:1006100007F045FC01A94D4807F08AFB08214B482B
:1006200007F046FC0121494807F06CFA01214748D0
:1006300007F086FABE2045493C3108604120091D7B
:1006400008600020424908600BB000BD00B58BB0C7
:100650000121084606F0BAFF0121082006F0E9FF53
:10066000022200213B4806F0F6FD02220121394812
:1006700006F0F1FD0320099002208DF828000320E8
:100680008DF8290000208DF82A0001208DF82B001C
:1006900009A9304806F054FD022200212D4806F039
:1006A000DAFD022201212B4806F0D5FD40F2E730A9
:1006B000ADF818000020ADF81A0040F28F600790E6
:1006C0000020ADF8200006A9234807F0B0F97020FB
:1006D000ADF804000120ADF806000020ADF80800D8
:1006E0004FF47A7003900220ADF810000020ADF8AE
:1006F0001200ADF814004FF48070ADF8160001A997
:10070000154807F029FA0821134807F0B2FB01A9A0
:10071000114807F05AFA08210F4807F0B3FB0121EE
:100720000D4807F0EFF901210B4807F009FABE2048
:1007300006493C3108604120091D08600020044939
:1007400008600BB000BD000000080240000400403B
:100750002800002000000240000C004000B58BB0D3
:100760000121084606F032FF0121480606F061FF2C
:1007700009220B21444806F06EFD09220C21424853
:1007800006F069FD4FF4C050029002208DF80C0075
:1007900002A93D4806F0D4FC14208DF80400032083
:1007A0008DF8050001208DF806008DF8070001A8DE
:1007B00005F035FA354805F09DFA08A805F0BEFBAE
:1007C00000208DF8260001208DF8270000208DF8EC
:1007D00028008DF829008DF82A008DF82B008DF85F
:1007E00022008DF8230008208DF8240003208DF8C6
:1007F0002500ADF8200008A9244805F094FA00204F
:100800008DF81A008DF81B0001208DF81C000020C7
:10081000ADF81000ADF81200ADF81400ADF81600F8
:10082000ADF8180001208DF81D0004A805F005FBA7
:1008300001220221154805F0FFFD0BB000BD10B5E7
:100840000121124805F060FE18B101210F4805F0A2
:10085000F6FE10BD00B585B002210C4805F054FE2F
:1008600078B10421094805F0EAFE0949074805F076
:1008700028FE6A460021054805F0C3FC68460AF0D8
:10088000D7FD05B000BD000000000240006400403C
:100890000800003210B5002107E04AF2104200BF04
:1008A000131EA2F10102FBD1491C8142F5D310BDF8
:1008B00010B5002106E0282200BF131EA2F101029C
:1008C000FBD1491C8142F6D310BD10B5002107E0D1
:1008D0004AF2104200BF131EA2F10102FBD1491CD3
:1008E0008142F5D310BD10B5002106E0282200BFDB
:1008F000131EA2F10102FBD1491C8142F6D310BDA7
:1009000000B585B00121880306F0A4FE0121142062
:1009100006F05CFE00208DF810008DF8120001201A
:100920008DF8130000208DF811000320039003A917
:10093000324806F005FC6020039003A9304806F019
:10094000FFFB0021022006F08DFF0121022006F0AE
:1009500089FF0521042006F085FF0621042006F00A
:1009600081FF6320019000208DF808000C208DF895
:10097000090001208DF80A0001A806F095F806206C
:100980008DF8000002208DF8010001208DF8020092
:100990008DF80300684605F042F907208DF8000045
:1009A00002208DF801008DF8020001208DF803006F
:1009B000684605F034F917208DF8000002208DF804
:1009C000010003208DF8020001208DF80300684625
:1009D00005F025F905B000BD10B5012006F0CAF8F4
:1009E00010B1012006F0D7F810BD10B5022006F0B6
:1009F000C1F810B1022006F0CEF810BD0008024088
:100A0000001002401CB50121084606F0DFFD4FF43E
:100A10008070009001208DF8040000208DF8060001
:100A200003208DF805006946044806F089FB4FF461
:100A30008071024806F002FC1CBD0000000002406C
:100A40000EB50121022006F005FE4FF0FF300190A7
:100A5000A720ADF800000020ADF80800ADF80200B6
:100A60000121634807F04EF86946614806F0DFFF50
:100A700001215F4807F046F8002211465C4807F064
:100A800013F801215A4807F025F80121584807F0CA
:100A900057F80EBD1FB50121102006F0CAFD362003
:100AA0008DF8000000208DF8010002208DF8020072
:100AB00001208DF80300684605F0B1F85320ADF829
:100AC00004000020ADF80600ADF80C004FF47A7079
:100AD000029001A9474806F0AAFF1FBD10B50121E9
:100AE000444807F02DF801221146424807F040FC27
:100AF0000121404807F050FC10BD0EB50121042033
:100B000006F097FD4FF0FF300190A720ADF80000F0
:100B10000020ADF80800ADF802000121364806F0CB
:100B2000F1FF6946344806F082FF0121324806F0A1
:100B3000E9FF00221146304806F0B6FF01212E4899
:100B400006F0C8FF01212C4806F0FAFF0EBD0EB5D5
:100B50000121084606F06DFD4FF0FF300190532053
:100B6000ADF800000020ADF80800ADF8020001214A
:100B7000880706F0C7FF69464FF0804006F057FF30
:100B80000121880706F0DCFF0EBD10B501218807A2
:100B900007F005FC78B10121880707F011FC01215D
:100BA000880707F0F9FB0221144806F050FB0421E6
:100BB000124806F04CFB10BD10B501210D4807F09E
:100BC000EEFB40B101210D4806F041FB0C480088C6
:100BD00008B108F0E7F90121064807F0F1FB01210F
:100BE000044807F0D9FB10BD4FF08040406A7047C1
:100BF00000040140001000400008004000080240CE
:100C00000C00002010B596B004460121022006F029
:100C1000DDFC0121880506F0D9FC0121102006F039
:100C200019FD072211467A4806F015FB14A806F0B4
:100C3000CFFA8020149002208DF8540000208DF807
:100C4000550001208DF8570014A9714806F078FA74
:100C5000704807F091FC10A807F042FD10940020A6
:100C6000ADF84400ADF846004FF48060ADF84800A0
:100C70000420ADF84A000020ADF84C0010A96548EA
:100C800007F0C8FC01224021624807F0F8FD6248E5
:100C900005F028FD684605F0F0FD4FF0006000907B
:100CA0005C48001D01905D480290002003904020A8
:100CB0000490002005904FF480600690002007907B
:100CC00008904FF48070099000020A9000200B9069
:100CD0000C900D900E9069464F4805F0A5FD00223E
:100CE0004E4940314C4805F000FE01214A4805F0CC
:100CF00008FE0121484805F0D1FD25208DF83C0073
:100D000000208DF83D008DF83E0001208DF83F0059
:100D10000FA804F084FF012240F224413D4807F06F
:100D2000B7FD01213B4807F0FDFC16B010BD10B522
:100D300040F22441374807F0E6FD00285DD03548F1
:100D4000008834488088344805F0EBFD50BB002112
:100D5000314805F0A3FD32492F4805F018FE2E4812
:100D600005F0BFFDC0F140002E49086040202A492F
:100D7000091D0860081F006840F40020091F086072
:100D80000121254805F08AFD26480068122834D143
:100D9000224809F010FE002007F094FF044615F0E9
:100DA000B9F92AE000211C4805F078FD1C491A48D1
:100DB00005F0EDFD184805F094FDC0F1400019491B
:100DC000086040201449091D0860081F006820F4CD
:100DD0000020091F086001210F4805F05FFD114840
:100DE0000068122809D10D48403009F0E4FD0020C8
:100DF00007F068FF044615F08DF910BD10B5072304
:100E000012220949094814F07BFE10BD07487047BB
:100E1000000402400010014040640240000A00202B
:100E2000000030102C000020800A0020400C002020
:100E300000BF704700BFB14A128802F04002002A8A
:100E4000F9D0C2B2AD4B1B1D1A80704700B597B0E8
:100E50000121022006F0BAFB0121880406F0E9FB1B
:100E600007220A21A64806F0F6F907220B21A4481A
:100E700006F0F1F94FF44060119002208DF848001F
:100E800000208DF84A0002208DF8490000208DF8DE
:100E90004B0011A99A4806F053F9984807F06CFBEB
:100EA00013A807F01DFC4FF4E13013900020ADF8BB
:100EB0005000ADF85200ADF854000820ADF85600CF
:100EC0000020ADF8580013A98C4807F0A3FB0121BE
:100ED0008A4807F027FC01228021884807F0CFFCD0
:100EE0000021884805F0DAFC864805F0FBFB00BFCE
:100EF000844805F020FD0028FAD14FF000600190F1
:100F00007E48001D029080480390402004900020FD
:100F1000059006904FF4806007900020089009909B
:100F20000A904FF480300B9000200C9003200D901D
:100F300000200E900F9001A9724805F075FC0E205C
:100F40008DF8400002208DF8410001208DF842000C
:100F50008DF8430010A804F062FE012210216948B8
:100F600005F029FD17B000BD70B504460D462946B1
:100F7000204605F0B4FC0121204605F08FFC70BD31
:100F800010B54FF0C0515F4805F0E5FC40B10021BD
:100F90005C4805F083FC4FF0C0515A4805F0F7FC5F
:100FA00010BD70B504460025574D05F8014B0121D1
:100FB0005448FFF7D9FF70BD2DE9F04105460E46B4
:100FC00000240027504F00BF03E0285D3855601C07
:100FD00084B2B442F9DB31464A48FFF7C5FFBDE8A9
:100FE000F08100B597B00121022006F0EFFA01214F
:100FF000480506F0EBFA0121880406F01AFB0722E7
:101000000A213F4806F027F907220B213C4806F049
:1010100022F94FF44060119002208DF84800002022
:101020008DF84A0002208DF8490000208DF84B0011
:1010300011A9334806F084F8304807F09DFA4FF4C0
:10104000E13013900020ADF85000ADF85200ADF83B
:1010500054000C20ADF856000020ADF8580013A93C
:10106000264807F0D7FA01224021244807F007FC60
:101070002448303805F036FB4FF0006001901F48DF
:10108000001D0290214803900020049064200590E8
:10109000002006904FF4806007900020089009908F
:1010A0000A904FF480300B9000200C900D900E9021
:1010B0000F9001A91348303805F0B6FB0121114803
:1010C000303805F0EBFB27208DF8400003208DF829
:1010D00041008DF8420001208DF8430010A804F073
:1010E0009EFD012240F22441044807F0D1FB01217A
:1010F000024807F017FB17B000BD00000048004091
:10110000000402405860024030000020590C0020CA
:1011100001460878704701464E48814201D20020BE
:1011200070474D48814201D20820F9E74B4881427F
:1011300001D21020F4E74A48814201D21820EFE79B
:101140004848814201D22020EAE74748814201D243
:101150002820E5E74548814201D23020E0E74448B5
:10116000814201D23820DBE74248814201D240204F
:10117000D6E74148814201D24820D1E73F48814229
:1011800001D25020CCE75820CAE72DE9FC5F044685
:101190000D4690464FF008090120019000264FF0BF
:1011A000000A4FF0000B002000900027B4F1006F00
:1011B00001D2BDE8FC9F05F035FD002005F015FDCE
:1011C000264604EB080A3046FFF7A5FF8346504643
:1011D000FFF7A1FF00902A48864211D25F460BE03C
:1011E0000221384605F06AFD8146B9F1080F02D0A8
:1011F0000020019003E0083700988742F0D900BF33
:10120000B9F1080F0ED10AE02978204605F051FE09
:10121000082802D00020019003E0641C6D1C544596
:10122000F2D300BF012005F0E0FC05F008FD0198B5
:10123000BFE72DE9F04107460D461646002405E0BC
:101240003846FFF765FF28557F1C641CB442F7D36E
:10125000BDE8F081004000080080000800C00008E0
:101260000000010800000208000004080000060851
:101270000000080800000A0800000C0800000E0822
:101280000000FF1F30B502460B464FF6FF700021ED
:1012900012E0555C684000240AE000F0010525B129
:1012A0004AF2010585EA600000E04010651CECB2DE
:1012B000082CF2DB4D1CE9B29942EADB30BD70B577
:1012C0008CB006460020089009900A900B9004907C
:1012D000059006900790019002900390002500244D
:1012E0000CE056F8240008A941F8240008A850F89A
:1012F000240004A941F82400601CC4B2042CF0DBD3
:10130000002411E004A810F8240001A901F8140039
:1013100004A830F82400C0F30720012101EB4401A8
:1013200001AA5054601CC4B2042CEBDB082101A8B4
:10133000FFF7A8FF05462846E91705EB11610912DA
:10134000A5EB0121C9B28DF80C10E91705EB11616D
:10135000090A8DF80D100A2101A8FFF72DFE0CB027
:1013600070BD000000B597B00121042006F02EF9F1
:101370000121C80406F05DF908220A21984805F009
:101380006AFF08220B21964805F065FF01214805F8
:1013900006F01CF94FF44060119002208DF84800CF
:1013A00000208DF84A0003208DF8490001208DF8B7
:1013B0004B0011A98A4805F0C3FE4FF4E1301390A9
:1013C0000020ADF85000ADF85200ADF854000C20EC
:1013D000ADF856000020ADF8580013A9814807F079
:1013E00019F9012240217F4807F049FA7E4805F0AB
:1013F00079F901A805F041FA4FF0006001907948B1
:10140000001D029079480390002004902020059050
:10141000002006904FF4806007900020089009900B
:101420000A904FF480300B9000200C900D900E909D
:101430000F9001A96C4805F0F7F901216A4805F001
:101440002DFA34208DF8400002208DF84100012053
:101450008DF842008DF8430010A804F0E0FB012253
:101460008021604807F00BFA00215F48303005F01A
:1014700015FA5D48303005F035F900BF5A48303074
:1014800005F059FA0028F9D14FF000600190554855
:10149000001D0290564803904020049000200590C3
:1014A00006904FF4806007900020089009900A9001
:1014B0004FF480300B9000200C9003200D90002002
:1014C0000E900F9001A94848303005F0ADF90F207B
:1014D0008DF8400002208DF8410001208DF8420077
:1014E0008DF8430010A804F09AFB012210213E4819
:1014F000303005F060FA012240F22441394807F00B
:10150000C7F90121374807F00DF917B000BD10B534
:10151000002440F22441334807F0F5F9F0B1314896
:1015200000883048001D008800212F4805F0B6F9DA
:1015300030492D4805F02BFA2B4805F0D2F9C0F1BF
:101540002000C4B22949204610F090FA20212648F4
:1015500005F0C5F90121244805F0A0F910BD70B5CA
:1015600004460D462946204605F0B9F901212046DA
:1015700005F094F970BD10B51F491B48303005F0D7
:10158000EAF948B100211848303005F087F91A49C6
:101590001548303005F0FBF910BD70B50446002544
:1015A000134D05F8014B01210F483030FFF7D7FFED
:1015B00070BD2DE9F04105460E46002400270C4F72
:1015C00000BF03E0285D3855601C84B2B442F9DBEB
:1015D000314605483030FFF7C2FFBDE8F08100001A
:1015E00000080240004C004040600240BD0C00205A
:1015F000DD0C0020000030102000002000B597B066
:101600000121042005F0E2FF0121082005F0DEFFA2
:101610000121080506F00DF808220C21FE4805F00E
:101620001AFE08220221FD4805F015FE0121480599
:1016300005F0CCFF02208DF8480000208DF84A000C
:101640004FF48050119001208DF84B0003208DF84D
:10165000490011A9F04805F073FD02208DF84800FB
:1016600000208DF84A000420119001208DF84B00D5
:1016700003208DF8490011A9E84805F061FD4FF4F9
:10168000E13013900C20ADF856000020ADF8540066
:10169000ADF85200ADF85000ADF8580013A9E0487D
:1016A00006F0B8FF0121DE4807F03CF80122402196
:1016B000DB4807F0E4F8DB4805F014F801A805F072
:1016C000DCF84FF000600190D548001D0290D6482C
:1016D00003900020049064200590002006904FF4B1
:1016E000806007900020089009900A904FF48030A5
:1016F0000B9000200C900D900E900F9001A9C948FE
:1017000005F092F80121C74805F0C8F835208DF89A
:10171000400003208DF8410001208DF842008DF833
:10172000430010A804F07BFA012240F22551BC4886
:1017300007F0AEF80021BB48A83005F0AFF8B94873
:10174000A83004F0CFFF00BFB648A83005F0F3F88A
:101750000028F9D14FF000600190B148001D0290BF
:10176000B248039040200490642005900020069029
:101770004FF4806007900020089009900A904FF481
:1017800080300B9000200C9003200D9000200E90D4
:101790000F9001A9A348A83005F046F82F208DF836
:1017A000400002208DF8410001208DF842008DF8A4
:1017B000430010A804F033FA012210219948A83000
:1017C00005F0F9F8012240F22441954807F060F84D
:1017D0000121934806F0A6FF17B000BD10B52DED0E
:1017E0000C8B00247DE29048005D6F2879D1601E4B
:1017F0008D49085C5628F9D1201D085C2E2872D12D
:10180000E01D085C20286ED1894890ED000AF7EEB3
:10181000000A30EE200A80ED000AA01C085C303877
:1018200000EE100AB8EEC00A824880ED000AE01C03
:10183000085C303800EE100AB8EEC00A7E4880ED31
:10184000000A601D085C303800EE100AB8EEC00ACD
:101850007A4880ED000AA01D085C303800EE100ABE
:10186000B8EEC00A764880ED000A006814F0BAFEAF
:1018700041EC1B0B9FED730B53EC102B14F07BFD15
:1018800041EC190B6D48006814F0ACFE41EC1D0BE7
:101890009FED6E0B53EC102B14F06DFD41EC1B0B08
:1018A000654890ED000A6348D0ED000AB2EE041AD4
:1018B00000EE810A10EE101A084614F093FE41EC77
:1018C0001C0B53EC1B2B14F0AFFC41EC1A0B53EC2C
:1018D000192B14F0A9FC41EC180B14F0C7FE5D495C
:1018E00008606CE0FFE75049E01C085C2E2866D1D8
:1018F000A01D085C202862D14D4890ED000AF7EE4B
:10190000000A30EE200A80ED000AA01C085C303886
:1019100000EE100AB8EEC00A474880ED000A201D0C
:10192000085C303800EE100AB8EEC00A434880ED7B
:10193000000A601D085C303800EE100AB8EEC00ADC
:101940003F4880ED000A006814F04CFE41EC1B0B90
:101950009FED3C0B53EC102B14F00DFD41EC190BDB
:101960003648006814F03EFE41EC1D0B9FED370B2E
:1019700053EC102B14F0FFFC41EC1B0B2E4890EDA8
:10198000000A2C48D0ED000AB2EE041A00EE810ADB
:1019900010EE101A084614F025FE41EC1C0B53EC17
:1019A0001B2B14F041FC41EC1A0B53EC192B14F0D7
:1019B0003BFC41EC180B14F059FE264908601A480C
:1019C000005D73287DD1601E1749085C5028F9D14D
:1019D000201D085C2E2875D1E01D085C0D2871D1F2
:1019E00004F10800085C0A286CD11B4890ED000A3D
:1019F000F7EE000A30EE200A80ED000AA01C085C19
:101A0000303800EE100AB8EEC00A144880ED000A23
:101A1000E01C085C303823E000080240000C024063
:101A20000050004010600240A30D0020070E00206F
:101A3000C80000209C000020A0000020A40000207E
:101A4000A80000207B14AE47E17A843F9A999999C7
:101A50009999B93FAC000020CC000020B0000020D4
:101A600000EE100AB8EEC00ADA4880ED000A601DE8
:101A7000085C303800EE100AB8EEC00AD64880ED97
:101A8000000AA01D085C303800EE100AB8EEC00A4B
:101A9000D24880ED000A006814F0A4FD41EC1B0B55
:101AA0001FED180B53EC102B14F065FC41EC190BD7
:101AB000C948006814F096FD41EC1D0B1FED1D0B8D
:101AC00001E00DE127E053EC102B14F054FC41EC45
:101AD0001B0BC04890ED000AC148D0ED000AB2EEE1
:101AE000041A00EE810A10EE101A084614F07AFD6E
:101AF00041EC1C0B53EC1B2B14F096FB41EC1A0B26
:101B000053EC192B14F090FB41EC180B14F0AEFDC4
:101B1000B4490860E4E0B449601D085C2E287DD11A
:101B200004F10800085C0D287ED104F10900085C6E
:101B30000A2879D1A01C085C303800EE100AB8EEF3
:101B4000C00AAA4880ED000AE01C085C303800EEAC
:101B5000100AB8EEC00AA24880ED000A201D085CF9
:101B6000303800EE100AB8EEC00A9A4880ED000A3C
:101B7000A01D085C303800EE100AB8EEC00A964886
:101B800080ED000AE01D085C303800EE100AB8EE67
:101B9000C00A924880ED000A006814F023FD41EC71
:101BA0001B0B1FED580B53EC102B14F0E4FB41EC16
:101BB000180B8948006814F015FD41EC1D0B1FED52
:101BC0005D0B53EC102B14F0D6FB41EC1B0B87483C
:101BD00090ED000ADFED860A20EE200A8048D0ED65
:101BE000000AB2EE041A00EE810A7A48D0ED000A2B
:101BF00030EE200A10EE101A084614F0F3FC41EC07
:101C00001C0B53EC1B2B14F00FFB41EC1A0B53EC89
:101C1000182B14F009FB41EC190B00E004E014F060
:101C200025FD704908605BE06F49E01C085C2E28C8
:101C300056D1A01D085C0D2852D1E01D085C0A2871
:101C40004ED1A01C085C303800EE100AB8EEC00A75
:101C5000604880ED000A201D085C303800EE100A54
:101C6000B8EEC00A5C4880ED000A601D085C3038A0
:101C700000EE100AB8EEC00A584880ED000A00686D
:101C800014F0B0FC41EC1B0B1FED920B53EC102B2E
:101C900014F071FB41EC190B4F48006814F0A2FCE2
:101CA00041EC1D0B1FED970B53EC102B14F063FB55
:101CB00041EC1B0B4748006814F094FC41EC1C0BF2
:101CC00053EC1B2B14F0B0FA41EC1A0B53EC192B0C
:101CD00014F0AAFA41EC180B14F0C8FC4149086052
:101CE000641C444800788442FFF67DADBDEC0C8B4B
:101CF00010BD10B540F225513F4806F004FEC0B1BA
:101D00003D4800883C48808800213C4804F0C6FDDE
:101D10003B493A4804F03BFE384804F0E2FDC0F18C
:101D2000640034490870FFF759FD0121334804F07D
:101D3000B5FD10BD70B505460C464FF020512F483B
:101D4000A83004F024FE012280212B4806F097FDE4
:101D500000212A48A83004F0A1FD00BF2748A83080
:101D600004F0E9FD0028F9D121462448A83004F008
:101D7000B6FD01212148A83004F090FD70BD10B5DA
:101D80004FF020511D48A83004F0E5FD50B100216E
:101D90001A48A83004F082FD4FF020511748A830AF
:101DA00004F0F5FD10BD2DE9F04105460E46002476
:101DB0000027144F00BF03E0285D3855601C84B233
:101DC000B442F9DB31460D48A830FFF7B3FFBDE858
:101DD000F0810000B4000020B8000020BC0000200A
:101DE000B0000020C4000020A30D0020C00000208F
:101DF0000000C842980000200050004010600240DF
:101E000030000010070E002010B545F2555006F0C6
:101E1000C9FE002006F0C9FE642006F0C9FE06F0E7
:101E2000CAFE06F0CDFE10BDF0B503460C4618887C
:101E3000002113E0675C80EA072000250BE04600E4
:101E400000F4004CBCF1000F03D041F2210C86EAF3
:101E50000C0630466D1C082DF1D3491C9142E9D384
:101E60001880F0BD00B597B00121042005F0AEFB4D
:101E70000121880505F0AAFB0121202005F0EAFBDD
:101E800008220621FE4805F0E6F908220721FC4851
:101E900005F0E1F9C020119002208DF848000020E3
:101EA0008DF84A0002208DF8490000208DF84B0083
:101EB00011A9F34805F044F9F24806F05DFB4FF430
:101EC000E13013900020ADF85000ADF85200ADF8AD
:101ED00054000C20ADF856000020ADF8580013A9AE
:101EE000E84806F097FB01224021E64806F0C7FCCF
:101EF000E54804F0F7FB4FF020600190E148001D39
:101F00000290E24803900020049064200590002095
:101F100006904FF4806007900020089009900A9086
:101F20004FF480300B9000200C900D900E900F908D
:101F300001A9D54804F078FC0121D34804F0AEFC97
:101F400047208DF8400003208DF841008DF84200B5
:101F500001208DF8430010A803F061FE012240F239
:101F60002441C84806F094FC0121C64806F0DAFB7B
:101F700017B000BD2DE9F84300270020009000268F
:101F80008046062540F22441BE4806F0BCFC0028ED
:101F900073D0BC480088BB48001D00880021BA48A7
:101FA00004F07CFCBA49B84804F0F1FCB64804F0EF
:101FB00098FCC0F16400C6B2B648407800285DD0F5
:101FC0000020B24981F86300B2484078C0F3800035
:101FD00078B1B1A1AD4814F000F9B04908600846E5
:101FE000006830B1AB48007820F00400001DA9491A
:101FF0000870A848407800F0010078B1A6A1A34875
:1020000014F0EBF8A54908600846006830B1A14813
:10201000007820F00100401C9E4908709D484078DF
:10202000C0F3400078B19CA1984814F0D6F89B49C1
:1020300008600846006830B19648007820F0020039
:10204000801C9449087093484078C0F3C00078B170
:1020500093A18E4814F0C1F89049086008460068C2
:1020600030B18C48007820F00800083089490870A9
:102070006421864814F0A6F84EE155E183480078C3
:102080005A28F9D181484078A528F5D17F48807831
:102090007E49C97800EB0120801DB042ECD1082EAA
:1020A000EADB042279496846FFF7BEFEB21F774992
:1020B000891D6846FFF7B8FE74480079734949796D
:1020C00000EB012087B2BDF80000B842D4D106254C
:1020D0001FE16E4844192078C02869D008DC902898
:1020E0000FD0A02813D0A5282CD0B0287BD144E055
:1020F000D0287CD0D12878D0D92877D0F028F5D135
:1021000001E160786B490870A81CC5B200E16078F5
:10211000A17800EB012000B26649A1F80100E07847
:10212000217900EB012000B26249A1F80300607937
:10213000A17900EB012000B25E49A1F80500E81D7D
:10214000C5B2E5E06078A17800EB012000B2594902
:10215000A1F80700E078217900EB012000B2554991
:10216000A1F809006079A17900EB012000B2514982
:10217000A1F80B00E81DC5B2CAE06078A17800EBB9
:10218000012000B24B49A1F80D00E078217900EB65
:10219000012000B24749A1F80F006079A17900EB56
:1021A000012000B24349A1F81100E81DC5B2AFE01B
:1021B0006078A17800EB012000B23E49A1F813003D
:1021C000E078217900EB012000B23A49A1F815002E
:1021D0006079A17900EB012000B23649A1F817001F
:1021E000E81DC5B294E091E001E079E068E0607834
:1021F000A17800EB012000B22E49A1F81900E07887
:10220000217900EB012000B22A49A1F81B00607976
:10221000A17900EB012000B22649A1F81D00084673
:10222000B0F9190000EE100AB8EEC00ADFED220A7C
:1022300020EE200A10EE100AC1F83B000846B0F963
:102240001B0000EE100AB8EEC00ADFED1B0A20EEFC
:10225000200A10EE100AC1F83F000846B0F91D0030
:1022600000EE100AB8EEC00ADFED140A20EE200AD4
:1022700010EE100AC1F84300E81DC5B248E00000A6
:10228000000802400014014028640240B20E002001
:10229000000C0010D40000204F4B0000D80000209C
:1022A0006E6577207061636B6574206974656D730A
:1022B000000000006B0E00200AD7233CCDCCCC3DA3
:1022C0009B4854F8011FC0F81F106168C0F8231024
:1022D000A168641EC0F8271005F10D00C5B217E013
:1022E000934854F8011FC0F82B106168C0F82F10F4
:1022F000A168C0F83310E168641EC0F8371005F11A
:102300001100C5B204E0681DC5B201E0354600BF4A
:1023100000BFB542FFF6DDAE6421864804F0DFFA67
:102320000121844804F0BAFABDE8F88310B580486A
:10233000B0F91100404200EE100AB8EEC00A5FED9D
:10234000210A20EE200A7C4880ED000A7848B0F986
:102350000F00404200EE100AB8EEC00A5FED290AF5
:1023600020EE200A754880ED000A754890ED000ABD
:10237000744880ED000A6E48D0F8430000EE100A61
:10238000B1EE400A6E4880ED000A90ED000A6D48FB
:10239000D0ED000A30EE600ADFED6B0AB4EEE00A21
:1023A000F1EE10FA05DB69480068401E67490860D5
:1023B00013E0634890ED000A6248D0ED000A30EE69
:1023C000600ADFED630AB4EEE00AF1EE10FA04D819
:1023D0005E480068401C5D4908605C4800684FF436
:1023E000B471484300EE100AB8EEC00A5448D0ED6C
:1023F000000A30EE200A574880ED000A4C48D0F819
:102400003B0055490860012006F05CFC044613F0CF
:1024100081FE10BD10B504460DE021464FA014F01A
:1024200075FA5148407820F00200801C4E494870EF
:102430006420FEF72FFA4C480078C0F340000028D3
:10244000EBD04948407820F002004749487010BD61
:1024500010B504460DE0214644A014F057FA424856
:10246000407820F00400001D3F4948706420FEF7CA
:1024700011FA3D480078C0F380000028EBD03A48BC
:10248000407820F004003849487010BD10B504466B
:102490000DE0214639A014F039FA3348407820F095
:1024A00008000830304948706420FEF7F3F92E48E0
:1024B0000078C0F3C0000028EBD02B48407820F013
:1024C00008002949487010BD10B504460DE02146AA
:1024D0002EA014F01BFA2448407820F00100401C84
:1024E000214948706420FEF7D5F91F48007800F0B4
:1024F00001000028EBD01C48407820F001001A4968
:10250000487010BD10B525A014F000FA10BD10B52C
:1025100025A0FFF7D9FF25A0FFF79AFF25A0FFF719
:1025200079FF26A0FFF7B2FFFFF7ECFF10BD000018
:102530006B0E0020286402402C0700202807002092
:10254000E0000020DC0000200000A543E4000020A3
:102550000000A5C31C0700202007002041542B4F7A
:1025600044523D25730D0A00D400002041542B42F3
:102570004155443D25730D0A0000000041542B5382
:10258000455450544C3D25730D0A000041542B45D1
:102590004F55543D25730D0A0000000041542B5245
:1025A00053540D0A00000000300000003131353274
:1025B00030300000313030300000000041302C421B
:1025C000302C43302C44302C44390000F9A07047A3
:1025D000FA48704770B505460C46204615F0EAFBF0
:1025E00070BD70B505460C46204615F0BBFB70BDAE
:1025F0002DE9F05F0546884692462C46A06800EB20
:1026000008096068484525D2D4F814B060684600CF
:10261000BBF1000F01D1DFF8A8B300E076004E4512
:10262000FCD33146584602F035FE07460FB9BDE8E7
:10263000F09F3846D4E9022113F09DFD206920B1B6
:102640005846E16802F02EFE01E001202061E760BB
:10265000666000BFD4E9022188184246514613F053
:102660008AFDC4F8089000BFE1E70146102901D2B5
:1026700001207047B1F5006F01D20220F9E7B1F5F2
:10268000802F01D20320F4E7B1F1007F01D20420B2
:10269000EFE70520EDE70146802901D201207047D0
:1026A000B1F5804F01D20220F9E7B1F5001F01D248
:1026B0000320F4E7B1F1805F01D20420EFE70520A9
:1026C000EDE70146002901DA0A207047802901DA86
:1026D0000120FAE7B1F5804F01DA0220F5E7B1F504
:1026E000001F01DA0320F0E7B1F1805F01DA042076
:1026F000EBE70520E9E770B505460E4634461CB900
:102700002846FFF7C8FF70BD082C01D20520FAE764
:10271000B4F5806F01D20620F5E7B4F5003F01D291
:102720000720F0E7B4F1807F01D20820EBE7B4F195
:10273000004F01D20920E6E70A20E4E72DE9F05F27
:1027400080460D4692460026DAF8007015B9002042
:10275000BDE8F09FD8F80400FFF787FF814698F89E
:102760001C0000F0010008B909FB05F998F8090000
:10277000112814D2DFE800F0150948392B4E204902
:102780003A4F4A50541456667300002405E057F837
:10279000240002F0CDFD0644641CAC42F7D36EE089
:1027A00000BF002405E057F82400FFF78AFF064425
:1027B000641CAC42F7D362E0002405E057F8240023
:1027C000FFF769FF0644641CAC42F7D357E00024CE
:1027D00008E007EBC400D0E90021104602F0B1FD8B
:1027E0000644641CAC42F4D349E000BF002408E076
:1027F00007EBC401D1E900211046FFF77CFF064436
:10280000641CAC42F4D33AE000BF00BF042000FBDC
:10281000056634E000BF00BF082000FB05662EE01F
:102820002E442CE000240AE057F8240013F0E7FCC3
:1028300083465846FFF72FFF58440644641CAC42B9
:10284000F2D31CE0002407E057F834B05846FFF7F5
:1028500022FF58440644641CAC42F5D30FE0002428
:102860000AE057F8240000F0D6F883465846FFF7F0
:1028700012FF58440644641CAC42F2D300BF00BFB0
:1028800098F81C0000F0010018B13046FFF703FF74
:10289000814409EB06005BE770B505460C4600264F
:1028A000687A112860D2DFE800F01211141D1C1F95
:1028B00013151E202D3909104D575800206808B9EE
:1028C000012000E00020064650E000BF00BF00BF2E
:1028D00000BF00BF206808B9012000E000200646C4
:1028E00044E000BF00BF00BF00BF00210846D4E99C
:1028F000003259405040014301D1012000E0002046
:10290000064633E094ED000AB5EEC00AF1EE10FA87
:1029100001D1012000E00020064627E094ED001BD5
:10292000B0EE410AF0EE610A53EC102B9FED251B2F
:1029300051EC110B13F06AFE01D1012000E00020E0
:10294000064613E0206810B12068007808B901201D
:1029500000E00020064609E000BF206808B9012019
:1029600000E00020064601E0012600BF00BF30461F
:1029700070BD70B504460D4629462046FFF78CFF12
:1029800008B1002070BD2946204600F0B0F8F9E7F4
:1029900070B504460E461546607A102802D0607A5B
:1029A0000E2814D1296811B1A06988420ED10020E7
:1029B00070BD0000312E332E33000000FB4D0F00A0
:1029C000E8000020000000000000000002E00EB956
:1029D0000020EDE72946204600F089F8E8E770B5C9
:1029E00004460E4615466068B04201D0002070BD16
:1029F000607A102802D0607A0E2807D1296811B1B8
:102A0000A069884201D10020F1E700BF2946204695
:102A100000F06DF8EBE72DE9F04705460027286840
:102A20000068FA49884200D105E040F2CB22F8A1C3
:102A3000FC4813F012F8002643E02868C06906EB52
:102A4000460101EBC60100EB8104206900EB05099A
:102A5000E06800EB0508207A28B94946204600F0D6
:102A600046F807442CE0207A012802D0207A032877
:102A70000BD1207F00F0040038B14A462046D8F838
:102A80000010FFF7ACFF07441AE0207A012807D1B5
:102A90004A462046D8F80010FFF77AFF07440FE0B7
:102AA000207A032805D149462046FFF762FF0744F4
:102AB00006E04A462046D8F80010FFF73FFE0744DC
:102AC000761C28688069B042B7D8002609E0A8685B
:102AD00000EB06142068FFF7C8FDA168084407440E
:102AE000761C6868B042F2D83846BDE8F0872DE918
:102AF000F04106460D467068FFF7B7FD0446707A50
:102B000011285BD2DFE800F0100929211A2C152AC0
:102B1000222D3234300F37454C00286802F008FC73
:102B20002044BDE8F08100BF2868FFF7CAFD2044BB
:102B3000F7E72868FFF7AFFD2044F2E7D5E9002169
:102B4000104602F0FEFB2044EBE700BFD5E9002170
:102B50001046FFF7D0FD2044E3E700BF201DE0E76B
:102B600000BF04F10800DCE7601CDAE7201DD8E7AD
:102B700004F10800D5E72F681FB1384613F03FFB7A
:102B800000E0002080464046FFF785FD2044404499
:102B9000C7E72F683846FFF77EFD20443844C0E77A
:102BA0002F681FB13846FFF736FF00E0002080464F
:102BB0004046FFF770FD20444044B2E740F2CD129A
:102BC00093A199A012F049FF30B502460020802A57
:102BD00021D3D3B243F080050346401CCD54D20923
:102BE000802A18D3D3B243F080050346401CCD544D
:102BF000D209802A0FD3D3B243F080050346401C8C
:102C0000CD54D209802A06D3D3B243F080050346BF
:102C1000401CCD54D2090346401CCA5430BD70B587
:102C200005460C46002D1CDAE8B240F0800020700A
:102C3000802040EAE5106070802040EAA530A07056
:102C4000802040EA6550E070802040EA25702071C5
:102C5000FF202072E071A0716071012060720A2073
:102C600070BD21462846FFF7AFFFF9E72DE9F04791
:102C700007468846144645463E462DB9214630460D
:102C8000FFF7A2FFBDE8F087F0B240F080002070AF
:102C9000802040EAD6106070802040EA9630A07014
:102CA000802040EA5650E070082D05D2280140EA05
:102CB000167020710520E5E76807400E40EA16709F
:102CC00040F080002071ED084FF0050907E0E8B200
:102CD00040F08002484609F101092254ED09802D97
:102CE000F5D2484609F1010925544846CAE72DE9BD
:102CF000F04104460D46B4F1005F05D2E0002946DC
:102D0000FFF762FFBDE8F0810020C00040EA547187
:102D1000E6002A463046FFF7A9FFF3E770B5044600
:102D20000D4629462068FFF7E2FF064628782179FC
:102D300008432870A819D4E9022113F01CFAA068EE
:102D4000304470BD2DE9F05F81460E4614462146A1
:102D5000D9F80400FFF7CBFF054699F809001128C0
:102D600053D2DFE800F01309382D23441B392E45D8
:102D70003A4663126B8BA10020782070611930688D
:102D800002F0ECFA2844BDE8F09F00BF20782070E4
:102D900061193068FFF743FF2844F4E7207820707A
:102DA00061193068FFF710FF2844ECE720782070A5
:102DB0006219D6E90071384602F0DBFA2844E2E7EE
:102DC00000BF207820706219D6E900713846FFF7FD
:102DD0004DFF2844D7E700BF00BF207840F0050032
:102DE00020706119306802F0D3FA2844CBE700BFA5
:102DF00000BF207840F0010020706219D6E9007110
:102E0000384602F0C9FA2844BDE757E0F9EEAA288F
:102E10004253505C70726F746F6275662D632E63DF
:102E200000000000D08201083000000020782070EF
:102E30006119306802F0B7FA2844A4E7207840F01E
:102E40000200207004EB0508376827B9002088F8D5
:102E50000000012010E0384613F0D1F982464146C7
:102E60005046FFF7B1FE834608EB0B005246394649
:102E700013F081F90BEB0A00284484E7207840F036
:102E8000020020706719D6F8008039464046FFF7E7
:102E90009BFE824607EB0A004246716813F06BF90D
:102EA0000AEB080028446EE7207840F0020020700A
:102EB0006119306800F01BFA284464E740F271425F
:102EC000AFF2B401AFF2A00012F0C7FD10B5044696
:102ED000112C20D2DFE804F00A090C1211140B0D9A
:102EE00013150E16180F1A1D1B0000BF00BF00BFE0
:102EF00000BF00BF00BF042010BD00BF00BF00BF67
:102F000000BF00BF0820F7E70420F5E700BF04205A
:102F1000F2E70820F0E74FF49E62AFF20C11AFF237
:102F2000F80012F09AFD70B505460E461446E20010
:102F30003146284613F01FF970BD70B505460E46A0
:102F40001446A2003146284613F015F970BD01461B
:102F5000022903D0072901D00A2901D10420704792
:102F6000052903D0092901D00B2901D10820F6E752
:102F70000120F4E72DE9FF4F87B082460D461F463A
:102F80000998D0F800809AF81C0000F00100002891
:102F90006FD01DB900200BB0BDE8F08F3946DAF8CC
:102FA0000400FFF7A4FE8146387840F00200387034
:102FB000CDF818909AF80900FFF7C9FF684305900B
:102FC0000598FFF768FB8346D94407EB09069AF892
:102FD00009000E2870D2DFE800F01C2B075C3A11C4
:102FE0004D085D120913701B00BF00BF2A46414601
:102FF0003046FFF7A2FF06EB850675E000BF00BF75
:103000002A4641463046FFF78EFF06EBC5066BE0C9
:1030100000BFCDF80880002407E0029951F8240091
:103020003146FFF7FCFD0644641CAC42F5D35BE07F
:10303000CDF80880002407E0029951F824003146B9
:1030400002F08CF90644641CAC42F5D34CE0CDF898
:10305000088000240AE0029800EBC40103C932464C
:10306000CDE9000102F085F90644641CAC42F2D3BC
:103070003AE064E0CDF80880002407E0029951F8B6
:1030800024003146FFF7A0FD0644641CAC42F5D392
:103090002AE000BFCDF8088000240AE0029800EB87
:1030A000C40103C93246CDE90001FFF7DFFD064444
:1030B000641CAC42F2D317E00EE0CDF80880002487
:1030C00007E0029951F82400314602F06CF90644F9
:1030D000641CAC42F5D307E040F29A52AFF2D02123
:1030E000AFF2BC2012F0B9FC00BF07EB0900301AA8
:1030F00004900498FFF7CFFA03900398834516D005
:103100000BF101010398884200D106E04FF4B4624C
:10311000AFF20431FBA012F0A0FC07EB090107EBB2
:103120000902501C049A13F026F809F101090698C7
:1031300039180498FFF748FD049848442BE7002607
:103140009AF80900FFF7C2FE8146002407E0BA1989
:1031500041465046FFF7F6FD0644C844641CAC42A5
:10316000F5D3304617E770B504460D461646294696
:103170002046FFF791FB08B1002070BD324629467A
:103180002046FFF7DFFDF8E72DE9F04104460E4643
:1031900015461F46607A102802D0607A0E2808D1A2
:1031A000296811B1A069884202D10020BDE8F081F0
:1031B00002E00EB90020F9E73A4629462046FFF71B
:1031C000C1FDF3E72DE9F04104460E4615461F46C2
:1031D0006068B04202D00020BDE8F081607A10281B
:1031E00002D0607A0E2807D1296811B1A0698842FF
:1031F00001D10020F0E700BF3A4629462046FFF7FC
:10320000A1FDE9E72DE9F04706460F4600243068A6
:103210000068C749884200D106E040F2C652AFF2CA
:103220001041C44812F019FC4FF0000849E0306822
:10323000C06908EB480101EBC80100EB8105286972
:1032400000EB060AE86800EB0609287A30B93A195B
:1032500051462846FFF776FD044430E0287A0128DD
:1032600002D0287A03280CD1287F00F0040040B156
:103270003B1952462846D9F80010FFF7A3FF044433
:103280001DE0287A012808D13B1952462846D9F872
:103290000010FFF779FF044411E0287A032806D1D3
:1032A0003A1951462846FFF75EFF044407E03B19F0
:1032B00052462846D9F80010FFF75CFE044408F196
:1032C0000108306880694045B1D84FF0000808E037
:1032D000B26802EB08103919FFF720FD044408F129
:1032E000010870684045F3D82046BDE8F0872DE915
:1032F000F04106460C4626B9002020700120BDE8AA
:10330000F081611C3046FFF77DFF05462846FFF738
:10331000C2F90746012F04D0E0192A46611C12F0B9
:103320002AFF21462846FFF74FFC2844E7E7FEB571
:1033300004460D4669462068FFF7D9FC06469DF80D
:103340000000217908438DF800006A46314628467E
:103350002B689847D4E9021228462B689847A06842
:103360003044FEBD2DE9FF5F81460D4690461E4666
:10337000002799F809000E2872D2DFE800F0102229
:10338000075B460B34085C0C090D720F00BF00BFD1
:10339000AF0086E000BF00BFEF0082E000BF002466
:1033A0000CE058F824006946FFF739FC82466A466B
:1033B00051463046336898475744641CAC42F0D3BA
:1033C0006CE000240CE058F82400694601F0C6FFC8
:1033D00082466A4651463046336898475744641CD3
:1033E000AC42F0D35AE000240CE058F824006946BF
:1033F000FFF7EAFB82466A465146304633689847F3
:103400005744641CAC42F0D348E000240FE008EBC2
:10341000C4006A46D0E900B1584601F0AAFF8246CE
:103420006A4651463046336898475744641CAC425C
:10343000EDD333E000BF00240FE008EBC4006A4680
:10344000D0E900B15846FFF711FC82466A46514662
:103450003046336898475744641CAC42EDD31DE0B6
:1034600014E000240CE058F82400694601F09BFFAA
:1034700082466A4651463046336898475744641C32
:10348000AC42F0D3284604B0BDE8F09F40F26B7226
:10349000AFF28461AFF2706012F0DFFA00BF38461D
:1034A000F1E7424639463046336898473846EAE7FE
:1034B0002DE9F04780460D461646002798F809008A
:1034C0000E2873D2DFE800F01138075F500C440873
:1034D000600D090E701000BF00BFA800BDE8F087A6
:1034E00000BF00BFE800F9E700BFB146002405E0D7
:1034F00059F82400FFF7E5F80744641CAC42F7D301
:103500005CE0000061637475616C5F6C656E67748C
:10351000685F73697A65203D3D206C656E677468ED
:103520005F73697A655F6D696E202B203100000042
:10353000F9EEAA28D0820108B146002405E059F826
:10354000240001F0F5FE0744641CAC42F7D335E0DB
:10355000B146002405E059F82400FFF79CF8074421
:10356000641CAC42F7D329E0B146002408E009EB23
:10357000C400D0E90021104601F0E3FE0744641CBA
:10358000AC42F4D31AE000BFB146002408E009EBD6
:10359000C400D0E900211046FFF7ADF80744641CD1
:1035A000AC42F4D30AE001E0284697E740F2057206
:1035B000AFF2A471AFF2907012F04FFA00BF38462C
:1035C0008CE72DE9F04F85B004460F4692461D4624
:1035D000DAF800801FB9002005B0BDE8F08F207F29
:1035E00000F0010000282FD069466068FFF77FFBDC
:1035F0000646424639462046FFF75AFF81469DF867
:10360000000040F002008DF800000DEB0601484676
:10361000FFF7DAFA06446A46314628462B6898478F
:103620002B46424639462046FFF79CFE8346CB4553
:1036300000D106E040F28972AFF62C01FAA012F038
:103640000CFA06EB0900C7E74FF00009607AFFF7B4
:103650003DFC8346002607E02A464146204600F00E
:10366000C7F88144D844761CBE42F5D34846B3E738
:1036700070B504460D46164629462046FFF70CF95C
:1036800008B1002070BD32462946204600F0B0F84F
:10369000F8E72DE9F04104460E4615461F46607ACC
:1036A000102802D0607A0E2808D1296811B1A069CB
:1036B000884202D10020BDE8F08102E00EB900206E
:1036C000F9E73A462946204600F092F8F3E72DE95B
:1036D000F04104460E4615461F466068B04202D0CF
:1036E0000020BDE8F081607A102802D0607A0E28B0
:1036F00007D1296811B1A069884201D10020F0E703
:1037000000BF3A462946204600F072F8E9E72DE965
:10371000F04705468846002728680068C749884260
:1037200000D106E04FF4F662AFF61C11C44812F067
:1037300094F9002648E02868C06906EB460101EBD1
:10374000C60100EB8104206900EB050AE06800EB8C
:103750000509207A30B942465146204600F048F823
:10376000074430E0207A012802D0207A03280CD1C7
:10377000207F00F0040040B1434652462046D9F86D
:103780000010FFF7A4FF07441DE0207A012808D1AC
:10379000434652462046D9F80010FFF77AFF074407
:1037A00011E0207A032806D1424651462046FFF711
:1037B0005FFF074407E0434652462046D9F8001011
:1037C000FFF7FFFE0744761C28688069B042B2D834
:1037D000002607E0A96801EB06104146FFF7A7FDA8
:1037E0000744761C6868B042F4D83846BDE8F087D4
:1037F0002DE9F047CCB080460E46154647A9D8F8CB
:103800000400FFF774FA044698F80900112874D2EE
:10381000DFE800F01A095F4C3A742A604D75617652
:103820008A199ABAD6009DF81C018DF81C0147AA86
:103830001119306801F092FD044447AA2146284638
:103840002B6898470DE100BF9DF81C018DF81C0105
:1038500047AA11193068FFF7E2F9044447AA214644
:1038600028462B689847FCE09DF81C018DF81C0148
:1038700047AA11193068FFF7A7F9044447AA21465F
:1038800028462B689847ECE09DF81C018DF81C0138
:1038900047A80219D6E90091484601F06AFD0444A0
:1038A00047AA214628462B689847DAE000BF9DF8D2
:1038B0001C018DF81C0147A80219D6E90091484661
:1038C000FFF7D4F9044447AA214628462B689847B5
:1038D000C7E000BF00BF9DF81C0140F005008DF857
:1038E0001C0147AA1119306801F052FD044447AA8F
:1038F000214628462B689847B3E0AAE000BF00BFE6
:103900009DF81C0140F001008DF81C0147A8021928
:10391000D6E90091484601F03FFD044447AA2146FC
:1039200028462B6898479CE09DF81C018DF81C01E7
:1039300047AA1119306801F036FD044447AA214610
:1039400028462B6898478CE037681FB1384612F03C
:1039500056FC00E0002081469DF81C0140F002006A
:103960008DF81C0147A801194846FFF72DF90444BA
:1039700047AA214628462B6898473A464946284692
:103980002B6898474C446CE0B146D9F800709DF81C
:103990001C0140F002008DF81C0147A801193846AF
:1039A000FFF712F9044447AA214628462B68984796
:1039B000D9F80420394628462B6898473C4450E003
:1039C000D6F8009018221F4901A812F0D4FB07A8CE
:1039D00004909DF81C0140F002008DF81C01B9F123
:1039E000000F01D1002704E001A94846FFF78FFE30
:1039F000074647A801193846FFF7E6F8044447AAE6
:103A0000214628462B689847049A394628462B6851
:103A100098473C4400BF0598C8B10698A0B10499E6
:103A200006984268904712E0746D70203D3D20700A
:103A300061796C6F61645F6C656E0000F9EEAA28B5
:103A4000D0820108947E0108049814F08BF900BF1D
:103A500007E040F26C62AFF64841AFF6344011F037
:103A6000FCFF00BF20464CB0BDE8F087F0B506462D
:103A7000144616B94FF0FF30F0BD0022354622E063
:103A800002EB550351F83300A04201DD9D1A19E005
:103A9000581C01EBC000406801EBC3077F68C01BE6
:103AA00051F833703844A04204DC581C57193D1AB1
:103AB000024607E051F83300201A01EBC3077F6884
:103AC0003844D9E700BF012DDAD8B5B101EBC20007
:103AD0004368501C01EBC0004068C71A51F832001F
:103AE000A04209DC51F832003844A04204DD51F80C
:103AF0003200201A1844BFE700BF4FF0FF30BBE789
:103B0000F0B5064615461F46052E01D9052000E0F2
:103B1000304684460878C0F3C3030424087800F0D4
:103B2000F80008B90020F0BD087800F007003870F0
:103B3000087800F0800010B92B600120F3E7012223
:103B400011E0885C00F0800030B1885C00F07F00FC
:103B5000A0400343E41D05E0885CA04003432B60C4
:103B6000501CE0E7521C6245EBD30020DBE710B5A8
:103B70000246002005E011F8014B04F0800303B970
:103B8000401C131EA2F10102F5D110BD2DE9F74F23
:103B900086B081460E463068C569002445E104EBD5
:103BA000440000EBC40005EB8000007A02287AD1C3
:103BB00004EB440000EBC40005EB8000C06800EBA0
:103BC000090704EB440000EBC40005EB800000692A
:103BD00000EB090A04EB440000EBC40005EB800095
:103BE000C06800EB060804EB440000EBC40005EBE2
:103BF00080000069304405903868002851D0D8F81A
:103C00000000002842D004EB440101EBC40105EBA5
:103C10008101487AFFF75AF983463868D8F80020BE
:103C2000104400FB0BF1089801F034FB0490049859
:103C300018B9002009B0BDE8F08F386800FB0BF21E
:103C4000DAF80010049812F096FAD8F8003003FB66
:103C50000BF2059B1968D7F800C0049B0CFB0B30D6
:103C600012F089FA05980168089801F01BFBDAF850
:103C70000010089801F016FBDDE9040108603868BF
:103C8000D8F800100844C8F8000006E03868C8F802
:103C90000000DAF800100598016000203860CAF8CA
:103CA0000000C0E0FFE704EB440000EBC40005EBBC
:103CB0008000007A012808D004EB440000EBC40027
:103CC00005EB8000007A0328EBD104EB440000EB05
:103CD000C40005EB8000C06800EB090B04EB440056
:103CE00000EBC40005EB8000C06830440590002064
:103CF000049004EB440000EBC40005EB8000007F5F
:103D000000F00400D0B105980068B0B9DBF80020DD
:103D10003368D3E90901FFF7A9FE02900298002851
:103D200001DA002086E73068C169029800EB4002A2
:103D300002EBC00001EB800706E075E004EB4400F5
:103D400000EBC40005EB8007386900EB090838690F
:103D500000EB060AB8690390787A0E282FD00F2856
:103D600019D0102839D1D8F800000290DAF80000F4
:103D70000190029870B1019850B1089ADDE90110E4
:103D8000FFF704FF08B9002054E70020049001E089
:103D9000012004902CE0D8F80410DAF804200398ED
:103DA00051B110B143688B4206D01AB120B14368BB
:103DB000934201D1012300E00023049318E0D8F8D6
:103DC0000020DAF800100398824203D0814201D12A
:103DD000012300E0002304930AE0DBF8000020B197
:103DE0000598006808B9012000E00020049000BF99
:103DF00000BF0498B0B1787AFFF768F802904146A6
:103E00005046029A12F0B7F94046029912F0DAF9D8
:103E1000F86830B1DBF80010059801600020CBF89D
:103E2000000000BF00BF00BF641C30688069A04272
:103E30003FF6B5AE0120FDE62DE9F04106460C4601
:103E400017461D46112E31D2DFE806F02122092443
:103E50002515230A26160B172D203132330000BFFB
:103E600000BF04F0030010B10020BDE8F081A008FD
:103E700028600120F9E700BF00BF04F0070008B187
:103E80000020F2E7E00828600120EEE700BF00BF55
:103E900000BF00BF00BF00BF39462046FFF767FEE6
:103EA00028600120E1E72C600120DEE700BF00BFB1
:103EB00000BF0020D9E702460B7803F07F00012AFB
:103EC00017D94B7803F07F0340EAC310022A10D9B8
:103ED0008B7803F07F0340EA8330032A09D9CB783B
:103EE00003F07F0340EA4350042A02D90B7940EAE9
:103EF000037070472DE9F05F81460C46B9F1050F5C
:103F000006D221464846FFF7D6FF0021BDE8F09FC4
:103F1000207800F07F02607800F07F00C117C901AF
:103F200041EA50614FEAC01C104640EA0C0041EAE9
:103F3000E272A17801F07F03D917890341EA934126
:103F400040EA83301143E27802F07F03DA1752052A
:103F500042EAD32240EA435541EA02064FF01C0AE6
:103F600004270EE0E05D00F07F084FEAE87B524650
:103F70004046594612F0DEF805430E430AF1070A9F
:103F80007F1C4F45EED328463146BFE702460B461D
:103F9000002106E0585C00F07F0008B10120704766
:103FA000491C9142F6D30020F9E72DE9F047064677
:103FB00088460EB9BDE8F087356830680068F84972
:103FC000884200D105E040F6FF42F649F64811F07C
:103FD00044FDB8F1000F01D1DFF8D083002030603C
:103FE0000024FAE004EB440101EBC401E86900EBB2
:103FF0008100007F00F0040098B104EB440101EB64
:10400000C401E86900EB8100406804EB440202EB64
:10401000C402E96901EB8201C9687158884200D085
:10402000DAE004EB440101EBC401E86900EB810034
:10403000007A02285FD104EB440101EBC401E86976
:1040400000EB8100C06856F8009004EB440101EBDE
:10405000C401E86900EB810000693758002F49D09E
:1040600004EB440101EBC401E86900EB8100407AF4
:104070000E280CD14FF0000A06E057F82A104046EF
:1040800001F010F90AF1010ACA45F6D32EE004EB5B
:10409000440101EBC401E86900EB8100407A0F287C
:1040A0000DD14FF0000A07E007EBCA004168404617
:1040B00001F0F8F80AF1010ACA45F5D316E004EB5D
:1040C000440101EBC401E86900EB8100407A10284B
:1040D0000CD14FF0000A06E057F82A004146FFF7DE
:1040E00064FF0AF1010ACA45F6D300BF39464046CB
:1040F00001F0D8F86FE004EB440101EBC401E8697A
:1041000000EB8100407A0E2818D104EB440101EB4A
:10411000C401E86900EB8100006937586FB104EB16
:10412000440101EBC401E86900EB81008069B842F9
:1041300003D03946404601F0B5F84CE004EB4401A9
:1041400001EBC401E86900EB8100407A0F281FD120
:1041500004EB440101EBC401E86900EB8100006954
:104160003044476804EB440101EBC401E86900EB0B
:104170008100D0F8189057B1B9F1000F03D0D9F8E9
:104180000400B84203D03946404601F08BF822E0E3
:1041900004EB440101EBC401E86900EB8100407AC3
:1041A000102818D104EB440101EBC401E86900EBCD
:1041B0008100006937586FB104EB440101EBC40181
:1041C000E86900EB81008069B84203D04146384677
:1041D000FFF7EBFE00BF00BF641CA869A0423FF6DA
:1041E00001AF002407E0B06800EB0410C16840464E
:1041F00001F058F8641C7068A042F4D8B06818B197
:104200004046B16801F04EF83146404601F04AF8A8
:1042100000BFCFE62DE9F05F05460E4617469846EB
:10422000D5F80890D9F80C00C41999F80900FEF7E0
:104230004DFE8246D6F800B020680AFB00B100238C
:104240004246284600F0F8FC10B90020BDE8F09F77
:104250002068401C20600120F8E702460B460A2A2D
:1042600000D90A22002105E0585C00F0800000B966
:1042700002E0491C9142F7D300BF914201D10020D6
:104280007047481CFCE72DE9F74F84B00546A86845
:1042900003900398C168069801EB000A0399487AD5
:1042A000FEF714FE029005980168DAF800200298E3
:1042B00000FB02186979286947186979E868441A87
:1042C00000260398407A0E2872D2DFE800F01632FA
:1042D0000791720E4F08920F0910AD1500BF00BF75
:1042E0006979E868401A8608BFE000BF00BF6979B5
:1042F000E868401AC608B8E000BF17E03946204613
:10430000FFF7ABFF8346BBF1000F03D1002007B0DE
:10431000BDE8F08F3946584601F07CF83146761CEE
:1043200048F821005F44A4EB0B0400BF002CE5D14A
:1043300093E018E039462046FFF78FFF8346BBF134
:10434000000F01D10020E2E739465846FFF7B3FDE0
:10435000019001F067F83146761C48F821005F446F
:10436000A4EB0B0400BF002CE4D176E015E0394645
:104370002046FFF772FF8346BBF1000F01D10020FA
:10438000C5E739465846FFF796FD3146761C48F892
:1043900021005F44A4EB0B0400BF002CE7D15CE0DC
:1043A000F9EEAA28102E0008D0820108E8000020AB
:1043B0004DE01AE039462046FFF74FFF8346BBF138
:1043C000000F01D10020A2E739465846FFF792FDC1
:1043D000CDE9000101F02EF83246761C08EBC2024E
:1043E00003C25F44A4EB0B0400BF002CE2D134E015
:1043F00000BF16E039462046FFF72FFF8346BBF18A
:10440000000F01D1002082E739465846FFF772FDC0
:104410003246761C08EBC20203C25F44A4EB0B04D5
:1044200000BF002CE6D118E026464FF000090BE053
:1044300017F80900012801DD002068E717F80900D6
:1044400048F8290009F10109B145F1D305E040F62A
:104450002932FA49FAA011F000FB00BFDAF8000097
:104460003044CAF80000012051E7029806FB00F230
:104470003946404611F07FFEDAF800003044CAF8B1
:104480000000012043E701460E2905D00F2903D083
:10449000102901D0012070470020FCE72DE9F041F0
:1044A00004460F4615461E4601233246394620462D
:1044B00000F0C2FB10B90020BDE8F081A068C06820
:1044C00018B10120A168C96868500120F4E72DE9FE
:1044D000FC5F80460C4616461F46D8F80800C068A8
:1044E00000EB0609D9F8000000285ED0D9F80020BA
:1044F0003368D3E90901FFF7B9FA00900098002862
:1045000002DA0020BDE8FC9F3068C169009800EB2A
:10451000400202EBC00001EB8005687AFEF7D6FC92
:104520000190687A0E2804D00F2812D0102835D1B7
:1045300024E0A246D5F818B0DAF8000040B1DAF865
:104540000000584504D03846DAF8001000F0AAFE02
:1045500025E0A246D5F818B0DAF8040068B1BBF13E
:10456000000F05D0DAF80400DBF80410884204D00C
:104570003846DAF8041000F095FE10E0A246D5F8AF
:1045800018B0DAF8000040B1DAF80000584504D05D
:104590003946DAF80000FFF708FD00E000BF00BF71
:1045A0002046019911F00EFE00BF01233A46214634
:1045B000404600F041FB08B90020A3E7D8F800000E
:1045C000C9F8000001209DE72DE9F04704460D469B
:1045D0009046A768E7B96968481C6860A86800EB5E
:1045E00001162068306020793071E068B060404684
:1045F000E16800F04FFEF060F06810B90020BDE8FF
:10460000F087B2682169F06811F0B5FD0120F6E786
:10461000386900EB0509387A30B101280BD002283F
:104620001CD0032832D107E00123424649462046E8
:1046300000F002FBE3E700BF387F00F0040030B178
:1046400043462A4649462046FFF741FFD7E74346FF
:104650002A4649462046FFF721FFD0E72079022865
:104660000DD1387F00F0010018B9787AFFF70BFF01
:1046700028B12A4649462046FFF705FEBFE74346D4
:104680002A4649462046FFF7C5FDB8E74FF4376292
:104690006A496BA011F0E1F970B504460E46304648
:1046A000616911F08FFD346000255AE005EB45018A
:1046B00001EBC501E06900EB8100806900284FD063
:1046C00005EB450101EBC501E06900EB8100007AD3
:1046D000022845D005EB450303EBC503E26902EB75
:1046E00083021269901905EB450303EBC503E269E8
:1046F00002EB8302916905EB450303EBC503E26915
:1047000002EB8302527A112A28D2DFE802F0090A6A
:104710000B1213140C0D15160E171C0F241F250059
:1047200000BF00BF00BF00BF00BF00BF0A6802603B
:1047300014E000BF00BF00BF00BF00BF0A680260F6
:104740004A6842600AE00A68026007E00A6802609C
:104750004A68426002E000BF016000BF00BF00BFC6
:104760006D1CA069A842A1D870BD70B504460D4665
:104770002846E16A884770BD2DE9FF4FFDB0044629
:10478000DDF8FCA180987C90E0697B904FF00009F7
:1047900000201390129010900DF12C0B0A902949D3
:1047A0002068884200D105E040F6ED32234926A07A
:1047B00011F053F97E9808B931487E9061697E986E
:1047C00000F068FD8046B8F1000F04D100200DF51F
:1047D000017DBDE8F08F2BA81490A069C01DC00812
:1047E0000F900F9810280FD90F997E9800F052FD66
:1047F0008346BBF1000F05D141467E9800F052FD83
:104800000020E4E701200A9058460F9911F0DAFCE5
:10481000E06A20B141462046FFF7A7FF03E041468A
:104820002046FFF739FF1BE108AB09AA50467C99E7
:10483000FFF766F90790079820BBE6E1102E000805
:1048400030000000F9EEAA282864657363292D3E24
:104850006D61676963203D3D2050524F544F425572
:10486000465F435F5F4D4553534147455F44455362
:1048700043524950544F525F4D4147494300000055
:10488000E80000207B9820B17B9840680999884215
:1048900019D0D4E90901099AFFF7E8F801900198C5
:1048A000002804DA00271298401C12900AE0E169FF
:1048B000019800EB400202EBC00001EB80077B9700
:1048C0000198109000E07B9F87B1387A70B91098FA
:1048D0000BEBD0000078109901F007020121914004
:1048E0000843C1B210980BEBD000017007997C9877
:1048F00008447C900798AAEB000A099802909DF85A
:1049000020008DF80C0004977C98069000208DF80C
:104910000D009DF8200030B101281DD0022822D0C2
:10492000052835D12DE0BAF10A0F01D2524600E038
:104930000A221146002006E07C9A125C02F08002F6
:1049400002B902E0401C8842F6D300BF884200D181
:104950005BE1421C05921CE0BAF1080F00D254E161
:104960000820059015E001AA50467C9900F023FD2F
:104970000590059800B948E10198C0B28DF80D0086
:1049800007E0BAF1040F00D23FE10420059000E0F7
:104990003BE100BF09F104000121814013988142ED
:1049A0001AD100201390B9F1160F00D12DE109F1B1
:1049B000010909F10400142101FA00F001900199A4
:1049C0007E9800F067FC14A941F8290014A850F85B
:1049D000290000B919E100BF14A951F82930139931
:1049E0004A1C01EB810103EB81001392142202A9FE
:1049F00011F0C1FB67B3387A022829D1F868404426
:104A000001909DF8200002281CD1387F00F00100A1
:104A100018B9787AFFF737FDA0B19DF80DC0069B55
:104A200003EB0C02059BA3EB0C01787A6B46FFF7B6
:104A300003FA00B9E9E0019800680099014401987F
:104A4000016004E001980068401C0199086000BF03
:104A500005997C9808447C900598AAEB000A00BF51
:104A6000BAF1000F7FF4E0AE00256CE005EB4501E4
:104A700001EBC501E06900EB8107387A02283FD1DC
:104A8000787AFEF723FA0990F8684044089008986D
:104A9000006870B3089800680790002108980160CA
:104AA000D8F8000000B105E040F6A742FB49FCA0A1
:104AB00010F0D3FF079A099800FB02F17E9800F0EE
:104AC000E9FB06900698A8B96D1C0EE005EB4501C0
:104AD00001EBC501E06900EB8107387A022803D1B8
:104AE0000020F96848F801006D1CA069A842EDD8C3
:104AF00074E004E00698396948F8010000BF21E03D
:104B0000387AF8B9B869E8B90BEBD500007805F048
:104B10000702012191400840A0B96D1C0EE005EB91
:104B2000450101EBC501E06900EB8107387A0228F5
:104B300003D10020F96848F801006D1CA069A84263
:104B4000EDD84BE06D1CA069A8428FD8129850B1E7
:104B5000129801017E9800F09DFBC8F80800D8F873
:104B6000080000B93AE00020119021E01198484572
:104B700001D1139804E01198001D012101FA00F001
:104B8000099014A9119851F8207000260AE006EB4C
:104B9000860107EB810041467E9AFFF715FD00B9BB
:104BA0001CE0761C09988642F1D31198401C1190A4
:104BB00011984845DAD9012606E014A850F82610C5
:104BC0007E9800F06FFB761C4E45F6D90A9818B116
:104BD00059467E9800F066FB4046F8E540467E99CF
:104BE000FFF7E3F9012606E014A850F826107E9896
:104BF00000F058FB761C4E45F6D90A9818B1594674
:104C00007E9800F04FFB0020E1E541467E9800F0E1
:104C100049FB012606E014A850F826107E9800F003
:104C200041FB761C4E45F6D90A9818B159467E9834
:104C300000F038FB0020CAE52DE9FF4F83B00446A1
:104C40000D469A46E768D4F810902679A068407A15
:104C5000112870D2DFE800F00A202D3A4655162EB2
:104C60003B562F57680970ABE90000BF1EB100200A
:104C700007B0BDE8F08F4946384600F0CBFB28600E
:104C80000120F5E70EB10020F2E749463846FFF76C
:104C900012F928600120EBE70EB10020E8E7494651
:104CA0003846FFF708F9804600F0BCFB2860012079
:104CB000DEE700BF00BF052E01D00020D8E700BF0F
:104CC000D9F8000000BF28600120D1E700BF0EB175
:104CD0000020CDE749463846FFF70CF9C5E9000149
:104CE0000120C5E70EB10020C2E749463846FFF76C
:104CF00001F9CDE9000100F09DFBC5E900010120AB
:104D0000B6E700BF00BF012E01D00020B0E700BF12
:104D1000D9F800000090D9F804000190DDE90010F6
:104D2000C5E900100120A3E749463846FFF72EF9F0
:104D3000286001209CE7C1E0A84694F805B0022E47
:104D400001D0002094E7BAF1000F13D0D8F800008A
:104D500080B1A06880690290D8F8000048B1D8F806
:104D600000100298814204D0D8F80010059800F095
:104D700099FA00BFA7EB0B00411C059800F08AFAD6
:104D8000C8F80000D8F8000008B9002070E7A7EBC9
:104D90000B0209EB0B01D8F8000011F0ECF9002030
:104DA000A7EB0B02D8F800108854012060E7A84652
:104DB00094F805B0022E01D0002059E7A068806960
:104DC0000290BAF1000F0FD0D8F8040060B1029839
:104DD00028B1D8F8041002984068814204D0D8F86D
:104DE0000410059800F05EFAB7EB0B0014D0A7EBA7
:104DF0000B01059800F04EFAC8F80400D8F804003A
:104E000008B9002034E7A7EB0B0209EB0B01D8F837
:104E1000040011F0B0F902E00020C8F80400A7EB8C
:104E20000B00C8F80000012022E7AB4601200190EA
:104E300060790090022E01D0002019E7A0688069F7
:104E40000290009909EB01037A1AA1684869059953
:104E5000FFF792FC8046BAF1000F16D0DBF8000095
:104E600098B1DBF80010029881420ED0B8F1000F23
:104E700006D0DBF800004146059AFEF787FE019058
:104E8000DBF800000599FFF790F8CBF80080B8F147
:104E9000000F01D0019878B90020E9E6102E000833
:104EA00072762D3E64657363726970746F7220212F
:104EB0003D204E554C4C00000120D9E60020D7E69D
:104EC0002DE9F84F044634B1206820B1206800680D
:104ED000F949884202D00020BDE8F88F4FF0000861
:104EE00090E02068C06908EB480101EBC80100EBC5
:104EF00081056F7A95F8089028690619287F00F0D7
:104F0000040038B1E968081969680268914200D064
:104F100076E000BFB9F1020F44D1E86800EB040A63
:104F2000DAF8000018B1306808B90020D4E7102F73
:104F300013D1306800904FF0000B09E0009951F850
:104F40002B00FFF7BDFF08B90020C5E70BF1010BEF
:104F5000DAF800005845F1D823E00E2F0DD1326861
:104F6000002105E052F8210008B90020B4E7491CEF
:104F7000DAF800008842F5D813E00F2F11D132681B
:104F8000002109E052F8310028B102EBC10040686D
:104F900008B90020A0E7491CDAF800008842F1D8DF
:104FA00000BF2CE0102F0ED1D6F800A0B9F1000FF1
:104FB00002D0BAF1000F05D05046FFF781FF08B9C3
:104FC000002089E71BE00E2F07D13168B9F1000FEF
:104FD00002D109B900207FE711E00F2F0FD1E86857
:104FE00002193146B9F1000F02D01068012805D12D
:104FF000086818B1486808B900206DE700BF00BF15
:1050000008F101082068806940453FF66AAF012039
:1050100062E72DE9F04704460D4616461F46DDF8C7
:1050200020A020684069A84200D905E040F6B952A6
:10503000A249A3A010F011FD04F10C0858F8259026
:1050400053463A4631462046C847BDE8F08770B51A
:1050500004460D461646A6492868884200D105E058
:1050600040F6CE529549A3A010F0F7FC2560A6604B
:10507000AFF2610060606869810004F10C0011F01A
:10508000A1F870BD10B504462046A168884710BD40
:105090002DE9F0470446894600250CB1206A10B975
:1050A0000020BDE8F087E6691FE005EB5607216A9E
:1050B00051F83700494611F0A9F88046B8F1000FC1
:1050C00009D1206A00EBC700406800EB4000A169ED
:1050D00001EB8000E5E7B8F1000F04DAA919781CAC
:1050E0000E1A7D1C00E07E1B00BF012EDDD80EB91C
:1050F0000020D6E7216A51F83500494611F086F8BC
:1051000048B9206A00EBC500406800EB4000A16987
:1051100001EB8000C5E70020C3E770B504460D46EB
:105120002A46D4E90901FEF7A1FC0646002E01DA61
:10513000002070BD06EB4601A06900EB8100F8E796
:105140002DE9F04704468A4600270CB1206A10B9C1
:105150000020BDE8F087A56921E007EB5508206A2B
:1051600050F8280000EB400101EBC000E16901EBC1
:1051700080065146306811F049F88146B9F1000FB8
:1051800001D13046E5E7B9F1000F05DA791908F1E8
:1051900001000D1A074601E0A8EB070500BF012D2D
:1051A000DBD80DB90020D4E7206A50F8270000EBC7
:1051B000400101EBC000E16901EB80065146306817
:1051C00011F024F808B93046C3E70020C1E770B5F4
:1051D00004460D462A46D4E90901FEF747FC064677
:1051E000002E01DA002070BD06EB460101EBC6017E
:1051F000E06900EB8100F6E72DE9F05F044689469F
:1052000000250CB1E06910B90020BDE8F09F666987
:1052100024E005EB5607E06950F827A00AEB4A01A5
:10522000A06950F821B04946584610F0EFFF80467B
:10523000B8F1000F08D1E06950F8270000EB4000FA
:10524000A16901EB8000E0E7B8F1000F04DAA919C9
:10525000781C0E1A7D1C00E07E1B00BF012ED8D8E2
:105260000EB90020D1E7E16951F8251001EB4101A9
:10527000A26952F82100494610F0C8FF40B9E06920
:1052800050F8250000EB4000A16901EB8000BCE76D
:105290000020BAE770B504460D4629462268A0688A
:1052A000904770BD70B504460D461DB12946D4E93E
:1052B0000120904770BD0000F9EEAA28102E0008CA
:1052C0006D6574686F645F696E646578203C2073F7
:1052D0006572766963652D3E646573637269707487
:1052E0006F722D3E6E5F6D6574686F6473000000B1
:1052F000C39B15142864657363726970746F722997
:105300002D3E6D61676963203D3D2050524F544FE3
:105310004255465F435F5F534552564943455F449C
:10532000455343524950544F525F4D414749430002
:1053300070B50446204600F098F80546FDF7ABF935
:1053400070BD2DE9F04104460D462046294600F087
:1053500091F80646FDF7CFF9BDE8F08170B5044637
:105360000D46204600F081F806462946FDF72CFC44
:1053700070BD2DE9F04104460D4690462046294671
:1053800000F078F806464246FDF770FCBDE8F08173
:1053900002460A600420704707B500981060019823
:1053A000506008200EBD02460AB1012000E0002036
:1053B000087001207047F0B504460D461746052CCD
:1053C00001D2204600E0052084460022002600216C
:1053D0000BE0685C00F07F00B0400243F61D685CA3
:1053E00000F0800000B902E0491C6145F1D300BF24
:1053F000614501D10020F0BD4B1C3B60B2F1004F74
:1054000001D30020F7E79818A04201D90020F2E765
:105410009818F0E770B504460D4629462046FEF779
:105420004AFD70BD014601F00100C043401C80EA06
:1054300051007047F0B502460B465D084FEA320650
:105440004FF0010102EA01004FF000046FEA000191
:105450006FEA04044F1C44F100042846254686EAFE
:10546000070480EA05012046F0BD0146480080EAB5
:10547000E170704730B502460B46911843EB0300CC
:1054800081EAE37480EAE371204630BD10B52C4C0C
:105490001ECC80E81E0010BD10B5044629492068C6
:1054A000884200D104E0132227A12CA010F0D5FAE5
:1054B0002046FDF7B0FA10BD70B504460D462149EF
:1054C0002068884200D104E01A221FA123A010F016
:1054D000C4FA29462046FDF795FE70BD70B5044616
:1054E0000D4618492068884200D104E0212216A107
:1054F0001AA010F0B2FA29462046FEF708F970BD4E
:1055000070B504460D46164633462A4621460D48D8
:10551000FFF732F970BD70B504460D4604B970BD91
:1055200008492068884200D104E0342206A10BA07B
:1055300010F093FA29462046FEF737FD00BFEEE74C
:10554000287F0108EC7E01084253505C5369676E66
:10555000616C2E70622D632E630000006D657373A5
:105560006167652D3E626173652E64657363726960
:1055700070746F72203D3D20267369676E616C5FA9
:105580005F64657363726970746F720010B504466E
:1055900020222C49204610F0EEFD10BD10B5044627
:1055A00029492068884200D104E0132227A12EA0B7
:1055B00010F053FA2046FDF72EFA10BD70B50446E0
:1055C0000D4621492068884200D104E01A221FA11B
:1055D00025A010F042FA29462046FDF713FE70BDC3
:1055E00070B504460D4618492068884200D104E091
:1055F000212216A11CA010F030FA29462046FEF701
:1056000086F870BD70B504460D46164633462A46E8
:1056100021460D48FFF7B0F870BD70B504460D4641
:1056200004B970BD08492068884200D104E03422E2
:1056300006A10DA010F011FA29462046FEF7B5FC90
:1056400000BFEEE774800108388001084253505CC7
:10565000547572726574436F6D6D616E642E706205
:105660002D632E63000000006D6573736167652D07
:105670003E626173652E64657363726970746F72E4
:10568000203D3D20267475727265745F636F6D6D89
:10569000616E645F5F64657363726970746F7200DA
:1056A000D0ED000AF4EEC00AF1EE10FA01DD80ED53
:1056B000000AD0ED000AB1EE401AF4EEC10AF1EE94
:1056C00010FA03D2F1EE400AC0ED000A70470364FD
:1056D000C263816380ED000AC0ED010A80ED021A09
:1056E000704780ED000AC0ED010A80ED021ADFED7F
:1056F000FE1AC0ED081ADFEDFC1AC0ED091ADFED45
:10570000FA1AC0ED0A1ADFEDF81AC0ED0B1A70474D
:1057100010B52DED088B0446B0EE408AF0EE608A9D
:1057200084ED048AC4ED038A38EEC80A84ED070AC2
:1057300094ED0C0AB5EEC00AF1EE10FA27D094ED04
:105740000C0A10EE101A084610F04CFF41EC190B31
:1057500094ED070A10EE101A084610F043FF41ECD2
:105760001B0BB0EE4B0AF0EE6B0A11F071FDB0EEC0
:1057700040AAF0EE60AA53EC192B51EC1A0B10F072
:105780005DFF04D29FEDD80ABDEC088B10BDA06B65
:1057900003283ED194ED000AD4ED070A20EE200A3A
:1057A00084ED080A94ED090AD4ED010A94ED071A74
:1057B00000EE810A84ED090A94ED070AD4ED060A89
:1057C00030EE600AD4ED020A20EE200A84ED0A0AC7
:1057D000D4ED100AF8EE600AB0EE600A04F124007D
:1057E000FFF75EFF94ED080AD4ED090A30EE200AB7
:1057F000D4ED0A0A30EE200A84ED0B0AD4ED0F0A2C
:10580000F8EE600AB0EE600A04F12C00FFF748FFE2
:1058100042E0A06B04283FD194ED070AD4ED060ABC
:1058200030EE600AD4ED000A20EE200A84ED080A6A
:1058300094ED010AD4ED070A20EE200A84ED090A4E
:1058400094ED070AD4ED060AB0EE001A01EE600AE4
:10585000D4ED050A30EE200AD4ED020A20EE200A2B
:1058600084ED0A0A94ED080AD4ED090A30EE200A04
:10587000D4ED0A0A30EE200AD4ED0B0A30EE200AED
:1058800084ED0B0AD4ED0F0AF8EE600AB0EE600A60
:1058900004F12C00FFF704FF94ED060A84ED050ADD
:1058A00094ED070A84ED060A94ED0D0AB5EEC00AE0
:1058B000F1EE10FA25D094ED0D0A10EE101A0846FC
:1058C00010F090FE41EC190B94ED0B0A10EE101A3B
:1058D000084610F087FE41EC1B0BB0EE4B0AF0EED1
:1058E0006B0A11F0B5FCB0EE40AAF0EE60AA53ECE2
:1058F000192B51EC1A0B10F089FE02D29FED7A0A97
:1059000042E794ED0B0A3FE710B52DED088B0446F6
:10591000B0EE408AF0EE608A84ED048AC4ED038A1A
:1059200038EEC80A84ED070A94ED0C0AB5EEC00AF9
:10593000F1EE10FA27D094ED0C0A10EE101A08467A
:1059400010F050FE41EC190B94ED070A10EE101AFE
:10595000084610F047FE41EC1B0BB0EE4B0AF0EE90
:105960006B0A11F075FCB0EE40AAF0EE60AA53ECA1
:10597000192B51EC1A0B10F061FE04D29FED5A0A5C
:10598000BDEC088B10BDA06B03283ED194ED000A3E
:10599000D4ED070A20EE200A84ED080A94ED090AE6
:1059A000D4ED010A94ED071A00EE810A84ED090A8C
:1059B00094ED070AD4ED060A30EE600AD4ED020A2F
:1059C00020EE200A84ED0A0AD4ED100AF8EE600AEF
:1059D000B0EE600A04F12400FFF762FE94ED080ABD
:1059E000D4ED090A30EE200AD4ED0A0A30EE200A7E
:1059F00084ED0B0AD4ED0F0AF8EE600AB0EE600AEF
:105A000004F12C00FFF74CFE3EE0A06B04283BD1D4
:105A100094ED070AD4ED060A30EE600AD4ED000AD0
:105A200020EE200A84ED080A94ED010AD4ED070A5D
:105A300020EE200A84ED090A94ED070AD4ED060A47
:105A4000B0EE001A01EE600AD4ED050A30EE200A2D
:105A5000D4ED020A20EE200A84ED0A0A94ED080A29
:105A6000D4ED0A0A30EE200AD4ED0B0A30EE200AFB
:105A700084ED0B0AD4ED0F0AF8EE600AB0EE600A6E
:105A800004F12C00FFF70CFE94ED060A84ED050AE4
:105A900094ED070A84ED060A94ED0D0AB5EEC00AEE
:105AA000F1EE10FA28D094ED0D0A10EE101A084607
:105AB00010F098FD41EC190B94ED0B0A10EE101A42
:105AC000084610F08FFD41EC1B0BB0EE4B0AF0EED8
:105AD0006B0A11F0BDFBB0EE40AAF0EE60AA53ECE9
