:020000040800F2
:100000004824002069690008B5020008B70200080A
:10001000BB020008BF020008C30200080000000085
:10002000000000000000000000000000C7020008FF
:10003000C902000800000000CB020008CD02000841
:1000400083690008836900088369000883690008E0
:1000500083690008836900088369000883690008D0
:1000600083690008836900088369000883690008C0
:10007000836900088369000883690008773B0008EA
:100080008369000883690008836900085F320008FB
:1000900075320008836900088369000883690008D5
:1000A0008369000883690008836900088369000880
:1000B0008369000883690008836900088369000870
:1000C0008369000883690008836900088369000860
:1000D00083690008333500081D3700080B39000814
:1000E0008369000883690008836900088369000840
:1000F0008369000883690008836900088369000830
:10010000836900088369000883690008836900081F
:10011000093B00081D3E0008DF4000088369000815
:1001200083690008836900088369000883690008FF
:10013000836900088369000883690008AF330008F9
:10014000C5330008836900088369000883690008D3
:10015000836900088369000883690008F33F000889
:1001600083690008836900088369000883690008BF
:1001700083690008836900088369000883690008AF
:10018000836900088369000800F002F800F05CF859
:100190000AA090E8000C82448344AAF10107DA45E2
:1001A00001D100F051F8AFF2090EBAE80F0013F0D8
:1001B000010F18BFFB1A43F0010318475CC9000088
:1001C0007CC900000A444FF0000C10F8013B13F00A
:1001D000070408BF10F8014B1D1108BF10F8015BA0
:1001E000641E05D010F8016B641E01F8016BF9D193
:1001F00013F0080F1EBF10F8014BAD1C0C1B09D1EA
:100200006D1E58BF01F801CBFAD505E014F8016B5B
:1002100001F8016B6D1EF9D59142D6D370470000ED
:100220000023002400250026103A28BF78C1FBD8FF
:10023000520728BF30C148BF0B6070471FB50CF094
:100240005AF91FBD10B510BD0AF0C5FA1146FFF7E7
:10025000F5FF00F009F80AF0E3FA03B4FFF7F2FF44
:1002600003BC0AF0A9FA000000F03AF99FED0E1A5B
:10027000DFED0E0AB2EE040A04234FF4FA720321F2
:100280000B4801F09CFF9FED081ADFED070AB3EE63
:100290000E0A42F2107347F24812032104489830C4
:1002A00001F08DFF00BFFEE700000000CDCCCC3D8B
:1002B00028040020704700BFFEE700BFFEE700BF34
:1002C000FEE700BFFEE770477047704770470000C9
:1002D0000CB50020019000907648006840F4803012
:1002E0007449086000BF7348006800F40030009053
:1002F0000198401C0190009818B90198B0F5A06FC2
:10030000F1D16C48006800F4003010B10120009079
:1003100001E0002000900098012846D16548403057
:10032000006840F0805063494031086062480068CE
:1003300040F44040604908605E48083000685D490C
:10034000083108600846006840F40040086008462C
:10035000006840F4A05008605848091F0860081F52
:10036000006840F08070091F086000BF51480068B5
:1003700000F000700028F9D040F205705049086084
:100380004C480830006820F003004A4908310860F2
:100390000846006840F00200086000BF4548083089
:1003A000006800F00C000828F8D10CBD10B54548D5
:1003B000006840F47000434908603E48006840F01F
:1003C00001003C49086000203A490831086039487A
:1003D00000683D490840374908603C48091D0860ED
:1003E000081F006820F48020091F086000203149A0
:1003F0000C310860FFF76CFF4FF000603149803925
:10040000086010BD70B500200022022300240221E4
:10041000284D08352D6805F00C0020B1042806D0C1
:10042000082834D107E02A4D2A4E356033E02A4DA2
:10043000284E35602FE01F4D2D1D2D68C5F38054CB
:100440001C4D2D1D2D6805F03F0154B1224DB5FB0B
:10045000F1F5184E361D3668C6F3881605FB06F210
:1004600009E01B4DB5FBF1F5124E361D3668C6F39B
:10047000881605FB06F20F4D2D1D2D68C5F30145AD
:100480006D1C6B00B2FBF3F5124E356003E0104DAE
:10049000104E356000BF00BF064D08352D68C5F30E
:1004A00003150E4E705D0B4D2D68C540094E35602D
:1004B00070BD000000380240007000400854400742
:1004C000003C024088ED00E0FFFFF6FE1030002403
:1004D0000024F4000000002000127A000400002034
:1004E00010B54FF4A06003F00FFE134802F08CFF2C
:1004F0004FF4E13003F07DF84FF4612003F062F92E
:100500004FF4E13003F029FA4FF4E13003F067FBD8
:100510004FF4E13003F0E6FC0023032208211046EB
:1005200002F02AFE002303220821104602F0BDFE3D
:1005300003F0A4FD10BD0000A086010010B5104816
:100540000068401C0E4908600846006808B100F0C9
:10055000ABF90C490C48D0ED000A0C4890ED000AAC
:100560000B4800F07EF80649086800EBD07149108E
:10057000A0EB410109B901F0C7F801F0B3FE10BDCD
:1005800014000020141500207402002070020020C6
:100590001C00002010B5044604F168030122042168
:1005A00004F1100006F090FC04F17803012202210E
:1005B00004F1380006F088FC04F59073042211461B
:1005C00004F1180006F080FC04F1E0030422114657
:1005D00004F1200006F078FC04F1200104F1180079
:1005E00007F0BBFE04F5D0730422114604F1480065
:1005F00006F06AFC04F5C0730422022104F128000D
:1006000006F062FC04F5B0730222042104F130000C
:1006100006F05AFC04F1300104F1280007F09DFEB9
:1006200004F5F0730222114604F1400006F04CFC80
:1006300004F1A0030422114604F1500006F044FC2A
:1006400004F180030222042104F1580006F03CFC6E
:1006500004F5F8730422114604F1600006F034FC3E
:1006600010BD30B52DED028B95B00446B0EE408A3A
:10067000F0EE608A0D467F48007828B901207D4958
:1006800008707D48FFF786FF7C4B0422114613A8B3
:1006900006F01AFC7A4B0422114611A806F014FC4D
:1006A000784B022204210FA806F00EFC764B0422A0
:1006B00002210DA806F008FC744B022211460BA87B
:1006C00006F002FC724B0222114609A806F0FCFB60
:1006D000704B0122022107A806F0F6FB6E4B0122A7
:1006E000022105A806F0F0FB6C4B0122042103A8AF
:1006F00006F0EAFB6A4B0122042101A806F0E4FBA4
:10070000E06B80ED008AE06BC0ED018A03AA04F182
:10071000100104F1180006F056FF042204F16801EC
:100720005E4809F0C6FB2878002871D013AA04F1AE
:10073000500104F1180006F046FF11AA04F120014F
:1007400013A806F040FF04F1500204F1480111A87B
:1007500006F02AF90FAA04F1300104F1500006F066
:1007600032FF0DAA04F1500104F1280006F02BFF1E
:100770000BAA04F130010DA806F025FF09AA04F127
:1007800040010BA806F010F90BA909A806F0A8FB78
:1007900004F158020BA90FA806F015FF07AA04F1EF
:1007A000100104F1280006F00EFF05AA07A904F1C4
:1007B000380007F07CFD03AA05A904F1580006F0F3
:1007C00002FF01AA03A904F1100006F0EDF80422CB
:1007D00004F16801324809F06CFB13AA04F1280106
:1007E00004F1580006F0EFFE11AA13A904F160000D
:1007F00007F05DFD13AA04F1500111A806F0E3FE15
:10080000102204F1A0011D4809F053FB00202870BC
:10081000606990ED000A84ED000A606990ED010ABC
:1008200084ED010A606990ED020A84ED020A6069B4
:1008300090ED030A84ED030A15B0BDEC028B30BDC8
:1008400010B504460C48FFF7A5FE9FED160A606937
:1008500080ED000A9FED130A606980ED010A9FEDAB
:10086000110A606980ED020A9FED0E0A606980ED51
:10087000030A10BD5C0200201C000020740300204D
:1008800004030020B403002044030020D40300200C
:1008900064030020540200204C020020F4020020D7
:1008A000E40300200000000010B540F25471FE483F
:1008B00009F04DFFB2EE001ADFEDFC0AB2EE0E0AAF
:1008C00004234FF4FA720321F748803001F077FCDB
:1008D0009FEDF71ADFEDF70A9FEDF70A44F6206364
:1008E00046F678120321F54801F069FCB2EE001AD1
:1008F000DFEDF30AB0EE080A04234FF4FA72032185
:10090000E948343001F05BFC9FEDEE1ADFEDEE0AB2
:100910009FEDEE0A42F2107347F248120321E748B6
:100920004C3801F04CFCB2EE001ADFEDE00AB2EEFA
:10093000000A0A23C8220321E54801F040FC9FED8C
:10094000E51ADFEDE50A9FEDE50A46F2A81346F643
:1009500078120321DE484C3001F031FC9FEDD91AAA
:10096000DFEDDF0AB3EE040AC82396220321D8483C
:100970004C3801F024FC9FEDDB1ADFEDD60A9FED29
:10098000DA0A47F268431A460321D148983001F049
:1009900016FC9FEDD01ADFEDD50AB3EE090A142339
:1009A00046220321D24801F00AFC9FEDCA1AF1EE5B
:1009B0000C0A9FEDCD0A44F6206346F2A8120321EB
:1009C000CB484C3001F0FBFBB3EE041ADFEDC70A55
:1009D000B2EE0E0A14233C220321C5484C3801F024
:1009E000EEFB9FEDC41AF1EE000A9FEDC30A46F23A
:1009F000A8131A460321B648983801F0E0FBB0EE80
:100A0000001ADFEDB50AB3EE040A0A23C822032157
:100A1000BA4801F0D4FB9FEDB71AF2EE000A9FED41
:100A2000B80A46F2A81346F678120321B3484C30B0
:100A300001F0C5FBB0EE001ADFEDA70AB3EE040A21
:100A40000423FA220321AD484C3801F0B8FB9FED96
:100A5000A91AF2EE000A9FEDAA0A41F2883346F283
:100A6000A8120321A548983001F0A9FB10BD2DE97B
:100A7000F0412DED108B92B0B0EE408A4FF01C0883
:100A8000A04890ED000ADFEDA00A20EE200A10EE4B
:100A9000101A08460BF0BEFC41EC1B0BB0EE4B0AE3
:100AA000F0EE6B0A0AF044F9B0EE40AAF0EE60AA4C
:100AB00053EC1A2B9FED950B51EC100B0AF08AFFAB
:100AC00041EC190B0AF0A0FE054628460BF0A2FCEB
:100AD00041EC1D0BB0EE4D1AF0EE6D1A9FED8D0B33
:100AE0000AF02EF8B0EE40CAF0EE60CA9FED8B0B14
:100AF00053EC102B51EC1C0B0BF096F941EC1A0B3C
:100B000018EE100A0BF086FC41EC1B0B53EC1A2B71
:100B10000AF0ACFE41EC190B0AF076FE0E90284666
:100B20000BF078FC41EC1A0B9FED770A28EE000AD7
:100B300010EE101A08460BF06DFC41EC1C0BB0EEE9
:100B40004C0AF0EE6C0A0AF0F3F8B0EE40BAF0EEA0
:100B500060BA53EC1A2B51EC1B0B0BF065F941EC0E
:100B6000190B0AF051FE0FEE100A28460BF052FC4A
:100B700041EC1A0B9FED640A28EE000A10EE101AE1
:100B800008460BF047FC41EC1C0BB0EE4C0AF0EEB3
:100B90006C0A0AF03DF9B0EE40BAF0EE60BA53ECE0
:100BA0001A2B51EC1B0B0BF03FF941EC190B0AF01F
:100BB0002BFE064618FB08F000EE100AB8EEC00A3D
:100BC000F0EE408A2FEE0F0A10EE104A18EE900A4F
:100BD0000BF020FCCDE9080130460BF01BFC41EC8A
:100BE0001B0BB0EE000A28EE800A10EE101A084621
:100BF0000BF010FC41EC1D0B20460BF00BFC9FEDA5
:100C0000490B53EC102BCDE900019DED000B51EC8D
:100C1000100B0BF009F941EC1E0B53EC1D2B0AF0E5
:100C2000D9FE41EC1C0B53EC1B2B0AF01FFECDE947
:100C3000040120460BF0EEFB41EC1B0B9FED3B0B40
:100C400053EC102B0BF0F0F8CDE902019DED040BF5
:100C500053EC102B9DED020B51EC100B0BF0E4F854
:100C6000CDE906019DED080B53EC102B9DED060B15
:100C700051EC100B0AF0AEFECDE90C0120460BF052
:100C8000C9FBCDE90A019DED0C0B53EC102B9DED3A
:100C90000A0B51EC100B0BF0D3FA41EC1A0BB0EE2F
:100CA0004A0AF0EE6A0A45E0F40300200AD7233C22
:100CB000000070426F12833A00002A430C050020A6
:100CC0009A99193E00002042CDCC4C3F00001643BB
:100CD0003409002000000000CDCC4C3E000034431D
:100CE000EC51B83D0000C8420000AF439A99993ECC
:100CF00004080020000048430000E143640A00208B
:100D000000009643B00C002035FA8E3C9A999999D0
:100D100099991B40000000205C8F134000000020C8
:100D2000DCA54C409A999999999923409A99999957
:100D3000999933400AF0D0F8B0EE409AF0EE609AFC
:100D400051EC190B0AF060FD0FEE900A20460BF0F3
:100D500061FB41EC1A0B1FED0D0B53EC102B0BF04C
:100D600063F841EC190B0AF04FFD11903FEE6F0A4A
:100D700060EE280A9DED110A80EE801A11EE107ABD
:100D800038460BF047FB41EC1A0BB0EE4A0AF0EE86
:100D90006A0A09F069FDB0EE409AF0EE609A51ECF3
:100DA000190B0AF031FD10909DED100ADFEDFC0AE1
:100DB00020EE200A8DED0F0A9DED0F0A12B0BDEC5A
:100DC000108BBDE8F08110B52DED088BF54800784B
:100DD00070B9F54890ED000AF44880ED000AF24839
:100DE00090ED010AF24880ED000A0120ED490870FB
:100DF000ED4890ED000AEF4880ED040AEA4890EDD6
:100E0000010AEC4880ED030AEB48C07B48B1EA4890
:100E100090ED040AF7EE000A30EE200A80ED040A95
:100E200004E01FED540AE44880ED040AE24890ED26
:100E3000040AF7EE000AB4EEE00AF1EE10FA7CD2F2
:100E40000120DE490870DC48B0F9080000EE100A05
:100E5000B8EEC00ADA48D0ED000AB4EE600AF1EE4E
:100E600010FA6BD1D448B0F90A0000EE100AB8EEBF
:100E7000C00AD448D0ED000AB4EE600AF1EE10FAD0
:100E800074D1CD49B1F908000AF067FF41EC1B0BA2
:100E90009FEDCD0B53EC102B0AF0C6FF41EC1A0B63
:100EA0009FEDCB1BB0EE4A0AF0EE6A0A09F048FE4D
:100EB000B0EE409AF0EE609A1FED680B53EC102BE9
:100EC00051EC190B0AF0B0FF41EC180B0AF09CFC36
:100ED000C1490860B849B1F90A000AF03EFF41EC87
:100EE0001B0B9FEDB90B53EC102B0AF09DFF41EC4F
:100EF0001A0B9FEDB71BB0EE4A0AF0EE6A0A09F032
:100F00001FFEB0EE409AF0EE609A1FED7C0B53ECA2
:100F1000102B51EC190B0AF087FF41EC180B0AF06B
:100F200073FCAE490860A44890ED000AAA48D0EDD1
:100F3000000A30EE200AAA4801E040E016E0D0EDB9
:100F4000000A30EE200AA74880ED000A9A4890ED8A
:100F5000010A0846D0ED000A30EE200AA248D0ED82
:100F6000000A30EE200AA14880ED000A9248B0F94C
:100F7000080000EE100AB8EEC00A914880ED000AA1
:100F80008D48B0F90A0000EE100AB8EEC00A8D488C
:100F900080ED000A964890ED000A864880ED010A2F
:100FA0009348D0ED010AB0EE600AFFF760FD8E486D
:100FB000D0ED000A30EE200A7E4880ED020A7D481E
:100FC00090ED020AFBEE090AB4EEE00AF1EE10FA27
:100FD00004D8BBEE090A80ED020A0DE0754890EDD9
:100FE000020ADFED840AB4EEE00AF1EE10FA03DB48
:100FF0009FED800A80ED020A7048007858B96C486D
:1010000090ED000A6B4880ED010A684890ED000AF7
:10101000684880ED020A6448D0ED041AB0EE611A07
:101020006448D0ED031AF0EE610AD0ED011AB0EE7B
:10103000610A5FEDD81A00F5E16100F2246001F069
:10104000FCF85C4880ED090A5748D0ED031AB0EE71
:10105000611A5848D0ED041AF0EE610AD0ED021A78
:10106000B0EE610A5FEDE51A00F2BC6100F5CE60FA
:1010700001F0E3F84F4880ED0A0ABDEC088B10BD83
:1010800010B52DED088B4748007870B9464890EDB3
:10109000000A464880ED000A434890ED010A4448A2
:1010A00080ED000A01203F4908703F4890ED000A9A
:1010B000404880ED040A3C4890ED010A3D4880ED2F
:1010C000030A3D48C07B48B13B4890ED040AF7EE67
:1010D000000A30EE200A80ED040A04E09FED460A83
:1010E000354880ED040A344890ED040AF7EE000A12
:1010F000B4EEE00AF1EE10FA51D201202F49087047
:101100002D48B0F9080000EE100AB8EEC00A2C48CD
:10111000D0ED000AB4EE600AF1EE10FA72D1264862
:10112000B0F90A0000EE100AB8EEC00A2548D0ED6A
:10113000000AB4EE600AF1EE10FA63D11E49B1F96B
:1011400008000AF00AFE41EC1B0B9FED1F0B53EC4D
:10115000102B0AF069FE41EC1A0B9FED1D1BB0EE3F
:101160004A0AF0EE6A0A09F0EBFCB0EE409AF0EEA3
:10117000609A9FED220B53EC102B51EC190B0AF0E7
:1011800053FE41EC180B0AF03FFB134908600A4973
:10119000B1F90A000AF0E1FD41EC1B0B33E09DE0E0
:1011A000E12E654280020020B00C00206802002081
:1011B0006C020020F4030020EC14002081020020C7
:1011C000780200207C020020000000A02C436C3F2D
:1011D0000000000000001840840200208802002067
:1011E0008C02002070020020900200207402002077
:1011F0001C00002000000C42000000000000002045
:10120000DCA54C4041E01FED100B53EC102B0AF015
:101210000BFE41EC1A0B1FED121BB0EE4A0AF0EE6A
:101220006A0A09F08DFCB0EE409AF0EE609A1FED6C
:101230000D0B53EC102B51EC190B0AF0F5FD41ECA2
:10124000180B0AF0E1FAFE490860FE4890ED000A2A
:10125000FD48D0ED000A30EE200AFC48D0ED000A2F
:1012600030EE200AFA4880ED000AF64890ED010AB7
:101270000846D0ED000A30EE200AF648D0ED000A0C
:1012800030EE200AF44880ED000AEE48B0F908007C
:1012900000EE100AB8EEC00AF04880ED000AE948F6
:1012A000B0F90A0000EE100AB8EEC00AEC4880ED72
:1012B000000AEC4890ED000AEB4880ED010AE9488D
:1012C000D0ED010AB0EE600AFFF7D1FBE148D0EDA6
:1012D000000A30EE200AE44880ED020AE24890ED70
:1012E000020AFBEE090AB4EEE00AF1EE10FA04D8A5
:1012F000BBEE090A80ED020A0DE0DB4890ED020A20
:101300005FED440AB4EEE00AF1EE10FA03DB1FEDE4
:10131000470A80ED020AD548007858B9D44890EDC4
:10132000000AD14880ED010AD24890ED000ACE486B
:1013300080ED020AD048D0ED041AB0EE611ACA4816
:10134000D0ED031AF0EE610AD0ED011AB0EE610A99
:101350005FED571A00F5956100F5717000F06DFFB3
:10136000C14880ED090AC448D0ED031AB0EE611AF5
:10137000BD48D0ED041AF0EE610AD0ED021AB0EECD
:10138000610A5FED631A00F25C4100F5826000F0D3
:1013900054FFB54880ED0A0ABDEC088B10BD10B5AE
:1013A000B54890ED000AB04880ED040AB24890EDCF
:1013B000010AAD4880ED030AB048407DF0B3A14872
:1013C000807B58B19F4890ED010AA74880ED020A42
:1013D0009C4890ED000AA44880ED010A994890EDE0
:1013E000062AF0EE421AA44890ED042AB0EE421A02
:1013F0009D4890ED032AF0EE420A90ED012AB0EEEE
:10140000420A00F5BB6100F2F44000F016FF964876
:1014100080ED090A9848D0ED031AB0EE611A92489F
:10142000D0ED041AF0EE610AD0ED021AB0EE610AB6
:101430005FED8F1A00F58C71803000E005E000F060
:10144000FCFE894880ED0A0A38E0874890ED0B0AD7
:1014500080ED020A90ED0C0A80ED010A8648D0ED7D
:10146000041AB0EE611A8048D0ED031AF0EE610A5A
:10147000D0ED011AB0EE610A5FEDA11A00F1CC01C6
:10148000343000F0DAFE784880ED090A7A48D0ED71
:10149000031AB0EE611A7448D0ED041AF0EE610A36
:1014A000D0ED021AB0EE610A5FEDAD1A00F58C7155
:1014B000803000F0C2FE6C4880ED0A0A10BD10B505
:1014C0002DED048B00206E4908706849087000BF3C
:1014D0001FEDB70A644880ED020A674890ED000AE4
:1014E000614880ED040A1FEDBC0A80ED010A6548E1
:1014F00090ED101BB0EE410AF0EE610A51EC100BBA
:101500000AF082F95849C8605E4890ED101BB0EEB1
:10151000410AF0EE610A9FED5C1B53EC112B51EC7C
:10152000100B0AF057FA0AF0E9FB04464FF4B471C5
:1015300004FB01F000EE100AB8EEC00A4A4880ED44
:10154000010A90ED010AD0ED030A30EE600ADFEDEA
:10155000500AB4EEE00AF1EE10FA08DB90ED010A51
:10156000DFED4C0A30EE600A80ED010A15E03E48DE
:1015700090ED010AD0ED030A30EE600ADFED460A75
:10158000B4EEE00AF1EE10FA07D290ED010ADFEDB9
:10159000410A30EE200A80ED010A3748D0ED041AE6
:1015A000B0EE611A3048D0ED031AF0EE610AD0EDCA
:1015B000011AB0EE610A5FEDF01A00F1CC0134308F
:1015C00000F03BFE284880ED090A2B48D0ED031AB5
:1015D000B0EE611A2448D0ED041AF0EE610AD0EDA5
:1015E000021AB0EE610A5FEDFC1A00F58C718030D2
:1015F00000F023FE1C4880ED0A0A90ED020AD0EDAF
:10160000040A30EE600A10EE101A08460AF002FFD3
:1016100041EC190BB0EE490AF0EE690A09F0ECFB57
:10162000B0EE408AF0EE608A9FED1C0B53EC102B5D
:1016300051EC180B0AF0BCFB63D80B4832E00000F9
:1016400088020020EC140020840200208C0200207C
:101650007002002090020020740200207802002016
:101660007C0200201C000020F403002081020020E6
:101670006C02002068020020B00C0020C015002081
:101680008002002008110020000000000080764049
:10169000000035430000B443000033C300000000E5
:1016A0000000104090ED010AD0ED030A30EE600A10
:1016B00010EE101A08460AF0ADFE41EC190BB0EE20
:1016C000490AF0EE690A09F097FBB0EE408AF0EEA5
:1016D000608A9FED940B53EC102B51EC180B0AF021
:1016E00067FB0ED8032091490870914890ED010ADC
:1016F000084680ED0C0A8E4890ED000A084680ED01
:101700000B0ABDEC048B10BD10B588480078032887
:1017100016D003DC38B101281BD10EE00B2812D003
:101720000C2816D112E09FED830A804880ED090A4B
:101730009FED800A80ED0A0A0CE0FFF7C0FE09E089
:10174000FFF72DFE06E0FFF79BFC03E0FFF73BFBF6
:1017500000E000BF00BF754890ED020A7648D0ED6A
:10176000000AB4EEE00AF1EE10FA05D890ED000A96
:101770006E4880ED020A0FE06C4890ED020A6F4857
:10178000D0ED000AB4EEE00AF1EE10FA04DB90EDC1
:10179000000A664880ED020A10BD10B5644890ED5D
:1017A000000A624880ED040A614890ED010A5F4832
:1017B00080ED030A62488089F0B3614890ED010A28
:1017C0005A4880ED020A5E4890ED000A574880EDC5
:1017D000010A5B4890ED062AF0EE421A544890ED5B
:1017E000042AB0EE421A514890ED032AF0EE420A64
:1017F00090ED012AB0EE420A00F5BB6100F2F44020
:1018000000F01BFD494880ED090A4948D0ED031A54
:10181000B0EE611A4548D0ED041AF0EE610AD0ED41
:10182000021AB0EE610ADFED431A00F58C718030C8
:1018300000F003FD3D4800E002E080ED0A0A70E0A0
:1018400040480068401C3F49086008460068C828B6
:101850003DDC3B4890ED090A344880ED020A3848E7
:1018600090ED080A314880ED010A3148D0ED041AA4
:10187000B0EE611A2D48D0ED031AF0EE610AD0EDFA
:10188000011AB0EE610ADFED2B1A00F5BB6100F220
:10189000F44000F0D2FC254880ED090A2448D0ED40
:1018A000031AB0EE611A2148D0ED041AF0EE610A75
:1018B000D0ED021AB0EE610ADFED1E1A00F58C7150
:1018C000803000F0BAFC194880ED0A0A29E0B8EE31
:1018D000000A164880ED020A1548D0ED031AB0EE52
:1018E000611A1248D0ED041AF0EE610AD0ED021A26
:1018F000B0EE610ADFED0F1A00F58C71803000F058
:101900009CFC0A4880ED0A0A0948D0ED040AB0EEB2
:10191000600ADFED0D0A0D4800F05AFA034880ED29
:10192000090A10BD000000000000F83FF403002089
:10193000B00C0020000000006002002064020020C3
:10194000EC1400209402002000001643CC09002073
:1019500010B52DED088BF748807E012804D00228B1
:1019600071D0032870D1AAE0F3480078012827D06D
:10197000F048B0F90200A0F5806000EE100AB8EE61
:10198000C00AF7EE080A20EE200ABDEEC00A10EEEB
:10199000100A00B2E9498883E648B0F90000A0F5D2
:1019A000806000EE100AB8EEC00AF7EE080A20EEDA
:1019B000200ABDEEC00A10EE100A01B2DF48C18352
:1019C000DD480078032837D1DA49B1F90610A1F5CE
:1019D00080600AF0C2F941EC1B0B9FEDD90B53EC70
:1019E000102B0AF021FA41EC190BD34890ED0B0AA9
:1019F00010EE101A08460AF00DFD41EC1A0B53ECDC
:101A0000192B09F033FF41EC180B09F0FDFECA4910
:101A1000C862084690ED0C0AC648B0F90400A0F56B
:101A2000806000EE900AF8EEE00A9FEDC71A00EE23
:101A3000810A084680ED0C0ABE48807F28B1072045
:101A4000BE49087604E062E167E10320BB490876FD
:101A5000B9480078012807D0B74800780C2803D08F
:101A6000B54800780B2803D10120B449087606E078
:101A7000B248007E072802D00320B0490876AE485D
:101A80000078012809D0AB48807E022805D0AA48FA
:101A9000407810B90320A8490870A748407828B9B1
:101AA000A548007810B10120A3490870A248007829
:101AB000032803D10120A14981F860002EE19E484E
:101AC0000078012878D09B4890F82C0038B101208C
:101AD0009A49C8764FF4C8609C49088006E0002007
:101AE0009649C87640F2262098490880914890F897
:101AF000280028B19548B0F90000904988830DE08E
:101B00008C4890F82A0030B190480088404200B2DA
:101B10008A49888302E0002088498883854890F8B4
:101B20002900A8B18548C07E01280AD18749B1F9AA
:101B30000010484200EBD07149100AB27F49CA83B5
:101B400020E082480088404201B27C48C18319E00D
:101B5000784890F82B0090B17848C07E012808D1D1
:101B60007A49B1F9000000EBD0714910734AD18372
:101B700008E07648B0F900107048C18302E0002107
:101B80006E48C1836B4890F83E0018B107206B493E
:101B9000087602E003206949087667480078032840
:101BA00068D16448B0F90C0010F1640F05DC6FF0E7
:101BB00063006049888108E05BE05E48B0F90C0092
:101BC000642802DB64205B4988815A48B0F90E0022
:101BD00010F1640F04DC6FF063015648C18107E027
:101BE0005448B0F90E00642802DB64215148C181D9
:101BF000514890ED0C0A4F48B0F90C0000EE900AE5
:101C0000F8EEE00A9FED521A00EE810A4A4880ED94
:101C10000C0A90ED0B0A4748B0F90E0000EE900A4E
:101C2000F8EEE00A9FED4B1A00EE810A424880ED83
:101C30000B0A90ED0B0A4848D0ED000AB4EEE00A1A
:101C4000F1EE10FA05D890ED000A3B4880ED0B0A42
:101C500026E0394890ED0B0A4048D0ED000AB4EE7A
:101C6000E00AF1EE10FA1BDB90ED000A324880ED3D
:101C70000B0A15E02F4890F8460018B10C202E49A9
:101C800008700DE02B4890F8440018B10B202A4949
:101C9000087005E0012028490870032027490876CC
:101CA00025480078012807D0234800780C2803D065
:101CB000214800780B2803D101202049087606E04E
:101CC0001E48007E072802D003201C4908761A48C7
:101CD0000078012809D01748807E022805D01648D0
:101CE000407810B90320144908701348407828B987
:101CF0001148007810B101200F4908700E48007893
:101D0000032803D101200D4981F8600006E000207E
:101D1000094908700949087600E000BF00BF06487D
:101D20000078054948700548007E04494876BDECB6
:101D3000088B10BDC0150020F4030020480B0020C4
:101D4000FCA9F1D24D62803F6F12033C9802002043
:101D50008FC2753D0AD7233D600200206402002037
:101D6000D0ED000AF4EEC00AF1EE10FA01DD80EDCC
:101D7000000AD0ED000AB1EE401AF4EEC10AF1EE0D
:101D800010FA03D2F1EE400AC0ED000A7047036476
:101D9000C263816380ED000AC0ED010A80ED021A82
:101DA000704780ED000AC0ED010A80ED021ADFEDF8
:101DB000FE1AC0ED081ADFEDFC1AC0ED091ADFEDBE
:101DC000FA1AC0ED0A1ADFEDF81AC0ED0B1A7047C7
:101DD00010B52DED088B0446B0EE408AF0EE608A17
:101DE00084ED048AC4ED038A38EEC80A84ED070A3C
:101DF00094ED0C0AB5EEC00AF1EE10FA27D094ED7E
:101E00000C0A10EE101A08460AF004FB41EC190BFC
:101E100094ED070A10EE101A08460AF0FBFA41EC9E
:101E20001B0BB0EE4B0AF0EE6B0A08F0E5FFB0EECC
:101E300040AAF0EE60AA53EC192B51EC1A0B0AF0F1
:101E4000F1F804D29FEDD80ABDEC088B10BDA06B51
:101E500003283ED194ED000AD4ED070A20EE200AB3
:101E600084ED080A94ED090AD4ED010A94ED071AED
:101E700000EE810A84ED090A94ED070AD4ED060A02
:101E800030EE600AD4ED020A20EE200A84ED0A0A40
:101E9000D4ED100AF8EE600AB0EE600A04F12400F6
:101EA000FFF75EFF94ED080AD4ED090A30EE200A30
:101EB000D4ED0A0A30EE200A84ED0B0AD4ED0F0AA5
:101EC000F8EE600AB0EE600A04F12C00FFF748FF5C
:101ED00042E0A06B04283FD194ED070AD4ED060A36
:101EE00030EE600AD4ED000A20EE200A84ED080AE4
:101EF00094ED010AD4ED070A20EE200A84ED090AC8
:101F000094ED070AD4ED060AB0EE001A01EE600A5D
:101F1000D4ED050A30EE200AD4ED020A20EE200AA4
:101F200084ED0A0A94ED080AD4ED090A30EE200A7D
:101F3000D4ED0A0A30EE200AD4ED0B0A30EE200A66
:101F400084ED0B0AD4ED0F0AF8EE600AB0EE600AD9
:101F500004F12C00FFF704FF94ED060A84ED050A56
:101F600094ED070A84ED060A94ED0D0AB5EEC00A59
:101F7000F1EE10FA25D094ED0D0A10EE101A084675
:101F80000AF048FA41EC190B94ED0B0A10EE101A06
:101F900008460AF03FFA41EC1B0BB0EE4B0AF0EE9C
:101FA0006B0A08F029FFB0EE40AAF0EE60AA53ECED
:101FB000192B51EC1A0B09F0FBFE02D29FED7A0AA5
:101FC00042E794ED0B0A3FE710B52DED088B044670
:101FD000B0EE408AF0EE608A84ED048AC4ED038A94
:101FE00038EEC80A84ED070A94ED0C0AB5EEC00A73
:101FF000F1EE10FA27D094ED0C0A10EE101A0846F4
:102000000AF008FA41EC190B94ED070A10EE101AC9
:1020100008460AF0FFF941EC1B0BB0EE4B0AF0EE5C
:102020006B0A08F0E9FEB0EE40AAF0EE60AA53ECAD
:10203000192B51EC1A0B09F0F5FF04D29FED5A0A47
:10204000BDEC088B10BDA06B03283ED194ED000AB7
:10205000D4ED070A20EE200A84ED080A94ED090A5F
:10206000D4ED010A94ED071A00EE810A84ED090A05
:1020700094ED070AD4ED060A30EE600AD4ED020AA8
:1020800020EE200A84ED0A0AD4ED100AF8EE600A68
:10209000B0EE600A04F12400FFF762FE94ED080A36
:1020A000D4ED090A30EE200AD4ED0A0A30EE200AF7
:1020B00084ED0B0AD4ED0F0AF8EE600AB0EE600A68
:1020C00004F12C00FFF74CFE3EE0A06B04283BD14E
:1020D00094ED070AD4ED060A30EE600AD4ED000A4A
:1020E00020EE200A84ED080A94ED010AD4ED070AD7
:1020F00020EE200A84ED090A94ED070AD4ED060AC1
:10210000B0EE001A01EE600AD4ED050A30EE200AA6
:10211000D4ED020A20EE200A84ED0A0A94ED080AA2
:10212000D4ED0A0A30EE200AD4ED0B0A30EE200A74
:1021300084ED0B0AD4ED0F0AF8EE600AB0EE600AE7
:1021400004F12C00FFF70CFE94ED060A84ED050A5D
:1021500094ED070A84ED060A94ED0D0AB5EEC00A67
:10216000F1EE10FA28D094ED0D0A10EE101A084680
:102170000AF050F941EC190B94ED0B0A10EE101A0D
:1021800008460AF047F941EC1B0BB0EE4B0AF0EEA3
:102190006B0A08F031FEB0EE40AAF0EE60AA53ECF4
:1021A000192B51EC1A0B01E00000000009F000FEB1
:1021B00002D21FED030A43E794ED0B0A40E72DE935
:1021C000F0412DED048B04460D4616461F46B0EE39
:1021D000408AF0EE608AB0EE419A29486064B0EE21
:1021E000491AF0EE680AB0EE480A3B4632462946E4
:1021F0002046D4F844C0E047BDEC048BBDE8F08134
:102200001FED170A80ED080A1FED190A80ED090A73
:102210001FED1B0A80ED0A0A1FED1D0A80ED0B0A57
:102220001FED1F0A80ED050A1FED210A80ED060A49
:102230001FED230A80ED070A704770B52DED068B60
:1022400005460C46B0EE408AF0EE608AB0EE419A48
:10225000F0EE619AF0EE480AB0EE680A2846FFF701
:10226000B7FD30EE290AB0EE40AAF0EE4A0AB0EE11
:10227000490A2046FFF7ACFDBDEC068B70BD00009F
:102280008F1D00083C490968491C3B4A11600168E0
:10229000A1F2052101B900E000BF00BF704710B5F1
:1022A000044636480068401C344908602068A0F2A3
:1022B000052010B1012812D108E041F27D732246B9
:1022C0002F492E48006800F0D0F909E041F61503C7
:1022D00022462C492948006800F0C7F900BF00BF1A
:1022E00000BF10BD00B587B0274890F851002649BF
:1022F000B1F85C10244A926D00EE102ABDEEC00ABF
:1023000010EE102A12B240F22623CDE90332CDE9B5
:1023100005101E48B0F91C10B0F91E00184AD26B07
:1023200012B2CDE900200291154890ED101BB0EEDD
:10233000410AF0EE610A1548037EC27E90F86010F3
:10234000134800F084FE00200090124890ED0A0A25
:10235000BDEEC00A10EE100A02B20E4890ED090A56
:10236000BDEEC00A10EE100A01B20023084800F0CA
:102370009DF907B000BD00009C020020A0020020D3
:1023800008110020B810002024140020480B002061
:1023900000680040F403002070B505460C464C224E
:1023A000A91D384808F05CF9364890ED0C0AB1EEEA
:1023B000400A84ED000A344890ED000A334880ED6D
:1023C000000A304890ED0E0A2F4880ED000A90ED8B
:1023D000000A2E48D0ED000A30EE600ADFED2C0A2C
:1023E000B4EEE00AF1EE10FA05DB2A480068401E60
:1023F0002849086013E0244890ED000A2348D0EDF6
:10240000000A30EE600ADFED240AB4EEE00AF1EED5
:1024100010FA04D81F480068401C1E4908601D4877
:1024200000684FF4B471484300EE100AB8EEC00AD9
:102430001548D0ED000A30EE200AB1EE400A84EDD6
:10244000010A104890ED0D0A84ED020A90ED070A8A
:1024500084ED030A90ED080AB1EE400A84ED040A07
:1024600090ED060A84ED050A90ED030A84ED060A54
:1024700090ED050A84ED070A90ED040A84ED080A40
:1024800070BD0000D8130020A8020020A402002084
:102490000000A243AC0200200000A2C30A7BCB7A5A
:1024A00042EA032282618269826082694260026933
:1024B000521C026170472DE9F04104460D4600268A
:1024C000002720686060287BE97A40EA01202060CC
:1024D00020686168401AE060E06810F5805F07DA04
:1024E000A06B401CA063E06800F50050E0610DE0C7
:1024F000E068B0F5805F07DDA06B401EA063E06878
:10250000A0F50050E06101E0E068E0612168A06BA7
:1025100001EB4030A0602068A269801A00EE100A2A
:10252000F8EEC00AA06B4FF4B472504300EE100AEC
:10253000B8EEC00A9FEDB91A00EE810A10EE101A2B
:10254000084609F067FF41EC100B84ED100BE269BF
:10255000207D411C217504F1200141F82020207DBF
:10256000062801D100202075002605E004F1200096
:1025700050F826000744761C062EF7DB062097FB52
:10258000F0F0E063A97B687B41EA002000B2A4F888
:102590004C00BDE8F08170B504460D4620686060CF
:1025A000287BE97A40EA0120206020686168401AAF
:1025B000E060E06810F5805F07DAA06B401CA06364
:1025C000E06800F50050E0610DE0E068B0F5805F84
:1025D00007DDA06B401EA063E068A0F50050E0613D
:1025E00001E0E068E0612168A06B01EB4030A06091
:1025F0002068A269801A00EE100AF8EEC00AA06BEB
:102600004FF4B472504300EE100AB8EEC00A9FEDCA
:10261000841A00EE810A10EE101A084609F0FAFE3C
:1026200041EC100B84ED100BA97B687B41EA002084
:10263000E063E06BB0F57A7F04DBE06BA0F57F40F0
:10264000FF38E063687CA06470BD70B506460C4638
:102650001546322E04D829462046FFF71FFF03E017
:1026600029462046FFF727FF70BD2DE9F0410646B9
:102670000C4617461D4639462046FFF78CFF642E50
:1026800012D8A069A168401A10F57A6F03DA05F52F
:102690000050A06108E0A069A168401AB0F57A6F07
:1026A00002DDA5F50050A061BDE8F0812DE9F04103
:1026B00086B080460C4615461E460C9F40F2FF1021
:1026C000019000208DF80C008DF80D0008208DF889
:1026D0000E00200A8DF80F008DF81040290A8DF8A1
:1026E00011108DF81250310A8DF813108DF8146006
:1026F000390A8DF815108DF8167001A9404601F0C1
:1027000005FF06B0BDE8F0812DE9F04186B08046B6
:102710000C4615461E460C9F40F2FF2001900020FB
:102720008DF80C008DF80D0008208DF80E00200AA1
:102730008DF80F008DF81040290A8DF811108DF8D2
:102740001250310A8DF813108DF81460390A8DF883
:1027500015108DF8167001A9404601F0D7FE06B09D
:10276000BDE8F0812DE9F04186B080460C46154663
:102770001E460C9F4FF40070019000208DF80C0055
:102780008DF80D0008208DF80E00200A8DF80F003E
:102790008DF81040290A8DF811108DF81250310A69
:1027A0008DF813108DF81460390A8DF815108DF816
:1027B000167001A9404601F0A9FE06B0BDE8F081FF
:1027C0002DE9F04186B080460C4615461E460C9F0A
:1027D00040F2FF10019000208DF80C008DF80D00E4
:1027E00008208DF80E00200A8DF80F008DF810409B
:1027F000290A8DF811108DF81250310A8DF8131036
:102800008DF81460390A8DF815108DF8167001A92D
:10281000404601F07BFE06B0BDE8F081FFFF333D8E
:102820000000343D30B5034605E013F8010B80EAA3
:102830000204B348025D081EA1F10101F5D1104662
:1028400030BD70B505460C4600260DB1022C01D8EE
:10285000002070BD611EFF222846FFF7E3FF0646F9
:10286000601E285CB04201D10120F2E70020F0E7B1
:1028700070B505460C4600260DB1022C00D870BD7F
:10288000611EFF222846FFF7CDFF0646601E2E542C
:1028900000BFF4E730B5034613B94FF6FF7030BD03
:1028A00009E013F8014B82EA0400C0B2954D35F8F7
:1028B000100080EA2222081EA1F10101F1D1104688
:1028C000EDE770B505460C4600260DB1022C01D887
:1028D000002070BDA11E8C4802882846FFF7DAFF51
:1028E0000646F1B2A01E285C814206D1601E285C1B
:1028F000B0EB162F01D10120EBE70020E9E770B51E
:1029000005460C4600260DB1022C00D870BDA11E54
:102910007D4802882846FFF7BDFF0646A01E2E54BC
:10292000310A601E295400BFF0E770B504460D4619
:1029300000260CB1022D01D8FF2070BDFF222946D0
:102940002046FFF76FFFF8E72DE9FC5F05460F46CD
:10295000092F01D8BDE8FC9F0024A146CBE015F863
:1029600004A0601C295CA01C285C41EA0026601DB4
:10297000295CA01D285C41EA002B281900F10708FA
:1029800028190168009100798DF8040006F109000A
:102990001FFA80F9BAF1A50F77D105216846FFF734
:1029A00050FF002871D028194946FFF78AFF0028F8
:1029B000F8D0BBF5017F6AD012DC40F20311ABEB1B
:1029C00001008B452BD006DCBBF1010F1AD0BBF107
:1029D000030F74D11CE0FE2828D0FF286FD14BE0F4
:1029E000BBF5027F6DD006DCABF20620002856D086
:1029F00001287BD15AE0ABF20130002868D00228D0
:102A000074D16CE032464146404807F029FE6EE042
:102A1000324641463D480C3007F022FE67E0324620
:102A200041463A48363007F01BFE60E01B2E22D1AB
:102A3000324641463548393007F012FE334890F8A7
:102A40003900012809DB314890F83900072804DCF7
:102A500002202E4981F8C5000DE02C4890F839007D
:102A60000B2808DB294890F83900112803DC0120E5
:102A7000264981F8C5003AE0102E05D1324641467C
:102A80002248543007F0ECFD31E031E0FFE7012E41
:102A900004D198F800001D4981F8740027E03246FF
:102AA00041461A48763007F0DBFD20E0072E05D1BD
:102AB000324641461548773007F0D2FD17E015E061
:102AC000FFE73246414611487E3007F0C9FD0EE06F
:102AD000324641460D48843007F0C2FD07E03246D9
:102AE00041460A48AC3007F0BBFD00E000BF00BF24
:102AF00004EB090084B2A7423FF731AF00BF29E7DA
:102B000057C6000858C70008B0020020241400204F
:102B100010B503463BB1087838B901200870107829
:102B2000401C107001E000200870107800EBD07499
:102B30006410A0EB44040CB9002010BD0120FCE798
:102B4000CB8A03400BB1012300E0002313707047D0
:102B500010B5044604F1280221460120FFF7F0FFDA
:102B600004F1290221460420FFF7EAFF04F12A02BA
:102B700021460220FFF7E4FF04F12B022146082042
:102B8000FFF7DEFF04F12C0221461020FFF7D8FFEB
:102B900004F12E0221462020FFF7D2FF04F12F027C
:102BA00021464020FFF7CCFF04F13002214680206F
:102BB000FFF7C6FF04F1310221464FF48070FFF7A2
:102BC000BFFF04F1320221464FF40070FFF7B8FF57
:102BD00004F1330221464FF48060FFF7B1FF04F1A6
:102BE000340221464FF40060FFF7AAFF04F12D02E2
:102BF00021464FF48050FFF7A3FF04F13502214630
:102C00004FF40050FFF79CFF04F1360221464FF4C9
:102C10008040FFF795FF04F1370221464FF4004052
:102C2000FFF78EFF94F82800914A9249FFF770FF52
:102C3000382108552921085D8F4A9049FFF768FF20
:102C4000392108552A21085D8D4A8E49FFF760FF1A
:102C50003A2108552B21085D8B4A8C49FFF758FF14
:102C60003B2108552C21085D894A8A49FFF750FF0E
:102C70003C2108552E21085D874A8849FFF748FF07
:102C80003E2108552F21085D854A8649FFF740FF00
:102C90003F2108553021085D834A8449FFF738FFFA
:102CA000402108553121085D814A8249FFF730FFF4
:102CB000412108553221085D7F4A8049FFF728FFEE
:102CC000422108553321085D7D4A7E49FFF720FFE8
:102CD000432108553421085D7B4A7C49FFF718FFE2
:102CE000442108552D21085D794A7A49FFF710FFE4
:102CF0003D2108553521085D774A7849FFF708FFDF
:102D0000452108553621085D754A7649FFF700FFD1
:102D1000462108553721085D734A7449FFF7F8FECC
:102D20004721085510BD817AC176017FC27E891A7C
:102D30004177C27E0277417F01290ED1016A491C89
:102D40000162016A01EBD1725210A1EB420212B989
:102D50000022827701E001228277417F02290ED191
:102D6000416A491C4162416A01EBD1725210A1EBE8
:102D7000420212B90022C27701E00122C2777047F5
:102D8000C17A012901D1817608E0C17A032901D1F4
:102D9000817603E0C17A022900D18176704730B58F
:102DA00004460D46122D00D030BD04B9FCE7207852
:102DB000617840EA0120C0F30A004D49088060783C
:102DC000C010A17840EA4110C0F30A004849488089
:102DD000A0788011E17840EA8100217940EA8120E1
:102DE000C0F30A004249888020794010617940EAA6
:102DF000C110C0F30A003E49C880207C617C40EAD3
:102E00000120C0F30A003A49088160790011800866
:102E100088726079C0F30110C872A079E17940EA44
:102E2000012000B232498881207A617A40EA01208B
:102E300001B22F48C181A07AE17A40EA012001B2B3
:102E40002B480182217B0175617B4175A07BE17B71
:102E500040EA01202649C8820846FFF791FF24482E
:102E6000FFF761FF2248FFF773FE00BF9CE70000F9
:102E7000B3020020B2020020B5020020B4020020FC
:102E8000B7020020B6020020B9020020B8020020DC
:102E9000BB020020BA020020BD020020BC020020BC
:102EA000BF020020BE020020C1020020C00200209C
:102EB000C3020020C2020020C5020020C40200207C
:102EC000C7020020C6020020C9020020C80200205C
:102ED000CB020020CA020020CD020020CC0200203C
:102EE000CF020020CE020020D1020020D00200201C
:102EF000C015002010B586B0044640F2074001908E
:102F000000208DF80C008DF80D0008208DF80E00C3
:102F1000964800788DF80F00944841788DF810108D
:102F200081788DF81110C08A010A8DF812108F482F
:102F3000817D8DF81310008A010A8DF814108B48DA
:102F4000017C8DF81510017F8DF8161001A920461F
:102F500001F0DCFA06B010BD10B586B004464FF49F
:102F60008160019000208DF80C008DF80D00082084
:102F70008DF80E007D48408A000A8DF80F007B48CE
:102F8000817C8DF81010808A010A8DF81110774825
:102F9000017D8DF81210008B010A8DF81310734813
:102FA000017E8DF81410408B01128DF815106F48BA
:102FB000817E8DF8161001A9204601F0A7FA06B00F
:102FC00010BD10B586B0044640F2094001900020C3
:102FD0008DF80C008DF80D0008208DF80E00634868
:102FE000C068000E8DF80F006048C068010C8DF8B5
:102FF00010105E488089010A8DF811105B48017B32
:103000008DF8121001468868097B000E40EA012005
:10301000C1B28DF8131055498868097B000C40EA4D
:103020000140C1B28DF8141050490889097B000A8B
:1030300040EA0160C1B28DF815104C48017A8DF854
:10304000161001A9204601F061FA06B010BD2DE965
:10305000FF5F2DED020B2DED048B0C4615461E4631
:10306000B0EE408AF0EE608A14AF97E8800F3F48D8
:103070000470457086709FED3E0B53EC102B51ECA5
:10308000180B08F0D1FE09F041FA384AC2E90201F2
:1030900010460782A0F81280A0F81490A0F816A09D
:1030A000A0F818B01146199848831A98087706981E
:1030B000FFF720FF0698FFF74FFF0698FFF781FF05
:1030C000BDEC048B06B0BDE8F09F0168A1F207419A
:1030D00021B101291AD0022946D133E0C17A234A0D
:1030E0001170017B5170417B9170C27B817B42EA00
:1030F000012109B21D4AD182427C017C42EA0121B0
:1031000009B21A4A1182817C11772DE0017BC27AC3
:1031100041EA022109B2154A5182827B417B42EA8F
:10312000012109B2114A9182027CC17B42EA01214C
:1031300009B20E4A1183827C417C42EA01210B4A8A
:10314000518311E000210943C27B41EA0262017C04
:1031500042EA0142417C42EA0121827C1143CA17C2
:10316000024BC3E9021200BF00BF704708160020DF
:10317000000000000088C340F0B58BB004460D4647
:1031800016461F460121084602F01EFA0121480694
:1031900002F063FA09220B21964802F002F8092294
:1031A0000C21944801F0FDFF4FF4C050099002201B
:1031B0008DF8280009A98F4801F068FF14208DF8C8
:1031C000040003208DF8050001208DF806008DF81D
:1031D000070001A800F09DFF874801F005F806A848
:1031E00001F026F900208DF81E0001208DF81F0047
:1031F00000208DF820008DF821008DF822008DF838
:1032000023008DF81A708DF81B008DF81C508DF876
:103210001D40ADF8186006A9774800F0FEFF0020B9
:103220008DF812008DF8130001208DF81400002095
:10323000ADF80800ADF80A00ADF80C00ADF80E00CE
:10324000ADF8100001208DF8150002A801F06FF80C
:1032500001220221684801F069FB0BB0F0BD10B5F6
:103260000121654801F0CAFB18B10121624801F053
:1032700060FC10BD00B585B002215F4801F0BEFBC7
:1032800088B104215C4801F054FC5C495A4801F0C3
:1032900092FB6A460021584801F02DFA00BF6846AB
:1032A000FEF7F0FF00BF05B000BDF0B58BB00446DF
:1032B0000D4616461F460121022002F085F9012124
:1032C000880602F0CAF909220C214D4801F069FF75
:1032D00009220D214A4801F064FF4FF4405002904A
:1032E00002208DF80C0002A9454801F0CFFE4020D5
:1032F0008DF8040003208DF805008DF806000120EC
:103300008DF8070001A800F004FF3F208DF80400AD
:1033100003208DF805008DF8060001208DF80700C8
:1033200001A800F0F6FE374800F05EFF08A801F0A3
:103330007FF800208DF8260001208DF8270000205E
:103340008DF828008DF829008DF82A008DF82B00C3
:103350008DF822008DF823008DF824508DF825403B
:10336000ADF8206008A9274800F057FF0E208DF81F
:103370001A0000208DF81B0001208DF81C00002091
:10338000ADF81000ADF81200ADF81400ADF816005D
:10339000ADF8180001208DF81D0004A800F0C7FF4B
:1033A00001220221174801F0C1FA0BB0F0BD10B59F
:1033B0000121144801F022FB18B10121114801F04C
:1033C000B8FB10BD00B585B002210E4801F016FB18
:1033D00068B102210B4801F0ACFB6A4600210948A4
:1033E00001F089F900BF6846FEF759FF00BF05B03C
:1033F00000BD0000000002400064004008000032F0
:10340000000402400068004010B596B00446012157
:10341000022002F0D9F80121880502F0D5F8012137
:10342000102002F02BF907221146FE4801F0B9FEE8
:1034300014A801F073FE8020149002208DF854002F
:1034400000208DF8550001208DF8570014A9F5488B
:1034500001F01CFEF44803F05DF810A803F027F912
:1034600010940020ADF84400ADF846004FF48060A1
:10347000ADF848000420ADF84A000020ADF84C003B
:1034800010A9E94803F0ADF801224021E64803F015
:10349000DDF9E64801F0A0FB684601F068FC4FF05A
:1034A00000600090E048001D0190E148029000207B
:1034B000039040200490002005904FF48060069017
:1034C0000020079008904FF48070099000020A9045
:1034D00000200B900C900D900E906946D34801F09F
:1034E0001DFC0022D2494031D04801F078FC012176
:1034F000CE4801F080FC0121CC4801F049FC252098
:103500008DF83C0000208DF83D008DF83E00012034
:103510008DF83F000FA800F0FCFD012240F224418D
:10352000C14803F09CF90121BF4803F0E2F816B04E
:1035300010BD10B540F22441BB4803F0CBF9002880
:1035400056D0B9480088B8488088B84801F063FC74
:1035500030BB0021B54801F01BFCB649B34801F06F
:1035600090FCB24801F037FCC0F14000B24908605D
:103570004020AE49091D0860081F006840F4002083
:10358000091F08600121A94801F002FC00BFAA48F8
:10359000008881B2A648FFF702FCFEF7D9F927E0C0
:1035A0000021A24801F0F4FBA249A04801F069FC07
:1035B0009E4801F010FCC0F140009F490860402087
:1035C0009A49091D0860081F006820F40020091F9F
:1035D00008600121954801F0DBFB00BF9648008898
:1035E00081B293484030FFF7DAFBFEF7B1F900BF34
:1035F00010BD10B596B004460121084601F0E4FF65
:103600000121480501F0E0FF0121480402F025F8FE
:1036100007220221894801F0C4FD14A801F07EFDB3
:103620000420149002208DF8540000208DF85500DD
:1036300001208DF8570014A9804801F027FD80482B
:1036400002F068FF10A803F032F810940020ADF8E3
:103650004400ADF846004FF48060ADF84800042007
:10366000ADF84A000020ADF84C0010A9744802F0F3
:10367000B8FF012240216C4803F0E8F8714801F0DE
:10368000ABFA684601F073FB4FF0006000906C48A5
:10369000001D01906C48029000200390642004906B
:1036A000002005904FF4806006900020079008905D
:1036B0004FF48070099000020A9000200B900C904B
:1036C0000D900E9069465F4801F028FB00225E498C
:1036D00064315C4801F083FB01215A4801F08BFB07
:1036E0000121584801F054FB26208DF83C000020B1
:1036F0008DF83D008DF83E0001208DF83F000FA8A9
:1037000000F007FD012240F224414D4803F0A7F8E4
:1037100001214B4802F0EDFF16B010BD10B540F28C
:103720002441474803F0D6F800284AD0444800888E
:103730004348001D00883D4801F06DFB00BB00219F
:10374000404801F025FB41493E4801F09AFB3D48C5
:1037500001F041FBC0F164003D4908606420394933
:10376000091D086037488838D0F8880040F40020E8
:10377000091F08600121334801F00AFB00BF20E067
:103780000021304801F004FB30492E4801F079FB5C
:103790002C4801F020FBC0F164002D490860642032
:1037A0002849091D086027488838D0F8880020F487
:1037B0000020091F08600121224801F0E9FA00BF3A
:1037C00000BF10BD10B596B004460121022001F0E3
:1037D000FBFE0121880401F040FF0121480501F0B2
:1037E000F3FE07220A210F4801F0DBFC07220B2120
:1037F0000C4801F0D6FC02208DF8440003208DF81F
:10380000450000208DF8460001208DF84700800219
:10381000109010A9034801F039FC4FF4006010909B
:1038200010A917E00004024000100140406402406B
:103830002816002000003010D402002000000240B2
:103840000044004088600240E8160020000C002080
:10385000D8020020FE4801F019FC27208DF8000056
:1038600002208DF8010001208DF802008DF8030080
:10387000684600F04EFC12940020ADF84C00ADF804
:103880004E00ADF85000ADF854000C20ADF85200D9
:1038900012A9F04802F0A5FE012240F22441ED48B1
:1038A00002F0DDFF5021EB4803F00BF86420059097
:1038B00000200C900D900E9009904FF480600790BE
:1038C00080100A90E348001D029000200F9008909D
:1038D00006904FF400300B9080020190002004907D
:1038E000DD48039001A9DD4801F018FA0121DB4809
:1038F00001F04EFA01224021D64802F0A7FF012133
:10390000D44802F0F6FE16B010BD10B540F22441C6
:10391000D04802F0DFFFF8B1CE4802F019FF40F2C4
:103920002441CC4803F011F80021CC4801F030FAD2
:1039300000224021C74802F089FF00BFC849C6489D
:10394000FEF72AFD00BF01224021C24802F07EFF9F
:103950000121C24801F01CFA10BD10B596B0044612
:103960000121042001F030FE0121C80401F075FEA0
:1039700008220A21BB4801F014FC08220B21B94897
:1039800001F00FFC0121480501F01EFE4FF44060DC
:10399000109002208DF8440000208DF8460003208E
:1039A0008DF8450001208DF8470010A9AD4801F0C1
:1039B0006DFB12940020ADF84C00ADF84E00ADF850
:1039C00050000C20ADF852000020ADF8540012A9B0
:1039D000A54802F006FE01224021A34802F036FF6E
:1039E0009E48183001F0F8F8684601F0C0F94FF031
:1039F000006000909C48001D01909C4802900020AF
:103A0000039064200490002005904FF4806006909D
:103A100000200790089009904FF480300A90002011
:103A20000B900C900D900E9069468C48183001F068
:103A300075F901218948183001F0AAF934208DF870
:103A40003C0003208DF83D008DF83E0001208DF8EC
:103A50003F000FA800F05DFB01228021824802F0A8
:103A6000F5FE00217D48483001F092F97B4848304E
:103A700001F0B2F800BF7948483001F0D6F90028CB
:103A8000F9D14FF0006000907748001D0190784810
:103A90000290402003900020049005904FF4806035
:103AA000069000200790089009904FF480300A900B
:103AB00000200B9003200C9000200D900E90694682
:103AC0006648483001F02AF90F208DF83C000320A9
:103AD0008DF83D008DF83E0001208DF83F000FA8C5
:103AE00000F017FB012210215C48483001F0DDF99D
:103AF000012240F224415C4802F0B1FE01215A4803
:103B000002F0F7FD16B010BD10B5002440F22441BC
:103B1000554802F0DFFE08B3534800885248001DA4
:103B2000008800214D48183001F032F951494B48C6
:103B3000183001F0A6F94948183001F04CF9C0F1ED
:103B40006400C4B200BF00BF64214448183001F0D3
:103B500040F901214148183001F01AF910BD70B543
:103B600004460D462946204601F033F9012120463E
:103B700001F00EF970BD10B53F493848483001F0EA
:103B800064F948B100213548483001F001F93A495B
:103B90003248483001F075F910BD70B50446002573
:103BA000334D05F8014B01212C484830FFF7D7FF72
:103BB00070BD2DE9F04105460E46002400272C4F2C
:103BC00000BF03E0285D3855601C84B2B442F9DBC5
:103BD000314622484830FFF7C2FFBDE8F08110B5FA
:103BE00096B004460121042001F0EEFC01210820DA
:103BF00001F0EAFC0121080501F02FFD0121480533
:103C000001F0E2FC02208DF8540000208DF85600EF
:103C10004FF48050149001208DF8570003208DF848
:103C2000550014A90F4801F031FA02208DF8540014
:103C300000208DF856000420149001208DF85700C4
:103C400003208DF8550014A90C4801F01FFA17E065
:103C50000004024000480040141800202860024080
:103C6000B00C002000080240004C004078180020F2
:103C7000DC1800200000301020000020000C024062
:103C800008220C21EE4801F08CFA08220221ED48AE
:103C900001F087FA10940020ADF84C000C20ADF82C
:103CA0004A000020ADF84800ADF84600ADF84400E9
:103CB00010A9E54802F095FC0121E34802F019FD46
:103CC00001224021E04802F0C1FD684601F04FF8B2
:103CD000DE4802904FF40070049080040090DA48AF
:103CE000001D01900020039005904FF48060069025
:103CF00000200890079009904FF480300A9000202F
:103D00000B900C900D900E906946D14801F006F88A
:103D10000121CF4801F03CF80022CE49CC4801F007
:103D20005EF80121CA4801F066F835208DF83C00A4
:103D300001208DF83F008DF83D0002208DF83E00F7
:103D40000FA800F0E6F9012240F22441BE4802F03B
:103D500086FD0121BC4802F0CCFC01228021BA483A
:103D600002F074FD0021BA48A83001F011F8B848FB
:103D7000A83000F031FF00BFB548A83001F055F879
:103D80000028F9D14FF000600090AF48001D01906D
:103D9000B1480290402003904220049000200590FA
:103DA0004FF48060069000200790089009900A90D8
:103DB0000B9003200C9000200D900E906946A448B3
:103DC000A83000F0ABFF0121A148A83000F0E0FFCF
:103DD0002F208DF83C0002208DF83D0001208DF849
:103DE0003E008DF83F000FA800F093F916B010BD0B
:103DF00070B504460D460021204600F0C9FF00BF03
:103E0000204601F012F80028FAD12946204600F099
:103E1000E0FF0121204600F0BBFF70BD10B540F26D
:103E20002441894802F056FD00285AD0864800886F
:103E300085488088864800F0EEFF48BB0021844812
:103E400000F0A6FF8549824801F01BF8804800F089
:103E5000C2FFC0F50070824908604FF400717C48D1
:103E600000F0B7FF4FF400227A49794800F0CEFF06
:103E70000121774800F08CFF79480068092830D983
:103E800000BF7748008881B27048FEF75DFD28E0EA
:103E900000216F4800F07CFF70496D4800F0F1FF91
:103EA0006B4800F098FFC0F500706D4908604FF452
:103EB0000071674800F08DFF00226449644800F0FB
:103EC000A5FF0121624800F063FF654800680928EA
:103ED00007D900BF6248008881B25E48FEF734FD12
:103EE00000BF10BD00B597B00121042001F06CFBAC
:103EF0000121880501F068FB0121202001F0BEFBB3
:103F0000082206214E4801F04CF9082207214C48AE
:103F100001F047F9C020119002208DF848000020E0
:103F20008DF84A0002208DF8490000208DF84B00E2
:103F300011A9434801F0AAF84A4802F0EBFA4A48AE
:103F400013900020ADF85000ADF85200ADF85400C9
:103F50000C20ADF856000020ADF8580013A94148D8
:103F600002F03FFB012240213E4802F06FFC3F4837
:103F700000F032FE4FF0206001903A48001D0290A0
:103F80003B48039000200490642005900020069098
:103F90004FF4806007900020089009900A904FF439
:103FA00080300B9000200C900D900E900F9001A986
:103FB0002E4800F0B3FE01212C4800F0E9FE472016
:103FC0008DF8400003208DF841008DF8420001205B
:103FD0008DF8430010A800F09CF8012240F2244123
:103FE000204802F03CFC01211E4802F082FB17B081
:103FF00000BD10B540F224411A4802F06BFCE8B154
:10400000184800881748001D00880021174800F054
:10401000BFFE1849154800F034FF144800F0DBFEDD
:10402000C0F164001449086000BF00BF64210F485C
:1040300000F0CFFE01210D4800F0AAFE10BD0000E7
:1040400000080240000C024000500040821900208D
:1040500010600240821B0020401900203000001038
:10406000DC02002000140140B0AA0E0028640240C7
:10407000821D0020000C0010E00200201FB501216D
:10408000102001F0EAFA36208DF8000003208DF8A8
:10409000010002208DF8020001208DF8030068461F
:1040A00000F037F85320ADF804000020ADF806000A
:1040B000ADF80C0040F2E730029001A9114801F080
:1040C00084FC01210F4801F009FD012211460D4831
:1040D00002F01CF901210B4802F02CF91FBD10B5AC
:1040E0000121084802F029F958B10121054802F0E0
:1040F00035F90121034802F01DF900BFFCF71EFA53
:1041000000BF10BD0010004032490143324A116027
:10411000704770B5002100230F22C4781CB32E4CC9
:10412000246804F4E064C4F5E064C4F30721C1F139
:104130000404E3B20A4144789C40E1B2847814401C
:1041400021430C07210E254C05786155047804F0B5
:104150001F050124AC4005786D11AD0005F1E02587
:10416000C5F8004109E0047804F01F050124AC40C3
:104170001B4D0678761145F8264070BD194A0A4055
:104180000243154B1B1F1A60704739B1124A121DAA
:1041900012680243104B1B1D1A6006E00E4A121DE6
:1041A000126882430C4B1B1D1A607047042808D10B
:1041B0004FF0E021096941F004014FF0E022116164
:1041C00007E04FF0E021096921F004014FF0E022FF
:1041D000116170470000FA050CED00E000E400E01A
:1041E00080E100E080FFFF1F10B50446FE488442D6
:1041F00009D10121480601F085FA00214FF0007035
:1042000001F080FA08E00121880601F07BFA002124
:104210004FF0806001F076FA10BD30B50246002004
:104220000023146824F002041460146844F00104AC
:10423000146000E05B1C546804F001041CB94FF6E4
:10424000FF74A342F6D1546804F001040CB90020B5
:104250006CE08C79012C04D1146844F08004146063
:1042600003E0146824F080041460CC79012C04D19C
:10427000146844F04004146003E0146824F040041F
:1042800014600C7A012C04D1146844F020041460EA
:1042900003E0146824F0200414604C7A012C04D14B
:1042A000146844F01004146003E0146824F010044F
:1042B00014608C7A012C04D1146844F00804146052
:1042C00003E0146824F008041460CC7A012C04D1B3
:1042D000146844F00404146003E0146824F0040437
:1042E00014608C78A407CD7844EA05640D7944EA1B
:1042F00005444D7944EA05540D886D1E2C43D46164
:10430000146824F001041460002300E05B1C54686E
:1043100004F001041CB14FF6FF74A342F6D15468B7
:1043200004F001040CB1002000E0012030BD10B504
:104330000021837A012202FA03F1AC4A126842F0AA
:104340000102AA4B1A60A94A1C3212688A43A74B81
:104350001C331A60027BCAB9A44A0C3212688A4321
:10436000A24B0C331A604288C38842EA03439F4A37
:104370004032847A42F834300288838842EA034328
:104380009A4A4032847A02EBC4025360027B012ACB
:1043900019D1964A0C3212680A43944B0C331A60B6
:1043A0004288038842EA0343904A4032847A42F8C2
:1043B0003430C288838842EA03438C4A4032847A8C
:1043C00002EBC4025360C27A3AB9884A121D1268DD
:1043D0008A43864B1B1D1A6006E0844A121D126830
:1043E0000A43824B1B1D1A60028932B97F4A14327C
:1043F00012688A437D4B14331A600289012A06D160
:104400007A4A143212680A43784B14331A60427B9A
:10441000012A06D1754A1C3212680A43734B1C33B9
:104420001A60724A126822F00102704B1A6010BDC5
:1044300000218171C171017241728172C1728170FA
:10444000C170032101710221417101210180704776
:104450006649096841F00101644A11601146096822
:1044600043F60E729143614A11601146096841EAB0
:10447000002111601146096821F0010111607047A7
:1044800021B1026842F48032026003E0026822F443
:10449000803202607047E1B1026842F0800202603F
:1044A0004FF4C272125842F480734FF4C272135028
:1044B0004FF4CA72125842F480734FF4CA72135008
:1044C0004FF4D272125842F480734FF4D2721350E8
:1044D0001BE0026822F0800202604FF4C2721258A0
:1044E00022F480734FF4C27213504FF4CA72125800
:1044F00022F480734FF4CA7213504FF4D2721258E0
:1045000022F480734FF4D2721350704710B50246F4
:104510000020936803F08063B3F1806F00D110E056
:10452000936803F00063B3F1006F01D1012008E04C
:10453000936803F08053B3F1805F01D1022000E063
:104540000420042879D002F5C07303EB00131B6824
:1045500003F0010402F5C07303EB00131C600B7A37
:104560007BB94B7A0C8843EA445302F5C07404EBE0
:1045700000142468234302F5C07404EB0014236084
:1045800010E00B7A4C6843EAC4034C7A234302F5EB
:10459000C07404EB00142468234302F5C07404EBD8
:1045A000001423608B7A03F00F038B7202F5C07343
:1045B00003EB00135B6823F00F0402F5C07303EBF9
:1045C00000135C6002F5C07303EB00135B688C7A28
:1045D000234302F5C07404EB001463608B7B1C065C
:1045E0004B7B44EA034403E0006400400066004063
:1045F0000B7B44EA0323CC7A234302F5C07404EB1B
:104600000014A3608B7C1C064B7C44EA03440B7CA7
:1046100044EA0323CC7B234302F5C07404EB00146B
:10462000E36002F5C07303EB00131B6843F0010461
:1046300002F5C07303EB00131C6010BD10B50246F9
:10464000002321B1012907D002290FD109E0906888
:10465000F94C00EA04030BE09068F84C00EA04030C
:1046600006E09068F64C00EA040301E0002300BF76
:1046700000BFF44C181BA34216D007DC83B16FF0C7
:104680008060184470B1022818D111E0B0F5007FA5
:1046900010D0ED4C204448B1B0F5003F0ED10BE0F6
:1046A00002230DE000230BE0002309E0002307E0D4
:1046B000012305E0012303E0012301E0002300BF03
:1046C00000BFD8B210BD21B1012907D002290FD1F6
:1046D00009E0826842F0800282600AE0826842F467
:1046E0000042826005E0826842F40002826000E0DD
:1046F00000BF00BF704710B500F5D87303EB01137E
:104700001B6803F004031372137A53B900F5D873CE
:1047100003EB01131B6840F2FF7404EA5353136068
:1047200009E000F5D87303EB01131B686FF06044D8
:1047300004EAD303536000F5D87303EB01131B683D
:1047400003F00203537200F5D87303EB01135B68A7
:1047500003F00F03937200F5D87303EB01135B684A
:104760001B0AD37400F5D87303EB01139B68D37253
:1047700000F5D87303EB01139B681C0A147300F552
:10478000D87303EB01139B681C0C547300F5D873AA
:1047900003EB01139B681B0E937300F5D87303EBB7
:1047A0000113DB68D37300F5D87303EB0113DB68E7
:1047B0001C0A147400F5D87303EB0113DB681C0C9E
:1047C000547400F5D87303EB0113DB681B0E93746C
:1047D00021B9C36843F02003C36003E0036943F0D9
:1047E0002003036110BD21B9C26842F02002C260FB
:1047F00003E0026942F02002026170470246002095
:1048000019B9D36803F0030006E0012903D1136945
:1048100003F0030000E00020704710B502460B468D
:1048200000204FF6FF71BBB9146824F0020444F075
:104830000104146000E0491E546804F00304012CD4
:1048400001D00029F7D1546804F00304012C01D0F1
:10485000002032E0012030E0012B13D1146824F055
:104860000304146000E0491E546804F003040CB112
:104870000029F8D1546804F003040CB100201CE0B6
:1048800001201AE0022B17D1146824F0010444F02F
:104890000204146000E0491E546804F00304022C72
:1048A00001D00029F7D1546804F00304022C01D090
:1048B000002002E0012000E0002010BD01460020A1
:1048C0000A6822F0010242F002020A604A6802F01D
:1048D0000302022A00D10120704701464FF6FF7201
:1048E00000200B6823F002030B6000E0521E4B68AF
:1048F00003F00203022B01D1002AF7D14B6803F029
:104900000203022B00D001207047014600208A6973
:1049100002F070007047014600208A69100E70474F
:10492000014600208A69C2F3074070471AB1436903
:104930000B43436102E043698B434361704710B509
:104940000246002001F4700343B19369C1F31304DC
:1049500023400BB101202DE000202BE001F08073FB
:1049600043B15368C1F3130423400BB1012021E08C
:1049700000201FE001F0006343B19368C1F313040A
:1049800023400BB1012015E0002013E001F000737B
:1049900043B1D368C1F3130423400BB1012009E0F4
:1049A000002007E01369C1F3130423400BB1012079
:1049B00000E0002010BD0022244B994202D10023C8
:1049C000836111E0C1F3130201F000730BB1C26007
:1049D0000AE001F080630BB1026105E001F00063C1
:1049E0000BB1826000E0426070470246002002EA9C
:1049F00001030BB1012000E00020704770B50446B0
:104A00000D46002660692840002872D0B5F5807FE9
:104A100069D01DDC082D42D006DC012D2DD0022DE1
:104A200031D0042D7FD134E0102D3ED0202D42D046
:104A3000402D78D145E00000030000040003000889
:104A400000000310000100080001FFF77000F030C3
:104A5000B5F5004F61D009DCB5F5007F4AD0B5F55A
:104A6000806F4DD0B5F5006F5DD150E0B5F5803F5A
:104A70002DD0B5F5003F56D12FE0A0685549FFF77E
:104A8000B4FF064651E0E0680321FFF7AEFF06469B
:104A90004BE0E0680821FFF7A8FF064645E0E06824
:104AA0001021FFF7A2FF06463FE020690321FFF730
:104AB0009CFF064639E020690821FFF796FF06466D
:104AC00033E020691021FFF790FF06462DE0606873
:104AD0000821FFF78AFF064627E060681021FFF7EC
:104AE00084FF064621E0A0690121FFF77EFF06460C
:104AF0001BE01BE0A0690221FFF777FF064614E0E8
:104B0000A0690421FFF771FF06460EE00BE0A069E3
:104B10007021FFF76AFF064607E060680421FFF78F
:104B200064FF064601E0002600BF00E00026304694
:104B300070BDB1F5007F3AD00FDC202928D006DC0B
:104B400001291CD004291DD0082940D11DE040298D
:104B500021D0B1F5807F3AD126E0B1F5004F31D0B8
:104B600006DCB1F5806F25D0B1F5006F2FD124E0C0
:104B7000B1F5803F12D0B1F5003F28D111E0154AC0
:104B8000826025E00822C26022E01022C2601FE09D
:104B9000082202611CE01022026119E00822426032
:104BA00016E01022426013E00422426010E004226A
:104BB00042600DE0042242600AE000228261042289
:104BC000426005E0002282610422426000E000BFF2
:104BD00000BF704701010100016821F0010101607F
:104BE0000021016041608160C1600161212141615A
:104BF000DB49884204D13D21D94A103A91608CE0CA
:104C0000D7491831884205D14FF47461D44A103A1B
:104C1000916082E0D2493031884205D14FF474115D
:104C2000CF4A103A916078E0CD494831884205D1A9
:104C30004FF07461CA4A103A91606EE0C849603121
:104C4000884204D1C749C64A103AD16065E0C449D8
:104C50007831884204D1C449C14A103AD1605CE03D
:104C6000BF499031884204D1C049BD4A103AD16051
:104C700053E0BB49A831884205D14FF03D51B84AB5
:104C8000103AD16049E0BA49884204D13D21B84A7E
:104C9000083A116041E0B6491831884205D14FF415
:104CA0007461B34A083A116037E0B1493031884243
:104CB00005D14FF47411AE4A083A11602DE0AC49A9
:104CC0004831884205D14FF07461A94A083A116011
:104CD00023E0A7496031884204D1A249A44A121FA7
:104CE00011601AE0A2497831884204D19E49A04A55
:104CF000121F116011E09E499031884204D19B49F6
:104D00009B4A121F116008E09949A831884204D1DA
:104D10004FF03D51964A121F1160704710B50022A6
:104D20000268944B1A40CC680B6823434C692343B8
:104D30008C692343CC6923430C6A23434C6A234385
:104D40008C6A23434C6B23438C6B23431A430260CE
:104D5000426922F00702D1E90B3423431A4342612E
:104D60000B6943604B6883608B68C36010BD002192
:104D7000016041608160C160016141618161C16127
:104D8000016241628162C162016341638163704774
:104D900021B1026842F00102026003E0026822F0E1
:104DA00001020260704721B1026842F400420260D1
:104DB00003E0026822F400420260704721B10268F9
:104DC00042F02002026003E0026822F0200202604A
:104DD0007047416070470146486880B2704722B111
:104DE000036843F40023036003E0036823F4002313
:104DF00003600161704721B1026842F480220260C1
:104E000003E0026822F48022026070470AB1016167
:104E100000E0C1607047014600200A6802F40022E9
:104E20000AB1012000E000207047014600200A6816
:104E300002F001020AB1012000E0002070470146A3
:104E400000204A6902F03800704730B503460A4630
:104E500000200024464DAB4202D24149103901E006
:104E60004349103902F000550DB14C6800E00C6860
:104E7000414D2C4004EA02050DB1012000E0002064
:104E800030BD02463A4B9A4202D23548103801E012
:104E90003748103801F000531BB1374B0B40C3604B
:104EA00002E0354B0B408360704710B501F0800382
:104EB0004BB122B1436943F08003436103E043698E
:104EC00023F08003436180290BD02AB1036801F0ED
:104ED0001E042343036004E0036801F01E04A3439F
:104EE000036010BD70B50246002000240025204E4E
:104EF000B24202D21A4B103B01E01D4B103B1F4E39
:104F00000E4036B11E2606EAD124166806EA0405CC
:104F100002E0566906F0800501F000560EB15C68AB
:104F200000E01C68144E344004EA010616B10DB1CD
:104F3000012000E0002070BD02460D4B9A4202D2D3
:104F40000748103801E00A48103801F000531BB13F
:104F5000094B0B40C36002E0074B0B408360704776
:104F6000106002403D000020400F002000003D2066
:104F7000106402403F801CF07D0F7D0F3C0F3C0F02
:104F800010B504469848844208D10121084600F033
:104F900086FB0021012000F082FB76E093488442EA
:104FA00008D10121022000F07AFB0021022000F04C
:104FB00076FB6AE08E48844208D10121042000F08B
:104FC0006EFB0021042000F06AFB5EE08948844209
:104FD00008D10121082000F062FB0021082000F028
:104FE0005EFB52E08448844208D10121102000F089
:104FF00056FB0021102000F052FB46E07F4884421F
:1050000008D10121202000F04AFB0021202000F0DF
:1050100046FB3AE07A48844208D10121402000F062
:105020003EFB0021402000F03AFB2EE07548844210
:1050300008D10121802000F032FB0021802000F007
:105040002EFB22E07048844208D10121801500F037
:1050500026FB0021A01500F022FB16E06B488442DD
:1050600008D10121401500F01AFB0021601500F065
:1050700016FB0AE06648844207D10121001500F0C2
:105080000EFB0021201500F00AFB10BDF0B50A460A
:1050900000210023002400BF3DE0012505FA01F3B3
:1050A000156805EA03049C4234D105684F000326C5
:1050B000BE40B543056015794E00B54006683543DE
:1050C00005601579012D02D01579022D16D185685C
:1050D0004F000326BE40B543856055794E00B5406C
:1050E000866835438560456801268E40B543456036
:1050F000456896798E40B6B235434560C5684F0025
:105100000326BE40B543C560D5794E00B540C6689C
:105110003543C560491C1029BFD3F0BD4FF6FF7160
:1051200001600021017141718171C171704708B541
:105130004FF480320092009A0A430092009AC261B2
:10514000C161009AC261C2690092C269009208BD41
:105150000246002013690B400BB1012000E0002043
:1051600070470146086980B27047024600205369C3
:105170000B400BB1012000E0002070470146486958
:1051800080B2704701837047418370470AB1018341
:1051900000E0418370474161704742694A40426183
:1051A0007047F0B5002300244D07ED0E02FA05F319
:1051B000CE1000F1200555F826504E07F70E0F26A9
:1051C000BE40B543CF1000F1200646F82750CE1060
:1051D00000F1200555F8265045EA0304CE1000F1F1
:1051E000200545F82640F0BD0000024000040240C2
:1051F00000080240000C024000100240001402406F
:1052000000180240001C024000200240002402401E
:1052100000280240F948006840F00100F7490860A2
:105220000020F64908310860F4480068F449084055
:10523000F2490860F348091D0860F348EF498431DA
:105240000860F0481038091D0860EC48006820F438
:105250008020EA4908600020E8490C310860E749ED
:105260008C31086070470021E44A921C117011468D
:105270000870704710B501460022002300204A1133
:10528000012A02D1DD4C236808E0022A03D1DB4C5D
:105290007034236802E0D94C7434236801F01F0293
:1052A000012494401C400CB1012000E0002010BDFE
:1052B00038B5002000900024002500BF3120FFF702
:1052C000D9FF05460098401C00900098B0F5A06FEB
:1052D00001D0002DF2D03120FFF7CCFF08B101241E
:1052E00000E00024204638BD01460020C34A106873
:1052F00020F0F80040EAC10010607047C349086020
:1053000070470021BD4A703211701170012802D01F
:1053100004280AD104E00121B84A7032117005E076
:105320000521B64A7032117000E000BF00BF70471F
:10533000B7490860704770B5049C41EA82150126A0
:10534000C6EB530645EA0645054345EA0465AB4E00
:10535000361D356070BDAD4908667047820142EA6E
:105360000172A64B84331A607047A849886670475B
:1053700010B5830143EA016343EA02739F4C88340A
:10538000236010BDA14908677047A049C8647047F1
:1053900002460020994B0833186820F0EC6042EA7E
:1053A00001031843954B08331860704702460020EC
:1053B000924B0833186820F0784042EA0103184302
:1053C0008E4B083318607047014600208B4A083224
:1053D000106820F0030008431060704787480830C9
:1053E000006800F00C00704701460020834A083234
:1053F000106820F0F000084310607047014600205C
:105400007E4A0832106820F4E0500843106070476C
:1054100001460020794A0832106820F4604040EAD2
:10542000C10010607047F0B5002100220024022561
:1054300000260223714F08373F6807F00C0121B1A5
:10544000042905D0082937D105E0724F076036E0FE
:10545000714F076033E0694F3F1D3F68C7F38056C7
:10546000664F3F1D3F6807F03F036EB16A4FB7FBC1
:10547000F3F7DFF888C10CF1040CDCF800C0CCF3C2
:10548000881C07FB0CF40CE0624FB7FBF3F7DFF866
:105490006CC10CF1040CDCF800C0CCF3881C07FBD9
:1054A0000CF4564F3F1D3F68C7F301477F1C7D003A
:1054B000B4FBF5F7076002E0564F076000BF00BF7E
:1054C0004E4F08373F6807F0F0010909534F7A5CE7
:1054D0000768D7404760494F08373F6807F4E051F5
:1054E000890A4E4F7A5C4768D7408760434F083738
:1054F0003F6807F46041490B484F7A5C4768D740E2
:10550000C760F0BD002100F44072B2F5407F0AD1BF
:105510003A4A0832116821F4F811414A0240114315
:10552000364A08321160354A70321268C0F30B03F4
:105530001A43324B70331A6070473549443908605A
:1055400070473349403908607047364908607047F2
:1055500001460020294A8C32106820F01F004A1EA4
:105560001043264A8C321060704701460020234ABF
:105570008C32106820F4F8504A1E40EA02201F4A7C
:105580008C3210607047014600201C4A8C32106833
:1055900020F4401008431060704701460020174A6D
:1055A0008C32106820F440000843106070470146B8
:1055B0000020124A8C32106820F4403008431060FA
:1055C000704719490860704739B10C4A3032126887
:1055D00002430A4B30331A6006E0084A3032126840
:1055E0008243064B30331A607047F9B1034A3432B4
:1055F00012680243014B34331A601CE00038024049
:10560000FFFFF6EA1030002400300020000047427F
:10561000800E47420024F40000127A00E4020020C9
:10562000FFFCFF0F5C014742E01147428F4A1268BE
:1056300082438E4B1A60704739B18C4A121D126832
:1056400002438A4B1B1D1A6006E0884A121D12682D
:105650008243864B1B1D1A60704739B1834A0C3256
:1056600012680243814B0C331A6006E07F4A0C3209
:10567000126882437D4B0C331A60704739B17B4A04
:10568000103212680243794B10331A6006E0774AF1
:10569000103212688243754B10331A60704739B16B
:1056A000724A243A12680243704B243B1A6006E0A7
:1056B0006E4A243A126882436C4B243B1A6070474E
:1056C00039B16A4A203A12680243684B203B1A609B
:1056D00006E0664A203A12688243644B203B1A6017
:1056E000704739B1614A1C3A126802435F4B1C3B58
:1056F0001A6006E05D4A1C3A126882435B4B1C3B11
:105700001A60704739B1594A143A12680243574B2C
:10571000143B1A6006E0554A143A12688243534B10
:10572000143B1A60704739B1504A103A126802436C
:105730004E4B103B1A6006E04C4A103A1268824306
:105740004A4B103B1A60704739B1484A1C32126804
:105750000243464B1C331A6006E0444A1C3212686E
:105760008243424B1C331A60704739B13F4A2032A2
:10577000126802433D4B20331A6006E03B4A203258
:1057800012688243394B20331A60704739B1374A67
:10579000243212680243354B24331A6006E0334A40
:1057A000243212688243314B24331A60704739B176
:1057B0002E4A2C32126802432C4B2C331A6006E01E
:1057C0002A4A2C3212688243284B2C331A607047C5
:1057D00039B1264A303212680243244B30331A6002
:1057E00006E0224A303212688243204B30331A607E
:1057F0007047012808D11D493C31096841F0080172
:105800001A4A3C32116007E018493C31096821F01E
:105810000801164A3C321160704739B1134A273AE1
:1058200012780243114B273B1A7006E00F4A273AC1
:10583000127882430D4B273B1A7070470B4840305B
:10584000006840F0807009494031086070470146A7
:105850000020064A283A12680A400AB1012000E0F6
:1058600000207047014926390870704734380240DB
:1058700010B50446FE48844208D101210846FFF7CE
:1058800052FF00210120FFF74EFF9DE0B4F1804F51
:1058900008D101210846FFF735FF00210120FFF75D
:1058A00031FF91E0F348844208D101210220FFF743
:1058B00029FF00210220FFF725FF85E0EE48844202
:1058C00008D101210420FFF71DFF00210420FFF76C
:1058D00019FF79E0E948844208D101210820FFF747
:1058E00011FF00210820FFF70DFF6DE0E44884421E
:1058F00008D101211020FFF705FF00211020FFF73C
:1059000001FF61E0DF48844208D101212020FFF738
:10591000F9FE00212020FFF7F5FE55E0DA48844229
:1059200008D101210220FFF7FEFE00210220FFF72F
:10593000FAFE49E0D548844209D101210804FFF765
:10594000F2FE00214FF48030FFF7EDFE3CE0D0483E
:10595000844209D101214804FFF7E5FE00214FF4FC
:105960000030FFF7E0FE2FE0CA48844209D1012150
:105970008804FFF7D8FE00214FF48020FFF7D3FE04
:1059800022E0C548844208D101214020FFF7BAFE39
:1059900000214020FFF7B6FE16E0C048844208D13F
:1059A00001218020FFF7AEFE00218020FFF7AAFE34
:1059B0000AE0BB48844207D101218015FFF7A2FE0F
:1059C0000021A015FFF79EFE10BD00220288A84B03
:1059D00098420ED0AC4B98420BD0B0F1804F08D01B
:1059E000A44B984205D0A44B984202D0A34B9842B6
:1059F00004D14FF68F731A404B881A43A04B98423C
:105A000007D0A04B984204D04FF6FF431A400B89B1
:105A10001A4302804B68C3620B880385944B9842FB
:105A200002D0994B984201D18B7A0386012383825D
:105A300070474FF0FF3141600021018001814180BA
:105A4000817270470185828270470A460021018871
:105A50004FF68F73194011430180704741627047C0
:105A6000C16270470146486A70470146088D704719
:105A700021B1028842F00202028004E002884FF65F
:105A8000FD731A400280704721B1028842F004027F
:105A9000028004E002884FF6FB731A4002807047D0
:105AA00021B1028842F08002028004E002884FF6B1
:105AB0007F731A400280704702884FF6F7731A40CE
:105AC000028002880A430280704702884FF6FF4333
:105AD0001A40028002880A430280704721B102887E
