:020000040800F2
:10000000D8350020796D0008ED020008EF020008E5
:10001000F3020008F7020008FB02000800000000DD
:10002000000000000000000000000000FF020008C7
:100030000103000800000000030300080503000896
:10004000936D0008936D0008936D0008936D000890
:10005000936D0008936D0008936D0008936D000880
:10006000936D0008936D0008936D0008936D000870
:10007000936D0008936D0008936D00088B3F000896
:10008000936D0008936D0008936D00089B3600087F
:10009000B1360008936D0008936D0008936D000859
:1000A000936D0008936D0008936D0008936D000830
:1000B000936D0008936D0008936D0008936D000820
:1000C000936D0008936D0008936D0008936D000810
:1000D000936D0008533900083B3B00081F3D0008A2
:1000E000936D0008936D0008936D0008936D0008F0
:1000F000936D0008936D0008936D0008936D0008E0
:10010000936D0008936D0008936D0008936D0008CF
:100110001D3F000831420008EF440008936D0008BD
:10012000936D0008936D0008936D0008936D0008AF
:10013000936D0008936D0008936D0008D137000897
:10014000E7370008936D0008936D0008936D000871
:10015000936D0008936D0008936D0008F743000845
:10016000936D0008936D0008936D0008936D00086F
:10017000936D0008936D0008936D0008936D00085F
:10018000936D0008936D000800F002F800F04CF841
:100190000AA090E8000C82448344AAF10107DA45E2
:1001A00001D100F041F8AFF2090EBAE80F0013F0E8
:1001B000010F18BFFB1A43F0010318477C830000AE
:1001C0009C8300000A4410F8014B14F00F0508BF8F
:1001D00010F8015B240908BF10F8014B6D1E05D013
:1001E00010F8013B6D1E01F8013BF9D1641E03D0EC
:1001F000641E01F8015BFBD19142E4D3704700001B
:100200000023002400250026103A28BF78C1FBD81F
:10021000520728BF30C148BF0B6070471FB507F0B9
:10022000AEFF1FBD10B510BD06F093FE1146FFF7DF
:10023000F5FF00F009F806F0B1FE03B4FFF7F2FF96
:1002400003BC06F077FE000008B500F065F9DFEDAD
:10025000201AB0EE001AF0EE080A9FED1D0A42F2D5
:10026000107343F6982203211A4802F024F801F093
:10027000FCFC2CE018480068184990FBF1F201FBE7
:100280001200F8B91648006C00EE900AF8EEE00A89
:10029000B0EE600ADFED130A0E4801F015FE0020F3
:1002A00000900C4890ED0B0ABDEEC00A10EE100A4B
:1002B00003B2002211460C4802F076FA00F03CFD31
:1002C00000F0A2FD04480068401C03490860D1E723
:1002D00000000000780F00200000002020480100EE
:1002E000782200200000C84200680040704700BF2C
:1002F000FEE700BFFEE700BFFEE700BFFEE7704776
:1003000070477047704700000CB5002001900090C6
:100310007648006840F480307449086000BF734834
:10032000006800F4003000900198401C0190009893
:1003300018B90198B0F5A06FF1D16C48006800F4CD
:10034000003010B10120009001E0002000900098E2
:10035000012846D165484030006840F0805063492C
:10036000403108606248006840F4404060490860DD
:100370005E48083000685D4908310860084600683A
:1003800040F4004008600846006840F4A05008604F
:100390005848091F0860081F006840F08070091F56
:1003A000086000BF5148006800F000700028F9D0D4
:1003B00040F20570504908604C480830006820F051
:1003C00003004A49083108600846006840F002000E
:1003D000086000BF45480830006800F00C0008289D
:1003E000F8D10CBD10B54548006840F47000434991
:1003F00008603E48006840F001003C490860002069
:100400003A4908310860394800683D490840374991
:1004100008603C48091D0860081F006820F480201F
:10042000091F0860002031490C310860FFF76CFF9C
:100430004FF0006031498039086010BD70B5002070
:100440000022022300240221284D08352D6805F0E2
:100450000C0020B1042806D0082834D107E02A4D2A
:100460002A4E356033E02A4D284E35602FE01F4D6F
:100470002D1D2D68C5F380541C4D2D1D2D6805F0D4
:100480003F0154B1224DB5FBF1F5184E361D3668CB
:10049000C6F3881605FB06F209E01B4DB5FBF1F526
:1004A000124E361D3668C6F3881605FB06F20F4D50
:1004B0002D1D2D68C5F301456D1C6B00B2FBF3F5D6
:1004C000124E356003E0104D104E356000BF00BF86
:1004D000064D08352D68C5F303150E4E705D0B4DA6
:1004E0002D68C540094E356070BD000000380240DF
:1004F0000070004008544007003C024088ED00E0D6
:10050000FFFFF6FE103000240024F4000400002059
:1005100000127A000800002010B54FF4A06003F02C
:10052000FBFF124803F080F94FF4E13003F06DFA5D
:100530004FF4612003F050FB4FF4E13003F017FC5F
:100540004FF4E13003F055FD03F0CEFE002303220B
:100550000821104603F01AF8002303220821104650
:1005600003F0C1F803F092FF10BD0000A086010067
:1005700010B50A480068401C08490860086800EB8C
:10058000D0714910A0EB410129B900F0D5FB01F071
:1005900032FF01F09DF810BD7047000018000020E8
:1005A00010B540F2F441FE4806F08FFC0020FC49F3
:1005B0000870487010BD10B52DED088BF948007813
:1005C00070B9F94890ED000AF84880ED000AF64845
:1005D00090ED010AF64880ED000A0120F14908700B
:1005E000F14890ED000AEE4880ED040AEE4890EDE7
:1005F000010AEB4880ED030AEE48C07B48B1ED48A4
:1006000090ED040AF7EE000A30EE200A80ED040AAD
:1006100004E09FEDE90AE74880ED040AE54890ED23
:10062000040AF7EE000AB4EEE00AF1EE10FA7CD20A
:100630000120E2490870DF48B0F9080000EE100A16
:10064000B8EEC00ADE48D0ED000AB4EE600AF1EE62
:1006500010FA79D1D748B0F90A0000EE100AB8EEC6
:10066000C00AD848D0ED000AB4EE600AF1EE10FAE4
:100670006AD1D049B1F9080007F093FA41EC1B0B9D
:100680009FEDD10B53EC102B07F0DEFA41EC1A0B67
:100690009FEDCF1BB0EE4A0AF0EE6A0A06F00CFEA0
:1006A000B0EE409AF0EE609A9FEDCB0B53EC102B1E
:1006B00051EC190B07F0C8FA41EC180B06F0C8FF13
:1006C000C7490860BB49B1F90A0007F06AFA41EC72
:1006D0001B0B9FEDBD0B53EC102B07F0B5FA41EC53
:1006E0001A0B9FEDBB1BB0EE4A0AF0EE6A0A06F049
:1006F000E3FDB0EE409AF0EE609A9FEDB70B53EC3D
:10070000102B51EC190B07F09FFA41EC180B06F077
:100710009FFFB4490860A74890ED000AB048D0EDAB
:10072000000A30EE200AB04801E02AE00CE080ED3B
:10073000000AA04890ED010A0846D0ED000A30EE0C
:10074000200AAA4880ED000A9A48B0F9080000EE95
:10075000100AB8EEC00A9A4880ED000A9548B0F930
:100760000A0000EE100AB8EEC00A964880ED000AB2
:10077000B7EE000A8A4880ED010AB7EE000A80ED64
:10078000020A874890ED020AFBEE090AB4EEE00A7D
:10079000F1EE10FA04D8BBEE090A80ED020A0DE072
:1007A0007F4890ED020ADFED920AB4EEE00AF1EE26
:1007B00010FA03DB9FED8E0A80ED020A7F48007875
:1007C00058B97B4890ED000A754880ED010A7748DA
:1007D00090ED000A724880ED020A7348D0ED041AC9
:1007E000B0EE611A6E48D0ED031AF0EE610AD0ED5A
:1007F000011AB0EE610ADFED701A00F5956100F59F
:10080000717001F0A5FD664880ED090A6648D0EDDB
:10081000031AB0EE611A6248D0ED041AF0EE610AD4
:10082000D0ED021AB0EE610ADFED631A00F25C410E
:1008300000F5826001F08CFD594880ED0A0ABDEC9C
:10084000088B10BD10B52DED088B5648007870B997
:10085000554890ED000A554880ED000A524890ED49
:10086000010A534880ED000A01204E4908704E48A5
:1008700090ED000A4A4880ED040A4B4890ED010AC9
:10088000474880ED030A4B48C07B48B1494890ED8A
:10089000040AF7EE000A30EE200A80ED040A04E0B4
:1008A0009FED450A434880ED040A424890ED040A52
:1008B000F7EE000AB4EEE00AF1EE10FA6DD2012074
:1008C0003E4908703B48B0F9080000EE100AB8EE47
:1008D000C00A3B48D0ED000AB4EE600AF1EE10FA0F
:1008E0005CD13448B0F90A0000EE100AB8EEC00A34
:1008F0003448D0ED000AB4EE600AF1EE10FA4DD1A2
:100900002C49B1F9080007F04CF941EC1B0B9FEDA5
:100910002E0B53EC102B07F097F941EC1A0B9FEDBF
:100920002C1BB0EE4A0AF0EE6A0A06F0C5FCB0EEE7
:10093000409AF0EE609A9FED280B53EC102B51EC8F
:10094000190B07F081F941EC180B06F081FE2449E0
:1009500008601849B1F90A0007F023F941EC1B0BB4
:100960009FED190B53EC102B07F06EF941EC1A0BAD
:100970009FED171BB0EE4A0AF0EE6A0A06F09CFCE7
:10098000B0EE409AF0EE609A9FED130B53EC102BF3
:1009900051EC190B07F058F92CE064E046E0000038
:1009A0006001002034000020B81D00201C00002041
:1009B00020000020EC260020000000003500002070
:1009C0002C00002030000020000000A02C436C3FD1
:1009D000000000000000184000000020DCA54C4092
:1009E000380000203C0000202400002028000020C7
:1009F00000000C4241EC180B06F02AFEF149086099
:100A0000F14890ED000AF148D0ED000A30EE200ADE
:100A1000EF4880ED000AEC4890ED010A0846D0ED61
:100A2000000A30EE200AEB4880ED000AE648B0F9F3
:100A3000080000EE100AB8EEC00AE74880ED000A90
:100A4000E148B0F90A0000EE100AB8EEC00AE34827
:100A500080ED000AB7EE000AE14880ED010AB7EE2A
:100A6000000A80ED020ADE4890ED020AFBEE090A58
:100A7000B4EEE00AF1EE10FA04D8BBEE090A80EDFC
:100A8000020A0DE0D64890ED020A5FED270AB4EEA7
:100A9000E00AF1EE10FA03DB1FED2B0A80ED020AEB
:100AA000D048007858B9D04890ED000ACC4880ED85
:100AB000010ACE4890ED000AC94880ED020ACC48F0
:100AC000D0ED041AB0EE611AC548D0ED031AF0EE6D
:100AD000610AD0ED011AB0EE610A5FED491A00F526
:100AE000127100F5B27001F033FCBD4880ED090AC7
:100AF000BF48D0ED031AB0EE611AB948D0ED041A20
:100B0000F0EE610AD0ED021AB0EE610A5FED561AFE
:100B100000F5FE7100F5D87001F01AFCB04880EDC8
:100B20000A0ABDEC088B10BD10B5B14890ED000A63
:100B3000AB4880ED040AAE4890ED010AA84880ED6C
:100B4000030AAC48407DE8B39F48807B58B19E487B
:100B500090ED010AA24880ED020A9B4890ED000A40
:100B60009F4880ED010A984890ED062AF0EE421A5F
:100B70009F4890ED042AB0EE421A994890ED032A5E
:100B8000F0EE420A90ED012AB0EE420A00F55E71E5
:100B900000F5257001F0DCFB914880ED090A9448CE
:100BA000D0ED031AB0EE611A8D48D0ED041AF0EEC4
:100BB000610AD0ED021AB0EE610A5FED811A00F50C
:100BC0008C7100E006E0803001F0C2FB844880EDCB
:100BD0000A0A38E0824890ED0B0A80ED020A90ED97
:100BE0000C0A80ED010A8248D0ED041AB0EE611AB9
:100BF0007B48D0ED031AF0EE610AD0ED011AB0EE99
:100C0000610A5FED931A00F1CC01343001F0A0FBD2
:100C1000734880ED090A7648D0ED031AB0EE611AE8
:100C20006F48D0ED041AF0EE610AD0ED021AB0EE72
:100C3000610A5FED9F1A00F58C71803001F088FB2E
:100C4000674880ED0A0A10BD10B52DED028B00201B
:100C5000694908706349087000BF1FEDA90A604820
:100C600080ED020A624890ED000A5D4880ED040ABA
:100C70001FEDAF0A80ED010A604890ED121BB0EE47
:100C8000410AF0EE610A51EC100B06F0E1FC544908
:100C9000C8605A4890ED121BB0EE410AF0EE610AAE
:100CA0009FED571B53EC112B51EC100B06F0B6FDCA
:100CB00006F048FF04464FF4B47104FB01F000EE67
:100CC000100AB8EEC00A464880ED010A4848D0ED47
:100CD000041AB0EE611A4248D0ED031AF0EE610A30
:100CE000D0ED011AB0EE610A5FEDCD1A00F1CC0132
:100CF000343001F02DFB3A4880ED090A3C48D0ED34
:100D0000031AB0EE611A3648D0ED041AF0EE610A0B
:100D1000D0ED021AB0EE610A5FEDD91A00F58C71C0
:100D2000803001F015FB2E4880ED0A0A03202C4983
:100D30000870BDEC028B10BD10B52948007803285F
:100D400016D003DC38B101281BD10EE00B2812D0DD
:100D50000C2816D112E01FEDE80A214880ED090A9F
:100D60001FEDEB0A80ED0A0A0CE0FFF76DFF09E0CA
:100D7000FFF7DAFE06E0FFF765FD03E0FFF71BFC77
:100D800000E000BF00BF164890ED020AFBEE090A22
:100D9000B4EEE00AF1EE10FA04D8BBEE090A80EDD9
:100DA000020A0DE00E4890ED020A5FEDEF0AB4EE84
:100DB000E00AF1EE10FA03DB1FEDF30A80ED020A00
:100DC00010BD00003C000020EC2600203800002070
:100DD00024000020280000202C00002030000020EB
:100DE0006001002035000020200000201C000020B1
:100DF000B81D0020C02700203400002078220020E9
:100E0000000000000080764010B52DED088BE5480D
:100E1000807E012804D0022871D0032870D1AAE076
:100E2000E1480078012827D0DE48B0F90200A0F59B
:100E3000806000EE100AB8EEC00AF7EE080A20EE55
:100E4000200ABDEEC00A10EE100A00B2D74988830E
:100E5000D448B0F90000A0F5806000EE100AB8EEAA
:100E6000C00AF7EE080A20EE200ABDEEC00A10EE16
:100E7000100A01B2CD48C183CB480078032837D18E
:100E8000C849B1F90610A1F5806006F08AFE41EC70
:100E90001B0B9FEDC70B53EC102B06F0D5FE41EC5E
:100EA000190BC14890ED0B0A10EE101A084607F016
:100EB000F5F841EC1A0B53EC192B06F0FBFB41EC57
:100EC000180B06F0C5FBB849C862084690ED0C0A3D
:100ED000B448B0F90400A0F5806000EE900AF8EE86
:100EE000E00A9FEDB51A00EE810A084680ED0C0A73
:100EF000AC48807F28B10720AC49087604E03EE189
:100F000043E10320A9490876A7480078012807D0C3
:100F1000A54800780C2803D0A34800780B2803D1FB
:100F20000120A249087606E0A048007E072802D0EA
:100F300003209E4908769C480078012809D09948EA
:100F4000807E022805D09848407810B90320964941
:100F500008709548407828B99348007810B101206E
:100F60009149087090480078032803D101208F49E7
:100F700081F860000AE18C480078012878D089481F
:100F800090F82D0038B101208849C8764FF4C86028
:100F90008A49088006E000208449C87640F226206D
:100FA000864908807F4890F8290028B18348B0F925
:100FB00000007E4988830DE07A4890F82B0030B11C
:100FC0007E480088404200B27849888302E00020D1
:100FD00076498883734890F82A00A8B17348C07E88
:100FE00001280AD17549B1F90010484200EBD071CF
:100FF00049100AB26D49CA8320E070480088404217
:1010000001B26A48C18319E0664890F82C0090B19B
:101010006648C07E012808D16849B1F9000000EB9C
:10102000D0714910614AD18308E06448B0F90010DA
:101030005E48C18302E000215C48C183594890F8B2
:101040003F0018B107205949087602E003205749AC
:10105000087655480078032844D15248B0F90C006E
:1010600010F1640F05DC6FF063004E49888108E0E1
:1010700037E04C48B0F90C00642802DB6420494991
:1010800088814848B0F90E0010F1640F04DC6FF05D
:1010900063014448C18107E04248B0F90E0064286A
:1010A00002DB64213F48C1813F4890ED0B0ADFED30
:1010B000440AB4EEE00AF1EE10FA04D89FED400ABB
:1010C00080ED0B0A24E0384890ED0B0ADFED3D0A75
:1010D000B4EEE00AF1EE10FA1ADB9FED3A0A80ED69
:1010E0000B0A15E02F4890F8470018B10C202E4944
:1010F00008700DE02B4890F8450018B10B202A49E4
:10110000087005E001202849087003202749087667
:1011100025480078012807D0234800780C2803D000
:10112000214800780B2803D101202049087606E0E9
:101130001E48007E072802D003201C4908761A4862
:101140000078012809D01748807E022805D016486B
:10115000407810B90320144908701348407828B922
:101160001148007810B101200F4908700E4800782E
:10117000032803D101200D4981F8600006E000201A
:10118000094908700949087600E000BF00BF064819
:101190000078054948700548007E04494876BDEC52
:1011A000088B10BDC02700206001002058060020D9
:1011B000FCA9F1D24D62803F6F12033C4000002039
:1011C00000000CC200000C4210B52DED028BFE4851
:1011D000007800283DD0012802D0032843D137E011
:1011E000FA480068012807D0F9480068012803D0B0
:1011F000F848006801282AD1F748007D012804D06A
:10120000F54890F8280001281ED1F4480068B8B9C4
:101210000120F2490860F2490860F24890ED000AA6
:10122000DFEDF10A30EE200A80ED000A90ED000AB1
:10123000EE4880ED030A9FEDEE0A80ED090A06E014
:101240000020E749086002E00020E44908600BE064
:101250000AE0E84801F05FF8E44801F05CF8E6488D
:1012600001F059F800BF00BF00BFE448006810BBA0
:10127000E34890ED121BB0EE410AF0EE610A9FEDDB
:10128000E11B53EC112B51EC100B06F0C7FA41ECAB
:10129000180B06F0DDF9D34908600120D749086032
:1012A000D24801F038F8D44801F035F842F228303D
:1012B000D049C863A3E0C448007801287ED1D04853
:1012C000B0F9AC0000EE900AF8EEE00AB0EE600A69
:1012D000DFEDCE0AC74800F0F7FDC14800680128DD
:1012E00004D141F27070C349C86324E0C14991ED53
:1012F0000B0ADFEDC70AB4EEE00AF1EE10FA0FD2E6
:10130000BF49B1F9AC00002801DB014600E04142D1
:10131000142905DABF480068401CBE49086002E095
:101320000020BC490860BB480068142803D14FF472
:10133000FA60B049C863B248D0F8A800502804D376
:101340000120A4490860B4490860AD48D0F8A8005D
:101350003C2802D800209F490860A94890ED121B44
:10136000B0EE410AF0EE610A9FEDA61B53EC112B83
:1013700051EC100B06F052FA41EC180B06F068F92C
:101380009A490861084690ED031AF0EE410A90ED83
:10139000041AB0EE410A00F097FD9948B0F95400E4
:1013A00000EE100AB8EEC00A934880ED040A8F4898
:1013B00090ED0B1AF0EE410A8F4800E006E090ED48
:1013C000041AB0EE410A00F07FFD18E0854890ED68
:1013D000000A864880ED030A894890ED121BB0EEA2
:1013E000410AF0EE610A51EC100B06F031F97F4929
:1013F0000861804800F08FFF7F4800F08CFFBDEC53
:10140000028B10BD10B57448807E022873D07248DC
:10141000C07F18B9704890F8460018B37F4800881C
:10142000404200EE100AB8EEC00A7D4880ED030A83
:101430007A48008800EE100AB8EE400A784880ED3D
:10144000160A7848B0F9540010F11E0F0BDA7548EF
:10145000B0F9AC001E2806DD0020734908600120A9
:10146000594908700EE070480068401C6E490860D9
:1014700008460068642805D10320534908700020FD
:1014800069490860544890F83500A8B1634800885D
:1014900000EE100AB8EE400A614880ED030A5F488A
:1014A0000088404200EE100AB8EEC00A5C4880EDA9
:1014B000160A0320444908704748C07F18B94648B7
:1014C00090F8460010B15948006848B39FED480AAB
:1014D000534880ED030A9FED460A80ED160A00206E
:1014E000394908704E4800F016FF4D484C3000F066
:1014F00012FF15E0FFE79FED3E0A494880ED030A21
:101500009FED3B0A80ED160A00202F4908703B49E9
:101510000860434800F0FFFE41484C3000F0FBFEFD
:1015200043480068401C42490860424801683D4801
:10153000B0F9AC0008443F4908603F4800683949A9
:10154000B1F9541008443C490860394800683B49E7
:101550000968884220DB374800683849096890FBF1
:10156000F1F000EE100AB8EEC00A2D4880ED170A1F
:10157000314800683149096890FBF1F000EE100A2B
:10158000B8EEC00A264880ED040A00202849086009
:101590002849086028490860214890ED031AF0EEB8
:1015A000410A90ED041AB0EE410A00F08DFC1C488F
:1015B00090ED161AF0EE410A90ED171AB0EE410ABE
:1015C0004C3000F081FC3BE0A40000209C00002097
:1015D000BC000020B0000020C0270020B800002080
:1015E000C4000020700000200000B442F01B002066
:1015F00000000000A41B00203C1C0020A0000020D4
:10160000E02400200000000000004240000048C329
:10161000004083C568000020AC000020440000208A
:10162000741A00208023002064000020A8000020FD
:101630005C0000204C0000205400002060000020CE
:10164000F748D0F8A8005A2803D2F548006D5A2868
:1016500002D30020F349087010BDF348B0F84D10D4
:10166000B0F86200081A00EE900AF8EEE00AB0EE58
:10167000600ADFEDEE0AB4EEE00AF1EE10FA03DBE9
:101680000020EB49086002E00120E9490860E948D0
:1016900090F8320010B10120E74908607047E24835
:1016A000B0F84F000A2804D14FF4FA60E3490880EB
:1016B0000DE0DD48B0F84F00102804D14FF4486029
:1016C000DE49088003E04FF4FA60DC490880704787
:1016D00010B5FFF7E4FFFFF7C0FFFFF793FEFFF73A
:1016E00073FD10BDD048B0F843000A2804D14FF470
:1016F000FA60D349088017E0CB48B0F843001028BF
:1017000004D140F63400CE4908800DE0C648B0F858
:1017100043001E2804D140F60F20C949088003E089
:101720004FF4FA60C64908807047BF48B0F84110CE
:10173000B0F85E00081A01EE100AB8EEC11AB0EE59
:10174000410AB2EE041AC0EE011AF0EE610AB2EEDE
:101750000E1AB4EEC10AF1EE10FA03DD0120B94908
:10176000086002E00020B74908607047AE48B0F852
:1017700043001E2803D10220B34908702AE0AA487A
:10178000B0F843000F2801D1012000E00020A64955
:10179000B1F84110322901D1012100E000210840B7
:1017A00018B10120A849087014E09F48B0F8430020
:1017B0000F2801D1012000E000209B49B1F8411021
:1017C000962901D1012100E00021084010B100203C
:1017D0009D49087070479448B0F84110B0F85E0019
:1017E000081A0A2190FBF1F0984908608E4890F899
:1017F0003A00012805D1B2EE040A954880ED000AAE
:101800001AE0894890F83A00022805D1B2EE0C0A95
:101810008F4880ED000A0FE0834890F83A000328D3
:1018200005D1B2EE0C0A8A4880ED000A04E0B2EE5F
:10183000040A874880ED000A704710B57D48807E15
:10184000022877D07B48C07F18B97A4890F84600C4
:1018500018B37B48008800EE100AB8EE400A7D48B5
:1018600080ED030A76480088404200EE100AB8EE88
:10187000C00A784880ED160A6948B0F9AC0010F14A
:101880001E0F0BDA6648B0F954001E2806DD002052
:10189000714908600120634908700EE06E480068D5
:1018A000401C6D49086008460068642805D1032083
:1018B0005C4908700020684908605E4890F835006F
:1018C000E0B15F480088404200EE100AB8EEC00A5E
:1018D000604880ED030A5A48008800EE100AB8EE0E
:1018E000400A5C4880ED160A03204E4908705948AA
:1018F00000F011FD57484C3000F00DFD4D48C07F01
:1019000068BB4C4890F8460048BB1FEDC70A5148D9
:1019100080ED030A1FEDCA0A80ED160A0020414936
:1019200008704C4800F0F7FC4A484C3000F0F3FCDB
:1019300015E0FFE71FEDD20A464880ED030A1FEDD0
:10194000D40A80ED160A0020364908704349086021
:10195000404800F0E0FC3F484C3000F0DCFC4048E0
:101960000068401C3E4908603E4801682C48B0F9B8
:10197000AC0008443B4908603B4800682849B1F97D
:1019800054100844384908603548006837490968E8
:10199000884220DB334800683449096890FBF1F045
:1019A00000EE100AB8EEC00A2A4880ED170A2E4849
:1019B00000682E49096890FBF1F000EE100AB8EEBD
:1019C000C00A244880ED040A002025490860254902
:1019D0000860254908601F4890ED031AF0EE410A9F
:1019E00090ED041AB0EE410A00F06EFA194890ED3D
:1019F000161AF0EE410A90ED171AB0EE410A4C307B
:101A000000F062FA0648D0F8A8005A2803D2044829
:101A1000006D5A2802D300200249087010BD000052
:101A200080230020A4000020242600200000C842BB
:101A30009C000020C0270020BC00002044000020A3
:101A400046000020D4000020840000208C000020EC
:101A500088000020741A002064000020A0000020EC
:101A60005C0000204C00002054000020600000209A
:101A700010B52DED028BD7480078002860D00128E2
:101A800002D0032863D15AE0D348006838B1D34864
:101A90000068012803D0D248006801284ED1D148FF
:101AA000007D012804D0CF4890F82800012842D1B9
:101AB000CD48006801281ED1CC480068B8B9012083
:101AC000CA490860CA490860CA4890ED000AFBEE9E
:101AD0000E0A30EE200A80ED000A90ED000AC6489A
:101AE00080ED030A9FEDC50A80ED090A26E000207B
:101AF000BF49086022E0C2480068401CC049086035
:101B000008460068322190FBF1F201FB1200A8B9EF
:101B1000B84890ED000AFBEE0E0A30EE200A80ED88
:101B2000000A90ED000AB44880ED030A9FEDB30A65
:101B300080ED090A02E00020AC49086008E007E0F7
:101B4000AD4800F0E8FBAF4800F0E5FB00BF00BF88
:101B500000BFAD480068F0B9AC4890ED281BB0EE6E
:101B6000410AF0EE610A9FEDAA1B53EC112B51ECD8
:101B7000100B05F053FE41EC180B05F069FD9D4973
:101B800008600120A04908609B4800F0C4FB9D4804
:101B900000F0C1FB65E08F480078012848D19B48E0
:101BA000D0F8A800502804D301208D4908609A4934
:101BB00008609648D0F8A8003C2802D80020884940
:101BC0000860924890ED281BB0EE410AF0EE610AE1
:101BD0009FED8F1B53EC112B51EC100B05F01EFEEB
:101BE00041EC180B05F034FD83490861084690ED7F
:101BF000031AF0EE410A90ED041AB0EE410A00F02B
:101C000063F98248B0F9AC0000EE100AB8EEC00AE1
:101C10007C4880ED040A784890ED0B1AF0EE410AFA
:101C2000784890ED041AB0EE410A00F04DF918E042
:101C3000704890ED000A704880ED030A734890EDFB
:101C4000281BB0EE410AF0EE610A51EC100B05F0D2
:101C5000FFFC694908616B4800F05DFB664800F0D5
:101C60005AFBBDEC028B10BD704710B55FED911AA9
:101C70009FED6A1ADFED6A0A9FED600A4FF47A73EE
:101C800042F210720321674800F015FBF2EE041ACD
:101C90009FED621ADFED640A9FED580A4FF47A73E4
:101CA00042F2107203215F484C3000F004FB5FEDFC
:101CB000A11A9FED5A1ADFED5A0A9FED500A4FF410
:101CC0007A7343F6982203215648983000F0F3FACD
:101CD000F2EE041A9FED511ADFED530A9FED470A09
:101CE0004FF47A7343F6982203214E48E43000F013
:101CF000E2FADFED421AB6EE001AF1EE040A9FEDA9
:101D00003F0A43F2C82341F270720321474800F0B2
:101D1000D2FAF2EE041AB1EE041ADFED450A9FED95
:101D2000370A00234FF4FA620321424800F0C3FA55
:101D3000DFED321A9FED311AF3EE040A9FED2F0A00
:101D400041F27C5342F2AC6203213B4800F0B3FA0B
:101D5000F2EE0E1A9FED391AF1EE040A9FED270AF2
:101D60004FF47A7341F288320321234800F0A3FA3A
:101D7000F1EE001A9FED321ADFED320A9FED1F0AD5
:101D800042F2107343F6982203211E4800F093FAA2
:101D9000F1EE041A9FED291AF1EE040A9FED170ADD
:101DA0004FF47A7341F270720321274800F083FAEE
:101DB000F1EE001A9FED251ADFED250A9FED0F0ABF
:101DC00042F2107344F638220321224800F073FADD
:101DD00010BD0000A40000209C000020BC000020DA
:101DE000B0000020C0270020DC000020B800002048
:101DF000C40000206C000020881C002000000000AF
:101E0000E0000020D41C0020A0000020E0240020DE
:101E10000000000000004240AC0000200AD7233C34
:101E200000008C42741A002000009042A41B002085
:101E30000000F042F01B00203C1C0020CDCC4C3EAA
:101E4000CDCCCC3D00004842201D00209A99993EFF
:101E5000000096436C1D0020D0ED000AF4EEC00A8D
:101E6000F1EE10FA01DD80ED000AD0ED000AB1EECE
:101E7000401AF4EEC10AF1EE10FA03D2F1EE400A74
:101E8000C0ED000A70470364C263816380ED000AFD
:101E9000C0ED010A80ED021A704780ED000AC0ED26
:101EA000010A80ED021ADFEDFE1AC0ED081ADFED1F
:101EB000FC1AC0ED091ADFEDFA1AC0ED0A1ADFEDBF
:101EC000F81AC0ED0B1A704710B52DED088B0446BB
:101ED000B0EE408AF0EE608A84ED048AC4ED038A95
:101EE00038EEC80A84ED070A94ED0C0AB5EEC00A74
:101EF000F1EE10FA27D094ED0C0A10EE101A0846F5
:101F000006F0CCF841EC190B94ED070A10EE101A0C
:101F1000084606F0C3F841EC1B0BB0EE4B0AF0EE9E
:101F20006B0A05F0C9FAB0EE40AAF0EE60AA53ECD5
:101F3000192B51EC1A0B05F085FF04D29FEDD80A3E
:101F4000BDEC088B10BDA06B03283ED194ED000AB8
:101F5000D4ED070A20EE200A84ED080A94ED090A60
:101F6000D4ED010A94ED071A00EE810A84ED090A06
:101F700094ED070AD4ED060A30EE600AD4ED020AA9
:101F800020EE200A84ED0A0AD4ED100AF8EE600A69
:101F9000B0EE600A04F12400FFF75EFF94ED080A3A
:101FA000D4ED090A30EE200AD4ED0A0A30EE200AF8
:101FB00084ED0B0AD4ED0F0AF8EE600AB0EE600A69
:101FC00004F12C00FFF748FF42E0A06B04283FD14A
:101FD00094ED070AD4ED060A30EE600AD4ED000A4B
:101FE00020EE200A84ED080A94ED010AD4ED070AD8
:101FF00020EE200A84ED090A94ED070AD4ED060AC2
:10200000B0EE001A01EE600AD4ED050A30EE200AA7
:10201000D4ED020A20EE200A84ED0A0A94ED080AA3
:10202000D4ED090A30EE200AD4ED0A0A30EE200A77
:10203000D4ED0B0A30EE200A84ED0B0AD4ED0F0A22
:10204000F8EE600AB0EE600A04F12C00FFF704FF1E
:1020500094ED060A84ED050A94ED070A84ED060A5C
:1020600094ED0D0AB5EEC00AF1EE10FA25D094ED0C
:102070000D0A10EE101A084606F010F841EC190B84
:1020800094ED0B0A10EE101A084606F007F841EC22
:102090001B0BB0EE4B0AF0EE6B0A05F00DFAB0EE3A
:1020A00040AAF0EE60AA53EC192B51EC1A0B05F084
:1020B0008FFD02D29FED7A0A42E794ED0B0A3FE7CB
:1020C00010B52DED088B0446B0EE408AF0EE608A24
:1020D00084ED048AC4ED038A38EEC80A84ED070A49
:1020E00094ED0C0AB5EEC00AF1EE10FA27D094ED8B
:1020F0000C0A10EE101A084605F0D0FF41EC190B3F
:1021000094ED070A10EE101A084605F0C7FF41ECDF
:102110001B0BB0EE4B0AF0EE6B0A05F0CDF9B0EEFA
:1021200040AAF0EE60AA53EC192B51EC1A0B05F003
:1021300089FE04D29FED5A0ABDEC088B10BDA06B3E
:1021400003283ED194ED000AD4ED070A20EE200AC0
:1021500084ED080A94ED090AD4ED010A94ED071AFA
:1021600000EE810A84ED090A94ED070AD4ED060A0F
:1021700030EE600AD4ED020A20EE200A84ED0A0A4D
:10218000D4ED100AF8EE600AB0EE600A04F1240003
:10219000FFF762FE94ED080AD4ED090A30EE200A3A
:1021A000D4ED0A0A30EE200A84ED0B0AD4ED0F0AB2
:1021B000F8EE600AB0EE600A04F12C00FFF74CFE66
:1021C0003EE0A06B04283BD194ED070AD4ED060A4B
:1021D00030EE600AD4ED000A20EE200A84ED080AF1
:1021E00094ED010AD4ED070A20EE200A84ED090AD5
:1021F00094ED070AD4ED060AB0EE001A01EE600A6B
:10220000D4ED050A30EE200AD4ED020A20EE200AB1
:1022100084ED0A0A94ED080AD4ED0A0A30EE200A89
:10222000D4ED0B0A30EE200A84ED0B0AD4ED0F0A30
:10223000F8EE600AB0EE600A04F12C00FFF70CFE25
:1022400094ED060A84ED050A94ED070A84ED060A6A
:1022500094ED0D0AB5EEC00AF1EE10FA28D094ED17
:102260000D0A10EE101A084605F018FF41EC190B84
:1022700094ED0B0A10EE101A084605F00FFF41EC22
:102280001B0BB0EE4B0AF0EE6B0A05F015F9B0EE41
:1022900040AAF0EE60AA53EC192B51EC1A0B01E0A6
:1022A0000000000005F094FC02D21FED030A43E792
:1022B00094ED0B0A40E72DE9F0412DED048B044627
:1022C0000D4616461F46F0EE409AB0EE608AF0EEDC
:1022D000418AB0EE619A2F4860642F48A064F0EE06
:1022E000491AB0EE681AF0EE480AB0EE690A3B46A9
:1022F000324629462046D4F844C0E047B0EE491A99
:10230000F0EE680AB0EE480A2046A16C8847BDECA2
:10231000048BBDE8F0811FED1E0A80ED080A1FED59
:10232000200A80ED090A1FED220A80ED0A0A1FED3E
:10233000240A80ED0B0A1FED260A80ED050A1FED29
:10234000280A80ED060A1FED2A0A80ED070A704769
:1023500070B52DED068B05460C46B0EE408AF0EECA
:10236000608AB0EE419AF0EE619AF0EE480AB0EE63
:10237000680A2846FFF7A8FD30EE290AB0EE40AA09
:10238000F0EE4A0AB0EE490A2046FFF79DFDBDEC8B
:10239000068B70BD871E00089B1E000810B5044602
:1023A0002068A0F2012048B1012802D0042810D1F1
:1023B0000AE021462B4800F0BEF90BE021462948EF
:1023C000583800F0B8F905E02146274800F0B3F985
:1023D00000E000BF00BF10BD10B504462068A0F2A9
:1023E000052028B921462048583000F0A4F900E023
:1023F00000BF00BF10BD08B5002000901B4890ED45
:102400001E0ABDEEC00A10EE100A02B2174890ED87
:102410000B0ABDEEC00A10EE100A01B200231448E8
:1024200000F01EFA00200090124890ED0B0ABDEE5D
:10243000C00A10EE100A01B200231A460C4800F040
:102440003DFA002000900C4890ED0B0ABDEEC00A4A
:1024500010EE100A01B200231A46084800F02EFAC6
:1024600008BD0000D8230020E0240020741A0020BA
:10247000006400403C1C0020A41B002000680040B9
:1024800070B505460C464C22A91D394804F0A6FC3F
:10249000374890ED0C0AB1EE400A84ED000A354849
:1024A00090ED000A344880ED000A314890ED0E0AA4
:1024B000304880ED000A90ED000A2F48D0ED000A68
:1024C00030EE600ADFED2D0AB4EEE00AF1EE10FA0C
:1024D00005DB2B480068401E2949086013E02548A9
:1024E00090ED000A2448D0ED000A30EE600ADFEDDE
:1024F000250AB4EEE00AF1EE10FA04D8204800688C
:10250000401C1F4908601E4800684FF4B4714843DE
:1025100000EE100AB8EEC00A1648D0ED000A30EE00
:10252000200AB1EE400A84ED010A114890ED0D0A2F
:1025300084ED020A90ED070AB1EE400A84ED030A29
:1025400090ED080AB1EE400A84ED040A90ED060A07
:1025500084ED050A90ED030A84ED060A90ED050A64
:1025600084ED070A90ED040A84ED080A70BD0000AE
:1025700090250020E8000020E40000200000A24395
:10258000EC0000200000A2C30A7BCB7A42EA0322BF
:10259000826182698260826942600269521C0261C2
:1025A00070472DE9F04104460D46002600272068BB
:1025B0006060287BE97A40EA012020602068616839
:1025C000401AE060E06810F5805F07DAA06B401CFD
:1025D000A063E06800F50050E0610DE0E068B0F550
:1025E000805F07DDA06B401EA063E068A0F500508F
:1025F000E06101E0E068E0612168A06B01EB403040
:10260000A0602068A269801A00EE100AF8EEC00AE5
:10261000A06B4FF4B472504300EE100AB8EEC00A3B
:102620009FEDBD1A00EE810A10EE101A084605F063
:1026300035FD41EC100B84ED120BE269207D411C4D
:10264000217504F1200141F82020207D062801D1C8
:1026500000202075002605E004F1200050F8260037
:102660000744761C062EF7DB062097FBF0F020646B
:10267000A97B687B41EA002000B2A4F85400BDE8C1
:10268000F08170B504460D4620686060287BE97AC9
:1026900040EA0120206020686168401AE060E0683C
:1026A00010F5805F07DAA06B401CA063E06800F5BE
:1026B0000050E0610DE0E068B0F5805F07DDA06BE1
:1026C000401EA063E068A0F50050E06101E0E06812
:1026D000E0612168A06B01EB4030A0602068A26936
:1026E000801A00EE100AF8EEC00AA06B4FF4B47224
:1026F000504300EE100AB8EEC00A9FED881A00EEB3
:10270000810A10EE101A084605F0C8FC41EC100BC7
:1027100084ED120BA97B687B41EA00202064206CC9
:10272000B0F57A7F04DB206CA0F57F40FF38206491
:10273000687C206570BD70B504460D46E06B401C9A
:10274000E063E06B052804DC29462046FFF71CFF08
:1027500003E029462046FFF724FF70BD70B504460C
:102760000E461546E06B401CE063E06B022800DC7F
:10277000A56131462046FFF784FFE06B0A2812DC92
:10278000A069A168401A10F57A6F03DA05F50050C8
:10279000A06108E0A069A168401AB0F57A6F02DD77
:1027A000A5F50050A06170BD2DE9F04186B08046CE
:1027B0000C4615461E460C9F40F2FF10019000206B
:1027C0008DF80C008DF80D0008208DF80E00200A01
:1027D0008DF80F008DF81040290A8DF811108DF832
:1027E0001250310A8DF813108DF81460390A8DF8E3
:1027F00015108DF8167001A9404602F08FF806B04A
:10280000BDE8F0812DE9F04186B080460C461546C2
:102810001E460C9F40F2FF20019000208DF80C0016
:102820008DF80D0008208DF80E00200A8DF80F009D
:102830008DF81040290A8DF811108DF81250310AC8
:102840008DF813108DF81460390A8DF815108DF875
:10285000167001A9404602F061F806B0BDE8F081AB
:102860002DE9F04186B080460C4615461E460C9F69
:102870004FF40070019000208DF80C008DF80D00D1
:1028800008208DF80E00200A8DF80F008DF81040FA
:10289000290A8DF811108DF81250310A8DF8131095
:1028A0008DF81460390A8DF815108DF8167001A98D
:1028B000404602F033F806B0BDE8F0812DE9F04162
:1028C00086B080460C4615461E460C9F40F2FF100F
:1028D000019000208DF80C008DF80D0008208DF877
:1028E0000E00200A8DF80F008DF81040290A8DF88F
:1028F00011108DF81250310A8DF813108DF81460F4
:10290000390A8DF815108DF8167001A9404602F0AD
:1029100005F806B0BDE8F081FFFF333D0000343D0F
:10292000F0B503460C461888002113E0675C80EA86
:10293000072000250BE0460000F4004CBCF1000F1E
:1029400003D041F2210C86EA0C0630466D1C082D9E
:10295000F1D3491C9142E9D31880F0BD2DE9F84329
:1029600005460F4690464FF00009002000900626CD
:10297000FE484078002859D0002085F86300FB48C5
:102980004078C0F3800078B1F9A1284604F014FA29
:10299000F84908600846006830B1F448007820F033
:1029A0000400001DF1490870F048407800F0010073
:1029B00078B1EFA1284604F0FFF9EE490860084617
:1029C000006830B1E948007820F00100401CE74978
:1029D0000870E6484078C0F3400078B1E4A128468A
:1029E00004F0EAF9E34908600846006830B1DF48BE
:1029F000007820F00200801CDC490870DB48407839
:102A0000C0F3C00078B1DCA1284604F0D5F9D9495B
:102A100008600846006830B1D448007820F008000B
:102A20000830D2490870002028600AE128785A2826
:102A3000FBD16878A528F8D1A878E97800EB0120C7
:102A4000801D4045F1D1B8F1080FEEDB0422294684
:102A50006846FFF765FFA8F10602A91D6846FFF763
:102A60005FFF2879697900EB01201FFA80F9BDF832
:102A700000004845D9D10626E0E0AC192078C028EE
:102A800060D008DC90280FD0A02813D0A52829D02A
:102A9000B0286FD13EE0D02870D0D1286CD0D92892
:102AA0006BD0F028F5D1C3E06078B8490870B01C4D
:102AB000C6B2C2E06078A17800EB012000B2B34951
:102AC0004880E078217900EB012000B2AF4988808E
:102AD0006079A17900EB012000B2AC49C880F01DFB
:102AE000C6B2AAE06078A17800EB012000B2A74945
:102AF0000881E078217900EB012000B2A3494881E8
:102B00006079A17900EB012000B2A0498881F01D15
:102B1000C6B292E06078A17800EB012000B29B4938
:102B2000C881E078217900EB012000B29749088242
:102B30006079A17900EB012000B294494882F01D30
:102B4000C6B27AE06078A17800EB012000B28F492C
:102B50008882E078217900EB012000B28B49C8829D
:102B60006079A17900EB012000B288490883F01D4B
:102B7000C6B262E05FE001E04CE03FE06078A1783F
:102B800000EB012000B281494883E078217900EB15
:102B9000012000B27D4988836079A17900EB012092
:102BA00000B27A49C8830846B0F91A0000EE100A4C
:102BB000B8EEC00ADFED760A20EE200A084680ED66
:102BC0000F0AB0F91C0000EE100AB8EEC00ADFEDE3
:102BD000700A20EE200A084680ED100AB0F91E00A7
:102BE00000EE100AB8EEC00ADFED6A0A20EE200AF5
:102BF000084680ED110AF01DC6B21EE0634854F885
:102C0000011F016261684162A168816206F10D00E5
:102C1000C6B212E05D4854F8011FC16261680163E9
:102C2000A1684163E168816306F11100C6B204E066
:102C3000701DC6B201E0464600BF00BF4645FFF624
:102C40001CAF5248B0F91200404200EE100AB8EE34
:102C5000C00ADFED500A20EE200A87ED040A4B4837
:102C6000B0F91000404200EE100AB8EEC00ADFEDE5
:102C7000490A20EE200A87ED030A4448B0F90E0005
:102C8000404200EE100AB8EEC00ADFED420A20EE24
:102C9000200A87ED050A404890ED000A3F4880ED84
:102CA000000A3A4890ED110AB1EE400A3A4880ED28
:102CB000000A90ED000A3948D0ED000A30EE600AB3
:102CC000DFED370AB4EEE00AF1EE10FA05DB354825
:102CD0000068401E3349086013E02F4890ED000A59
:102CE0002E48D0ED000A30EE600ADFED2F0AB4EE78
:102CF000E00AF1EE10FA04D82A480068401C29497D
:102D000008602A4890ED000A294880ED000A1F4813
:102D100090ED080A254880ED000A90ED000A24484D
:102D2000D0ED000A30EE600ADFED1D0AB4EEE00AD5
:102D3000F1EE10FA05DB1F480068401E1D490860CF
:102D400013E01A4890ED000A1948D0ED000A30EE61
:102D5000600ADFED150AB4EEE00AF1EE10FA04D8CD
:102D600014480068401C1349086025E0F00000206A
:102D70004F4B0000F40000206E6577207061636B9C
:102D80006574206974656D7300000000DC25002007
:102D90000AD7233CCDCCCC3DFC000020F80000201D
:102DA0000000A543100100200000A5C3040100207D
:102DB0000001002014010020314800684FF4B47174
:102DC000484300EE100AB8EEC00A2E48D0ED000AC3
:102DD00030EE200A87ED000A2B4890ED000A2B48C0
:102DE00080ED000A2A4890ED090A274880ED000A84
:102DF00090ED000A2548D0ED000A30EE600A5FED44
:102E0000180AB4EEE00AF1EE10FA05DB214800687A
:102E1000401E2049086013E01B4890ED000A1B4843
:102E2000D0ED000A30EE600A5FED210AB4EEE00A50
:102E3000F1EE10FA04D817480068401C15490860E4
:102E4000154800684FF4B471484300EE100AB8EE1C
:102E5000C00A1248D0ED000A30EE200A87ED010AC0
:102E60000B4890ED100ADFED0E0A30EE200A87EDD8
:102E7000020A90ED0F0A87ED000ABDE8F883000012
:102E800014010020040100200C0100200801002092
:102E9000DC2500201801002010010020FC0000208B
:102EA000A470954030B5034605E013F8010B80EAA5
:102EB0000204B348025D081EA1F10101F5D11046DC
:102EC00030BD70B505460C4600260DB1022C01D868
:102ED000002070BD611EFF222846FFF7E3FF064673
:102EE000601E285CB04201D10120F2E70020F0E72B
:102EF00070B505460C4600260DB1022C00D870BDF9
:102F0000611EFF222846FFF7CDFF0646601E2E54A5
:102F100000BFF4E730B5034613B94FF6FF7030BD7C
:102F200009E013F8014B82EA0400C0B2954D35F870
:102F3000100080EA2222081EA1F10101F1D1104601
:102F4000EDE770B505460C4600260DB1022C01D800
:102F5000002070BDA11E8C4802882846FFF7DAFFCA
:102F60000646F1B2A01E285C814206D1601E285C94
:102F7000B0EB162F01D10120EBE70020E9E770B597
:102F800005460C4600260DB1022C00D870BDA11ECE
:102F90007D4802882846FFF7BDFF0646A01E2E5436
:102FA000310A601E295400BFF0E770B504460D4693
:102FB00000260CB1022D01D8FF2070BDFF2229464A
:102FC0002046FFF76FFFF8E72DE9FC5F05460F4647
:102FD000092F01D8BDE8FC9F0024A146CBE015F8DD
:102FE00004A0601C295CA01C285C41EA0026601D2E
:102FF000295CA01D285C41EA002B281900F1070874
:1030000028190168009100798DF8040006F1090083
:103010001FFA80F9BAF1A50F77D105216846FFF7AD
:1030200050FF002871D028194946FFF78AFF002871
:10303000F8D0BBF5017F6AD012DC40F20311ABEB94
:1030400001008B452BD006DCBBF1010F1AD0BBF180
:10305000030F74D11CE0FE2828D0FF286FD14BE06D
:10306000BBF5027F6DD006DCABF20620002856D0FF
:1030700001287BD15AE0ABF20130002868D0022849
:1030800074D16CE032464146404803F0A7FE6EE042
:10309000324641463D480C3003F0A0FE67E0324620
:1030A00041463A48363003F099FE60E01B2E22D1AB
:1030B000324641463548393003F090FE334890F8A7
:1030C0003900012809DB314890F83900072804DC71
:1030D00002202E4981F8C5000DE02C4890F83900F7
:1030E0000B2808DB294890F83900112803DC01205F
:1030F000264981F8C5003AE0102E05D132464146F6
:103100002248543003F06AFE31E031E0FFE7012E3F
:1031100004D198F800001D4981F8740027E0324678
:1031200041461A48763003F059FE20E0072E05D1BB
:10313000324641461548773003F050FE17E015E05F
:10314000FFE73246414611487E3003F047FE0EE06D
:10315000324641460D48843003F040FE07E03246D7
:1031600041460A48AC3003F039FE00E000BF00BF22
:1031700004EB090084B2A7423FF731AF00BF29E753
:1031800093810008948200081C010020242600205E
:1031900010B503463BB1087838B9012008701078A3
:1031A000401C107001E000200870107800EBD07413
:1031B0006410A0EB44040CB9002010BD0120FCE712
:1031C000CB8A03400BB1012300E00023137070474A
:1031D00010B5044604F1290221460120FFF7F0FF53
:1031E00004F12A0221460420FFF7EAFF04F12B0232
:1031F00021460220FFF7E4FF04F12C0221460820BB
:10320000FFF7DEFF04F12D0221461020FFF7D8FF63
:1032100004F12F0221462020FFF7D2FF04F13002F3
:1032200021464020FFF7CCFF04F1310221468020E7
:10323000FFF7C6FF04F1320221464FF48070FFF71A
:10324000BFFF04F1330221464FF40070FFF7B8FFCF
:1032500004F1340221464FF48060FFF7B1FF04F11E
:10326000350221464FF40060FFF7AAFF04F12E0259
:1032700021464FF48050FFF7A3FF04F136022146A8
:103280004FF40050FFF79CFF04F1370221464FF442
:103290008040FFF795FF04F1380221464FF40040CB
:1032A000FFF78EFF94F82900974A9849FFF770FFBF
:1032B000392108552A21085D954A9649FFF768FF8C
:1032C0003A2108552B21085D934A9449FFF760FF86
:1032D0003B2108552C21085D914A9249FFF758FF80
:1032E0003C2108552D21085D8F4A9049FFF750FF7A
:1032F0003D2108552F21085D8D4A8E49FFF748FF73
:103300003F2108553021085D8B4A8C49FFF740FF6B
:10331000402108553121085D894A8A49FFF738FF65
:10332000412108553221085D874A8849FFF730FF5F
:10333000422108553321085D854A8649FFF728FF59
:10334000432108553421085D834A8449FFF720FF53
:10335000442108553521085D814A8249FFF718FF4D
:10336000452108552E21085D7F4A8049FFF710FF4F
:103370003E2108553621085D7D4A7E49FFF708FF4A
:10338000462108553721085D7B4A7C49FFF700FF3D
:10339000472108553821085D794A7A49FFF7F8FE38
:1033A0004821085510BD817AC176017FC27E891AF5
:1033B0004177C27E0277417F01290ED1016A491C03
:1033C0000162016A01EBD1725210A1EB420212B903
:1033D0000022827701E001228277417F02290ED10B
:1033E000416A491C4162416A01EBD1725210A1EB62
:1033F000420212B90022C27701E00122C277B0F97D
:103400000810A1F58061052903DA002228210A5459
:1034100002E0012228210A547047C17A012901D112
:10342000817608E0C17A032901D1817603E0C17A6F
:10343000022900D18176704730B504460D46122D21
:1034400000D030BD04B9FCE72078617840EA012063
:10345000C0F30A004C4908806078C010A17840EAA7
:103460004110C0F30A0048494880A0788011E178F3
:1034700040EA8100217940EA8120C0F30A004249F4
:10348000888020794010617940EAC110C0F30A00B9
:103490003D49C880207C617C40EA0120C0F30A00DD
:1034A0003949088160790011800888726079C0F319
:1034B0000110C872A079E17940EA012000B23249D6
:1034C0008881207A617A40EA012001B22E48C181C8
:1034D000A07AE17A40EA012001B22B480182217BE7
:1034E0000175617B4175A07BE17B40EA01202649A3
:1034F000C8820846FFF791FF2348FFF754FF224890
:10350000FFF766FE00BF9CE71F0100201E010020A0
:1035100021010020200100202301002022010020A1
:103520002501002024010020270100202601002081
:1035300029010020280100202B0100202A01002061
:103540002D0100202C0100202F0100202E01002041
:103550003101002030010020330100203201002021
:103560003501002034010020370100203601002001
:1035700039010020380100203B0100203A010020E1
:103580003D0100203C010020C0270020F0B58BB099
:1035900004460D4616461F460121084602F01CFA55
:1035A0000121480602F061FA09220B21994802F034
:1035B00000F809220C21974801F0FBFF4FF4C0509E
:1035C000099002208DF8280009A9924801F066FFB1
:1035D00014208DF8040003208DF8050001208DF8DB
:1035E00006008DF8070001A800F09BFF13208DF85E
:1035F000040001208DF8050000208DF80600012050
:103600008DF8070001A800F08CFF834800F0F4FF5C
:1036100006A801F015F900208DF81E0001208DF894
:103620001F0000208DF820008DF821008DF8220069
:103630008DF823008DF81A708DF81B008DF81C5042
:103640008DF81D40ADF8186006A9734800F0EDFF35
:1036500000208DF812008DF8130001208DF8140061
:103660000020ADF80800ADF80A00ADF80C00ADF888
:103670000E00ADF8100001208DF8150002A801F031
:103680005EF801220221644801F058FB0122114634
:10369000614801F053FB0BB0F0BD10B501215E484D
:1036A00001F0B4FB18B101215B4801F04AFC10BDE8
:1036B00000B585B00221584801F0A8FB88B104216B
:1036C000554801F03EFC5549534801F07CFB6A46E1
:1036D0000021514801F017FA00BF6846FEF75EFE70
:1036E00000BF05B000BDF0B58BB004460D461646D0
:1036F0001F460121022002F06FF90121880602F025
:10370000B4F909220C21464801F053FF09220D218A
:10371000434801F04EFF4FF44050029002208DF8D4
:103720000C0002A93E4801F0B9FE40208DF80400CB
:1037300003208DF8050000208DF8060001208DF88B
:10374000070001A800F0EDFE364800F055FF08A87C
:1037500001F076F800208DF8260001208DF8270072
:1037600000208DF828008DF829008DF82A008DF8AA
:103770002B008DF822008DF823008DF824508DF851
:103780002540ADF8206008A9264800F04EFF0E2025
:103790008DF81A0000208DF81B0001208DF81C0008
:1037A0000020ADF81000ADF81200ADF81400ADF82F
:1037B0001600ADF8180001208DF81D0004A800F0D7
:1037C000BEFF01220221174801F0B8FA0BB0F0BD8C
:1037D00010B50121134801F019FB18B1012111485E
:1037E00001F0AFFB10BD00B585B002210D4801F01E
:1037F0000DFB68B102210B4801F0A3FB6A460021D2
:10380000084801F080F900BF6846FEF7E5FD00BFFB
:1038100005B000BD00000240006400400800003216
:10382000000402400068004010B596B00446012133
:10383000022002F0D1F80121880502F0CDF8012123
:10384000102002F023F907221146FE4801F0B1FED4
:1038500014A801F06BFE8020149002208DF8540013
:1038600000208DF8550001208DF8570014A9F54867
:1038700001F014FEF44803F055F810A803F01FF906
:1038800010940020ADF84400ADF846004FF480607D
:10389000ADF848000420ADF84A000020ADF84C0017
:1038A00010A9E94803F0A5F801224021E64803F0F9
:1038B000D5F9E64801F098FB684601F060FC4FF04E
:1038C00000600090E048001D0190E1480290002057
:1038D000039040200490002005904FF480600690F3
:1038E0000020079008904FF48070099000020A9021
:1038F00000200B900C900D900E906946D34801F07B
:1039000015FC0022D2494031D04801F070FC012161
:10391000CE4801F078FC0121CC4801F041FC252083
:103920008DF83C0000208DF83D008DF83E00012010
:103930008DF83F000FA800F0F4FD012240F2244171
:10394000C14803F094F90121BF4803F0DAF816B03A
:1039500010BD10B540F22441BB4803F0C3F9002864
:1039600052D0B9480088B8488088B84801F05BFC5C
:1039700020BB0021B54801F013FCB649B34801F063
:1039800088FCB24801F02FFCC0F14000B249086049
:103990004020AE49091D0860081F006840F400205F
:1039A000091F08600121A94801F0FAFB00BFAA48DD
:1039B000008881B2A648FFF73FFD25E00021A3481B
:1039C00001F0EEFBA349A14801F063FC9F4801F020
:1039D0000AFCC0F14000A049086040209B49091D35
:1039E0000860081F006820F40020091F08600121FA
:1039F000964801F0D5FB00BF9748008881B29448F3
:103A00004030FFF719FD00BF10BD10B596B0044659
:103A10000121084601F0E0FF0121480501F0DCFF2B
:103A20000121480402F021F8072202218B4801F00D
:103A3000C0FD07220321894801F0BBFD14A801F055
:103A400075FD0C20149002208DF8540000208DF894
:103A5000550001208DF8570014A9804801F01EFD83
:103A60007F4802F05FFF10A803F029F810940020AF
:103A7000ADF84400ADF84600ADF848000C20ADF8B4
:103A80004A000020ADF84C0010A9754802F0B1FFC3
:103A9000012240216C4803F0E1F8724801F0A4FAD9
:103AA000684601F06CFB4FF0006000906C48001D10
:103AB00001906D4802900020039064200490002043
:103AC00005904FF4806006900020079008904FF416
:103AD0008070099000020A9000200B900C900D90CD
:103AE0000E9069465F4801F021FB00225E49643177
:103AF0005C4801F07CFB01215A4801F084FB012164
:103B0000584801F04DFB26208DF83C0000208DF830
:103B10003D008DF83E0001208DF83F000FA800F019
:103B200000FD012240F224414D4803F0A0F801219C
:103B30004B4802F0E6FF16B010BD10B540F224412C
:103B4000474803F0CFF828B3454800884448001D93
:103B500000880021434801F023FB4449414801F01B
:103B600098FB404801F03FFBC0F164004049086009
:103B700064203C49091D08603A488838D0F888001C
:103B800040F40020091F08600121364801F008FBBD
:103B900000BF20E00021334801F002FB33493148E7
:103BA00001F077FB2F4801F01EFBC0F164003049A3
:103BB000086064202B49091D08602A488838D0F81D
:103BC000880020F40020091F08600121254801F029
:103BD000E7FA00BF00BF10BD10B596B00446012142
:103BE000022001F0F9FE0121880401F03EFF0121CD
:103BF000480501F0F1FE07220A21124801F0D9FC24
:103C000007220B210F4801F0D4FC02208DF844005C
:103C100003208DF8450000208DF8460001208DF826
:103C200047008002109010A9064801F037FC4FF4BD
:103C30000060109010A9034801F030FC27208DF897
:103C4000000017E000040240001001404064024000
:103C5000092C00200000301040010020000002402C
:103C60000044004088600240892C0020000C0020A5
:103C70004401002002208DF8010001208DF802008F
:103C80008DF80300684600F04CFC12940020ADF85B
:103C90004C00ADF84E00ADF85000ADF854000C20CB
:103CA000ADF8520012A9FE4802F0A3FE012240F234
:103CB0002441FB4802F0DBFF5021F94803F009F8EA
:103CC0006420059000200C900D900E9009904FF408
:103CD0008060079080100A90F148001D029000203B
:103CE0000F90089006904FF400300B9080020190E6
:103CF00000200490EB48039001A9EB4801F016FA6C
:103D00000121E94801F04CFA01224021E44802F087
:103D1000A5FF0121E24802F0F4FE16B010BD10B577
:103D200040F22441DE4802F0DDFFF8B1DC4802F049
:103D300017FF40F22441DA4803F00FF80021DA4877
:103D400001F02EFA00224021D54802F087FF00BF83
:103D5000D649D448FEF794FB00BF01224021D04849
:103D600002F07CFF0121D04801F01AFA10BD10B515
:103D700096B004460121042001F02EFE0121C80462
:103D800001F073FE08220A21C94801F012FC082242
:103D90000B21C74801F00DFC0121480501F01CFE74
:103DA0004FF44060109002208DF8440000208DF800
:103DB000460003208DF8450001208DF8470010A92A
:103DC000BB4801F06BFB12940020ADF84C00ADF83D
:103DD0004E00ADF850000C20ADF852000020ADF8B8
:103DE000540012A9B34802F004FE01224021B14858
:103DF00002F034FFAC48183001F0F6F8684601F0E4
:103E0000BEF94FF000600090AA48001D0190AA483A
:103E100002900020039064200490002005904FF44D
:103E20008060069000200790089009904FF4803041
:103E30000A9000200B900C900D900E9069469A48C5
:103E4000183001F073F901219748183001F0A8F9F2
:103E500034208DF83C0003208DF83D008DF83E00A5
:103E600001208DF83F000FA800F05BFB01228021AC
:103E7000904802F0F3FE00218B48483001F090F9A1
:103E80008948483001F0B0F800BF8748483001F059
:103E9000D4F90028F9D14FF0006000908548001D4A
:103EA00001908648029040200390002004900590E5
:103EB0004FF48060069000200790089009904FF41E
:103EC00080300A9000200B9003200C9000200D9071
:103ED0000E9069467448483001F028F90F208DF89B
:103EE0003C0003208DF83D008DF83E0001208DF848
:103EF0003F000FA800F015FB012210216A4848304E
:103F000001F0DBF9012240F224416A4802F0AFFEE1
:103F10000121684802F0F5FD16B010BD10B500246F
:103F200040F22441634802F0DDFE08B36148008896
:103F30006048001D008800215B48183001F030F90E
:103F40005F495948183001F0A4F95748183001F07A
:103F50004AF9C0F16400C4B200BF00BF64215248F6
:103F6000183001F03EF901214F48183001F018F9DE
:103F700010BD70B504460D462946204601F031F9C2
:103F80000121204601F00CF970BD10B54D4946489D
:103F9000483001F062F948B100214348483001F04F
:103FA000FFF848494048483001F073F910BD70B53A
:103FB00004460025414D05F8014B01213A4848309F
:103FC000FFF7D7FF70BD2DE9F04105460E460024EE
:103FD00000273A4F00BF03E0285D3855601C84B2CB
:103FE000B442F9DB314630484830FFF7C2FFBDE844
:103FF000F08110B596B004460121042001F0ECFCDC
:104000000121082001F0E8FC0121080501F02DFD47
:104010000121480501F0E0FC02208DF85400002049
:104020008DF856004FF48050149001208DF8570001
:1040300003208DF8550014A91D4801F02FFA022025
:104040008DF8540000208DF85600042014900120B3
:104050008DF8570003208DF8550014A91A4801F077
:104060001DFA08220C21124801F0A3FA08220221AD
:10407000154801F09EFA10940020ADF84C000C2079
:10408000ADF84A000020ADF84800ADF84600ADF8A4
:10409000440010A90D4802F0ACFC01210B4817E0C8
:1040A00000480040512D002028600240B81D00202B
:1040B00000080240004C0040B52D00207D2E00205D
:1040C0000000301020000020000C02400050004092
:1040D00002F017FD01224021DD4802F0BFFD6846D5
:1040E00001F04DF8DB4802904FF40070049080041A
:1040F0000090D748001D01900020039005904FF4D8
:104100008060069000200890079009904FF480305E
:104110000A9000200B900C900D900E906946CE48AE
:1041200001F004F80121CC4801F03AF80022CB4913
:10413000C94801F05CF80121C74801F064F8352056
:104140008DF83C0001208DF83F008DF83D000220E5
:104150008DF83E000FA800F0E4F9012240F224415E
:10416000BB4802F084FD0121B94802F0CAFC0122DB
:104170008021B74802F072FD0021B748A83001F055
:104180000FF8B548A83000F02FFF00BFB248A830A4
:1041900001F053F80028F9D14FF000600090AC48CE
:1041A000001D0190AE48029040200390962004909C
:1041B000002005904FF48060069000200790089042
:1041C00009900A900B9003200C9000200D900E9007
:1041D0006946A148A83000F0A9FF01219E48A830F7
:1041E00000F0DEFF2F208DF83C0002208DF83D000E
:1041F00001208DF83E008DF83F000FA800F091F9E6
:1042000016B010BD70B504460D460021204600F0E2
:10421000C7FF00BF204601F010F80028FAD1294658
:10422000204600F0DEFF0121204600F0B9FF70BDFE
:1042300010B540F22441864802F054FD002852D0C7
:104240008348008882488088834800F0ECFF28BBC0
:104250000021814800F0A4FF82497F4801F019F84D
:104260007D4800F0C0FFC0F500707F4908604FF442
:104270000071794800F0B5FF4FF400227749764885
:1042800000F0CCFF0121744800F08AFF00BF76489F
:10429000008881B26F48FEF797FE24E000216E4847
:1042A00000F07EFF6F496C4800F0F3FF6A4800F0B1
:1042B0009AFFC0F500706C4908604FF400716648C1
:1042C00000F08FFF00226349634800F0A7FF01213F
:1042D000614800F065FF00BF6348008881B25F4815
:1042E000FEF772FE00BF10BD00B597B0012104209B
:1042F00001F072FB0121880501F06EFB01212020F5
:1043000001F0C4FB08220621584801F052F90822A6
:104310000721564801F04DF9C020119002208DF878
:10432000480000208DF84A0002208DF84900002046
:104330008DF84B0011A94D4801F0B0F84C4802F03F
:10434000F1FA4C4813900020ADF85000ADF852003F
:10435000ADF854000C20ADF856000020ADF8580020
:1043600013A9434802F045FB01224021404802F0D6
:1043700075FC414800F038FE4FF0206001903C4849
:10438000001D02903D480390002004906420059099
:10439000002006904FF4806007900020089009905C
:1043A0000A904FF480300B9000200C900D900E90EE
:1043B0000F9001A9304800F0B9FE01212E4800F00D
:1043C000EFFE47208DF8400003208DF841008DF866
:1043D000420001208DF8430010A800F0A2F801224D
:1043E00040F22441224802F042FC0121204802F020
:1043F00088FB17B000BD10B540F224411C4802F004
:1044000071FC18B31A4800881948001D0088002163
:10441000194800F0C5FE1A49174800F03AFF16483F
:1044200000F0E1FEC0F164001649086000BF0846D4
:10443000027815491148FEF791FA00BF64210E4831
:1044400000F0CFFE01210C4800F0AAFE10BD0000D4
:10445000005000400928002010600240092A002076
:10446000E12E00203000001048010020000802402A
:1044700000140140B0AA0E0028640240192E00204A
:10448000000C00104C010020B81D00201FB50121B8
:10449000102001F0EAFA36208DF8000003208DF894
:1044A000010002208DF8020001208DF8030068460B
:1044B00000F037F85320ADF804000020ADF80600F6
:1044C000ADF80C0040F2E730029001A9114801F06C
:1044D00084FC01210F4801F009FD012211460D481D
:1044E00002F01CF901210B4802F02CF91FBD10B598
:1044F0000121084802F029F958B10121054802F0CC
:1045000035F90121034802F01DF900BFFCF730F82E
:1045100000BF10BD0010004032490143324A116013
:10452000704770B5002100230F22C4781CB32E4CB5
:10453000246804F4E064C4F5E064C4F30721C1F125
:104540000404E3B20A4144789C40E1B28478144008
:1045500021430C07210E254C05786155047804F0A1
:104560001F050124AC4005786D11AD0005F1E02573
:10457000C5F8004109E0047804F01F050124AC40AF
:104580001B4D0678761145F8264070BD194A0A4041
:104590000243154B1B1F1A60704739B1124A121D96
:1045A00012680243104B1B1D1A6006E00E4A121DD2
:1045B000126882430C4B1B1D1A607047042808D1F7
:1045C0004FF0E021096941F004014FF0E022116150
:1045D00007E04FF0E021096921F004014FF0E022EB
:1045E000116170470000FA050CED00E000E400E006
:1045F00080E100E080FFFF1F10B50446FE488442C2
:1046000009D10121480601F085FA00214FF0007020
:1046100001F080FA08E00121880601F07BFA002110
:104620004FF0806001F076FA10BD30B502460020F0
:104630000023146824F002041460146844F0010498
:10464000146000E05B1C546804F001041CB94FF6D0
:10465000FF74A342F6D1546804F001040CB90020A1
:104660006CE08C79012C04D1146844F0800414604F
:1046700003E0146824F080041460CC79012C04D188
:10468000146844F04004146003E0146824F040040B
:1046900014600C7A012C04D1146844F020041460D6
:1046A00003E0146824F0200414604C7A012C04D137
:1046B000146844F01004146003E0146824F010043B
:1046C00014608C7A012C04D1146844F0080414603E
:1046D00003E0146824F008041460CC7A012C04D19F
:1046E000146844F00404146003E0146824F0040423
:1046F00014608C78A407CD7844EA05640D7944EA07
:1047000005444D7944EA05540D886D1E2C43D4614F
:10471000146824F001041460002300E05B1C54685A
:1047200004F001041CB14FF6FF74A342F6D15468A3
:1047300004F001040CB1002000E0012030BD10B5F0
:104740000021837A012202FA03F1AC4A126842F096
:104750000102AA4B1A60A94A1C3212688A43A74B6D
:104760001C331A60027BCAB9A44A0C3212688A430D
:10477000A24B0C331A604288C38842EA03439F4A23
:104780004032847A42F834300288838842EA034314
:104790009A4A4032847A02EBC4025360027B012AB7
:1047A00019D1964A0C3212680A43944B0C331A60A2
:1047B0004288038842EA0343904A4032847A42F8AE
:1047C0003430C288838842EA03438C4A4032847A78
:1047D00002EBC4025360C27A3AB9884A121D1268C9
:1047E0008A43864B1B1D1A6006E0844A121D12681C
:1047F0000A43824B1B1D1A60028932B97F4A143268
:1048000012688A437D4B14331A600289012A06D14B
:104810007A4A143212680A43784B14331A60427B86
:10482000012A06D1754A1C3212680A43734B1C33A5
:104830001A60724A126822F00102704B1A6010BDB1
:1048400000218171C171017241728172C1728170E6
:10485000C170032101710221417101210180704762
:104860006649096841F00101644A1160114609680E
:1048700043F60E729143614A11601146096841EA9C
:10488000002111601146096821F001011160704793
:1048900021B1026842F48032026003E0026822F42F
:1048A000803202607047E1B1026842F0800202602B
:1048B0004FF4C272125842F480734FF4C272135014
:1048C0004FF4CA72125842F480734FF4CA721350F4
:1048D0004FF4D272125842F480734FF4D2721350D4
:1048E0001BE0026822F0800202604FF4C27212588C
:1048F00022F480734FF4C27213504FF4CA721258EC
:1049000022F480734FF4CA7213504FF4D2721258CB
:1049100022F480734FF4D2721350704710B50246E0
:104920000020936803F08063B3F1806F00D110E042
:10493000936803F00063B3F1006F01D1012008E038
:10494000936803F08053B3F1805F01D1022000E04F
:104950000420042879D002F5C07303EB00131B6810
:1049600003F0010402F5C07303EB00131C600B7A23
:104970007BB94B7A0C8843EA445302F5C07404EBCC
:1049800000142468234302F5C07404EB0014236070
:1049900010E00B7A4C6843EAC4034C7A234302F5D7
:1049A000C07404EB00142468234302F5C07404EBC4
:1049B000001423608B7A03F00F038B7202F5C0732F
:1049C00003EB00135B6823F00F0402F5C07303EBE5
:1049D00000135C6002F5C07303EB00135B688C7A14
:1049E000234302F5C07404EB001463608B7B1C0648
:1049F0004B7B44EA034403E000640040006600404F
:104A00000B7B44EA0323CC7A234302F5C07404EB06
:104A10000014A3608B7C1C064B7C44EA03440B7C93
:104A200044EA0323CC7B234302F5C07404EB001457
:104A3000E36002F5C07303EB00131B6843F001044D
:104A400002F5C07303EB00131C6010BD10B50246E5
:104A5000002321B1012907D002290FD109E0906874
:104A6000F94C00EA04030BE09068F84C00EA0403F8
:104A700006E09068F64C00EA040301E0002300BF62
:104A800000BFF44C181BA34216D007DC83B16FF0B3
:104A90008060184470B1022818D111E0B0F5007F91
:104AA00010D0ED4C204448B1B0F5003F0ED10BE0E2
:104AB00002230DE000230BE0002309E0002307E0C0
:104AC000012305E0012303E0012301E0002300BFEF
:104AD00000BFD8B210BD21B1012907D002290FD1E2
:104AE00009E0826842F0800282600AE0826842F453
:104AF0000042826005E0826842F40002826000E0C9
:104B000000BF00BF704710B500F5D87303EB011369
:104B10001B6803F004031372137A53B900F5D873BA
:104B200003EB01131B6840F2FF7404EA5353136054
:104B300009E000F5D87303EB01131B686FF06044C4
:104B400004EAD303536000F5D87303EB01131B6829
:104B500003F00203537200F5D87303EB01135B6893
:104B600003F00F03937200F5D87303EB01135B6836
:104B70001B0AD37400F5D87303EB01139B68D3723F
:104B800000F5D87303EB01139B681C0A147300F53E
:104B9000D87303EB01139B681C0C547300F5D87396
:104BA00003EB01139B681B0E937300F5D87303EBA3
:104BB0000113DB68D37300F5D87303EB0113DB68D3
:104BC0001C0A147400F5D87303EB0113DB681C0C8A
:104BD000547400F5D87303EB0113DB681B0E937458
:104BE00021B9C36843F02003C36003E0036943F0C5
:104BF0002003036110BD21B9C26842F02002C260E7
:104C000003E0026942F02002026170470246002080
:104C100019B9D36803F0030006E0012903D1136931
:104C200003F0030000E00020704710B502460B4679
:104C300000204FF6FF71BBB9146824F0020444F061
:104C40000104146000E0491E546804F00304012CC0
:104C500001D00029F7D1546804F00304012C01D0DD
:104C6000002032E0012030E0012B13D1146824F041
:104C70000304146000E0491E546804F003040CB1FE
:104C80000029F8D1546804F003040CB100201CE0A2
:104C900001201AE0022B17D1146824F0010444F01B
:104CA0000204146000E0491E546804F00304022C5E
:104CB00001D00029F7D1546804F00304022C01D07C
:104CC000002002E0012000E0002010BD014600208D
:104CD0000A6822F0010242F002020A604A6802F009
:104CE0000302022A00D10120704701464FF6FF72ED
:104CF00000200B6823F002030B6000E0521E4B689B
:104D000003F00203022B01D1002AF7D14B6803F014
:104D10000203022B00D001207047014600208A695F
:104D200002F070007047014600208A69100E70473B
:104D3000014600208A69C2F3074070471AB14369EF
:104D40000B43436102E043698B434361704710B5F5
:104D50000246002001F4700343B19369C1F31304C8
:104D600023400BB101202DE000202BE001F08073E7
:104D700043B15368C1F3130423400BB1012021E078
:104D800000201FE001F0006343B19368C1F31304F6
:104D900023400BB1012015E0002013E001F0007367
:104DA00043B1D368C1F3130423400BB1012009E0E0
:104DB000002007E01369C1F3130423400BB1012065
:104DC00000E0002010BD0022244B994202D10023B4
:104DD000836111E0C1F3130201F000730BB1C260F3
:104DE0000AE001F080630BB1026105E001F00063AD
:104DF0000BB1826000E0426070470246002002EA88
:104E000001030BB1012000E00020704770B504469B
:104E10000D46002660692840002872D0B5F5807FD5
:104E200069D01DDC082D42D006DC012D2DD0022DCD
:104E300031D0042D7FD134E0102D3ED0202D42D032
:104E4000402D78D145E00000030000040003000875
:104E500000000310000100080001FFF77000F030AF
:104E6000B5F5004F61D009DCB5F5007F4AD0B5F546
:104E7000806F4DD0B5F5006F5DD150E0B5F5803F46
:104E80002DD0B5F5003F56D12FE0A0685549FFF76A
:104E9000B4FF064651E0E0680321FFF7AEFF064687
:104EA0004BE0E0680821FFF7A8FF064645E0E06810
:104EB0001021FFF7A2FF06463FE020690321FFF71C
:104EC0009CFF064639E020690821FFF796FF064659
:104ED00033E020691021FFF790FF06462DE060685F
:104EE0000821FFF78AFF064627E060681021FFF7D8
:104EF00084FF064621E0A0690121FFF77EFF0646F8
:104F00001BE01BE0A0690221FFF777FF064614E0D3
:104F1000A0690421FFF771FF06460EE00BE0A069CF
:104F20007021FFF76AFF064607E060680421FFF77B
:104F300064FF064601E0002600BF00E00026304680
:104F400070BDB1F5007F3AD00FDC202928D006DCF7
:104F500001291CD004291DD0082940D11DE0402979
:104F600021D0B1F5807F3AD126E0B1F5004F31D0A4
:104F700006DCB1F5806F25D0B1F5006F2FD124E0AC
:104F8000B1F5803F12D0B1F5003F28D111E0154AAC
:104F9000826025E00822C26022E01022C2601FE089
:104FA000082202611CE01022026119E0082242601E
:104FB00016E01022426013E00422426010E0042256
:104FC00042600DE0042242600AE000228261042275
:104FD000426005E0002282610422426000E000BFDE
:104FE00000BF704701010100016821F0010101606B
:104FF0000021016041608160C16001612121416146
:10500000DB49884204D13D21D94A103A91608CE0B5
:10501000D7491831884205D14FF47461D44A103A07
:10502000916082E0D2493031884205D14FF4741149
:10503000CF4A103A916078E0CD494831884205D195
:105040004FF07461CA4A103A91606EE0C84960310D
:10505000884204D1C749C64A103AD16065E0C449C4
:105060007831884204D1C449C14A103AD1605CE029
:10507000BF499031884204D1C049BD4A103AD1603D
:1050800053E0BB49A831884205D14FF03D51B84AA1
:10509000103AD16049E0BA49884204D13D21B84A6A
:1050A000083A116041E0B6491831884205D14FF401
:1050B0007461B34A083A116037E0B149303188422F
:1050C00005D14FF47411AE4A083A11602DE0AC4995
:1050D0004831884205D14FF07461A94A083A1160FD
:1050E00023E0A7496031884204D1A249A44A121F93
:1050F00011601AE0A2497831884204D19E49A04A41
:10510000121F116011E09E499031884204D19B49E1
:105110009B4A121F116008E09949A831884204D1C6
:105120004FF03D51964A121F1160704710B5002292
:105130000268944B1A40CC680B6823434C692343A4
:105140008C692343CC6923430C6A23434C6A234371
:105150008C6A23434C6B23438C6B23431A430260BA
:10516000426922F00702D1E90B3423431A4342611A
:105170000B6943604B6883608B68C36010BD00217E
:10518000016041608160C160016141618161C16113
:10519000016241628162C162016341638163704760
:1051A00021B1026842F00102026003E0026822F0CD
:1051B00001020260704721B1026842F400420260BD
:1051C00003E0026822F400420260704721B10268E5
:1051D00042F02002026003E0026822F02002026036
:1051E0007047416070470146486880B2704722B1FD
:1051F000036843F40023036003E0036823F40023FF
:1052000003600161704721B1026842F480220260AC
:1052100003E0026822F48022026070470AB1016153
:1052200000E0C1607047014600200A6802F40022D5
:105230000AB1012000E000207047014600200A6802
:1052400002F001020AB1012000E00020704701468F
:1052500000204A6902F03800704730B503460A461C
:1052600000200024464DAB4202D24149103901E0F2
:105270004349103902F000550DB14C6800E00C684C
:10528000414D2C4004EA02050DB1012000E0002050
:1052900030BD02463A4B9A4202D23548103801E0FE
:1052A0003748103801F000531BB1374B0B40C36037
:1052B00002E0354B0B408360704710B501F080036E
:1052C0004BB122B1436943F08003436103E043697A
:1052D00023F08003436180290BD02AB1036801F0D9
:1052E0001E042343036004E0036801F01E04A3438B
:1052F000036010BD70B50246002000240025204E3A
:10530000B24202D21A4B103B01E01D4B103B1F4E24
:105310000E4036B11E2606EAD124166806EA0405B8
:1053200002E0566906F0800501F000560EB15C6897
:1053300000E01C68144E344004EA010616B10DB1B9
:10534000012000E0002070BD02460D4B9A4202D2BF
:105350000748103801E00A48103801F000531BB12B
:10536000094B0B40C36002E0074B0B408360704762
:10537000106002403D000020400F002000003D2052
:10538000106402403F801CF07D0F7D0F3C0F3C0FEE
:1053900010B504469848844208D10121084600F01F
:1053A00086FB0021012000F082FB76E093488442D6
:1053B00008D10121022000F07AFB0021022000F038
:1053C00076FB6AE08E48844208D10121042000F077
:1053D0006EFB0021042000F06AFB5EE089488442F5
:1053E00008D10121082000F062FB0021082000F014
:1053F0005EFB52E08448844208D10121102000F075
:1054000056FB0021102000F052FB46E07F4884420A
:1054100008D10121202000F04AFB0021202000F0CB
:1054200046FB3AE07A48844208D10121402000F04E
:105430003EFB0021402000F03AFB2EE075488442FC
:1054400008D10121802000F032FB0021802000F0F3
:105450002EFB22E07048844208D10121801500F023
:1054600026FB0021A01500F022FB16E06B488442C9
:1054700008D10121401500F01AFB0021601500F051
:1054800016FB0AE06648844207D10121001500F0AE
:105490000EFB0021201500F00AFB10BDF0B50A46F6
:1054A00000210023002400BF3DE0012505FA01F39F
:1054B000156805EA03049C4234D105684F000326B1
:1054C000BE40B543056015794E00B54006683543CA
:1054D00005601579012D02D01579022D16D1856848
:1054E0004F000326BE40B543856055794E00B54058
:1054F000866835438560456801268E40B543456022
:10550000456896798E40B6B235434560C5684F0010
:105510000326BE40B543C560D5794E00B540C66888
:105520003543C560491C1029BFD3F0BD4FF6FF714C
:1055300001600021017141718171C171704708B52D
:105540004FF480320092009A0A430092009AC2619E
:10555000C161009AC261C2690092C269009208BD2D
:105560000246002013690B400BB1012000E000202F
:1055700070470146086980B27047024600205369AF
:105580000B400BB1012000E0002070470146486944
:1055900080B2704701837047418370470AB101832D
:1055A00000E0418370474161704742694A4042616F
:1055B0007047F0B5002300244D07ED0E02FA05F305
:1055C000CE1000F1200555F826504E07F70E0F2695
:1055D000BE40B543CF1000F1200646F82750CE104C
:1055E00000F1200555F8265045EA0304CE1000F1DD
:1055F000200545F82640F0BD0000024000040240AE
:1056000000080240000C024000100240001402405A
:1056100000180240001C024000200240002402400A
:1056200000280240F948006840F00100F74908608E
:105630000020F64908310860F4480068F449084041
:10564000F2490860F348091D0860F348EF498431C6
:105650000860F0481038091D0860EC48006820F424
:105660008020EA4908600020E8490C310860E749D9
:105670008C31086070470021E44A921C1170114679
:105680000870704710B501460022002300204A111F
:10569000012A02D1DD4C236808E0022A03D1DB4C49
:1056A0007034236802E0D94C7434236801F01F027F
:1056B000012494401C400CB1012000E0002010BDEA
:1056C00038B5002000900024002500BF3120FFF7EE
:1056D000D9FF05460098401C00900098B0F5A06FD7
:1056E00001D0002DF2D03120FFF7CCFF08B101240A
:1056F00000E00024204638BD01460020C34A10685F
:1057000020F0F80040EAC10010607047C34908600B
:1057100070470021BD4A703211701170012802D00B
:1057200004280AD104E00121B84A7032117005E062
:105730000521B64A7032117000E000BF00BF70470B
:10574000B7490860704770B5049C41EA821501268C
:10575000C6EB530645EA0645054345EA0465AB4EEC
:10576000361D356070BDAD4908667047820142EA5A
:105770000172A64B84331A607047A8498866704747
:1057800010B5830143EA016343EA02739F4C8834F6
:10579000236010BDA14908677047A049C8647047DD
:1057A00002460020994B0833186820F0EC6042EA6A
:1057B00001031843954B08331860704702460020D8
:1057C000924B0833186820F0784042EA01031843EE
:1057D0008E4B083318607047014600208B4A083210
:1057E000106820F0030008431060704787480830B5
:1057F000006800F00C00704701460020834A083220
:10580000106820F0F0000843106070470146002047
:105810007E4A0832106820F4E05008431060704758
:1058200001460020794A0832106820F4604040EABE
:10583000C10010607047F0B500210022002402254D
:1058400000260223714F08373F6807F00C0121B191
:10585000042905D0082937D105E0724F076036E0EA
:10586000714F076033E0694F3F1D3F68C7F38056B3
:10587000664F3F1D3F6807F03F036EB16A4FB7FBAD
:10588000F3F7DFF888C10CF1040CDCF800C0CCF3AE
:10589000881C07FB0CF40CE0624FB7FBF3F7DFF852
:1058A0006CC10CF1040CDCF800C0CCF3881C07FBC5
:1058B0000CF4564F3F1D3F68C7F301477F1C7D0026
:1058C000B4FBF5F7076002E0564F076000BF00BF6A
:1058D0004E4F08373F6807F0F0010909534F7A5CD3
:1058E0000768D7404760494F08373F6807F4E051E1
:1058F000890A4E4F7A5C4768D7408760434F083724
:105900003F6807F46041490B484F7A5C4768D740CD
:10591000C760F0BD002100F44072B2F5407F0AD1AB
:105920003A4A0832116821F4F811414A0240114301
:10593000364A08321160354A70321268C0F30B03E0
:105940001A43324B70331A60704735494439086046
:1059500070473349403908607047364908607047DE
:1059600001460020294A8C32106820F01F004A1E90
:105970001043264A8C321060704701460020234AAB
:105980008C32106820F4F8504A1E40EA02201F4A68
:105990008C3210607047014600201C4A8C3210681F
:1059A00020F4401008431060704701460020174A59
:1059B0008C32106820F440000843106070470146A4
:1059C0000020124A8C32106820F4403008431060E6
:1059D000704719490860704739B10C4A3032126873
:1059E00002430A4B30331A6006E0084A303212682C
:1059F0008243064B30331A607047F9B1034A3432A0
:105A000012680243014B34331A601CE00038024034
:105A1000FFFFF6EA1030002400300020000047426B
:105A2000800E47420024F40000127A00500100204A
:105A3000FFFCFF0F5C014742E01147428F4A1268AA
:105A400082438E4B1A60704739B18C4A121D12681E
:105A500002438A4B1B1D1A6006E0884A121D126819
:105A60008243864B1B1D1A60704739B1834A0C3242
:105A700012680243814B0C331A6006E07F4A0C32F5
:105A8000126882437D4B0C331A60704739B17B4AF0
:105A9000103212680243794B10331A6006E0774ADD
:105AA000103212688243754B10331A60704739B157
:105AB000724A243A12680243704B243B1A6006E093
:105AC0006E4A243A126882436C4B243B1A6070473A
:105AD00039B16A4A203A12680243684B203B1A6087
