:020000040800F2
:10000000C0210020356700086F0200087102000857
:1000100075020008790200087D0200080000000057
:100020000000000000000000000000008102000845
:100030008302000800000000850200088702000813
:100040004F6700084F6700084F6700084F670008B8
:100050004F6700084F6700084F6700084F670008A8
:100060004F6700084F6700084F6700084F67000898
:100070004F6700084F6700084F67000837390008CE
:100080004F6700084F6700084F67000827300008D7
:100090003D3000084F6700084F6700084F670008B1
:1000A0004F6700084F6700084F6700084F67000858
:1000B0004F6700084F6700084F6700084F67000848
:1000C0004F6700084F6700084F6700084F67000838
:1000D0004F670008FB320008DD340008CB3600080B
:1000E0004F6700084F6700084F6700084F67000818
:1000F0004F6700084F6700084F6700084F67000808
:100100004F6700084F6700084F6700084F670008F7
:10011000C9380008DD3B0008AB3E00084F67000807
:100120004F6700084F6700084F6700084F670008D7
:100130004F6700084F6700084F67000877310008D5
:100140008D3100084F6700084F6700084F670008AF
:100150004F6700084F6700084F670008B33D00086D
:100160004F6700084F6700084F6700084F67000897
:100170004F6700084F6700084F6700084F67000887
:100180004F6700084F67000800F002F800F05CF8C5
:100190000AA090E8000C82448344AAF10107DA45E2
:1001A00001D100F051F8AFF2090EBAE80F0013F0D8
:1001B000010F18BFFB1A43F001031847B4BC00003D
:1001C000D4BC00000A444FF0000C10F8013B13F0BF
:1001D000070408BF10F8014B1D1108BF10F8015BA0
:1001E000641E05D010F8016B641E01F8016BF9D193
:1001F00013F0080F1EBF10F8014BAD1C0C1B09D1EA
:100200006D1E58BF01F801CBFAD505E014F8016B5B
:1002100001F8016B6D1EF9D59142D6D370470000ED
:100220000023002400250026103A28BF78C1FBD8FF
:10023000520728BF30C148BF0B6070471FB50BF095
:10024000F6FB1FBD10B510BD0AF0BDF91146FFF752
:10025000F5FF00F008F80AF0DBF903B4FFF7F2FF4E
:1002600003BC0AF0A1F900F017F900BFFEE77047E0
:1002700000BFFEE700BFFEE700BFFEE700BFFEE7EE
:1002800070477047704770470CB500200190009090
:100290007648006840F480307449086000BF7348B5
:1002A000006800F4003000900198401C0190009814
:1002B00018B90198B0F5A06FF1D16C48006800F44E
:1002C000003010B10120009001E000200090009863
:1002D000012846D165484030006840F080506349AD
:1002E000403108606248006840F44040604908605E
:1002F0005E48083000685D490831086008460068BB
:1003000040F4004008600846006840F4A0500860CF
:100310005848091F0860081F006840F08070091FD6
:10032000086000BF5148006800F000700028F9D054
:1003300040F20570504908604C480830006820F0D1
:1003400003004A49083108600846006840F002008E
:10035000086000BF45480830006800F00C0008281D
:10036000F8D10CBD10B54548006840F47000434911
:1003700008603E48006840F001003C4908600020E9
:100380003A4908310860394800683D490840374912
:1003900008603C48091D0860081F006820F48020A0
:1003A000091F0860002031490C310860FFF76CFF1D
:1003B0004FF0006031498039086010BD70B50020F1
:1003C0000022022300240221284D08352D6805F063
:1003D0000C0020B1042806D0082834D107E02A4DAB
:1003E0002A4E356033E02A4D284E35602FE01F4DF0
:1003F0002D1D2D68C5F380541C4D2D1D2D6805F055
:100400003F0154B1224DB5FBF1F5184E361D36684B
:10041000C6F3881605FB06F209E01B4DB5FBF1F5A6
:10042000124E361D3668C6F3881605FB06F20F4DD0
:100430002D1D2D68C5F301456D1C6B00B2FBF3F556
:10044000124E356003E0104D104E356000BF00BF06
:10045000064D08352D68C5F303150E4E705D0B4D26
:100460002D68C540094E356070BD0000003802405F
:100470000070004008544007003C024088ED00E056
:10048000FFFFF6FE103000240024F40000000020DE
:1004900000127A000400002010B54FF4A06003F0B1
:1004A00019FD134802F094FE4FF4E13002F081FF91
:1004B0004FF4612003F066F84FF4E13003F02DF9BA
:1004C0004FF4E13003F06BFA4FF4E13003F0EAFB54
:1004D000002303220821104602F032FD00230322EC
:1004E0000821104602F0C5FD03F0AEFC10BD00006F
:1004F000A086010000B587B01F480068401C1E4957
:1005000008601E491E48D0ED000A1E4890ED000A02
:100510001D4801F022F8184800680A2190FBF1F20A
:1005200001FB1200C8B9042117220F231748B0F9A4
:100530001C00CDE90332059102901448B0F91E0069
:10054000C821CDE900101148037EC27E90F86010EA
:100550009FED0F0A0F4801F040FC0749086800EBC7
:10056000D0714910A0EB410119B900F029FD00F04C
:1005700089FD07B000BD000014000020A812002073
:10058000240000202000002050000020100800203F
:100590000000F0420068004010B540F2F441FE480F
:1005A00009F0CDFF0020FC490870487010BD10B55F
:1005B000FA4890ED000AF84880ED040AF74890EDFB
:1005C000010AF54880ED030AF5488089F0B3F44844
:1005D00090ED010AF04880ED020AF14890ED000A22
:1005E000ED4880ED010AEE4890ED062AF0EE421A41
:1005F000EA4890ED042AB0EE421AE74890ED032A4B
:10060000F0EE420A90ED012AB0EE420A00F55E716A
:1006100000F5257001F031FBDF4880ED090ADF4865
:10062000D0ED031AB0EE611ADB48D0ED041AF0EEFB
:10063000610AD0ED021AB0EE610ADFEDDA1A00F5B8
:100640008C71803001F019FBD34800E002E080EDAE
:100650000A0A70E0D4480068401CD3490860084684
:100660000068C8283DDCCE4890ED090ACA4880EDF4
:10067000020ACB4890ED080AC74880ED010AC74836
:10068000D0ED041AB0EE611AC348D0ED031AF0EEB3
:10069000610AD0ED011AB0EE610ADFEDC21A00F571
:1006A0005E7100F5257001F0E8FABB4880ED090A9B
:1006B000BA48D0ED031AB0EE611AB748D0ED041A6B
:1006C000F0EE610AD0ED021AB0EE610ADFEDB51A64
:1006D00000F58C71803001F0D0FAAF4880ED0A0A45
:1006E00029E0B8EE000AAC4880ED020AAB48D0ED34
:1006F000031AB0EE611AA848D0ED041AF0EE610AB0
:10070000D0ED021AB0EE610ADFEDA61A00F58C7189
:10071000803001F0B2FAA04880ED0A0A9F48D0ED7F
:10072000040AB0EE600ADFEDA10AA14801F070F8FA
:10073000994880ED090A10BD10B52DED088B9D4834
:10074000007870B9954890ED000A9B4880ED000A4A
:10075000924890ED010A994880ED000A01209549E0
:1007600008708E4890ED000A8B4880ED040A8B4893
:1007700090ED010A884880ED030A8948C07B48B1A2
:10078000874890ED040AF7EE000A30EE200A80ED6B
:10079000040A04E09FED830A814880ED040A804842
:1007A00090ED040AF7EE000AB4EEE00AF1EE10FA5A
:1007B0007ED20120824908707948B0F9080000EE25
:1007C000100AB8EEC00A7F48D0ED000AB4EE600A05
:1007D000F1EE10FA6DD17248B0F90A0000EE100A7D
:1007E000B8EEC00A7848D0ED000AB4EE600AF1EE27
:1007F00010FA74D16A49B1F908000AF05EFD41ECC3
:100800001B0B9FED720B53EC102B0AF0A9FD41EC72
:100810001A0B9FED701BB0EE4A0AF0EE6A0A0AF05E
:1008200087F8B0EE409AF0EE609A9FED6C0B53ECB7
:10083000102B51EC190B0AF093FD41EC180B0AF048
:1008400093FA684908605649B1F90A000AF035FD83
:1008500041EC1B0B9FED5D0B53EC102B0AF080FD60
:1008600041EC1A0B9FED5B1BB0EE4A0AF0EE6A0AF0
:100870000AF05EF8B0EE409AF0EE609A9FED570BEA
:1008800053EC102B51EC190B0AF06AFD41EC180BDC
:100890000AF06AFA54490860414890ED000A51484C
:1008A000D0ED000A30EE200A5048D0ED000A01E0F9
:1008B00032E014E030EE200A4D4880ED000A38485E
:1008C00090ED010A0846D0ED000A30EE200A4948B2
:1008D000D0ED000A30EE200A474880ED000A30488B
:1008E000B0F9080000EE100AB8EEC00A354880EDF5
:1008F000000A2B48B0F90A0000EE100AB8EEC00A50
:10090000314880ED000AB7EE000A234880ED010A65
:10091000B7EE000A80ED020A1F4890ED020AFBEED6
:10092000090AB4EEE00AF1EE10FA04D8BBEE090AA7
:1009300080ED020A0DE0184890ED020ADFED2F0A63
:10094000B4EEE00AF1EE10FA03DB9FED2C0A80ED25
:10095000020A1B48007858B9184890ED000A0E4862
:1009600080ED010A144890ED000A0B4880ED020A60
:100970000A48D0ED041AB0EE611A0748D0ED031A08
:10098000F0EE610AD0ED011AB0EE610ADFED051A52
:1009900000F5956134E0000018030020780A00207B
:1009A00080120020000000004400002000001643D8
:1009B0009006002030000020180000201C000020BD
:1009C00031000020280000202C000020000000A0A2
:1009D0002C436C3F00000000000018400000002085
:1009E000DCA54C4034000020380000203C000020F2
:1009F00020000020400000202400002000000C42C5
:100A000000F5717001F039F9FE4880ED090AFE48E1
:100A1000D0ED031AB0EE611AFA48D0ED041AF0EEE8
:100A2000610AD0ED021AB0EE610A5FED221A00F2FF
:100A30005C4100F5826001F020F9F24880ED0A0A7D
:100A4000BDEC088B10BD10B52DED088BEF4800787C
:100A500070B9ED4890ED000AED4880ED000AEA48D3
:100A600090ED010AEB4880ED000A0120E74908708B
:100A7000E54890ED000AE34880ED040AE24890ED75
:100A8000010AE04880ED030AE348C07B48B1E24830
:100A900090ED040AF7EE000A30EE200A80ED040A19
:100AA00004E01FED400ADC4880ED040ADA4890EDCE
:100AB000040AF7EE000AB4EEE00AF1EE10FA7CD276
:100AC0000120D6490870D448B0F9080000EE100A99
:100AD000B8EEC00AD248D0ED000AB4EE600AF1EEDA
:100AE00010FA6BD1CC48B0F90A0000EE100AB8EE4B
:100AF000C00ACC48D0ED000AB4EE600AF1EE10FA5C
:100B000074D1C549B1F908000AF0D7FB41EC1B0BC1
:100B10001FED520B53EC102B0AF022FC41EC1A0B88
:100B20001FED541BB0EE4A0AF0EE6A0A09F000FF0E
:100B3000B0EE409AF0EE609A1FED580B53EC102B7C
:100B400051EC190B0AF00CFC41EC180B0AF00CF9F3
:100B5000B5490860B049B1F90A000AF0AEFB41ECB2
:100B60001B0B1FED660B53EC102B0AF0F9FB41EC4D
:100B70001A0B1FED681BB0EE4A0AF0EE6A0A09F084
:100B8000D7FEB0EE409AF0EE609A1FED6C0B53EC7E
:100B9000102B51EC190B0AF0E3FB41EC180B0AF097
:100BA000E3F8A24908609C4890ED000A9E48D0ED09
:100BB000000A30EE200A9E4801E034E016E0D0ED55
:100BC000000A30EE200A9B4880ED000A924890ED22
:100BD000010A0846D0ED000A30EE200A9648D0ED12
:100BE000000A30EE200A954880ED000A8A48B0F9E4
:100BF000080000EE100AB8EEC00A894880ED000A2D
:100C00008548B0F90A0000EE100AB8EEC00A85481F
:100C100080ED000AB7EE000A7A4880ED010AB7EECF
:100C2000000A80ED020A774890ED020AFBEE090AFD
:100C3000B4EEE00AF1EE10FA04D8BBEE090A80ED3A
:100C4000020A0DE06F4890ED020A5FED940AB4EEDF
:100C5000E00AF1EE10FA03DB1FED980A80ED020ABC
:100C60006E48007858B96B4890ED000A654880EDF1
:100C7000010A674890ED000A624880ED020A624866
:100C8000D0ED041AB0EE611A5E48D0ED031AF0EE12
:100C9000610AD0ED011AB0EE610A5FEDBE1A00F5EF
:100CA000127100F5B27000F0E8FF564880ED090AB5
:100CB0005548D0ED031AB0EE611A5248D0ED041A2F
:100CC000F0EE610AD0ED021AB0EE610A5FEDCB1AC8
:100CD00000F5FE7100F5D87000F0CFFF494880EDB7
:100CE0000A0ABDEC088B10BD10B5474890ED000A0C
:100CF000444880ED040A444890ED010A414880EDE3
:100D0000030A4F48407DE8B34348807B58B14248CE
:100D100090ED010A3B4880ED020A3F4890ED000A41
:100D2000384880ED010A3C4890ED062AF0EE421A60
:100D3000354890ED042AB0EE421A324890ED032A6D
:100D4000F0EE420A90ED012AB0EE420A00F55E7123
:100D500000F5257000F091FF2A4880ED090A2A4825
:100D6000D0ED031AB0EE611A2648D0ED041AF0EE69
:100D7000610AD0ED021AB0EE610A5FEDF61A00F5D5
:100D80008C7100E006E0803000F077FF1D4880EDB8
:100D90000A0A5BE01B4890ED0B0A80ED020A90ED19
:100DA0000C0A80ED010A1848D0ED041AB0EE611A61
:100DB0001448D0ED031AF0EE610AD0ED011AB0EE3E
:100DC000610ADFED201A00F1CC01343000F055FF4C
:100DD0000C4880ED090A0C48D0ED031AB0EE611AF8
:100DE0000848D0ED041AF0EE610AD0ED021AB0EE18
:100DF000610ADFED141A00F58C71803000F03DFFC0
:100E0000004821E018030020780A0020300000206C
:100E1000180000201C00002080120020310000205B
:100E2000280000202C000020340000203800002082
:100E30003C00002020000020400000202400002072
:100E4000AC1200200000000080ED0A0A10BD10B5B1
:100E50002DED048B00207F4908707F49087000BF8A
:100E60001FED080A7D4880ED020A7D4890ED000ADA
:100E70007A4880ED040A1FED0D0A80ED010A7948D9
:100E800090ED101BB0EE410AF0EE610A51EC100B30
:100E900009F06AFF7149C860724890ED101BB0EE0E
:100EA000410AF0EE610A9FED701B53EC112B51ECDF
:100EB000100B0AF03FF80AF0D1F904464FF4B47170
:100EC00004FB01F000EE100AB8EEC00A634880EDA2
:100ED000010A6348D0ED041AB0EE611A5F48D0ED04
:100EE000031AF0EE610AD0ED011AB0EE610A5FED6F
:100EF0002B1A00F1CC01343000F0BFFE574880EDD2
:100F0000090A5748D0ED031AB0EE611A5348D0EDE4
:100F1000041AF0EE610AD0ED021AB0EE610A5FED3C
:100F2000371A00F58C71803000F0A7FE4B4880ED39
:100F30000A0A90ED020AD0ED040A30EE600A10EEC3
:100F4000101A08460AF002FD41EC190BB0EE490AEE
:100F5000F0EE690A09F0E4FDB0EE408AF0EE608A36
:100F60009FED430B53EC102B51EC180B0AF0BCF91E
:100F700023D83A4890ED020AD0ED040A30EE600A18
:100F800010EE101A08460AF0E1FC41EC190BB0EE25
:100F9000490AF0EE690A09F0C3FDB0EE408AF0EEAE
:100FA000608A9FED350B53EC102B51EC180B0AF0B7
:100FB0009BF902D8032029490870BDEC048B10BDB1
:100FC00010B526480078082821D005DC48B1012852
:100FD00011D003281ED111E00B2812D00C2819D1F2
:100FE00012E01FED680A1D4880ED090A1FED6B0A2B
:100FF00080ED0A0A0FE0FFF72AFF0CE0FFF774FE0E
:1010000009E0FFF720FD06E0FFF796FB03E0FFF79E
:10101000CEFA00E000BF00BF104890ED020AFBEEE0
:10102000090AB4EEE00AF1EE10FA04D8BBEE090AA0
:1010300080ED020A0DE0094890ED020ADFED100A8A
:10104000B4EEE00AF1EE10FA03DB9FED0D0A80ED3D
:10105000020A10BD300000203100002018030020DB
:10106000780A0020D00E00200000000000807640AA
:101070000000000000001040000000000000F83FE9
:1010800000000C4210B52DED088BF548807E01283C
:1010900004D0022871D0032870D1AAE0F14800786A
:1010A000012827D0EE48B0F90200A0F5806000EEDC
:1010B000100AB8EEC00AF7EE080A20EE200ABDEECC
:1010C000C00A10EE100A00B2E7498883E448B0F97C
:1010D0000000A0F5806000EE100AB8EEC00AF7EE3E
:1010E000080A20EE200ABDEEC00A10EE100A01B276
:1010F000DD48C183DB480078032837D1D849B1F9EE
:101100000610A1F580600AF0D8F841EC1B0B9FEDAA
:10111000D70B53EC102B0AF023F941EC190BD148F3
:1011200090ED0B0A10EE101A08460AF00FFC41EC85
:101130001A0B53EC192B09F049FE41EC180B09F07E
:1011400013FEC849C862084690ED0C0AC448B0F9BD
:101150000400A0F5806000EE900AF8EEE00A9FED32
:10116000C51A00EE810A084680ED0C0ABC48807F53
:1011700028B10720BC49087604E05EE163E1032062
:10118000B9490876B7480078012807D0B5480078F3
:101190000C2803D0B34800780B2803D10120B249B2
:1011A000087606E0B048007E072802D00320AE494A
:1011B0000876AC480078012809D0A948807E02282A
:1011C00005D0A848407810B90320A6490870A54862
:1011D000407828B9A348007810B10120A1490870CF
:1011E000A0480078032803D101209F4981F86000BE
:1011F0002AE19C480078012878D0994890F82C0082
:1012000038B101209849C8764FF4C8609A490880DF
:1012100006E000209449C87640F2262096490880CE
:101220008F4890F8280028B19348B0F900008E4903
:1012300088830DE08A4890F82A0030B18E480088F3
:10124000404200B28849888302E0002086498883B2
:10125000834890F82900A8B18348C07E01280AD1AC
:101260008549B1F90010484200EBD07149100AB22B
:101270007D49CA8320E080480088404201B27A4814
:10128000C18319E0764890F82B0090B17648C07E73
:10129000012808D17849B1F9000000EBD07149105C
:1012A000714AD18308E07448B0F900106E48C183D8
:1012B00002E000216C48C183694890F83E0018B1F3
:1012C00007206949087602E00320674908766548E7
:1012D0000078032864D16248B0F90C0010F1640F63
:1012E00005DC6FF063005E49888108E057E05C48E8
:1012F000B0F90C00642802DB642059498881584801
:10130000B0F90E0010F1640F04DC6FF06301544873
:10131000C18107E05248B0F90E00642802DB642165
:101320004F48C1814F4890ED0C0A4D48B0F90C0070
:1013300000EE900AF8EEE00A9FED501A00EE810AE6
:10134000484880ED0C0A90ED0B0A4548B0F90E00B4
:1013500000EE900AF8EEE00A9FED491A00EE810ACD
:10136000404880ED0B0A90ED0B0ADFED460AB4EE23
:10137000E00AF1EE10FA04D89FED420A80ED0B0A64
:1013800024E0384890ED0B0ADFED3F0AB4EEE00AA6
:10139000F1EE10FA1ADB9FED3C0A80ED0B0A15E026
:1013A0002F4890F8460018B10C202E4908700DE027
:1013B0002B4890F8440018B10B202A49087005E02A
:1013C000012028490870032027490876254800781D
:1013D000012807D0234800780C2803D02148007842
:1013E0000B2803D101202049087606E01E48007E24
:1013F000072802D003201C4908761A4800780128E3
:1014000009D01748807E022805D01648407810B9C8
:101410000320144908701348407828B9114800780F
:1014200010B101200F4908700E480078032803D13D
:1014300001200D4981F8600006E00020094908708C
:101440000949087600E000BF00BF0648007805495A
:1014500048700548007E04494876BDEC088B10BDF5
:10146000AC1200201803002010080020FCA9F1D2C3
:101470004D62803F6F12033C480000208FC2753DD3
:101480000AD7233D00000CC200000C4210B50446F0
:1014900004F168030122042104F1100005F0FAFBB5
:1014A00004F178030122022104F1380005F0F2FB77
:1014B00004F590730422114604F1180005F0EAFBCC
:1014C00004F1E0030422114604F1200005F0E2FBE0
:1014D00004F1200104F1180006F025FE04F5D07394
:1014E0000422114604F1480005F0D4FB04F5C07352
:1014F0000422022104F1280005F0CCFB04F5B073AE
:101500000222042104F1300005F0C4FB04F1300193
:1015100004F1280006F007FE04F5F07302221146DC
:1015200004F1400005F0B6FB04F1A00304221146CB
:1015300004F1500005F0AEFB04F180030222042107
:1015400004F1580005F0A6FB04F5F87304221146D7
:1015500004F1600005F09EFB10BD30B52DED028B4F
:1015600095B00446B0EE408AF0EE608A0D467F48A2
:10157000007828B901207D4908707D48FFF786FF73
:101580007C4B0422114613A805F084FB7A4B0422FD
:10159000114611A805F07EFB784B022204210FA80A
:1015A00005F078FB764B042202210DA805F072FBB2
:1015B000744B022211460BA805F06CFB724B022201
:1015C000114609A805F066FB704B0122022107A80D
:1015D00005F060FB6E4B0122022105A805F05AFBC5
:1015E0006C4B0122042103A805F054FB6A4B012235
:1015F000042101A805F04EFBE06B80ED008AE06B52
:10160000C0ED018A03AA04F1100104F1180005F0ED
:10161000C0FE042204F168015E4808F030FB28781F
:10162000002871D013AA04F1500104F1180005F04C
:10163000B0FE11AA04F1200113A805F0AAFE04F1DE
:10164000500204F1480111A805F094F80FAA04F122
:10165000300104F1500005F09CFE0DAA04F1500188
:1016600004F1280005F095FE0BAA04F130010DA845
:1016700005F08FFE09AA04F140010BA805F07AF8E5
:101680000BA909A805F012FB04F158020BA90FA839
:1016900005F07FFE07AA04F1100104F1280005F00F
:1016A00078FE05AA07A904F1380006F0E6FC03AAB3
:1016B00005A904F1580005F06CFE01AA03A904F184
:1016C000100005F057F8042204F16801324808F0D0
:1016D000D6FA13AA04F1280104F1580005F059FEC6
:1016E00011AA13A904F1600006F0C7FC13AA04F1C3
:1016F000500111A805F04DFE102204F1A0011D4873
:1017000008F0BDFA00202870606990ED000A84EDB1
:10171000000A606990ED010A84ED010A606990EDAC
:10172000020A84ED020A606990ED030A84ED030A5F
:1017300015B0BDEC028B30BD10B504460C48FFF768
:10174000A5FE9FED160A606980ED000A9FED130A61
:10175000606980ED010A9FED110A606980ED020A5F
:101760009FED0E0A606980ED030A10BD9002002013
:1017700050000020F809002088090020380A0020C5
:10178000C8090020580A0020E8090020880200202B
:101790008002002078090020680A00200000000074
:1017A000D0ED000AF4EEC00AF1EE10FA01DD80ED92
:1017B000000AD0ED000AB1EE401AF4EEC10AF1EED3
:1017C00010FA03D2F1EE400AC0ED000A704703643C
:1017D000C263816380ED000AC0ED010A80ED021A48
:1017E000704780ED000AC0ED010A80ED021ADFEDBE
:1017F000FE1AC0ED081ADFEDFC1AC0ED091ADFED84
:10180000FA1AC0ED0A1ADFEDF81AC0ED0B1A70478C
:1018100010B52DED088B0446B0EE408AF0EE608ADC
:1018200084ED048AC4ED038A38EEC80A84ED070A01
:1018300094ED0C0AB5EEC00AF1EE10FA27D094ED43
:101840000C0A10EE101A08460AF080F841EC190B49
:1018500094ED070A10EE101A08460AF077F841ECEA
:101860001B0BB0EE4B0AF0EE6B0A09F059F9B0EE23
:1018700040AAF0EE60AA53EC192B51EC1A0B09F0B8
:101880006DFE04D29FEDD80ABDEC088B10BDA06B95
:1018900003283ED194ED000AD4ED070A20EE200A79
:1018A00084ED080A94ED090AD4ED010A94ED071AB3
:1018B00000EE810A84ED090A94ED070AD4ED060AC8
:1018C00030EE600AD4ED020A20EE200A84ED0A0A06
:1018D000D4ED100AF8EE600AB0EE600A04F12400BC
:1018E000FFF75EFF94ED080AD4ED090A30EE200AF6
:1018F000D4ED0A0A30EE200A84ED0B0AD4ED0F0A6B
:10190000F8EE600AB0EE600A04F12C00FFF748FF21
:1019100042E0A06B04283FD194ED070AD4ED060AFB
:1019200030EE600AD4ED000A20EE200A84ED080AA9
:1019300094ED010AD4ED070A20EE200A84ED090A8D
:1019400094ED070AD4ED060AB0EE001A01EE600A23
:10195000D4ED050A30EE200AD4ED020A20EE200A6A
:1019600084ED0A0A94ED080AD4ED090A30EE200A43
:10197000D4ED0A0A30EE200AD4ED0B0A30EE200A2C
:1019800084ED0B0AD4ED0F0AF8EE600AB0EE600A9F
:1019900004F12C00FFF704FF94ED060A84ED050A1C
:1019A00094ED070A84ED060A94ED0D0AB5EEC00A1F
:1019B000F1EE10FA25D094ED0D0A10EE101A08463B
:1019C00009F0C4FF41EC190B94ED0B0A10EE101A4C
:1019D000084609F0BBFF41EC1B0BB0EE4B0AF0EEE2
:1019E0006B0A09F09DF8B0EE40AAF0EE60AA53EC45
:1019F000192B51EC1A0B09F077FC02D29FED7A0AF1
:101A000042E794ED0B0A3FE710B52DED088B044635
:101A1000B0EE408AF0EE608A84ED048AC4ED038A59
:101A200038EEC80A84ED070A94ED0C0AB5EEC00A38
:101A3000F1EE10FA27D094ED0C0A10EE101A0846B9
:101A400009F084FF41EC190B94ED070A10EE101A0F
:101A5000084609F07BFF41EC1B0BB0EE4B0AF0EEA1
:101A60006B0A09F05DF8B0EE40AAF0EE60AA53EC04
:101A7000192B51EC1A0B09F071FD04D29FED5A0A93
:101A8000BDEC088B10BDA06B03283ED194ED000A7D
:101A9000D4ED070A20EE200A84ED080A94ED090A25
:101AA000D4ED010A94ED071A00EE810A84ED090ACB
:101AB00094ED070AD4ED060A30EE600AD4ED020A6E
:101AC00020EE200A84ED0A0AD4ED100AF8EE600A2E
:101AD000B0EE600A04F12400FFF762FE94ED080AFC
:101AE000D4ED090A30EE200AD4ED0A0A30EE200ABD
:101AF00084ED0B0AD4ED0F0AF8EE600AB0EE600A2E
:101B000004F12C00FFF74CFE3EE0A06B04283BD113
:101B100094ED070AD4ED060A30EE600AD4ED000A0F
:101B200020EE200A84ED080A94ED010AD4ED070A9C
:101B300020EE200A84ED090A94ED070AD4ED060A86
:101B4000B0EE001A01EE600AD4ED050A30EE200A6C
:101B5000D4ED020A20EE200A84ED0A0A94ED080A68
:101B6000D4ED0A0A30EE200AD4ED0B0A30EE200A3A
:101B700084ED0B0AD4ED0F0AF8EE600AB0EE600AAD
:101B800004F12C00FFF70CFE94ED060A84ED050A23
:101B900094ED070A84ED060A94ED0D0AB5EEC00A2D
:101BA000F1EE10FA28D094ED0D0A10EE101A084646
:101BB00009F0CCFE41EC190B94ED0B0A10EE101A53
:101BC000084609F0C3FE41EC1B0BB0EE4B0AF0EEE9
:101BD0006B0A08F0A5FFB0EE40AAF0EE60AA53EC45
:101BE000192B51EC1A0B01E00000000009F07CFBFE
:101BF00002D21FED030A43E794ED0B0A40E72DE9FB
:101C0000F0412DED048B04460D4616461F46B0EEFE
:101C1000408AF0EE608AB0EE419A29486064B0EEE6
:101C2000491AF0EE680AB0EE480A3B4632462946A9
:101C30002046D4F844C0E047BDEC048BBDE8F081F9
:101C40001FED170A80ED080A1FED190A80ED090A39
:101C50001FED1B0A80ED0A0A1FED1D0A80ED0B0A1D
:101C60001FED1F0A80ED050A1FED210A80ED060A0F
:101C70001FED230A80ED070A704770B52DED068B26
:101C800005460C46B0EE408AF0EE608AB0EE419A0E
:101C9000F0EE619AF0EE480AB0EE680A2846FFF7C7
:101CA000B7FD30EE290AB0EE40AAF0EE4A0AB0EED7
:101CB000490A2046FFF7ACFDBDEC068B70BD000065
:101CC000CF17000861490968491C604A1160016822
:101CD000A1F2072101B900E000BF00BF704710B5B5
:101CE00004465B480068401C594908602068A0F21F
:101CF000072040B941F296232246564954480068CD
:101D000000F019FA00E000BF00BF10BD10B586B0AA
:101D1000044640F20740019000208DF80C008DF839
:101D20000D0008208DF80E004B4800788DF80F004C
:101D3000494841788DF8101081788DF8111080880D
:101D4000010A8DF81210444801798DF81310C088EB
:101D5000010A8DF81410404881798DF81510017C26
:101D60008DF8161001A9204602F0B6FA06B010BD93
:101D700010B586B004464FF48160019000208DF8C4
:101D80000C008DF80D0008208DF80E0032480089F7
:101D9000000A8DF80F003048017A8DF81010408944
:101DA000010A8DF811102C48817A8DF81210808963
:101DB000010A8DF813102848017B8DF81410C08992
:101DC00001128DF815102448817B8DF8161001A999
:101DD000204602F081FA06B010BD2DE9FF5F2DED1F
:101DE000020B2DED028B0C4615461E46B0EE408AC6
:101DF00012AF97E8800F18480470457086709FED09
:101E0000170A28EE000ADFED160A20EE200ABDEEC2
:101E1000C00A10EE100A00B20F4988800846C78039
:101E2000A0F80880A0F80A90A0F80CA0A0F80EB0C6
:101E3000179808740498FFF769FF0498FFF798FF54
:101E4000BDEC028B06B0BDE8F09F000094020020BC
:101E500098020020D00E0020F412002035FA8E3CAB
:101E600000401C4670B505460C464C22A91D38485A
:101E700008F0EEFA364890ED0C0AB1EE400A84ED17
:101E8000000A344890ED000A334880ED000A3048DB
:101E900090ED0E0A2F4880ED000A90ED000A2E48C2
:101EA000D0ED000A30EE600ADFED2C0AB4EEE00A55
:101EB000F1EE10FA05DB2A480068401E2849086048
:101EC00013E0244890ED000A2348D0ED000A30EEDC
:101ED000600ADFED240AB4EEE00AF1EE10FA04D84D
:101EE0001F480068401C1E4908601D4800684FF4E8
:101EF000B471484300EE100AB8EEC00A1548D0EDA0
:101F0000000A30EE200AB1EE400A84ED010A1048C2
:101F100090ED0D0A84ED020A90ED070A84ED030AA4
:101F200090ED080AB1EE400A84ED040A90ED060A2D
:101F300084ED050A90ED030A84ED060A90ED050A8A
:101F400084ED070A90ED040A84ED080A70BD0000D4
:101F500008130020A00200209C0200200000A243E1
:101F6000A40200200000A2C30A7BCB7A42EA03222B
:101F7000826182698260826942600269521C0261E8
:101F800070472DE9F04104460D46002600272068E1
:101F90006060287BE97A40EA01202060206861685F
:101FA000401AE060E06810F5805F07DAA06B401C23
:101FB000A063E06800F50050E0610DE0E068B0F576
:101FC000805F07DDA06B401EA063E068A0F50050B5
:101FD000E06101E0E068E0612168A06B01EB403066
:101FE000A0602068A269801A00EE100AF8EEC00A0C
:101FF000A06B4FF4B472504300EE100AB8EEC00A62
:102000009FEDB91A00EE810A10EE101A084609F089
:102010009DFC41EC100B84ED100BE269207D411C0E
:10202000217504F1200141F82020207D062801D1EE
:1020300000202075002605E004F1200050F826005D
:102040000744761C062EF7DB062097FBF0F0E063D2
:10205000A97B687B41EA002000B2A4F84C00BDE8EF
:10206000F08170B504460D4620686060287BE97AEF
:1020700040EA0120206020686168401AE060E06862
:1020800010F5805F07DAA06B401CA063E06800F5E4
:102090000050E0610DE0E068B0F5805F07DDA06B07
:1020A000401EA063E068A0F50050E06101E0E06838
:1020B000E0612168A06B01EB4030A0602068A2695C
:1020C000801A00EE100AF8EEC00AA06B4FF4B4724A
:1020D000504300EE100AB8EEC00A9FED841A00EEDD
:1020E000810A10EE101A084609F030FC41EC100B82
:1020F00084ED100BA97B687B41EA0020E063E06B74
:10210000B0F57A7F04DBE06BA0F57F40FF38E06339
:10211000687CA06470BD70B506460C461546322E2C
:1021200004D829462046FFF71FFF03E02946204632
:10213000FFF727FF70BD2DE9F04106460C46174614
:102140001D4639462046FFF78CFF642E12D8A06941
:10215000A168401A10F57A6F03DA05F50050A06106
:1021600008E0A069A168401AB0F57A6F02DDA5F514
:102170000050A061BDE8F0812DE9F04186B08046B5
:102180000C4615461E460C9F40F2FF1001900020A1
:102190008DF80C008DF80D0008208DF80E00200A37
:1021A0008DF80F008DF81040290A8DF811108DF868
:1021B0001250310A8DF813108DF81460390A8DF819
:1021C00015108DF8167001A9404602F085F806B08A
:1021D000BDE8F0812DE9F04186B080460C461546F9
:1021E0001E460C9F40F2FF20019000208DF80C004D
:1021F0008DF80D0008208DF80E00200A8DF80F00D4
:102200008DF81040290A8DF811108DF81250310AFE
:102210008DF813108DF81460390A8DF815108DF8AB
:10222000167001A9404602F057F806B0BDE8F081EB
:102230002DE9F04186B080460C4615461E460C9F9F
:102240004FF40070019000208DF80C008DF80D0007
:1022500008208DF80E00200A8DF80F008DF8104030
:10226000290A8DF811108DF81250310A8DF81310CB
:102270008DF81460390A8DF815108DF8167001A9C3
:10228000404602F029F806B0BDE8F0812DE9F041A2
:1022900086B080460C4615461E460C9F40F2FF1045
:1022A000019000208DF80C008DF80D0008208DF8AD
:1022B0000E00200A8DF80F008DF81040290A8DF8C5
:1022C00011108DF81250310A8DF813108DF814602A
:1022D000390A8DF815108DF8167001A9404601F0E5
:1022E000FBFF06B0BDE8F081FFFF333D0000343D49
:1022F000F0B503460C461888002113E0675C80EABD
:10230000072000250BE0460000F4004CBCF1000F54
:1023100003D041F2210C86EA0C0630466D1C082DD4
:10232000F1D3491C9142E9D31880F0BD2DE9F8435F
:1023300005460F4690464FF0000900200090062603
:10234000FE484078002859D0002085F86300FB48FB
:102350004078C0F3800078B1F9A1284608F066F80B
:10236000F84908600846006830B1F448007820F069
:102370000400001DF1490870F048407800F00100A9
:1023800078B1EFA1284608F051F8EE4908600846F8
:10239000006830B1E948007820F00100401CE749AE
:1023A0000870E6484078C0F3400078B1E4A12846C0
:1023B00008F03CF8E34908600846006830B1DF489F
:1023C000007820F00200801CDC490870DB4840786F
:1023D000C0F3C00078B1DCA1284608F027F8D9493D
:1023E00008600846006830B1D448007820F0080042
:1023F0000830D2490870002028600AE128785A285D
:10240000FBD16878A528F8D1A878E97800EB0120FD
:10241000801D4045F1D1B8F1080FEEDB04222946BA
:102420006846FFF765FFA8F10602A91D6846FFF799
:102430005FFF2879697900EB01201FFA80F9BDF868
:1024400000004845D9D10626E0E0AC192078C02824
:1024500060D008DC90280FD0A02813D0A52829D060
:10246000B0286FD13EE0D02870D0D1286CD0D928C8
:102470006BD0F028F5D1C3E06078B8490870B01C83
:10248000C6B2C2E06078A17800EB012000B2B34987
:102490004880E078217900EB012000B2AF498880C4
:1024A0006079A17900EB012000B2AC49C880F01D31
:1024B000C6B2AAE06078A17800EB012000B2A7497B
:1024C0000881E078217900EB012000B2A34948811E
:1024D0006079A17900EB012000B2A0498881F01D4C
:1024E000C6B292E06078A17800EB012000B29B496F
:1024F000C881E078217900EB012000B29749088279
:102500006079A17900EB012000B294494882F01D66
:10251000C6B27AE06078A17800EB012000B28F4962
:102520008882E078217900EB012000B28B49C882D3
:102530006079A17900EB012000B288490883F01D81
:10254000C6B262E05FE001E04CE03FE06078A17875
:1025500000EB012000B281494883E078217900EB4B
:10256000012000B27D4988836079A17900EB0120C8
:1025700000B27A49C8830846B0F91A0000EE100A82
:10258000B8EEC00ADFED760A20EE200A084680ED9C
:102590000F0AB0F91C0000EE100AB8EEC00ADFED19
:1025A000700A20EE200A084680ED100AB0F91E00DD
:1025B00000EE100AB8EEC00ADFED6A0A20EE200A2B
:1025C000084680ED110AF01DC6B21EE0634854F8BB
:1025D000011F016261684162A168816206F10D001C
:1025E000C6B212E05D4854F8011FC1626168016320
:1025F000A1684163E168816306F11100C6B204E09D
:10260000701DC6B201E0464600BF00BF4645FFF65A
:102610001CAF5248B0F91200404200EE100AB8EE6A
:10262000C00ADFED500A20EE200A87ED040A4B486D
:10263000B0F91000404200EE100AB8EEC00ADFED1B
:10264000490A20EE200A87ED030A4448B0F90E003B
:10265000404200EE100AB8EEC00ADFED420A20EE5A
:10266000200A87ED050A404890ED000A3F4880EDBA
:10267000000A3A4890ED110AB1EE400A3A4880ED5E
:10268000000A90ED000A3948D0ED000A30EE600AE9
:10269000DFED370AB4EEE00AF1EE10FA05DB35485B
:1026A0000068401E3349086013E02F4890ED000A8F
:1026B0002E48D0ED000A30EE600ADFED2F0AB4EEAE
:1026C000E00AF1EE10FA04D82A480068401C2949B3
:1026D00008602A4890ED000A294880ED000A1F484A
:1026E00090ED080A254880ED000A90ED000A244884
:1026F000D0ED000A30EE600ADFED1D0AB4EEE00A0C
:10270000F1EE10FA05DB1F480068401E1D49086005
:1027100013E01A4890ED000A1948D0ED000A30EE97
:10272000600ADFED150AB4EEE00AF1EE10FA04D803
:1027300014480068401C1349086025E0A8020020E6
:102740004F4B0000AC0200206E6577207061636B18
:102750006574206974656D730000000054130020D7
:102760000AD7233CCDCCCC3DB4020020B0020020DF
:102770000000A543C80200200000A5C3BC02002041
:10278000B8020020CC020020314800684FF4B47138
:10279000484300EE100AB8EEC00A2E48D0ED000AF9
:1027A00030EE200A87ED000A2B4890ED000A2B48F6
:1027B00080ED000A2A4890ED090A274880ED000ABA
:1027C00090ED000A2548D0ED000A30EE600A5FED7A
:1027D000180AB4EEE00AF1EE10FA05DB21480068B1
:1027E000401E2049086013E01B4890ED000A1B487A
:1027F000D0ED000A30EE600A5FED210AB4EEE00A87
:10280000F1EE10FA04D817480068401C154908601A
:10281000154800684FF4B471484300EE100AB8EE52
:10282000C00A1248D0ED000A30EE200A87ED010AF6
:102830000B4890ED100ADFED0E0A30EE200A87ED0E
:10284000020A90ED0F0A87ED000ABDE8F883000048
:10285000CC020020BC020020C4020020C0020020E4
:1028600054130020D0020020C8020020B40200202F
:10287000A470954030B5034605E013F8010B80EADB
:102880000204B348025D081EA1F10101F5D1104612
:1028900030BD70B505460C4600260DB1022C01D89E
:1028A000002070BD611EFF222846FFF7E3FF0646A9
:1028B000601E285CB04201D10120F2E70020F0E761
:1028C00070B505460C4600260DB1022C00D870BD2F
:1028D000611EFF222846FFF7CDFF0646601E2E54DC
:1028E00000BFF4E730B5034613B94FF6FF7030BDB3
:1028F00009E013F8014B82EA0400C0B2954D35F8A7
:10290000100080EA2222081EA1F10101F1D1104637
:10291000EDE770B505460C4600260DB1022C01D836
:10292000002070BDA11E8C4802882846FFF7DAFF00
:102930000646F1B2A01E285C814206D1601E285CCA
:10294000B0EB162F01D10120EBE70020E9E770B5CD
:1029500005460C4600260DB1022C00D870BDA11E04
:102960007D4802882846FFF7BDFF0646A01E2E546C
:10297000310A601E295400BFF0E770B504460D46C9
:1029800000260CB1022D01D8FF2070BDFF22294680
:102990002046FFF76FFFF8E72DE9FC5F05460F467D
:1029A000092F01D8BDE8FC9F0024A146CBE015F813
:1029B00004A0601C295CA01C285C41EA0026601D64
:1029C000295CA01D285C41EA002B281900F10708AA
:1029D00028190168009100798DF8040006F10900BA
:1029E0001FFA80F9BAF1A50F77D105216846FFF7E4
:1029F00050FF002871D028194946FFF78AFF0028A8
:102A0000F8D0BBF5017F6AD012DC40F20311ABEBCA
:102A100001008B452BD006DCBBF1010F1AD0BBF1B6
:102A2000030F74D11CE0FE2828D0FF286FD14BE0A3
:102A3000BBF5027F6DD006DCABF20620002856D035
:102A400001287BD15AE0ABF20130002868D002287F
:102A500074D16CE032464146404807F0F9FC6EE024
:102A6000324641463D480C3007F0F2FC67E0324602
:102A700041463A48363007F0EBFC60E01B2E22D18D
:102A8000324641463548393007F0E2FC334890F889
:102A90003900012809DB314890F83900072804DCA7
:102AA00002202E4981F8C5000DE02C4890F839002D
:102AB0000B2808DB294890F83900112803DC012095
:102AC000264981F8C5003AE0102E05D1324641462C
:102AD0002248543007F0BCFC31E031E0FFE7012E22
:102AE00004D198F800001D4981F8740027E03246AF
:102AF00041461A48763007F0ABFC20E0072E05D19E
:102B0000324641461548773007F0A2FC17E015E041
:102B1000FFE73246414611487E3007F099FC0EE04F
:102B2000324641460D48843007F092FC07E03246B9
:102B300041460A48AC3007F08BFC00E000BF00BF04
:102B400004EB090084B2A7423FF731AF00BF29E789
:102B5000CBBA0008CCBB0008D4020020B81100207A
:102B600010B503462BB1087828B901200870521C13
:102B700001E000200870107800EBD0746410A0EB26
:102B800044040CB9002010BD0120FCE7CB8A0340AF
:102B90000BB1012300E000231370704710B5044609
:102BA00004F1280221460120FFF7F0FF04F1290279
:102BB00021460420FFF7EAFF04F12A022146022001
:102BC000FFF7E4FF04F12B0221460820FFF7DEFFA8
:102BD00004F12C0221461020FFF7D8FF04F12E0249
:102BE00021462020FFF7D2FF04F12F02214640208A
:102BF000FFF7CCFF04F1300221468020FFF7C6FF2B
:102C000004F1310221464FF48070FFF7BFFF04F159
:102C1000320221464FF40070FFF7B8FF04F133028F
:102C200021464FF48060FFF7B1FF04F134022146E2
:102C30004FF40060FFF7AAFF04F12D0221464FF484
:102C40008050FFF7A3FF04F1350221464FF40050F6
:102C5000FFF79CFF04F1360221464FF48040FFF756
:102C600095FF04F1370221464FF40040FFF78EFF35
:102C700094F82800914A9249FFF772FF38210855CD
:102C80002921085D8F4A9049FFF76AFF39210855CD
:102C90002A21085D8D4A8E49FFF762FF3A210855C7
:102CA0002B21085D8B4A8C49FFF75AFF3B210855C1
:102CB0002C21085D894A8A49FFF752FF3C210855BB
:102CC0002E21085D874A8849FFF74AFF3E210855B3
:102CD0002F21085D854A8649FFF742FF3F210855AD
:102CE0003021085D834A8449FFF73AFF40210855A7
:102CF0003121085D814A8249FFF732FF41210855A1
:102D00003221085D7F4A8049FFF72AFF422108559A
:102D10003321085D7D4A7E49FFF722FF4321085594
:102D20003421085D7B4A7C49FFF71AFF442108558E
:102D30002D21085D794A7A49FFF712FF3D21085598
:102D40003521085D774A7849FFF70AFF4521085584
:102D50003621085D754A7649FFF702FF462108557E
:102D60003721085D734A7449FFF7FAFE4721085579
:102D700010BD817AC176017FC27E891A4177C27EF9
:102D80000277417F01290ED1016A491C0162016A63
:102D900001EBD1725210A1EB420212B900228277EC
:102DA00001E001228277417F02290ED1416A491C4C
:102DB0004162416A01EBD1725210A1EB420212B999
:102DC0000022C27701E00122C2777047C17A01294F
:102DD00001D1817608E0C17A032901D1817603E02F
:102DE000C17A022900D18176704730B504460D467C
:102DF000122D00D030BD04B9FCE72078617840EA9C
:102E00000120C0F30A004D4908806078C010A17805
:102E100040EA4110C0F30A0048494880A078801178
:102E2000E17840EA8100217940EA8120C0F30A007C
:102E30004249888020794010617940EAC110C0F38E
:102E40000A003E49C880207C617C40EA0120C0F332
:102E50000A003A4908816079001180088872607917
:102E6000C0F30110C872A079E17940EA012000B2F4
:102E700032498881207A617A40EA012001B22F48E4
:102E8000C181A07AE17A40EA012001B22B48018297
:102E9000217B0175617B4175A07BE17B40EA0120CC
:102EA0002649C8820846FFF791FF2448FFF761FFD3
:102EB0002248FFF773FE00BF9CE70000D702002006
:102EC000D6020020D9020020D8020020DB02002018
:102ED000DA020020DD020020DC020020DF020020F8
:102EE000DE020020E1020020E0020020E3020020D8
:102EF000E2020020E5020020E4020020E7020020B8
:102F0000E6020020E9020020E8020020EB02002097
:102F1000EA020020ED020020EC020020EF02002077
:102F2000EE020020F1020020F0020020F302002057
:102F3000F2020020F5020020F4020020AC12002072
:102F4000F0B58BB004460D4616461F4601210846D3
:102F500002F020FA0121480602F065FA09220B214D
:102F6000964802F004F809220C21944801F0FFFF72
:102F70004FF4C050099002208DF8280009A98F480D
:102F800001F06AFF14208DF8040003208DF805007D
:102F900001208DF806008DF8070001A800F09FFFC2
:102FA000874801F007F806A801F028F900208DF8FD
:102FB0001E0001208DF81F0000208DF820008DF8E4
:102FC00021008DF822008DF823008DF81A708DF8FD
:102FD0001B008DF81C508DF81D40ADF8186006A937
:102FE000774801F000F800208DF812008DF81300EA
:102FF00001208DF814000020ADF80800ADF80A009B
:10300000ADF80C00ADF80E00ADF8100001208DF801
:10301000150002A801F071F801220221684801F0B0
:103020006BFB0BB0F0BD10B50121654801F0CCFB86
:1030300018B10121624801F062FC10BD00B585B0F5
:1030400002215F4801F0C0FB88B104215C4801F017
:1030500056FC5C495A4801F094FB6A4600215848E6
:1030600001F02FFA00BF6846FEF72CFE00BF05B046
:1030700000BDF0B58BB004460D4616461F46012133
:10308000022002F087F90121880602F0CCF909221A
:103090000C214D4801F06BFF09220D214A4801F037
:1030A00066FF4FF44050029002208DF80C0002A9F8
:1030B000454801F0D1FE40208DF8040003208DF832
:1030C00005008DF8060001208DF8070001A800F02A
:1030D00006FF3F208DF8040003208DF805008DF8D1
:1030E000060001208DF8070001A800F0F8FE37481F
:1030F00000F060FF08A801F081F800208DF826009C
:1031000001208DF8270000208DF828008DF8290077
:103110008DF82A008DF82B008DF822008DF8230001
:103120008DF824508DF82540ADF8206008A9274877
:1031300000F059FF0E208DF81A0000208DF81B00BA
:1031400001208DF81C000020ADF81000ADF8120031
:10315000ADF81400ADF81600ADF8180001208DF898
:103160001D0004A800F0C9FF01220221174801F048
:10317000C3FA0BB0F0BD10B50121144801F024FBD7
:1031800018B10121114801F0BAFB10BD00B585B09E
:1031900002210E4801F018FB68B102210B4801F032
:1031A000AEFB6A460021094801F08BF900BF684672
:1031B000FEF795FD00BF05B000BD00000000024015
:1031C0000064004008000032000402400068004033
:1031D00010B596B004460121022002F0DBF801216F
:1031E000880502F0D7F80121102002F02DF90722FE
:1031F0001146FE4801F0BBFE14A801F075FE8020C8
:10320000149002208DF8540000208DF85500012004
:103210008DF8570014A9F54801F01EFEF44803F09C
:103220005FF810A803F029F910940020ADF84400CD
:10323000ADF846004FF48060ADF848000420ADF8CA
:103240004A000020ADF84C0010A9E94803F0AFF89F
:1032500001224021E64803F0DFF9E64801F0A2FB35
:10326000684601F06AFC4FF000600090E048001DE5
:103270000190E1480290002003904020049000203B
:1032800005904FF4806006900020079008904FF45E
:103290008070099000020A9000200B900C900D9015
:1032A0000E906946D34801F01FFC0022D2494031FC
:1032B000D04801F07AFC0121CE4801F082FC0121C6
:1032C000CC4801F04BFC25208DF83C0000208DF807
:1032D0003D008DF83E0001208DF83F000FA800F062
:1032E000FEFD012240F22441C14803F09EF9012174
:1032F000BF4803F0E4F816B010BD10B540F2244109
:10330000BB4803F0CDF9002852D0B9480088B8482E
:103310008088B84801F065FC20BB0021B54801F069
:103320001DFCB649B34801F092FCB24801F039FCEB
:10333000C0F14000B24908604020AE49091D086054
:10334000081F006840F40020091F08600121A948F7
:1033500001F004FC00BFAA48008881B2A648FFF72C
:1033600044FD25E00021A34801F0F8FBA349A14852
:1033700001F06DFC9F4801F014FCC0F14000A04931
:10338000086040209B49091D0860081F006820F460
:103390000020091F08600121964801F0DFFB00BFF3
:1033A0009748008881B294484030FFF71EFD00BF67
:1033B00010BD10B596B004460121084601F0EAFFA1
:1033C0000121480501F0E6FF0121480402F02BF835
:1033D000072202218B4801F0CAFD14A801F084FDE8
:1033E0000420149002208DF8540000208DF8550020
:1033F00001208DF8570014A9824801F02DFD824864
:1034000002F06EFF10A803F038F810940020ADF819
:103410004400ADF846004FF48060ADF84800042049
:10342000ADF84A000020ADF84C0010A9764802F033
:10343000BEFF012240216E4803F0EEF8734801F010
:10344000B1FA684601F079FB4FF0006000906E48D9
:10345000001D01906E4802900020039064200490AB
:10346000002005904FF4806006900020079008909F
:103470004FF48070099000020A9000200B900C908D
:103480000D900E906946614801F02EFB00226049C4
:1034900064315E4801F089FB01215C4801F091FB39
:1034A00001215A4801F05AFB26208DF83C000020EB
:1034B0008DF83D008DF83E0001208DF83F000FA8EB
:1034C00000F00DFD012240F224414F4803F0ADF819
:1034D00001214D4802F0F3FF16B010BD10B540F2C7
:1034E0002441494803F0DCF800284AD046480088C7
:1034F0004548001D00883F4801F073FB00BB0021D8
:10350000424801F02BFB4349404801F0A0FB3F48F3
:1035100001F047FBC0F164003F49086064203B496B
:10352000091D086039488838D0F8880040F4002028
:10353000091F08600121354801F010FB00BF20E0A1
:103540000021324801F00AFB3249304801F07FFB8C
:103550002E4801F026FBC0F164002F49086064206A
:103560002A49091D086029488838D0F8880020F4C5
:103570000020091F08600121244801F0EFFA00BF74
:1035800000BF10BD10B596B004460121022001F025
:1035900001FF0121880401F046FF0121480501F0E7
:1035A000F9FE07220A21114801F0E1FC07220B2154
:1035B0000E4801F0DCFC02208DF8440003208DF859
:1035C000450000208DF8460001208DF8470080025C
:1035D000109010A9054801F03FFC4FF400601090D6
:1035E00010A9024801F038FC272017E0000402402F
:1035F00000100140406402409C1300200000301085
:10360000F8020020000002400044004088600240B0
:103610005C140020000C0020FC0200208DF800004B
:1036200002208DF8010001208DF802008DF80300C2
:10363000684600F054FC12940020ADF84C00ADF840
:103640004E00ADF85000ADF854000C20ADF852001B
:1036500012A9FE4802F0ABFE012240F22441FB48D1
:1036600002F0E3FF5021F94803F011F864200590BF
:1036700000200C900D900E9009904FF48060079000
:1036800080100A90F148001D029000200F900890D1
:1036900006904FF400300B908002019000200490BF
:1036A000EB48039001A9EB4801F01EFA0121E9481B
:1036B00001F054FA01224021E44802F0ADFF01215B
:1036C000E24802F0FCFE16B010BD10B540F22441F5
:1036D000DE4802F0E5FFF8B1DC4802F01FFF40F2DF
:1036E0002441DA4803F017F80021DA4801F036FAED
:1036F00000224021D54802F08FFF00BFD649D448B0
:10370000FEF7B0FB00BF01224021D04802F084FF49
:103710000121D04801F022FA10BD10B596B0044640
:103720000121042001F036FE0121C80401F07BFED6
:1037300008220A21C94801F01AFC08220B21C748B7
:1037400001F015FC0121480501F024FE4FF4406012
:10375000109002208DF8440000208DF846000320D0
:103760008DF8450001208DF8470010A9BB4801F0F5
:1037700073FB12940020ADF84C00ADF84E00ADF88C
:1037800050000C20ADF852000020ADF8540012A9F2
:10379000B34802F00CFE01224021B14802F03CFF88
:1037A000AC48183001F0FEF8684601F0C6F94FF059
:1037B00000600090AA48001D0190AA4802900020D5
:1037C000039064200490002005904FF480600690E0
:1037D00000200790089009904FF480300A90002054
:1037E0000B900C900D900E9069469A48183001F09D
:1037F0007BF901219748183001F0B0F934208DF899
:103800003C0003208DF83D008DF83E0001208DF82E
:103810003F000FA800F063FB01228021904802F0D6
:10382000FBFE00218B48483001F098F98948483068
:1038300001F0B8F800BF8748483001F0DCF90028F3
:10384000F9D14FF0006000908548001D0190864836
:103850000290402003900020049005904FF4806077
:10386000069000200790089009904FF480300A904D
:1038700000200B9003200C9000200D900E906946C4
:103880007448483001F030F90F208DF83C000320D7
:103890008DF83D008DF83E0001208DF83F000FA807
:1038A00000F01DFB012210216A48483001F0E3F9C5
:1038B000012240F224416A4802F0B7FE0121684823
:1038C00002F0FDFD16B010BD10B5002440F22441F9
:1038D000634802F0E5FE08B3614800886048001DB7
:1038E000008800215B48183001F038F95F495948D9
:1038F000183001F0ACF95748183001F052F9C0F116
:103900006400C4B200BF00BF64215248183001F007
:1039100046F901214F48183001F020F910BD70B56B
:1039200004460D462946204601F039F9012120467A
:1039300001F014F970BD10B54D494648483001F00A
:103940006AF948B100214348483001F007F9484975
:103950004048483001F07BF910BD70B504460025A1
:10396000414D05F8014B01213A484830FFF7D7FF98
:1039700070BD2DE9F04105460E46002400273A4F60
:1039800000BF03E0285D3855601C84B2B442F9DB07
:10399000314630484830FFF7C2FFBDE8F08110B52E
:1039A00096B004460121042001F0F4FC0121082016
:1039B00001F0F0FC0121080501F035FD0121480569
:1039C00001F0E8FC02208DF8540000208DF856002C
:1039D0004FF48050149001208DF8570003208DF88B
:1039E000550014A91D4801F037FA02208DF8540043
:1039F00000208DF856000420149001208DF8570007
:103A000003208DF8550014A91A4801F025FA082260
:103A10000C21124801F0ABFA08220221154801F0EE
:103A2000A6FA10940020ADF84C000C20ADF84A0026
:103A30000020ADF84800ADF84600ADF8440010A9EC
:103A40000D4802F0B4FC01210B4817E0004800408B
:103A50008815002028600240780A002000080240F3
:103A6000004C0040EC1500205016002000003010E3
:103A700020000020000C02400050004002F01FFD1A
:103A800001224021E14802F0C7FD684601F055F8E7
:103A9000DF4802904FF40070049080040090DB48EF
:103AA000001D01900020039005904FF48060069067
:103AB00000200890079009904FF480300A90002071
:103AC0000B900C900D900E906946D24801F00CF8C6
:103AD0000121D04801F042F80022CF49CD4801F041
:103AE00064F80121CB4801F06CF835208DF83C00DA
:103AF00001208DF83F008DF83D0002208DF83E003A
:103B00000FA800F0ECF9012240F22441BF4802F076
:103B10008CFD0121BD4802F0D2FC01228021BB486E
:103B200002F07AFD0021BB48A83001F017F8B9482F
:103B3000A83000F037FF00BFB648A83001F05BF8AE
:103B40000028F9D14FF000600090B048001D0190AE
:103B5000B24802904020039042200490002005903B
:103B60004FF48060069000200790089009900A901A
:103B70000B9003200C9000200D900E906946A548F4
:103B8000A83000F0B1FF0121A248A83000F0E6FF04
:103B90002F208DF83C0002208DF83D0001208DF88B
:103BA0003E008DF83F000FA800F099F916B010BD47
:103BB00070B504460D460021204600F0CFFF00BF3F
:103BC000204601F018F80028FAD12946204600F0D6
:103BD000E6FF0121204600F0C1FF70BD10B540F2A4
:103BE00024418A4802F05CFD00285AD087480088AA
:103BF00086488088874800F0F4FF48BB002185484C
:103C000000F0ACFF8649834801F021F8814800F0BC
:103C1000C8FFC0F50070834908604FF400717D480B
:103C200000F0BDFF4FF400227B497A4800F0D4FF3A
:103C30000121784800F092FF7A480068092830D9BD
:103C400000BF7848008881B27148FEF7A5FE28E0E1
:103C50000021704800F082FF71496E4800F0F7FFC4
:103C60006C4800F09EFFC0F500706E4908604FF48C
:103C70000071684800F093FF00226549654800F034
:103C8000ABFF0121634800F069FF6648006809281E
:103C900007D900BF6348008881B25F48FEF77CFE09
:103CA00000BF10BD00B597B00121042001F072FBE8
:103CB0000121880501F06EFB0121202001F0C4FBE9
:103CC00008220621584801F052F9082207215648D7
:103CD00001F04DF9C020119002208DF8480000201D
:103CE0008DF84A0002208DF8490000208DF84B0025
:103CF00011A94D4801F0B0F84C4802F0F1FA4C48D7
:103D000013900020ADF85000ADF85200ADF854000B
:103D10000C20ADF856000020ADF8580013A9434818
:103D200002F045FB01224021404802F075FC414869
:103D300000F038FE4FF0206001903C48001D0290DA
:103D40003D480390002004906420059000200690D8
:103D50004FF4806007900020089009900A904FF47B
:103D600080300B9000200C900D900E900F9001A9C8
:103D7000304800F0B9FE01212E4800F0EFFE472048
:103D80008DF8400003208DF841008DF8420001209D
:103D90008DF8430010A800F0A2F8012240F224415F
:103DA000224802F042FC0121204802F088FB17B0B3
:103DB00000BD10B540F224411C4802F071FC18B35C
:103DC0001A4800881948001D00880021194800F091
:103DD000C5FE1A49174800F03AFF164800F0E1FE08
:103DE000C0F164001649086000BF08460278154912
:103DF0001148FEF79BFA00BF64210E4800F0CFFE89
:103E000001210C4800F0AAFE10BD00000050004047
:103E1000F616002010600240F6180020B4160020AC
:103E20003000001000030020000802400014014090
:103E3000B0AA0E0028640240F61A0020000C001000
:103E400004030020780A00201FB50121102001F092
:103E5000EAFA36208DF8000003208DF801000220D8
:103E60008DF8020001208DF80300684600F037F855
:103E70005320ADF804000020ADF80600ADF80C00AA
:103E800040F2E730029001A9114801F084FC0121C1
:103E90000F4801F009FD012211460D4802F01CF9FE
:103EA00001210B4802F02CF91FBD10B50121084873
:103EB00002F029F958B10121054802F035F9012134
:103EC000034802F01DF900BFFCF714FB00BF10BD52
:103ED0000010004032490143324A1160704770B50A
:103EE000002100230F22C4781CB32E4C246804F454
:103EF000E064C4F5E064C4F30721C1F10404E3B253
:103F00000A4144789C40E1B28478144021430C0774
:103F1000210E254C05786155047804F01F05012415
:103F2000AC4005786D11AD0005F1E025C5F8004104
:103F300009E0047804F01F050124AC401B4D06780D
:103F4000761145F8264070BD194A0A400243154BC8
:103F50001B1F1A60704739B1124A121D12680243C2
:103F6000104B1B1D1A6006E00E4A121D1268824398
:103F70000C4B1B1D1A607047042808D14FF0E0213C
:103F8000096941F004014FF0E022116107E04FF0B0
:103F9000E021096921F004014FF0E022116170472E
:103FA0000000FA050CED00E000E400E080E100E034
:103FB00080FFFF1F10B50446FE48844209D101214D
:103FC000480601F085FA00214FF0007001F080FAF8
:103FD00008E00121880601F07BFA00214FF08060A3
:103FE00001F076FA10BD30B50246002000231468B7
:103FF00024F002041460146844F00104146000E02A
:104000005B1C546804F001041CB94FF6FF74A34212
:10401000F6D1546804F001040CB900206CE08C79EE
:10402000012C04D1146844F08004146003E0146887
:1040300024F080041460CC79012C04D1146844F07D
:104040004004146003E0146824F0400414600C7A07
:10405000012C04D1146844F02004146003E01468B7
:1040600024F0200414604C7A012C04D1146844F02C
:104070001004146003E0146824F0100414608C7AB7
:10408000012C04D1146844F00804146003E014689F
:1040900024F008041460CC7A012C04D1146844F094
:1040A0000404146003E0146824F0040414608C78A1
:1040B000A407CD7844EA05640D7944EA05444D79B6
:1040C00044EA05540D886D1E2C43D461146824F015
:1040D00001041460002300E05B1C546804F0010438
:1040E0001CB14FF6FF74A342F6D1546804F00104EA
:1040F0000CB1002000E0012030BD10B50021837A12
:10410000012202FA03F1AC4A126842F00102AA4B02
:104110001A60A94A1C3212688A43A74B1C331A60E2
:10412000027BCAB9A44A0C3212688A43A24B0C33F0
:104130001A604288C38842EA03439F4A4032847A25
:1041400042F834300288838842EA03439A4A403274
:10415000847A02EBC4025360027B012A19D1964A89
:104160000C3212680A43944B0C331A60428803885D
:1041700042EA0343904A4032847A42F83430C2889B
:10418000838842EA03438C4A4032847A02EBC402B9
:104190005360C27A3AB9884A121D12688A43864B24
:1041A0001B1D1A6006E0844A121D12680A43824BE6
:1041B0001B1D1A60028932B97F4A143212688A4381
:1041C0007D4B14331A600289012A06D17A4A1432CF
:1041D00012680A43784B14331A60427B012A06D1D5
:1041E000754A1C3212680A43734B1C331A60724AB8
:1041F000126822F00102704B1A6010BD002181711B
:10420000C171017241728172C1728170C1700321EA
:1042100001710221417101210180704766490968DD
:1042200041F00101644A11601146096843F60E72BB
:104230009143614A11601146096841EA0021116009
:104240001146096821F001011160704721B102682F
:1042500042F48032026003E0026822F4803202609D
:104260007047E1B1026842F0800202604FF4C2720E
:10427000125842F480734FF4C27213504FF4CA7252
:10428000125842F480734FF4CA7213504FF4D27232
:10429000125842F480734FF4D27213501BE002683C
:1042A00022F0800202604FF4C272125822F480732E
:1042B0004FF4C27213504FF4CA72125822F4807332
:1042C0004FF4CA7213504FF4D272125822F4807312
:1042D0004FF4D2721350704710B502460020936815
:1042E00003F08063B3F1806F00D110E0936803F0B6
:1042F0000063B3F1006F01D1012008E0936803F07F
:104300008053B3F1805F01D1022000E00420042833
:1043100079D002F5C07303EB00131B6803F00104AE
:1043200002F5C07303EB00131C600B7A7BB94B7A68
:104330000C8843EA445302F5C07404EB001424686B
:10434000234302F5C07404EB0014236010E00B7AE1
:104350004C6843EAC4034C7A234302F5C07404EB6F
:1043600000142468234302F5C07404EB0014236096
:104370008B7A03F00F038B7202F5C07303EB00130B
:104380005B6823F00F0402F5C07303EB00135C605D
:1043900002F5C07303EB00135B688C7A234302F5CC
:1043A000C07404EB001463608B7B1C064B7B44EAF7
:1043B000034403E000640040006600400B7B44EAD5
:1043C0000323CC7A234302F5C07404EB0014A360EA
:1043D0008B7C1C064B7C44EA03440B7C44EA03239D
:1043E000CC7B234302F5C07404EB0014E36002F5B8
:1043F000C07303EB00131B6843F0010402F5C073A4
:1044000003EB00131C6010BD10B50246002321B160
:10441000012907D002290FD109E09068F94C00EA80
:1044200004030BE09068F84C00EA040306E090688F
:10443000F64C00EA040301E0002300BF00BFF44C87
:10444000181BA34216D007DC83B16FF080601844BC
:1044500070B1022818D111E0B0F5007F10D0ED4CFA
:10446000204448B1B0F5003F0ED10BE002230DE02F
:1044700000230BE0002309E0002307E0012305E00F
:10448000012303E0012301E0002300BF00BFD8B2F5
:1044900010BD21B1012907D002290FD109E082689E
:1044A00042F0800282600AE0826842F40042826048
:1044B00005E0826842F40002826000E000BF00BFB5
:1044C000704710B500F5D87303EB01131B6803F0B8
:1044D00004031372137A53B900F5D87303EB011375
:1044E0001B6840F2FF7404EA5353136009E000F5BF
:1044F000D87303EB01131B686FF0604404EAD30325
:10450000536000F5D87303EB01131B6803F002033B
:10451000537200F5D87303EB01135B6803F00F03CC
:10452000937200F5D87303EB01135B681B0AD37415
:1045300000F5D87303EB01139B68D37200F5D873B1
:1045400003EB01139B681C0A147300F5D87303EB8B
:1045500001139B681C0C547300F5D87303EB011313
:104560009B681B0E937300F5D87303EB0113DB6894
:10457000D37300F5D87303EB0113DB681C0A1474C2
:1045800000F5D87303EB0113DB681C0C547400F5C1
:10459000D87303EB0113DB681B0E937421B9C36856
:1045A00043F02003C36003E0036943F02003036189
:1045B00010BD21B9C26842F02002C26003E0026966
:1045C00042F02002026170470246002019B9D36808
:1045D00003F0030006E0012903D1136903F003008F
:1045E00000E00020704710B502460B4600204FF651
:1045F000FF71BBB9146824F0020444F00104146094
:1046000000E0491E546804F00304012C01D0002985
:10461000F7D1546804F00304012C01D0002032E0EB
:10462000012030E0012B13D1146824F0030414603E
:1046300000E0491E546804F003040CB10029F8D1CD
:10464000546804F003040CB100201CE001201AE0BF
:10465000022B17D1146824F0010444F00204146002
:1046600000E0491E546804F00304022C01D0002924
:10467000F7D1546804F00304022C01D0002002E0BA
:10468000012000E0002010BD014600200A6822F051
:10469000010242F002020A604A6802F00302022AA2
:1046A00000D10120704701464FF6FF7200200B68D1
:1046B00023F002030B6000E0521E4B6803F002037C
:1046C000022B01D1002AF7D14B6803F00203022B21
:1046D00000D001207047014600208A6902F0700076
:1046E0007047014600208A69100E7047014600207D
:1046F0008A69C2F3074070471AB143690B434361AB
:1047000002E043698B434361704710B502460020C5
:1047100001F4700343B19369C1F3130423400BB157
:1047200001202DE000202BE001F0807343B153689D
:10473000C1F3130423400BB1012021E000201FE04E
:1047400001F0006343B19368C1F3130423400BB13C
:10475000012015E0002013E001F0007343B1D3689D
:10476000C1F3130423400BB1012009E0002007E04E
:104770001369C1F3130423400BB1012000E00020B2
:1047800010BD0022244B994202D10023836111E025
:10479000C1F3130201F000730BB1C2600AE001F033
:1047A00080630BB1026105E001F000630BB1826030
:1047B00000E0426070470246002002EA01030BB1AC
:1047C000012000E00020704770B504460D46002629
:1047D00060692840002872D0B5F5807F69D01DDC63
:1047E000082D42D006DC012D2DD0022D31D0042D14
:1047F0007FD134E0102D3ED0202D42D0402D78D1F5
:1048000045E000000300000400030008000003105E
:10481000000100080001FFF77000F030B5F5004F0F
:1048200061D009DCB5F5007F4AD0B5F5806F4DD079
:10483000B5F5006F5DD150E0B5F5803F2DD0B5F5F1
:10484000003F56D12FE0A0685549FFF7B4FF064658
:1048500051E0E0680321FFF7AEFF06464BE0E06859
:104860000821FFF7A8FF064645E0E0681021FFF7A2
:10487000A2FF06463FE020690321FFF79CFF0646A2
:1048800039E020690821FFF796FF064633E02069EA
:104890001021FFF790FF06462DE060680821FFF722
:1048A0008AFF064627E060681021FFF784FF06466E
:1048B00021E0A0690121FFF77EFF06461BE01BE017
:1048C000A0690221FFF777FF064614E0A0690421E2
:1048D000FFF771FF06460EE00BE0A0697021FFF7BD
:1048E0006AFF064607E060680421FFF764FF06469A
:1048F00001E0002600BF00E00026304670BDB1F5A3
:10490000007F3AD00FDC202928D006DC01291CD0FA
:1049100004291DD0082940D11DE0402921D0B1F53E
:10492000807F3AD126E0B1F5004F31D006DCB1F5F9
:10493000806F25D0B1F5006F2FD124E0B1F5803F15
:1049400012D0B1F5003F28D111E0154A826025E070
:104950000822C26022E01022C2601FE00822026129
:104960001CE01022026119E00822426016E01022C9
:10497000426013E00422426010E0042242600DE035
:10498000042242600AE0002282610422426005E0C3
:10499000002282610422426000E000BF00BF704735
:1049A00001010100016821F00101016000210160A5
:1049B00041608160C160016121214161DB49884220
:1049C00004D13D21D94A103A91608CE0D749183181
:1049D000884205D14FF47461D44A103A916082E064
:1049E000D2493031884205D14FF47411CF4A103A80
:1049F000916078E0CD494831884205D14FF074612B
:104A0000CA4A103A91606EE0C8496031884204D1C8
:104A1000C749C64A103AD16065E0C4497831884236
:104A200004D1C449C14A103AD1605CE0BF49903119
:104A3000884204D1C049BD4A103AD16053E0BB4915
:104A4000A831884205D14FF03D51B84A103AD160A3
:104A500049E0BA49884204D13D21B84A083A116078
:104A600041E0B6491831884205D14FF47461B34A28
:104A7000083A116037E0B1493031884205D14FF42E
:104A80007411AE4A083A11602DE0AC4948318842B1
:104A900005D14FF07461A94A083A116023E0A74993
:104AA0006031884204D1A249A44A121F11601AE061
:104AB000A2497831884204D19E49A04A121F116050
:104AC00011E09E499031884204D19B499B4A121FB4
:104AD000116008E09949A831884204D14FF03D5156
:104AE000964A121F1160704710B500220268944B5D
:104AF0001A40CC680B6823434C6923438C692343D9
:104B0000CC6923430C6A23434C6A23438C6A2343B6
:104B10004C6B23438C6B23431A430260426922F09F
:104B20000702D1E90B3423431A4342610B69436006
:104B30004B6883608B68C36010BD002101604160D9
:104B40008160C160016141618161C1610162416255
:104B50008162C162016341638163704721B1026870
:104B600042F00102026003E0026822F001020260EA
:104B7000704721B1026842F40042026003E002681B
:104B800022F400420260704721B1026842F0200224
:104B9000026003E0026822F0200202607047416078
:104BA00070470146486880B2704722B1036843F4F9
:104BB0000023036003E0036823F400230360016122
:104BC000704721B1026842F48022026003E002686B
:104BD00022F48022026070470AB1016100E0C160E6
:104BE0007047014600200A6802F400220AB1012041
:104BF00000E000207047014600200A6802F0010230
:104C00000AB1012000E000207047014600204A69F7
:104C100002F03800704730B503460A4600200024F1
:104C2000464DAB4202D24149103901E043491039A7
:104C300002F000550DB14C6800E00C68414D2C406D
:104C400004EA02050DB1012000E0002030BD02465B
:104C50003A4B9A4202D23548103801E037481038B2
:104C600001F000531BB1374B0B40C36002E0354BE2
:104C70000B408360704710B501F080034BB122B147
:104C8000436943F08003436103E0436923F08003F9
:104C9000436180290BD02AB1036801F01E0423432D
:104CA000036004E0036801F01E04A343036010BD29
:104CB00070B50246002000240025204EB24202D2E8
:104CC0001A4B103B01E01D4B103B1F4E0E4036B1FE
:104CD0001E2606EAD124166806EA040502E0566993
:104CE00006F0800501F000560EB15C6800E01C681B
:104CF000144E344004EA010616B10DB1012000E063
:104D0000002070BD02460D4B9A4202D2074810386F
:104D100001E00A48103801F000531BB1094B0B4069
:104D2000C36002E0074B0B40836070471060024095
:104D30003D000020400F002000003D201064024094
:104D40003F801CF07D0F7D0F3C0F3C0F10B50446DB
:104D50009848844208D10121084600F086FB0021D2
:104D6000012000F082FB76E09348844208D10121C3
:104D7000022000F07AFB0021022000F076FB6AE0BE
:104D80008E48844208D10121042000F06EFB0021EE
:104D9000042000F06AFB5EE08948844208D10121CA
:104DA000082000F062FB0021082000F05EFB52E0CA
:104DB0008448844208D10121102000F056FB0021D4
:104DC000102000F052FB46E07F48844208D10121C8
:104DD000202000F04AFB0021202000F046FB3AE0B2
:104DE0007A48844208D10121402000F03EFB002196
:104DF000402000F03AFB2EE07548844208D10121A2
:104E0000802000F032FB0021802000F02EFB22E009
:104E10007048844208D10121801500F026FB002152
:104E2000A01500F022FB16E06B48844208D1012156
:104E3000401500F01AFB0021601500F016FB0AE097
:104E40006648844207D10121001500F00EFB0021C5
:104E5000201500F00AFB10BDF0B50A460021002322
:104E6000002400BF3DE0012505FA01F3156805EABD
:104E700003049C4234D105684F000326BE40B5436D
:104E8000056015794E00B540066835430560157913
:104E9000012D02D01579022D16D185684F00032609
:104EA000BE40B543856055794E00B54086683543B0
:104EB0008560456801268E40B54345604568967912
:104EC0008E40B6B235434560C5684F000326BE40EC
:104ED000B543C560D5794E00B540C6683543C56059
:104EE000491C1029BFD3F0BD4FF6FF7101600021AE
:104EF000017141718171C171704708B54FF4803201
:104F00000092009A0A430092009AC261C161009A1D
:104F1000C261C2690092C269009208BD02460020C7
:104F200013690B400BB1012000E0002070470146DF
:104F3000086980B270470246002053690B400BB1EC
:104F4000012000E0002070470146486980B27047A8
:104F500001837047418370470AB1018300E04183B8
:104F600070474161704742694A4042617047F0B5FD
:104F7000002300244D07ED0E02FA05F3CE1000F1D8
:104F8000200555F826504E07F70E0F26BE40B543B4
:104F9000CF1000F1200646F82750CE1000F1200572
:104FA00055F8265045EA0304CE1000F1200545F8D7
:104FB0002640F0BD0000024000040240000802400C
:104FC000000C024000100240001402400018024091
:104FD000001C024000200240002402400028024041
:104FE000F948006840F00100F74908600020F649E0
:104FF00008310860F4480068F4490840F249086044
:10500000F348091D0860F348EF4984310860F0480F
:105010001038091D0860EC48006820F48020EA4937
:1050200008600020E8490C310860E7498C310860CD
:1050300070470021E44A921C1170114608707047B5
:1050400010B501460022002300204A11012A02D196
:10505000DD4C236808E0022A03D1DB4C703423685E
:1050600002E0D94C7434236801F01F0201249440FB
:105070001C400CB1012000E0002010BD38B500201C
:1050800000900024002500BF3120FFF7D9FF05461E
:105090000098401C00900098B0F5A06F01D0002D42
:1050A000F2D03120FFF7CCFF08B1012400E000244A
:1050B000204638BD01460020C34A106820F0F800A1
:1050C00040EAC10010607047C34908607047002182
:1050D000BD4A703211701170012802D004280AD123
:1050E00004E00121B84A7032117005E00521B64A8A
:1050F0007032117000E000BF00BF7047B749086010
:10510000704770B5049C41EA82150126C6EB530630
:1051100045EA0645054345EA0465AB4E361D356054
:1051200070BDAD4908667047820142EA0172A64B24
:1051300084331A607047A8498866704710B58301A8
:1051400043EA016343EA02739F4C8834236010BD35
:10515000A14908677047A049C8647047024600200B
:10516000994B0833186820F0EC6042EA01031843B9
:10517000954B08331860704702460020924B083365
:10518000186820F0784042EA010318438E4B083338
:1051900018607047014600208B4A0832106820F0E2
:1051A000030008431060704787480830006800F02B
:1051B0000C00704701460020834A0832106820F036
:1051C000F000084310607047014600207E4A083214
:1051D000106820F4E050084310607047014600203A
:1051E000794A0832106820F4604040EAC10010603B
:1051F0007047F0B50021002200240225002602237A
:10520000714F08373F6807F00C0121B1042905D020
:10521000082937D105E0724F076036E0714F07600B
:1052200033E0694F3F1D3F68C7F38056664F3F1D0F
:105230003F6807F03F036EB16A4FB7FBF3F7DFF843
:1052400088C10CF1040CDCF800C0CCF3881C07FB0F
:105250000CF40CE0624FB7FBF3F7DFF86CC10CF114
:10526000040CDCF800C0CCF3881C07FB0CF4564F90
:105270003F1D3F68C7F301477F1C7D00B4FBF5F776
:10528000076002E0564F076000BF00BF4E4F08376F
:105290003F6807F0F0010909534F7A5C0768D7406F
:1052A0004760494F08373F6807F4E051890A4E4F7D
:1052B0007A5C4768D7408760434F08373F6807F4F8
:1052C0006041490B484F7A5C4768D740C760F0BDE2
:1052D000002100F44072B2F5407F0AD13A4A083208
:1052E000116821F4F811414A02401143364A08324C
:1052F0001160354A70321268C0F30B031A43324B07
:1053000070331A6070473549443908607047334933
:1053100040390860704736490860704701460020F0
:10532000294A8C32106820F01F004A1E1043264A7A
:105330008C321060704701460020234A8C3210687E
:1053400020F4F8504A1E40EA02201F4A8C321060B6
:105350007047014600201C4A8C32106820F440102F
:1053600008431060704701460020174A8C321068CD
:1053700020F4400008431060704701460020124AA4
:105380008C32106820F4403008431060704719498F
:105390000860704739B10C4A3032126802430A4B38
:1053A00030331A6006E0084A303212688243064BF6
:1053B00030331A607047F9B1034A3432126802433D
:1053C000014B34331A601CE000380240FFFFF6EA5C
:1053D000103000240030002000004742800E474279
:1053E0000024F40000127A0008030020FFFCFF0FE5
:1053F0005C014742E01147428F4A126882438E4B5C
:105400001A60704739B18C4A121D126802438A4BE8
:105410001B1D1A6006E0884A121D12688243864BE3
:105420001B1D1A60704739B1834A0C32126802435F
:10543000814B0C331A6006E07F4A0C3212688243BB
:105440007D4B0C331A60704739B17B4A10321268B9
:105450000243794B10331A6006E0774A1032126823
:105460008243754B10331A60704739B1724A243A3F
:1054700012680243704B243B1A6006E06E4A243ADD
:10548000126882436C4B243B1A60704739B16A4AF8
:10549000203A12680243684B203B1A6006E0664AD5
:1054A000203A12688243644B203B1A60704739B13E
:1054B000614A1C3A126802435F4B1C3B1A6006E0CB
:1054C0005D4A1C3A126882435B4B1C3B1A60704772
:1054D00039B1594A143A12680243574B143B1A60C7
:1054E00006E0554A143A12688243534B143B1A6043
:1054F000704739B1504A103A126802434E4B103B84
:105500001A6006E04C4A103A126882434A4B103B3C
:105510001A60704739B1484A1C3212680243464B40
:105520001C331A6006E0444A1C3212688243424B24
:105530001C331A60704739B13F4A20321268024367
:105540003D4B20331A6006E03B4A2032126882430A
:10555000394B20331A60704739B1374A2432126808
:105560000243354B24331A6006E0334A2432126872
:105570008243314B24331A60704739B12E4A2C32A2
:10558000126802432C4B2C331A6006E02A4A2C3254
:1055900012688243284B2C331A60704739B1264A6F
:1055A000303212680243244B30331A6006E0224A3C
:1055B000303212688243204B30331A607047012822
:1055C00008D11D493C31096841F008011A4A3C32B2
:1055D000116007E018493C31096821F00801164ABA
:1055E0003C321160704739B1134A273A12780243AE
:1055F000114B273B1A7006E00F4A273A1278824374
:105600000D4B273B1A7070470B484030006840F044
:105610008070094940310860704701460020064A01
:10562000283A12680A400AB1012000E000207047C1
:1056300001492639087070473438024010B50446D5
:10564000FE48844208D101210846FFF752FF00219D
:105650000120FFF74EFF9DE0B4F1804F08D10121FA
:105660000846FFF735FF00210120FFF731FF91E0E9
:10567000F348844208D101210220FFF729FF0021CD
:105680000220FFF725FF85E0EE48844208D1012182
:105690000420FFF71DFF00210420FFF719FF79E028
:1056A000E948844208D101210820FFF711FF0021B9
:1056B0000820FFF70DFF6DE0E448844208D1012186
:1056C0001020FFF705FF00211020FFF701FF61E028
:1056D000DF48844208D101212020FFF7F9FE002194
:1056E0002020FFF7F5FE55E0DA48844208D1012179
:1056F0000220FFF7FEFE00210220FFF7FAFE49E03C
:10570000D548844209D101210804FFF7F2FE0021A7
:105710004FF48030FFF7EDFE3CE0D048844209D1E1
:1057200001214804FFF7E5FE00214FF40030FFF7A8
:10573000E0FE2FE0CA48844209D101218804FFF726
:10574000D8FE00214FF48020FFF7D3FE22E0C548A9
:10575000844208D101214020FFF7BAFE00214020F9
:10576000FFF7B6FE16E0C048844208D10121802030
:10577000FFF7AEFE00218020FFF7AAFE0AE0BB483B
:10578000844207D101218015FFF7A2FE0021A01558
:10579000FFF79EFE10BD00220288A84B98420ED053
:1057A000AC4B98420BD0B0F1804F08D0A44B98423C
:1057B00005D0A44B984202D0A34B984204D14FF697
:1057C0008F731A404B881A43A04B984207D0A04BC6
:1057D000984204D04FF6FF431A400B891A430280C7
:1057E0004B68C3620B880385944B984202D0994B57
:1057F000984201D18B7A03860123838270474FF050
:10580000FF31416000210180018141808172704738
:105810000185828270470A46002101884FF68F7306
:10582000194011430180704741627047C16270475F
:105830000146486A70470146088D704721B10288C9
:1058400042F00202028004E002884FF6FD731A4023
:105850000280704721B1028842F00402028004E015
:1058600002884FF6FB731A400280704721B102880C
:1058700042F08002028004E002884FF67F731A40F3
:105880000280704702884FF6F7731A400280028840
:105890000A430280704702884FF6FF431A40028095
:1058A00002880A430280704721B1028842F0010257
:1058B000028004E002884FF6FE731A4002807047AF
:1058C00070B5002400220023058C4FF6FE7635408B
:1058D0000584028C8388048B4FF68F752C40B51E8F
:1058E0002C400D882C43751E2A408D892A434D88F3
:1058F0002A43524DA84202D0564DA84213D14FF62A
:10590000F7752A40CD892A434FF6FB752A408D88CA
:105910002A434FF6FF652B404FF6FF552B400D8A6B
:105920002B434D8A2B43838004838D684563028417
:1059300070BD70B5002400220023058C4FF6EF7671
:1059400035400584028C8388048B48F6FF752C4013
:105950004FF6FF452C400D884FF6FF7606EA0525E9
:105960002C434FF6DF752A408D8906EA05152A4338
:105970004D8806EA05152A43304DA84202D0354D20
:10598000A8421DD14FF67F752A40CD894FF6FF768C
:1059900006EA05152A434FF6BF752A408D8806EAA8
:1059A00005152A434FF6FF352B404FF2FF752B406C
:1059B0000D8A06EA85052B434D8A06EA85052B43A9
:1059C000838004838D688563028470BD70B5002474
:1059D00000220023058C4FF6FF6635400584028CBB
:1059E0008388848B4FF68F752C404FF6FC752C40C6
:1059F0000D882C434FF6FF552A408D894FF6FF76D0
:105A000006EA05252A434D8806EA05252A430B4D5B
:105A1000A84202D00F4DA84238D14FF2FF752A405C
:105A2000CD894FF6FF7606EA05252A434FF6FF3566
:105A30002A408D8806EA05252A4319E00000014026
:105A40000004004000080040000C0040001000402E
:105A500000140040000401400040014000440140A7
:105A60000048014000180040001C00400020004099
:105A70004EF6FF752B404DF6FF752B400D8A06EA5A
:105A800005152B434D8A06EA05152B438380848335
:105A90008D68C563028470BD70B5002200230024A8
:105AA000058C4EF6FF7635400584038C8488828B06
:105AB00048F6FF752A404FF6FF452A400D884FF6FD
:105AC000FF7606EA05252A434DF6FF752B408D89A2
:105AD00006EA05352B434D8806EA05352B43FE4D76
