:020000040800F2
:10000000A83200209D5B0008C5020008C702000856
:10001000CB020008CF020008D30200080000000055
:10002000000000000000000000000000D7020008EF
:10003000D902000800000000DB020008DD02000811
:10004000B75B0008B75B0008B75B0008B75B000848
:10005000B75B0008B75B0008B75B0008B75B000838
:10006000B75B0008B75B0008B75B0008B75B000828
:10007000B75B0008B75B0008B75B0008DD2B000822
:10008000B75B0008B75B0008B75B0008AF22000849
:10009000C5220008B75B0008B75B0008B75B000823
:1000A000B75B0008B75B0008B75B0008B75B0008E8
:1000B000B75B0008B75B0008B75B0008B75B0008D8
:1000C000B75B0008B75B0008B75B0008B75B0008C8
:1000D000B75B0008832500086F2700086D2900081A
:1000E000B75B0008B75B0008B75B0008B75B0008A8
:1000F000B75B0008B75B0008B75B0008B75B000898
:10010000B75B0008B75B0008B75B0008B75B000887
:100110006F2B00086D2E000879310008B75B0008CE
:10012000B75B0008B75B0008B75B0008B75B000867
:10013000B75B0008B75B0008B75B0008FF23000847
:1001400015240008B75B0008B75B0008B75B000820
:10015000B75B0008B75B0008B75B0008C72F000853
:10016000B75B0008B75B0008B75B0008B75B000827
:10017000B75B0008B75B0008B75B0008B75B000817
:10018000B75B0008B75B000800F002F800F03CF82D
:100190000AA090E8000C82448344AAF10107DA45E2
:1001A00001D100F031F8AFF2090EBAE80F0013F0F8
:1001B000010F18BFFB1A43F0010318477C6E0000C3
:1001C0009C6E0000103A24BF78C878C1FAD8520754
:1001D00024BF30C830C144BF04680C6070470000C1
:1001E0000023002400250026103A28BF78C1FBD840
:1001F000520728BF30C148BF0B6070471FB506F0DB
:10020000BEFE1FBD10B510BD05F0A3FD1146FFF7E2
:10021000F5FF00F009F805F0C1FD03B4FFF7F2FFA8
:1002200003BC05F087FD000008B500F061F99FED03
:100230001E1AF0EE000AB0EE080A42F2107343F6FE
:1002400098220321194801F0BAF82CE018480068F8
:10025000184990FBF1F201FB1200F8B91648C06B87
:1002600000EE900AF8EEE00AB0EE600ADFED130A45
:100270000E4800F0ADFE002000900C4890ED0B0AF7
:10028000BDEEC00A10EE100A03B2002211460C485F
:1002900001F01CF900F028FD00F08EFD0448006814
:1002A000401C03490860D1E700000000B00E0020A8
:1002B0000000002020480100D01F00200000C8429C
:1002C00000680040704700BFFEE700BFFEE700BFC8
:1002D000FEE700BFFEE770477047704770470000B9
:1002E0000CB50020019000907648006840F4803002
:1002F0007449086000BF7348006800F40030009043
:100300000198401C0190009818B90198B0F5A06FB1
:10031000F1D16C48006800F4003010B10120009069
:1003200001E0002000900098012846D16548403047
:10033000006840F0805063494031086062480068BE
:1003400040F44040604908605E48083000685D49FC
:10035000083108600846006840F40040086008461C
:10036000006840F4A05008605848091F0860081F42
:10037000006840F08070091F086000BF51480068A5
:1003800000F000700028F9D040F205705049086074
:100390004C480830006820F003004A4908310860E2
:1003A0000846006840F00200086000BF4548083079
:1003B000006800F00C000828F8D10CBD10B54548C5
:1003C000006840F47000434908603E48006840F00F
:1003D00001003C49086000203A490831086039486A
:1003E00000683D490840374908603C48091D0860DD
:1003F000081F006820F48020091F08600020314990
:100400000C310860FFF76CFF4FF000603149803914
:10041000086010BD70B500200022022300240221D4
:10042000284D08352D6805F00C0020B1042806D0B1
:10043000082834D107E02A4D2A4E356033E02A4D92
:10044000284E35602FE01F4D2D1D2D68C5F38054BB
:100450001C4D2D1D2D6805F03F0154B1224DB5FBFB
:10046000F1F5184E361D3668C6F3881605FB06F200
:1004700009E01B4DB5FBF1F5124E361D3668C6F38B
:10048000881605FB06F20F4D2D1D2D68C5F301459D
:100490006D1C6B00B2FBF3F5124E356003E0104D9E
:1004A000104E356000BF00BF064D08352D68C5F3FE
:1004B00003150E4E705D0B4D2D68C540094E35601D
:1004C00070BD000000380240007000400854400732
:1004D000003C024088ED00E0FFFFF6FE10300024F3
:1004E0000024F4000400002000127A00080000201C
:1004F00010B54FF4A06002F021FF144801F0ACFFEA
:100500004FF4E13002F09EF84FF4612002F08BF9D5
:100510004FF4E13002F054FA4FF4E13002F092FB74
:100520004FF4E13002F0C8FC0023032208211046FA
:1005300001F04AFE002303220821104601F0DDFEEF
:1005400002F0E9FD02F036FE10BD0000A0860100B9
:1005500010B540F2F441FE4805F0B7FB0020FC491D
:100560000870487010BD10B52DED088BF948007863
:1005700070B9F94890ED000AF84880ED000AF64895
:1005800090ED010AF64880ED000A0120F14908705B
:10059000F14890ED000AEE4880ED040AEE4890ED37
:1005A000010AEB4880ED030AEE48C07B48B1ED48F4
:1005B00090ED040AF7EE000A30EE200A80ED040AFE
:1005C00004E09FEDE90AE74880ED040AE54890ED74
:1005D000040AF7EE000AB4EEE00AF1EE10FA7CD25B
:1005E0000120E2490870DF48B0F9080000EE100A67
:1005F000B8EEC00ADE48D0ED000AB4EE600AF1EEB3
:1006000010FA79D1D748B0F90A0000EE100AB8EE16
:10061000C00AD848D0ED000AB4EE600AF1EE10FA34
:100620006AD1D049B1F9080006F0BBF941EC1B0BC7
:100630009FEDD10B53EC102B06F006FA41EC1A0B90
:100640009FEDCF1BB0EE4A0AF0EE6A0A05F034FDCA
:10065000B0EE409AF0EE609A9FEDCB0B53EC102B6E
:1006600051EC190B06F0F0F941EC180B05F0F0FE17
:10067000C7490860BB49B1F90A0006F092F941EC9C
:100680001B0B9FEDBD0B53EC102B06F0DDF941EC7D
:100690001A0B9FEDBB1BB0EE4A0AF0EE6A0A05F09A
:1006A0000BFDB0EE409AF0EE609A9FEDB70B53EC65
:1006B000102B51EC190B06F0C7F941EC180B05F0A3
:1006C000C7FEB4490860A74890ED000AB048D0EDD5
:1006D000000A30EE200AB04801E02AE00CE080ED8C
:1006E000000AA04890ED010A0846D0ED000A30EE5D
:1006F000200AAA4880ED000A9A48B0F9080000EEE6
:10070000100AB8EEC00A9A4880ED000A9548B0F980
:100710000A0000EE100AB8EEC00A964880ED000A02
:10072000B7EE000A8A4880ED010AB7EE000A80EDB4
:10073000020A874890ED020AFBEE090AB4EEE00ACD
:10074000F1EE10FA04D8BBEE090A80ED020A0DE0C2
:100750007F4890ED020ADFED920AB4EEE00AF1EE76
:1007600010FA03DB9FED8E0A80ED020A7F480078C5
:1007700058B97B4890ED000A754880ED010A77482A
:1007800090ED000A724880ED020A7348D0ED041A19
:10079000B0EE611A6E48D0ED031AF0EE610AD0EDAA
:1007A000011AB0EE610ADFED701A00F5956100F5EF
:1007B000717000F042FE664880ED090A6648D0ED8F
:1007C000031AB0EE611A6248D0ED041AF0EE610A25
:1007D000D0ED021AB0EE610ADFED631A00F25C415F
:1007E00000F5826000F029FE594880ED0A0ABDEC50
:1007F000088B10BD10B52DED088B5648007870B9E8
:10080000554890ED000A554880ED000A524890ED99
:10081000010A534880ED000A01204E4908704E48F5
:1008200090ED000A4A4880ED040A4B4890ED010A19
:10083000474880ED030A4B48C07B48B1494890EDDA
:10084000040AF7EE000A30EE200A80ED040A04E004
:100850009FED450A434880ED040A424890ED040AA2
:10086000F7EE000AB4EEE00AF1EE10FA6DD20120C4
:100870003E4908703B48B0F9080000EE100AB8EE97
:10088000C00A3B48D0ED000AB4EE600AF1EE10FA5F
:100890005CD13448B0F90A0000EE100AB8EEC00A84
:1008A0003448D0ED000AB4EE600AF1EE10FA4DD1F2
:1008B0002C49B1F9080006F074F841EC1B0B9FEDD0
:1008C0002E0B53EC102B06F0BFF841EC1A0B9FEDEA
:1008D0002C1BB0EE4A0AF0EE6A0A05F0EDFBB0EE12
:1008E000409AF0EE609A9FED280B53EC102B51ECE0
:1008F000190B06F0A9F841EC180B05F0A9FD2449E5
:1009000008601849B1F90A0006F04BF841EC1B0BDE
:100910009FED190B53EC102B06F096F841EC1A0BD7
:100920009FED171BB0EE4A0AF0EE6A0A05F0C4FB11
:10093000B0EE409AF0EE609A9FED130B53EC102B43
:1009400051EC190B06F080F82CE064E046E0000062
:100950009800002030000020781B002018000020A4
:100960001C00002080230020000000003100002037
:10097000280000202C000020000000A02C436C3F29
:10098000000000000000184000000020DCA54C40E2
:100990003400002038000020200000202400002027
:1009A00000000C4241EC180B05F052FDF1490860C3
:1009B000F14890ED000AF148D0ED000A30EE200A2F
:1009C000EF4880ED000AEC4890ED010A0846D0EDB2
:1009D000000A30EE200AEB4880ED000AE648B0F944
:1009E000080000EE100AB8EEC00AE74880ED000AE1
:1009F000E148B0F90A0000EE100AB8EEC00AE34878
:100A000080ED000AB7EE000AE14880ED010AB7EE7A
:100A1000000A80ED020ADE4890ED020AFBEE090AA8
:100A2000B4EEE00AF1EE10FA04D8BBEE090A80ED4C
:100A3000020A0DE0D64890ED020A5FED270AB4EEF7
:100A4000E00AF1EE10FA03DB1FED2B0A80ED020A3B
:100A5000D048007858B9D04890ED000ACC4880EDD5
:100A6000010ACE4890ED000AC94880ED020ACC4840
:100A7000D0ED041AB0EE611AC548D0ED031AF0EEBD
:100A8000610AD0ED011AB0EE610A5FED491A00F576
:100A9000127100F5B27000F0D0FCBD4880ED090A7B
:100AA000BF48D0ED031AB0EE611AB948D0ED041A70
:100AB000F0EE610AD0ED021AB0EE610A5FED561A4F
:100AC00000F5FE7100F5D87000F0B7FCB04880ED7D
:100AD0000A0ABDEC088B10BD10B5B14890ED000AB4
:100AE000AB4880ED040AAE4890ED010AA84880EDBD
:100AF000030AAC48407DE8B39F48807B58B19E48CC
:100B000090ED010AA24880ED020A9B4890ED000A90
:100B10009F4880ED010A984890ED072AF0EE421AAE
:100B20009F4890ED042AB0EE421A994890ED032AAE
:100B3000F0EE420A90ED012AB0EE420A00F55E7135
:100B400000F5257000F079FC914880ED090A944881
:100B5000D0ED031AB0EE611A8D48D0ED041AF0EE14
:100B6000610AD0ED021AB0EE610A5FED811A00F55C
:100B70008C7100E006E0803000F05FFC844880ED7E
:100B80000A0A38E0824890ED0B0A80ED020A90EDE7
:100B90000C0A80ED010A8248D0ED041AB0EE611A09
:100BA0007B48D0ED031AF0EE610AD0ED011AB0EEE9
:100BB000610A5FED931A00F1CC01343000F03DFC86
:100BC000734880ED090A7648D0ED031AB0EE611A39
:100BD0006F48D0ED041AF0EE610AD0ED021AB0EEC3
:100BE000610A5FED9F1A00F58C71803000F025FCE2
:100BF000674880ED0A0A10BD10B52DED028B00206C
:100C0000694908706349087000BF1FEDA90A604870
:100C100080ED020A624890ED000A5D4880ED040A0A
:100C20001FEDAF0A80ED010A604890ED101BB0EE99
:100C3000410AF0EE610A51EC100B05F009FC544931
:100C4000C8605A4890ED101BB0EE410AF0EE610A00
:100C50009FED571B53EC112B51EC100B05F0DEFCF4
:100C600005F070FE04464FF4B47104FB01F000EE91
:100C7000100AB8EEC00A464880ED010A4848D0ED97
:100C8000041AB0EE611A4248D0ED031AF0EE610A80
:100C9000D0ED011AB0EE610A5FEDCD1A00F1CC0182
:100CA000343000F0CAFB3A4880ED090A3C48D0EDE8
:100CB000031AB0EE611A3648D0ED041AF0EE610A5C
:100CC000D0ED021AB0EE610A5FEDD91A00F58C7111
:100CD000803000F0B2FB2E4880ED0A0A03202C4938
:100CE0000870BDEC028B10BD10B5294800780328B0
:100CF00016D003DC38B101281BD10EE00B2812D02E
:100D00000C2816D112E01FEDE80A214880ED090AEF
:100D10001FEDEB0A80ED0A0A0CE0FFF76DFF09E01A
:100D2000FFF7DAFE06E0FFF765FD03E0FFF71BFCC7
:100D300000E000BF00BF164890ED020AFBEE090A72
:100D4000B4EEE00AF1EE10FA04D8BBEE090A80ED29
:100D5000020A0DE00E4890ED020A5FEDEF0AB4EED4
:100D6000E00AF1EE10FA03DB1FEDF30A80ED020A50
:100D700010BD000038000020802300203400002037
:100D80002000002024000020280000202C0000204B
:100D900098000020310000201C00002018000020D6
:100DA000781B0020A423002030000020D01F00204A
:100DB000000000000080764010B52DED088B6148E2
:100DC000807E012804D0022871D0032870D1B1E0C0
:100DD0005D480078012827D05A48B0F90200A0F5F4
:100DE000806000EE100AB8EEC00AF7EE080A20EEA6
:100DF000200ABDEEC00A10EE100A00B253498883E3
:100E00005048B0F90000A0F5806000EE100AB8EE7E
:100E1000C00AF7EE080A20EE200ABDEEC00A10EE66
:100E2000100A01B24948C18347480078032837D1E6
:100E30004449B1F90610A1F5806005F0B2FD41EC1E
:100E40001B0B9FED430B53EC102B05F0FDFD41EC0C
:100E5000190B3D4890ED0B0A10EE101A084606F0EB
:100E60001DF841EC1A0B53EC192B05F023FB41EC58
:100E7000180B05F0EDFA3449C862084690ED0C0AEB
:100E80003048B0F90400A0F5806000EE900AF8EE5A
:100E9000E00A9FED311A00EE810A084680ED0C0A47
:100EA0002848807F28B107202849087604E042E0DE
:100EB00042E003202549087623480078012807D01E
:100EC000214800780C2803D01F4800780B2803D154
:100ED00001201E49087606E01C48007E072802D043
:100EE00003201A49087618480078012809D01548C7
:100EF000807E022805D01448407810B9032012499A
:100F000008701148407828B90F48007810B10120C6
:100F10000D4908700C480078032802D101200F49C0
:100F2000087009480078084948700848007E074959
:100F3000487602E001E000E000BF00BFBDEC088B96
:100F400010BD0000A4230020980000209005002080
:100F5000FCA9F1D24D62803F6F12033CF0230020C8
:100F6000D0ED000AF4EEC00AF1EE10FA01DD80EDDA
:100F7000000AD0ED000AB1EE401AF4EEC10AF1EE1B
:100F800010FA03D2F1EE400AC0ED000A7047036484
:100F9000C263816380ED000AC0ED010A80ED021A90
:100FA000704780ED000AC0ED010A80ED021ADFED06
:100FB000FE1AC0ED081ADFEDFC1AC0ED091ADFEDCC
:100FC000FA1AC0ED0A1ADFEDF81AC0ED0B1A7047D5
:100FD00010B52DED088B0446B0EE408AF0EE608A25
:100FE00084ED048AC4ED038A38EEC80A84ED070A4A
:100FF00094ED0C0AB5EEC00AF1EE10FA27D094ED8C
:101000000C0A10EE101A084605F048FF41EC190BC7
:1010100094ED070A10EE101A084605F03FFF41EC68
:101020001B0BB0EE4B0AF0EE6B0A05F045F9B0EE83
:1010300040AAF0EE60AA53EC192B51EC1A0B05F004
:1010400001FE04D29FEDD80ABDEC088B10BDA06B49
:1010500003283ED194ED000AD4ED070A20EE200AC1
:1010600084ED080A94ED090AD4ED010A94ED071AFB
:1010700000EE810A84ED090A94ED070AD4ED060A10
:1010800030EE600AD4ED020A20EE200A84ED0A0A4E
:10109000D4ED100AF8EE600AB0EE600A04F1240004
:1010A000FFF75EFF94ED080AD4ED090A30EE200A3E
:1010B000D4ED0A0A30EE200A84ED0B0AD4ED0F0AB3
:1010C000F8EE600AB0EE600A04F12C00FFF748FF6A
:1010D00042E0A06B04283FD194ED070AD4ED060A44
:1010E00030EE600AD4ED000A20EE200A84ED080AF2
:1010F00094ED010AD4ED070A20EE200A84ED090AD6
:1011000094ED070AD4ED060AB0EE001A01EE600A6B
:10111000D4ED050A30EE200AD4ED020A20EE200AB2
:1011200084ED0A0A94ED080AD4ED090A30EE200A8B
:10113000D4ED0A0A30EE200AD4ED0B0A30EE200A74
:1011400084ED0B0AD4ED0F0AF8EE600AB0EE600AE7
:1011500004F12C00FFF704FF94ED060A84ED050A64
:1011600094ED070A84ED060A94ED0D0AB5EEC00A67
:10117000F1EE10FA25D094ED0D0A10EE101A084683
:1011800005F08CFE41EC190B94ED0B0A10EE101AD1
:10119000084605F083FE41EC1B0BB0EE4B0AF0EE67
:1011A0006B0A05F089F8B0EE40AAF0EE60AA53ECA5
:1011B000192B51EC1A0B05F00BFC02D29FED7A0AA9
:1011C00042E794ED0B0A3FE710B52DED088B04467E
:1011D000B0EE408AF0EE608A84ED048AC4ED038AA2
:1011E00038EEC80A84ED070A94ED0C0AB5EEC00A81
:1011F000F1EE10FA27D094ED0C0A10EE101A084602
:1012000005F04CFE41EC190B94ED070A10EE101A94
:10121000084605F043FE41EC1B0BB0EE4B0AF0EE26
:101220006B0A05F049F8B0EE40AAF0EE60AA53EC64
:10123000192B51EC1A0B05F005FD04D29FED5A0A4B
:10124000BDEC088B10BDA06B03283ED194ED000AC5
:10125000D4ED070A20EE200A84ED080A94ED090A6D
:10126000D4ED010A94ED071A00EE810A84ED090A13
:1012700094ED070AD4ED060A30EE600AD4ED020AB6
:1012800020EE200A84ED0A0AD4ED100AF8EE600A76
:10129000B0EE600A04F12400FFF762FE94ED080A44
:1012A000D4ED090A30EE200AD4ED0A0A30EE200A05
:1012B00084ED0B0AD4ED0F0AF8EE600AB0EE600A76
:1012C00004F12C00FFF74CFE3EE0A06B04283BD15C
:1012D00094ED070AD4ED060A30EE600AD4ED000A58
:1012E00020EE200A84ED080A94ED010AD4ED070AE5
:1012F00020EE200A84ED090A94ED070AD4ED060ACF
:10130000B0EE001A01EE600AD4ED050A30EE200AB4
:10131000D4ED020A20EE200A84ED0A0A94ED080AB0
:10132000D4ED0A0A30EE200AD4ED0B0A30EE200A82
:1013300084ED0B0AD4ED0F0AF8EE600AB0EE600AF5
:1013400004F12C00FFF70CFE94ED060A84ED050A6B
:1013500094ED070A84ED060A94ED0D0AB5EEC00A75
:10136000F1EE10FA28D094ED0D0A10EE101A08468E
:1013700005F094FD41EC190B94ED0B0A10EE101AD8
:10138000084605F08BFD41EC1B0BB0EE4B0AF0EE6E
:101390006B0A04F091FFB0EE40AAF0EE60AA53ECA5
:1013A000192B51EC1A0B01E00000000005F010FBB6
:1013B00002D21FED030A43E794ED0B0A40E72DE943
:1013C000F0412DED048B04460D4616461F46B0EE47
:1013D000408AF0EE608AB0EE419A29486064B0EE2F
:1013E000491AF0EE680AB0EE480A3B4632462946F2
:1013F0002046D4F844C0E047BDEC048BBDE8F08142
:101400001FED170A80ED080A1FED190A80ED090A81
:101410001FED1B0A80ED0A0A1FED1D0A80ED0B0A65
:101420001FED1F0A80ED050A1FED210A80ED060A57
:101430001FED230A80ED070A704770B52DED068B6E
:1014400005460C46B0EE408AF0EE608AB0EE419A56
:10145000F0EE619AF0EE480AB0EE680A2846FFF70F
:10146000B7FD30EE290AB0EE40AAF0EE4A0AB0EE1F
:10147000490A2046FFF7ACFDBDEC068B70BD0000AD
:101480008F0F0008FB490968491CFA4A116001687E
:10149000A1F2072101B900E000BF00BF704710B5FD
:1014A0000446F5480068401CF34908602068A0F233
:1014B000072040B941F296232246F049EE480068E1
:1014C00000F071FC00E000BF00BF10BD2DE9F0414D
:1014D00086B080460C4615461E460C9F40F2FF1013
:1014E000019000208DF80C008DF80D0008208DF87B
:1014F0000E00200A8DF80F008DF81040290A8DF893
:1015000011108DF81250310A8DF813108DF81460F7
:10151000390A8DF815108DF8167001A9404602F0B1
:101520000FF906B0BDE8F0812DE9F04186B08046A4
:101530000C4615461E460C9F40F2FF2001900020ED
:101540008DF80C008DF80D0008208DF80E00200A93
:101550008DF80F008DF81040290A8DF811108DF8C4
:101560001250310A8DF813108DF81460390A8DF875
:1015700015108DF8167001A9404602F0E1F806B08A
:10158000BDE8F0812DE9F04186B080460C46154655
:101590001E460C9F4FF40070019000208DF80C0047
:1015A0008DF80D0008208DF80E00200A8DF80F0030
:1015B0008DF81040290A8DF811108DF81250310A5B
:1015C0008DF813108DF81460390A8DF815108DF808
:1015D000167001A9404602F0B3F806B0BDE8F081EC
:1015E0002DE9F04186B080460C4615461E460C9FFC
:1015F00040F2FF10019000208DF80C008DF80D00D6
:1016000008208DF80E00200A8DF80F008DF810408C
:10161000290A8DF811108DF81250310A8DF8131027
:101620008DF81460390A8DF815108DF8167001A91F
:10163000404602F085F806B0BDE8F08170B586B08E
:1016400006460C461546019508208DF80E00002030
:101650008DF80C008DF80D008DF80F4000218DF8ED
:1016600010108DF811108DF812108DF813108DF8E0
:1016700014108DF815108DF8161001A9304602F0DF
:101680005FF806B070BD30B52DED068B85B0054610
:10169000B0EE408AF0EE608AB0EE419AF0EE619AC8
:1016A000B0EE42AAF0EE62AA0C46009408208DF833
:1016B0000A0000208DF808008DF8090032208DF80E
:1016C0000B0000218DF80C10BCEEC80A10EE100AB9
:1016D000C1B28DF80D10BCEEE80A10EE100AC1B2CE
:1016E0008DF80E10BCEEC90A10EE100AC1B28DF8CA
:1016F0000F10BCEEE90A10EE100AC1B28DF81010FE
:10170000BCEECA0A10EE100AC1B28DF81110BCEE80
:10171000EA0A10EE100AC1B28DF812106946284686
:1017200002F00EF805B0BDEC068B30BDF0B585B00B
:1017300007460D4614461E46009608208DF80A00FE
:1017400000208DF808008DF80900A4208DF80B000A
:1017500000218DF80C10E9B28DF80D10290A8DF8D2
:101760000E10E1B28DF80F10210A8DF81010210C27
:101770008DF81110210E8DF812106946384601F0CF
:10178000DFFF05B0F0BD70B586B006460C461546C5
:10179000019508208DF80E0000208DF80C008DF8C2
:1017A0000D00A2208DF80F0000218DF810108DF88B
:1017B00011108DF812108DF81340210A8DF81410B5
:1017C000210C8DF81510210E8DF8161001A9304648
:1017D00001F0B6FF06B070BD70B586B006460C4687
:1017E0001546019508208DF80E0000208DF80C009C
:1017F0008DF80D00A1208DF80F0000218DF810103C
:101800008DF811108DF812108DF81340210A8DF803
:10181000141000218DF815108DF8161001A930460E
:1018200001F08EFF06B070BD70B586B006460C465E
:101830001546019500208DF80C008DF80D0008204C
:101840008DF80E0020128DF80F008DF81040002149
:101850008DF811108DF812108DF813108DF81410EA
:101860008DF815108DF8161001A9304601F068FFAB
:1018700006B070BD3C00002040000020D01F0020BA
:1018800030B585B005460C46009400208DF8080060
:1018900002208DF8090006208DF80A0000208DF83E
:1018A0000B0000218DF80C108DF80D108DF80E1026
:1018B0008DF80F108DF810106946284601F040FF92
:1018C00005B030BD10B504464FF4C2612046FFF7A5
:1018D000D7FF40F211612046FFF7D2FF40F21261BC
:1018E0002046FFF7CDFF40F213612046FFF7C8FF07
:1018F00010BD70B505460C464FF4C0620221284663
:10190000FFF792FF04EBC40000EB04104FF6FF72E8
:1019100002EA800140F201622846FFF785FF40F2AB
:10192000026240F6C4112846FFF77EFF40F20362D0
:101930004FF42F712846FFF777FF70BD30B585B0A3
:1019400005460C4644F40070009000208DF8080015
:101950008DF809008DF80A006946284601F0F0FE6E
:1019600005B030BD30B585B005460C4644F4047072
:10197000009000208DF808008DF809008DF80A000D
:101980006946284601F0DCFE05B030BD30B585B0B3
:1019900005460C4600208DF808008DF809008DF8EA
:1019A0000A0044F4806000906946284601F0C8FEB1
:1019B00005B030BD30B585B005460C4644F48260B4
:1019C000009000208DF808008DF809008DF80A00BD
:1019D0006946284601F0B4FE05B030BD30B585B08B
:1019E00005460C4644F4A060009000208DF80800E5
:1019F0008DF809008DF80A006946284601F0A0FE1E
:101A000005B030BD30B585B005460C4644F4A26043
:101A1000009000208DF808008DF809008DF80A006C
:101A20006946284601F08CFE05B030BD30B585B062
:101A300005460C4644F4A460009000208DF8080090
:101A40008DF809008DF80A006946284601F078FEF5
:101A500005B030BDF0B585B006460D46144645F4D8
:101A6000A660009000208DF808008DF80900022083
:101A70008DF80A00E0B28DF80B00210A8DF80C10E9
:101A80006946304601F05CFE07463946304601F0B3
:101A9000EFFE05B0F0BDF0B585B006460D46144624
:101AA00045F4A860009000208DF808008DF809002A
:101AB00002208DF80A00E0B28DF80B00210A8DF8A3
:101AC0000C106946304601F03BFE07463946304669
:101AD00001F0CEFE05B0F0BD2DE9F04186B007461D
:101AE0000D46164645F4AA60019000208DF80C00C2
:101AF0008DF80D0004208DF80E00B0034FF4B47182
:101B0000B0FBF1F4E0B28DF80F00210A8DF810104F
:101B1000210C8DF81110210E8DF8121001A93846F4
:101B200001F00EFE80464146384601F0A1FE06B0A7
:101B3000BDE8F0812DE9F04186B007460D46164616
:101B400045F4AC60019000208DF80C008DF80D007C
:101B500004208DF80E00B0034FF4B471B0FBF1F423
:101B6000E0B28DF80F00210A8DF81010210C8DF8CD
:101B70001110210E8DF8121001A9384601F0E0FD78
:101B800080464146384601F073FE06B0BDE8F0815C
:101B90002DE9F04186B007460C4615461E4644F432
:101BA000AE60019000208DF80C008DF80D00032030
:101BB0008DF80E00F0B28DF80F009DF81000058032
:101BC00001A9384601F0BCFD80464146384601F087
:101BD0004FFE06B0BDE8F0810A7BCB7A42EA0322D1
:101BE000826182698260826942600269521C02617C
:101BF00070472DE9F04104460D4600260027206875
:101C00006060287BE97A40EA0120206020686168F2
:101C1000401AE060E06810F5805F07DAA06B401CB6
:101C2000A063E06800F50050E0610DE0E068B0F509
:101C3000805F07DDA06B401EA063E068A0F5005048
:101C4000E06101E0E068E0612168A06B01EB4030F9
:101C5000A0602068A269801A00EE100AF8EEC00A9F
:101C6000A06B4FF4B472504300EE100AB8EEC00AF5
:101C70009FED5D1A00EE810A10EE101A084605F07D
:101C80000DF941EC100B84ED100BE269207D411C35
:101C9000217504F1200141F82020207D062801D182
:101CA00000202075002605E004F1200050F82600F1
:101CB0000744761C062EF7DB062097FBF0F0E06366
:101CC000A97B687B41EA002000B2A4F84C00BDE883
:101CD000F08170B504460D4620686060287BE97A83
:101CE00040EA0120206020686168401AE060E068F6
:101CF00010F5805F07DAA06B401CA063E06800F578
:101D00000050E0610DE0E068B0F5805F07DDA06B9A
:101D1000401EA063E068A0F50050E06101E0E068CB
:101D2000E0612168A06B01EB4030A0602068A269EF
:101D3000801A00EE100AF8EEC00AA06B4FF4B472DD
:101D4000504300EE100AB8EEC00A9FED281A00EECC
:101D5000810A10EE101A084605F0A0F841EC100BAD
:101D600084ED100BA97B687B41EA0020E063E06B07
:101D7000B0F57A7F04DBE06BA0F57F40FF38E063CD
:101D8000687CA06470BD70B506460C461546322EC0
:101D900004D829462046FFF71FFF03E029462046C6
:101DA000FFF727FF70BD2DE9F04106460C461746A8
:101DB0001D4639462046FFF78CFF642E12D8A069D5
:101DC000A168401A10F57A6F03DA05F50050A0619A
:101DD00008E0A069A168401AB0F57A6F02DDA5F5A8
:101DE0000050A061BDE8F081FFFF333D0000343DAD
:101DF00010B503462BB1087828B901200870521C91
:101E000001E000200870107800EBD0746410A0EBA3
:101E100044040CB9002010BD0120FCE7CB8A03402C
:101E20000BB1012300E000231370704710B5044686
:101E300004F1280221460120FFF7F0FF04F12902F6
:101E400021460420FFF7EAFF04F12A02214602207E
:101E5000FFF7E4FF04F12B0221460820FFF7DEFF25
:101E600004F12C0221461020FFF7D8FF04F12E02C6
:101E700021462020FFF7D2FF04F12F022146402007
:101E8000FFF7CCFF04F1300221468020FFF7C6FFA8
:101E900004F1310221464FF48070FFF7BFFF04F1D7
:101EA000320221464FF40070FFF7B8FF04F133020D
:101EB00021464FF48060FFF7B1FF04F13402214660
:101EC0004FF40060FFF7AAFF04F12D0221464FF402
:101ED0008050FFF7A3FF04F1350221464FF4005074
:101EE000FFF79CFF04F1360221464FF48040FFF7D4
:101EF00095FF04F1370221464FF40040FFF78EFFB3
:101F000094F828008F4A9049FFF772FF382108554E
:101F10002921085D8D4A8E49FFF76AFF392108554E
:101F20002A21085D8B4A8C49FFF762FF3A21085548
:101F30002B21085D894A8A49FFF75AFF3B21085542
:101F40002C21085D874A8849FFF752FF3C2108553C
:101F50002E21085D854A8649FFF74AFF3E21085534
:101F60002F21085D834A8449FFF742FF3F2108552E
:101F70003021085D814A8249FFF73AFF4021085528
:101F80003121085D7F4A8049FFF732FF4121085522
:101F90003221085D7D4A7E49FFF72AFF422108551C
:101FA0003321085D7B4A7C49FFF722FF4321085516
:101FB0003421085D794A7A49FFF71AFF4421085510
:101FC0002D21085D774A7849FFF712FF3D2108551A
:101FD0003521085D754A7649FFF70AFF4521085506
:101FE0003621085D734A7449FFF702FF4621085500
:101FF0003721085D714A7249FFF7FAFE47210855FB
:1020000010BD817AC176017FC27E891A4177C27E76
:102010000277417F01290ED1016A491C0162016AE0
:1020200001EBD1725210A1EB420212B90022827769
:1020300001E001228277417F02290ED1416A491CC9
:102040004162416A01EBD1725210A1EB420212B916
:102050000022C27701E00122C2777047C17A0129CC
:1020600001D1817608E0C17A032901D1817603E0AC
:10207000C17A022900D18176704710B5044604B9AF
:1020800010BD2078617840EA0120C0F30A004D4974
:1020900008806078C010A17840EA4110C0F30A00BF
:1020A00048494880A0788011E17840EA8100217990
:1020B00040EA8120C0F30A0042498880207940101C
:1020C000617940EAC110C0F30A003E49C880207C13
:1020D000617C40EA0120C0F30A003A490881607936
:1020E0000011800888726079C0F30110C872A0796D
:1020F000E17940EA012000B232498881207A617A90
:1021000040EA012001B22F48C181A07AE17A40EA79
:10211000012001B22B480182217B0175617B417551
:10212000A07BE17B40EA01202649C8820846FFF7F0
:1021300095FF2448FFF765FF2248FFF777FE00BFB1
:102140009EE70000450000204400002047000020DA
:102150004600002049000020480000204B000020DD
:102160004A0000204D0000204C0000204F000020BD
:102170004E0000205100002050000020530000209D
:10218000520000205500002054000020570000207D
:102190005600002059000020580000205B0000205D
:1021A0005A0000205D0000205C0000205F0000203D
:1021B0005E0000206100002060000020630000201D
:1021C00062000020A4230020F0B58BB004460D4629
:1021D00016461F460121084602F010FB0121480661
:1021E00002F055FB09220B21964802F0F4F809226F
:1021F0000C21944802F0EFF84FF4C05009900220EF
:102200008DF8280009A98F4802F05AF814208DF89B
:10221000040003208DF8050001208DF806008DF8DC
:10222000070001A801F08FF8874801F0F7F806A829
:1022300001F018FA00208DF81E0001208DF81F0013
:1022400000208DF820008DF821008DF822008DF8F7
:1022500023008DF81A708DF81B008DF81C508DF836
:102260001D40ADF8186006A9774801F0F0F800208D
:102270008DF812008DF8130001208DF81400002055
:10228000ADF80800ADF80A00ADF80C00ADF80E008E
:10229000ADF8100001208DF8150002A801F061F9D9
:1022A00001220221684801F05BFC0BB0F0BD10B5C3
:1022B0000121654801F0BCFC18B10121624801F020
:1022C00052FD10BD00B585B002215F4801F0B0FCA1
:1022D00088B104215C4801F046FD5C495A4801F090
:1022E00084FC6A460021584801F01FFB00BF684685
:1022F000FFF7C8F800BF05B000BDF0B58BB00446CD
:102300000D4616461F460121022002F077FA0121F0
:10231000880602F0BCFA09220C214D4802F05BF855
:1023200009220D214A4802F056F84FF4405002901D
:1023300002208DF80C0002A9454801F0C1FF4020A1
:102340008DF8040003208DF805008DF806000120AB
:102350008DF8070001A800F0F6FF3F208DF804007B
:1023600003208DF805008DF8060001208DF8070088
:1023700001A800F0E8FF374801F050F808A801F084
:1023800071F900208DF8260001208DF8270000202B
:102390008DF828008DF829008DF82A008DF82B0083
:1023A0008DF822008DF823008DF824508DF82540FB
:1023B000ADF8206008A9274801F049F80E208DF8F3
:1023C0001A0000208DF81B0001208DF81C00002051
:1023D000ADF81000ADF81200ADF81400ADF816001D
:1023E000ADF8180001208DF81D0004A801F0B9F81F
:1023F00001220221174801F0B3FB0BB0F0BD10B56C
:102400000121144801F014FC18B10121114801F018
:10241000AAFC10BD00B585B002210E4801F008FCF1
:1024200068B102210B4801F09EFC6A460021094870
:1024300001F07BFA00BF6846FFF731F800BF05B036
:1024400000BD0000000002400064004008000032AF
:10245000000402400068004010B596B00446012117
:10246000022002F0CBF90121880502F0C7F9012111
:10247000102002F01DFA07221146FE4801F0ABFFC2
:1024800014A801F065FF8020149002208DF85400FC
:1024900000208DF8550001208DF8570014A9F5484B
:1024A00001F00EFFF44803F04FF910A803F019FAF9
:1024B00010940020ADF84400ADF846004FF4806061
:1024C000ADF848000420ADF84A000020ADF84C00FB
:1024D00010A9E94803F09FF901224021E64803F0E2
:1024E000CFFAE64801F092FC684601F05AFD4FF041
:1024F00000600090E048001D0190E148029000203B
:10250000039040200490002005904FF480600690D6
:102510000020079008904FF48070099000020A9004
:1025200000200B900C900D900E906946D34801F05E
:102530000FFD0022D2494031D04801F06AFD01214F
:10254000CE4801F072FD0121CC4801F03BFD252071
:102550008DF83C0000208DF83D008DF83E000120F4
:102560008DF83F000FA800F0EEFE012240F224415A
:10257000C14803F08EFA0121BF4803F0D4F916B028
:1025800010BD10B540F22441BB4803F0BDFA00284D
:1025900057D0B9480088B8488088B84801F055FD40
:1025A00040BB0021B54801F00DFDB649B34801F02C
:1025B00082FDB24801F029FDC0F14000B249086037
:1025C0004020AE49091D0860081F006840F4002043
:1025D000091F08600121A94801F0F4FCAA4800681D
:1025E00012282ED1A648FFF748FD00BFA448FFF7E8
:1025F00044FD26E00021A14801F0E4FCA1499F48E8
:1026000001F059FD9D4801F000FDC0F140009E49D8
:10261000086040209949091D0860081F006820F4DF
:102620000020091F08600121944801F0CBFC964866
:102630000068122805D100BF91484030FFF71DFD0A
:1026400000BF10BD10B596B004460121084602F047
:10265000D5F80121480502F0D1F80121480402F023
:1026600016F907220221894801F0B5FE14A801F0ED
:102670006FFE0420149002208DF8540000208DF885
:10268000550001208DF8570014A9804801F018FE6C
:102690007F4803F059F810A803F023F910940020A4
:1026A000ADF84400ADF846004FF48060ADF8480046
:1026B0000420ADF84A000020ADF84C0010A9744881
:1026C00003F0A9F8012240216B4803F0D9F97148C1
:1026D00001F09CFB684601F064FC4FF00060009044
:1026E0006B48001D01906C4802900020039064200C
:1026F0000490002005904FF4806006900020079021
:1027000008904FF48070099000020A9000200B900E
:102710000C900D900E9069465E4801F019FC002265
:102720005D4964315B4801F074FC0121594801F0B6
:102730007CFC0121574801F045FC26208DF83C0027
:1027400000208DF83D008DF83E0001208DF83F00FF
:102750000FA800F0F8FD012240F224414C4803F09C
:1027600098F901214A4803F0DEF816B010BD10B503
:1027700040F22441464803F0C7F9002852D04448AB
:1027800000884348001D00883C4801F05EFC20BBE7
:102790000021404801F016FC40493E4801F08BFC06
:1027A0003C4801F032FCC0F164003D4908606420FF
:1027B0003849091D086037488838D0F8880040F447
:1027C0000020091F08600121324801F0FBFB34485A
:1027D0000068122826D100BF24E000212D4801F016
:1027E000F1FB2E492B4801F066FC2A4801F00DFC54
:1027F000C0F164002A49086064202649091D086068
:1028000024488838D0F8880020F40020091F086088
:102810000121204801F0D6FB21480068122801D18F
:1028200000BF00BF10BD10B596B0044601210220C4
:1028300001F0E4FF0121880402F029F80121480594
:1028400001F0DCFF07220A210A4801F0C4FD07223B
:102850000B21084801F0BFFD02208DF84400032041
:102860008DF8450000208DF8460001208DF84700C6
:10287000800217E000040240001001404064024062
:1028800058240020000030106C000020000002409E
:10289000004400408860024018250020000C002001
:1028A00070000020109010A9FE4801F009FD4FF4BF
:1028B0000060109010A9FB4801F002FD27208DF860
:1028C000000002208DF8010001208DF802008DF833
:1028D0000300684600F037FD12940020ADF84C006C
:1028E000ADF84E00ADF85000ADF854000C20ADF836
:1028F000520012A9EC4802F08EFF012240F224415E
:10290000E94803F0C6F85021E74803F0F4F86420E2
:10291000059000200C900D900E9009904FF480606F
:10292000079080100A90E048001D029000200F9050
:10293000089006904FF400300B9080020190002028
:102940000490DA48039001A9D94801F001FB012164
:10295000D74801F037FB01224021D34803F090F81B
:102960000121D14802F0DFFF16B010BD10B540F2D2
:102970002441CD4803F0C8F808B3CB4803F002F86F
:1029800040F22441C84803F0FAF80021C84801F099
:1029900019FB00224021C44803F072F84C22C349BD
:1029A000891DC44803F01AF900BF00BF012240216D
:1029B000BD4803F065F80121BD4801F003FB10BDDF
:1029C00010B596B004460121042001F017FF012143
:1029D000C80401F05CFF08220A21B74801F0FBFCA3
:1029E00008220B21B44801F0F6FC0121480501F052
:1029F00005FF4FF44060109002208DF84400002045
:102A00008DF8460003208DF8450001208DF8470021
:102A100010A9A94801F054FC12940020ADF84C0014
:102A2000ADF84E00ADF850000C20ADF8520000207B
:102A3000ADF8540012A9A14802F0EDFE0122402198
:102A40009E4803F01DF89A48183001F0DFF96846F7
:102A500001F0A7FA4FF0006000909848001D019027
:102A60009748029000200390642004900020059075
:102A70004FF48060069000200790089009904FF472
:102A800080300A9000200B900C900D900E906946BB
:102A90008748183001F05CFA01218548183001F0B0
:102AA00091FA34208DF83C0003208DF83D008DF81C
:102AB0003E0001208DF83F000FA800F044FC0122E9
:102AC00080217E4802F0DCFF00217948483001F087
:102AD00079FA7748483001F099F900BF74484830D6
:102AE00001F0BDFA0028F9D14FF000600090734862
:102AF000001D019073480290402003900020049034
:102B000005904FF48060069000200790089009908F
:102B10004FF480300A9000200B9003200C9000208E
:102B20000D900E9069466248483001F011FA0F206E
:102B30008DF83C0003208DF83D008DF83E0001200B
:102B40008DF83F000FA800F0FEFB0122102158482D
:102B5000483001F0C4FA012240F22441574802F003
:102B600098FF0121554802F0DEFE16B010BD10B5E9
:102B7000002440F22441514802F0C6FF08B34F48F8
:102B800000884E48001D008800214948183001F097
:102B900019FA4D494648183001F08DFA444818306A
:102BA00001F033FAC0F16400C4B200BF00BF642179
:102BB0003F48183001F027FA01213D48183001F054
:102BC00001FA10BD70B504460D462946204601F0B5
:102BD0001AFA0121204601F0F5F970BD10B53B4904
:102BE0003348483001F04BFA48B1002130484830B2
:102BF00001F0E8F935492E48483001F05CFA10BD83
:102C000070B5044600252F4D05F8014B01212848D9
:102C10004830FFF7D7FF70BD2DE9F04105460E465D
:102C200000240027274F00BF03E0285D3855601CB3
:102C300084B2B442F9DB31461D484830FFF7C2FF89
:102C4000BDE8F08110B596B004460121042001F0E2
:102C5000D5FD0121082001F0D1FD0121080501F079
:102C600016FE0121480501F0C9FD02208DF854002F
:102C700000208DF856004FF48050149001208DF8FC
:102C8000570003208DF8550014A90B4801F018FBDC
:102C900002208DF8540000208DF856000420149076
:102CA000012015E0000402400048004044260020B6
:102CB00028600240A826002000080240004C004086
:102CC000F4260020582700200000301020000020AB
:102CD0008DF8570003208DF8550014A9E64801F03F
:102CE000EFFA08220C21E54801F075FB08220221C9
:102CF000E14801F070FB10940020ADF84C000C206E
:102D0000ADF84A000020ADF84800ADF84600ADF837
:102D1000440010A9DA4802F07EFD0121D84802F0F3
:102D200002FE01224021D64802F0AAFE684601F0C8
:102D300038F9D4480290642004904FF0006000906D
:102D4000CF48001D01900020039005904FF4806053
:102D5000069000200890079009904FF480300A9068
:102D600000200B900C900D900E906946C64801F023
:102D7000EFF80121C44801F025F935208DF83C0019
:102D800001208DF83F008DF83D0002208DF83E00B7
:102D90000FA800F0D8FA012240F22441B84802F00E
:102DA00078FE0121B64802F0BEFD01228021B44820
:102DB00002F066FE0021B448A83001F003F9B248E1
:102DC000A83001F023F800BFAF48A83001F047F960
:102DD0000028F9D14FF000600090A948001D019033
:102DE000AA480290402003904220049000200590C1
:102DF0004FF48060069000200790089009900A9098
:102E00000B9003200C9000200D900E9069469E4878
:102E1000A83001F09DF801219B48A83001F0D2F8BC
:102E20002F208DF83C0002208DF83D0001208DF808
:102E30003E008DF83F000FA800F085FA16B010BDD7
:102E400070B504460D460021204601F0BBF800BFD6
:102E5000204601F004F90028FAD12946204601F065
:102E6000D2F80121204601F0ADF870BD10B540F256
:102E70002441834802F048FEE8B181480088804838
:102E800080880021804801F09DF881497E4801F04A
:102E900012F97D4801F0B9F8C0F500707D4908606D
:102EA0004FF40071784801F0AEF80121764801F046
:102EB00089F800BF00BF10BD10B596B004460121CF
:102EC000042001F09BFC0121880501F097FC012101
:102ED000202001F0EDFC08220621684801F07BFA71
:102EE00008220721654801F076FAC02010900220E0
:102EF0008DF8440000208DF8460002208DF8450032
:102F000000208DF8470010A95C4801F0D9F962480B
:102F100002F01AFC12940020ADF84C00ADF84E00FF
:102F2000ADF850000C20ADF852000020ADF8540070
:102F300012A9594802F06FFC01224021564802F0C4
:102F40009FFD564800F062FF4FF02060009052480D
:102F5000001D0190524802900020039064200490CC
:102F6000002005904FF480600690002007900890A4
:102F700009904FF480300A9000200B900C900D9037
:102F80000E906946454800F0E3FF0121434801F0F7
:102F900019F847208DF83C0003208DF83D008DF88E
:102FA0003E0001208DF83F000FA800F0CCF901226F
:102FB00040F22441384802F06CFD0121364802F00D
:102FC000B2FC16B010BD10B540F22441324802F0F8
:102FD0009BFD00284ED0304800882F48001D0088F7
:102FE0002E4801F032F810BB00212C4800F0EAFF17
:102FF0002C492A4801F05FF8284801F006F8C0F192
:1030000064002949086064202449091D0860081FDC
:10301000006840F40020091F086001211F4800F0EB
:10302000D1FF21480068122824D100BF22E00021EE
:103030001A4800F0C7FF1B49184801F03CF8174830
:1030400000F0E3FFC0F164001749086064201349F1
:10305000091D0860081F006820F40020091F08608F
:1030600001210E4800F0AEFF0F480068122801D180
:1030700000BF00BF10BD0000000C0240000802406D
:1030800000500040542A002010600240B029002067
:103090003000001074000020001401402864024039
:1030A000E42B0020000C0010780000201FB5012147
:1030B000022001F0ECFB1D208DF8000000208DF8AF
:1030C000010002208DF8020001208DF803006846FF
:1030D00000F039F94FF0FF300290A720ADF804005E
:1030E0000020ADF80C00ADF8060001212D4801F0DC
:1030F000F1FD01A92C4801F082FD0121294801F0D0
:1031000007FE01221146274802F01AFA012125483C
:1031100002F02AFA1FBD1FB50121102001F0B7FBF4
:1031200036208DF8000003208DF8010002208DF874
:10313000020001208DF80300684600F004F95320D6
:10314000ADF804000020ADF80600ADF80C0040F228
:10315000E730029001A9154801F051FD0121134803
:1031600001F0D6FD01221146104802F0E9F90121D3
:103170000E4802F0F9F91FBD10B501210B4802F00D
:10318000F6F970B10121094802F002FA012107485D
:1031900002F0EAF900BF06480068401C04490860D4
:1031A00000BF10BD000400400008004000100040B7
:1031B0007C00002000B58BB00121042001F01EFB33
:1031C0000121022001F063FB4FF4407009900220BE
:1031D0008DF8280003208DF8290000208DF82A00A2
:1031E00001208DF82B0009A9504801F069F802224E
:1031F00008214E4801F0EFF8022209214B4801F066
:10320000EAF840F2E730ADF818000020ADF81A00F7
:1032100040F28F6007900020ADF8200006A94448D6
:1032200001F0EDFC7020ADF804000120ADF80600BF
:103230000020ADF808004FF47A7003900220ADF83A
:1032400010000020ADF81200ADF814004FF48070AB
:10325000ADF8160001A9364801F0ECFD082134480C
:1032600001F005FF01A9324801F04AFE082130486B
:1032700001F006FF01212E4801F02CFD01212C4810
:1032800001F046FD55202A49403108600BB000BDD1
:103290002848006820B1012806D002280CD107E098
:1032A0000020254908600BE001202349086007E061
:1032B00002202149086003E000201E49086000BF89
:1032C00000BF1D480068012804D18C2018494031F6
:1032D000086007E018480068022803D15520144907
:1032E000403108601248403000688C2804D21048F1
:1032F00040300068552804D800200F4908600D4967
:1033000008600B4840300068552804D8552008490B
:103310004031086008E00648403000688C2803D33C
:103320008C200349403108607047000000080240CB
:103330000004004084000020800000203249014346
:10334000324A1160704770B5002100230F22C47803
:103350001CB32E4C246804F4E064C4F5E064C4F3A8
:103360000721C1F10404E3B20A4144789C40E1B270
:103370008478144021430C07210E254C05786155B3
:10338000047804F01F050124AC4005786D11AD00F0
:1033900005F1E025C5F8004109E0047804F01F05B7
:1033A0000124AC401B4D0678761145F8264070BDCF
:1033B000194A0A400243154B1B1F1A60704739B166
:1033C000124A121D12680243104B1B1D1A6006E0C0
:1033D0000E4A121D126882430C4B1B1D1A60704767
:1033E000042808D14FF0E021096941F004014FF0B1
:1033F000E022116107E04FF0E021096921F00401AA
:103400004FF0E022116170470000FA050CED00E07A
:1034100000E400E080E100E080FFFF1F10B50446FB
:10342000FE48844209D10121480601F085FA0021B5
:103430004FF0007001F080FA08E00121880601F0E9
:103440007BFA00214FF0806001F076FA10BD30B5B4
:10345000024600200023146824F00204146014685B
:1034600044F00104146000E05B1C546804F00104A3
:103470001CB94FF6FF74A342F6D1546804F001045E
:103480000CB900206CE08C79012C04D1146844F054
:103490008004146003E0146824F080041460CC7984
:1034A000012C04D1146844F04004146003E0146853
:1034B00024F0400414600C7A012C04D1146844F008
:1034C0002004146003E0146824F0200414604C7A93
:1034D000012C04D1146844F01004146003E0146853
:1034E00024F0100414608C7A012C04D1146844F088
:1034F0000804146003E0146824F008041460CC7A13
:10350000012C04D1146844F00404146003E014682E
:1035100024F0040414608C78A407CD7844EA056490
:103520000D7944EA05444D7944EA05540D886D1E31
:103530002C43D461146824F001041460002300E0DB
:103540005B1C546804F001041CB14FF6FF74A342E5
:10355000F6D1546804F001040CB1002000E0012011
:1035600030BD10B50021837A012202FA03F1AC4A82
:10357000126842F00102AA4B1A60A94A1C32126872
:103580008A43A74B1C331A60027BCAB9A44A0C3287
:1035900012688A43A24B0C331A604288C38842EAFD
:1035A00003439F4A4032847A42F834300288838849
:1035B00042EA03439A4A4032847A02EBC4025360DF
:1035C000027B012A19D1964A0C3212680A43944BA5
:1035D0000C331A604288038842EA0343904A40321F
:1035E000847A42F83430C288838842EA03438C4AA2
:1035F0004032847A02EBC4025360C27A3AB9884AF4
:10360000121D12688A43864B1B1D1A6006E0844A0D
:10361000121D12680A43824B1B1D1A60028932B9BF
:103620007F4A143212688A437D4B14331A60028930
:10363000012A06D17A4A143212680A43784B1433AD
:103640001A60427B012A06D1754A1C3212680A436D
:10365000734B1C331A60724A126822F00102704BDD
:103660001A6010BD00218171C171017241728172B5
:10367000C1728170C1700321017102214171012168
:10368000018070476649096841F00101644A116090
:103690001146096843F60E729143614A1160114662
:1036A000096841EA002111601146096821F0010111
:1036B0001160704721B1026842F48032026003E079
:1036C000026822F4803202607047E1B1026842F081
:1036D000800202604FF4C272125842F480734FF4B9
:1036E000C27213504FF4CA72125842F480734FF4EE
:1036F000CA7213504FF4D272125842F480734FF4CE
:10370000D27213501BE0026822F0800202604FF474
:10371000C272125822F480734FF4C27213504FF4E5
:10372000CA72125822F480734FF4CA7213504FF4C5
:10373000D272125822F480734FF4D2721350704731
:1037400010B502460020936803F08063B3F1806FE8
:1037500000D110E0936803F00063B3F1006F01D172
:10376000012008E0936803F08053B3F1805F01D13A
:10377000022000E00420042879D002F5C07303EB96
:1037800000131B6803F0010402F5C07303EB001380
:103790001C600B7A7BB94B7A0C8843EA445302F5E0
:1037A000C07404EB00142468234302F5C07404EBD6
:1037B0000014236010E00B7A4C6843EAC4034C7A8F
:1037C000234302F5C07404EB00142468234302F57C
:1037D000C07404EB001423608B7A03F00F038B7228
:1037E00002F5C07303EB00135B6823F00F0402F5CE
:1037F000C07303EB00135C6002F5C07303EB0013AE
:103800005B688C7A234302F5C07404EB0014636098
:103810008B7B1C064B7B44EA034403E000640040BE
:10382000006600400B7B44EA0323CC7A234302F575
:10383000C07404EB0014A3608B7C1C064B7C44EA30
:1038400003440B7C44EA0323CC7B234302F5C0747E
:1038500004EB0014E36002F5C07303EB00131B6874
:1038600043F0010402F5C07303EB00131C6010BDAC
:1038700010B50246002321B1012907D002290FD13A
:1038800009E09068F94C00EA04030BE09068F84CFA
:1038900000EA040306E09068F64C00EA040301E045
:1038A000002300BF00BFF44C181BA34216D007DC56
:1038B00083B16FF08060184470B1022818D111E014
:1038C000B0F5007F10D0ED4C204448B1B0F5003F7A
:1038D0000ED10BE002230DE000230BE0002309E0F2
:1038E000002307E0012305E0012303E0012301E0B9
:1038F000002300BF00BFD8B210BD21B1012907D0FD
:1039000002290FD109E0826842F0800282600AE059
:10391000826842F40042826005E0826842F400025C
:10392000826000E000BF00BF704710B500F5D8739B
:1039300003EB01131B6803F004031372137A53B9EA
:1039400000F5D87303EB01131B6840F2FF7404EA1F
:103950005353136009E000F5D87303EB01131B68A0
:103960006FF0604404EAD303536000F5D87303EBAF
:1039700001131B6803F00203537200F5D87303EBC5
:1039800001135B6803F00F03937200F5D87303EB28
:1039900001135B681B0AD37400F5D87303EB0113A2
:1039A0009B68D37200F5D87303EB01139B681C0A64
:1039B000147300F5D87303EB01139B681C0C54734C
:1039C00000F5D87303EB01139B681B0E937300F58E
:1039D000D87303EB0113DB68D37300F5D87303EBE3
:1039E0000113DB681C0A147400F5D87303EB011390
:1039F000DB681C0C547400F5D87303EB0113DB680F
:103A00001B0E937421B9C36843F02003C36003E025
:103A1000036943F02003036110BD21B9C26842F07D
:103A20002002C26003E0026942F020020261704796
:103A30000246002019B9D36803F0030006E001290B
:103A400003D1136903F0030000E00020704710B5B4
:103A500002460B4600204FF6FF71BBB9146824F0F4
:103A6000020444F00104146000E0491E546804F0AC
:103A70000304012C01D00029F7D1546804F0030499
:103A8000012C01D0002032E0012030E0012B13D1C5
:103A9000146824F00304146000E0491E546804F024
:103AA00003040CB10029F8D1546804F003040CB1EC
:103AB00000201CE001201AE0022B17D1146824F02A
:103AC000010444F00204146000E0491E546804F04C
:103AD0000304022C01D00029F7D1546804F0030438
:103AE000022C01D0002002E0012000E0002010BDE7
:103AF000014600200A6822F0010242F002020A6038
:103B00004A6802F00302022A00D1012070470146F0
:103B10004FF6FF7200200B6823F002030B6000E0F9
:103B2000521E4B6803F00203022B01D1002AF7D189
:103B30004B6803F00203022B00D0012070470146BE
:103B400000208A6902F070007047014600208A69EF
:103B5000100E7047014600208A69C2F30740704783
:103B60001AB143690B43436102E043698B434361EC
:103B7000704710B50246002001F4700343B1936909
:103B8000C1F3130423400BB101202DE000202BE0F2
:103B900001F0807343B15368C1F3130423400BB1A8
:103BA000012021E000201FE001F0006343B1936891
:103BB000C1F3130423400BB1012015E0002013E0F2
:103BC00001F0007343B1D368C1F3130423400BB178
:103BD000012009E0002007E01369C1F3130423402A
:103BE0000BB1012000E0002010BD0022244B9942BF
:103BF00002D10023836111E0C1F3130201F00073CD
:103C00000BB1C2600AE001F080630BB1026105E014
:103C100001F000630BB1826000E042607047024631
:103C2000002002EA01030BB1012000E000207047F0
:103C300070B504460D46002660692840002872D001
:103C4000B5F5807F69D01DDC082D42D006DC012D42
:103C50002DD0022D31D0042D7FD134E0102D3ED057
:103C6000202D42D0402D78D145E000000300000413
:103C70000003000800000310000100080001FFF726
:103C80007000F030B5F5004F61D009DCB5F5007F6C
:103C90004AD0B5F5806F4DD0B5F5006F5DD150E0DD
:103CA000B5F5803F2DD0B5F5003F56D12FE0A06887
:103CB0005549FFF7B4FF064651E0E0680321FFF7DE
:103CC000AEFF06464BE0E0680821FFF7A8FF064676
:103CD00045E0E0681021FFF7A2FF06463FE02069BB
:103CE0000321FFF79CFF064639E020690821FFF712
:103CF00096FF064633E020691021FFF790FF064645
:103D00002DE060680821FFF78AFF064627E060681B
:103D10001021FFF784FF064621E0A0690121FFF78B
:103D20007EFF06461BE01BE0A0690221FFF777FF3C
:103D3000064614E0A0690421FFF771FF06460EE075
:103D40000BE0A0697021FFF76AFF064607E0606894
:103D50000421FFF764FF064601E0002600BF00E0F3
:103D60000026304670BDB1F5007F3AD00FDC202927
:103D700028D006DC01291CD004291DD0082940D1F7
:103D80001DE0402921D0B1F5807F3AD126E0B1F580
:103D9000004F31D006DCB1F5806F25D0B1F5006F52
:103DA0002FD124E0B1F5803F12D0B1F5003F28D1EA
:103DB00011E0154A826025E00822C26022E010224C
:103DC000C2601FE0082202611CE01022026119E0BB
:103DD0000822426016E01022426013E00422426092
:103DE00010E0042242600DE0042242600AE000225A
:103DF00082610422426005E0002282610422426066
:103E000000E000BF00BF704701010100016821F020
:103E1000010101600021016041608160C1600161B8
:103E200021214161DB49884204D13D21D94A103A20
:103E300091608CE0D7491831884205D14FF4746104
:103E4000D44A103A916082E0D2493031884205D19B
:103E50004FF47411CF4A103A916078E0CD4948315F
:103E6000884205D14FF07461CA4A103A91606EE001
:103E7000C8496031884204D1C749C64A103AD16066
:103E800065E0C4497831884204D1C449C14A103A36
:103E9000D1605CE0BF499031884204D1C049BD4A3D
:103EA000103AD16053E0BB49A831884205D14FF0A8
:103EB0003D51B84A103AD16049E0BA49884204D12C
:103EC0003D21B84A083A116041E0B64918318842AC
:103ED00005D14FF47461B34A083A116037E0B14933
:103EE0003031884205D14FF47411AE4A083A11605E
:103EF0002DE0AC494831884205D14FF07461A94AA0
:103F0000083A116023E0A7496031884204D1A249F0
:103F1000A44A121F11601AE0A2497831884204D1E4
:103F20009E49A04A121F116011E09E4990318842BB
:103F300004D19B499B4A121F116008E09949A8319E
:103F4000884204D14FF03D51964A121F11607047CC
:103F500010B500220268944B1A40CC680B682343CA
:103F60004C6923438C692343CC6923430C6A234364
:103F70004C6A23438C6A23434C6B23438C6B23434F
:103F80001A430260426922F00702D1E90B3423434D
:103F90001A4342610B6943604B6883608B68C3605E
:103FA00010BD0021016041608160C160016141611B
:103FB0008161C161016241628162C16201634163E9
:103FC0008163704721B1026842F00102026003E0A0
:103FD000026822F001020260704721B1026842F4D7
:103FE0000042026003E0026822F40042026070476F
:103FF00021B1026842F02002026003E0026822F070
:10400000200202607047416070470146486880B2F4
:10401000704722B1036843F40023036003E00368A0
:1040200023F4002303600161704721B1026842F468
:104030008022026003E0026822F48022026070475E
:104040000AB1016100E0C1607047014600200A68C2
:1040500002F400220AB1012000E00020704701466E
:1040600000200A6802F001020AB1012000E00020ED
:104070007047014600204A6902F03800704730B5A9
:1040800003460A4600200024464DAB4202D2414975
:10409000103901E04349103902F000550DB14C6868
:1040A00000E00C68414D2C4004EA02050DB10120EE
:1040B00000E0002030BD02463A4B9A4202D2354819
:1040C000103801E03748103801F000531BB1374B6E
:1040D0000B40C36002E0354B0B408360704710B566
:1040E00001F080034BB122B1436943F08003436187
:1040F00003E0436923F08003436180290BD02AB198
:10410000036801F01E042343036004E0036801F028
:104110001E04A343036010BD70B5024600200024B6
:104120000025204EB24202D21A4B103B01E01D4B3B
:10413000103B1F4E0E4036B11E2606EAD1241668EB
:1041400006EA040502E0566906F0800501F0005613
:104150000EB15C6800E01C68144E344004EA0106AD
:1041600016B10DB1012000E0002070BD02460D4BDC
:104170009A4202D20748103801E00A48103801F08C
:1041800000531BB1094B0B40C36002E0074B0B40CF
:1041900083607047106002403D000020400F002007
:1041A00000003D20106402403F801CF07D0F7D0F19
:1041B0003C0F3C0F10B504469848844208D10121B9
:1041C000084600F086FB0021012000F082FB76E02B
:1041D0009348844208D10121022000F07AFB00219B
:1041E000022000F076FB6AE08E48844208D101216B
:1041F000042000F06EFB0021042000F06AFB5EE06A
:104200008948844208D10121082000F062FB002186
:10421000082000F05EFB52E08448844208D101216E
:10422000102000F056FB0021102000F052FB46E069
:104230007F48844208D10121202000F04AFB002160
:10424000202000F046FB3AE07A48844208D1012160
:10425000402000F03EFB0021402000F03AFB2EE021
:104260007548844208D10121802000F032FB0021F2
:10427000802000F02EFB22E07048844208D101210A
:10428000801500F026FB0021A01500F022FB16E0AF
:104290006B48844208D10121401500F01AFB00212F
:1042A000601500F016FB0AE06648844207D1012140
:1042B000001500F00EFB0021201500F00AFB10BDD8
:1042C000F0B50A4600210023002400BF3DE001258F
:1042D00005FA01F3156805EA03049C4234D1056828
:1042E0004F000326BE40B543056015794E00B5402A
:1042F0000668354305601579012D02D01579022D28
:1043000016D185684F000326BE40B54385605579B8
:104310004E00B540866835438560456801268E406D
:10432000B5434560456896798E40B6B235434560E1
:10433000C5684F000326BE40B543C560D5794E0021
:10434000B540C6683543C560491C1029BFD3F0BDD0
:104350004FF6FF7101600021017141718171C171DE
:10436000704708B54FF480320092009A0A430092D9
:10437000009AC261C161009AC261C2690092C269B9
:10438000009208BD0246002013690B400BB10120CA
:1043900000E0002070470146086980B2704702467D
:1043A000002053690B400BB1012000E00020704752
:1043B0000146486980B27047018370474183704766
:1043C0000AB1018300E0418370474161704742694F
:1043D0004A4042617047F0B5002300244D07ED0EBE
:1043E00002FA05F3CE1000F1200555F826504E07CD
:1043F000F70E0F26BE40B543CF1000F1200646F859
:104400002750CE1000F1200555F8265045EA030448
:10441000CE1000F1200545F82640F0BD0000024016
:104420000004024000080240000C0240001002405C
:104430000014024000180240001C0240002002400C
:104440000024024000280240F948006840F00100C2
:10445000F74908600020F64908310860F448006810
:10446000F4490840F2490860F348091D0860F34820
:10447000EF4984310860F0481038091D0860EC48A5
:10448000006820F48020EA4908600020E8490C31E7
:104490000860E7498C31086070470021E44A921CAB
:1044A000117011460870704710B5014600220023B4
:1044B00000204A11012A02D1DD4C236808E0022ABB
:1044C00003D1DB4C7034236802E0D94C7434236888
:1044D00001F01F02012494401C400CB1012000E0B7
:1044E000002010BD38B5002000900024002500BF3A
:1044F0003120FFF7D9FF05460098401C0090009836
:10450000B0F5A06F01D0002DF2D03120FFF7CCFF25
:1045100008B1012400E00024204638BD01460020F7
:10452000C34A106820F0F80040EAC10010607047EC
:10453000C349086070470021BD4A70321170117084
:10454000012802D004280AD104E00121B84A7032BF
:10455000117005E00521B64A7032117000E000BF0D
:1045600000BF7047B7490860704770B5049C41EAC6
:1045700082150126C6EB530645EA0645054345EA82
:104580000465AB4E361D356070BDAD490866704799
:10459000820142EA0172A64B84331A607047A8492F
:1045A0008866704710B5830143EA016343EA0273EA
:1045B0009F4C8834236010BDA14908677047A0490B
:1045C000C864704702460020994B0833186820F0F1
:1045D000EC6042EA01031843954B083318607047BA
:1045E00002460020924B0833186820F0784042EAD7
:1045F000010318438E4B08331860704701460020B2
:104600008B4A0832106820F003000843106070479E
:1046100087480830006800F00C0070470146002011
:10462000834A0832106820F0F00008431060704799
:10463000014600207E4A0832106820F4E05008430A
:104640001060704701460020794A0832106820F453
:10465000604040EAC10010607047F0B500210022C0
:104660000024022500260223714F08373F6807F017
:104670000C0121B1042905D0082937D105E0724F7A
:10468000076036E0714F076033E0694F3F1D3F68B8
:10469000C7F38056664F3F1D3F6807F03F036EB17A
:1046A0006A4FB7FBF3F7DFF888C10CF1040CDCF8B4
:1046B00000C0CCF3881C07FB0CF40CE0624FB7FB86
:1046C000F3F7DFF86CC10CF1040CDCF800C0CCF39C
:1046D000881C07FB0CF4564F3F1D3F68C7F301478A
:1046E0007F1C7D00B4FBF5F7076002E0564F0760C2
:1046F00000BF00BF4E4F08373F6807F0F0010909BF
:10470000534F7A5C0768D7404760494F08373F6886
:1047100007F4E051890A4E4F7A5C4768D7408760BA
:10472000434F08373F6807F46041490B484F7A5CB4
:104730004768D740C760F0BD002100F44072B2F571
:10474000407F0AD13A4A0832116821F4F811414AEF
:1047500002401143364A08321160354A70321268FD
:10476000C0F30B031A43324B70331A60704735495C
:10477000443908607047334940390860704736490A
:104780000860704701460020294A8C32106820F0EA
:104790001F004A1E1043264A8C32106070470146A3
:1047A0000020234A8C32106820F4F8504A1E40EA58
:1047B00002201F4A8C3210607047014600201C4ABC
:1047C0008C32106820F44010084310607047014696
:1047D0000020174A8C32106820F440000843106013
:1047E000704701460020124A8C32106820F4403095
:1047F00008431060704719490860704739B10C4A86
:104800003032126802430A4B30331A6006E0084A1D
:10481000303212688243064B30331A607047F9B168
:10482000034A343212680243014B34331A601CE0ED
:1048300000380240FFFFF6EA10300024003000206C
:1048400000004742800E47420024F40000127A0024
:1048500088000020FFFCFF0F5C014742E011474247
:104860008F4A126882438E4B1A60704739B18C4A66
:10487000121D126802438A4B1B1D1A6006E0884A0B
:10488000121D12688243864B1B1D1A60704739B196
:10489000834A0C3212680243814B0C331A6006E0E3
:1048A0007F4A0C32126882437D4B0C331A6070478A
:1048B00039B17B4A103212680243794B10331A60C7
:1048C00006E0774A103212688243754B10331A6043
:1048D000704739B1724A243A12680243704B243B44
:1048E0001A6006E06E4A243A126882436C4B243BFD
:1048F0001A60704739B16A4A203A12680243684B1D
:10490000203B1A6006E0664A203A12688243644BF4
:10491000203B1A60704739B1614A1C3A1268024361
:104920005F4B1C3B1A6006E05D4A1C3A12688243EA
:104930005B4B1C3B1A60704739B1594A143A1268F4
:104940000243574B143B1A6006E0554A143A12686A
:104950008243534B143B1A60704739B1504A103AA6
:10496000126802434E4B103B1A6006E04C4A103A64
:10497000126882434A4B103B1A60704739B1484A6B
:104980001C3212680243464B1C331A6006E0444A4C
:104990001C3212688243424B1C331A60704739B193
:1049A0003F4A2032126802433D4B20331A6006E032
:1049B0003B4A203212688243394B20331A607047D9
:1049C00039B1374A243212680243354B24331A6016
:1049D00006E0334A243212688243314B24331A6092
:1049E000704739B12E4A2C32126802432C4B2C33BB
:1049F0001A6006E02A4A2C3212688243284B2C3374
:104A00001A60704739B1264A303212680243244B8B
:104A100030331A6006E0224A303212688243204B5B
:104A200030331A607047012808D11D493C310968AC
:104A300041F008011A4A3C32116007E018493C3144
:104A4000096821F00801164A3C321160704739B1FB
:104A5000134A273A12780243114B273B1A7006E09B
:104A60000F4A273A127882430D4B273B1A70704742
:104A70000B484030006840F08070094940310860C0
:104A8000704701460020064A283A12680A400AB1D7
:104A9000012000E000207047014926390870704766
:104AA0003438024010B50446FE48844208D1012142
:104AB0000846FFF752FF00210120FFF74EFF9DE05F
:104AC000B4F1804F08D101210846FFF735FF0021DE
:104AD0000120FFF731FF91E0F348844208D1012122
:104AE0000220FFF729FF00210220FFF725FF85E0C4
:104AF000EE48844208D101210420FFF71DFF002168
:104B00000420FFF719FF79E0E948844208D1012128
:104B10000820FFF711FF00210820FFF70DFF6DE0CF
:104B2000E448844208D101211020FFF705FF00214D
:104B30001020FFF701FF61E0DF48844208D1012126
:104B40002020FFF7F9FE00212020FFF7F5FE55E0B9
:104B5000DA48844208D101210220FFF7FEFE00213D
:104B60000220FFF7FAFE49E0D548844209D101212D
:104B70000804FFF7F2FE00214FF48030FFF7EDFE4E
:104B80003CE0D048844209D101214804FFF7E5FE0A
:104B900000214FF40030FFF7E0FE2FE0CA488442C6
:104BA00009D101218804FFF7D8FE00214FF48020AD
:104BB000FFF7D3FE22E0C548844208D101214020FE
:104BC000FFF7BAFE00214020FFF7B6FE16E0C0480E
:104BD000844208D101218020FFF7AEFE0021802011
:104BE000FFF7AAFE0AE0BB48844207D101218015E5
:104BF000FFF7A2FE0021A015FFF79EFE10BD0022C8
:104C00000288A84B98420ED0AC4B98420BD0B0F122
:104C1000804F08D0A44B984205D0A44B984202D0B4
:104C2000A34B984204D14FF68F731A404B881A4316
:104C3000A04B984207D0A04B984204D04FF6FF43B8
:104C40001A400B891A4302804B68C3620B880385A4
:104C5000944B984202D0994B984201D18B7A0386AB
:104C60000123838270474FF0FF31416000210180B2
:104C700001814180817270470185828270470A46B6
:104C8000002101884FF68F7319401143018070474E
:104C900041627047C16270470146486A70470146E9
:104CA000088D704721B1028842F00202028004E0C0
:104CB00002884FF6FD731A400280704721B10288C6
:104CC00042F00402028004E002884FF6FB731A40AF
:104CD0000280704721B1028842F08002028004E025
:104CE00002884FF67F731A400280704702884FF6A1
:104CF000F7731A40028002880A43028070470288D4
:104D00004FF6FF431A40028002880A430280704730
:104D100021B1028842F00102028004E002884FF6CD
:104D2000FE731A400280704770B5002400220023F1
:104D3000058C4FF6FE7635400584028C8388048B03
:104D40004FF68F752C40B51E2C400D882C43751ED8
:104D50002A408D892A434D882A43524DA84202D0C9
:104D6000564DA84213D14FF6F7752A40CD892A43F4
:104D70004FF6FB752A408D882A434FF6FF652B407E
:104D80004FF6FF552B400D8A2B434D8A2B438380D2
:104D900004838D684563028470BD70B500240022D1
:104DA0000023058C4FF6EF7635400584028C83880E
:104DB000048B48F6FF752C404FF6FF452C400D88BC
:104DC0004FF6FF7606EA05252C434FF6DF752A409D
:104DD0008D8906EA05152A434D8806EA05152A43FA
:104DE000304DA84202D0354DA8421DD14FF67F75F7
:104DF0002A40CD894FF6FF7606EA05152A434FF67D
:104E0000BF752A408D8806EA05152A434FF6FF35FF
:104E10002B404FF2FF752B400D8A06EA85052B4388
:104E20004D8A06EA85052B43838004838D6885635C
:104E3000028470BD70B5002400220023058C4FF65B
:104E4000FF6635400584028C8388848B4FF68F750E
:104E50002C404FF6FC752C400D882C434FF6FF5527
:104E60002A408D894FF6FF7606EA05252A434D88AC
:104E700006EA05252A430B4DA84202D00F4DA84251
:104E800038D14FF2FF752A40CD894FF6FF7606EAFA
:104E900005252A434FF6FF352A408D8806EA052569
:104EA0002A4319E0000001400004004000080040CF
:104EB000000C0040001000400014004000040140BD
:104EC00000400140004401400048014000180040FB
:104ED000001C0040002000404EF6FF752B404DF6B0
:104EE000FF752B400D8A06EA05152B434D8A06EA0D
:104EF00005152B43838084838D68C563028470BD50
:104F000070B5002200230024058C4EF6FF76354054
:104F10000584038C8488828B48F6FF752A404FF6FF
:104F2000FF452A400D884FF6FF7606EA05252A43FD
:104F30004DF6FF752B408D8906EA05352B434D88CC
:104F400006EA05352B43FE4DA84202D0FD4DA8428E
:104F500008D14BF6FF752C400D8A4FF6FF7606EA16
:104F600085152C43848082838D680564038470BD1D
:104F7000002101804180818081608181C181018225
:104F80004182704770B5034600200024184618304F
:104F900001258D40ACB21D8CA5431D8409B10829A3
:104FA0000AD100EB610005684FF68F763540056049
:104FB0000568154305600FE00D1FC5F34E05284435
:104FC000056848F6FF763540056005684FF6FF76C0
:104FD00006EA02263543056070BD41637047816370
:104FE0007047C1637047016470470A460021018B16
:104FF0004FF68F7319401143018370470A46002111
:10500000018B48F6FF7319404FF6FF7303EA022342
:105010001943018370470A460021818B4FF68F7335
:1050200019401143818370470A460021818B48F65D
:10503000FF7319404FF6FF7303EA0223194381837C
:1050400070470A460021018B4FF6F7731940114350
:10505000018370470A460021018B4FF2FF7319400C
:105060004FF6FF7303EA02231943018370470A4690
:105070000021818B4FF6F7731940114381837047EC
:105080000A460021818B4FF2FF7319404FF6FF73E0
:1050900003EA02231943818370470A460021018BEA
:1050A0004FF6FB7319401143018370470A460021F4
:1050B000018B4FF6FF3319404FF6FF7303EA0223CB
:1050C0001943018370470A460021818B4FF6FB7319
:1050D00019401143818370470A460021818B4FF6A6
:1050E000FF3319404FF6FF7303EA0223194381830C
:1050F00070470A460021018B4FF67F731940114318
:10510000018370470A460021018BC1F30E014FF65F
:10511000FF7303EA02231943018370470A46002103
:10512000818B4FF67F7319401143818370470A4684
:105130000021818BC1F30E014FF6FF7303EA0223B6
:105140001943818370470A460021018C4FF6FD7395
:1051500019401143018470470A460021018C4FF623
:10516000F77319401143018470470A460021018CEE
:105170004FF6DF7319404FF6FF7303EA021319432A
:10518000018470470A460021018C4FF67F73194055
:105190004FF6FF7303EA02131943018470470A466E
:1051A0000021018C4FF6FF5319404FF6FF7303EABD
:1051B00002231943018470470A460021018C4FF2F3
:1051C000FF7319404FF6FF7303EA0223194301846A
:1051D00070470A460021018C4DF6FF7319404FF6C7
:1051E000FF7303EA023319430184704730B500238B
:1051F00001248C40A3B2048C9C430484048C02FAE6
:1052000001F5ADB22C43048430BD30B50023042435
:105210008C40A3B2048C9C430484048C02FA01F5F4
:10522000ADB22C43048430BD828B4FF2FF331A4061
:105230008283828B4FF6FF7303EA01231A43828332
:105240007047F0B50C461546002100220026078C59
:105250004EF6FF7C07EA0C070784818B028C4FF621
:10526000FF7707EA043640F6FF4739404FF6FF77ED
:1052700007EA052739434FF6FF7707EA0337394333
:1052800045F6FF773A4046F480573A4381830284DB
:10529000F0BD828B4FF6F3731A408283828B0A43F0
:1052A00082837047F0B50C46154600210022002687
:1052B000078C4FF6FF6C07EA0C070784818B028C82
:1052C0004FF6FF7707EA04264FF60C7739404FF682
:1052D000FF7707EA03172F4339434FF2FF573A404E
:1052E00046F480773A4381830284F0BD028B4FF20B
:1052F000FF331A400283028B4FF6FF7303EA012348
:105300001A4302837047F0B50C461546002100226F
:105310000026078C4FF6EF7C07EA0C070784018B09
:10532000028C4FF6FF7707EA041640F6FF47394034
:105330004FF6FF7707EA033739434FF6FF7703E06D
:10534000000001400004014007EA052739434FF6F9
:105350005F773A4046F010073A4301830284F0BD7C
:10536000028B4FF6F3731A400283028B0A430283C7
:105370007047F0B50C46154600210022068C4FF60A
:10538000FE773E400684018B028C4FF60C7631404E
:105390007E1C06EA03162E4331434FF6F576324063
:1053A00044F00106324301830284F0BD70B5054626
:1053B0000C46208850B92389A28861882846FFF7C7
:1053C000D8FFE1882846FFF7CBFF25E02088042896
:1053D0000AD12389A28861882846FFF794FFE188D3
:1053E0002846FFF783FF17E0208808280AD1238981
:1053F000A28861882846FFF755FFE1882846FFF715
:1054000048FF09E02389A28861882846FFF719FF31
:10541000E1882846FFF708FF70BD00210180418028
:10542000012181800021C180018170472DE9F04177
:1054300005460C4600260127608808B9022600E0D0
:105440000026A088012801D1022700E0012720883A
:10545000A0B92389A28861882846FFF78AFFE188DE
:105460002846FFF77DFF23893A4631462846FFF755
:105470004AFFE1882846FFF739FF13E02389A28815
:1054800061882846FFF73FFFE1882846FFF72EFF97
:1054900023893A4631462846FFF76BFFE1882846C4
:1054A000FFF75EFFBDE8F0810146486B704701469B
:1054B000886B70470146C86B70470146086C70479F
:1054C0000A884B881A438B881A43CB881A430B8966
:1054D0001A434B891A438B891A43A0F8442070471A
:1054E0000021018041808180C180018141818181D1
:1054F000704731B1B0F8442042F40042A0F8442093
:1055000005E0B0F84420C2F30E02A0F84420704732
:1055100021B1828842F00402828004E082884FF642
:10552000FB731A408280704721B1828842F00102E9
:10553000828004E082884FF6FE731A4082807047B2
:105540001AB183890B43838102E083898B43838172
:1055500070478182704702460020138A0B400BB1CE
:10556000012000E000207047CA430282704730B536
:105570000246002000230024158A05EA01039589CC
:1055800005EA010413B10CB1012000E0002030BD98
:10559000CA430282704741EA0203A0F848307047CC
:1055A0001AB183890B43838102E083898B43838112
:1055B000704721B1828842F00802828004E082882C
:1055C0004FF6F7731A408280704701894FF6F872E0
:1055D0001140018170470A46002101894FF68F73FF
:1055E000194011430181704730B504460D462946E4
:1055F0002046FFF7F0FF208940F00700208130BDF2
:105600002DE9F04104460D4616461F46602D06D191
:105610003B46012231462046FFF775FE05E03B463A
:10562000012231462046FFF7A4FE29462046FFF717
:10563000D2FF208940F007002081BDE8F08130B51D
:105640000C4600210189C9B24FF6FF7505EA032512
:10565000154325432943018130BD2DE9F04105461D
:105660000E4617469846002443463A463146284699
:10567000FFF7E5FF2C894FF6F870044044F007046B
:105680004FF68F70044044F070042C81BDE8F08127
:10569000F0B504460D4616461F463B46324629469F
:1056A0002046FFF7CCFF208940F480402081F0BDE8
:1056B00082884FF68F731A40828082880A438280E4
:1056C000704702894FF6F8731A40028102890A4333
:1056D0000281704702894FF67F731A400281028966
:1056E0000A4302817047F0B50C4615461E4600215C
:1056F000002200230189028B038C4FF6F877394092
:1057000021434FF6FC473A4040F201173A434FF627
:10571000DD773B404FF6FF7707EA06172F433B4301
:10572000018102830384F0BD21B1828842F08002AE
:10573000828004E082884FF67F731A40828070472F
:10574000A0F850107047000010B50446FA48844293
:1057500008D101211020FFF700F900211020FFF7E8
:10576000FCF857E0F548844209D101214804FFF7CD
:10577000E3F800214FF40030FFF7DEF84AE0F0488C
:10578000844209D101218804FFF7D6F800214FF4A3
:105790008020FFF7D1F83DE0EA48844209D1012199
:1057A000C804FFF7C9F800214FF40020FFF7C4F840
:1057B00030E0E548844209D101210805FFF7BCF833
:1057C00000214FF48010FFF7B7F823E0DF48844250
:1057D00008D101212020FFF7C0F800212020FFF789
:1057E000BCF817E0DA48844209D101218807FFF7A5
:1057F000A3F800214FF08040FFF79EF80AE0D5485B
:10580000844207D101214005FFF796F80021600589
:10581000FFF792F810BD2DE9FF4705460E4600241C
:10582000A14600BFA046B08900B100BF2C8A24F475
:105830004054F08804432C82AC8941F20C608443CC
:10584000B08831890843718908430443AC81AC8A2C
:1058500024F44074B0890443AC826846FEF7FDFE30
:10586000B548854202D0B948854202D1DDF80C9096
:1058700001E0DDF80890A88900F4004040B109EB90
:10588000C90000EB091031684900B0FBF1F707E0EF
:1058900009EBC90000EB091031688900B0FBF1F792
:1058A0006420B7FBF0F004012009642101FB1078AB
:1058B000A88900F4004040B1322000EBC800B0FBE2
:1058C000F1F000F00700044308E0322000EB08107C
:1058D0006421B0FBF1F000F00F0004432C81BDE81F
:1058E000FF874FF41651016000218180C180018142
:1058F0000C21418100218181704710B502460020B2
:10590000108A20F470600B884C8823438C882343D2
:10591000CC8823431843108210BD002101804180B0
:105920008180C180704721B1828942F40052828116
:1059300004E082894DF6FF731A4082817047028B22
:1059400002F47F420283028B0A430283704721B133
:10595000828942F40042828103E08289C2F30E020E
:105960008281704721B1828A42F40062828204E01F
:10597000828A4FF2FF731A4082827047C1F3080295
:105980008280704701468888C0F308007047028A09
:105990004FF6F0731A400282028A0A43028270476D
:1059A00021B1828942F00202828104E082894FF6AD
:1059B000FD731A408281704782894FF2FF731A404B
:1059C000828182890A4382817047028A4FF6DF739F
:1059D0001A400282028A0A430282704721B1028A77
:1059E00042F48042028204E0028A4BF6FF731A40BE
:1059F00002827047818941F001018181704721B1A4
:105A0000828A42F00802828204E0828A4FF6F773AB
:105A10001A4082827047028BD2B20283028B42EA22
:105A200001220283704721B1828A42F020028282E1
:105A300004E0828A4FF6DF731A408282704721B1F8
:105A4000828A42F01002828204E0828A4FF6EF736B
:105A50001A4082827047828A4FF6FB731A40828214
:105A6000828A0A438282704721B1828A42F002020E
:105A7000828204E0828A4FF6FD731A408282704768
:105A80001AB1838A0B43838202E0838A8B43838229
:105A90007047F0B50346002400260025002040F69C
:105AA0006A17B94200D100BF1846C1F3421401F091
:105AB0001F06012707FA06F5012C01D10C3004E07E
:105AC000022C01D1103000E014301AB107682F43C6
:105AD000076002E00768AF430760F0BD02460020A0
