:020000040800F2
:100000007036002021560008C5020008C70200080B
:10001000CB020008CF020008D30200080000000055
:10002000000000000000000000000000D7020008EF
:10003000D902000800000000DB020008DD02000811
:100040003B5600083B5600083B5600083B5600084C
:100050003B5600083B5600083B5600083B5600083C
:100060003B5600083B5600083B5600083B5600082C
:100070003B5600083B5600083B560008593500081F
:100080003B5600083B5600083B5600082F2C000842
:10009000452C00083B5600083B5600083B5600081C
:1000A0003B5600083B5600083B5600083B560008EC
:1000B0003B5600083B5600083B5600083B560008DC
:1000C0003B5600083B5600083B5600083B560008CC
:1000D0003B560008032F0008EF300008ED320008FF
:1000E0003B5600083B5600083B5600083B560008AC
:1000F0003B5600083B5600083B5600083B5600089C
:100100003B5600083B5600083B5600083B5600088B
:10011000EB340008FB3700083B5600083B5600084C
:100120003B5600083B5600083B5600083B5600086B
:100130003B5600083B5600083B5600087F2D000840
:10014000952D00083B5600083B5600083B5600081A
:100150003B5600083B5600083B560008D1390008C2
:100160003B5600083B5600083B5600083B5600082B
:100170003B5600083B5600083B5600083B5600081B
:100180003B5600083B56000800F002F800F03CF82F
:100190000AA090E8000C82448344AAF10107DA45E2
:1001A00001D100F031F8AFF2090EBAE80F0013F0F8
:1001B000010F18BFFB1A43F001031847846B0000BE
:1001C000A46B0000103A24BF78C878C1FAD852074F
:1001D00024BF30C830C144BF04680C6070470000C1
:1001E0000023002400250026103A28BF78C1FBD840
:1001F000520728BF30C148BF0B6070471FB506F0DB
:10020000C2FB1FBD10B510BD05F0E9FA1146FFF79E
:10021000F5FF00F009F805F007FB03B4FFF7F2FF64
:1002200003BC05F0D1FA000008B500F061F99FEDBC
:100230001E1AF0EE000AB0EE080A42F2107343F6FE
:1002400098220321194801F0C6F82CE018480068EC
:10025000184990FBF1F201FB1200F8B91648C06B87
:1002600000EE900AF8EEE00AB0EE600ADFED130A45
:100270000E4800F0B9FE002000900C4890ED0B0AEB
:10028000BDEEC00A10EE100A03B2002211460C485F
:1002900001F028F900F024FD00F08AFD0448006810
:1002A000401C03490860D1E700000000E80E002070
:1002B0000000002020480100082000200000C84263
:1002C00000680040704700BFFEE700BFFEE700BFC8
:1002D000FEE700BFFEE770477047704770470000B9
:1002E0000CB50020019000907648006840F4803002
:1002F0007449086000BF7348006800F40030009043
:100300000198401C0190009818B90198B0F5A06FB1
:10031000F1D16C48006800F4003010B10120009069
:1003200001E0002000900098012846D16548403047
:10033000006840F0805063494031086062480068BE
:1003400040F44040604908605E48083000685D49FC
:10035000083108600846006840F40040086008461C
:10036000006840F4A05008605848091F0860081F42
:10037000006840F08070091F086000BF51480068A5
:1003800000F000700028F9D040F205705049086074
:100390004C480830006820F003004A4908310860E2
:1003A0000846006840F00200086000BF4548083079
:1003B000006800F00C000828F8D10CBD10B54548C5
:1003C000006840F47000434908603E48006840F00F
:1003D00001003C49086000203A490831086039486A
:1003E00000683D490840374908603C48091D0860DD
:1003F000081F006820F48020091F08600020314990
:100400000C310860FFF76CFF4FF000603149803914
:10041000086010BD70B500200022022300240221D4
:10042000284D08352D6805F00C0020B1042806D0B1
:10043000082834D107E02A4D2A4E356033E02A4D92
:10044000284E35602FE01F4D2D1D2D68C5F38054BB
:100450001C4D2D1D2D6805F03F0154B1224DB5FBFB
:10046000F1F5184E361D3668C6F3881605FB06F200
:1004700009E01B4DB5FBF1F5124E361D3668C6F38B
:10048000881605FB06F20F4D2D1D2D68C5F301459D
:100490006D1C6B00B2FBF3F5124E356003E0104D9E
:1004A000104E356000BF00BF064D08352D68C5F3FE
:1004B00003150E4E705D0B4D2D68C540094E35601D
:1004C00070BD000000380240007000400854400732
:1004D000003C024088ED00E0FFFFF6FE10300024F3
:1004E0000024F4000400002000127A00080000201C
:1004F00010B54FF4A06003F0B5FA124802F06CFC9E
:100500004FF4E13002F05EFD4FF4612002F04BFE4B
:100510004FF4E13002F012FF4FF4E13003F050F8F5
:100520004FF4E13003F0CDF90023032208211046F7
:1005300002F00AFB002303220821104602F09DFB73
:1005400010BD0000A086010010B540F2F441FE4845
:1005500005F00FF90020FC490870487010BD10B577
:100560002DED088BF948007870B9F94890ED000A34
:10057000F84880ED000AF64890ED010AF64880ED53
:10058000000A0120F1490870F14890ED000AEE4898
:1005900080ED040AEE4890ED010AEB4880ED030A75
:1005A000EE48C07B48B1ED4890ED040AF7EE000A32
:1005B00030EE200A80ED040A04E09FEDE90AE748E6
:1005C00080ED040AE54890ED040AF7EE000AB4EE67
:1005D000E00AF1EE10FA7CD20120E2490870DF480F
:1005E000B0F9080000EE100AB8EEC00ADE48D0EDFF
:1005F000000AB4EE600AF1EE10FA79D1D748B0F9EA
:100600000A0000EE100AB8EEC00AD848D0ED000A81
:10061000B4EE600AF1EE10FA6AD1D049B1F90800DF
:1006200005F0C3FE41EC1B0B9FEDD10B53EC102BDF
:1006300005F00EFF41EC1A0B9FEDCF1BB0EE4A0AFE
:10064000F0EE6A0A05F080FAB0EE409AF0EE609A99
:100650009FEDCB0B53EC102B51EC190B05F0F8FE72
:1006600041EC180B05F034FCC7490860BB49B1F9EF
:100670000A0005F09AFE41EC1B0B9FEDBD0B53ECFD
:10068000102B05F0E5FE41EC1A0B9FEDBB1BB0EE05
:100690004A0AF0EE6A0A05F057FAB0EE409AF0EE18
:1006A000609A9FEDB70B53EC102B51EC190B05F032
:1006B000CFFE41EC180B05F00BFCB4490860A748CD
:1006C00090ED000AB048D0ED000A30EE200AB048A4
:1006D00001E02AE00CE080ED000AA04890ED010A5C
:1006E0000846D0ED000A30EE200AAA4880ED000A44
:1006F0009A48B0F9080000EE100AB8EEC00A9A480D
:1007000080ED000A9548B0F90A0000EE100AB8EE34
:10071000C00A964880ED000AB7EE000A8A4880EDCC
:10072000010AB7EE000A80ED020A874890ED020A3E
:10073000FBEE090AB4EEE00AF1EE10FA04D8BBEEC3
:10074000090A80ED020A0DE07F4890ED020ADFED14
:10075000920AB4EEE00AF1EE10FA03DB9FED8E0A86
:1007600080ED020A7F48007858B97B4890ED000A76
:10077000754880ED010A774890ED000A724880EDD7
:10078000020A7348D0ED041AB0EE611A6E48D0ED3B
:10079000031AF0EE610AD0ED011AB0EE610ADFED46
:1007A000701A00F5956100F5717000F052FE664810
:1007B00080ED090A6648D0ED031AB0EE611A62486E
:1007C000D0ED041AF0EE610AD0ED021AB0EE610A23
:1007D000DFED631A00F25C4100F5826000F039FE43
:1007E000594880ED0A0ABDEC088B10BD10B52DEDFF
:1007F000088B5648007870B9554890ED000A554866
:1008000080ED000A524890ED010A534880ED000A3D
:1008100001204E4908704E4890ED000A4A4880ED8C
:10082000040A4B4890ED010A474880ED030A4B4803
:10083000C07B48B1494890ED040AF7EE000A30EE5B
:10084000200A80ED040A04E09FED450A434880ED4C
:10085000040A424890ED040AF7EE000AB4EEE00AFA
:10086000F1EE10FA6DD201203E4908703B48B0F914
:10087000080000EE100AB8EEC00A3B48D0ED000AAE
:10088000B4EE600AF1EE10FA5CD13448B0F90A0017
:1008900000EE100AB8EEC00A3448D0ED000AB4EEFB
:1008A000600AF1EE10FA4DD12C49B1F9080005F0BB
:1008B0007CFD41EC1B0B9FED2E0B53EC102B05F038
:1008C000C7FD41EC1A0B9FED2C1BB0EE4A0AF0EE6F
:1008D0006A0A05F039F9B0EE409AF0EE609A9FEDA1
:1008E000280B53EC102B51EC190B05F0B1FD41EC2A
:1008F000180B05F0EDFA244908601849B1F90A000F
:1009000005F053FD41EC1B0B9FED190B53EC102B25
:1009100005F09EFD41EC1A0B9FED171BB0EE4A0A45
:10092000F0EE6A0A05F010F9B0EE409AF0EE609A27
:100930009FED130B53EC102B51EC190B05F088FDB8
:100940002CE064E046E00000D000002030000020F1
:10095000B01B0020180000201C000020B82300203D
:100960000000000031000020280000202C000020A2
:10097000000000A02C436C3F000000000000184065
:1009800000000020DCA54C4034000020380000208E
:10099000200000202400002000000C4241EC180B35
:1009A00005F096FAF1490860F14890ED000AF14827
:1009B000D0ED000A30EE200AEF4880ED000AEC4846
:1009C00090ED010A0846D0ED000A30EE200AEB480F
:1009D00080ED000AE648B0F9080000EE100AB8EE13
:1009E000C00AE74880ED000AE148B0F90A0000EECD
:1009F000100AB8EEC00AE34880ED000AB7EE000A1C
:100A0000E14880ED010AB7EE000A80ED020ADE48F7
:100A100090ED020AFBEE090AB4EEE00AF1EE10FADC
:100A200004D8BBEE090A80ED020A0DE0D64890ED2D
:100A3000020A5FED270AB4EEE00AF1EE10FA03DBDA
:100A40001FED2B0A80ED020AD048007858B9D04833
:100A500090ED000ACC4880ED010ACE4890ED000AE6
:100A6000C94880ED020ACC48D0ED041AB0EE611AF4
:100A7000C548D0ED031AF0EE610AD0ED011AB0EED0
:100A8000610A5FED491A00F5127100F5B27000F0CD
:100A9000E0FCBD4880ED090ABF48D0ED031AB0EE76
:100AA000611AB948D0ED041AF0EE610AD0ED021ACD
:100AB000B0EE610A5FED561A00F5FE7100F5D870D0
:100AC00000F0C7FCB04880ED0A0ABDEC088B10BDF1
:100AD00010B5B14890ED000AAB4880ED040AAE486D
:100AE00090ED010AA84880ED030AAC48407DE8B3C8
:100AF0009F48807B58B19E4890ED010AA24880ED46
:100B0000020A9B4890ED000A9F4880ED010A984830
:100B100090ED072AF0EE421A9F4890ED042AB0EEBD
:100B2000421A994890ED032AF0EE420A90ED012A0C
:100B3000B0EE420A00F55E7100F5257000F089FC08
:100B4000914880ED090A9448D0ED031AB0EE611A7D
:100B50008D48D0ED041AF0EE610AD0ED021AB0EE25
:100B6000610A5FED811A00F58C7100E006E08030CB
:100B700000F06FFC844880ED0A0A38E0824890ED6E
:100B80000B0A80ED020A90ED0C0A80ED010A824802
:100B9000D0ED041AB0EE611A7B48D0ED031AF0EEE6
:100BA000610AD0ED011AB0EE610A5FED931A00F10F
:100BB000CC01343000F04DFC734880ED090A7648D2
:100BC000D0ED031AB0EE611A6F48D0ED041AF0EEC2
:100BD000610AD0ED021AB0EE610A5FED9F1A00F5CE
:100BE0008C71803000F035FC674880ED0A0A10BD3A
:100BF00010B52DED028B002069490870634908701B
:100C000000BF1FEDA90A604880ED020A624890ED1E
:100C1000000A5D4880ED040A1FEDAF0A80ED010A6D
:100C2000604890ED101BB0EE410AF0EE610A51EC05
:100C3000100B05F04DF95449C8605A4890ED101B4F
:100C4000B0EE410AF0EE610A9FED571B53EC112BF9
:100C500051EC100B05F022FA05F078FB04464FF436
:100C6000B47104FB01F000EE100AB8EEC00A464869
:100C700080ED010A4848D0ED041AB0EE611A4248EE
:100C8000D0ED031AF0EE610AD0ED011AB0EE610A60
:100C90005FEDCD1A00F1CC01343000F0DAFB3A48B8
:100CA00080ED090A3C48D0ED031AB0EE611A3648CF
:100CB000D0ED041AF0EE610AD0ED021AB0EE610A2E
:100CC0005FEDD91A00F58C71803000F0C2FB2E4820
:100CD00080ED0A0A03202C490870BDEC028B10BD80
:100CE00010B529480078032816D003DC38B1012854
:100CF0001BD10EE00B2812D00C2816D112E01FEDEC
:100D0000E80A214880ED090A1FEDEB0A80ED0A0A86
:100D10000CE0FFF76DFF09E0FFF7DAFE06E0FFF7F2
:100D200065FD03E0FFF71BFC00E000BF00BF1648B5
:100D300090ED020AFBEE090AB4EEE00AF1EE10FAB9
:100D400004D8BBEE090A80ED020A0DE00E4890EDD2
:100D5000020A5FEDEF0AB4EEE00AF1EE10FA03DBEF
:100D60001FEDF30A80ED020A10BD000038000020DC
:100D7000B8230020340000202000002024000020A0
:100D8000280000202C000020D0000020310000208E
:100D90001C00002018000020B01B0020DC230020D5
:100DA0003000002008200020000000000080764075
:100DB00010B52DED088B6948807E012804D00228EB
:100DC00071D0032870D1B2E065480078012827D09F
:100DD0006248B0F90200A0F5806000EE100AB8EE9B
:100DE000C00AF7EE080A20EE200ABDEEC00A10EE97
:100DF000100A00B25B4988835848B0F90000A0F59A
:100E0000806000EE100AB8EEC00AF7EE080A20EE85
:100E1000200ABDEEC00A10EE100A01B25148C1838B
:100E20004F480078032837D14C49B1F90610A1F595
:100E3000806005F0BAFA41EC1B0B9FED4B0B53ECB5
:100E4000102B05F005FB41EC190B454890ED0B0A02
:100E500010EE101A084605F025FD41EC1A0B53EC74
:100E6000192B05F067F841EC180B05F031F83C49F7
:100E7000C862084690ED0C0A3848B0F90400A0F5A5
:100E8000806000EE900AF8EEE00A9FED391A00EE5D
:100E9000810A084680ED0C0A3048807F28B107207F
:100EA0003049087604E052E052E003202D490876EC
:100EB0002B480078012807D0294800780C2803D057
:100EC000274800780B2803D101202649087606E040
:100ED0002448007E072802D00320224908762048B3
:100EE0000078012809D01D48807E022805D01C48C2
:100EF000407810B903201A4908701948407828B979
:100F00001748007810B1012015490870144800787E
:100F1000032803D10120134981F8600010480078AC
:100F20000F4948700F48007E0E49487611E00C4882
:100F3000007801280AD0094890F82C0030B101202F
:100F40000849C8764FF4C8600A49088001E000E00B
:100F500000BF00BFBDEC088B10BD0000DC230020EB
:100F6000D0000020C8050020FCA9F1D24D62803FCE
:100F70006F12033C3C000020D0ED000AF4EEC00AE2
:100F8000F1EE10FA01DD80ED000AD0ED000AB1EEBD
:100F9000401AF4EEC10AF1EE10FA03D2F1EE400A63
:100FA000C0ED000A70470364C263816380ED000AEC
:100FB000C0ED010A80ED021A704780ED000AC0ED15
:100FC000010A80ED021ADFEDFE1AC0ED081ADFED0E
:100FD000FC1AC0ED091ADFEDFA1AC0ED0A1ADFEDAE
:100FE000F81AC0ED0B1A704710B52DED088B0446AA
:100FF000B0EE408AF0EE608A84ED048AC4ED038A84
:1010000038EEC80A84ED070A94ED0C0AB5EEC00A62
:10101000F1EE10FA27D094ED0C0A10EE101A0846E3
:1010200005F040FC41EC190B94ED070A10EE101A84
:10103000084605F037FC41EC1B0BB0EE4B0AF0EE16
:101040006B0A04F079FEB0EE40AAF0EE60AA53EC11
:10105000192B51EC1A0B05F0F9FA04D29FEDD80ABE
:10106000BDEC088B10BDA06B03283ED194ED000AA7
:10107000D4ED070A20EE200A84ED080A94ED090A4F
:10108000D4ED010A94ED071A00EE810A84ED090AF5
:1010900094ED070AD4ED060A30EE600AD4ED020A98
:1010A00020EE200A84ED0A0AD4ED100AF8EE600A58
:1010B000B0EE600A04F12400FFF75EFF94ED080A29
:1010C000D4ED090A30EE200AD4ED0A0A30EE200AE7
:1010D00084ED0B0AD4ED0F0AF8EE600AB0EE600A58
:1010E00004F12C00FFF748FF42E0A06B04283FD139
:1010F00094ED070AD4ED060A30EE600AD4ED000A3A
:1011000020EE200A84ED080A94ED010AD4ED070AC6
:1011100020EE200A84ED090A94ED070AD4ED060AB0
:10112000B0EE001A01EE600AD4ED050A30EE200A96
:10113000D4ED020A20EE200A84ED0A0A94ED080A92
:10114000D4ED090A30EE200AD4ED0A0A30EE200A66
:10115000D4ED0B0A30EE200A84ED0B0AD4ED0F0A11
:10116000F8EE600AB0EE600A04F12C00FFF704FF0D
:1011700094ED060A84ED050A94ED070A84ED060A4B
:1011800094ED0D0AB5EEC00AF1EE10FA25D094EDFB
:101190000D0A10EE101A084605F084FB41EC190BFD
:1011A00094ED0B0A10EE101A084605F07BFB41EC9B
:1011B0001B0BB0EE4B0AF0EE6B0A04F0BDFDB0EE77
:1011C00040AAF0EE60AA53EC192B51EC1A0B05F073
:1011D00003F902D29FED7A0A42E794ED0B0A3FE74A
:1011E00010B52DED088B0446B0EE408AF0EE608A13
:1011F00084ED048AC4ED038A38EEC80A84ED070A38
:1012000094ED0C0AB5EEC00AF1EE10FA27D094ED79
:101210000C0A10EE101A084605F044FB41EC190BBD
:1012200094ED070A10EE101A084605F03BFB41EC5E
:101230001B0BB0EE4B0AF0EE6B0A04F07DFDB0EE36
:1012400040AAF0EE60AA53EC192B51EC1A0B05F0F2
:10125000FDF904D29FED5A0ABDEC088B10BDA06BBE
:1012600003283ED194ED000AD4ED070A20EE200AAF
:1012700084ED080A94ED090AD4ED010A94ED071AE9
:1012800000EE810A84ED090A94ED070AD4ED060AFE
:1012900030EE600AD4ED020A20EE200A84ED0A0A3C
:1012A000D4ED100AF8EE600AB0EE600A04F12400F2
:1012B000FFF762FE94ED080AD4ED090A30EE200A29
:1012C000D4ED0A0A30EE200A84ED0B0AD4ED0F0AA1
:1012D000F8EE600AB0EE600A04F12C00FFF74CFE55
:1012E0003EE0A06B04283BD194ED070AD4ED060A3A
:1012F00030EE600AD4ED000A20EE200A84ED080AE0
:1013000094ED010AD4ED070A20EE200A84ED090AC3
:1013100094ED070AD4ED060AB0EE001A01EE600A59
:10132000D4ED050A30EE200AD4ED020A20EE200AA0
:1013300084ED0A0A94ED080AD4ED0A0A30EE200A78
:10134000D4ED0B0A30EE200A84ED0B0AD4ED0F0A1F
:10135000F8EE600AB0EE600A04F12C00FFF70CFE14
:1013600094ED060A84ED050A94ED070A84ED060A59
:1013700094ED0D0AB5EEC00AF1EE10FA28D094ED06
:101380000D0A10EE101A084605F08CFA41EC190B04
:1013900094ED0B0A10EE101A084605F083FA41ECA2
:1013A0001B0BB0EE4B0AF0EE6B0A04F0C5FCB0EE7E
:1013B00040AAF0EE60AA53EC192B51EC1A0B01E095
:1013C0000000000005F008F802D21FED030A43E711
:1013D00094ED0B0A40E72DE9F0412DED048B044616
:1013E0000D4616461F46B0EE408AF0EE608AB0EE1B
:1013F000419A29486064B0EE491AF0EE680AB0EEEE
:10140000480A3B46324629462046D4F844C0E047C5
:10141000BDEC048BBDE8F0811FED170A80ED080AD2
:101420001FED190A80ED090A1FED1B0A80ED0A0A5B
:101430001FED1D0A80ED0B0A1FED1F0A80ED050A46
:101440001FED210A80ED060A1FED230A80ED070A31
:10145000704770B52DED068B05460C46B0EE408A00
:10146000F0EE608AB0EE419AF0EE619AF0EE480A32
:10147000B0EE680A2846FFF7B7FD30EE290AB0EE55
:1014800040AAF0EE4A0AB0EE490A2046FFF7ACFD4A
:10149000BDEC068B70BD0000A70F0008FB49096872
:1014A000491CFA4A11600168A1F2072101B900E064
:1014B00000BF00BF704710B50446F5480068401CE7
:1014C000F34908602068A0F2072040B941F2962352
:1014D0002246F049EE48006800F0F3FC00E000BF4F
:1014E00000BF10BD2DE9F04186B080460C46154680
:1014F0001E460C9F40F2FF10019000208DF80C005A
:101500008DF80D0008208DF80E00200A8DF80F00D0
:101510008DF81040290A8DF811108DF81250310AFB
:101520008DF813108DF81460390A8DF815108DF8A8
:10153000167001A9404602F097FC06B0BDE8F081A4
:101540002DE9F04186B080460C4615461E460C9F9C
:1015500040F2FF20019000208DF80C008DF80D0066
:1015600008208DF80E00200A8DF80F008DF810402D
:10157000290A8DF811108DF81250310A8DF81310C8
:101580008DF81460390A8DF815108DF8167001A9C0
:10159000404602F069FC06B0BDE8F0812DE9F0415B
:1015A00086B080460C4615461E460C9F4FF40070D0
:1015B000019000208DF80C008DF80D0008208DF8AA
:1015C0000E00200A8DF80F008DF81040290A8DF8C2
:1015D00011108DF81250310A8DF813108DF8146027
:1015E000390A8DF815108DF8167001A9404602F0E1
:1015F0003BFC06B0BDE8F0812DE9F04186B08046A5
:101600000C4615461E460C9F40F2FF10019000202C
:101610008DF80C008DF80D0008208DF80E00200AC2
:101620008DF80F008DF81040290A8DF811108DF8F3
:101630001250310A8DF813108DF81460390A8DF8A4
:1016400015108DF8167001A9404602F00DFC06B089
:10165000BDE8F08170B586B006460C46154601958A
:1016600008208DF80E0000208DF80C008DF80D007C
:101670008DF80F4000218DF810108DF811108DF8A5
:1016800012108DF813108DF814108DF815108DF8B8
:10169000161001A9304602F0E7FB06B070BD30B568
:1016A0002DED068B85B00546B0EE408AF0EE608ADF
:1016B000B0EE419AF0EE619AB0EE42AAF0EE62AA64
:1016C0000C46009408208DF80A0000208DF80800D0
:1016D0008DF8090032208DF80B0000218DF80C10D8
:1016E000BCEEC80A10EE100AC1B28DF80D10BCEEA7
:1016F000E80A10EE100AC1B28DF80E10BCEEC90A4D
:1017000010EE100AC1B28DF80F10BCEEE90A10EE0F
:10171000100AC1B28DF81010BCEECA0A10EE100A01
:10172000C1B28DF81110BCEEEA0A10EE100AC1B277
:101730008DF812106946284602F096FB05B0BDEC04
:10174000068B30BDF0B585B007460D4614461E46E3
:10175000009608208DF80A0000208DF808008DF80A
:101760000900A4208DF80B0000218DF80C10E9B2BF
:101770008DF80D10290A8DF80E10E1B28DF80F10BA
:10178000210A8DF81010210C8DF81110210E8DF802
:1017900012106946384602F067FB05B0F0BD70B51F
:1017A00086B006460C461546019508208DF80E00B9
:1017B00000208DF80C008DF80D00A2208DF80F0090
:1017C00000218DF810108DF811108DF812108DF881
:1017D0001340210A8DF81410210C8DF81510210EDC
:1017E0008DF8161001A9304602F03EFB06B070BD20
:1017F00070B586B006460C461546019508208DF852
:101800000E0000208DF80C008DF80D00A1208DF841
:101810000F0000218DF810108DF811108DF81210A6
:101820008DF81340210A8DF8141000218DF8151041
:101830008DF8161001A9304602F016FB06B070BDF7
:1018400070B586B006460C461546019500208DF809
:101850000C008DF80D0008208DF80E0020128DF878
:101860000F008DF8104000218DF811108DF8121026
:101870008DF813108DF814108DF815108DF81610C2
:1018800001A9304602F0F0FA06B070BD4400002015
:10189000480000200820002030B585B005460C46E1
:1018A000009400208DF8080002208DF80900062021
:1018B0008DF80A0000208DF80B0000218DF80C1027
:1018C0008DF80D108DF80E108DF80F108DF810108A
:1018D0006946284602F0C8FA05B030BD10B5044686
:1018E0004FF4C2612046FFF7D7FF40F21161204656
:1018F000FFF7D2FF40F212612046FFF7CDFF40F222
:1019000013612046FFF7C8FF10BD70B505460C46B1
:101910004FF4C06202212846FFF792FF04EBC40097
:1019200000EB04104FF6FF7202EA800140F2016200
:101930002846FFF785FF40F2026240F6C4112846B0
:10194000FFF77EFF40F203624FF42F712846FFF746
:1019500077FF70BD30B585B005460C4644F4007085
:10196000009000208DF808008DF809008DF80A001D
:101970006946284602F078FA05B030BD30B585B02A
:1019800005460C4644F40470009000208DF80800D1
:101990008DF809008DF80A006946284602F064FABD
:1019A00005B030BD30B585B005460C4600208DF839
:1019B00008008DF809008DF80A0044F4806000905A
:1019C0006946284602F050FA05B030BD30B585B002
:1019D00005460C4644F48260009000208DF8080013
:1019E0008DF809008DF80A006946284602F03CFA95
:1019F00005B030BD30B585B005460C4644F4A06056
:101A0000009000208DF808008DF809008DF80A007C
:101A10006946284602F028FA05B030BD30B585B0D9
:101A200005460C4644F4A260009000208DF80800A2
:101A30008DF809008DF80A006946284602F014FA6C
:101A400005B030BD30B585B005460C4644F4A46001
:101A5000009000208DF808008DF809008DF80A002C
:101A60006946284602F000FA05B030BDF0B585B0F1
:101A700006460D46144645F4A660009000208DF8F9
:101A800008008DF8090002208DF80A00E0B28DF8F8
:101A90000B00210A8DF80C106946304602F0E4F97B
:101AA00007463946304602F077FA05B0F0BDF0B58A
:101AB00085B006460D46144645F4A8600090002007
:101AC0008DF808008DF8090002208DF80A00E0B2B8
:101AD0008DF80B00210A8DF80C106946304602F093
:101AE000C3F907463946304602F056FA05B0F0BD54
:101AF0002DE9F04186B007460D46164645F4AA602A
:101B0000019000208DF80C008DF80D0004208DF858
:101B10000E00B0034FF4B471B0FBF1F4E0B28DF8F5
:101B20000F00210A8DF81010210C8DF81110210ED4
:101B30008DF8121001A9384602F096F98046414608
:101B4000384602F029FA06B0BDE8F0812DE9F041EF
:101B500086B007460D46164645F4AC60019000205D
:101B60008DF80C008DF80D0004208DF80E00B003E8
:101B70004FF4B471B0FBF1F4E0B28DF80F00210A1C
:101B80008DF81010210C8DF81110210E8DF8121007
:101B900001A9384602F068F980464146384602F00D
:101BA000FBF906B0BDE8F0812DE9F04186B00746AB
:101BB0000C4615461E4644F4AE60019000208DF898
:101BC0000C008DF80D0003208DF80E00F0B28DF89A
:101BD0000F009DF81000058001A9384602F044F975
:101BE00080464146384602F0D7F906B0BDE8F0819C
:101BF00070B505460C464C22A91D384803F042FD3D
:101C0000364890ED0C0AB1EE400A84ED000A3448E3
:101C100090ED000A334880ED000A304890ED0E0A3E
:101C20002F4880ED000A90ED000A2E48D0ED000A02
:101C300030EE600ADFED2C0AB4EEE00AF1EE10FAA5
:101C400005DB2A480068401E2849086013E0244844
:101C500090ED000A2348D0ED000A30EE600ADFED77
:101C6000240AB4EEE00AF1EE10FA04D81F48006826
:101C7000401C1E4908601D4800684FF4B471484379
:101C800000EE100AB8EEC00A1548D0ED000A30EE9A
:101C9000200AB1EE400A84ED010A104890ED0D0AC9
:101CA00084ED020A90ED070A84ED030A90ED080A1C
:101CB000B1EE400A84ED040A90ED060A84ED050AAF
:101CC00090ED030A84ED060A90ED050A84ED070AFB
:101CD00090ED040A84ED080A70BD0000382400204D
:101CE000500000204C0000200000A24354000020BF
:101CF0000000A2C30A7BCB7A42EA03228261826996
:101D00008260826942600269521C026170472DE95B
:101D1000F04104460D460026002720686060287BBD
:101D2000E97A40EA0120206020686168401AE0609A
:101D3000E06810F5805F07DAA06B401CA063E068E4
:101D400000F50050E0610DE0E068B0F5805F07DD70
:101D5000A06B401EA063E068A0F50050E06101E0C8
:101D6000E068E0612168A06B01EB4030A060206872
:101D7000A269801A00EE100AF8EEC00AA06B4FF4B8
:101D8000B472504300EE100AB8EEC00A9FED5D1A1F
:101D900000EE810A10EE101A084604F083FD41ECB3
:101DA000100B84ED100BE269207D411C217504F1BC
:101DB000200141F82020207D062801D10020207537
:101DC000002605E004F1200050F826000744761CA8
:101DD000062EF7DB062097FBF0F0E063A97B687B1B
:101DE00041EA002000B2A4F84C00BDE8F08170B5D3
:101DF00004460D4620686060287BE97A40EA0120AD
:101E0000206020686168401AE060E06810F5805F3B
:101E100007DAA06B401CA063E06800F50050E061A9
:101E20000DE0E068B0F5805F07DDA06B401EA063A9
:101E3000E068A0F50050E06101E0E068E061216841
:101E4000A06B01EB4030A0602068A269801A00EE10
:101E5000100AF8EEC00AA06B4FF4B472504300EEC3
:101E6000100AB8EEC00A9FED281A00EE810A10EEA3
:101E7000101A084604F016FD41EC100B84ED100B0F
:101E8000A97B687B41EA0020E063E06BB0F57A7FD4
:101E900004DBE06BA0F57F40FF38E063687CA06462
:101EA00070BD70B506460C461546322E04D829463C
:101EB0002046FFF71FFF03E029462046FFF727FFD4
:101EC00070BD2DE9F04106460C4617461D463946C1
:101ED0002046FFF78CFF642E12D8A069A168401A33
:101EE00010F57A6F03DA05F50050A06108E0A069EB
:101EF000A168401AB0F57A6F02DDA5F50050A06127
:101F0000BDE8F081FFFF333D0000343DF0B50346EE
:101F10000C461888002113E0675C80EA0720002542
:101F20000BE0460000F4004CBCF1000F03D041F27E
:101F3000210C86EA0C0630466D1C082DF1D3491C95
:101F40009142E9D31880F0BD2DE9F84305460F46CC
:101F500090464FF00009002000900626FE48407889
:101F6000002859D0002085F86300FB484078C0F372
:101F7000800078B1F9A1284603F072FBF8490860A7
:101F80000846006830B1F448007820F00400001DD5
:101F9000F1490870F048407800F0010078B1EFA1F5
:101FA000284603F05DFBEE4908600846006830B142
:101FB000E948007820F00100401CE7490870E64835
:101FC0004078C0F3400078B1E4A1284603F048FB14
:101FD000E34908600846006830B1DF48007820F027
:101FE0000200801CDC490870DB484078C0F3C00068
:101FF00078B1DCA1284603F033FBD94908600846D4
:10200000006830B1D448007820F008000830D24988
:102010000870002028600AE128785A28FBD16878E7
:10202000A528F8D1A878E97800EB0120801D40456B
:10203000F1D1B8F1080FEEDB042229466846FFF71C
:1020400065FFA8F10602A91D6846FFF75FFF287922
:10205000697900EB01201FFA80F9BDF800004845BE
:10206000D9D10626E0E0AC192078C02860D008DC81
:1020700090280FD0A02813D0A52829D0B0286FD140
:102080003EE0D02870D0D1286CD0D9286BD0F02871
:10209000F5D1C3E06078B8490870B01CC6B2C2E0A0
:1020A0006078A17800EB012000B2B3494880E07865
:1020B000217900EB012000B2AF4988806079A179D5
:1020C00000EB012000B2AC49C880F01DC6B2AAE006
:1020D0006078A17800EB012000B2A7490881E07880
:1020E000217900EB012000B2A34948816079A179F0
:1020F00000EB012000B2A0498881F01DC6B292E039
:102100006078A17800EB012000B29B49C881E0789B
:10211000217900EB012000B2974908826079A1790A
:1021200000EB012000B294494882F01DC6B27AE06B
:102130006078A17800EB012000B28F498882E078B6
:10214000217900EB012000B28B49C8826079A17926
:1021500000EB012000B288490883F01DC6B262E09E
:102160005FE001E04CE03FE06078A17800EB012007
:1021700000B281494883E078217900EB012000B268
:102180007D4988836079A17900EB012000B27A490A
:10219000C8830846B0F91A0000EE100AB8EEC00A6B
:1021A000DFED760A20EE200A084680ED0F0AB0F92E
:1021B0001C0000EE100AB8EEC00ADFED700A20EE37
:1021C000200A084680ED100AB0F91E0000EE100A41
:1021D000B8EEC00ADFED6A0A20EE200A084680ED5C
:1021E000110AF01DC6B21EE0634854F8011F0162D7
:1021F00061684162A168816206F10D00C6B212E019
:102200005D4854F8011FC16261680163A1684163C0
:10221000E168816306F11100C6B204E0701DC6B228
:1022200001E0464600BF00BF4645FFF61CAF5248DE
:10223000B0F91200404200EE100AB8EEC00ADFED1D
:10224000500A20EE200A87ED040A4B48B0F910002E
:10225000404200EE100AB8EEC00ADFED490A20EE57
:10226000200A87ED030A4448B0F90E00404200EE10
:10227000100AB8EEC00ADFED420A20EE200A87ED10
:10228000050A404890ED000A3F4880ED000A3A48B0
:1022900090ED110AB1EE400A3A4880ED000A90ED47
:1022A000000A3948D0ED000A30EE600ADFED370A47
:1022B000B4EEE00AF1EE10FA05DB35480068401E86
:1022C0003349086013E02F4890ED000A2E48D0ED06
:1022D000000A30EE600ADFED2F0AB4EEE00AF1EEFC
:1022E00010FA04D82A480068401C294908602A4886
:1022F00090ED000A294880ED000A1F4890ED080A79
:10230000254880ED000A90ED000A2448D0ED000A2F
:1023100030EE600ADFED1D0AB4EEE00AF1EE10FACD
:1023200005DB1F480068401E1D49086013E01A487D
:1023300090ED000A1948D0ED000A30EE600ADFED9A
:10234000150AB4EEE00AF1EE10FA04D81448006859
:10235000401C1349086025E0580000204F4B000046
:102360005C0000206E6577207061636B6574206986
:1023700074656D7300000000842400200AD7233C9C
:10238000CDCCCC3D64000020600000200000A543BF
:10239000780000200000A5C36C0000206800002029
:1023A0007C000020314800684FF4B471484300EECF
:1023B000100AB8EEC00A2E48D0ED000A30EE200A0E
:1023C00087ED000A2B4890ED000A2B4880ED000AAB
:1023D0002A4890ED090A274880ED000A90ED000A8E
:1023E0002548D0ED000A30EE600A5FED180AB4EE21
:1023F000E00AF1EE10FA05DB21480068401E204992
:10240000086013E01B4890ED000A1B48D0ED000A5D
:1024100030EE600A5FED210AB4EEE00AF1EE10FA48
:1024200004D817480068401C154908601548006822
:102430004FF4B471484300EE100AB8EEC00A1248D7
:10244000D0ED000A30EE200A87ED010A0B4890ED2E
:10245000100ADFED0E0A30EE200A87ED020A90ED39
:102460000F0A87ED000ABDE8F88300007C00002019
:102470006C000020740000207000002084240020E4
:10248000800000207800002064000020A4709540A7
:1024900030B5034605E013F8010B80EA0204B048AA
:1024A000025D081EA1F10101F5D1104630BD70B5E5
:1024B00005460C4600260DB1022C01D8002070BD47
:1024C000611EFF222846FFF7E3FF0646601E285CD8
:1024D000B04201D10120F2E70020F0E770B50546D7
:1024E0000C4600260DB1022C00D870BD611EFF22E3
:1024F0002846FFF7CDFF0646601E2E5400BFF4E7C6
:1025000030B5034613B94FF6FF7030BD09E013F83C
:10251000014B82EA0400C0B2924D35F8100080EA07
:102520002222081EA1F10101F1D11046EDE770B59C
:1025300005460C4600260DB1022C01D8002070BDC6
:10254000A11E894802882846FFF7DAFF0646F1B245
:10255000A01E285C814206D1601E285CB0EB162FBD
:1025600001D10120EBE70020E9E770B505460C46F4
:1025700000260DB1022C00D870BDA11E7A48028839
:102580002846FFF7BDFF0646A01E2E54310A601EE6
:10259000295400BFF0E770B504460D4600260CB183
:1025A000022D01D8FF2070BDFF2229462046FFF7EB
:1025B0006FFFF8E72DE9FC5F054688460024A34637
:1025C000C8E015F80490601C295CA01C285C41EA56
:1025D0000026601D295CA01D285C41EA002A2819FC
:1025E000C71D28190168009100798DF8040006F1D3
:1025F00009001FFA80FBB9F1A50F6ED105216846CD
:10260000FFF755FF002868D028195946FFF78FFFBC
:102610000028F8D0BAF5017F69D012DC40F203112E
:10262000AAEB01008A452BD006DCBAF1010F1AD0C3
:10263000BAF1030F72D11CE0FE2828D0FF28F9D18F
:102640004CE0BAF5027F6BD006DCAAF20620002827
:1026500054D0012879D158E0AAF20130002866D080
:10266000022872D16AE032463946404803F00AF83F
:102670006CE0324639463D480C3003F003F865E023
:10268000324639463948363002F0FCFF5EE01B2EF8
:1026900022D1324639463548393002F0F3FF33480B
:1026A00090F83900012809DB304890F839000728F4
:1026B00004DC02202D4981F8C5000DE02B4890F87C
:1026C00039000B2808DB294890F83900112803DC71
:1026D0000120264981F8C50038E038E0102E05D1E8
:1026E000324639462148543002F0CCFF2EE0012E0C
:1026F00003D138781D4981F8740027E03246394605
:102700001A48763002F0BEFF20E0072E05D132468F
:1027100039461648773002F0B5FF17E015E0FFE7BD
:102720003246394611487E3002F0ACFF0EE03246A8
:1027300039460E48843002F0A5FF07E0324639469C
:102740000A48AC3002F09EFF00E000BF00BF04EB7F
:102750000B0084B2A0453FF734AFBDE8FC9F0000FA
:102760009B6900089C6A000884000020F022002079
:1027700010B503462BB1087828B901200870521C07
:1027800001E000200870107800EBD0746410A0EB1A
:1027900044040CB9002010BD0120FCE7CB8A0340A3
:1027A0000BB1012300E000231370704710B50446FD
:1027B00004F1280221460120FFF7F0FF04F129026D
:1027C00021460420FFF7EAFF04F12A0221460220F5
:1027D000FFF7E4FF04F12B0221460820FFF7DEFF9C
:1027E00004F12C0221461020FFF7D8FF04F12E023D
:1027F00021462020FFF7D2FF04F12F02214640207E
:10280000FFF7CCFF04F1300221468020FFF7C6FF1E
:1028100004F1310221464FF48070FFF7BFFF04F14D
:10282000320221464FF40070FFF7B8FF04F1330283
:1028300021464FF48060FFF7B1FF04F134022146D6
:102840004FF40060FFF7AAFF04F12D0221464FF478
:102850008050FFF7A3FF04F1350221464FF40050EA
:10286000FFF79CFF04F1360221464FF48040FFF74A
:1028700095FF04F1370221464FF40040FFF78EFF29
:1028800094F828008F4A9049FFF772FF38210855C5
:102890002921085D8D4A8E49FFF76AFF39210855C5
:1028A0002A21085D8B4A8C49FFF762FF3A210855BF
:1028B0002B21085D894A8A49FFF75AFF3B210855B9
:1028C0002C21085D874A8849FFF752FF3C210855B3
:1028D0002E21085D854A8649FFF74AFF3E210855AB
:1028E0002F21085D834A8449FFF742FF3F210855A5
:1028F0003021085D814A8249FFF73AFF402108559F
:102900003121085D7F4A8049FFF732FF4121085598
:102910003221085D7D4A7E49FFF72AFF4221085592
:102920003321085D7B4A7C49FFF722FF432108558C
:102930003421085D794A7A49FFF71AFF4421085586
:102940002D21085D774A7849FFF712FF3D21085590
:102950003521085D754A7649FFF70AFF452108557C
:102960003621085D734A7449FFF702FF4621085576
:102970003721085D714A7249FFF7FAFE4721085571
:1029800010BD817AC176017FC27E891A4177C27EED
:102990000277417F01290ED1016A491C0162016A57
:1029A00001EBD1725210A1EB420212B900228277E0
:1029B00001E001228277417F02290ED1416A491C40
:1029C0004162416A01EBD1725210A1EB420212B98D
:1029D0000022C27701E00122C2777047C17A012943
:1029E00001D1817608E0C17A032901D1817603E023
:1029F000C17A022900D18176704710B5044604B926
:102A000010BD2078617840EA0120C0F30A004D49EA
:102A100008806078C010A17840EA4110C0F30A0035
:102A200048494880A0788011E17840EA8100217906
:102A300040EA8120C0F30A00424988802079401092
:102A4000617940EAC110C0F30A003E49C880207C89
:102A5000617C40EA0120C0F30A003A4908816079AC
:102A60000011800888726079C0F30110C872A079E3
:102A7000E17940EA012000B232498881207A617A06
:102A800040EA012001B22F48C181A07AE17A40EAF0
:102A9000012001B22B480182217B0175617B4175C8
:102AA000A07BE17B40EA01202649C8820846FFF767
:102AB00095FF2448FFF765FF2248FFF777FE00BF28
:102AC0009EE700008700002086000020890000208B
:102AD000880000208B0000208A0000208D0000204C
:102AE0008C0000208F0000208E000020910000202C
:102AF000900000209300002092000020950000200C
:102B000094000020970000209600002099000020EB
:102B1000980000209B0000209A0000209D000020CB
:102B20009C0000209F0000209E000020A1000020AB
:102B3000A0000020A3000020A2000020A50000208B
:102B4000A4000020DC230020F0B58BB004460D4625
:102B500016461F460121084602F0E4F90121480605
:102B600002F029FA09220B21964801F0C8FF092238
:102B70000C21944801F0C3FF4FF4C050099002208B
:102B80008DF8280009A98F4801F02EFF14208DF838
:102B9000040003208DF8050001208DF806008DF853
:102BA000070001A800F063FF874800F0CBFF06A8EC
:102BB00001F0ECF800208DF81E0001208DF81F00B8
:102BC00000208DF820008DF821008DF822008DF86E
:102BD00023008DF81A708DF81B008DF81C508DF8AD
:102BE0001D40ADF8186006A9774800F0C4FF00202A
:102BF0008DF812008DF8130001208DF814000020CC
:102C0000ADF80800ADF80A00ADF80C00ADF80E0004
:102C1000ADF8100001208DF8150002A801F035F87C
:102C200001220221684801F02FFB0BB0F0BD10B566
:102C30000121654801F090FB18B10121624801F0C3
:102C400026FC10BD00B585B002215F4801F084FB71
:102C500088B104215C4801F01AFC5C495A4801F033
:102C600058FB6A460021584801F0F3F900BF684656
:102C7000FEF714FC00BF05B000BDF0B58BB00446F4
:102C80000D4616461F460121022002F04BF9012194
:102C9000880602F090F909220C214D4801F02FFF1F
:102CA00009220D214A4801F02AFF4FF440500290BA
:102CB00002208DF80C0002A9454801F095FE402045
:102CC0008DF8040003208DF805008DF80600012022
:102CD0008DF8070001A800F0CAFE3F208DF804001F
:102CE00003208DF805008DF8060001208DF80700FF
:102CF00001A800F0BCFE374800F024FF08A801F04E
:102D000045F800208DF8260001208DF827000020CE
:102D10008DF828008DF829008DF82A008DF82B00F9
:102D20008DF822008DF823008DF824508DF8254071
:102D3000ADF8206008A9274800F01DFF0E208DF88F
:102D40001A0000208DF81B0001208DF81C000020C7
:102D5000ADF81000ADF81200ADF81400ADF8160093
:102D6000ADF8180001208DF81D0004A800F08DFFBB
:102D700001220221174801F087FA0BB0F0BD10B50F
:102D80000121144801F0E8FA18B10121114801F0BD
:102D90007EFB10BD00B585B002210E4801F0DCFAC3
:102DA00068B102210B4801F072FB6A460021094814
:102DB00001F04FF900BF6846FEF77DFB00BF05B08C
:102DC00000BD000000000240006400400800003226
:102DD000000402400068004010B596B0044601218E
:102DE000022002F09FF80121880502F09BF80121E2
:102DF000102002F0F1F807221146FE4801F07FFE94
:102E000014A801F039FE8020149002208DF854009F
:102E100000208DF8550001208DF8570014A9F548C1
:102E200001F0E2FDF44802F0D1F910A802F09BFA9B
:102E300010940020ADF84400ADF846004FF48060D7
:102E4000ADF848000420ADF84A000020ADF84C0071
:102E500010A9E94802F021FA01224021E64802F0D7
:102E600051FBE64801F066FB684601F02EFC4FF08E
:102E700000600090E048001D0190E14802900020B1
:102E8000039040200490002005904FF4806006904D
:102E90000020079008904FF48070099000020A907B
:102EA00000200B900C900D900E906946D34801F0D5
:102EB000E3FB0022D2494031D04801F03EFC012121
:102EC000CE4801F046FC0121CC4801F00FFC252042
:102ED0008DF83C0000208DF83D008DF83E0001206B
:102EE0008DF83F000FA800F0C2FD012240F22441FE
:102EF000C14802F010FB0121BF4802F056FA16B09B
:102F000010BD10B540F22441BB4802F03FFB002841
:102F100057D0B9480088B8488088B84801F029FCE3
:102F200040BB0021B54801F0E1FBB649B34801F0D0
:102F300056FCB24801F0FDFBC0F14000B249086008
:102F40004020AE49091D0860081F006840F40020B9
:102F5000091F08600121A94801F0C8FBAA480068C0
:102F600012282ED1A648FFF748FD00BFA448FFF75E
:102F700044FD26E00021A14801F0B8FBA1499F488B
:102F800001F02DFC9D4801F0D4FBC0F140009E49AA
:102F9000086040209949091D0860081F006820F456
:102FA0000020091F08600121944801F09FFB96480A
:102FB0000068122805D100BF91484030FFF71DFD81
:102FC00000BF10BD10B596B004460121084601F0BF
:102FD000A9FF0121480501F0A5FF0121480401F0E6
:102FE000EAFF07220221894801F089FD14A801F0B7
:102FF00043FD0420149002208DF8540000208DF829
:10300000550001208DF8570014A9804801F0ECFC10
:103010007F4802F0DBF810A802F0A5F91094002018
:10302000ADF84400ADF846004FF48060ADF84800BC
:103030000420ADF84A000020ADF84C0010A97448F7
:1030400002F02BF9012240216B4802F05BFA714833
:1030500001F070FA684601F038FB4FF00060009014
:103060006B48001D01906C48029000200390642082
:103070000490002005904FF4806006900020079097
:1030800008904FF48070099000020A9000200B9085
:103090000C900D900E9069465E4801F0EDFA00220A
:1030A0005D4964315B4801F048FB0121594801F05A
:1030B00050FB0121574801F019FB26208DF83C00F8
:1030C00000208DF83D008DF83E0001208DF83F0076
:1030D0000FA800F0CCFC012240F224414C4802F041
:1030E0001AFA01214A4802F060F916B010BD10B575
:1030F00040F22441464802F049FA002852D04448A0
:1031000000884348001D00883C4801F032FB20BB8A
:103110000021404801F0EAFA40493E4801F05FFBD7
:103120003C4801F006FBC0F164003D4908606420A2
:103130003849091D086037488838D0F8880040F4BD
:103140000020091F08600121324801F0CFFA3448FD
:103150000068122826D100BF24E000212D4801F08C
:10316000C5FA2E492B4801F03AFB2A4801F0E1FA52
:10317000C0F164002A49086064202649091D0860DE
:1031800024488838D0F8880020F40020091F0860FF
:103190000121204801F0AAFA21480068122801D133
:1031A00000BF00BF10BD10B596B00446012102203B
:1031B00001F0B8FE0121880401F0FDFE012148055F
:1031C00001F0B0FE07220A210A4801F098FC07220C
:1031D0000B21084801F093FC02208DF844000320E5
:1031E0008DF8450000208DF8460001208DF847003D
:1031F000800217E0000402400010014040640240D9
:10320000CC24002000003010B0000020000002405C
:1032100000440040886002408C250020000C002003
:10322000B4000020109010A9FE4801F0DDFB4FF41F
:103230000060109010A9FB4801F0D6FB27208DF804
:10324000000002208DF8010001208DF802008DF8A9
:103250000300684600F00BFC12940020ADF84C000F
:10326000ADF84E00ADF85000ADF854000C20ADF8AC
:10327000520012A9EC4802F010F8012240F2244159
:10328000E94802F048F95021E74802F076F9642055
:10329000059000200C900D900E9009904FF48060E6
:1032A000079080100A90E048001D029000200F90C7
:1032B000089006904FF400300B908002019000209F
:1032C0000490DA48039001A9D94801F0D5F9012109
:1032D000D74801F00BFA01224021D34802F012F93D
:1032E0000121D14802F061F816B010BD10B540F2CE
:1032F0002441CD4802F04AF9F8B1CB4802F084F8F5
:1033000040F22441C84802F07CF90021C84801F08D
:10331000EDF900224021C44802F0F4F800BFC5498D
:10332000C248FEF765FC00BF01224021BE4802F002
:10333000E9F80121BE4801F0D9F910BD10B596B0E9
:1033400004460121042001F0EDFD0121C80401F033
:1033500032FE08220A21B84801F0D1FB08220B21D5
:10336000B54801F0CCFB0121480501F0DBFD4FF42D
:103370004060109002208DF8440000208DF8460037
:1033800003208DF8450001208DF8470010A9AA48B8
:1033900001F02AFB12940020ADF84C00ADF84E006D
:1033A000ADF850000C20ADF852000020ADF85400EC
:1033B00012A9A24801F071FF012240219F4802F0AA
:1033C000A1F89B48183001F0B5F8684601F07DF986
:1033D0004FF0006000909948001D019098480290BD
:1033E0000020039064200490002005904FF480603A
:1033F000069000200790089009904FF480300A90C2
:1034000000200B900C900D900E9069468848183063
:1034100001F032F901218648183001F067F93420B3
:103420008DF83C0003208DF83D008DF83E00012012
:103430008DF83F000FA800F01AFB012280217F4881
:1034400002F060F800217A48483001F04FF97848DE
:10345000483001F06FF800BF7548483001F093F92B
:103460000028F9D14FF0006000907448001D0190D1
:1034700074480290402003900020049005904FF47F
:103480008060069000200790089009904FF48030EB
:103490000A9000200B9003200C9000200D900E90BD
:1034A00069466348483001F0E7F80F208DF83C008A
:1034B00003208DF83D008DF83E0001208DF83F007F
:1034C0000FA800F0D4FA012210215948483001F029
:1034D0009AF9012240F22441584802F01CF80121D7
:1034E000564801F062FF16B010BD10B5002440F23E
:1034F0002441524802F04AF808B3504800884F4827
:10350000001D008800214A48183001F0EFF84E49AC
:103510004748183001F063F94548183001F009F9BF
:10352000C0F16400C4B200BF00BF6421404818303D
:1035300001F0FDF801213E48183001F0D7F810BD28
:1035400070B504460D462946204601F0F0F80121E9
:10355000204601F0CBF870BD10B53C4934484830E6
:1035600001F021F948B100213148483001F0BEF89E
:1035700036492F48483001F032F910BD70B5044685
:103580000025304D05F8014B012129484830FFF74F
:10359000D7FF70BD2DE9F04105460E4600240027F7
:1035A000284F00BF03E0285D3855601C84B2B44248
:1035B000F9DB31461E484830FFF7C2FFBDE8F08115
:1035C00010B596B004460121042001F0ABFC0121A6
:1035D000082001F0A7FC0121080501F0ECFC012105
:1035E000480501F09FFC02208DF8540000208DF862
:1035F00056004FF48050149001208DF8570003209E
:103600008DF8550014A90C4801F0EEF902208DF850
:10361000540000208DF856000420149001208DF8ED
:10362000570015E00004024000480040B826002082
:1036300028600240B01B002000080240004C0040FF
:103640001C270020802700200000301020000020D0
:1036500003208DF8550014A9F34801F0C5F908229C
:103660000C21F24801F04BFA08220221EE4801F049
:1036700046FA10940020ADF84C000C20ADF84A003A
:103680000020ADF84800ADF84600ADF8440010A9A0
:10369000E74801F002FE0121E54801F086FE012223
:1036A0004021E34801F02EFF684601F00EF8E148A2
:1036B00002904FF40070049080040090DC48001DDC
:1036C00001900020039005904FF480600690002048
:1036D0000890079009904FF480300A9000200B90DA
:1036E0000C900D900E906946D34800F0C5FF012163
:1036F000D14800F0FBFF0022D049CF4801F01DF86F
:103700000121CD4801F025F835208DF83C0001203D
:103710008DF83F008DF83D0002208DF83E000FA887
:1037200000F0A5F9012240F22441C14801F0F3FE66
:103730000121BF4801F039FE01228021BC4801F07F
:10374000E1FE0021BC48A83000F0D0FFBA48A83004
:1037500000F0F0FE00BFB848A83001F014F80028CF
:10376000F9D14FF000600090B148001D0190B448BD
:1037700002904020039042200490002005904FF4D6
:103780008060069000200790089009900A900B90A6
:1037900003200C9000200D900E906946A648A8309A
:1037A00000F06AFF0121A448A83000F09FFF2F20FD
:1037B0008DF83C0002208DF83D0001208DF83E0080
:1037C0008DF83F000FA800F052F916B010BD70B58B
:1037D00004460D460021204600F088FF00BF204629
:1037E00000F0D1FF0028FAD12946204600F09FFFC3
:1037F0000121204600F07AFF70BD10B540F224414F
:103800008B4801F0C3FE00285AD0894800888848B8
:103810008088894800F0ADFF48BB0021864800F051
:1038200065FF8849844800F0DAFF834800F081FF93
:10383000C0F50070844908604FF400717E4800F0C4
:1038400076FF4FF400227D497B4800F08DFF012177
:10385000794800F04BFF7C480068092830D900BF48
:103860007948008881B27348FEF7A4FE28E0002161
:10387000714800F03BFF73496F4800F0B0FF6E489D
:1038800000F057FFC0F500706F4908604FF40071F9
:10389000694800F04CFF00226649674800F064FF69
:1038A0000121654800F022FF67480068092807D910
:1038B00000BF6548008881B26048FEF77BFE00BF0C
:1038C00010BD10B596B004460121042001F02AFB7A
:1038D0000121880501F026FB0121202001F07CFB5D
:1038E00008220621514801F00AF9082207214F4811
:1038F00001F005F9C020109002208DF8440000204E
:103900008DF8460002208DF8450000208DF8470014
:1039100010A9464801F068F84C4801F057FC129491
:103920000020ADF84C00ADF84E00ADF850000C2072
:10393000ADF852000020ADF8540012A9434801F040
:10394000ACFC01224021414801F0DCFD404800F080
:10395000F1FD4FF0206000903C48001D01903D4873
:1039600002900020039064200490002005904FF402
:103970008060069000200790089009904FF48030F6
:103980000A9000200B900C900D900E9069463048E4
:1039900000F072FE01212E4800F0A8FE47208DF8AD
:1039A0003C0003208DF83D008DF83E0001208DF88D
:1039B0003F000FA800F05BF8012240F224412348A9
:1039C00001F0A9FD0121214801F0EFFC16B010BD66
:1039D00010B540F224411D4801F0D8FD18B31B4832
:1039E00000881A48001D00880021194800F07EFE5A
:1039F0001949174800F0F3FE154800F09AFEC0F18F
:103A000064001649086000BF08460278144911484E
:103A1000FEF79AFA00BF64210D4800F088FE0121EC
:103A20000B4800F063FE10BD000C0240000802408D
:103A3000005000407C2A0020106002407C2C0020B6
:103A4000D829002030000010B800002000140140E8
:103A500028640240A82F0020000C0010BC000020A9
:103A6000B01B002032490143324A1160704770B5E3
:103A7000002100230F22C4781CB32E4C246804F4C8
:103A8000E064C4F5E064C4F30721C1F10404E3B2C7
:103A90000A4144789C40E1B28478144021430C07E9
:103AA000210E254C05786155047804F01F0501248A
:103AB000AC4005786D11AD0005F1E025C5F8004179
:103AC00009E0047804F01F050124AC401B4D067882
:103AD000761145F8264070BD194A0A400243154B3D
:103AE0001B1F1A60704739B1124A121D1268024337
:103AF000104B1B1D1A6006E00E4A121D126882430D
:103B00000C4B1B1D1A607047042808D14FF0E021B0
:103B1000096941F004014FF0E022116107E04FF024
:103B2000E021096921F004014FF0E02211617047A2
:103B30000000FA050CED00E000E400E080E100E0A8
:103B400080FFFF1F10B50446FE48844209D10121C1
:103B5000480601F085FA00214FF0007001F080FA6C
:103B600008E00121880601F07BFA00214FF0806017
:103B700001F076FA10BD30B502460020002314682B
:103B800024F002041460146844F00104146000E09E
:103B90005B1C546804F001041CB94FF6FF74A34287
:103BA000F6D1546804F001040CB900206CE08C7963
:103BB000012C04D1146844F08004146003E01468FC
:103BC00024F080041460CC79012C04D1146844F0F2
:103BD0004004146003E0146824F0400414600C7A7C
:103BE000012C04D1146844F02004146003E014682C
:103BF00024F0200414604C7A012C04D1146844F0A1
:103C00001004146003E0146824F0100414608C7A2B
:103C1000012C04D1146844F00804146003E0146813
:103C200024F008041460CC7A012C04D1146844F008
:103C30000404146003E0146824F0040414608C7815
:103C4000A407CD7844EA05640D7944EA05444D792A
:103C500044EA05540D886D1E2C43D461146824F089
:103C600001041460002300E05B1C546804F00104AC
:103C70001CB14FF6FF74A342F6D1546804F001045E
:103C80000CB1002000E0012030BD10B50021837A86
:103C9000012202FA03F1AC4A126842F00102AA4B77
:103CA0001A60A94A1C3212688A43A74B1C331A6057
:103CB000027BCAB9A44A0C3212688A43A24B0C3365
:103CC0001A604288C38842EA03439F4A4032847A9A
:103CD00042F834300288838842EA03439A4A4032E9
:103CE000847A02EBC4025360027B012A19D1964AFE
:103CF0000C3212680A43944B0C331A6042880388D2
:103D000042EA0343904A4032847A42F83430C2880F
:103D1000838842EA03438C4A4032847A02EBC4022D
:103D20005360C27A3AB9884A121D12688A43864B98
:103D30001B1D1A6006E0844A121D12680A43824B5A
:103D40001B1D1A60028932B97F4A143212688A43F5
:103D50007D4B14331A600289012A06D17A4A143243
:103D600012680A43784B14331A60427B012A06D149
:103D7000754A1C3212680A43734B1C331A60724A2C
:103D8000126822F00102704B1A6010BD002181718F
:103D9000C171017241728172C1728170C17003215F
:103DA0000171022141710121018070476649096852
:103DB00041F00101644A11601146096843F60E7230
:103DC0009143614A11601146096841EA002111607E
:103DD0001146096821F001011160704721B10268A4
:103DE00042F48032026003E0026822F48032026012
:103DF0007047E1B1026842F0800202604FF4C27283
:103E0000125842F480734FF4C27213504FF4CA72C6
:103E1000125842F480734FF4CA7213504FF4D272A6
:103E2000125842F480734FF4D27213501BE00268B0
:103E300022F0800202604FF4C272125822F48073A2
:103E40004FF4C27213504FF4CA72125822F48073A6
:103E50004FF4CA7213504FF4D272125822F4807386
:103E60004FF4D2721350704710B502460020936889
:103E700003F08063B3F1806F00D110E0936803F02A
:103E80000063B3F1006F01D1012008E0936803F0F3
:103E90008053B3F1805F01D1022000E004200428A8
:103EA00079D002F5C07303EB00131B6803F0010423
:103EB00002F5C07303EB00131C600B7A7BB94B7ADD
:103EC0000C8843EA445302F5C07404EB00142468E0
:103ED000234302F5C07404EB0014236010E00B7A56
:103EE0004C6843EAC4034C7A234302F5C07404EBE4
:103EF00000142468234302F5C07404EB001423600B
:103F00008B7A03F00F038B7202F5C07303EB00137F
:103F10005B6823F00F0402F5C07303EB00135C60D1
:103F200002F5C07303EB00135B688C7A234302F540
:103F3000C07404EB001463608B7B1C064B7B44EA6B
:103F4000034403E000640040006600400B7B44EA49
:103F50000323CC7A234302F5C07404EB0014A3605E
:103F60008B7C1C064B7C44EA03440B7C44EA032311
:103F7000CC7B234302F5C07404EB0014E36002F52C
:103F8000C07303EB00131B6843F0010402F5C07318
:103F900003EB00131C6010BD10B50246002321B1D5
:103FA000012907D002290FD109E09068F94C00EAF5
:103FB00004030BE09068F84C00EA040306E0906804
:103FC000F64C00EA040301E0002300BF00BFF44CFC
:103FD000181BA34216D007DC83B16FF08060184431
:103FE00070B1022818D111E0B0F5007F10D0ED4C6F
:103FF000204448B1B0F5003F0ED10BE002230DE0A4
:1040000000230BE0002309E0002307E0012305E083
:10401000012303E0012301E0002300BF00BFD8B269
:1040200010BD21B1012907D002290FD109E0826812
:1040300042F0800282600AE0826842F400428260BC
:1040400005E0826842F40002826000E000BF00BF29
:10405000704710B500F5D87303EB01131B6803F02C
:1040600004031372137A53B900F5D87303EB0113E9
:104070001B6840F2FF7404EA5353136009E000F533
:10408000D87303EB01131B686FF0604404EAD30399
:10409000536000F5D87303EB01131B6803F00203B0
:1040A000537200F5D87303EB01135B6803F00F0341
:1040B000937200F5D87303EB01135B681B0AD3748A
:1040C00000F5D87303EB01139B68D37200F5D87326
:1040D00003EB01139B681C0A147300F5D87303EB00
:1040E00001139B681C0C547300F5D87303EB011388
:1040F0009B681B0E937300F5D87303EB0113DB6809
:10410000D37300F5D87303EB0113DB681C0A147436
:1041100000F5D87303EB0113DB681C0C547400F535
:10412000D87303EB0113DB681B0E937421B9C368CA
:1041300043F02003C36003E0036943F020030361FD
:1041400010BD21B9C26842F02002C26003E00269DA
:1041500042F02002026170470246002019B9D3687C
:1041600003F0030006E0012903D1136903F0030003
:1041700000E00020704710B502460B4600204FF6C5
:10418000FF71BBB9146824F0020444F00104146008
:1041900000E0491E546804F00304012C01D00029FA
:1041A000F7D1546804F00304012C01D0002032E060
:1041B000012030E0012B13D1146824F003041460B3
:1041C00000E0491E546804F003040CB10029F8D142
:1041D000546804F003040CB100201CE001201AE034
:1041E000022B17D1146824F0010444F00204146077
:1041F00000E0491E546804F00304022C01D0002999
:10420000F7D1546804F00304022C01D0002002E02E
:10421000012000E0002010BD014600200A6822F0C5
:10422000010242F002020A604A6802F00302022A16
:1042300000D10120704701464FF6FF7200200B6845
:1042400023F002030B6000E0521E4B6803F00203F0
:10425000022B01D1002AF7D14B6803F00203022B95
:1042600000D001207047014600208A6902F07000EA
:104270007047014600208A69100E704701460020F1
:104280008A69C2F3074070471AB143690B4343611F
:1042900002E043698B434361704710B5024600203A
:1042A00001F4700343B19369C1F3130423400BB1CC
:1042B00001202DE000202BE001F0807343B1536812
:1042C000C1F3130423400BB1012021E000201FE0C3
:1042D00001F0006343B19368C1F3130423400BB1B1
:1042E000012015E0002013E001F0007343B1D36812
:1042F000C1F3130423400BB1012009E0002007E0C3
:104300001369C1F3130423400BB1012000E0002026
:1043100010BD0022244B994202D10023836111E099
:10432000C1F3130201F000730BB1C2600AE001F0A7
:1043300080630BB1026105E001F000630BB18260A4
:1043400000E0426070470246002002EA01030BB120
:10435000012000E00020704770B504460D4600269D
:1043600060692840002872D0B5F5807F69D01DDCD7
:10437000082D42D006DC012D2DD0022D31D0042D88
:104380007FD134E0102D3ED0202D42D0402D78D169
:1043900045E00000030000040003000800000310D3
:1043A000000100080001FFF77000F030B5F5004F84
:1043B00061D009DCB5F5007F4AD0B5F5806F4DD0EE
:1043C000B5F5006F5DD150E0B5F5803F2DD0B5F566
:1043D000003F56D12FE0A0685549FFF7B4FF0646CD
:1043E00051E0E0680321FFF7AEFF06464BE0E068CE
:1043F0000821FFF7A8FF064645E0E0681021FFF717
:10440000A2FF06463FE020690321FFF79CFF064616
:1044100039E020690821FFF796FF064633E020695E
:104420001021FFF790FF06462DE060680821FFF796
:104430008AFF064627E060681021FFF784FF0646E2
:1044400021E0A0690121FFF77EFF06461BE01BE08B
:10445000A0690221FFF777FF064614E0A069042156
:10446000FFF771FF06460EE00BE0A0697021FFF731
:104470006AFF064607E060680421FFF764FF06460E
:1044800001E0002600BF00E00026304670BDB1F517
:10449000007F3AD00FDC202928D006DC01291CD06F
:1044A00004291DD0082940D11DE0402921D0B1F5B3
:1044B000807F3AD126E0B1F5004F31D006DCB1F56E
:1044C000806F25D0B1F5006F2FD124E0B1F5803F8A
:1044D00012D0B1F5003F28D111E0154A826025E0E5
:1044E0000822C26022E01022C2601FE0082202619E
:1044F0001CE01022026119E00822426016E010223E
:10450000426013E00422426010E0042242600DE0A9
:10451000042242600AE0002282610422426005E037
:10452000002282610422426000E000BF00BF7047A9
:1045300001010100016821F0010101600021016019
:1045400041608160C160016121214161DB49884294
:1045500004D13D21D94A103A91608CE0D7491831F5
:10456000884205D14FF47461D44A103A916082E0D8
:10457000D2493031884205D14FF47411CF4A103AF4
:10458000916078E0CD494831884205D14FF074619F
:10459000CA4A103A91606EE0C8496031884204D13D
:1045A000C749C64A103AD16065E0C44978318842AB
:1045B00004D1C449C14A103AD1605CE0BF4990318E
:1045C000884204D1C049BD4A103AD16053E0BB498A
:1045D000A831884205D14FF03D51B84A103AD16018
:1045E00049E0BA49884204D13D21B84A083A1160ED
:1045F00041E0B6491831884205D14FF47461B34A9D
:10460000083A116037E0B1493031884205D14FF4A2
:104610007411AE4A083A11602DE0AC494831884225
:1046200005D14FF07461A94A083A116023E0A74907
:104630006031884204D1A249A44A121F11601AE0D5
:10464000A2497831884204D19E49A04A121F1160C4
:1046500011E09E499031884204D19B499B4A121F28
:10466000116008E09949A831884204D14FF03D51CA
:10467000964A121F1160704710B500220268944BD1
:104680001A40CC680B6823434C6923438C6923434D
:10469000CC6923430C6A23434C6A23438C6A23432B
:1046A0004C6B23438C6B23431A430260426922F014
:1046B0000702D1E90B3423431A4342610B6943607B
:1046C0004B6883608B68C36010BD0021016041604E
:1046D0008160C160016141618161C16101624162CA
:1046E0008162C162016341638163704721B10268E5
:1046F00042F00102026003E0026822F0010202605F
:10470000704721B1026842F40042026003E002688F
:1047100022F400420260704721B1026842F0200298
:10472000026003E0026822F02002026070474160EC
:1047300070470146486880B2704722B1036843F46D
:104740000023036003E0036823F400230360016196
:10475000704721B1026842F48022026003E00268DF
:1047600022F48022026070470AB1016100E0C1605A
:104770007047014600200A6802F400220AB10120B5
:1047800000E000207047014600200A6802F00102A4
:104790000AB1012000E000207047014600204A696C
:1047A00002F03800704730B503460A460020002466
:1047B000464DAB4202D24149103901E0434910391C
:1047C00002F000550DB14C6800E00C68414D2C40E2
:1047D00004EA02050DB1012000E0002030BD0246D0
:1047E0003A4B9A4202D23548103801E03748103827
:1047F00001F000531BB1374B0B40C36002E0354B57
:104800000B408360704710B501F080034BB122B1BB
:10481000436943F08003436103E0436923F080036D
:10482000436180290BD02AB1036801F01E042343A1
:10483000036004E0036801F01E04A343036010BD9D
:1048400070B50246002000240025204EB24202D25C
:104850001A4B103B01E01D4B103B1F4E0E4036B172
:104860001E2606EAD124166806EA040502E0566907
:1048700006F0800501F000560EB15C6800E01C688F
:10488000144E344004EA010616B10DB1012000E0D7
:10489000002070BD02460D4B9A4202D207481038E4
:1048A00001E00A48103801F000531BB1094B0B40DE
:1048B000C36002E0074B0B4083607047106002400A
:1048C0003D000020400F002000003D201064024009
:1048D0003F801CF07D0F7D0F3C0F3C0F10B5044650
:1048E0009848844208D10121084600F086FB002147
:1048F000012000F082FB76E09348844208D1012138
:10490000022000F07AFB0021022000F076FB6AE032
:104910008E48844208D10121042000F06EFB002162
:10492000042000F06AFB5EE08948844208D101213E
:10493000082000F062FB0021082000F05EFB52E03E
:104940008448844208D10121102000F056FB002148
:10495000102000F052FB46E07F48844208D101213C
:10496000202000F04AFB0021202000F046FB3AE026
:104970007A48844208D10121402000F03EFB00210A
:10498000402000F03AFB2EE07548844208D1012116
:10499000802000F032FB0021802000F02EFB22E07E
:1049A0007048844208D10121801500F026FB0021C7
:1049B000A01500F022FB16E06B48844208D10121CB
:1049C000401500F01AFB0021601500F016FB0AE00C
:1049D0006648844207D10121001500F00EFB00213A
:1049E000201500F00AFB10BDF0B50A460021002397
:1049F000002400BF3DE0012505FA01F3156805EA32
:104A000003049C4234D105684F000326BE40B543E1
:104A1000056015794E00B540066835430560157987
:104A2000012D02D01579022D16D185684F0003267D
:104A3000BE40B543856055794E00B5408668354324
:104A40008560456801268E40B54345604568967986
:104A50008E40B6B235434560C5684F000326BE4060
:104A6000B543C560D5794E00B540C6683543C560CD
:104A7000491C1029BFD3F0BD4FF6FF710160002122
:104A8000017141718171C171704708B54FF4803275
:104A90000092009A0A430092009AC261C161009A92
:104AA000C261C2690092C269009208BD024600203C
:104AB00013690B400BB1012000E000207047014654
:104AC000086980B270470246002053690B400BB161
:104AD000012000E0002070470146486980B270471D
:104AE00001837047418370470AB1018300E041832D
:104AF00070474161704742694A4042617047F0B572
:104B0000002300244D07ED0E02FA05F3CE1000F14C
:104B1000200555F826504E07F70E0F26BE40B54328
:104B2000CF1000F1200646F82750CE1000F12005E6
:104B300055F8265045EA0304CE1000F1200545F84B
:104B40002640F0BD00000240000402400008024080
:104B5000000C024000100240001402400018024005
:104B6000001C0240002002400024024000280240B5
:104B7000F948006840F00100F74908600020F64954
:104B800008310860F4480068F4490840F2490860B8
:104B9000F348091D0860F348EF4984310860F04884
:104BA0001038091D0860EC48006820F48020EA49AC
:104BB00008600020E8490C310860E7498C31086042
:104BC00070470021E44A921C11701146087070472A
:104BD00010B501460022002300204A11012A02D10B
:104BE000DD4C236808E0022A03D1DB4C70342368D3
:104BF00002E0D94C7434236801F01F020124944070
:104C00001C400CB1012000E0002010BD38B5002090
:104C100000900024002500BF3120FFF7D9FF054692
:104C20000098401C00900098B0F5A06F01D0002DB6
:104C3000F2D03120FFF7CCFF08B1012400E00024BE
:104C4000204638BD01460020C34A106820F0F80015
:104C500040EAC10010607047C349086070470021F6
:104C6000BD4A703211701170012802D004280AD197
:104C700004E00121B84A7032117005E00521B64AFE
:104C80007032117000E000BF00BF7047B749086084
:104C9000704770B5049C41EA82150126C6EB5306A5
:104CA00045EA0645054345EA0465AB4E361D3560C9
:104CB00070BDAD4908667047820142EA0172A64B99
:104CC00084331A607047A8498866704710B583011D
:104CD00043EA016343EA02739F4C8834236010BDAA
:104CE000A14908677047A049C86470470246002080
:104CF000994B0833186820F0EC6042EA010318432E
:104D0000954B08331860704702460020924B0833D9
:104D1000186820F0784042EA010318438E4B0833AC
:104D200018607047014600208B4A0832106820F056
:104D3000030008431060704787480830006800F09F
:104D40000C00704701460020834A0832106820F0AA
:104D5000F000084310607047014600207E4A083288
:104D6000106820F4E05008431060704701460020AE
:104D7000794A0832106820F4604040EAC1001060AF
:104D80007047F0B5002100220024022500260223EE
:104D9000714F08373F6807F00C0121B1042905D095
:104DA000082937D105E0724F076036E0714F076080
:104DB00033E0694F3F1D3F68C7F38056664F3F1D84
:104DC0003F6807F03F036EB16A4FB7FBF3F7DFF8B8
:104DD00088C10CF1040CDCF800C0CCF3881C07FB84
:104DE0000CF40CE0624FB7FBF3F7DFF86CC10CF189
:104DF000040CDCF800C0CCF3881C07FB0CF4564F05
:104E00003F1D3F68C7F301477F1C7D00B4FBF5F7EA
:104E1000076002E0564F076000BF00BF4E4F0837E3
:104E20003F6807F0F0010909534F7A5C0768D740E3
:104E30004760494F08373F6807F4E051890A4E4FF1
:104E40007A5C4768D7408760434F08373F6807F46C
:104E50006041490B484F7A5C4768D740C760F0BD56
:104E6000002100F44072B2F5407F0AD13A4A08327C
:104E7000116821F4F811414A02401143364A0832C0
:104E80001160354A70321268C0F30B031A43324B7B
:104E900070331A60704735494439086070473349A8
:104EA0004039086070473649086070470146002065
:104EB000294A8C32106820F01F004A1E1043264AEF
:104EC0008C321060704701460020234A8C321068F3
:104ED00020F4F8504A1E40EA02201F4A8C3210602B
:104EE0007047014600201C4A8C32106820F44010A4
:104EF00008431060704701460020174A8C32106842
:104F000020F4400008431060704701460020124A18
:104F10008C32106820F44030084310607047194903
:104F20000860704739B10C4A3032126802430A4BAC
:104F300030331A6006E0084A303212688243064B6A
:104F400030331A607047F9B1034A343212680243B1
:104F5000014B34331A601CE000380240FFFFF6EAD0
:104F6000103000240030002000004742800E4742ED
:104F70000024F40000127A00C0000020FFFCFF0FA4
:104F80005C014742E01147428F4A126882438E4BD0
:104F90001A60704739B18C4A121D126802438A4B5D
:104FA0001B1D1A6006E0884A121D12688243864B58
:104FB0001B1D1A60704739B1834A0C3212680243D4
:104FC000814B0C331A6006E07F4A0C321268824330
:104FD0007D4B0C331A60704739B17B4A103212682E
:104FE0000243794B10331A6006E0774A1032126898
:104FF0008243754B10331A60704739B1724A243AB4
:1050000012680243704B243B1A6006E06E4A243A51
:10501000126882436C4B243B1A60704739B16A4A6C
:10502000203A12680243684B203B1A6006E0664A49
:10503000203A12688243644B203B1A60704739B1B2
:10504000614A1C3A126802435F4B1C3B1A6006E03F
:105050005D4A1C3A126882435B4B1C3B1A607047E6
:1050600039B1594A143A12680243574B143B1A603B
:1050700006E0554A143A12688243534B143B1A60B7
:10508000704739B1504A103A126802434E4B103BF8
:105090001A6006E04C4A103A126882434A4B103BB1
:1050A0001A60704739B1484A1C3212680243464BB5
:1050B0001C331A6006E0444A1C3212688243424B99
:1050C0001C331A60704739B13F4A203212680243DC
:1050D0003D4B20331A6006E03B4A2032126882437F
:1050E000394B20331A60704739B1374A243212687D
:1050F0000243354B24331A6006E0334A24321268E7
:105100008243314B24331A60704739B12E4A2C3216
:10511000126802432C4B2C331A6006E02A4A2C32C8
:1051200012688243284B2C331A60704739B1264AE3
:10513000303212680243244B30331A6006E0224AB0
:10514000303212688243204B30331A607047012896
:1051500008D11D493C31096841F008011A4A3C3226
:10516000116007E018493C31096821F00801164A2E
:105170003C321160704739B1134A273A1278024322
:10518000114B273B1A7006E00F4A273A12788243E8
:105190000D4B273B1A7070470B484030006840F0B9
:1051A0008070094940310860704701460020064A76
:1051B000283A12680A400AB1012000E00020704736
:1051C00001492639087070473438024010B504464A
:1051D000FA48844208D101211020FFF752FF002134
:1051E0001020FFF74EFF57E0F548844209D1012116
:1051F0004804FFF735FF00214FF40030FFF730FF80
:105200004AE0F048844209D101218804FFF728FFD1
:1052100000214FF48020FFF723FF3DE0EA4884425D
:1052200009D10121C804FFF71BFF00214FF4002022
:10523000FFF716FF30E0E548844209D10121080557
:10524000FFF70EFF00214FF48010FFF709FF23E066
:10525000DF48844208D101212020FFF712FF0021FE
:105260002020FFF70EFF17E0DA48844209D1012120
:105270008807FFF7F5FE00214FF08040FFF7F0FEB2
:105280000AE0D548844207D101214005FFF7E8FE36
:1052900000216005FFF7E4FE10BD2DE9FF4705463C
:1052A0000E460024A14600BFA046B08900B100BF51
:1052B0002C8A24F44054F08804432C82AC8941F2B7
:1052C0000C608443B08831890843718908430443E2
:1052D000AC81AC8A24F44074B0890443AC82684643
:1052E000FFF74FFDB548854202D0B948854202D14B
:1052F000DDF80C9001E0DDF80890A88900F400408A
:1053000040B109EBC90000EB091031684900B0FB5E
:10531000F1F707E009EBC90000EB091031688900DB
:10532000B0FBF1F76420B7FBF0F004012009642121
:1053300001FB1078A88900F4004040B1322000EB56
:10534000C800B0FBF1F000F00700044308E0322091
:1053500000EB08106421B0FBF1F000F00F000443F3
:105360002C81BDE8FF874FF4165101600021818038
:10537000C18001810C21418100218181704710B5DC
:1053800002460020108A20F470600B884C8823436A
:105390008C882343CC8823431843108210BD0021FE
:1053A000018041808180C180704721B1828942F4AF
:1053B0000052828104E082894DF6FF731A40828197
:1053C0007047028B02F47F420283028B0A430283FE
:1053D000704721B1828942F40042828103E08289D0
:1053E000C2F30E028281704721B1828A42F40062C8
:1053F000828204E0828A4FF2FF731A4082827047F1
:10540000C1F308028280704701468888C0F3080013
:105410007047028A4FF6F0731A400282028A0A43EA
:105420000282704721B1828942F00202828104E047
:1054300082894FF6FD731A408281704782894FF24C
:10544000FF731A40828182890A4382817047028AEF
:105450004FF6DF731A400282028A0A4302827047C3
:1054600021B1028A42F48042028204E0028A4BF6B1
:10547000FF731A4002827047818941F001018181E6
:10548000704721B1828A42F00802828204E0828A57
:105490004FF6F7731A4082827047028BD2B20283B2
:1054A000028B42EA01220283704721B1828A42F0D4
:1054B0002002828204E0828A4FF6DF731A408282E1
:1054C000704721B1828A42F01002828204E0828A0F
:1054D0004FF6EF731A4082827047828A4FF6FB7351
:1054E0001A408282828A0A438282704721B1828A6C
:1054F00042F00202828204E0828A4FF6FD731A4073
:10550000828270471AB1838A0B43838202E0838AC6
:105510008B4383827047F0B50346002400260025A4
:10552000002040F66A17B94200D100BF1846C1F307
:10553000421401F01F06012707FA06F5012C01D1DC
:105540000C3004E0022C01D1103000E014301AB10C
:1055500007682F43076002E00768AF430760F0BDAC
:1055600002460020B1F5007F00D100BF13880B4038
:105570000BB1012000E00020704701F40072B2F589
:10558000007F00D100BFCA430280704770B5024659
:10559000002400230025002040F66A16B14200D105
:1055A00000BFC1F3421501F01F03012606FA03F301
:1055B000012D13D19689334017E0000000100140FF
:1055C0000044004000480040004C004000500040B3
:1055D0000014014000780040007C0040022D02D100
:1055E000168A334001E0968A33400C12012606FAEF
:1055F00004F41688344013B10CB1012000E00020FF
:1056000070BD10B50022002340F66A14A14200D1FB
:1056100000BF0A1201249440A3B2DC43048010BDF1
:105620000948804709480047FEE7FEE7FEE7FEE736
:10563000FEE7FEE7FEE7FEE7FEE7FEE70448054972
:10564000054A064B70470000BD03000889010008A9
:105650007030002070360020703200207032002040
:1056600030B505460B462A4613F8014B12F8010BDC
:1056700008B1A042F8D01CB1002802D06D1CF1E79F
:10568000284630BD032A40F2308010F0030C00F0B1
:10569000158011F8013BBCF1020F624498BF11F86C
:1056A00001CB00F8013B38BF11F8013BA2F1040225
:1056B00098BF00F801CB38BF00F8013B11F003039D
:1056C00000F02580083AC0F0088051F8043B083A01
:1056D00051F804CBA0E80810F5E7121D5CBF51F8A3
:1056E000043B40F8043BAFF30080D20724BF11F81D
:1056F000013B11F801CB48BF11F8012B24BF00F882
:10570000013B00F801CB48BF00F8012B704710B5F2
:10571000203AC0F00B80B1E81850203AA0E81850A9
:10572000B1E81850A0E81850BFF4F5AF5FEA027C6A
:1057300024BFB1E81850A0E8185044BF18C918C0D9
:10574000BDE810405FEA827C24BF51F8043B40F87A
:10575000043B08BF7047D20728BF31F8023B48BF5F
:1057600011F8012B28BF20F8023B48BF00F8012B9D
:1057700070474FF0000200B5134694469646203914
:1057800022BFA0E80C50A0E80C50B1F12001BFF4FA
:10579000F7AF090728BFA0E80C5048BF0CC05DF860
:1057A00004EB890028BF40F8042B08BF704748BFAE
:1057B00020F8022B11F0804F18BF00F8012B704722
:1057C000704770477047000001491820ABBEFEE7E4
:1057D00026000200004870470C30002070477546D4
:1057E000FFF7F8FFAE4605006946534620F0070074
:1057F000854618B020B5FFF721FFBDE820404FF0E7
:1058000000064FF000074FF000084FF0000B21F0AA
:105810000701AC46ACE8C009ACE8C009ACE8C00977
:10582000ACE8C0098D46704710B50446AFF3008060
:105830002046BDE81040FAF7F0BC03B401984100DF
:10584000009850EAC12018BF04204A0D18BF40F04C
:10585000010040F2FF72B2EB515F08BF40F002005E
:10586000012808BF052002B07047000000000000BA
:1058700070B59B482DED020B2DED068B079D25F095
:105880000044A04218DC9748844202DC0AD1069802
:1058900040B19DED060BBDEC068B02B0BDE870403B
:1058A00000F0D0BA002DCCBF9FED8F0B9FED900B79
:1058B000BDEC068B02B070BD8F48A04215DD8F484D
:1058C000A042D8BF4FF0FF3458DD9DED060B51ECE0
:1058D000100BFFF7B2FF042808BF00F0C9FA9DEDD6
:1058E000060BBDEC068B02B070BD9DED060B51ECB6
:1058F000100B00F0D5FACDE9060181489FED828BAF
:10590000A0423CDD8248A0421FDD00249FED82AB17
:105910009DED060B53EC1A2B51EC100B00F00AFB1B
:105920009DED060B41EC190B53EC1A2B51EC100BAF
:1059300000F08EFD53EC182B00F0CAFE53EC192B2F
:1059400000F0ACFBCDE9060149E09DED060B01241A
:1059500053EC182B51EC100B00F0ECFA9DED060BFC
:1059600041EC190B53EC182B51EC100B00F0B0FE6E
:1059700053EC192B00F092FBCDE906012FE06848AB
:10598000A0421FDD02249FED689B9DED060B53ECAA
:10599000192B51EC100B00F05BFD53EC182B00F0B1
:1059A000C9FA9DED060B41EC180B53EC192B51EC89
:1059B000100B00F08DFE53EC182B00F06FFBCDE9BF
:1059C00006010CE09DED060B032453EC102B9FED1C
:1059D000580B51EC100B00F061FBCDE906019DED79
:1059E000060B53EC102B51EC100B00F031FD41EC89
:1059F000180B53EC182B00F02BFD41EC190B4E4803
:105A00000621B0EE490AF0EE690A784400F09EF9EA
:105A100053EC182B51EC100B00F01AFD41EC180B55
:105A20004648B0EE490AF0EE690A0521784400F0D4
:105A30008DF953EC192B51EC100B00F009FD41ECE2
:105A4000100B51EC180B53EC102B002C0EDA00F05D
:105A500071FA9DED061B53EC112B00F0F9FC9DED46
:105A6000061B53EC112B00F027FE35E000F062FA24
:105A70009DED061B53EC112B00F0EAFC41EC100BE2
:105A80002F48784400EBC40090ED001B51EC100B44
:105A900053EC112B00F01CFE9DED061B53EC112B5B
:105AA00000F016FE41EC100B2648784400EBC400D1
:105AB00090ED001B51EC100B53EC112B00F0FCFD92
:105AC00041EC100B002DA2BFBDEC068B02B070BDE7
:105AD00051EC100B00F0F0F941EC100B01E7000065
