:020000040800F2
:1000000020A50020699400087D84000887840008EA
:10001000918400089584000899840008000000007D
:100020000000000000000000000000009D840008A7
:100030009F84000800000000A1840008819400084B
:100040008394000883940008839400088394000834
:100050008394000883940008DD090008EF09000874
:100060008394000883940008839400088394000814
:10007000839400088394000883940008D311000837
:1000800083940008839400088394000807070008FD
:1000900027070008839400088394000883940008CD
:1000A00083940008839400088394000883940008D4
:1000B0008F0B000883940008839400088394000841
:1000C00083940008839400088394000883940008B4
:1000D000839400084B0D000883940008DF83000818
:1000E0008394000883940008839400088394000894
:1000F0008394000883940008839400088394000884
:100100008394000883940008839400088394000873
:100110006B1100082D170008BD0B00088394000820
:100120008394000883940008839400088394000853
:100130008394000883940008839400084F08000803
:1001400065080008839400088394000883940008DD
:10015000839400088394000883940008E147000812
:100160008394000883940008839400088394000813
:100170008394000883940008839400088394000803
:100180008394000883940008DFF80CD017F06CFD0E
:10019000004800476102000820A500201CB501218D
:1001A000042009F085FE012000908DF80400002055
:1001B0008DF8060003208DF805006946244809F0F3
:1001C00031FC0121224809F0ABFC1CBD1CB501210A
:1001D000042009F06DFE0820009001208DF8040035
:1001E00000208DF8060003208DF8050069461848A8
:1001F00009F018FC0821164809F092FC1CBD10B546
:100200004FF4A06008F066F900F046FC00F068FCCE
:1002100000F046F802210E4809F082FC00F090F848
:1002200000F0CEFE00F0F0FB01F099F807F0D6FFE9
:10023000642000F031FB00F007F900F095FA054862
:1002400000F0EEFC9FED040A044880ED030A10BDA7
:1002500000080240A08601000000B4C3B46600207C
:100260000BF08CFA0DF0ECF94FF4FA7000F014FB7F
:10027000FFF7C5FF00F0C3FC0649086004210648EB
:1002800009F04EFC01F0F2FA01200449088000BF99
:10029000FEE70000000000200008024008000020E7
:1002A0001CB50121084609F003FE0121042009F0D4
:1002B000FFFD0121022009F0FBFD06200090012036
:1002C0008DF8040000208DF8060003208DF805004D
:1002D0006946194809F0A6FB012000908DF804003A
:1002E00000208DF8060003208DF8050069461348AC
:1002F00009F098FB0121114809F012FC02210E4877
:1003000009F00CFC04210C4809F008FC10200090B6
:1003100003208DF8050002208DF8040001208DF8DF
:1003200007006946054809F07DFB062204210348C1
:1003300009F003FC1CBD000000080240000402405C
:1003400000B58BB00121042009F0B2FD012102208B
:1003500009F0E1FD02220821384809F0EEFB0222F3
:100360000921364809F0E9FB4FF44070099002205A
:100370008DF8280003208DF8290000208DF82A0030
:1003800001208DF82B0009A92C4809F04BFB022213
:1003900008212A4809F0D1FB02220921274809F047
:1003A000CCFB40F2E730ADF818000020ADF81A00A1
:1003B00040F28F6007900020ADF8200006A9204889
:1003C00009F0A7FF7020ADF804000120ADF8060089
:1003D0000020ADF808004FF47A7003900220ADF8C9
:1003E00010000020ADF81200ADF814004FF480703A
:1003F000ADF8160001A912480AF0A6F80821104825
:100400000AF0BFF901A90E480AF004F908210C48C6
:100410000AF0C0F901210A4809F0E6FF0121084865
:100420000AF000F8962006493C3108604B20091D6F
:1004300008600020034908600BB000BD00080240BE
:10044000000400400C00002000B58BB001210846DC
:1004500009F02EFD0121480609F05DFD09220B215E
:10046000BB4809F06AFB09220C21B94809F065FB79
:100470004FF4C050029002208DF80C0002A9B4483D
:1004800009F0D0FA14208DF8040003208DF805003F
:1004900001208DF806008DF8070001A808F01FF86C
:1004A00013208DF8040003208DF8050001208DF83D
:1004B00006008DF8070001A808F011F8A54808F01B
:1004C00079F808A808F09AF900208DF82600012094
:1004D0008DF8270000208DF828008DF829008DF870
:1004E0002A008DF82B008DF822008DF823000820BB
:1004F0008DF8240003208DF82500ADF8200008A910
:10050000944808F070F800208DF81A008DF81B0050
:1005100001208DF81C000020ADF81000ADF812008D
:10052000ADF81400ADF81600ADF8180001208DF8F4
:100530001D0004A808F0E1F801220221854808F016
:10054000DBFB0BB000BD30B585B005460C464FF463
:100550000070009000208DF808008DF80900082038
:100560008DF80A0000208DF80B0000218DF80C108A
:100570008DF80D108DF80E10210A8DF80F10E1B2D4
:100580008DF8101000218DF811108DF812106946A9
:10059000704808F0A1F905B030BD10B586B004462A
:1005A00040F20540019000208DF80C008DF80D0000
:1005B00008208DF80E0020788DF80F0061788DF8F6
:1005C0001010A1788DF81110E1788DF812102179B2
:1005D0008DF8131061798DF81410A1798DF815102C
:1005E000E1798DF8161001A95B4808F075F906B09D
:1005F00010BD2DE9F04186B080460C4615461E46DA
:100600000C9F40F20940019000208DF80C008DF8FD
:100610000D0008208DF80E00200A8DF80F008DF8CF
:100620001040290A8DF811108DF81250310A8DF8FA
:1006300013108DF81460390A8DF815108DF81670A6
:1006400001A9404608F048F906B0BDE8F0812DE95F
:10065000F04186B080460C4615461E460C9F4FF46E
:100660008160019000208DF80C008DF80D000820AD
:100670008DF80E00200A8DF80F008DF81040290A21
:100680008DF811108DF81250310A8DF813108DF875
:100690001460390A8DF815108DF8167001A94046BE
:1006A00008F01AF906B0BDE8F0812DE9F04186B0F6
:1006B00080460C4615461E460C9F40F206400190AF
:1006C00000208DF80C008DF80D0008208DF80E002C
:1006D000200A8DF80F008DF81040290A8DF81110AE
:1006E0008DF81250310A8DF813108DF81460390A04
:1006F0008DF815108DF8167001A9404608F0ECF839
:1007000006B0BDE8F08110B50121124808F05CFB8D
:1007100040B112480068401C1049086001210D4892
:1007200008F0EDFB10BD10B502210A4808F04CFBA3
:1007300060B10421074808F0E2FB0949054808F0C8
:1007400020FB084A0021034808F0BBF910BD000057
:1007500000000240006400400068004010000020DB
:1007600008000032780D002000B58BB00121022076
:1007700009F09EFB0121880609F0CDFB09220C211E
:10078000434809F0DAF909220D21414809F0D5F969
:100790004FF44050029002208DF80C0002A93C4812
:1007A00009F040F940208DF8040000208DF8050084
:1007B00003208DF8060001208DF8070001A807F03E
:1007C0008EFE344807F0F6FE08A808F017F800205F
:1007D0008DF8260001208DF8270000208DF82800D4
:1007E0008DF829008DF82A008DF82B008DF8220055
:1007F0008DF8230008208DF8240003208DF82500B3
:10080000ADF8200008A9234807F0EDFE0E208DF872
:100810001A0000208DF81B0001208DF81C0000201C
:10082000ADF81000ADF81200ADF81400ADF81600E8
:10083000ADF8180001208DF81D0004A807F05DFF39
:1008400001220221134808F057FA0BB000BD10B581
:100850000121104808F0B8FA18B101210D4808F03C
:100860004EFB10BD00B585B002210A4808F0ACFA75
:1008700058B10221074808F042FB6A4600210548AA
:1008800008F01FF968460DF0A2FA05B000BD00009F
:10089000000402400068004010B5002107E04AF261
:1008A000104200BF131EA2F10102FBD1491C81427C
:1008B000F5D310BD10B5002106E0282200BF131E9D
:1008C000A2F10102FBD1491C8142F6D310BD10B543
:1008D000002107E04AF2104200BF131EA2F10102FC
:1008E000FBD1491C8142F5D310BD10B5002106E0B3
:1008F000282200BF131EA2F10102FBD1491C814234
:10090000F6D310BD00B585B00121880309F014FBB2
:100910000121142009F0CCFA00208DF810008DF888
:10092000120001208DF8130000208DF81100032023
:10093000039003A9324809F075F86020039003A9D9
:10094000304809F06FF80021022009F0FDFB012179
:10095000022009F0F9FB0521042009F0F5FB06212E
:10096000042009F0F1FB6320019000208DF80800BD
:100970000C208DF8090001208DF80A0001A808F06C
:10098000F3FC06208DF8000002208DF80100012004
:100990008DF802008DF80300684607F0A0FD0720DF
:1009A0008DF8000002208DF801008DF80200012072
:1009B0008DF80300684607F092FD17208DF80000BF
:1009C00002208DF8010003208DF8020001208DF82F
:1009D0000300684607F083FD05B000BD10B5012097
:1009E00008F028FD10B1012008F035FD10BD10B54C
:1009F000022008F01FFD10B1022008F02CFD10BDF0
:100A000000080240001002401CB50121084609F010
:100A10004FFA4FF48070009001208DF80400002000
:100A20008DF8060003208DF805006946044808F09B
:100A3000F9FF4FF48071024809F072F81CBD000004
:100A4000000002400EB50121022009F075FA4FF0B6
:100A5000FF300190A720ADF800000020ADF808009D
:100A6000ADF802000121684809F0BEFC69466648FD
:100A700009F04FFC0121644809F0B6FC0022114640
:100A8000614809F083FC01215F4809F095FC0121D0
:100A90005D4809F0C7FC0EBD1FB50121102009F00B
:100AA0003AFA36208DF8000000208DF8010002206F
:100AB0008DF8020001208DF80300684607F00FFD55
:100AC0005320ADF804000020ADF80600ADF80C008E
:100AD0004FF47A70029001A94C4809F01AFC1FBD2E
:100AE00010B50121494809F09DFC012211464748F3
:100AF0000AF0B0F8012145480AF0C0F810BD0EB563
:100B00000121042009F007FA4FF0FF300190A720DF
:100B1000ADF800000020ADF80800ADF8020001219A
:100B20003B4809F061FC6946394809F0F2FB0121B4
:100B3000374809F059FC00221146354809F026FCD7
:100B40000121334809F038FC0121314809F06AFCE1
:100B50000EBD0EB50121084609F0DDF94FF0FF305A
:100B600001905320ADF800000020ADF80800ADF86A
:100B700002000121880709F037FC69464FF08040E8
:100B800009F0C7FB0121880709F04CFC0EBD10B528
:100B9000012188070AF075F878B1012188070AF069
:100BA00081F8012188070AF069F80221194808F044
:100BB000C0FF0421174808F0BCFF10BD10B501218B
:100BC00012480AF05EF888B1134890ED000AF7EE7B
:100BD000000A30EE200A80ED000A01210D4808F0DD
:100BE000A8FF0E48008808B10AF074FC01210748EC
:100BF0000AF058F8012105480AF040F810BD4FF0FE
:100C00008040406A7047000000040140001000402E
:100C100000080040000802402007002008000020D3
:100C200010B596B004460121022009F041F90121D6
:100C3000880509F03DF90121102009F07DF907220E
:100C400011467A4808F079FF14A808F033FF802095
:100C5000149002208DF8540000208DF855000120DA
:100C60008DF8570014A9714808F0DCFE70480AF0AE
:100C7000F5F810A80AF0A6F910940020ADF8440089
:100C8000ADF846004FF48060ADF848000420ADF8A0
:100C90004A000020ADF84C0010A965480AF02CF974
:100CA0000122402162480AF05CFA624808F07AF9B1
:100CB000684608F042FA4FF0006000905C48001D62
:100CC00001905D4802900020039040200490002095
:100CD00005904FF4806006900020079008904FF434
:100CE0008070099000020A9000200B900C900D90EB
:100CF0000E9069464F4808F0F7F900224E494031FE
:100D00004C4808F052FA01214A4808F05AFA0121E9
:100D1000484808F023FA25208DF83C0000208DF883
:100D20003D008DF83E0001208DF83F000FA807F030
:100D3000D6FB012240F224413D480AF01BFA012172
:100D40003B480AF061F916B010BD10B540F22441DD
:100D500037480AF04AFA00285DD035480088344800
:100D60008088344808F03DFA50BB0021314808F033
:100D7000F5F932492F4808F06AFA2E4808F011FABE
:100D8000C0F140002E49086040202A49091D086032
:100D9000081F006840F40020091F08600121254851
:100DA00008F0DCF926480068122834D122480CF0FB
:100DB000C3FB00200DF0E3F9044616F031FB2AE0F6
:100DC00000211C4808F0CAF91C491A4808F03FFAEB
:100DD000184808F0E6F9C0F14000194908604020C1
:100DE0001449091D0860081F006820F40020091F2D
:100DF000086001210F4808F0B1F911480068122875
:100E000009D10D4840300CF097FB00200DF0B7F9E8
:100E1000044616F005FB10BD10B507231222094940
:100E2000094815F0F3FF10BD074870470004024061
:100E300000100140406402408C0D00200000301082
:100E4000140000200C0E0020CC0F00200146087872
:100E5000704701464E48814201D2002070474D48FC
:100E6000814201D20820F9E74B48814201D210208B
:100E7000F4E74A48814201D21820EFE7484881420E
:100E800001D22020EAE74748814201D22820E5E745
:100E90004548814201D23020E0E74448814201D2F6
:100EA0003820DBE74248814201D24020D6E7414862
:100EB000814201D24820D1E73F48814201D25020EF
:100EC000CCE75820CAE72DE9FC5F04460D46904662
:100ED0004FF008090120019000264FF0000A4FF062
:100EE000000B002000900027B4F1006F01D2BDE894
:100EF000FC9F08F009FB002008F0E9FA264604EB05
:100F0000080A3046FFF7A5FF83465046FFF7A1FFCA
:100F100000902A48864211D25F460BE002213846F3
:100F200008F03EFB8146B9F1080F02D00020019085
:100F300003E0083700988742F0D900BFB9F1080FE5
:100F40000ED10AE02978204608F025FC082802D0B6
:100F50000020019003E0641C6D1C5445F2D300BFD7
:100F6000012008F0B4FA08F0DCFA0198BFE72DE997
:100F7000F04107460D461646002405E03846FFF7C7
:100F800065FF28557F1C641CB442F7D3BDE8F0818F
:100F9000004000080080000800C0000800000108B0
:100FA000000002080000040800000608000008080D
:100FB00000000A0800000C0800000E080000FF1FD7
:100FC00000B597B00121042008F072FF0121C80488
:100FD00008F0A1FF08220A21984808F0AEFD082277
:100FE0000B21964808F0A9FD0121480508F060FF93
:100FF0004FF44060119002208DF8480000208DF8D9
:101000004A0003208DF8490001208DF84B0011A9FA
:101010008A4808F007FD4FF4E13013900020ADF846
:101020005000ADF85200ADF854000C20ADF8560059
:101030000020ADF8580013A9814809F05DFF012296
:1010400040217F480AF08DF87E4807F0ABFF01A8E9
:1010500008F073F84FF0006001907948001D02908D
:1010600079480390002004906420059000200690A9
:101070004FF4806007900020089009900A904FF488
:1010800080300B9000200C900D900E900F9001A9D5
:101090006C4808F029F801216A4808F05FF834200C
:1010A0008DF8400003208DF841008DF842000120AA
:1010B0008DF8430010A807F012FA01228021604841
:1010C0000AF04FF800215F48303008F047F85D48DB
:1010D000303007F067FF00BF5A48303008F08BF817
:1010E0000028F9D14FF0006001905548001D029092
:1010F00056480390402004900020059006904FF43D
:10110000806007900020089009900A904FF480308A
:101110000B9000200C9003200D9000200E900F905B
:1011200001A94848303007F0DFFF0F208DF840005C
:1011300003208DF841008DF8420001208DF8430016
:1011400010A807F0CCF9012210213E48303008F0F9
:1011500092F8012240F2244139480AF00BF80121AB
:10116000374809F051FF17B000BD10B5002440F218
:10117000244133480AF039F8F0B13148008830484A
:10118000001D008800212F4807F0E8FF30492D4856
:1011900008F05DF82B4808F004F8C0F16400C4B210
:1011A0002949204610F0C0FE6421264807F0F7FFC9
:1011B0000121244807F0D2FF10BD70B504460D464A
:1011C0002946204607F0EBFF0121204607F0C6FF25
:1011D00070BD10B51F491B48303008F01CF848B1ED
:1011E00000211848303007F0B9FF1A49154830304F
:1011F00008F02DF810BD70B504460025134D05F814
:10120000014B01210F483030FFF7D7FF70BD2DE9AA
:10121000F04105460E46002400270C4F00BF03E0B6
:10122000285D3855601C84B2B442F9DB314605486C
:101230003030FFF7C2FFBDE8F08100000008024037
:10124000004C004040600240E50F002049100020A3
:10125000000030102000002030B5034605E013F8F0
:10126000010B80EA0204FC48025D081EA1F10101A5
:10127000F5D1104630BD70B505460C4600260DB1BF
:10128000022C01D8002070BD611EFF222846FFF706
:10129000E3FF0646601E285CB04201D10120F2E760
:1012A0000020F0E770B505460C4600260DB1022C73
:1012B00000D870BD611EFF222846FFF7CDFF06460D
:1012C000601E2E5400BFF4E730B5034613B94FF645
:1012D000FF7030BD09E013F8014B82EA0400C0B290
:1012E000DE4D35F8100080EA2222081EA1F101012E
:1012F000F1D11046EDE770B505460C4600260DB15C
:10130000022C01D8002070BDA11ED54802882846B5
:10131000FFF7DAFF0646F1B2A01E285C814206D133
:10132000601E285CB0EB162F01D10120EBE70020F6
:10133000E9E770B505460C4600260DB1022C00D831
:1013400070BDA11EC64802882846FFF7BDFF0646AD
:10135000A01E2E54310A601E295400BFF0E700B5CC
:1013600097B00121042008F0A3FD0121082008F016
:101370009FFD0121080508F0CEFD0121480508F078
:1013800097FD02208DF8580000208DF85A004FF488
:101390008050159001208DF85B0003208DF85900D6
:1013A00015A9B04808F03EFB02208DF85800002037
:1013B0008DF85A000420159001208DF85B00032061
:1013C0008DF8590015A9A84808F02CFB08220C211B
:1013D000A44808F0B2FB08220221A34808F0ADFBA4
:1013E0004FF4E13011900020ADF850000C20ADF822
:1013F0004E000020ADF84C00ADF84A00ADF84800B2
:1014000011A99A4809F078FD0121984809F0FCFDDE
:1014100001224021954809F0A4FE01A807F08DFEA5
:10142000934803904FF400700590800401908F481A
:10143000001D02900020049006904FF480600790F9
:101440000020099008900A904FF480300B90002003
:101450000C900D900E900F9001A9864807F044FE65
:101460000121844807F07AFE35208DF840000120E4
:101470008DF843008DF8410002208DF8420010A83D
:1014800007F02DF8012240F22441784809F072FE5D
:101490000121764809F0B8FD01228021734809F046
:1014A00060FE00217348A83007F058FE7148A8304C
:1014B00007F078FD00BF6F48A83007F09CFE0028B9
:1014C000F9D14FF0006001906848001D02906A4811
:1014D00003904020049042200590002006904FF495
:1014E000806007900020089009900A900B900C9063
:1014F00003200D9000200E900F9001A95D48A830A8
:1015000007F0F2FD01215B48A83007F027FE2F20ED
:101510008DF8400002208DF8410001208DF8420036
:101520008DF8430010A806F0DAFF17B000BD70B5C3
:1015300004460D460021204607F010FE00BF20465D
:1015400007F059FE0028FAD12946204607F027FE69
:101550000121204607F002FE70BD2DE9FC5F054623
:1015600088460024A346DCE015F80490601C295C42
:10157000A01C285C41EA0026601D295CA01D285C97
:1015800041EA002A2819C71D28190168009100792D
:101590008DF8040006F109001FFA80FBB9F1A50FD0
:1015A00072D105216846FFF766FE00286CD0281925
:1015B0005946FFF7A0FE0028F8D0BAF5017F7DD08C
:1015C00007DCAAF2031058B1FE281DD0FF2876D1FF
:1015D0005BE0AAF20720002872D0FA28F7D194E045
:1015E00032463946254815F07DFF2448363890F8B4
:1015F000380040B12148363890F838002049096851
:1016000008441F49086088E01B2E24D13246394621
:101610001A48C01C15F066FF1848363890F8390093
:10162000012809DB1548363890F83900072803DC13
:101630000220144908700EE01048363890F839003E
:101640000B2808DB0D48363890F83900112802DCE9
:1016500001200C49087060E0A5960108A6970108D2
:101660002600002000080240000C0240005000400C
:10167000B3540020106002400F540020874B00201C
:101680001C000020F506002048E0102E26D132462E
:1016900039466C4815F026FF6B480068401C6A49C3
:1016A0000860084600684FF6FF71884202DB0020A0
:1016B000654908606548408B401C02E00FE02BE064
:1016C00015E0624948830846408B052806D1002072
:1016D00048835F48007808B90FF019FC1DE0012E1F
:1016E00004D138785749543981F8740015E0072E31
:1016F0000AD158480078401C56490870324639468D
:101700005048233015F0EEFE07E0324639464D488A
:101710002A3015F0E7FE00E000BF00BF04EB0B002D
:1017200084B2A0453FF720AFBDE8FC9F10B540F262
:101730002441494809F059FD28B3474800884648E4
:1017400080880021454807F009FD4549434807F0D6
:101750007EFD424807F025FDC0F500704149086054
:101760004FF400713D4807F01AFD01213B4807F096
:10177000F5FC3C480068092805D93A48008881B240
:101780003948FFF7EAFE10BD2DE9FF4788461646A7
:101790001F460C9C06F109001FFA80F925462F70A0
:1017A000A5F801600020E87005212046FFF77AFDCA
:1017B000BDF80000A4F8050032464146E01D15F0D2
:1017C00091FE49462046FFF7B4FD204604B0BDE82F
:1017D000F0872DE9F84306460F4615461C46DDF80E
:1017E000208005F109001FFA80F923462A46394670
:1017F0003046CDF80080FFF7C7FFA02C10D0A52CF5
:101800000ED1E1061548A83007F021FD0122802104
:10181000114809F0A6FC49461048A830FFF787FE9A
:10182000BDE8F88370B504460D4600260CB1022DC4
:1018300001D8FF2070BDFF2229462046FFF70CFD8E
:10184000F8E70000A54B0020BC6C002000870020BA
:10185000A10200202900002000500040106002403A
:10186000300000102C000020B354002010B545F2C9
:10187000555009F009FE002009F009FE642009F026
:1018800009FE09F00AFE09F00DFE10BD70B52DED40
:101890000E8B82B006460D46B0EE408A9FEDFE0AE2
:1018A00028EE000A10EE104A204616F05AF841ECD5
:1018B0001E0BB0EE4E0AF0EE6E0A16F025FDB0EEED
:1018C00040CAF0EE60CA284615F0EDFF41EC1D0B52
:1018D00053EC1C2B15F006FF41EC1A0B204616F0BA
:1018E00040F841EC1E0BB0EE4E0AF0EE6E0A16F018
:1018F0009BFCB0EE40CAF0EE60CA304615F0D3FF54
:1019000041EC1D0B53EC1C2B15F0ECFE41EC1B0BBA
:1019100053EC1A2B15F0E0FE41EC190B16F002F80F
:1019200000B2ADF80400204616F01BF841EC1E0B87
:10193000B0EE4E0AF0EE6E0A16F076FCB0EE40CA3B
:10194000F0EE60CA284615F0AEFF41EC1D0B53ECDB
:101950001C2B15F0C7FE41EC1B0B204616F001F8BE
:1019600041EC1E0BB0EE4E0AF0EE6E0A16F0CCFC07
:10197000B0EE40CAF0EE60CA304615F094FF41EC7C
:101980001D0B53EC1C2B15F0ADFE41EC190B53EC69
:101990001B2B15F000FE41EC1A0B15F0C3FF00B233
:1019A000ADF80600019802B0BDEC0E8B70BD10B50D
:1019B0002DED048B82B0B94890F83940672C1BD0CC
:1019C00006DC032C09D0042C0CD0052C23D10EE00E
:1019D000682C16D0692C1ED118E040F20310B049D3
:1019E000088018E04FF48270AD49088013E040F29F
:1019F0000510AB4908800EE040F26710A849088046
:101A000009E04FF4B470A649088004E040F2691080
:101A1000A349088000BF00BFA24890ED000AF7EE7E
:101A2000000A30EE200A80ED000A90ED000AF1EE87
:101A3000040AB4EEE00AF1EE10FA03D201209A494A
:101A4000086002E0002098490860974800689749BC
:101A5000086097480068096888420AD0934800687F
:101A6000012806D1934908609FED930B944880EDBF
:101A7000000B9FED940B53EC102B914890ED000B55
:101A800051EC100B15F02EFE904A03C29FED900B07
:101A900053EC102B8D4890ED000B51EC100B15F012
:101AA00073FF02D100208349086082480068012842
:101AB0000CD19FED890B53EC102B814890ED000B5E
:101AC00051EC100B15F008FE7D4A03C279480068FE
:101AD00060B99FED810B53EC102B794890ED000B12
:101AE00051EC100B15F057FD754A03C27C48007885
:101AF000192882F07785DFE810F0751519000902C2
:101B00003A0189022103E403E1042307C707DF0840
:101B10008909050A990A640BDF0BA20CBB0DE30FC0
:101B20008810B2114C12E0125C13281404206D4985
:101B3000087001204870594890F83900887057485B
:101B400090F839000012C870554800780871544860
:101B50000088001248716448C07820F00700401CDB
:101B60006149C8700846B0F8030020F47070403036
:101B7000A1F803000846C07820F038001030C87083
:101B8000002008704870012088704FF4707156482A
:101B9000008961F38C00544908814FF4E171524887
:101BA000B0F8090061F34F104F49A1F80900084649
:101BB000007920F03C00001D08710846B0F80B00C9
:101BC0006FF30900C01CA1F80B000846B0F807002D
:101BD0006FF30900401DA1F807000846807C20F043
:101BE0000700401C88740846408A20F4707040301A
:101BF00048820846807C20F038001030887400202D
:101C0000C873002138480174022141744FF4707187
:101C1000B0F8170061F38C003349A1F817004FF4B6
:101C2000D2713148008B61F34F102F490883084669
:101C3000C07C20F03C00001DC8740846408B6FF348
:101C40000900C01C48830846C08A6FF30900401D84
:101C5000C882084690F8210020F00700401C81F857
:101C600021000846B0F8210020F470704030A1F83F
:101C70002100084690F8210020F03800083081F853
:101C800021000020887700211748C177032180F8C0
:101C900020104FF4207129E035FA8E3C514B002082
:101CA00036000020FC0600204C00002040000020F0
:101CB00048000020500000200000000000004940C3
:101CC00060000020B81E85EB51B89E3F58000020F0
:101CD0000000000000000000000000000000F03FD5
:101CE0003000002071540020B1580020C08C61F3F6
:101CF0008C00FE49C8844FF4BE71FC48B0F8270040
:101D000061F34F10F949A1F827004FF4A061F7489B
:101D1000408D61F38C00F54948854FF42F71F348ED
:101D2000B0F82B0061F34F10F049A1F82B000846E2
:101D300090F8220020F03C00001D81F822000846A7
:101D4000B0F825006FF30900001DA1F825006922F5
:101D5000E74815F0C7FBE748A5236F22E449891F30
:101D6000009040F20130FFF734FD02F03CBC10203F
:101D7000DF49891F087001204870DF4890F839005A
:101D80008870DD4890F839000012C870DB48007890
:101D90000871DA48008800124871D948C07820F0EC
:101DA0000700401CD649C8700846B0F8030020F46C
:101DB00070704030A1F803000846C07820F0380069
:101DC0003830C870002008700220487000208870E9
:101DD000C821CB48008961F38C00C94908814FF4C0
:101DE0003971C748B0F8090061F34F10C449A1F830
:101DF00009000846B0F807006FF30900801CA1F83D
:101E000007001421BE48808861F38E10BC49888089
:101E10000C21BB48B0F8050061F3CF10B849A1F818
:101E20000500B848007E072815D10846007920F043
:101E30003C00083008715220C8734F21B04801742B
:101E400054214174412181745421C174452101758B
:101E50005F2141754AE0AB48007E0A2816D1A848A8
:101E6000007920F03C00001DA54908715320C8737B
:101E70004521A348017450214174522181744121AC
:101E8000C17454210175452141752FE09D48007EA4
:101E9000082816D19A48007920F03C001030984963
:101EA00008715220C8734521954801745621417428
:101EB000452181745221C174532101754521417519
:101EC00014E08F48007920F03C0014308C490871F0
:101ED0004E20C8734F218A4801744D21417441211D
:101EE00081744C21C1745F21017541752D22844993
:101EF0007F4815F0F7FA7F48A52333227C49891FD4
:101F0000009040F20130FFF764FC2EE71020784982
:101F1000891F087001204870774890F83900887050
:101F2000754890F839000012C8707448007808713C
:101F300072480088001248717348C07820F007008A
:101F4000401C7149C8700846B0F8030020F4707056
:101F50004030A1F803000846C07820F0380038303F
:101F6000C87000200870487004208870C821664836
:101F7000008961F38C006449088140F29E21624827
:101F8000B0F8090061F34F105F49A1F80900084655
:101F9000B0F807006FF30900801CA1F807001421B6
:101FA0005948808861F38E10574988800821564827
:101FB000B0F8050061F3CF105349A1F805000846B9
:101FC000007920F03C00143008715620C8734F216E
:101FD0004D4801744C214174542181744121C174D4
:101FE00047210175452141753A2181752D22014610
:101FF0003F4815F077FA3F48A52333223C49891F13
:10200000009040F20130FFF7E4FBAEE610203849C3
:10201000891F087001204870374890F8390088708F
:10202000354890F839000012C870344800780871BB
:1020300032480088001248713448C07820F0070008
:10204000401C3249C8700846B0F8030020F4707094
:102050004030A1F803000846C07820F0380038303E
:10206000C870002008704870052088704FF4AF7168
:102070002648008961F38C002449088140F29E21A2
:102080002248B0F8090061F34F102049A1F8090077
:102090000846B0F807006FF30900801CA1F807009C
:1020A00014211A48808861F38E1018498880042111
:1020B0001648B0F8050061F3CF101449A1F80500E7
:1020C0000846007920F03C0014300871104890ED6B
:1020D000010A10EE101A084615F043FC41EC180BEB
:1020E00053EC182B0BA109480F3015E0B158002014
:1020F000775400200F540020514B00203600002060
:102100000D570020B48800203A5700206757002060
:10211000887200202566000015F0F4FD2D22FE498E
:10212000FE4815F0DFF9FE48A5233322FB49891F3D
:10213000009040F20130FFF74CFB16E60420F7490F
:10214000891F087001204870F64890F8390088709F
:10215000F44890F839000012C870F348007808710C
:10216000F148008800124871F04890F83F0020F0D4
:102170000700401CED4981F83F000846B0F83F00D9
:1021800020F470704030A1F83F00084690F83F00FE
:1021900020F03801E54880F83F100020E34981F83D
:1021A0003C000021E14880F83D10062180F83E10F7
:1021B000C821B0F8440061F38C00DC49A1F8440068
:1021C0004FF41B71D948B0F8450061F34F10D7495F
:1021D000A1F845004FF41B71D448B0F8490061F3F1
:1021E0004F10D249A1F84900D14890ED010AB5EE4F
:1021F000C00AF1EE10FA1ADB90ED010AF2EE0A0ABB
:10220000B4EEE00AF1EE10FA11D8E621C748B0F8B2
:10221000480061F38C00C549A1F84800084690F8D1
:10222000400020F03C00143081F8400031E0C0480C
:1022300090ED010AF2EE0A0AB4EEE00AF1EE10FAAD
:1022400027DD90ED010A10EE101A084615F089FB03
:1022500041EC190B9FEDB70B53EC102B15F03CFA2A
:1022600041EC180B15F05EFBC0EB0010F02101EB08
:102270004000AE49B1F8481060F38C01AB48A0F8BB
:10228000481090F8400020F03C001430A74981F835
:102290004000A648B0F843006FF309001030A3498E
:1022A000A1F8430069229D4815F01CF99C48A5231C
:1022B0006F229A49891F009040F20130FFF789FA96
:1022C00053E510209549891F0870012048709548F2
:1022D00090F839008870934890F839000012C8705F
:1022E000914800780871904800880012487193481E
:1022F000C07820F00700401C9049C8700846B0F82C
:10230000030020F470704030A1F803000846C07844
:1023100020F038003830C87000200870487007205E
:10232000887087480078E0BBC8218448008961F341
:102330008C008249088140F253218048B0F809009E
:1023400061F34F107D49A1F809000846B0F8070075
:102350006FF30900801CA1F80700142177488088DA
:1023600061F38E10754988800B217448B0F8050020
:1023700061F3CF107149A1F805000846007920F0FB
:102380003C00143008714E20C8734F216B48017413
:10239000522141744D2181744121C1744C21017538
:1023A0007CE0FFE76648007801283BD1C8216348FC
:1023B000008961F38C006149088140F253215F4834
:1023C000B0F8090061F34F105C49A1F80900084614
:1023D000B0F807006FF30900801CA1F80700142172
:1023E0005648808861F38E10544988800B215348E9
:1023F000B0F8050061F3CF105049A1F80500084678
:10240000007920F03C00143008714D20C873492138
:102410004A4801744421417481744C21C17445219E
:1024200001753BE046480078022837D1C82143486F
:10243000008961F38C004149088140F253213F48F3
:10244000B0F8090061F34F103C49A1F809000846B3
:10245000B0F807006FF30900801CA1F807001421F1
:102460003648808861F38E10344988800B213348C8
:10247000B0F8050061F3CF103049A1F80500084617
:10248000007920F03C00143008714820C8734921BD
:102490002A48017447214174482181742D2227491B
:1024A0001E4815F01FF81E48A52333221B49891F1B
:1024B000009040F20130FFF78CF956E404201749F0
:1024C000891F087001204870164890F839008870FC
:1024D000144890F839000012C87013480078087149
:1024E00011480088001248711648C07820F0070093
:1024F000401C1449C8700846B0F8030020F47070FE
:102500004030A1F803000846C07820F03800C870B9
:1025100000200870487017E06757002077540020AB
:102520000F540020514B0020360000204858002056
:10253000887200200000000000002A40EE570020B2
:102540005C060020555A0020082088704FF4C8719E
:10255000F748008961F38C00F549088140F24E216B
:10256000F348B0F8090061F34F10F149A1F80900F0
:102570004FF41171EE48B0F80D0061F34F10EC49C3
:10258000A1F80D004FF4CD71E948808961F38C000A
:10259000E74988810846007920F03C001430087132
:1025A0000846B0F807006FF30900401DA1F80700C6
:1025B0000846807C20F00700401C88740846408A4A
:1025C00020F47070403048820846807C20F038014A
:1025D000D74881740020D649C8730021D4480174BB
:1025E000092141744FF4C871B0F8170061F38C00F1
:1025F000CF49A1F8170040F23A21CD48008B61F392
:102600004F10CB4908834FF41171C948808B61F397
:102610004F10C74988834FF4CD71C548B0F81B00EF
:1026200061F38C00C249A1F81B000846C07C20F071
:102630003C001430C8740846C08A6FF30900401D7E
:10264000C882BC48007801287DD1084690F8210056
:1026500020F00700401C81F821000846B0F8210056
:1026600020F470704030A1F82100084690F8210055
:1026700020F03801AE4880F821100020AC4988775E
:102680000121AB48C177002180F820104FF4D271AE
:10269000C08C61F38C00A649C88440F24E21A44846
:1026A000B0F8270061F34F10A149A1F827004FF4BB
:1026B00011719F48B0F82B0061F34F109C49A1F8AD
:1026C0002B004FF4D7719A48408D61F38C009849E4
:1026D0004885084690F8220020F03C00143081F82C
:1026E00022000846B0F825006FF30900401DA1F84C
:1026F0002500084690F8300020F00700401C81F8C3
:1027000030000846008E20F470704030088608467D
:1027100090F8300020F03801854880F83010002013
:10272000834981F82D000121814880F82E1080F81E
:102730002F104FF4D271B0F8350061F38C007C4952
:10274000A1F8350000E027E040F23A217848C08E39
:1027500061F34F107649C8864FF411717448408F69
:1027600061F34F10724948874FF4D7717048B0F841
:10277000390061F38C006E49A1F83900084690F8E1
:10278000310020F03C00143081F831000846808E82
:102790006FF30900401D88866648007802287CD1C6
:1027A000634890F83F0020F00700401C604981F822
:1027B0003F000846B0F83F0020F470704030A1F8A8
:1027C0003F00084690F83F0020F03801584880F854
:1027D0003F100020564981F83C000121544880F800
:1027E0003D10022180F83E104FF4DC71B0F8440037
:1027F00061F38C004E49A1F8440040F24E214C4850
:10280000B0F8450061F34F104949A1F845004FF475
:1028100011714748B0F8490061F34F104449A1F8DD
:1028200049004FF4E1714248B0F8480061F38C0070
:102830003F49A1F84800084690F8400020F03C00CD
:10284000143081F840000846B0F843006FF30900E7
:10285000401DA1F84300084690F84E0020F0070004
:10286000401C81F84E000846B0F84E0020F470700D
:102870004030A1F84E00084690F84E0020F0380194
:102880002B4880F84E100020294981F84B00012187
:10289000274880F84C10032100E038E080F84D1004
:1028A0004FF4DC71B0F8530061F38C002049A1F8BB
:1028B000530040F23A211E48B0F8540061F34F1023
:1028C0001B49A1F854004FF411711948B0F8580091
:1028D00061F34F101649A1F858004FF4E171144804
:1028E000B0F8570061F38C001149A1F85700084671
:1028F00090F84F0020F03C00143081F84F0008465B
:10290000B0F852006FF30900401DA1F8520069228F
:102910000749094814F0E6FD0848A5236F22064937
:10292000891F009040F20130FEF753FF05E40000DC
:10293000555A00205C060020775400200F540020D8
:102940001020FE49087001204870FD4890F83900B9
:102950008870FB4890F839000012C870F948007878
:102960000871F848008800124871F748C07820F0D4
:102970000700401CF449C8700846B0F8030020F472
:1029800070704030A1F803000846C07820F038008D
:102990003830C8700020087001204870042088700A
:1029A000C821E948008961F38C00E749088140F2B9
:1029B0002621E548B0F8090061F34F10E249A1F87B
:1029C00009000846B0F807006FF30900801CA1F861
:1029D00007000F21DC48808861F38E10DA49888077
:1029E0000B21D948B0F8050061F3CF10D649A1F802
:1029F0000500D6480068012819D10846007920F062
:102A00003C00083008715320C8735521CE4801742A
:102A1000502141745F2181744F21C174502101758F
:102A2000452141754E2181752021C1751CE0C748A3
:102A30000068C8B9C448007920F03C001430C2498D
:102A400008715320C8735521BF4801745021417447
:102A50005F2181744321C1744C2101754F2141755F
:102A6000532181754521C1752D22B749B348801D79
:102A700014F038FDB648A5233322B049009040F247
:102A80000130FEF7A6FE1BE40420AC4908700120CB
:102A90004870AB4890F839008870A94890F8390020
:102AA0000012C870A74800780871A6480088001274
:102AB0004871A848C07820F00700401CA549C8709C
:102AC0000846B0F8030020F470704030A1F803000D
:102AD0000846C07820F03800C87000200870012037
:102AE0004870052088700846807C20F00700401C54
:102AF00088740846408A20F4707040304882084646
:102B0000807C20F038019348817400209149C8737B
:102B1000012190480174062141748C480068012805
:102B200053D140F281118B48008961F38C008949AF
:102B3000088140F22B218748B0F8090061F34F105B
:102B40008449A1F8090040F217218248B0F80D002D
:102B500061F34F107F49A1F80D004FF4C8717D4813
:102B6000808961F38C007B4988810846007920F0D8
:102B70003C00143008714FF4E1717648B0F817004A
:102B800061F38C007349A1F8170040F217217148D6
:102B9000008B61F34F106F49088340F22B216D4881
:102BA000808B61F34F106B49888340F2D1116948E3
:102BB000B0F81B0061F38C006649A1F81B000846C1
:102BC000C07C20F03C001430C87460480068E0BB52
:102BD0004FF4C8715F48008961F38C005D4908813A
:102BE00040F217215B48B0F8090061F34F105949D2
:102BF000A1F8090040F217215648B0F80D0061F322
:102C00004F105449A1F80D004FF4D27151488089FA
:102C100061F38C004F4988810846007920F03C0020
:102C2000143008714FF4D7714A48B0F8170061F3B7
:102C30008C004849A1F8170040F217214548008B45
:102C400061F34F104349088300E017E040F2172179
:102C50004048808B61F34F103E4988834FF4E17107
:102C60003C48B0F81B0061F38C003A49A1F81B0006
:102C70000846C07C20F03C001430C8743548B0F8D9
:102C800007006FF30900401D3249A1F8070008460C
:102C9000C08A6FF30900401DC88269222748801D41
:102CA00014F020FC2A48A5236F222449009040F20A
:102CB0000130FEF78EFD39E6102020490870012012
:102CC00048701F4890F8390088701D4890F8390006
:102CD0000012C8701B48007808711A48008800125A
:102CE00048711D48C07820F00700401C1A49C87080
:102CF0000846B0F8030020F470704030A1F80300DB
:102D00000846C07820F038003830C87000200870BD
:102D10000120487007208870F0210F48008961F376
:102D20008C000D49088140F2C6210B48B0F809001B
:102D300061F34F100849A1F809000FE07154002019
:102D4000514B002036000020B35600200C0000201C
:102D50000F54002083590020945700200846B0F8F3
:102D600007006FF30900801CA1F807000F21F74846
:102D7000808861F38E10F54988800821F348B0F807
:102D8000050061F3CF10F149A1F80500F048006893
:102D9000012813D10846007920F03C000830087162
:102DA0004420C8734521E9480174542141744521E8
:102DB00081744321C1745421017517E0E3480079FF
:102DC00020F03C001430E14908715520C8734E21B1
:102DD000DE48017444214174452181745421C17439
:102DE0004521017543214175542181752D22D74913
:102DF000D84814F077FBD848A5233322D549891F3A
:102E0000009040F20130FEF7E4FC8FE51020D1493C
:102E1000891F087001204870D04890F839008870E8
:102E2000CE4890F839000012C870CD48007808717B
:102E3000CB48008800124871CA48C07820F00700CB
:102E4000401CC849C8700846B0F8030020F47070F0
:102E50004030A1F803000846C07820F03800383030
:102E6000C8700020087001204870082088704FF456
:102E7000CD71BC48008961F38C00BA49088140F2E9
:102E8000C621B848B0F8090061F34F10B549A1F860
:102E900009000846B0F807006FF30900801CA1F88C
:102EA00007001421AF48808861F38E10AD498880F7
:102EB0000421AC48B0F8050061F3CF10A949A1F88E
:102EC00005000846007920F03C0014300871A6483F
:102ED00090ED000B53EC102BAFF6C851A1480F300A
:102EE00014F010FF2D229F499A4814F0FBFA9A48DB
:102EF000A52333229749891F009040F20130FEF745
:102F000068FC13E504209349891F0870012048706C
:102F1000924890F839008870904890F83900001273
:102F2000C8708F48007808718D4800880012487179
:102F30008E48C07820F00700401C8C49C8700846B5
:102F4000B0F8030020F470704030A1F80300084688
:102F5000C07820F038001030C870002008700120C0
:102F60004870092088707A480068012827D1DC2140
:102F70007E48008961F38C007C49088140F2B921C8
:102F80007A48B0F8090061F34F107849A1F80900B8
:102F90000846B0F80B006FF30900C01CA1F80B0045
:102FA0000846007920F03C00083008710846B0F867
:102FB00007006FF309000930A1F8070026E0DC21C3
:102FC0006A48008961F38C006849088140F2B921A0
:102FD0006648B0F8090061F34F106449A1F8090090
:102FE0000846B0F80B006FF30900C01CA1F80B00F5
:102FF0000846007920F03C00143008710846B0F80B
:1030000007006FF309000930A1F80700692257494A
:10301000504814F067FA5048A5236F224D49891F84
:10302000009040F20130FEF7D4FB00BF1020494968
:10303000891F087001204870484890F8390088704E
:10304000464890F839000012C87045480078087169
:1030500043480088001248714548C07820F00700B6
:10306000801C4349C8700846B0F8030020F4707013
:103070004030A1F803000846C07820F0380038300E
:10308000C870002008700220487000208870C82195
:103090003748008961F38C00354908814FF4397154
:1030A0003348B0F8090061F34F103149A1F8090025
:1030B0000846B0F807006FF30900801CA1F807006C
:1030C00014212B48808861F38E10294988800C21B7
:1030D0002748B0F8050061F3CF102549A1F8050095
:1030E0002448007E072815D10846007920F03C00CE
:1030F000083008715220C8734F211D4801745421B3
:103100004174412181745421C174452101755F21AD
:10311000417546E01748007E0A282DD114480079F1
:1031200020F03C00001D124908715320C87345214E
:103130000F48017450214174522181744121C1749E
:1031400054210175452141752BE000009457002062
:1031500040000020775400200F540020514B0020E5
:1031600036000020C1570020580000201A590020C6
:103170000D570020B4880020FE48007920F03C0064
:103180001430FC4908714E20C8734F21F94801746E
:103190004D214174412181744C21C1745F2101751D
:1031A00041752D22F349F44814F09CF9F348A52306
:1031B0003322F149891F009040F20130FEF709FBEC
:1031C00061E41020EC49891F087001204870EC4828
:1031D00090F839008870EA4890F839000012C870F9
:1031E000E84800780871E748008800124871E6480E
:1031F000C07820F00700801CE349C8700846B0F88A
:10320000030020F470704030A1F803000846C07835
:1032100020F038003830C870002008704870052051
:1032200088704FF4AF71D848008961F38C00D6499B
:10323000088140F29E21D448B0F8090061F34F1094
:10324000D149A1F809000846B0F807006FF309005A
:10325000801CA1F807001421CB48808861F38E10F0
:10326000C94988800421C848B0F8050061F3CF102F
:10327000C549A1F80500C54890ED010A10EE101AE5
:10328000084614F06EFB41EC180B53EC182BC0A150
:10329000BD480F3014F036FD2D22BB49B64814F05E
:1032A00021F9B648A5233322B349891F009040F283
:1032B0000130FEF78EFAFEE40420AF49891F087042
:1032C00001204870AE4890F839008870AC4890F8FA
:1032D00039000012C870AB4800780871A94800880E
:1032E00000124871AB4890F83F0020F00700801CA6
:1032F000A84981F83F000846B0F83F0020F47070FC
:103300004030A1F83F00084690F83F0020F0380117
:10331000A04880F83F1000209E4981F83C00002121
:103320009C4880F83D10062180F83E10C821B0F876
:10333000440061F38C009749A1F844004FF41B71DD
:103340009448B0F8450061F34F109249A1F8450048
:103350004FF41B718F48B0F8490061F34F108D494D
:10336000A1F84900894890ED010AB5EEC00AF1EED6
:1033700010FA1ADB90ED010AF2EE0A0AB4EEE00A46
:10338000F1EE10FA11D8E6218248B0F8480061F356
:103390008C008049A1F84800084690F8400020F0D1
:1033A0003C00143081F8400031E0784890ED010A8B
:1033B000F2EE0A0AB4EEE00AF1EE10FA27DD90ED23
:1033C000010A10EE101A084614F0CBFA41EC190B62
:1033D0009FED710B53EC102B14F07EF941EC180BA0
:1033E00014F0A0FAC0EB0010F02101EB4000694995
:1033F000B1F8481060F38C016648A0F8481090F8C6
:10340000400020F03C001430624981F840006148DF
:10341000B0F843006FF3090010305E49A1F8430093
:103420006922554814F05EF85448A5236F2252498A
:10343000891F009040F20130FEF7CBF93BE41020E9
:103440004D49891F0870012048704D4890F8390097
:1034500088704B4890F839000012C87049480078CD
:10346000087148480088001248714D48C07820F023
:103470000700801C4A49C8700846B0F8030020F4D1
:1034800070704030A1F803000846C07820F0380082
:103490003830C87000200870487007208870414894
:1034A0000078E0BBC8213E48008961F38C003C49AC
:1034B000088140F253213A48B0F8090061F34F10F7
:1034C0003749A1F809000846B0F807006FF3090072
:1034D000801CA1F8070014213148808861F38E1008
:1034E0002F4988800B212E48B0F8050061F3CF10DA
:1034F0002B49A1F805000846007920F03C00143063
:1035000008714E20C8734F2125480174522141741F
:103510004D2181744121C1744C21017598E0FFE770
:1035200020480078012857D1C8211D48008961F33F
:103530008C001B49088140F253211948B0F809005A
:1035400061F34F101649A1F809000846B0F80700CA
:103550006FF30900801CA1F807001421104880882F
:1035600061F38E100E4988800B210D48B0F80500DC
:103570001AE000000D570020775400200F5400205F
:10358000514B002036000020675700208872002031
:1035900025660000485800200000000000002A4076
:1035A000EE5700205C06002061F3CF10FE49A1F821
:1035B00005000846007920F03C00143008714D20C9
:1035C000C8734921F84801744421417481744C2125
:1035D000C174452101753BE0F4480078022837D1D9
:1035E000C821F148008961F38C00EF49088140F25D
:1035F0005321ED48B0F8090061F34F10EA49A1F8F2
:1036000009000846B0F807006FF30900801CA1F814
:1036100007001421E448808861F38E10E249888015
:103620000B21E148B0F8050061F3CF10DE49A1F8A5
:1036300005000846007920F03C001430087148204D
:10364000C8734921D84801744721417448218174C5
:103650002D22D549D64813F045FFD648A52333225D
:10366000D349891F009040F20130FEF7B2F848E4D8
:103670000420CF49891F087001204870CE4890F877
:1036800039008870CC4890F839000012C870CB48D7
:1036900000780871C948008800124871C348007852
:1036A00001287CD1C64890F8210020F00700401C7A
:1036B000C34981F821000846B0F8210020F4707059
:1036C0004030A1F82100084690F8210020F0380190
:1036D000BB4880F821100020B94988770121B848FB
:1036E000C177002180F820104FF4D271C08C61F3B3
:1036F0008C00B349C88440F24E21B148B0F827008D
:1037000061F34F10AE49A1F827004FF41171AC4896
:10371000B0F82B0061F34F10A949A1F82B004FF42A
:10372000D771A748408D61F38C00A54948850846AC
:1037300090F8220020F03C00143081F82200084666
:10374000B0F825006FF30900401DA1F825000846D8
:1037500090F8300020F00700401C81F83000084647
:10376000008E20F4707040300886084690F83000D3
:1037700020F03801924880F830100020904981F8FC
:103780002D0001218E4880F82E1080F82F104FF464
:10379000D271B0F8350061F38C00894900E02AE06D
:1037A000A1F8350040F23A218548C08E61F34F10F0
:1037B0008349C8864FF411718148408F61F34F10DF
:1037C0007F4948874FF4D7717D48B0F8390061F3DD
:1037D0008C007B49A1F83900084690F8310020F0B0
:1037E0003C00143081F831000846808E6FF30900E8
:1037F000401D888641E0724890F8210020F00700C3
:10380000C01C6F4981F821000846B0F8210020F45F
:1038100070704030A1F82100084690F8210020F097
:103820003801674880F82110002065498877012118
:103830006348C177002180F8201090F8300020F014
:103840000700C01C5E4981F830000846008E20F455
:10385000707040300886084690F8300020F038013B
:10386000574880F830100020554981F82D0001217B
:10387000534880F82E1080F82F104C48007802280A
:103880007ED14F4890F83F0020F00700401C4C4983
:1038900081F83F000846B0F83F0020F470704030D7
:1038A000A1F83F00084690F83F0020F03801444856
:1038B00080F83F100020424981F83C000121404837
:1038C00080F83D10022180F83E104FF4DC71B0F812
:1038D000440061F38C003A49A1F8440040F24E21C3
:1038E0003748B0F8450061F34F103549A1F845005D
:1038F0004FF411713248B0F8490061F34F1030496C
:10390000A1F849004FF4E1712D48B0F8480061F387
:103910008C002B49A1F84800084690F8400020F0A0
:103920003C00143081F840000846B0F843006FF3C3
:103930000900401DA1F84300084690F84E0020F011
:103940000700401C81F84E000846B0F84E0020F4F5
:1039500070704030A1F84E00084690F84E0020F0FC
:103960003801174880F84E100020154981F84B00A7
:103970000121134880F84C10032180F84D1000E01D
:1039800047E04FF4DC71B0F8530061F38C000C4950
:10399000A1F8530040F23A210948B0F8540061F30D
:1039A0004F1007490EE00000EE5700205C06002093
:1039B000775400200F540020514B00203600002087
:1039C000555A0020A1F854004FF41171FE48B0F888
:1039D000580061F34F10FC49A1F858004FF4E17111
:1039E000F948B0F8570061F38C00F749A1F8570087
:1039F000084690F84F0020F03C00143081F84F004A
:103A00000846B0F852006FF30900401DA1F85200BB
:103A100046E0ED4890F83F0020F00700C01CEA495E
:103A200081F83F000846B0F83F0020F47070403045
:103A3000A1F83F00084690F83F0020F03801E24826
:103A400080F83F100020E04981F83C000121DE4869
:103A500080F83D10022180F83E1090F84E0020F0D2
:103A60000700C01CD84981F84E000846B0F84E0047
:103A700020F470704030A1F84E00084690F84E00D7
:103A800020F03801D04880F84E100020CE4981F84F
:103A90004B000121CC4880F84C10032180F84D10D8
:103AA0006922C949C94813F01DFDC948A5236F22E1
:103AB000C649891F009040F20130FDF78AFEBDE43F
:103AC0001020C249891F087001204870C14890F831
:103AD00039008870BF4890F839000012C870BE489D
:103AE00000780871BC48008800124871BB48C07853
:103AF00020F00700801CB949C8700846B0F80300E0
:103B000020F470704030A1F803000846C07820F01F
:103B100038003830C8700020087001204870042038
:103B20008870C821AD48008961F38C00AB490881D9
:103B300040F22621A948B0F8090061F34F10A749C7
:103B4000A1F809000846B0F807006FF30900801CCF
:103B5000A1F807000F21A148808861F38E109F49CA
:103B600088800B219D48B0F8050061F3CF109B4978
:103B7000A1F805009A480068012819D10846007983
:103B800020F03C00083008715320C8735521934839
:103B90000174502141745F2181744F21C1745021FF
:103BA0000175452141754E2181752021C1751CE0AB
:103BB0008B480068C8B98948007920F03C0014306F
:103BC000864908715320C8735521844801745021D7
:103BD00041745F2181744321C1744C2101754F21CF
:103BE0004175532181754521C1752D227B49774847
:103BF00013F078FC7648A52333227449891F00907E
:103C000040F20130FDF7E5FD18E404206F49891FFB
:103C10000870012048706F4890F8390088706D482E
:103C200090F839000012C8706B48007808716A4833
:103C30000088001248716B48C07820F00700801C93
:103C40006849C8700846B0F8030020F4707040302E
:103C5000A1F803000846C07820F03800C8700020A2
:103C6000087001204870052088700846807C20F08C
:103C70000700801C88740846408A20F47070403029
:103C800048820846807C20F0380156488174002024
:103C90005449C873012153480174062141745048A6
:103CA0000068012853D140F281114E48008961F328
:103CB0008C004C49088140F22B214A48B0F8090099
:103CC00061F34F104749A1F8090040F21721454818
:103CD000B0F80D0061F34F104249A1F80D004FF408
:103CE000C8714048808961F38C003E49888108464C
:103CF000007920F03C00143008714FF4E17139482C
:103D0000B0F8170061F38C003649A1F8170040F2B3
:103D100017213448008B61F34F103249088340F279
:103D20002B213048808B61F34F102E49888340F25D
:103D3000D1112C48B0F81B0061F38C002949A1F87F
:103D40001B000846C07C20F03C001430C874244896
:103D50000068B8BB4FF4C8712248008961F38C0039
:103D60002049088140F217211E48B0F8090061F38C
:103D70004F101C49A1F8090040F217211948B0F86A
:103D80000D0061F34F101749A1F80D004FF4D271E7
:103D90001448808961F38C001249888108460079B3
:103DA00020F03C00143008714FF4D7710D48B0F882
:103DB000170061F38C000B49A1F8170040F217219E
:103DC000084811E02DE00000555A002077540020EB
:103DD0000F540020514B002036000020B356002025
:103DE0000C00002083590020008B61F34F10FE4926
:103DF000088340F21721FC48808B61F34F10FA4989
:103E000088834FF4E171F848B0F81B0061F38C002F
:103E1000F549A1F81B000846C07C20F03C00143096
:103E2000C874F148B0F807006FF30900401DEE496F
:103E3000A1F807000846C08A6FF30900401DC88238
:103E40006922EA4813F04EFBE948A5236F22E749AF
:103E5000891F009040F20130FDF7BBFCC3E3102046
:103E6000E249891F087001204870E24890F8390043
:103E70008870E04890F839000012C870DE48007879
:103E80000871DD48008800124871DC48C07820F0D5
:103E90000700801CD949C8700846B0F8030020F418
:103EA00070704030A1F803000846C07820F0380058
:103EB0003830C870002008700120487007208870D2
:103EC000F021CE48008961F38C00CC49088140F292
:103ED000C621CA48B0F8090061F34F10C749A1F8DC
:103EE00009000846B0F807006FF30900801CA1F82C
:103EF00007000F21C148808861F38E10BF49888078
:103F00000821BE48B0F8050061F3CF10BB49A1F805
:103F10000500BB480068012813D10846007920F04D
:103F20003C00083008714420C8734521B34801742F
:103F300054214174452181744321C1745421017578
:103F400017E0AE48007920F03C001430AB4908710E
:103F50005520C8734E21A94801744421417445215C
:103F600081745421C1744521017543214175542147
:103F700081752D22A1499D4813F0B4FA9C48A523D0
:103F800033229A49891F009040F20130FDF721FC4D
:103F900029E304209549891F08700120487095483D
:103FA00090F839008870934890F839000012C87072
:103FB0009148007808719048008800124871914833
:103FC000C07820F00700801C8E49C8700846B0F801
:103FD000030020F470704030A1F803000846C07858
:103FE00020F038001030C8700020087001204870A0
:103FF0000920887082480068012827D1DC21814887
:10400000008961F38C007F49088140F2B9217D4825
:10401000B0F8090061F34F107A49A1F80900084689
:10402000B0F80B006FF30900C01CA1F80B000846A4
:10403000007920F03C00083008710846B0F807000D
:104040006FF309000930A1F8070026E0DC216D4874
:10405000008961F38C006B49088140F2B9216948FD
:10406000B0F8090061F34F106649A1F8090008464D
:10407000B0F80B006FF30900C01CA1F80B00084654
:10408000007920F03C00143008710846B0F80700B1
:104090006FF309000930A1F8070069225949534814
:1040A00013F020FA5248A5236F225049891F00902F
:1040B00040F20130FDF78DFB95E210204B49891F3E
:1040C0000870012048704B4890F8390088704948C2
:1040D00090F839000012C8704748007808714648C7
:1040E0000088001248714848C07820F00700801C02
:1040F0004549C8700846B0F8030020F4707040309D
:10410000A1F803000846C07820F038003830C870A5
:104110000020087001204870082088704FF4CD718D
:104120003948008961F38C003749088140F2C62183
:104130003548B0F8090061F34F103349A1F8090080
:104140000846B0F807006FF30900801CA1F80700CB
:1041500014212D48808861F38E102B49888004211A
:104160002948B0F8050061F3CF102749A1F80500F0
:104170000846007920F03C0014300871234890ED87
:10418000000B53EC102BAFF6F8311F480F3013F033
:10419000B9FD2D221C49154813F0A4F91448A52394
:1041A00033221249891F009040F20130FDF711FBC4
:1041B00019E204200D49891F0870012048700D483C
:1041C00090F8390088700B4890F839000012C870D8
:1041D00009480078087108480088001248710C48A6
:1041E000C07820F0070015E08359002077540020A4
:1041F0000F540020514B002036000020945700201F
:10420000400000201A590020C1570020580000200B
:10421000B1580020801CFE49C8700846B0F8030061
:1042200020F470704030A1F803000846C07820F0F8
:1042300038001030C8700020087048700120887065
:104240004FF47071F248008961F38C00F0490881E5
:104250004FF4E171EE48B0F8090061F34F10EC49FA
:10426000A1F809000846B0F80B006FF30900C01C64
:10427000A1F80B000846B0F807006FF30900401DD5
:10428000A1F807000846807C20F00700801C887495
:104290000846408A20F47070403048820846807C8E
:1042A00020F03800103088740020C8730021D848EE
:1042B0000174022141744FF47071B0F8170061F37A
:1042C0008C00D349A1F817004FF4D271D048008B6D
:1042D00061F34F10CE4908830846408B6FF3090005
:1042E000C01C48830846C08A6FF30900401DC8827D
:1042F000C848007802280CD10846007920F03C001C
:10430000001D08710846C07C20F03C00001DC874E8
:104310000BE0BF48007920F03C00BD490871084619
:10432000C07C20F03C01BA48C1746922B849BA483F
:1043300013F0D8F8B948A5236F22B749891F009018
:1043400040F20130FDF745FA4DE11020B249891FD6
:10435000087001204870B24890F839008870B04861
:1043600090F839000012C870AE4800780871AD4866
:10437000008800124871AC48C07820F00700401C4B
:10438000A949C8700846B0F8030020F470704030A6
:10439000A1F803000846C07820F038003830C87013
:1043A0000020087002204870012088704FF4AF711F
:1043B0009D48008961F38C009B49088140F20231DD
:1043C0009948B0F8090061F34F109749A1F8090026
:1043D0000846B0F807006FF30900801CA1F8070039
:1043E00014219148808861F38E108F4988800821BC
:1043F0008D48B0F8050061F3CF108B49A1F8050096
:104400000846007920F03C00143008718748007895
:1044100010BB86484078F8B984484079E0B98348B1
:104420008079C8B90846007920F03C00083008714E
:104430004D20C8734F217C480174542141744F2191
:1044400081745221C1744E21017549214175432166
:1044500081754521C175B5E074480078012823D1E4
:104460007248407800BB71484079E8B96F4880795C
:10447000D0B96D48007920F03C0014306A490871C9
:104480005720C873482168480174452141748174DC
:104490004C21C174452101755221417581754F210F
:1044A000C175522101768DE060484078012823D102
:1044B0005E48007800BB5D484079E8B95B48807988
:1044C000D0B95948007920F03C00143056490871A1
:1044D0005320C8734821544801744F21417481749A
:1044E0005421C174452101755221417581754F21B7
:1044F000C1755221017665E04C484079012824D1EC
:104500004A48807908BB49480078F0B94748407864
:10451000D8B94548007920F03C0014304249087170
:104520005020C873492140480174542141744321EB
:1045300081744821C17445210175522141758175ED
:104540004F21C175522101763CE03848407908BBC3
:104550003648807901281DD134480078D0B93348D5
:104560004078B8B93048007920F03C0014302E492A
:1045700008715920C87341212B4801745721417497
:10458000452181745221C17401754F214175522119
:10459000817517E02448007920F03C00143022494E
:1045A00008714D20C8734F211F4801745221417476
:1045B00045218174C1745221017541754F21817566
:1045C0005221C1752D221849134812F08BFF134850
:1045D000A52333221049891F009040F20130FDF7D6
:1045E000F8F800E000BF00BF11480078401C1049F7
:1045F000087010480078401C0E4908700C4800787C
:10460000182802DD0D200A4908700B48007815E0D3
:10461000B1580020C0010020775400200F54002022
:10462000514B0020360000201B580020680000205D
:1046300030000020310000201C030020012807D199
:104640000E480088401C0D49088001200C49087064
:104650000A480088642802DB00200A4908700A48DA
:1046600000680A49086002B0BDEC048B10BD04214B
:10467000074A917111464873704700003C000020C2
:10468000300000201C0300204000002048000020D3
:1046900071540020F0B503460C461888002113E041
:1046A000675C80EA072000250BE0460000F4004C20
:1046B000BCF1000F03D041F2210C86EA0C06304613
:1046C0006D1C082DF1D3491C9142E9D31880F0BD2F
:1046D00000B597B00121042005F0EAFB012188050F
:1046E00005F0E6FB0121202005F026FC082206212A
:1046F000FE4805F022FA08220721FC4805F01DFAC1
:10470000C020119002208DF8480000208DF84A004A
:1047100002208DF8490000208DF84B0011A9F348C4
:1047200005F080F9F24806F099FB4FF4E130139060
:104730000020ADF85000ADF85200ADF854000C2048
:10474000ADF856000020ADF8580013A9E84806F06F
:10475000D3FB01224021E64806F003FDE54804F0C2
:1047600021FC4FF020600190E148001D0290E248DA
:1047700003900020049064200590002006904FF4E0
:10478000806007900020089009900A904FF48030D4
:104790000B9000200C900D900E900F9001A9D54821
:1047A00004F0A2FC0121D34804F0D8FC47208DF886
:1047B000400003208DF841008DF8420001208DF863
:1047C000430010A803F08BFE012240F22441C848A8
:1047D00006F0D0FC0121C64806F016FC17B000BD5B
:1047E0002DE9F8430027002000900026804606258A
:1047F00040F22441BE4806F0F8FC002873D0BC48C3
:104800000088BB48001D00880021BA4804F0A6FCBF
:10481000BA49B84804F01BFDB64804F0C2FCC0F128
:104820006400C6B2B648407800285DD00020B24986
:1048300081F86300B2484078C0F3800078B1B1A13C
:10484000AD4812F081FEB04908600846006830B1FA
:10485000AB48007820F00400001DA9490870A84862
:10486000407800F0010078B1A6A1A34812F06CFED8
:10487000A54908600846006830B1A148007820F0DA
:104880000100401C9E4908709D484078C0F34000DC
:1048900078B19CA1984812F057FE9B4908600846E1
:1048A000006830B19648007820F00200801C9449DE
:1048B000087093484078C0F3C00078B193A18E4847
:1048C00012F042FE904908600846006830B18C48FA
:1048D000007820F008000830894908706421864873
:1048E00012F027FE4EE155E1834800785A28F9D1AD
:1048F00081484078A528F5D17F4880787E49C978DD
:1049000000EB0120801DB042ECD1082EEADB04222E
:1049100079496846FFF7BEFEB21F7749891D684690
:10492000FFF7B8FE744800797349497900EB01201C
:1049300087B2BDF80000B842D4D106251FE16E4809
:1049400044192078C02869D008DC90280FD0A0280E
:1049500013D0A5282CD0B0287BD144E0D0287CD01F
:10496000D12878D0D92877D0F028F5D101E1607826
:104970006B490870A81CC5B200E16078A17800EB13
:10498000012000B26649A1F80100E078217900EB2E
:10499000012000B26249A1F803006079A17900EB1F
:1049A000012000B25E49A1F80500E81DC5B2E5E0AE
:1049B0006078A17800EB012000B25949A1F8070006
:1049C000E078217900EB012000B25549A1F80900F7
:1049D0006079A17900EB012000B25149A1F80B00E8
:1049E000E81DC5B2CAE06078A17800EB012000B2F2
:1049F0004B49A1F80D00E078217900EB012000B2CD
:104A00004749A1F80F006079A17900EB012000B2BD
:104A10004349A1F81100E81DC5B2AFE06078A17864
:104A200000EB012000B23E49A1F81300E0782179A3
:104A300000EB012000B23A49A1F815006079A17994
:104A400000EB012000B23649A1F81700E81DC5B2FD
:104A500094E091E001E079E068E06078A17800EB13
:104A6000012000B22E49A1F81900E078217900EB6D
:104A7000012000B22A49A1F81B006079A17900EB5E
:104A8000012000B22649A1F81D000846B0F919001E
:104A900000EE100AB8EEC00ADFED220A20EE200A6E
:104AA00010EE100AC1F83B000846B0F91B0000EEFA
:104AB000100AB8EEC00ADFED1B0A20EE200A10EE45
:104AC000100AC1F83F000846B0F91D0000EE100AB8
:104AD000B8EEC00ADFED140A20EE200A10EE100A2C
:104AE000C1F84300E81DC5B248E0000000080240DC
:104AF0000014014028640240055B0020000C0010F7
:104B0000700000204F4B0000740000206E6577207D
:104B10007061636B6574206974656D7300000000DB
:104B2000BE5A00200AD7233CCDCCCC3D654854F872
:104B3000011FC0F81F106168C0F82310A168641E2F
:104B4000C0F8271005F10D00C5B217E05D4854F814
:104B5000011FC0F82B106168C0F82F10A168C0F8C1
:104B60003310E168641EC0F8371005F11100C5B2BA
:104B700004E0681DC5B201E0354600BF00BFB54284
:104B8000FFF6DDAE6421504804F009FB01214E48D8
:104B900004F0E4FABDE8F88310B5012009F0EFFA5B
:104BA000044612F03DFC10BD10B504460DE0214650
:104BB00046A013F097F84848407820F00200801C87
:104BC000454948706420FBF767FE43480078C0F30E
:104BD00040000028EBD04048407820F002003E49D9
:104BE000487010BD10B504460DE021463BA013F0FF
:104BF00079F83948407820F00400001D36494870A3
:104C00006420FBF749FE34480078C0F38000002898
:104C1000EBD03148407820F004002F49487010BD97
:104C200010B504460DE0214630A013F05BF82A4889
:104C3000407820F008000830274948706420FBF7CE
:104C40002BFE25480078C0F3C0000028EBD0224896
:104C5000407820F008002049487010BD10B5044687
:104C60000DE0214625A013F03DF81B48407820F0C8
:104C70000100401C184948706420FBF70DFE1648DF
:104C8000007800F001000028EBD01348407820F0B5
:104C900001001149487010BD10B51CA013F022F896
:104CA00010BD10B51CA0FFF7D9FF1CA0FFF79AFF9D
:104CB0001CA0FFF779FF1DA0FFF7B2FFFFF7ECFF85
:104CC00010BD0000BE5A00202864024041542B4F02
:104CD00044523D25730D0A007000002041542B42C0
:104CE0004155443D25730D0A0000000041542B53EB
:104CF000455450544C3D25730D0A000041542B453A
:104D00004F55543D25730D0A0000000041542B52AD
:104D100053540D0A000000003000000031313532DC
:104D200030300000313030300000000041302C4283
:104D3000302C43302C44302C44390000F9A070470B
:104D4000FA48704770B505460C46204614F074FCCE
:104D500070BD70B505460C46204614F045FC70BD8C
:104D60002DE9F05F0546884692462C46A06800EB88
:104D700008096068484525D2D4F814B06068460038
:104D8000BBF1000F01D1DFF8A8B300E076004E457B
:104D9000FCD33146584602F035FE07460FB9BDE850
:104DA000F09F3846D4E9022112F09CFB206920B123
:104DB0005846E16802F02EFE01E001202061E76024
:104DC000666000BFD4E9022188184246514612F0BD
:104DD00089FBC4F8089000BFE1E70146102901D221
:104DE00001207047B1F5006F01D20220F9E7B1F55B
:104DF000802F01D20320F4E7B1F1007F01D204201B
:104E0000EFE70520EDE70146802901D20120704738
:104E1000B1F5804F01D20220F9E7B1F5001F01D2B0
:104E20000320F4E7B1F1805F01D20420EFE7052011
:104E3000EDE70146002901DA0A207047802901DAEE
:104E40000120FAE7B1F5804F01DA0220F5E7B1F56C
:104E5000001F01DA0320F0E7B1F1805F01DA0420DE
:104E6000EBE70520E9E770B505460E4634461CB968
:104E70002846FFF7C8FF70BD082C01D20520FAE7CD
:104E8000B4F5806F01D20620F5E7B4F5003F01D2FA
:104E90000720F0E7B4F1807F01D20820EBE7B4F1FE
:104EA000004F01D20920E6E70A20E4E72DE9F05F90
:104EB00080460D4692460026DAF8007015B90020AB
:104EC000BDE8F09FD8F80400FFF787FF814698F807
:104ED0001C0000F0010008B909FB05F998F8090069
:104EE000112814D2DFE800F0150948392B4E20496B
:104EF0003A4F4A50541456667300002405E057F8A0
:104F0000240002F0CDFD0644641CAC42F7D36EE0F1
:104F100000BF002405E057F82400FFF78AFF06448D
:104F2000641CAC42F7D362E0002405E057F824008B
:104F3000FFF769FF0644641CAC42F7D357E0002436
:104F400008E007EBC400D0E90021104602F0B1FDF3
:104F50000644641CAC42F4D349E000BF002408E0DE
:104F600007EBC401D1E900211046FFF77CFF06449E
:104F7000641CAC42F4D33AE000BF00BF042000FB45
:104F8000056634E000BF00BF082000FB05662EE088
:104F90002E442CE000240AE057F8240012F0E6FA30
:104FA00083465846FFF72FFF58440644641CAC4222
:104FB000F2D31CE0002407E057F834B05846FFF75E
:104FC00022FF58440644641CAC42F5D30FE0002491
:104FD0000AE057F8240000F0D6F883465846FFF759
:104FE00012FF58440644641CAC42F2D300BF00BF19
:104FF00098F81C0000F0010018B13046FFF703FFDD
:10500000814409EB06005BE770B505460C460026B7
:10501000687A112860D2DFE800F01211141D1C1FFD
:1050200013151E202D3909104D575800206808B956
:10503000012000E00020064650E000BF00BF00BF96
:1050400000BF00BF206808B9012000E0002006462C
:1050500044E000BF00BF00BF00BF00210846D4E904
:10506000003259405040014301D1012000E00020AE
:10507000064633E094ED000AB5EEC00AF1EE10FAF0
:1050800001D1012000E00020064627E094ED001B3E
:10509000B0EE410AF0EE610A53EC102B9FED251B98
:1050A00051EC110B12F070FC01D1012000E0002046
:1050B000064613E0206810B12068007808B9012086
:1050C00000E00020064609E000BF206808B9012082
:1050D00000E00020064601E0012600BF00BF304688
:1050E00070BD70B504460D4629462046FFF78CFF7B
:1050F00008B1002070BD2946204600F0B0F8F9E75D
:1051000070B504460E461546607A102802D0607AC3
:105110000E2814D1296811B1A06988420ED100204F
:1051200070BD0000312E332E33000000FB4D0F0008
:1051300078000020000000000000000002E00EB92E
:105140000020EDE72946204600F089F8E8E770B531
:1051500004460E4615466068B04201D0002070BD7E
:10516000607A102802D0607A0E2807D1296811B120
:10517000A069884201D10020F1E700BF29462046FE
:1051800000F06DF8EBE72DE9F047054600272868A9
:105190000068FA49884200D105E040F2CB22F8A12C
:1051A000FC4811F0E0FD002643E02868C06906EBEA
:1051B000460101EBC60100EB8104206900EB050903
:1051C000E06800EB0508207A28B94946204600F03F
:1051D00046F807442CE0207A012802D0207A0328E0
:1051E0000BD1207F00F0040038B14A462046D8F8A1
:1051F0000010FFF7ACFF07441AE0207A012807D11E
:105200004A462046D8F80010FFF77AFF07440FE01F
:10521000207A032805D149462046FFF762FF07445C
:1052200006E04A462046D8F80010FFF73FFE074444
:10523000761C28688069B042B7D8002609E0A868C3
:1052400000EB06142068FFF7C8FDA1680844074476
:10525000761C6868B042F2D83846BDE8F0872DE980
:10526000F04106460D467068FFF7B7FD0446707AB8
:1052700011285BD2DFE800F0100929211A2C152A29
:10528000222D3234300F37454C00286802F008FCDC
:105290002044BDE8F08100BF2868FFF7CAFD204424
:1052A000F7E72868FFF7AFFD2044F2E7D5E90021D2
:1052B000104602F0FEFB2044EBE700BFD5E90021D9
:1052C0001046FFF7D0FD2044E3E700BF201DE0E7D4
:1052D00000BF04F10800DCE7601CDAE7201DD8E716
:1052E00004F10800D5E72F681FB1384612F03EF9E7
:1052F00000E0002080464046FFF785FD2044404402
:10530000C7E72F683846FFF77EFD20443844C0E7E2
:105310002F681FB13846FFF736FF00E000208046B7
:105320004046FFF770FD20444044B2E740F2CD1202
:1053300093A199A011F017FD30B502460020802AF4
:1053400021D3D3B243F080050346401CCD54D2098B
:10535000802A18D3D3B243F080050346401CCD54B5
:10536000D209802A0FD3D3B243F080050346401CF4
:10537000CD54D209802A06D3D3B243F08005034628
:10538000401CCD54D2090346401CCA5430BD70B5F0
:1053900005460C46002D1CDAE8B240F08000207073
:1053A000802040EAE5106070802040EAA530A070BF
:1053B000802040EA6550E070802040EA257020712E
:1053C000FF202072E071A0716071012060720A20DC
:1053D00070BD21462846FFF7AFFFF9E72DE9F047FA
:1053E00007468846144645463E462DB92146304676
:1053F000FFF7A2FFBDE8F087F0B240F08000207018
:10540000802040EAD6106070802040EA9630A0707C
:10541000802040EA5650E070082D05D2280140EA6D
:10542000167020710520E5E76807400E40EA167007
:1054300040F080002071ED084FF0050907E0E8B268
:1054400040F08002484609F101092254ED09802DFF
:10545000F5D2484609F1010925544846CAE72DE925
:10546000F04104460D46B4F1005F05D2E000294644
:10547000FFF762FFBDE8F0810020C00040EA5471F0
:10548000E6002A463046FFF7A9FFF3E770B5044669
:105490000D4629462068FFF7E2FF06462878217965
:1054A00008432870A819D4E9022112F01BF8A0685B
:1054B000304470BD2DE9F05F81460E46144621460A
:1054C000D9F80400FFF7CBFF054699F80900112829
:1054D00053D2DFE800F01309382D23441B392E4541
:1054E0003A4663126B8BA1002078207061193068F6
:1054F00002F0ECFA2844BDE8F09F00BF207820704D
:1055000061193068FFF743FF2844F4E720782070E2
:1055100061193068FFF710FF2844ECE7207820700D
:105520006219D6E90071384602F0DBFA2844E2E756
:1055300000BF207820706219D6E900713846FFF765
:105540004DFF2844D7E700BF00BF207840F005009A
:1055500020706119306802F0D3FA2844CBE700BF0D
:1055600000BF207840F0010020706219D6E9007178
:10557000384602F0C9FA2844BDE757E0F9EEAA28F8
:105580004253505C70726F746F6275662D632E6348
:1055900000000000289F01083000000020782070E3
:1055A0006119306802F0B7FA2844A4E7207840F087
:1055B0000200207004EB0508376827B9002088F83E
:1055C0000000012010E0384611F0D0FF824641462D
:1055D0005046FFF7B1FE834608EB0B0052463946B2
:1055E00011F080FF0BEB0A00284484E7207840F09C
:1055F000020020706719D6F8008039464046FFF750
:105600009BFE824607EB0A004246716811F06AFF72
:105610000AEB080028446EE7207840F00200207072
:105620006119306800F01BFA284464E740F27142C7
:10563000AFF2B401AFF2A00011F095FB10B5044633
:10564000112C20D2DFE804F00A090C1211140B0D02
:1056500013150E16180F1A1D1B0000BF00BF00BF48
:1056600000BF00BF00BF042010BD00BF00BF00BFCF
:1056700000BF00BF0820F7E70420F5E700BF0420C3
:10568000F2E70820F0E74FF49E62AFF20C11AFF2A0
:10569000F80011F068FB70B505460E461446E200AE
:1056A0003146284611F01EFF70BD70B505460E4606
:1056B0001446A2003146284611F014FF70BD014681
:1056C000022903D0072901D00A2901D104207047FB
:1056D000052903D0092901D00B2901D10820F6E7BB
:1056E0000120F4E72DE9FF4F87B082460D461F46A3
:1056F0000998D0F800809AF81C0000F001000028FA
:105700006FD01DB900200BB0BDE8F08F3946DAF834
:105710000400FFF7A4FE8146387840F0020038709C
:10572000CDF818909AF80900FFF7C9FF6843059073
:105730000598FFF768FB8346D94407EB09069AF8FA
:1057400009000E2870D2DFE800F01C2B075C3A112C
:105750004D085D120913701B00BF00BF2A46414669
:105760003046FFF7A2FF06EB850675E000BF00BFDD
:105770002A4641463046FFF78EFF06EBC5066BE032
:1057800000BFCDF80880002407E0029951F82400FA
:105790003146FFF7FCFD0644641CAC42F5D35BE0E8
:1057A000CDF80880002407E0029951F82400314622
:1057B00002F08CF90644641CAC42F5D34CE0CDF801
:1057C000088000240AE0029800EBC40103C93246B5
:1057D000CDE9000102F085F90644641CAC42F2D325
:1057E0003AE064E0CDF80880002407E0029951F81F
:1057F00024003146FFF7A0FD0644641CAC42F5D3FB
:105800002AE000BFCDF8088000240AE0029800EBEF
:10581000C40103C93246CDE90001FFF7DFFD0644AC
:10582000641CAC42F2D317E00EE0CDF808800024EF
:1058300007E0029951F82400314602F06CF9064461
:10584000641CAC42F5D307E040F29A52AFF2D0218B
:10585000AFF2BC2011F087FA00BF07EB0900301A45
:1058600004900498FFF7CFFA03900398834516D06D
:105870000BF101010398884200D106E04FF4B462B5
:10588000AFF20431FBA011F06EFA07EB090107EB50
:105890000902501C049A11F025FE09F1010906982D
:1058A00039180498FFF748FD049848442BE7002670
:1058B0009AF80900FFF7C2FE8146002407E0BA19F2
:1058C00041465046FFF7F6FD0644C844641CAC420E
:1058D000F5D3304617E770B504460D4616462946FF
:1058E0002046FFF791FB08B1002070BD32462946E3
:1058F0002046FFF7DFFDF8E72DE9F04104460E46AC
:1059000015461F46607A102802D0607A0E2808D10A
:10591000296811B1A069884202D10020BDE8F08158
:1059200002E00EB90020F9E73A4629462046FFF783
:10593000C1FDF3E72DE9F04104460E4615461F462A
:105940006068B04202D00020BDE8F081607A102883
:1059500002D0607A0E2807D1296811B1A069884267
:1059600001D10020F0E700BF3A4629462046FFF764
:10597000A1FDE9E72DE9F04706460F46002430680F
:105980000068C749884200D106E040F2C652AFF233
:105990001041C44811F0E7F94FF0000849E03068C1
:1059A000C06908EB480101EBC80100EB81052869DB
:1059B00000EB060AE86800EB0609287A30B93A19C4
:1059C00051462846FFF776FD044430E0287A012846
:1059D00002D0287A03280CD1287F00F0040040B1BF
:1059E0003B1952462846D9F80010FFF7A3FF04449C
:1059F0001DE0287A012808D13B1952462846D9F8DB
:105A00000010FFF779FF044411E0287A032806D13B
:105A10003A1951462846FFF75EFF044407E03B1958
:105A200052462846D9F80010FFF75CFE044408F1FE
:105A30000108306880694045B1D84FF0000808E09F
:105A4000B26802EB08103919FFF720FD044408F191
:105A5000010870684045F3D82046BDE8F0872DE97D
:105A6000F04106460C4626B9002020700120BDE812
:105A7000F081611C3046FFF77DFF05462846FFF7A1
:105A8000C2F90746012F04D0E0192A46611C11F023
:105A900029FD21462846FFF74FFC2844E7E7FEB5DD
:105AA00004460D4669462068FFF7D9FC06469DF876
:105AB0000000217908438DF800006A4631462846E7
:105AC0002B689847D4E9021228462B689847A068AB
:105AD0003044FEBD2DE9FF5F81460D4690461E46CF
