:020000040800F2
:10000000181E0020E14900083702000839020008E4
:100010003D020008410200084502000800000000FF
:10002000000000000000000000000000490200087D
:100030004B020008000000004D0200084F020008BB
:10004000FB490008FB490008FB490008FB49000880
:10005000FB490008FB490008FB490008FB49000870
:10006000FB490008FB490008FB490008FB49000860
:10007000FB490008FB490008FB4900085529000816
:10008000FB490008FB490008FB490008EB1F00087A
:1000900001200008FB490008FB490008FB49000853
:1000A000FB490008FB490008FB490008FB49000820
:1000B000FB490008FB490008FB490008FB49000810
:1000C000FB490008FB490008FB490008FB49000800
:1000D000FB490008FB220008E7240008E526000889
:1000E000FB490008FB490008FB490008FB490008E0
:1000F000FB490008FB490008FB490008FB490008D0
:10010000FB490008FB490008FB490008FB490008BF
:10011000E7280008E52B0008FB490008FB49000818
:10012000FB490008FB490008FB490008FB4900089F
:10013000FB490008FB490008FB4900083B21000877
:1001400051210008FB490008FB490008FB49000851
:10015000FB490008FB490008FB4900083F2D000847
:10016000FB490008FB490008FB490008FB4900085F
:10017000FB490008FB490008FB490008FB4900084F
:10018000FB490008FB49000800F002F800F03CF8C9
:100190000AA090E8000C82448344AAF10107DA45E2
:1001A00001D100F031F8AFF2090EBAE80F0013F0F8
:1001B000010F18BFFB1A43F0010318471C5C000035
:1001C0003C5C0000103A24BF78C878C1FAD85207C6
:1001D00024BF30C830C144BF04680C6070470000C1
:1001E0000023002400250026103A28BF78C1FBD840
:1001F000520728BF30C148BF0B6070471FB505F0DC
:100200008EFD1FBD10B510BD04F0B7FC1146FFF701
:10021000F5FF00F008F804F0D5FC03B4FFF7F2FF97
:1002200003BC04F09FFC00F01BF903E000F012FD9A
:1002300000F078FDFAE7704700BFFEE700BFFEE779
:1002400000BFFEE700BFFEE770477047704770478A
:100250000CB50020019000907648006840F4803092
:100260007449086000BF7348006800F400300090D3
:100270000198401C0190009818B90198B0F5A06F42
:10028000F1D16C48006800F4003010B101200090FA
:1002900001E0002000900098012846D165484030D8
:1002A000006840F08050634940310860624800684F
:1002B00040F44040604908605E48083000685D498D
:1002C000083108600846006840F4004008600846AD
:1002D000006840F4A05008605848091F0860081FD3
:1002E000006840F08070091F086000BF5148006836
:1002F00000F000700028F9D040F205705049086005
:100300004C480830006820F003004A490831086072
:100310000846006840F00200086000BF4548083009
:10032000006800F00C000828F8D10CBD10B5454855
:10033000006840F47000434908603E48006840F09F
:1003400001003C49086000203A49083108603948FA
:1003500000683D490840374908603C48091D08606D
:10036000081F006820F48020091F08600020314920
:100370000C310860FFF76CFF4FF0006031498039A5
:10038000086010BD70B50020002202230024022165
:10039000284D08352D6805F00C0020B1042806D042
:1003A000082834D107E02A4D2A4E356033E02A4D23
:1003B000284E35602FE01F4D2D1D2D68C5F380544C
:1003C0001C4D2D1D2D6805F03F0154B1224DB5FB8C
:1003D000F1F5184E361D3668C6F3881605FB06F291
:1003E00009E01B4DB5FBF1F5124E361D3668C6F31C
:1003F000881605FB06F20F4D2D1D2D68C5F301452E
:100400006D1C6B00B2FBF3F5124E356003E0104D2E
:10041000104E356000BF00BF064D08352D68C5F38E
:1004200003150E4E705D0B4D2D68C540094E3560AD
:1004300070BD0000003802400070004008544007C2
:10044000003C024088ED00E0FFFFF6FE1030002483
:100450000024F4000000002000127A0004000020B4
:1004600010B54FF4A06002F0DDFC134801F0B0FEBF
:100470004FF4E13001F0A2FF4FF4E13002F08FF8C9
:100480004FF4E13002F058F94FF4E13002F096FAFF
:100490004FF4612002F0CCFB01F07CFE002303222C
:1004A0000821104601F02EFD0023032208211046EA
:1004B00001F0C1FD10BD0000A086010010B540F2A2
:1004C000F441FE4804F023FB0020FC49087048700A
:1004D00010BD10B52DED088BF948007870B9F948BA
:1004E00090ED000AF84880ED000AF64890ED010A08
:1004F000F64880ED000A0120F1490870F14890EDBE
:10050000000AEE4880ED040AEE4890ED010AEB483F
:1005100080ED030AEE48C07B48B1ED4890ED040A37
:10052000F7EE000A30EE200A80ED040A04E09FEDA9
:10053000E90AE74880ED040AE54890ED040AF7EE81
:10054000000AB4EEE00AF1EE10FA7CD20120E24992
:100550000870DF48B0F9080000EE100AB8EEC00AD3
:10056000DE48D0ED000AB4EE600AF1EE10FA79D15F
:10057000D748B0F90A0000EE100AB8EEC00AD84811
:10058000D0ED000AB4EE600AF1EE10FA6AD1D0495B
:10059000B1F9080005F0D5F841EC1B0B9FEDD10B2C
:1005A00053EC102B05F020F941EC1A0B9FEDCF1BFB
:1005B000B0EE4A0AF0EE6A0A04F092FCB0EE409AFD
:1005C000F0EE609A9FEDCB0B53EC102B51EC190B16
:1005D00005F00AF941EC180B04F046FEC749086023
:1005E000BB49B1F90A0005F0ACF841EC1B0B9FEDDB
:1005F000BD0B53EC102B05F0F7F841EC1A0B9FEDF7
:10060000BB1BB0EE4A0AF0EE6A0A04F069FCB0EED9
:10061000409AF0EE609A9FEDB70B53EC102B51EC23
:10062000190B05F0E1F841EC180B04F01DFEB4497C
:100630000860A74890ED000AB048D0ED000A30EEFF
:10064000200AB04801E02AE00CE080ED000AA04852
:1006500090ED010A0846D0ED000A30EE200AAA48C3
:1006600080ED000A9A48B0F9080000EE100AB8EED2
:10067000C00A9A4880ED000A9548B0F90A0000EED9
:10068000100AB8EEC00A964880ED000AB7EE000ADC
:100690008A4880ED010AB7EE000A80ED020A874819
:1006A00090ED020AFBEE090AB4EEE00AF1EE10FA50
:1006B00004D8BBEE090A80ED020A0DE07F4890EDF8
:1006C000020ADFED920AB4EEE00AF1EE10FA03DB63
:1006D0009FED8E0A80ED020A7F48007858B97B486A
:1006E00090ED000A754880ED010A774890ED000A08
:1006F000724880ED020A7348D0ED041AB0EE611A18
:100700006E48D0ED031AF0EE610AD0ED011AB0EE9A
:10071000610ADFED701A00F5956100F5717000F067
:1007200042FE664880ED090A6648D0ED031AB0EE35
:10073000611A6248D0ED041AF0EE610AD0ED021A97
:10074000B0EE610ADFED631A00F25C4100F58260F1
:1007500000F029FE594880ED0A0ABDEC088B10BD57
:1007600010B52DED088B5648007870B9554890EDBE
:10077000000A554880ED000A524890ED010A53489E
:1007800080ED000A01204E4908704E4890ED000AA5
:100790004A4880ED040A4B4890ED010A474880ED35
:1007A000030A4B48C07B48B1494890ED040AF7EE74
:1007B000000A30EE200A80ED040A04E09FED450AAD
:1007C000434880ED040A424890ED040AF7EE000A1F
:1007D000B4EEE00AF1EE10FA6DD201203E49087045
:1007E0003B48B0F9080000EE100AB8EEC00A3B48DA
:1007F000D0ED000AB4EE600AF1EE10FA5CD1344894
:10080000B0F90A0000EE100AB8EEC00A3448D0ED84
:10081000000AB4EE600AF1EE10FA4DD12C49B1F99C
:10082000080004F08EFF41EC1B0B9FED2E0B53ECE8
:10083000102B04F0D9FF41EC1A0B9FED2C1BB0EEEE
:100840004A0AF0EE6A0A04F04BFBB0EE409AF0EE72
:10085000609A9FED280B53EC102B51EC190B04F010
:10086000C3FF41EC180B04F0FFFC24490860184951
:10087000B1F90A0004F065FF41EC1B0B9FED190B69
:1008800053EC102B04F0B0FF41EC1A0B9FED171B3B
:10089000B0EE4A0AF0EE6A0A04F022FBB0EE409A8B
:1008A000F0EE609A9FED130B53EC102B51EC190BEB
:1008B00004F09AFF2CE064E046E00000880000208D
:1008C0002C000020E8060020140000201800002062
:1008D000F00E0020000000002D0000202400002069
:1008E00028000020000000A02C436C3F0000000006
:1008F0000000184000000020DCA54C403000002023
:10090000340000201C0000202000002000000C42C9
:1009100041EC180B04F0A8FCF1490860F14890ED97
:10092000000AF148D0ED000A30EE200AEF4880EDD1
:10093000000AEC4890ED010A0846D0ED000A30EEBE
:10094000200AEB4880ED000AE648B0F9080000EE06
:10095000100AB8EEC00AE74880ED000AE148B0F995
:100960000A0000EE100AB8EEC00AE34880ED000A63
:10097000B7EE000AE14880ED010AB7EE000A80ED0B
:10098000020ADE4890ED020AFBEE090AB4EEE00A24
:10099000F1EE10FA04D8BBEE090A80ED020A0DE070
:1009A000D64890ED020A5FED270AB4EEE00AF1EEB8
:1009B00010FA03DB1FED2B0A80ED020AD048007805
:1009C00058B9D04890ED000ACC4880ED010ACE48D5
:1009D00090ED000AC94880ED020ACC48D0ED041A17
:1009E000B0EE611AC548D0ED031AF0EE610AD0ED01
:1009F000011AB0EE610A5FED491A00F5127100F5B7
:100A0000B27000F0D0FCBD4880ED090ABF48D0EDBF
:100A1000031AB0EE611AB948D0ED041AF0EE610A7B
:100A2000D0ED021AB0EE610A5FED561A00F5FE71C4
:100A300000F5D87000F0B7FCB04880ED0A0ABDECB4
:100A4000088B10BD10B5B14890ED000AAB4880EDA1
:100A5000040AAE4890ED010AA84880ED030AAC48AC
:100A6000407DE8B39F48807B58B19E4890ED010AD5
:100A7000A24880ED020A9B4890ED000A9F4880ED55
:100A8000010A984890ED072AF0EE421A9F4890ED2F
:100A9000042AB0EE421A994890ED032AF0EE420A79
:100AA00090ED012AB0EE420A00F55E7100F5257066
:100AB00000F079FC914880ED090A9448D0ED031AC2
:100AC000B0EE611A8D48D0ED041AF0EE610AD0ED57
:100AD000021AB0EE610A5FED811A00F58C7100E038
:100AE00006E0803000F05FFC844880ED0A0A38E0C0
:100AF000824890ED0B0A80ED020A90ED0C0A80ED21
:100B0000010A8248D0ED041AB0EE611A7B48D0ED9C
:100B1000031AF0EE610AD0ED011AB0EE610A5FED42
:100B2000931A00F1CC01343000F03DFC734880EDA5
:100B3000090A7648D0ED031AB0EE611A6F48D0ED7D
:100B4000041AF0EE610AD0ED021AB0EE610A5FED10
:100B50009F1A00F58C71803000F025FC674880ED0D
:100B60000A0A10BD10B52DED028B002069490870EE
:100B70006349087000BF1FEDA90A604880ED020AB2
:100B8000624890ED000A5D4880ED040A1FEDAF0A4F
:100B900080ED010A604890ED101BB0EE410AF0EEC6
:100BA000610A51EC100B04F05FFB5449C8605A48CD
:100BB00090ED101BB0EE410AF0EE610A9FED571B5D
:100BC00053EC112B51EC100B04F034FC04F08AFDB3
:100BD00004464FF4B47104FB01F000EE100AB8EEC5
:100BE000C00A464880ED010A4848D0ED041AB0EE2C
:100BF000611A4248D0ED031AF0EE610AD0ED011AF5
:100C0000B0EE610A5FEDCD1A00F1CC01343000F096
:100C1000CAFB3A4880ED090A3C48D0ED031AB0EE11
:100C2000611A3648D0ED041AF0EE610AD0ED021ACE
:100C3000B0EE610A5FEDD91A00F58C71803000F0DA
:100C4000B2FB2E4880ED0A0A03202C490870BDEC47
:100C5000028B10BD10B529480078032816D003DC9C
:100C600038B101281BD10EE00B2812D00C2816D168
:100C700012E01FEDE80A214880ED090A1FEDEB0A9A
:100C800080ED0A0A0CE0FFF76DFF09E0FFF7DAFEDE
:100C900006E0FFF765FD03E0FFF71BFC00E000BF87
:100CA00000BF164890ED020AFBEE090AB4EEE00A16
:100CB000F1EE10FA04D8BBEE090A80ED020A0DE04D
:100CC0000E4890ED020A5FEDEF0AB4EEE00AF1EE95
:100CD00010FA03DB1FEDF30A80ED020A10BD0000DD
:100CE00034000020F00E0020300000201C00002006
:100CF0002000002024000020280000208800002080
:100D00002D0000201800002014000020E80600201C
:100D1000140F00202C000020400B002000000000D9
:100D20000080764010B52DED088B6148807E01284B
:100D300004D0022871D0032870D1B1E05D4800785A
:100D4000012827D05A48B0F90200A0F5806000EED3
:100D5000100AB8EEC00AF7EE080A20EE200ABDEE2F
:100D6000C00A10EE100A00B2534908845048B0F986
:100D70000000A0F5806000EE100AB8EEC00AF7EEA1
:100D8000080A20EE200ABDEEC00A10EE100A01B2D9
:100D90004948418447480078032837D14449B1F98C
:100DA0000610A1F5806004F0CCFC41EC1B0B9FED1C
:100DB000430B53EC102B04F017FD41EC190B3D488D
:100DC00090ED0B0A10EE101A084604F037FF41ECC4
:100DD0001A0B53EC192B04F079FA41EC180B04F0C0
:100DE00043FA3449C862084690ED0C0A3048B0F91D
:100DF0000400A0F5806000EE900AF8EEE00A9FED96
:100E0000311A00EE810A084680ED0C0A2848807FDE
:100E100028B107202849087604E042E042E0032098
:100E20002549087623480078012807D02148007812
:100E30000C2803D01F4800780B2803D101201E493D
:100E4000087606E01C48007E072802D003201A49D5
:100E5000087618480078012809D01548807E0228B5
:100E600005D01448407810B9032012490870114881
:100E7000407828B90F48007810B101200D4908705A
:100E80000C480078032802D101200F490870094856
:100E90000078084948700848007E0749487602E013
:100EA00001E000E000BF00BFBDEC088B10BD0000FA
:100EB000140F00208800002080050020FCA9F1D23A
:100EC0004D62803F6F12033C600F0020D0ED000A9E
:100ED000F4EEC00AF1EE10FA01DD80ED000AD0ED6B
:100EE000000AB1EE401AF4EEC10AF1EE10FA03D294
:100EF000F1EE400AC0ED000A70470364C2638163EB
:100F000080ED000AC0ED010A80ED021A704780ED05
:100F1000000AC0ED010A80ED021ADFEDFE1AC0EDF5
:100F2000081ADFEDFC1AC0ED091ADFEDFA1AC0ED60
:100F30000A1ADFEDF81AC0ED0B1A704710B52DED47
:100F4000088B0446B0EE408AF0EE608A84ED048A95
:100F5000C4ED038A38EEC80A84ED070A94ED0C0A42
:100F6000B5EEC00AF1EE10FA27D094ED0C0A10EE9F
:100F7000101A084604F062FE41EC190B94ED070AC2
:100F800010EE101A084604F059FE41EC1B0BB0EEAF
:100F90004B0AF0EE6B0A04F09BF8B0EE40AAF0EEBC
:100FA00060AA53EC192B51EC1A0B04F01BFD04D270
:100FB0009FEDD80ABDEC088B10BDA06B03283ED175
:100FC00094ED000AD4ED070A20EE200A84ED080A09
:100FD00094ED090AD4ED010A94ED071A00EE810A96
:100FE00084ED090A94ED070AD4ED060A30EE600A92
:100FF000D4ED020A20EE200A84ED0A0AD4ED100A8C
:10100000F8EE600AB0EE600A04F12400FFF75EFF1C
:1010100094ED080AD4ED090A30EE200AD4ED0A0A4C
:1010200030EE200A84ED0B0AD4ED0F0AF8EE600AC8
:10103000B0EE600A04F12C00FFF748FF42E0A06B1D
:1010400004283FD194ED070AD4ED060A30EE600A79
:10105000D4ED000A20EE200A84ED080A94ED010A7E
:10106000D4ED070A20EE200A84ED090A94ED070A60
:10107000D4ED060AB0EE001A01EE600AD4ED050ABE
:1010800030EE200AD4ED020A20EE200A84ED0A0A8E
:1010900094ED080AD4ED090A30EE200AD4ED0A0ACC
:1010A00030EE200AD4ED0B0A30EE200A84ED0B0A54
:1010B000D4ED0F0AF8EE600AB0EE600A04F12C00DD
:1010C000FFF704FF94ED060A84ED050A94ED070A84
:1010D00084ED060A94ED0D0AB5EEC00AF1EE10FAA1
:1010E00025D094ED0D0A10EE101A084604F0A6FD66
:1010F00041EC190B94ED0B0A10EE101A084604F09F
:101100009DFD41EC1B0BB0EE4B0AF0EE6B0A03F0B9
:10111000DFFFB0EE40AAF0EE60AA53EC192B51ECC1
:101120001A0B04F025FB02D29FED7A0A42E794EDF8
:101130000B0A3FE710B52DED088B0446B0EE408A50
:10114000F0EE608A84ED048AC4ED038A38EEC80AA2
:1011500084ED070A94ED0C0AB5EEC00AF1EE10FA20
:1011600027D094ED0C0A10EE101A084604F066FD24
:1011700041EC190B94ED070A10EE101A084604F022
:101180005DFD41EC1B0BB0EE4B0AF0EE6B0A03F079
:101190009FFFB0EE40AAF0EE60AA53EC192B51EC81
:1011A0001A0B04F01FFC04D29FED5A0ABDEC088B09
:1011B00010BDA06B03283ED194ED000AD4ED070AC0
:1011C00020EE200A84ED080A94ED090AD4ED010A04
:1011D00094ED071A00EE810A84ED090A94ED070ADE
:1011E000D4ED060A30EE600AD4ED020A20EE200AA1
:1011F00084ED0A0AD4ED100AF8EE600AB0EE600A37
:1012000004F12400FFF762FE94ED080AD4ED090A08
:1012100030EE200AD4ED0A0A30EE200A84ED0B0AE3
:10122000D4ED0F0AF8EE600AB0EE600A04F12C006B
:10123000FFF74CFE3EE0A06B04283BD194ED070A7B
:10124000D4ED060A30EE600AD4ED000A20EE200A42
:1012500084ED080A94ED010AD4ED070A20EE200A75
:1012600084ED090A94ED070AD4ED060AB0EE001ADF
:1012700001EE600AD4ED050A30EE200AD4ED020A30
:1012800020EE200A84ED0A0A94ED080AD4ED0A0A39
:1012900030EE200AD4ED0B0A30EE200A84ED0B0A62
:1012A000D4ED0F0AF8EE600AB0EE600A04F12C00EB
:1012B000FFF70CFE94ED060A84ED050A94ED070A8B
:1012C00084ED060A94ED0D0AB5EEC00AF1EE10FAAF
:1012D00028D094ED0D0A10EE101A084604F0AEFC6A
:1012E00041EC190B94ED0B0A10EE101A084604F0AD
:1012F000A5FC41EC1B0BB0EE4B0AF0EE6B0A03F0C1
:10130000E7FEB0EE40AAF0EE60AA53EC192B51ECC8
:101310001A0B01E00000000004F02AFA02D21FEDCF
:10132000030A43E794ED0B0A40E72DE9F0412DED68
:10133000048B04460D4616461F46B0EE408AF0EE7A
:10134000608AB0EE419A29486064B0EE491AF0EE26
:10135000680AB0EE480A3B46324629462046D4F891
:1013600044C0E047BDEC048BBDE8F0811FED170AD7
:1013700080ED080A1FED190A80ED090A1FED1B0A0E
:1013800080ED0A0A1FED1D0A80ED0B0A1FED1F0AF2
:1013900080ED050A1FED210A80ED060A1FED230AE4
:1013A00080ED070A704770B52DED068B05460C469B
:1013B000B0EE408AF0EE608AB0EE419AF0EE619AAB
:1013C000F0EE480AB0EE680A2846FFF7B7FD30EEA7
:1013D000290AB0EE40AAF0EE4A0AB0EE490A2046C9
:1013E000FFF7ACFDBDEC068B70BD0000FB0E0008E6
:1013F000FE490968491CFD4A11600168012900D1B4
:1014000000E000BF00BF7047F9490968491CF84A6D
:1014100011600168012900D100E000BF00BF7047E2
:101420002DE9F04186B080460C4615461E460C9FBD
:1014300040F2FF10019000208DF80C008DF80D0097
:1014400008208DF80E00200A8DF80F008DF810404E
:10145000290A8DF811108DF81250310A8DF81310E9
:101460008DF81460390A8DF815108DF8167001A9E1
:10147000404601F0D9FE06B0BDE8F0812DE9F0410B
:1014800086B080460C4615461E460C9F40F2FF2053
:10149000019000208DF80C008DF80D0008208DF8CB
:1014A0000E00200A8DF80F008DF81040290A8DF8E3
:1014B00011108DF81250310A8DF813108DF8146048
:1014C000390A8DF815108DF8167001A9404601F003
:1014D000ABFE06B0BDE8F0812DE9F04186B0804654
:1014E0000C4615461E460C9F4FF4007001900020DC
:1014F0008DF80C008DF80D0008208DF80E00200AE4
:101500008DF80F008DF81040290A8DF811108DF814
:101510001250310A8DF813108DF81460390A8DF8C5
:1015200015108DF8167001A9404601F07DFE06B039
:10153000BDE8F0812DE9F04186B080460C461546A5
:101540001E460C9F40F2FF10019000208DF80C0009
:101550008DF80D0008208DF80E00200A8DF80F0080
:101560008DF81040290A8DF811108DF81250310AAB
:101570008DF813108DF81460390A8DF815108DF858
:10158000167001A9404601F04FFE06B0BDE8F0819B
:1015900070B586B006460C461546019508208DF8B4
:1015A0000E0000208DF80C008DF80D008DF80F4016
:1015B00000218DF810108DF811108DF812108DF893
:1015C00013108DF814108DF815108DF8161001A950
:1015D000304601F029FE06B070BD30B52DED068B0A
:1015E00085B00546B0EE408AF0EE608AB0EE419AD2
:1015F000F0EE619AB0EE42AAF0EE62AA0C460094B8
:1016000008208DF80A0000208DF808008DF80900E8
:1016100032208DF80B0000218DF80C10BCEEC80AAA
:1016200010EE100AC1B28DF80D10BCEEE80A10EEF3
:10163000100AC1B28DF80E10BCEEC90A10EE100AE5
:10164000C1B28DF80F10BCEEE90A10EE100AC1B25B
:101650008DF81010BCEECA0A10EE100AC1B28DF857
:101660001110BCEEEA0A10EE100AC1B28DF8121089
:101670006946284601F0D8FD05B0BDEC068B30BDAB
:10168000F0B585B007460D4614461E460096082064
:101690008DF80A0000208DF808008DF80900A420BC
:1016A0008DF80B0000218DF80C10E9B28DF80D10AB
:1016B000290A8DF80E10E1B28DF80F10210A8DF86D
:1016C0001010210C8DF81110210E8DF812106946A2
:1016D000384601F0A9FD05B0F0BD70B586B00646EC
:1016E0000C461546019508208DF80E0000208DF857
:1016F0000C008DF80D00A2208DF80F0000218DF850
:1017000010108DF811108DF812108DF81340210A69
:101710008DF81410210C8DF81510210E8DF816106F
:1017200001A9304601F080FD06B070BD70B586B0ED
:1017300006460C461546019508208DF80E0000203F
:101740008DF80C008DF80D00A1208DF80F00002100
:101750008DF810108DF811108DF812108DF81340BF
:10176000210A8DF8141000218DF815108DF816102F
:1017700001A9304601F058FD06B070BD70B586B0C5
:1017800006460C461546019500208DF80C008DF894
:101790000D0008208DF80E0020128DF80F008DF836
:1017A000104000218DF811108DF812108DF81310D3
:1017B0008DF814108DF815108DF8161001A930460B
:1017C00001F032FD06B070BD30B585B005460C465F
:1017D000009400208DF8080002208DF809000620F2
:1017E0008DF80A0000208DF80B0003E0380000207F
:1017F0003C00002000218DF80C108DF80D108DF8A4
:101800000E108DF80F108DF810106946284601F063
:101810000BFD05B030BD10B504464FF4C261204643
:10182000FFF7D2FF40F211612046FFF7CDFF40F2F3
:1018300012612046FFF7C8FF40F213612046FFF710
:10184000C3FF10BD70B505460C464FF4C0620221BF
:101850002846FFF793FF04EBC40000EB04104FF69B
:10186000FF7202EA800140F201622846FFF786FF1C
:1018700040F2026240F6C4112846FFF77FFF40F2B3
:1018800003624FF42F712846FFF778FF70BD30B523
:1018900085B005460C4644F40070009000208DF899
:1018A00008008DF809008DF80A006946284601F005
:1018B000BBFC05B030BD30B585B005460C4644F4E0
:1018C0000470009000208DF808008DF809008DF854
:1018D0000A006946284601F0A7FC05B030BD30B5C6
:1018E00085B005460C4600208DF808008DF80900EB
:1018F0008DF80A0044F4806000906946284601F0A3
:1019000093FC05B030BD30B585B005460C4644F4B7
:101910008260009000208DF808008DF809008DF895
:101920000A006946284601F07FFC05B030BD30B59D
:1019300085B005460C4644F4A060009000208DF868
:1019400008008DF809008DF80A006946284601F064
:101950006BFC05B030BD30B585B005460C4644F48F
:10196000A260009000208DF808008DF809008DF825
:101970000A006946284601F057FC05B030BD30B575
:1019800085B005460C4644F4A460009000208DF814
:1019900008008DF809008DF80A006946284601F014
:1019A00043FC05B030BDF0B585B006460D46144683
:1019B00045F4A660009000208DF808008DF809001D
:1019C00002208DF80A00E0B28DF80B00210A8DF894
:1019D0000C106946304601F027FC07463946304670
:1019E00001F0BAFC05B0F0BDF0B585B006460D4675
:1019F000144645F4A860009000208DF808008DF88A
:101A0000090002208DF80A00E0B28DF80B00210ACF
:101A10008DF80C106946304601F006FC0746394641
:101A2000304601F099FC05B0F0BD2DE9F04186B0DB
:101A300007460D46164645F4AA60019000208DF831
:101A40000C008DF80D0004208DF80E00B0034FF44B
:101A5000B471B0FBF1F4E0B28DF80F00210A8DF8FB
:101A60001010210C8DF81110210E8DF8121001A903
:101A7000384601F0D9FB80464146384601F06CFCFF
:101A800006B0BDE8F0812DE9F04186B007460D466D
:101A9000164645F4AC60019000208DF80C008DF8DE
:101AA0000D0004208DF80E00B0034FF4B471B0FBAC
:101AB000F1F4E0B28DF80F00210A8DF81010210C1E
:101AC0008DF81110210E8DF8121001A9384601F081
:101AD000ABFB80464146384601F03EFC06B0BDE80F
:101AE000F0812DE9F04186B007460C4615461E46AA
:101AF00044F4AE60019000208DF80C008DF80D00CC
:101B000003208DF80E00F0B28DF80F009DF8100044
:101B1000058001A9384601F087FB804641463846DA
:101B200001F01AFC06B0BDE8F081000010B50346D4
:101B30002BB1087828B901200870521C01E0002060
:101B40000870107800EBD0746410A0EB44040CB95A
:101B5000002010BD0120FCE7CB8A03400BB101231C
:101B600000E000231370704710B5044604F128020A
:101B700021460120FFF7F0FF04F12902214604204D
:101B8000FFF7EAFF04F12A0221460220FFF7E4FFF3
:101B900004F12B0221460820FFF7DEFF04F12C029E
:101BA00021461020FFF7D8FF04F12E022146202005
:101BB000FFF7D2FF04F12F0221464020FFF7CCFFB0
:101BC00004F1300221468020FFF7C6FF04F1310204
:101BD00021464FF48070FFF7BFFF04F13202214627
:101BE0004FF40070FFF7B8FF04F1330221464FF4C1
:101BF0008060FFF7B1FF04F1340221464FF400602A
:101C0000FFF7AAFF04F12D0221464FF48050FFF7A1
:101C1000A3FF04F1350221464FF40050FFF79CFF6B
:101C200004F1360221464FF48040FFF795FF04F19E
:101C3000370221464FF40040FFF78EFF94F828004A
:101C40008F4A9049FFF772FF382108552921085D16
:101C50008D4A8E49FFF76AFF392108552A21085D10
:101C60008B4A8C49FFF762FF3A2108552B21085D0A
:101C7000894A8A49FFF75AFF3B2108552C21085D04
:101C8000874A8849FFF752FF3C2108552E21085DFD
:101C9000854A8649FFF74AFF3E2108552F21085DF6
:101CA000834A8449FFF742FF3F2108553021085DF0
:101CB000814A8249FFF73AFF402108553121085DEA
:101CC0007F4A8049FFF732FF412108553221085DE4
:101CD0007D4A7E49FFF72AFF422108553321085DDE
:101CE0007B4A7C49FFF722FF432108553421085DD8
:101CF000794A7A49FFF71AFF442108552D21085DDA
:101D0000774A7849FFF712FF3D2108553521085DD4
:101D1000754A7649FFF70AFF452108553621085DC7
:101D2000734A7449FFF702FF462108553721085DC1
:101D3000714A7249FFF7FAFE4721085510BD817AB2
:101D4000C176017FC27E891A4177C27E0277417FC8
:101D500001290ED1016A491C0162016A01EBD172AD
:101D60005210A1EB420212B90022827701E0012257
:101D70008277417F02290ED1416A491C4162416A42
:101D800001EBD1725210A1EB420212B90022C277CC
:101D900001E00122C2777047C17A012901D1817621
:101DA00008E0C17A032901D1817603E0C17A0229D2
:101DB00000D18176704710B5044604B910BD207873
:101DC000617840EA0120C0F30A004D49088060783C
:101DD000C010A17840EA4110C0F30A004849488089
:101DE000A0788011E17840EA8100217940EA8120E1
:101DF000C0F30A004249888020794010617940EAA6
:101E0000C110C0F30A003E49C880207C617C40EAD2
:101E10000120C0F30A003A49088160790011800866
:101E200088726079C0F30110C872A079E17940EA44
:101E3000012000B232498881207A617A40EA01208B
:101E400001B22F48C181A07AE17A40EA012001B2B3
:101E50002B480182217B0175617B4175A07BE17B71
:101E600040EA01202649C8820846FFF795FF24482A
:101E7000FFF765FF2248FFF777FE00BF9EE70000EF
:101E800041000020400000204300002042000020CC
:101E900045000020440000204700002046000020AC
:101EA00049000020480000204B0000204A0000208C
:101EB0004D0000204C0000204F0000204E0000206C
:101EC000510000205000002053000020520000204C
:101ED000550000205400002057000020560000202C
:101EE00059000020580000205B0000205A0000200C
:101EF0005D0000205C0000205F0000205E000020EC
:101F0000140F0020F0B58BB004460D4616461F4650
:101F10000121084602F0E6F90121480602F02BFAF9
:101F200009220B21964801F0CAFF09220C2194488E
:101F300001F0C5FF4FF4C050099002208DF8280031
:101F400009A98F4801F030FF14208DF80400032008
:101F50008DF8050001208DF806008DF8070001A816
:101F600000F065FF874800F0CDFF06A801F0EEF80D
:101F700000208DF81E0001208DF81F0000208DF834
:101F800020008DF821008DF822008DF823008DF8B7
:101F90001A708DF81B008DF81C508DF81D40ADF89F
:101FA000186006A9774800F0C6FF00208DF81200DF
:101FB0008DF8130001208DF814000020ADF8080002
:101FC000ADF80A00ADF80C00ADF80E00ADF8100049
:101FD00001208DF8150002A801F037F80122022136
:101FE000684801F031FB0BB0F0BD10B50121654828
:101FF00001F092FB18B10121624801F028FC10BDEC
:1020000000B585B002215F4801F086FB88B104214C
:102010005C4801F01CFC5C495A4801F05AFB6A46D6
:102020000021584801F0F5F900BF6846FFF7E0F9D4
:1020300000BF05B000BDF0B58BB004460D46164696
:102040001F460121022002F04DF90121880602F00D
:1020500092F909220C214D4801F031FF09220D218E
:102060004A4801F02CFF4FF44050029002208DF8B6
:102070000C0002A9454801F097FE40208DF80400AD
:1020800003208DF805008DF8060001208DF807006B
:1020900001A800F0CCFE3F208DF8040003208DF84D
:1020A00005008DF8060001208DF8070001A800F05A
:1020B000BEFE374800F026FF08A801F047F80020D0
:1020C0008DF8260001208DF8270000208DF82800CB
:1020D0008DF829008DF82A008DF82B008DF822004C
:1020E0008DF823008DF824508DF82540ADF8206040
:1020F00008A9274800F01FFF0E208DF81A000020C5
:102100008DF81B0001208DF81C000020ADF8100098
:10211000ADF81200ADF81400ADF81600ADF81800D7
:1021200001208DF81D0004A800F08FFF012202217C
:10213000174801F089FA0BB0F0BD10B50121144821
:1021400001F0EAFA18B10121114801F080FB10BD3D
:1021500000B585B002210E4801F0DEFA68B1022117
:102160000B4801F074FB6A460021094801F051F95F
:1021700000BF6846FFF748F900BF05B000BD00008A
:1021800000000240006400400800003200040240E9
:10219000006800401CB50121042002F0A3F80620CD
:1021A000009001208DF8040000208DF80600032027
:1021B0008DF8050001208DF807006946034801F0FD
:1021C000F3FD0621014801F06BFE1CBD0008024032
:1021D00010B596B004460121022002F083F80121D7
:1021E000880502F07FF80121102002F0D5F80722BF
:1021F0001146FE4801F063FE14A801F01DFE802088
:10220000149002208DF8540000208DF85500012014
:102210008DF8570014A9F54801F0C6FDF44802F006
:10222000B5F910A802F07FFA10940020ADF8440030
:10223000ADF846004FF48060ADF848000420ADF8DA
:102240004A000020ADF84C0010A9E94802F005FA58
:1022500001224021E64802F035FBE64801F04AFB46
:10226000684601F012FC4FF000600090E048001D4D
:102270000190E1480290002003904020049000204B
:1022800005904FF4806006900020079008904FF46E
:102290008070099000020A9000200B900C900D9025
:1022A0000E906946D34801F0C7FB0022D249403165
:1022B000D04801F022FC0121CE4801F02AFC012186
:1022C000CC4801F0F3FB25208DF83C0000208DF870
:1022D0003D008DF83E0001208DF83F000FA800F072
:1022E000A6FD012240F22441C14802F0F4FA012186
:1022F000BF4802F03AFA16B010BD10B540F22441C2
:10230000BB4802F023FB002857D0B9480088B848E2
:102310008088B84801F00DFC40BB0021B54801F0B1
:10232000C5FBB649B34801F03AFCB24801F0E1FB05
:10233000C0F14000B24908604020AE49091D086064
:10234000081F006840F40020091F08600121A94807
:1023500001F0ACFBAA48006812282ED1A648FFF76E
:102360002AFD00BFA448FFF726FD26E00021A14872
:1023700001F09CFBA1499F4801F011FC9D4801F030
:10238000B8FBC0F140009E49086040209949091DF2
:102390000860081F006820F40020091F0860012160
:1023A000944801F083FB96480068122805D100BFCD
:1023B00091484030FFF7FFFC00BF10BD10B596B04C
:1023C00004460121084601F08DFF0121480501F076
:1023D00089FF0121480401F0CEFF0722022189482C
:1023E00001F06DFD14A801F027FD042014900220D7
:1023F0008DF8540000208DF8550001208DF857000D
:1024000014A9804801F0D0FC7F4802F0BFF810A862
:1024100002F089F910940020ADF84400ADF84600B0
:102420004FF48060ADF848000420ADF84A00002069
:10243000ADF84C0010A9744802F00FF901224021B8
:102440006B4802F03FFA714801F054FA684601F017
:102450001CFB4FF0006000906B48001D01906C4821
:1024600002900020039064200490002005904FF417
:10247000806006900020079008904FF480700990CB
:1024800000020A9000200B900C900D900E9069466F
:102490005E4801F0D1FA00225D4964315B4801F0E9
:1024A0002CFB0121594801F034FB0121574801F070
:1024B000FDFA26208DF83C0000208DF83D008DF8B7
:1024C0003E0001208DF83F000FA800F0B0FC012273
:1024D00040F224414C4802F0FEF901214A4802F042
:1024E00044F916B010BD10B540F22441464802F040
:1024F0002DFA002852D0444800884348001D008827
:102500003C4801F016FB20BB0021404801F0CEFA08
:1025100040493E4801F043FB3C4801F0EAFAC0F173
:1025200064003D49086064203849091D0860374847
:102530008838D0F8880040F40020091F0860012185
:10254000324801F0B3FA34480068122826D100BF9F
:1025500024E000212D4801F0A9FA2E492B4801F072
:102560001EFB2A4801F0C5FAC0F164002A49086040
:1025700064202649091D086024488838D0F888005E
:1025800020F40020091F08600121204801F08EFA84
:1025900021480068122801D100BF00BF10BD10B54E
:1025A00096B004460121022001F09CFE012188041E
:1025B00001F0E1FE0121480501F094FE07220A2105
:1025C0000A4801F07CFC07220B21084801F077FC47
:1025D00002208DF8440003208DF8450000208DF87E
:1025E000460001208DF84700800217E000040240F9
:1025F0000010014040640240C80F0020000030106D
:102600006800002000000240004400408860024052
:1026100088100020000C00206C000020109010A9F1
:10262000FE4801F0C1FB4FF40060109010A9FB4878
:1026300001F0BAFB27208DF8000002208DF8010080
:1026400001208DF802008DF80300684600F0EFFBD2
:1026500012940020ADF84C00ADF84E00ADF85000DB
:10266000ADF854000C20ADF8520012A9EC4801F06E
:10267000F4FF012240F22441E94802F02CF95021F4
:10268000E74802F05AF96420059000200C900D9064
:102690000E9009904FF48060079080100A90E048F7
:1026A000001D029000200F90089006904FF400301B
:1026B0000B908002019000200490DA48039001A959
:1026C000D94801F0B9F90121D74801F0EFF9012209
:1026D0004021D34802F0F6F80121D14802F045F834
:1026E00016B010BD10B540F22441CD4802F02EF9CD
:1026F00008B3CB4802F068F840F22441C84802F021
:1027000060F90021C84801F0D1F900224021C448F5
:1027100002F0D8F84C22C349891DC44802F080F960
:1027200000BF00BF01224021BD4802F0CBF80121CB
:10273000BD4801F0BBF910BD10B596B004460121AB
:10274000042001F0CFFD0121C80401F014FE08228D
:102750000A21B74801F0B3FB08220B21B44801F06D
:10276000AEFB0121480501F0BDFD4FF44060109023
:1027700002208DF8440000208DF8460003208DF8DB
:10278000450001208DF8470010A9A94801F00CFB75
:1027900012940020ADF84C00ADF84E00ADF850009A
:1027A0000C20ADF852000020ADF8540012A9A14849
:1027B00001F053FF012240219E4802F083F89A481D
:1027C000183001F097F8684601F05FF94FF00060AB
:1027D00000909848001D01909748029000200390B7
:1027E00064200490002005904FF480600690002043
:1027F0000790089009904FF480300A9000200B90C9
:102800000C900D900E9069468748183001F014F92D
:1028100001218548183001F049F934208DF83C0039
:1028200003208DF83D008DF83E0001208DF83F001B
:102830000FA800F0FCFA012280217E4802F042F845
:1028400000217948483001F031F97748483001F0EB
:1028500051F800BF7448483001F075F90028F9D1EB
:102860004FF0006000907348001D01907348029083
:10287000402003900020049005904FF48060069063
:1028800000200790089009904FF480300A900020B3
:102890000B9003200C9000200D900E90694662482A
:1028A000483001F0C9F80F208DF83C0003208DF866
:1028B0003D008DF83E0001208DF83F000FA800F08C
:1028C000B6FA012210215848483001F07CF9012263
:1028D00040F22441574801F0FEFF0121554801F024
:1028E00044FF16B010BD10B5002440F224415148F9
:1028F00002F02CF808B34F4800884E48001D0088AD
:1029000000214948183001F0D1F84D4946481830A7
:1029100001F045F94448183001F0EBF8C0F16400CB
:10292000C4B200BF00BF64213F48183001F0DFF897
:1029300001213D48183001F0B9F810BD70B50446CA
:102940000D462946204601F0D2F80121204601F02B
:10295000ADF870BD10B53B493348483001F003F97C
:1029600048B100213048483001F0A0F835492E48E0
:10297000483001F014F910BD70B5044600252F4D04
:1029800005F8014B012128484830FFF7D7FF70BDFB
:102990002DE9F04105460E4600240027274F00BFD1
:1029A00003E0285D3855601C84B2B442F9DB31463F
:1029B0001D484830FFF7C2FFBDE8F08110B596B062
:1029C00004460121042001F08DFC0121082001F0C2
:1029D00089FC0121080501F0CEFC0121480501F028
:1029E00081FC02208DF8540000208DF856004FF431
:1029F0008050149001208DF8570003208DF8550069
:102A000014A90B4801F0D0F902208DF854000020E1
:102A10008DF8560004201490012015E000040240B7
:102A200000480040B4110020286002401812002025
:102A300000080240004C004064120020C812002030
:102A400000003010200000208DF8570003208DF882
:102A5000550014A9E64801F0A7F908220C21E54821
:102A600001F02DFA08220221E14801F028FA109421
:102A70000020ADF84C000C20ADF84A000020ADF865
:102A80004800ADF84600ADF8440010A9DA4801F05E
:102A9000E4FD0121D84801F068FE01224021D6481A
:102AA00001F010FF684600F0F0FFD4480290642067
:102AB00004904FF000600090CF48001D019000206E
:102AC000039005904FF480600690002008900790D6
:102AD00009904FF480300A9000200B900C900D90DC
:102AE0000E906946C64800F0A7FF0121C44800F0D7
:102AF000DDFF35208DF83C0001208DF83F008DF87A
:102B00003D0002208DF83E000FA800F090F9012250
:102B100040F22441B84801F0DEFE0121B64801F040
:102B200024FE01228021B44801F0CCFE0021B448EB
:102B3000A83000F0BBFFB248A83000F0DBFE00BFB9
:102B4000AF48A83000F0FFFF0028F9D14FF0006037
:102B50000090A948001D0190AA48029040200390CF
:102B600042200490002005904FF4806006900020E1
:102B70000790089009900A900B9003200C90002079
:102B80000D900E9069469E48A83000F055FF012137
:102B90009B48A83000F08AFF2F208DF83C000220CF
:102BA0008DF83D0001208DF83E008DF83F000FA804
:102BB00000F03DF916B010BD70B504460D46002179
:102BC000204600F073FF00BF204600F0BCFF002845
:102BD000FAD12946204600F08AFF0121204600F064
:102BE00065FF70BD10B540F22441834801F0AEFE90
:102BF000E8B181480088804880880021804800F042
:102C000055FF81497E4800F0CAFF7D4800F071FF02
:102C1000C0F500707D4908604FF40071784800F0FD
:102C200066FF0121764800F041FF00BF00BF10BDE4
:102C300010B596B004460121042001F053FB012198
:102C4000880501F04FFB0121202001F0A5FB08229F
:102C50000621684801F033F908220721654801F090
:102C60002EF9C020109002208DF8440000208DF82D
:102C7000460002208DF8450000208DF8470010A97D
:102C80005C4801F091F8624801F080FC1294002049
:102C9000ADF84C00ADF84E00ADF850000C20ADF88A
:102CA00052000020ADF8540012A9594801F0D5FC9B
:102CB00001224021564801F005FE564800F01AFE58
:102CC0004FF0206000905248001D01905248029041
:102CD0000020039064200490002005904FF4806051
:102CE000069000200790089009904FF480300A90D9
:102CF00000200B900C900D900E906946454800F016
:102D00009BFE0121434800F0D1FE47208DF83C0096
:102D100003208DF83D008DF83E0001208DF83F0026
:102D20000FA800F084F8012240F22441384801F055
:102D3000D2FD0121364801F018FD16B010BD10B5C6
:102D400040F22441324801F001FE00284ED03048C4
:102D500000882F48001D00882E4800F0EAFE10BBB6
:102D600000212C4800F0A2FE2C492A4800F017FF51
:102D7000284800F0BEFEC0F16400294908606420C4
:102D80002449091D0860081F006840F40020091F3D
:102D9000086001211F4800F089FE214800681228C0
:102DA00024D100BF22E000211A4800F07FFE1B4919
:102DB000184800F0F4FE174800F09BFEC0F16400D4
:102DC0001749086064201349091D0860081F00683E
:102DD00020F40020091F086001210E4800F066FE63
:102DE0000F480068122801D100BF00BF10BD0000CD
:102DF000000C02400008024000500040C4150020B2
:102E000010600240201500203000001070000020EB
:102E1000001401402864024054170020000C0010E8
:102E20007400002032490143324A1160704770B586
:102E3000002100230F22C4781CB32E4C246804F414
:102E4000E064C4F5E064C4F30721C1F10404E3B213
:102E50000A4144789C40E1B28478144021430C0735
:102E6000210E254C05786155047804F01F050124D6
:102E7000AC4005786D11AD0005F1E025C5F80041C5
:102E800009E0047804F01F050124AC401B4D0678CE
:102E9000761145F8264070BD194A0A400243154B89
:102EA0001B1F1A60704739B1124A121D1268024383
:102EB000104B1B1D1A6006E00E4A121D1268824359
:102EC0000C4B1B1D1A607047042808D14FF0E021FD
:102ED000096941F004014FF0E022116107E04FF071
:102EE000E021096921F004014FF0E02211617047EF
:102EF0000000FA050CED00E000E400E080E100E0F5
:102F000080FFFF1F10B50446FE48844209D101210D
:102F1000480601F085FA00214FF0007001F080FAB8
:102F200008E00121880601F07BFA00214FF0806063
:102F300001F076FA10BD30B5024600200023146877
:102F400024F002041460146844F00104146000E0EA
:102F50005B1C546804F001041CB94FF6FF74A342D3
:102F6000F6D1546804F001040CB900206CE08C79AF
:102F7000012C04D1146844F08004146003E0146848
:102F800024F080041460CC79012C04D1146844F03E
:102F90004004146003E0146824F0400414600C7AC8
:102FA000012C04D1146844F02004146003E0146878
:102FB00024F0200414604C7A012C04D1146844F0ED
:102FC0001004146003E0146824F0100414608C7A78
:102FD000012C04D1146844F00804146003E0146860
:102FE00024F008041460CC7A012C04D1146844F055
:102FF0000404146003E0146824F0040414608C7862
:10300000A407CD7844EA05640D7944EA05444D7976
:1030100044EA05540D886D1E2C43D461146824F0D5
:1030200001041460002300E05B1C546804F00104F8
:103030001CB14FF6FF74A342F6D1546804F00104AA
:103040000CB1002000E0012030BD10B50021837AD2
:10305000012202FA03F1AC4A126842F00102AA4BC3
:103060001A60A94A1C3212688A43A74B1C331A60A3
:10307000027BCAB9A44A0C3212688A43A24B0C33B1
:103080001A604288C38842EA03439F4A4032847AE6
:1030900042F834300288838842EA03439A4A403235
:1030A000847A02EBC4025360027B012A19D1964A4A
:1030B0000C3212680A43944B0C331A60428803881E
:1030C00042EA0343904A4032847A42F83430C2885C
:1030D000838842EA03438C4A4032847A02EBC4027A
:1030E0005360C27A3AB9884A121D12688A43864BE5
:1030F0001B1D1A6006E0844A121D12680A43824BA7
:103100001B1D1A60028932B97F4A143212688A4341
:103110007D4B14331A600289012A06D17A4A14328F
:1031200012680A43784B14331A60427B012A06D195
:10313000754A1C3212680A43734B1C331A60724A78
:10314000126822F00102704B1A6010BD00218171DB
:10315000C171017241728172C1728170C1700321AB
:10316000017102214171012101807047664909689E
:1031700041F00101644A11601146096843F60E727C
:103180009143614A11601146096841EA00211160CA
:103190001146096821F001011160704721B10268F0
:1031A00042F48032026003E0026822F4803202605E
:1031B0007047E1B1026842F0800202604FF4C272CF
:1031C000125842F480734FF4C27213504FF4CA7213
:1031D000125842F480734FF4CA7213504FF4D272F3
:1031E000125842F480734FF4D27213501BE00268FD
:1031F00022F0800202604FF4C272125822F48073EF
:103200004FF4C27213504FF4CA72125822F48073F2
:103210004FF4CA7213504FF4D272125822F48073D2
:103220004FF4D2721350704710B5024600209368D5
:1032300003F08063B3F1806F00D110E0936803F076
:103240000063B3F1006F01D1012008E0936803F03F
:103250008053B3F1805F01D1022000E004200428F4
:1032600079D002F5C07303EB00131B6803F001046F
:1032700002F5C07303EB00131C600B7A7BB94B7A29
:103280000C8843EA445302F5C07404EB001424682C
:10329000234302F5C07404EB0014236010E00B7AA2
:1032A0004C6843EAC4034C7A234302F5C07404EB30
:1032B00000142468234302F5C07404EB0014236057
:1032C0008B7A03F00F038B7202F5C07303EB0013CC
:1032D0005B6823F00F0402F5C07303EB00135C601E
:1032E00002F5C07303EB00135B688C7A234302F58D
:1032F000C07404EB001463608B7B1C064B7B44EAB8
:10330000034403E000640040006600400B7B44EA95
:103310000323CC7A234302F5C07404EB0014A360AA
:103320008B7C1C064B7C44EA03440B7C44EA03235D
:10333000CC7B234302F5C07404EB0014E36002F578
:10334000C07303EB00131B6843F0010402F5C07364
:1033500003EB00131C6010BD10B50246002321B121
:10336000012907D002290FD109E09068F94C00EA41
:1033700004030BE09068F84C00EA040306E0906850
:10338000F64C00EA040301E0002300BF00BFF44C48
:10339000181BA34216D007DC83B16FF0806018447D
:1033A00070B1022818D111E0B0F5007F10D0ED4CBB
:1033B000204448B1B0F5003F0ED10BE002230DE0F0
:1033C00000230BE0002309E0002307E0012305E0D0
:1033D000012303E0012301E0002300BF00BFD8B2B6
:1033E00010BD21B1012907D002290FD109E082685F
:1033F00042F0800282600AE0826842F40042826009
:1034000005E0826842F40002826000E000BF00BF75
:10341000704710B500F5D87303EB01131B6803F078
:1034200004031372137A53B900F5D87303EB011335
:103430001B6840F2FF7404EA5353136009E000F57F
:10344000D87303EB01131B686FF0604404EAD303E5
:10345000536000F5D87303EB01131B6803F00203FC
:10346000537200F5D87303EB01135B6803F00F038D
:10347000937200F5D87303EB01135B681B0AD374D6
:1034800000F5D87303EB01139B68D37200F5D87372
:1034900003EB01139B681C0A147300F5D87303EB4C
:1034A00001139B681C0C547300F5D87303EB0113D4
:1034B0009B681B0E937300F5D87303EB0113DB6855
:1034C000D37300F5D87303EB0113DB681C0A147483
:1034D00000F5D87303EB0113DB681C0C547400F582
:1034E000D87303EB0113DB681B0E937421B9C36817
:1034F00043F02003C36003E0036943F0200303614A
:1035000010BD21B9C26842F02002C26003E0026926
:1035100042F02002026170470246002019B9D368C8
:1035200003F0030006E0012903D1136903F003004F
:1035300000E00020704710B502460B4600204FF611
:10354000FF71BBB9146824F0020444F00104146054
:1035500000E0491E546804F00304012C01D0002946
:10356000F7D1546804F00304012C01D0002032E0AC
:10357000012030E0012B13D1146824F003041460FF
:1035800000E0491E546804F003040CB10029F8D18E
:10359000546804F003040CB100201CE001201AE080
:1035A000022B17D1146824F0010444F002041460C3
:1035B00000E0491E546804F00304022C01D00029E5
:1035C000F7D1546804F00304022C01D0002002E07B
:1035D000012000E0002010BD014600200A6822F012
:1035E000010242F002020A604A6802F00302022A63
:1035F00000D10120704701464FF6FF7200200B6892
:1036000023F002030B6000E0521E4B6803F002033C
:10361000022B01D1002AF7D14B6803F00203022BE1
:1036200000D001207047014600208A6902F0700036
:103630007047014600208A69100E7047014600203D
:103640008A69C2F3074070471AB143690B4343616B
:1036500002E043698B434361704710B50246002086
:1036600001F4700343B19369C1F3130423400BB118
:1036700001202DE000202BE001F0807343B153685E
:10368000C1F3130423400BB1012021E000201FE00F
:1036900001F0006343B19368C1F3130423400BB1FD
:1036A000012015E0002013E001F0007343B1D3685E
:1036B000C1F3130423400BB1012009E0002007E00F
:1036C0001369C1F3130423400BB1012000E0002073
:1036D00010BD0022244B994202D10023836111E0E6
:1036E000C1F3130201F000730BB1C2600AE001F0F4
:1036F00080630BB1026105E001F000630BB18260F1
:1037000000E0426070470246002002EA01030BB16C
:10371000012000E00020704770B504460D460026E9
:1037200060692840002872D0B5F5807F69D01DDC23
:10373000082D42D006DC012D2DD0022D31D0042DD4
:103740007FD134E0102D3ED0202D42D0402D78D1B5
:1037500045E000000300000400030008000003101F
:10376000000100080001FFF77000F030B5F5004FD0
:1037700061D009DCB5F5007F4AD0B5F5806F4DD03A
:10378000B5F5006F5DD150E0B5F5803F2DD0B5F5B2
:10379000003F56D12FE0A0685549FFF7B4FF064619
:1037A00051E0E0680321FFF7AEFF06464BE0E0681A
:1037B0000821FFF7A8FF064645E0E0681021FFF763
:1037C000A2FF06463FE020690321FFF79CFF064663
:1037D00039E020690821FFF796FF064633E02069AB
:1037E0001021FFF790FF06462DE060680821FFF7E3
:1037F0008AFF064627E060681021FFF784FF06462F
:1038000021E0A0690121FFF77EFF06461BE01BE0D7
:10381000A0690221FFF777FF064614E0A0690421A2
:10382000FFF771FF06460EE00BE0A0697021FFF77D
:103830006AFF064607E060680421FFF764FF06465A
:1038400001E0002600BF00E00026304670BDB1F563
:10385000007F3AD00FDC202928D006DC01291CD0BB
:1038600004291DD0082940D11DE0402921D0B1F5FF
:10387000807F3AD126E0B1F5004F31D006DCB1F5BA
:10388000806F25D0B1F5006F2FD124E0B1F5803FD6
:1038900012D0B1F5003F28D111E0154A826025E031
:1038A0000822C26022E01022C2601FE008220261EA
:1038B0001CE01022026119E00822426016E010228A
:1038C000426013E00422426010E0042242600DE0F6
:1038D000042242600AE0002282610422426005E084
:1038E000002282610422426000E000BF00BF7047F6
:1038F00001010100016821F0010101600021016066
:1039000041608160C160016121214161DB498842E0
:1039100004D13D21D94A103A91608CE0D749183141
:10392000884205D14FF47461D44A103A916082E024
:10393000D2493031884205D14FF47411CF4A103A40
:10394000916078E0CD494831884205D14FF07461EB
:10395000CA4A103A91606EE0C8496031884204D189
:10396000C749C64A103AD16065E0C44978318842F7
:1039700004D1C449C14A103AD1605CE0BF499031DA
:10398000884204D1C049BD4A103AD16053E0BB49D6
:10399000A831884205D14FF03D51B84A103AD16064
:1039A00049E0BA49884204D13D21B84A083A116039
:1039B00041E0B6491831884205D14FF47461B34AE9
:1039C000083A116037E0B1493031884205D14FF4EF
:1039D0007411AE4A083A11602DE0AC494831884272
:1039E00005D14FF07461A94A083A116023E0A74954
:1039F0006031884204D1A249A44A121F11601AE022
:103A0000A2497831884204D19E49A04A121F116010
:103A100011E09E499031884204D19B499B4A121F74
:103A2000116008E09949A831884204D14FF03D5116
:103A3000964A121F1160704710B500220268944B1D
:103A40001A40CC680B6823434C6923438C69234399
:103A5000CC6923430C6A23434C6A23438C6A234377
:103A60004C6B23438C6B23431A430260426922F060
:103A70000702D1E90B3423431A4342610B694360C7
:103A80004B6883608B68C36010BD0021016041609A
:103A90008160C160016141618161C1610162416216
:103AA0008162C162016341638163704721B1026831
:103AB00042F00102026003E0026822F001020260AB
:103AC000704721B1026842F40042026003E00268DC
:103AD00022F400420260704721B1026842F02002E5
:103AE000026003E0026822F0200202607047416039
:103AF00070470146486880B2704722B1036843F4BA
:103B00000023036003E0036823F4002303600161E2
:103B1000704721B1026842F48022026003E002682B
:103B200022F48022026070470AB1016100E0C160A6
:103B30007047014600200A6802F400220AB1012001
:103B400000E000207047014600200A6802F00102F0
:103B50000AB1012000E000207047014600204A69B8
:103B600002F03800704730B503460A4600200024B2
:103B7000464DAB4202D24149103901E04349103968
:103B800002F000550DB14C6800E00C68414D2C402E
:103B900004EA02050DB1012000E0002030BD02461C
:103BA0003A4B9A4202D23548103801E03748103873
:103BB00001F000531BB1374B0B40C36002E0354BA3
:103BC0000B408360704710B501F080034BB122B108
:103BD000436943F08003436103E0436923F08003BA
:103BE000436180290BD02AB1036801F01E042343EE
:103BF000036004E0036801F01E04A343036010BDEA
:103C000070B50246002000240025204EB24202D2A8
:103C10001A4B103B01E01D4B103B1F4E0E4036B1BE
:103C20001E2606EAD124166806EA040502E0566953
:103C300006F0800501F000560EB15C6800E01C68DB
:103C4000144E344004EA010616B10DB1012000E023
:103C5000002070BD02460D4B9A4202D20748103830
:103C600001E00A48103801F000531BB1094B0B402A
:103C7000C36002E0074B0B40836070471060024056
:103C80003D000020400F002000003D201064024055
:103C90003F801CF07D0F7D0F3C0F3C0F10B504469C
:103CA0009848844208D10121084600F086FB002193
:103CB000012000F082FB76E09348844208D1012184
:103CC000022000F07AFB0021022000F076FB6AE07F
:103CD0008E48844208D10121042000F06EFB0021AF
:103CE000042000F06AFB5EE08948844208D101218B
:103CF000082000F062FB0021082000F05EFB52E08B
:103D00008448844208D10121102000F056FB002194
:103D1000102000F052FB46E07F48844208D1012188
:103D2000202000F04AFB0021202000F046FB3AE072
:103D30007A48844208D10121402000F03EFB002156
:103D4000402000F03AFB2EE07548844208D1012162
:103D5000802000F032FB0021802000F02EFB22E0CA
:103D60007048844208D10121801500F026FB002113
:103D7000A01500F022FB16E06B48844208D1012117
:103D8000401500F01AFB0021601500F016FB0AE058
:103D90006648844207D10121001500F00EFB002186
:103DA000201500F00AFB10BDF0B50A4600210023E3
:103DB000002400BF3DE0012505FA01F3156805EA7E
:103DC00003049C4234D105684F000326BE40B5432E
:103DD000056015794E00B5400668354305601579D4
:103DE000012D02D01579022D16D185684F000326CA
:103DF000BE40B543856055794E00B5408668354371
:103E00008560456801268E40B543456045689679D2
:103E10008E40B6B235434560C5684F000326BE40AC
:103E2000B543C560D5794E00B540C6683543C56019
:103E3000491C1029BFD3F0BD4FF6FF71016000216E
:103E4000017141718171C171704708B54FF48032C1
:103E50000092009A0A430092009AC261C161009ADE
:103E6000C261C2690092C269009208BD0246002088
:103E700013690B400BB1012000E0002070470146A0
:103E8000086980B270470246002053690B400BB1AD
:103E9000012000E0002070470146486980B2704769
:103EA00001837047418370470AB1018300E0418379
:103EB00070474161704742694A4042617047F0B5BE
:103EC000002300244D07ED0E02FA05F3CE1000F199
:103ED000200555F826504E07F70E0F26BE40B54375
:103EE000CF1000F1200646F82750CE1000F1200533
:103EF00055F8265045EA0304CE1000F1200545F898
:103F00002640F0BD000002400004024000080240CC
:103F1000000C024000100240001402400018024051
:103F2000001C024000200240002402400028024001
:103F3000F948006840F00100F74908600020F649A0
:103F400008310860F4480068F4490840F249086004
:103F5000F348091D0860F348EF4984310860F048D0
:103F60001038091D0860EC48006820F48020EA49F8
:103F700008600020E8490C310860E7498C3108608E
:103F800070470021E44A921C117011460870704776
:103F900010B501460022002300204A11012A02D157
:103FA000DD4C236808E0022A03D1DB4C703423681F
:103FB00002E0D94C7434236801F01F0201249440BC
:103FC0001C400CB1012000E0002010BD38B50020DD
:103FD00000900024002500BF3120FFF7D9FF0546DF
:103FE0000098401C00900098B0F5A06F01D0002D03
:103FF000F2D03120FFF7CCFF08B1012400E000240B
:10400000204638BD01460020C34A106820F0F80061
:1040100040EAC10010607047C34908607047002142
:10402000BD4A703211701170012802D004280AD1E3
:1040300004E00121B84A7032117005E00521B64A4A
:104040007032117000E000BF00BF7047B7490860D0
:10405000704770B5049C41EA82150126C6EB5306F1
:1040600045EA0645054345EA0465AB4E361D356015
:1040700070BDAD4908667047820142EA0172A64BE5
:1040800084331A607047A8498866704710B5830169
:1040900043EA016343EA02739F4C8834236010BDF6
:1040A000A14908677047A049C864704702460020CC
:1040B000994B0833186820F0EC6042EA010318437A
:1040C000954B08331860704702460020924B083326
:1040D000186820F0784042EA010318438E4B0833F9
:1040E00018607047014600208B4A0832106820F0A3
:1040F000030008431060704787480830006800F0EC
:104100000C00704701460020834A0832106820F0F6
:10411000F000084310607047014600207E4A0832D4
:10412000106820F4E05008431060704701460020FA
:10413000794A0832106820F4604040EAC1001060FB
:104140007047F0B50021002200240225002602233A
:10415000714F08373F6807F00C0121B1042905D0E1
:10416000082937D105E0724F076036E0714F0760CC
:1041700033E0694F3F1D3F68C7F38056664F3F1DD0
:104180003F6807F03F036EB16A4FB7FBF3F7DFF804
:1041900088C10CF1040CDCF800C0CCF3881C07FBD0
:1041A0000CF40CE0624FB7FBF3F7DFF86CC10CF1D5
:1041B000040CDCF800C0CCF3881C07FB0CF4564F51
:1041C0003F1D3F68C7F301477F1C7D00B4FBF5F737
:1041D000076002E0564F076000BF00BF4E4F083730
:1041E0003F6807F0F0010909534F7A5C0768D74030
:1041F0004760494F08373F6807F4E051890A4E4F3E
:104200007A5C4768D7408760434F08373F6807F4B8
:104210006041490B484F7A5C4768D740C760F0BDA2
:10422000002100F44072B2F5407F0AD13A4A0832C8
:10423000116821F4F811414A02401143364A08320C
:104240001160354A70321268C0F30B031A43324BC7
:1042500070331A60704735494439086070473349F4
:1042600040390860704736490860704701460020B1
:10427000294A8C32106820F01F004A1E1043264A3B
:104280008C321060704701460020234A8C3210683F
:1042900020F4F8504A1E40EA02201F4A8C32106077
:1042A0007047014600201C4A8C32106820F44010F0
:1042B00008431060704701460020174A8C3210688E
:1042C00020F4400008431060704701460020124A65
:1042D0008C32106820F44030084310607047194950
:1042E0000860704739B10C4A3032126802430A4BF9
:1042F00030331A6006E0084A303212688243064BB7
:1043000030331A607047F9B1034A343212680243FD
:10431000014B34331A601CE000380240FFFFF6EA1C
:10432000103000240030002000004742800E474239
:104330000024F40000127A0078000020FFFCFF0F38
:104340005C014742E01147428F4A126882438E4B1C
:104350001A60704739B18C4A121D126802438A4BA9
:104360001B1D1A6006E0884A121D12688243864BA4
:104370001B1D1A60704739B1834A0C321268024320
:10438000814B0C331A6006E07F4A0C32126882437C
:104390007D4B0C331A60704739B17B4A103212687A
:1043A0000243794B10331A6006E0774A10321268E4
:1043B0008243754B10331A60704739B1724A243A00
:1043C00012680243704B243B1A6006E06E4A243A9E
:1043D000126882436C4B243B1A60704739B16A4AB9
:1043E000203A12680243684B203B1A6006E0664A96
:1043F000203A12688243644B203B1A60704739B1FF
:10440000614A1C3A126802435F4B1C3B1A6006E08B
:104410005D4A1C3A126882435B4B1C3B1A60704732
:1044200039B1594A143A12680243574B143B1A6087
:1044300006E0554A143A12688243534B143B1A6003
:10444000704739B1504A103A126802434E4B103B44
:104450001A6006E04C4A103A126882434A4B103BFD
:104460001A60704739B1484A1C3212680243464B01
:104470001C331A6006E0444A1C3212688243424BE5
:104480001C331A60704739B13F4A20321268024328
:104490003D4B20331A6006E03B4A203212688243CB
:1044A000394B20331A60704739B1374A24321268C9
:1044B0000243354B24331A6006E0334A2432126833
:1044C0008243314B24331A60704739B12E4A2C3263
:1044D000126802432C4B2C331A6006E02A4A2C3215
:1044E00012688243284B2C331A60704739B1264A30
:1044F000303212680243244B30331A6006E0224AFD
:10450000303212688243204B30331A6070470128E2
:1045100008D11D493C31096841F008011A4A3C3272
:10452000116007E018493C31096821F00801164A7A
:104530003C321160704739B1134A273A127802436E
:10454000114B273B1A7006E00F4A273A1278824334
:104550000D4B273B1A7070470B484030006840F005
:104560008070094940310860704701460020064AC2
:10457000283A12680A400AB1012000E00020704782
:1045800001492639087070473438024010B5044696
:10459000FA48844208D101211020FFF752FF002180
:1045A0001020FFF74EFF57E0F548844209D1012162
:1045B0004804FFF735FF00214FF40030FFF730FFCC
:1045C0004AE0F048844209D101218804FFF728FF1E
:1045D00000214FF48020FFF723FF3DE0EA488442AA
:1045E00009D10121C804FFF71BFF00214FF400206F
:1045F000FFF716FF30E0E548844209D101210805A4
:10460000FFF70EFF00214FF48010FFF709FF23E0B2
:10461000DF48844208D101212020FFF712FF00214A
:104620002020FFF70EFF17E0DA48844209D101216C
:104630008807FFF7F5FE00214FF08040FFF7F0FEFE
:104640000AE0D548844207D101214005FFF7E8FE82
:1046500000216005FFF7E4FE10BD2DE9FF47054688
:104660000E460024A14600BFA046B08900B100BF9D
:104670002C8A24F44054F08804432C82AC8941F203
:104680000C608443B088318908437189084304432E
:10469000AC81AC8A24F44074B0890443AC8268468F
:1046A000FFF74FFDB548854202D0B948854202D197
:1046B000DDF80C9001E0DDF80890A88900F40040D6
:1046C00040B109EBC90000EB091031684900B0FBAB
:1046D000F1F707E009EBC90000EB09103168890028
:1046E000B0FBF1F76420B7FBF0F00401200964216E
:1046F00001FB1078A88900F4004040B1322000EBA3
:10470000C800B0FBF1F000F00700044308E03220DD
:1047100000EB08106421B0FBF1F000F00F0004433F
:104720002C81BDE8FF874FF4165101600021818084
:10473000C18001810C21418100218181704710B528
:1047400002460020108A20F470600B884C882343B6
:104750008C882343CC8823431843108210BD00214A
:10476000018041808180C180704721B1828942F4FB
:104770000052828104E082894DF6FF731A408281E3
:104780007047028B02F47F420283028B0A4302834A
:10479000704721B1828942F40042828103E082891C
:1047A000C2F30E028281704721B1828A42F4006214
:1047B000828204E0828A4FF2FF731A40828270473D
:1047C000C1F308028280704701468888C0F3080060
:1047D0007047028A4FF6F0731A400282028A0A4337
:1047E0000282704721B1828942F00202828104E094
:1047F00082894FF6FD731A408281704782894FF299
:10480000FF731A40828182890A4382817047028A3B
:104810004FF6DF731A400282028A0A43028270470F
:1048200021B1028A42F48042028204E0028A4BF6FD
:10483000FF731A4002827047818941F00101818132
:10484000704721B1828A42F00802828204E0828AA3
:104850004FF6F7731A4082827047028BD2B20283FE
:10486000028B42EA01220283704721B1828A42F020
:104870002002828204E0828A4FF6DF731A4082822D
:10488000704721B1828A42F01002828204E0828A5B
:104890004FF6EF731A4082827047828A4FF6FB739D
:1048A0001A408282828A0A438282704721B1828AB8
:1048B00042F00202828204E0828A4FF6FD731A40BF
:1048C000828270471AB1838A0B43838202E0838A13
:1048D0008B4383827047F0B50346002400260025F1
:1048E000002040F66A17B94200D100BF1846C1F354
:1048F000421401F01F06012707FA06F5012C01D129
:104900000C3004E0022C01D1103000E014301AB158
:1049100007682F43076002E00768AF430760F0BDF8
:1049200002460020B1F5007F00D100BF13880B4084
:104930000BB1012000E00020704701F40072B2F5D5
:10494000007F00D100BFCA430280704770B50246A5
:10495000002400230025002040F66A16B14200D151
:1049600000BFC1F3421501F01F03012606FA03F34D
:10497000012D13D19689334017E00000001001404B
:104980000044004000480040004C004000500040FF
:104990000014014000780040007C0040022D02D14C
:1049A000168A334001E0968A33400C12012606FA3B
:1049B00004F41688344013B10CB1012000E000204B
:1049C00070BD10B50022002340F66A14A14200D148
:1049D00000BF0A1201249440A3B2DC43048010BD3E
:1049E0000948804709480047FEE7FEE7FEE7FEE783
:1049F000FEE7FEE7FEE7FEE7FEE7FEE704480549BF
:104A0000054A064B704700002D0300088901000885
:104A100018180020181E0020181A0020181A00204C
:104A2000032A40F2308010F0030C00F0158011F8DA
:104A3000013BBCF1020F624498BF11F801CB00F8B2
:104A4000013B38BF11F8013BA2F1040298BF00F806
:104A500001CB38BF00F8013B11F0030300F02580C3
:104A6000083AC0F0088051F8043B083A51F804CBEA
:104A7000A0E80810F5E7121D5CBF51F8043B40F8B0
:104A8000043BAFF30080D20724BF11F8013B11F8BB
:104A900001CB48BF11F8012B24BF00F8013B00F8FF
:104AA00001CB48BF00F8012B704710B5203AC0F089
:104AB0000B80B1E81850203AA0E81850B1E818501F
:104AC000A0E81850BFF4F5AF5FEA027C24BFB1E85C
:104AD0001850A0E8185044BF18C918C0BDE81040CD
:104AE0005FEA827C24BF51F8043B40F8043B08BFD6
:104AF0007047D20728BF31F8023B48BF11F8012B9D
:104B000028BF20F8023B48BF00F8012B70474FF048
:104B1000000200B5134694469646203922BFA0E80D
:104B20000C50A0E80C50B1F12001BFF4F7AF090719
:104B300028BFA0E80C5048BF0CC05DF804EB89000A
:104B400028BF40F8042B08BF704748BF20F8022B4D
:104B500011F0804F18BF00F8012B70477047704765
:104B60007047000001491820ABBEFEE72600020096
:104B700000487047B817002070477546FFF7F8FFE8
:104B8000AE4605006946534620F00700854618B03A
:104B900020B5FFF733FFBDE820404FF000064FF08F
:104BA00000074FF000084FF0000B21F00701AC4662
:104BB000ACE8C009ACE8C009ACE8C009ACE8C00981
:104BC0008D46704710B50446AFF300802046BDE81F
:104BD0001040FBF722BB03B401984100009850EA53
:104BE000C12018BF04204A0D18BF40F0010040F258
:104BF000FF72B2EB515F08BF40F00200012808BF0E
:104C0000052002B07047000070B59B482DED020BE7
:104C10002DED068B079D25F00044A04218DC974837
:104C2000844202DC0AD1069840B19DED060BBDEC32
:104C3000068B02B0BDE8704000F0D0BA002DCCBFAA
:104C40009FED8F0B9FED900BBDEC068B02B070BDFE
:104C50008F48A04215DD8F48A042D8BF4FF0FF34E7
:104C600058DD9DED060B51EC100BFFF7B4FF042847
:104C700008BF00F0C9FA9DED060BBDEC068B02B033
:104C800070BD9DED060B51EC100B00F0D5FACDE98F
:104C9000060181489FED828BA0423CDD8248A04204
:104CA0001FDD00249FED82AB9DED060B53EC1A2B0C
:104CB00051EC100B00F00AFB9DED060B41EC190BBB
:104CC00053EC1A2B51EC100B00F08EFD53EC182B0B
:104CD00000F0CAFE53EC192B00F0ACFBCDE9060145
:104CE00049E09DED060B012453EC182B51EC100B01
:104CF00000F0ECFA9DED060B41EC190B53EC182B70
:104D000051EC100B00F0B0FE53EC192B00F092FBAD
:104D1000CDE906012FE06848A0421FDD02249FED87
:104D2000689B9DED060B53EC192B51EC100B00F01A
:104D30005BFD53EC182B00F0C9FA9DED060B41EC1E
:104D4000180B53EC192B51EC100B00F08DFE53ECAB
:104D5000182B00F06FFBCDE906010CE09DED060B72
:104D6000032453EC102B9FED580B51EC100B00F06B
:104D700061FBCDE906019DED060B53EC102B51ECC8
:104D8000100B00F031FD41EC180B53EC182B00F028
:104D90002BFD41EC190B4E480621B0EE490AF0EE0E
:104DA000690A784400F09EF953EC182B51EC100B73
:104DB00000F01AFD41EC180B4648B0EE490AF0EE3F
:104DC000690A0521784400F08DF953EC192B51EC58
:104DD000100B00F009FD41EC100B51EC180B53ECDB
:104DE000102B002C0EDA00F071FA9DED061B53EC2F
:104DF000112B00F0F9FC9DED061B53EC112B00F07C
:104E000027FE35E000F062FA9DED061B53EC112BF6
:104E100000F0EAFC41EC100B2F48784400EBC40092
:104E200090ED001B51EC100B53EC112B00F01CFE0D
:104E30009DED061B53EC112B00F016FE41EC100B00
:104E40002648784400EBC40090ED001B51EC100B99
:104E500053EC112B00F0FCFD41EC100B002DA2BF18
:104E6000BDEC068B02B070BD51EC100B00F0F0F9F8
:104E700041EC100B01E70000000010440000F07F3F
:104E8000182D4454FB21F93F182D4454FB21F9BF40
:104E90000000DC3F0000203E0000F33F0000000067
:104EA000000000000000F03F0000E63F00000000AE
:104EB00000000000000000400080034000000000EF
:104EC000000000000000F83F000000000000F0BFFC
:104ED000FA0F0000B00F00003A0F0000F20E0000C1
:104EE00070B56B4E2DED040B2DED028B82B0DDF80D
:104EF0001CC0DDE905235C422CF000411C4341EA63
:104F0000D474049D22F00040B44205D86C422C4376
:104F100040EAD474B4420BD99DED061B9DED040B01
:104F200002B0BDEC028B04B0BDE8704000F060B987
:104F3000ACF14054A4F17F641C430BD0022404EA7A
:104F4000AC7444EAD27405439FED538B9FED542B10
:104F500007D015E09DED040B51EC100B00F064F947
:104F600042E0002C11BF012C9DED040B02B0BDEC02
:104F7000028B04BF04B070BD022C38D0032C3BD090
:104F80000B439FED491B9FED4A0B0AD0B14218D14C
:104F9000B04209D121F0804120F080400791059076
:104FA0000FE0002A15DA10E0434B7B44002C08BFC9
:104FB00093ED000B0DD0012C10D0022C17D0032C38
:104FC0001AD0B0421DD1002A03DAB0EE410AF0EE49
:104FD000610A02B0BDEC028B04B070BD93ED000B12
:104FE00051EC100B00F034F941EC100BF1E7B0EE8E
:104FF000480AF0EE680AECE7B0EE420AF0EE620A08
:10500000E7E7401A00153C28C8BF8DED000B19DCFE
:10501000BCF1000FBEBF10F13C0F9FED290B8DEDD1
:10502000000B0FDB9DED060B53EC102B9DED040BDD
:1050300051EC100B00F0FEF900F0FEF800F0F4F86F
:10504000CDE90001002C08BF9DED000BC1D0012C63
:1050500010D0022C9FED1C0B53EC102B9DED000B80
:1050600051EC100B0DD000F0FFFC53EC182B00F0AE
:10507000FBFCB9E7019880F0004001909DED000B2A
:10508000A7E700F0F1FC53EC182B00F0E1FCABE7D4
:105090000000F07F00000000182D4454FB2109405F
:1050A000182D4454FB2109C0182D4454FB21F9BF8D
:1050B000182D4454FB21F93F220E0000000000008F
:1050C0000000000000000000075C143326A6A13C8D
:1050D0002DED020B019820F0004001909DED000B9A
:1050E00002B0704770B504462DED028B4D1E00EBEB
:1050F000C500B0EE408AF0EE608A90ED000B35F00E
:10510000060017D053EC182B51EC100B00F06CFB81
:1051100041EC100B6D1E04EBC50090ED001B51EC33
:10512000100B53EC112B00F0D1F841EC100B35F0C3
:105130000600E7D1022D36D0042D1CD0062D1CBF51
:10514000BDEC028B70BD53EC182B51EC100B00F032
:105150004BFB94ED0A1B53EC112B00F0B7F853EC0A
:10516000182B00F041FB94ED081B53EC112B00F0C1
:10517000ADF841EC100B53EC182B51EC100B00F078
:1051800033FB94ED061B53EC112B00F09FF853EC0E
:10519000182B00F029FB94ED040B53EC102B00F0BE
:1051A00095F841EC100B53EC182B51EC100B00F060
:1051B0001BFB94ED021B53EC112B00F087F853EC12
:1051C000182B00F011FB94ED001B53EC112B00F099
:1051D0007DF8BDEC028B41EC100B70BD10B553ECAB
:1051E000102B51EC100B00F071F841EC100B10BDBE
:1051F00010B553EC112B51EC100B00F067F841EC9B
:10520000100B10BD000000009FED050B10B553EC16
:10521000102B51EC100B00F0E7FA41EC100B10BD15
:10522000000000000000001010B541EC100BFFF76B
:10523000EBFC51EC100B10BD82B0CDE9000121F068
:10524000004001909DED000B02B051EC100B704737
:1052500081F00041704780F00040704721F000412C
:10526000704720F00040704721F00042A2F16052E8
:10527000B2F5801F01F0004328BFD2F17F6C0BD93B
:105280005FEA001C43EAC20242EB507018BF70474D
:1052900028BF20F001007047B2F5801FBCBF184640
:1052A00070474FEA410C1CF5001F02D2084600F07F
:1052B0003BBD70B500F042FB00000089FFF7F6BF70
:1052C0004FF00040A0F580007047000010B591EA53
:1052D000030F48BF83F0004300F1CE83841A71EBC3
:1052E000030C05D2121943EB0C03001B61EB0C01FC
:1052F000DFF824E14FEA1154A4EB135C1EEA430FDC
:1053000018BF9EEA445F73D023EA0E03DCF1200E3F
:1053100021EA045143F4801332D322FA0CFE10EB3D
:105320000E0023FA0CFE41EB0E01CCF1200E03FA25
:105330000EFE10EB0E0051F10001B1F5801FCCF113
:10534000200E32D201EB045112FA0EF2BDE81040E9
:1053500058BF7047401C38BF5FEA420218BF704711
:10536000002814BF20F0010041F100014FEA410381
:1053700013F5001F38BF7047A1F1C04100F02CBBEE
:10538000012A43EB0302ACF1200CDCF11F0E32BF0B
:105390004FF0000E23FA0CF310EB030041EB045125
:1053A000B4EB115FD0D0A1EB045101F58011490895
:1053B0005FEA300001EB04510ED350F1000038BF1A
:1053C00012FA0EFE08D1BDE81040C9E7401C38BFF4
:1053D0005FEA4202CAD1C3E7BDE810404FEA410389
:1053E00013F5001F38BF7047A1F1C04100F0F4BAB7
:1053F0009EEA445F08D011EA5E0FBDE8104004BF8A
:1054000001F0004100207047BDE8104070B500F089
:1054100095FA00BF64FBBE3E0000E0FF491058BF94
:10542000C1F140415B1058BFC3F140438B42EFF3E1
:10543000008070472DE9C04130B4DFF8A0C23CEADB
:10544000111418BF3CEA131400F0EC8081EA030544
:105450001CEA111444EAD57418BF1CEA131500F0B5
:10546000C780A4EB05044FF0004545EAC12145EA99
:10547000C32341EA505143EA525304F17F749942E5
:1054800004F500344FEAC0204FEAC22208BF904220
:1054900000F09C804FEA13650FF24016765D4FEAEC
:1054A000134506FB05F7C7F1807706FB07F74FEAC0
:1054B000D737A7FB03687642C8F58038A7FB06CE2E
:1054C00038BFA8F1010807FB08E64FF0000EA6FB65
:1054D000028CE6FB03CEDCF1000CCEF1004E38BFAF
:1054E000AEF1010EA6FB0C584FF000074FF000057F
:1054F000E6FB0E87A1FB08C6A0FB07CE16EB0E0647
:1055000045F10005E1FB076515F1E04E7EBFA4F50E
:1055100080345FEA46066D4116F1800745F10005CB
:105520004FEA17274FEA066647EA0567A6F1DE4607
:10553000B6F1805F4FEA15251FD9384624F0010CDB
:1055400005EBC471BCF1FE6F01EB0C1102D8F0BC8D
:10555000BDE8008124425CBF01F5801E9EEAC47F45
:1055600002D4F0BCBDE80081244238D4F0BCA1F1E3
:10557000C041BDE8004100F02FBA4FEAD22242EA12
:1055800043524FEAD323A7FB02864FEAD02040EADA
:10559000415007FB03661EEA0E0F4FEAD12105FBBF
:1055A000026658BFA6EB0056B6EB00564FEA520E05
:1055B0004EEAC37E18EB0E0E56EB530EBDD518EB1C
:1055C00002085E417F1C55F10005B6E74FF48015D7
:1055D0004FF000074FF000064FF00008ADE7F0BCB9
:1055E0004FF0000001F1C04101F00041BDE8008131
:1055F00011EA0C1F0CEA131500D00CE013EA0C1F83
:1056000000F025804FF00000F0BC81EA030101F0BA
:105610000041BDE80081F0BCBDE8004181EA030122
:1056200000F0DAB9F0BCBDE8004170B500F086F9D1
:10563000097EFC3E00F007B881EA03014FF000004C
:1056400001F00041704781EA030100F0C5B9F0BCE8
:10565000BDE800414FF0000021497047FFFDFBF914
:10566000F7F5F4F2F0EEEDEBE9E8E6E4E3E1E0DE95
:10567000DDDBDAD8D7D5D4D3D1D0CFCDCCCBCAC807
:10568000C7C6C5C4C2C1C0BFBEBDBCBBBAB9B8B72E
:10569000B6B5B4B3B2B1B0AFAEADACABAAA9A8A821
:1056A000A7A6A5A4A3A3A2A1A09F9F9E9D9C9C9BEF
:1056B0009A9999989797969595949393929191909A
:1056C0008F8F8E8E8D8C8C8B8B8A8989888887872B
:1056D0008685858484838382828181800000FF07A0
:1056E0000000F87F4FEA41034FEA5353A3F580636C
:1056F000D3F11E03C8BFD3F1210C0CDD4FF00042E3
:1057000042EAC12242EA505232FA03FC8CEAE17CBE
:10571000ACEBE1707047102BC4BF0020704703F55D
:10572000787CBCF1FF3F04D06FF0004282EA210098
:10573000704770B500F002F949922480002070474C
:10574000F2E710F0004248BF4042B0FA80F310FA8E
:1057500003F10AD0C3F11D0303F580634FEA415002
:1057600002EB035202EBD12170474FF0000070476B
:1057700051EA030C17D41CF5801F58BFBCF5801FDD
:1057800000F10680994218BF704708BF90427047E9
:1057900007D711F5801F58BF13F5801F19D4994200
:1057A0007047894270471CF5801F08D5BCF5801FE3
:1057B000F7D58B4218BF704708BF824270474FF43D
:1057C000001C1CEB410F38BF1CEB430F01D28B4276
:1057D000704770B500F0B2F8922449004FF00051C4
:1057E0004FF08053FFF71ABEDFF848C170B51CEACE
:1057F000111E1EBF1CEA13159EEA0C0F95EA0C0F32
:1058000000F06F8081EA030423EA4C134EEAD47E51
:1058100021EA4C1141F4801143F48013AE44A1FB02
:10582000024CA0FB0365AEF17F7E361955EB0C05EB
:10583000A1FB034C4CF10003A0FB021C16EB0C0671
:10584000654153F10003094218BF46F0010613F405
:10585000007F0BD14FEA03314FEA0530340341EAB0
:10586000155140EA16506FF003020AE04FEAC321D7
:105870004FEAC520F40241EA555140EA56506FF014
:10588000020202EB2E4201EB025585EACE710AD0EC
:105890005FEA440C18BF24F0004450F1000041F1CD
:1058A000000120EAD47040F2FE7C624500D270BD57
:1058B000A84214BF4FF080444FF04044002E08BF70
:1058C0000024BEF1806FA8BFA1F1C041BDE87040C7
:1058D00080F282804FF0000001F1C04101F00041F0
:1058E00070479EEA0C0F0CEA131518BF95EA0C0FCF
:1058F00006D04FF0000081EA030E0EF0004170BDAB
:1059000000F01CF88900013E00F007B800F009B86B
:105910004FEA430C5FEA5C5C08D081EA030100F0C7
:105920005BB84FEA410C5FEA5C5CF6D14FF00000D7
:10593000014970470000FF070000F87F0EF1020EDA
:105940002EF0030E5EF8046B364205D4012A43EBB9
:10595000030515F5001F12D8012841EB010C1CF5B9
:10596000001F0CD80ED14FEAD17C15F5001F0CEBAF
:105970004C0C0CF1020C08BF4CEBD37C04E04FF054
:10598000080C01E04FEAD37C0CEB4C0526FA05F637
:1059900006F00706B6F1040C06D20EEB860CBDE845
:1059A00070404CF0010C6047DFE80CF0090B02027C
:1059B0004FF000414FF00000A1F5002170BD1946E5
:1059C0001046012851EB010418BFD4F5001484BF20
:1059D000002001F0004170BD0808A0F500114FEA59
:1059E0003101704753EA010C17D41CF5801F58BFD2
:1059F000BCF5801F00F106808B4218BF704708BFBE
:105A00008242704707D713F5801F58BF11F5801FDA
:105A100019D48B4270479B4270471CF5801F08D5F4
:105A2000BCF5801FF7D5994218BF704708BF904258
:105A300070474FF4001C1CEB430F38BF1CEB410FA9
:105A400001D2994270470FB40CBC03BCFFF7C1BE32
:105A500091EA030F10B581F000413FF53FAC83F0B0
:105A6000004300F009B8000010B591EA030F48BFE9
:105A700083F000433FF532AC841A71EB030C07D27C
:105A800012198CF0004C43EB0C03001B61EB0C0172
:105A9000DFF8A4E14FEA1154A4EB135C1EEA430FB4
:105AA00018BF9EEA445F00F0B08023EA6E035242C2
:105AB00021EA0451C3EB6E0338BF5B1EDCF1200EFC
:105AC00025D322FA0CFE10EB0E0043FA0CFE41EB3C
:105AD0000E01CCF1200E03FA0EFE10EB0E0051F178
