:020000040800F2
:100000000814002059660008390200083B02000865
:100010003F020008430200084702000800000000F9
:100020000000000000000000000000004B0200087B
:100030004D020008000000004F02000851020008B5
:10004000736600087366000873660008736600082C
:10005000736600087366000873660008736600081C
:10006000736600087366000873660008736600080C
:100070007366000873660008736600085946000836
:10008000736600087366000873660008BB3F0008CB
:100090002540000873660008736600087366000850
:1000A00073660008736600087366000873660008CC
:1000B00073660008736600087366000873660008BC
:1000C00073660008736600087366000873660008AC
:1000D000736600084D4300087366000873660008E5
:1000E000736600087366000873660008736600088C
:1000F000736600087366000873660008736600087C
:10010000736600087366000873660008736600086B
:10011000AB450008CF470008736600087366000807
:10012000736600087366000873660008736600084B
:10013000736600087366000873660008D13F000804
:10014000E73F0008736600087366000873660008DE
:10015000736600087366000873660008736600081B
:10016000736600087366000873660008736600080B
:1001700073660008736600087366000873660008FB
:10018000736600087366000800F002F800F040F89B
:100190000AA090E8000C82448344AAF10107DA45E2
:1001A00001D100F035F8AFF2090EBAE80F0013F0F4
:1001B000010F18BFFB1A43F001031847B078000085
:1001C000D0780000103A24BF78C878C1FAD8520716
:1001D00024BF30C830C144BF04680C6070470000C1
:1001E0000023002400250026103A28BF78C1FBD840
:1001F000520728BF30C148BF0B6070471FB506F0DB
:1002000050FF9DE8030006F073FC1FBD10B510BD44
:1002100006F031FD1146FFF7F1FF00F009F806F096
:100220004FFD03B4FFF7F2FF03BC06F0F1FC000042
:1002300000F018F900BFFEE7704700BFFEE700BFFF
:10024000FEE700BFFEE700BFFEE77047704770475C
:10025000704700000CB500200190009076480068BF
:1002600040F480307449086000BF7348006800F4AF
:10027000003000900198401C0190009818B9019836
:10028000B0F5A04FF1D16C48006800F4003010B117
:100290000120009001E0002000900098012846D144
:1002A00065484030006840F0805063494031086044
:1002B0006248006840F44040604908605E48083089
:1002C00000685D49083108600846006840F4004055
:1002D00008600846006840F4A05008605848091FAC
:1002E0000860081F006840F08070091F086000BFA8
:1002F0005148006800F000700028F9D040F2057005
:10030000504908604C480830006820F003004A4912
:10031000083108600846006840F00200086000BF2D
:1003200045480830006800F00C000828F8D10CBDE2
:1003300010B54548006840F47000434908603E48E5
:10034000006840F001003C49086000203A4908314B
:100350000860394800683D490840374908603C4812
:10036000091D0860081F006820F48020091F08602C
:10037000002031490C310860FFF76CFF4FF000603E
:1003800031498039086010BD70B500200022022379
:1003900000240221284D08352D6805F00C0020B1FD
:1003A000042806D0082834D107E02A4D2A4E3560AB
:1003B00033E02A4D284E35602FE01F4D2D1D2D684E
:1003C000C5F380541C4D2D1D2D6805F03F0154B11F
:1003D000224DB5FBF1F5184E361D3668C6F388166A
:1003E00005FB06F209E01B4DB5FBF1F5124E361D7B
:1003F0003668C6F3881605FB06F20F4D2D1D2D68D5
:10040000C5F301456D1C6B00B2FBF3F5124E356070
:1004100003E0104D104E356000BF00BF064D08359B
:100420002D68C5F303150E4E705D0B4D2D68C5404C
:10043000094E356070BD0000003802400070004079
:1004400008544007003C024088ED00E0FFFFF6FE44
:10045000103000240024F4000000002000127A0074
:100460000400002010B54FF4A06004F017FB4FF417
:10047000E13003F0D5FE4FF4E13003F0C4FF4FF458
:10048000E13004F0F8F84FF4612004F011FA04F0C0
:10049000E7FA002303220821104603F07BFC002327
:1004A00003220821104603F0FCFC10BDF9A07047A0
:1004B000FA48704770B505460C46204606F0ECF841
:1004C00070BD70B505460C46204606F014F970BDA7
:1004D0002DE9F05F0546884692462C46A06800EB61
:1004E00008096068484525D2D4F814B06068460011
:1004F000BBF1000F01D1DFF8A8B300E076004E4554
:10050000FCD33146584602F047FE07460FB9BDE816
:10051000F09F3846D4E9022106F087F9206920B11E
:100520005846E16802F040FE01E001202061E760EA
:10053000666000BFD4E9022188184246514606F0A1
:1005400074F9C4F8089000BFE1E70146102901D210
:1005500001207047B1F5006F01D20220F9E7B1F533
:10056000802F01D20320F4E7B1F1007F01D20420F3
:10057000EFE70520EDE70146802901D20120704711
:10058000B1F5804F01D20220F9E7B1F5001F01D289
:100590000320F4E7B1F1805F01D20420EFE70520EA
:1005A000EDE70146002901DA0A207047802901DAC7
:1005B0000120FAE7B1F5804F01DA0220F5E7B1F545
:1005C000001F01DA0320F0E7B1F1805F01DA0420B7
:1005D000EBE70520E9E770B505460E4634461CB941
:1005E0002846FFF7C8FF70BD082C01D20520FAE7A6
:1005F000B4F5806F01D20620F5E7B4F5003F01D2D3
:100600000720F0E7B4F1807F01D20820EBE7B4F1D6
:10061000004F01D20920E6E70A20E4E72DE9F05F68
:1006200080460D4692460026DAF8007015B9002083
:10063000BDE8F09FD8F80400FFF787FF814698F8DF
:100640001C0000F0010008B909FB05F998F8090041
:10065000112814D2DFE800F0150948392B4E204943
:100660003A4F4A50541456667300002405E057F878
:10067000240002F0DFFD0644641CAC42F7D36EE0B8
:1006800000BF002405E057F82400FFF78AFF064466
:10069000641CAC42F7D362E0002405E057F8240064
:1006A000FFF769FF0644641CAC42F7D357E000240F
:1006B00008E007EBC400D0E90021104602F0C3FDBA
:1006C0000644641CAC42F4D349E000BF002408E0B7
:1006D00007EBC401D1E900211046FFF77CFF064477
:1006E000641CAC42F4D33AE000BF00BF042000FB1E
:1006F000056634E000BF00BF082000FB05662EE061
:100700002E442CE000240AE057F8240006F06EF88E
:1007100083465846FFF72FFF58440644641CAC42FA
:10072000F2D31CE0002407E057F834B05846FFF736
:1007300022FF58440644641CAC42F5D30FE0002469
:100740000AE057F8240000F0D6F883465846FFF731
:1007500012FF58440644641CAC42F2D300BF00BFF1
:1007600098F81C0000F0010018B13046FFF703FFB5
:10077000814409EB06005BE770B505460C46002690
:10078000687A112860D2DFE800F01211141D1C1FD6
:1007900013151E202D3909104D575800206808B92F
:1007A000012000E00020064650E000BF00BF00BF6F
:1007B00000BF00BF206808B9012000E00020064605
:1007C00044E000BF00BF00BF00BF00210846D4E9DD
:1007D000003259405040014301D1012000E0002087
:1007E000064633E094ED000AB5EEC00AF1EE10FAC9
:1007F00001D1012000E00020064627E094ED001B17
:10080000B0EE410AF0EE610A53EC102B9FED251B70
:1008100051EC110B06F0D2FA01D1012000E00020CA
:10082000064613E0206810B12068007808B901205E
:1008300000E00020064609E000BF206808B901205A
:1008400000E00020064601E0012600BF00BF304660
:1008500070BD70B504460D4629462046FFF78CFF53
:1008600008B1002070BD2946204600F0B0F8F9E735
:1008700070B504460E461546607A102802D0607A9C
:100880000E2814D1296811B1A06988420ED1002028
:1008900070BD0000312E332E33000000FB4D0F00E1
:1008A00014000020000000000000000002E00EB96B
:1008B0000020EDE72946204600F089F8E8E770B50A
:1008C00004460E4615466068B04201D0002070BD57
:1008D000607A102802D0607A0E2807D1296811B1F9
:1008E000A069884201D10020F1E700BF29462046D7
:1008F00000F06DF8EBE72DE9F04705460027286882
:100900000068ED49884200D105E040F2CB22EBA11E
:10091000F74805F02BFF002643E02868C06906EB86
:10092000460101EBC60100EB8104206900EB0509DB
:10093000E06800EB0508207A28B94946204600F017
:1009400046F807442CE0207A012802D0207A0328B8
:100950000BD1207F00F0040038B14A462046D8F879
:100960000010FFF7ACFF07441AE0207A012807D1F6
:100970004A462046D8F80010FFF77AFF07440FE0F8
:10098000207A032805D149462046FFF762FF074435
:1009900006E04A462046D8F80010FFF73FFE07441D
:1009A000761C28688069B042B7D8002609E0A8689C
:1009B00000EB06142068FFF7C8FDA168084407444F
:1009C000761C6868B042F2D83846BDE8F0872DE959
:1009D000F04106460D467068FFF7B7FD0446707A91
:1009E00011285BD2DFE800F0100929211A2C152A02
:1009F000222D3234300F37454C00286802F01AFCA3
:100A00002044BDE8F08100BF2868FFF7CAFD2044FC
:100A1000F7E72868FFF7AFFD2044F2E7D5E90021AA
:100A2000104602F010FC2044EBE700BFD5E900219E
:100A30001046FFF7D0FD2044E3E700BF201DE0E7AC
:100A400000BF04F10800DCE7601CDAE7201DD8E7EE
:100A500004F10800D5E72F681FB1384605F0C6FE3F
:100A600000E0002080464046FFF785FD20444044DA
:100A7000C7E72F683846FFF77EFD20443844C0E7BB
:100A80002F681FB13846FFF736FF00E00020804690
:100A90004046FFF770FD20444044B2E740F2CD12DB
:100AA00086A194A005F062FE30B502460020802A9F
:100AB00021D3D3B243F080050346401CCD54D20964
:100AC000802A18D3D3B243F080050346401CCD548E
:100AD000D209802A0FD3D3B243F080050346401CCD
:100AE000CD54D209802A06D3D3B243F08005034601
:100AF000401CCD54D2090346401CCA5430BD70B5C9
:100B000005460C46002D1CDAE8B240F0800020704B
:100B1000802040EAE5106070802040EAA530A07097
:100B2000802040EA6550E070802040EA2570207106
:100B3000FF202072E071A0716071012060720A20B4
:100B400070BD21462846FFF7AFFFF9E72DE9F047D2
:100B500007468846144645463E462DB9214630464E
:100B6000FFF7A2FFBDE8F087F0B240F080002070F0
:100B7000802040EAD6106070802040EA9630A07055
:100B8000802040EA5650E070082D05D2280140EA46
:100B9000167020710520E5E76807400E40EA1670E0
:100BA00040F080002071ED084FF0050907E0E8B241
:100BB00040F08002484609F101092254ED09802DD8
:100BC000F5D2484609F1010925544846CAE72DE9FE
:100BD000F04104460D46B4F1005F05D2E00029461D
:100BE000FFF762FFBDE8F0810020C00040EA5471C9
:100BF000E6002A463046FFF7A9FFF3E770B5044642
:100C00000D4629462068FFF7E2FF0646287821793D
:100C100008432870A819D4E9022105F006FEA0684F
:100C2000304470BD2DE9F05F81460E4614462146E2
:100C3000D9F80400FFF7CBFF054699F80900112801
:100C400074D2DFE800F01309592D23651B5A2E6674
:100C50005B6774127C9CB200207820706119306848
:100C600002F0FEFA2844BDE8F09F00BF2078207013
:100C700061193068FFF743FF2844F4E720782070BB
:100C800061193068FFF710FF2844ECE720782070E6
:100C90006219D6E90071384602F0EDFA2844E2E71D
:100CA00000BF207820706219D6E900713846FFF73E
:100CB0004DFF2844D7E70000F9EEAA282E2E5C4508
:100CC0004D4245444445445C73656E696F725C41B6
:100CD00075746F5F53686F6F745C70726F746F5C64
:100CE00070726F746F6275662D632E630000000072
:100CF0008C7800083000000000BF00BF207840F072
:100D0000050020706119306802F0C4FA2844AAE78F
:100D100000BF00BF207840F0010020706219D6E9C2
:100D20000071384602F0BAFA28449CE747E0207880
:100D300020706119306802F0B8FA284493E72078EF
:100D400040F00200207004EB0508376827B9002046
:100D500088F80000012010E0384605F047FD824683
:100D600041465046FFF7A0FE834608EB0B00524673
:100D7000394605F05AFD0BEB0A00284473E720784A
:100D800040F0020020706719D6F8008039464046CE
:100D9000FFF78AFE824607EB0A004246716805F0BB
:100DA00044FD0AEB080028445DE7207840F002008B
:100DB00020706119306800F01BFA284453E740F2B4
:100DC0007142AFF20811AFF2D40005F0CFFC10B5BC
:100DD0000446112C20D2DFE804F00A090C12111489
:100DE0000B0D13150E16180F1A1D1B0000BF00BFA8
:100DF00000BF00BF00BF00BF042010BD00BF00BF88
:100E000000BF00BF00BF0820F7E70420F5E700BFE0
:100E10000420F2E70820F0E74FF49E62AFF264117D
:100E2000AFF2301005F0A2FC70B505460E46144630
:100E3000E2003146284605F0F8FC70BD70B5054665
:100E40000E461446A2003146284605F0EEFC70BD61
:100E50000146022903D0072901D00A2901D1042023
:100E60007047052903D0092901D00B2901D1082099
:100E7000F6E70120F4E72DE9FF4F87B082460D46E3
:100E80001F460998D0F800809AF81C0000F0010075
:100E900000286FD01DB900200BB0BDE8F08F394697
:100EA000DAF80400FFF793FE8146387840F002003C
:100EB0003870CDF818909AF80900FFF7C9FF684319
:100EC00005900598FFF757FB8346D94407EB0906C1
:100ED0009AF809000E2870D2DFE800F01C2B075C9E
:100EE0003A114D085D120913701B00BF00BF2A465E
:100EF00041463046FFF7A2FF06EB850675E000BFCE
:100F000000BF2A4641463046FFF78EFF06EBC50676
:100F10006BE000BFCDF80880002407E0029951F88B
:100F200024003146FFF7EBFD0644641CAC42F5D3C8
:100F30005BE0CDF80880002407E0029951F8240016
:100F4000314602F08DF90644641CAC42F5D34CE006
:100F5000CDF8088000240AE0029800EBC40103C920
:100F60003246CDE9000102F086F90644641CAC4229
:100F7000F2D33AE064E0CDF80880002407E002995B
:100F800051F824003146FFF78FFD0644641CAC4243
:100F9000F5D32AE000BFCDF8088000240AE00298CB
:100FA00000EBC40103C93246CDE90001FFF7CEFDD5
:100FB0000644641CAC42F2D317E00EE0CDF8088082
:100FC000002407E0029951F82400314602F06DF93F
:100FD0000644641CAC42F5D307E040F29A52AFF2EB
:100FE0002431AFF2F02005F0C1FB00BF07EB090090
:100FF000301A04900498FFF7BEFA039003988345D3
:1010000016D00BF101010398884200D106E04FF49D
:10101000B462AFF25831F7A005F0A8FB07EB090165
:1010200007EB0902501C049A05F044FC09F1010980
:10103000069839180498FFF737FD049848442BE7C1
:1010400000269AF80900FFF7C2FE8146002407E057
:10105000BA1941465046FFF7E5FD0644C844641CF2
:10106000AC42F5D3304617E770B504460D46164638
:1010700029462046FFF780FB08B1002070BD3246AC
:1010800029462046FFF7CEFDF8E72DE9F04104465A
:101090000E4615461F46607A102802D0607A0E2848
:1010A00008D1296811B1A069884202D10020BDE8A9
:1010B000F08102E00EB90020F9E73A4629462046C1
:1010C000FFF7B0FDF3E72DE9F04104460E46154663
:1010D0001F466068B04202D00020BDE8F081607A0F
:1010E000102802D0607A0E2807D1296811B1A069B2
:1010F000884201D10020F0E700BF3A462946204649
:10110000FFF790FDE9E72DE9F04706460F4600247A
:1011100030680068C249884200D106E040F2C652F9
:10112000AFF26841BF4805F021FB4FF0000849E0ED
:101130003068C06908EB480101EBC80100EB81058C
:10114000286900EB060AE86800EB0609287A30B93E
:101150003A1951462846FFF765FD044430E0287AE5
:10116000012802D0287A03280CD1287F00F004003F
:1011700040B13B1952462846D9F80010FFF7A3FFAB
:1011800004441DE0287A012808D13B19524628461C
:10119000D9F80010FFF779FF044411E0287A0328FA
:1011A00006D13A1951462846FFF75EFF044407E08E
:1011B0003B1952462846D9F80010FFF75CFE04445C
:1011C00008F10108306880694045B1D84FF0000847
:1011D00008E0B26802EB08103919FFF70FFD04446C
:1011E00008F1010870684045F3D82046BDE8F08753
:1011F0002DE9F04106460C4626B90020207001205A
:10120000BDE8F081611C3046FFF77DFF05462846AA
:10121000FFF7B1F90746012F04D0E0192A46611CF7
:1012200005F048FB21462846FFF73EFC2844E7E747
:10123000FEB504460D4669462068FFF7C8FC064621
:101240009DF80000217908438DF800006A46314678
:1012500028462B689847D4E9021228462B689847FD
:10126000A0683044FEBD2DE9FF5F81460D469046E3
:101270001E46002799F809000E2872D2DFE800F018
:101280001022075B460B34085C0C090D720F00BF7F
:1012900000BFAF0086E000BF00BFEF0082E000BFEC
:1012A00000240CE058F824006946FFF728FC824629
:1012B0006A4651463046336898475744641CAC42EE
:1012C000F0D36CE000240CE058F82400694601F0EB
:1012D000C7FF82466A4651463046336898475744AE
:1012E000641CAC42F0D35AE000240CE058F824000F
:1012F0006946FFF7D9FB82466A4651463046336855
:1013000098475744641CAC42F0D348E000240FE0F7
:1013100008EBC4006A46D0E900B1584601F0ABFFC3
:1013200082466A4651463046336898475744641CA3
:10133000AC42EDD333E000BF00240FE008EBC40063
:101340006A46D0E900B15846FFF700FC82466A467B
:1013500051463046336898475744641CAC42EDD33D
:101360001DE014E000240CE058F82400694601F068
:101370009CFF82466A465146304633689847574438
:10138000641CAC42F0D3284604B0BDE8F09F40F2A4
:101390006B72AFF2D861AFF2A46005F0E7F900BF5D
:1013A0003846F1E742463946304633689847384672
:1013B000EAE72DE9F04780460D461646002798F8E3
:1013C00009000E2873D2DFE800F01138075F500CD7
:1013D0004408600D090E701000BF00BFA800BDE8F2
:1013E000F08700BF00BFE800F9E700BFB146002466
:1013F00020E0000061637475616C5F6C656E6774FA
:10140000685F73697A65203D3D206C656E6774681E
:101410005F73697A655F6D696E202B203100000073
:10142000F9EEAA288C78000859F82400FFF7B9F8DB
:101430000744641CAC42F7D341E0B146002405E008
:1014400059F8240001F0F6FE0744641CAC42F7D3BF
:1014500035E0B146002405E059F82400FFF78BF889
:101460000744641CAC42F7D329E0B146002408E0ED
:1014700009EBC400D0E90021104601F0E4FE074466
:10148000641CAC42F4D31AE000BFB146002408E06B
:1014900009EBC400D0E900211046FFF79CF807448F
:1014A000641CAC42F4D30AE001E0284697E740F21E
:1014B0000572AFF2F871AFF2C47005F057F900BFD2
:1014C00038468CE72DE9F04F85B004460F4692462A
:1014D0001D46DAF800801FB9002005B0BDE8F08F86
:1014E000207F00F0010000282FD069466068FFF7D8
:1014F0006EFB0646424639462046FFF75AFF8146B4
:101500009DF8000040F002008DF800000DEB060190
:101510004846FFF7C9FA06446A46314628462B6812
:1015200098472B46424639462046FFF79CFE8346A5
:10153000CB4500D106E040F28972AFF68001FBA0F6
:1015400005F014F906EB0900C7E74FF00009607ACF
:10155000FFF73DFC8346002607E02A464146204629
:1015600000F0C7F88144D844761CBE42F5D3484603
:10157000B3E770B504460D46164629462046FFF7E8
:10158000FBF808B1002070BD32462946204600F025
:10159000B0F8F8E72DE9F04104460E4615461F461F
:1015A000607A102802D0607A0E2808D1296811B11B
:1015B000A069884202D10020BDE8F08102E00EB9A6
:1015C0000020F9E73A462946204600F092F8F3E772
:1015D0002DE9F04104460E4615461F466068B042AC
:1015E00002D00020BDE8F081607A102802D0607A35
:1015F0000E2807D1296811B1A069884201D10020C5
:10160000F0E700BF3A462946204600F072F8E9E7C5
:101610002DE9F04705468846002728680068C84934
:10162000884200D106E04FF4F662AFF67011C5486B
:1016300005F09CF8002648E02868C06906EB4601E2
:1016400001EBC60100EB8104206900EB050AE068AC
:1016500000EB0509207A30B942465146204600F099
:1016600048F8074430E0207A012802D0207A032885
:101670000CD1207F00F0040040B143465246204682
:10168000D9F80010FFF7A4FF07441DE0207A0128D5
:1016900008D1434652462046D9F80010FFF77AFF9A
:1016A000074411E0207A032806D1424651462046DD
:1016B000FFF75FFF074407E0434652462046D9F84C
:1016C0000010FFF7FFFE0744761C28688069B042CF
:1016D000B2D8002607E0A96801EB06104146FFF7E3
:1016E000A7FD0744761C6868B042F4D83846BDE8C8
:1016F000F0872DE9F047CCB080460E46154647A945
:10170000D8F80400FFF763FA044698F80900112896
:1017100074D2DFE800F01A095F4C3A742A604D7504
:1017200061768A199ABAD6009DF81C018DF81C01C1
:1017300047AA1119306801F093FD044447AA2146D5
:1017400028462B6898470EE100BF9DF81C018DF8D4
:101750001C0147AA11193068FFF7D1F9044447AAC0
:10176000214628462B689847FDE09DF81C018DF81E
:101770001C0147AA11193068FFF796F9044447AADB
:10178000214628462B689847EDE09DF81C018DF80E
:101790001C0147A80219D6E90091484601F06BFDEB
:1017A000044447AA214628462B689847DBE000BF3F
:1017B0009DF81C018DF81C0147A80219D6E900917B
:1017C0004846FFF7C3F9044447AA214628462B6838
:1017D0009847C8E000BF00BF9DF81C0140F005001D
:1017E0008DF81C0147AA1119306801F053FD04441B
:1017F00047AA214628462B689847B4E0ABE000BFD3
:1018000000BF9DF81C0140F001008DF81C0147A8A5
:101810000219D6E90091484601F040FD044447AA68
:10182000214628462B6898479DE09DF81C018DF8BD
:101830001C0147AA1119306801F037FD044447AA7A
:10184000214628462B6898478DE037681FB13846F7
:1018500004F0CCFF00E0002081469DF81C0140F020
:1018600002008DF81C0147A801194846FFF71CF932
:10187000044447AA214628462B6898473A464946D9
:1018800028462B6898474C446DE0B146D9F8007063
:101890009DF81C0140F002008DF81C0147A80119B9
:1018A0003846FFF701F9044447AA214628462B6829
:1018B0009847D9F80420394628462B6898473C4475
:1018C00051E0D6F8009018221F4901A805F034F81D
:1018D00007A804909DF81C0140F002008DF81C013F
:1018E000B9F1000F01D1002704E001A94846FFF734
:1018F0008FFE074647A801193846FFF7D5F804447C
:1019000047AA214628462B689847049A3946284614
:101910002B6898473C4400BF0598D0B10698A8B101
:10192000049906984268904713E00000746D702097
:101930003D3D207061796C6F61645F6C656E000085
:10194000F9EEAA288C780008B0700008049804F01A
:10195000D2FE00BF07E040F26C62AFF6A041AFF6E6
:101960006C4004F003FF00BF20464CB0BDE8F08798
:10197000F0B50646144616B94FF0FF30F0BD002210
:10198000354622E002EB550351F83300A04201DD59
:101990009D1A19E0581C01EBC000406801EBC30719
:1019A0007F68C01B51F833703844A04204DC581CD7
:1019B00057193D1A024607E051F83300201A01EB8F
:1019C000C3077F683844D9E700BF012DDAD8B5B125
:1019D00001EBC2004368501C01EBC0004068C71A0D
:1019E00051F83200A04209DC51F832003844A042DC
:1019F00004DD51F83200201A1844BFE700BF4FF051
:101A0000FF30BBE7F0B5064615461F46052E01D947
:101A1000052000E0304684460878C0F3C303042460
:101A2000087800F0F80008B90020F0BD087800F050
:101A300007003870087800F0800010B92B60012092
:101A4000F3E7012211E0885C00F0800030B1885C8F
:101A500000F07F00A0400343E41D05E0885CA04047
:101A600003432B60501CE0E7521C6245EBD300207F
:101A7000DBE710B50246002005E011F8014B04F049
:101A8000800303B9401C131EA2F10102F5D110BD61
:101A90002DE9F74F86B081460E463068C5690024AF
:101AA00045E104EB440000EBC40005EB8000007A44
:101AB00002287AD104EB440000EBC40005EB80005F
:101AC000C06800EB090704EB440000EBC40005EB21
:101AD0008000006900EB090A04EB440000EBC4003D
:101AE00005EB8000C06800EB060804EB440000EB47
:101AF000C40005EB80000069304405903868002878
:101B000051D0D8F80000002842D004EB440101EB8A
:101B1000C40105EB8101487AFFF759F9834638681B
:101B2000D8F80020104400FB0BF1089801F034FBBA
:101B30000490049818B9002009B0BDE8F08F386807
:101B400000FB0BF2DAF80010049804F06EFED8F8EF
:101B5000003003FB0BF2059B1968D7F800C0049B0B
:101B60000CFB0B3004F061FE05980168089801F049
:101B70001BFBDAF80010089801F016FBDDE9040100
:101B800008603868D8F800100844C8F8000006E07B
:101B90003868C8F80000DAF80010059801600020E5
:101BA0003860CAF80000C0E0FFE704EB440000EB37
:101BB000C40005EB8000007A012808D004EB440043
:101BC00000EBC40005EB8000007A0328EBD104EBA6
:101BD000440000EBC40005EB8000C06800EB090B7B
:101BE00004EB440000EBC40005EB8000C068304407
:101BF00005900020049004EB440000EBC40005EBCA
:101C00008000007F00F00400D0B105980068B0B9F2
:101C1000DBF800203368D3E90901FFF7A9FE029041
:101C20000298002801DA002086E73068C16902982E
:101C300000EB400202EBC00001EB800706E075E01C
:101C400004EB440000EBC40005EB8007386900EBAF
:101C50000908386900EB060AB8690390787A0E28FB
:101C60002FD00F2819D0102839D1D8F800000290B1
:101C7000DAF800000190029870B1019850B1089A0A
:101C8000DDE90110FFF704FF08B9002054E7002048
:101C9000049001E0012004902CE0D8F80410DAF858
:101CA0000420039851B110B143688B4206D01AB199
:101CB00020B14368934201D1012300E00023049343
:101CC00018E0D8F80020DAF800100398824203D018
:101CD000814201D1012300E0002304930AE0DBF8F4
:101CE000000020B10598006808B9012000E000203C
:101CF000049000BF00BF0498B0B1787AFFF767F88E
:101D0000029041465046029A04F08FFD40460299E7
:101D100004F044FEF86830B1DBF80010059801606B
:101D20000020CBF8000000BF00BF00BF641C30687B
:101D30008069A0423FF6B5AE0120FDE62DE9F041F5
:101D400006460C4617461D46112E31D2DFE806F036
:101D5000212209242515230A26160B172D2031329E
:101D6000330000BF00BF04F0030010B10020BDE845
:101D7000F081A00828600120F9E700BF00BF04F04F
:101D8000070008B10020F2E7E00828600120EEE734
:101D900000BF00BF00BF00BF00BF00BF39462046E4
:101DA000FFF767FE28600120E1E72C600120DEE7F5
:101DB00000BF00BF00BF0020D9E702460B7803F048
:101DC0007F00012A17D94B7803F07F0340EAC31044
:101DD000022A10D98B7803F07F0340EA8330032A6C
:101DE00009D9CB7803F07F0340EA4350042A02D993
:101DF0000B7940EA037070472DE9F05F81460C468D
:101E0000B9F1050F06D221464846FFF7D6FF00215B
:101E1000BDE8F09F207800F07F02607800F07F003E
:101E2000C117C90141EA50614FEAC01C104640EA9F
:101E30000C0041EAE272A17801F07F03D91789030F
:101E400041EA934140EA83301143E27802F07F0394
:101E5000DA17520542EAD32240EA435541EA020624
:101E60004FF01C0A04270EE0E05D00F07F084FEA07
:101E7000E87B52464046594604F064FC05430E4355
:101E80000AF1070A7F1C4F45EED328463146BFE7CB
:101E900002460B46002106E0585C00F07F0008B1C6
:101EA00001207047491C9142F6D30020F9E72DE943
:101EB000F047064688460EB9BDE8F08735683068B9
:101EC0000068F849884200D105E040F6FF42F64933
:101ED000F64804F04BFCB8F1000F01D1DFF8D083D5
:101EE000002030600024FAE004EB440101EBC4015F
:101EF000E86900EB8100007F00F0040098B104EB7A
:101F0000440101EBC401E86900EB8100406804EB87
:101F1000440202EBC402E96901EB8201C96871580D
:101F2000884200D0DAE004EB440101EBC401E86927
:101F300000EB8100007A02285FD104EB440101EB41
:101F4000C401E86900EB8100C06856F8009004EB1A
:101F5000440101EBC401E86900EB810000693758D6
:101F6000002F49D004EB440101EBC401E86900EB08
:101F70008100407A0E280CD14FF0000A06E057F895
:101F80002A10404601F010F90AF1010ACA45F6D3B9
:101F90002EE004EB440101EBC401E86900EB810091
:101FA000407A0F280DD14FF0000A07E007EBCA0076
:101FB0004168404601F0F8F80AF1010ACA45F5D334
:101FC00016E004EB440101EBC401E86900EB810079
:101FD000407A10280CD14FF0000A06E057F82A008A
:101FE0004146FFF764FF0AF1010ACA45F6D300BF74
:101FF0003946404601F0D8F86FE004EB440101EBAC
:10200000C401E86900EB8100407A0E2818D104EB86
:10201000440101EBC401E86900EB81000069375815
:102020006FB104EB440101EBC401E86900EB8100EE
:102030008069B84203D03946404601F0B5F84CE01B
:1020400004EB440101EBC401E86900EB8100407A34
:102050000F281FD104EB440101EBC401E86900EB38
:10206000810000693044476804EB440101EBC4017E
:10207000E86900EB8100D0F8189057B1B9F1000F72
:1020800003D0D9F80400B84203D03946404601F0E5
:102090008BF822E004EB440101EBC401E86900EB9A
:1020A0008100407A102818D104EB440101EBC401EF
:1020B000E86900EB8100006937586FB104EB440117
:1020C00001EBC401E86900EB81008069B84203D0EC
:1020D00041463846FFF7EBFE00BF00BF641CA8690D
:1020E000A0423FF601AF002407E0B06800EB041007
:1020F000C168404601F058F8641C7068A042F4D8EA
:10210000B06818B14046B16801F04EF8314640461B
:1021100001F04AF800BFCFE62DE9F05F05460E4614
:1021200017469846D5F80890D9F80C00C41999F8C4
:102130000900FEF74CFE8246D6F800B020680AFB84
:1021400000B100234246284600F0F8FC10B90020F8
:10215000BDE8F09F2068401C20600120F8E702469F
:102160000B460A2A00D90A22002105E0585C00F03B
:10217000800000B902E0491C9142F7D300BF9142B0
:1021800001D100207047481CFCE72DE9F74F84B0CF
:102190000546A86803900398C168069801EB000AF9
:1021A0000399487AFEF713FE029005980168DAF861
:1021B0000020029800FB021869792869471869799C
:1021C000E868441A00260398407A0E2872D2DFE8A5
:1021D00000F016320791720E4F08920F0910AD15DC
:1021E00000BF00BF6979E868401A8608BFE000BFF9
:1021F00000BF6979E868401AC608B8E000BF17E078
:1022000039462046FFF7ABFF8346BBF1000F03D1F1
:10221000002007B0BDE8F08F3946584601F07CF841
:102220003146761C48F821005F44A4EB0B0400BF44
:10223000002CE5D193E018E039462046FFF78FFFE8
:102240008346BBF1000F01D10020E2E73946584632
:10225000FFF7B3FD019001F067F83146761C48F8AE
:1022600021005F44A4EB0B0400BF002CE4D176E016
:1022700015E039462046FFF772FF8346BBF1000F99
:1022800001D10020C5E739465846FFF796FD314693
:10229000761C48F821005F44A4EB0B0400BF002C1F
:1022A000E7D15CE0F9EEAA28BC0C00088C780008A5
:1022B000140000204DE01AE039462046FFF74FFF9A
:1022C0008346BBF1000F01D10020A2E739465846F2
:1022D000FFF792FDCDE9000101F02EF83246761CA1
:1022E00008EBC20203C25F44A4EB0B0400BF002C46
:1022F000E2D134E000BF16E039462046FFF72FFF59
:102300008346BBF1000F01D1002082E739465846D1
:10231000FFF772FD3246761C08EBC20203C25F442F
:10232000A4EB0B0400BF002CE6D118E026464FF0CA
:1023300000090BE017F80900012801DD002068E71B
:1023400017F8090048F8290009F10109B145F1D34E
:1023500005E040F62932FA49FAA004F007FA00BF76
:10236000DAF800003044CAF80000012051E7029872
:1023700006FB00F23946404604F057FADAF800004E
:102380003044CAF80000012043E701460E2905D079
:102390000F2903D0102901D0012070470020FCE74D
:1023A0002DE9F04104460F4615461E4601233246EC
:1023B0003946204600F0C2FB10B90020BDE8F0818C
:1023C000A068C06818B10120A168C96868500120E0
:1023D000F4E72DE9FC5F80460C4616461F46D8F808
:1023E0000800C06800EB0609D9F8000000285ED09C
:1023F000D9F800203368D3E90901FFF7B9FA009052
:102400000098002802DA0020BDE8FC9F3068C1690E
:10241000009800EB400202EBC00001EB8005687AF7
:10242000FEF7D5FC0190687A0E2804D00F2812D050
:10243000102835D124E0A246D5F818B0DAF800000B
:1024400040B1DAF80000584504D03846DAF80010F8
:1024500000F0AAFE25E0A246D5F818B0DAF804008C
:1024600068B1BBF1000F05D0DAF80400DBF8041006
:10247000884204D03846DAF8041000F095FE10E0E7
:10248000A246D5F818B0DAF8000040B1DAF800003A
:10249000584504D03946DAF80000FFF708FD00E09F
:1024A00000BF00BF2046019904F078FA00BF012365
:1024B0003A462146404600F041FB08B90020A3E718
:1024C000D8F80000C9F8000001209DE72DE9F04789
:1024D00004460D469046A768E7B96968481C6860DD
:1024E000A86800EB01162068306020793071E06840
:1024F000B0604046E16800F04FFEF060F06810B94F
:102500000020BDE8F087B2682169F06804F08DF919
:102510000120F6E7386900EB0509387A30B1012867
:102520000BD002281CD0032832D107E001234246F9
:102530004946204600F002FBE3E700BF387F00F089
:10254000040030B143462A4649462046FFF741FF82
:10255000D7E743462A4649462046FFF721FFD0E702
:10256000207902280DD1387F00F0010018B9787A5F
:10257000FFF70BFF28B12A4649462046FFF705FE24
:10258000BFE743462A4649462046FFF7C5FDB8E760
:102590004FF437626A496BA004F0E8F870B504465E
:1025A0000E463046616904F01BFA346000255AE09B
:1025B00005EB450101EBC501E06900EB8100806995
:1025C00000284FD005EB450101EBC501E06900EBA8
:1025D0008100007A022845D005EB450303EBC503D3
:1025E000E26902EB83021269901905EB450303EBE4
:1025F000C503E26902EB8302916905EB450303EB36
:10260000C503E26902EB8302527A112A28D2DFE87D
:1026100002F0090A0B1213140C0D15160E171C0FDD
:10262000241F250000BF00BF00BF00BF00BF00BFC8
:102630000A68026014E000BF00BF00BF00BF00BF17
:102640000A6802604A6842600AE00A68026007E0BD
:102650000A6802604A68426002E000BF016000BF91
:1026600000BF00BF6D1CA069A842A1D870BD70B5A5
:1026700004460D462846E16A884770BD2DE9FF4FA4
:10268000FDB00446DDF8FCA180987C90E0697B9069
:102690004FF0000900201390129010900DF12C0BB8
:1026A0000A9029492068884200D105E040F6ED32C1
:1026B000234926A004F05AF87E9808B931487E9044
:1026C00061697E9800F068FD8046B8F1000F04D182
:1026D00000200DF5017DBDE8F08F2BA81490A069B6
:1026E000C01DC0080F900F9810280FD90F997E9821
:1026F00000F052FD8346BBF1000F05D141467E98A4
:1027000000F052FD0020E4E701200A9058460F999E
:1027100004F044F9E06A20B141462046FFF7A7FFE4
:1027200003E041462046FFF739FF1BE108AB09AA49
:1027300050467C99FFF766F90790079820BBE6E1C1
:10274000BC0C000830000000F9EEAA28286465736C
:1027500063292D3E6D61676963203D3D2050524FD6
:10276000544F4255465F435F5F4D45535341474584
:102770005F44455343524950544F525F4D4147497E
:1027800043000000140000207B9820B17B98406833
:102790000999884219D0D4E90901099AFFF7E8F8A4
:1027A00001900198002804DA00271298401C12902A
:1027B0000AE0E169019800EB400202EBC00001EB86
:1027C00080077B970198109000E07B9F87B1387A53
:1027D00070B910980BEBD0000078109901F0070247
:1027E000012191400843C1B210980BEBD000017059
:1027F00007997C9808447C900798AAEB000A0998EE
:1028000002909DF820008DF80C0004977C980690AB
:1028100000208DF80D009DF8200030B101281DD05A
:10282000022822D0052835D12DE0BAF10A0F01D2B5
:10283000524600E00A221146002006E07C9A125C13
:1028400002F0800202B902E0401C8842F6D300BFC9
:10285000884200D15BE1421C05921CE0BAF1080FEE
:1028600000D254E10820059015E001AA50467C9959
:1028700000F023FD0590059800B948E10198C0B229
:102880008DF80D0007E0BAF1040F00D23FE10420FB
:10289000059000E03BE100BF09F104000121814007
:1028A000139881421AD100201390B9F1160F00D16C
:1028B0002DE109F1010909F10400142101FA00F0E8
:1028C000019001997E9800F067FC14A941F8290055
:1028D00014A850F8290000B919E100BF14A951F853
:1028E000293013994A1C01EB810103EB81001392FB
:1028F000142202A904F020F867B3387A022829D1FB
:10290000F868404401909DF8200002281CD1387FCF
:1029100000F0010018B9787AFFF737FDA0B19DF8F3
:102920000DC0069B03EB0C02059BA3EB0C01787A10
:102930006B46FFF703FA00B9E9E0019800680099D7
:1029400001440198016004E001980068401C01996D
:10295000086000BF05997C9808447C900598AAEB14
:10296000000A00BFBAF1000F7FF4E0AE00256CE072
:1029700005EB450101EBC501E06900EB8107387A01
:1029800002283FD1787AFEF722FA0990F86840448D
:1029900008900898006870B30898006807900021B4
:1029A00008980160D8F8000000B105E040F6A742A1
:1029B000FB49FCA003F0DAFE079A099800FB02F13C
:1029C0007E9800F0E9FB06900698A8B96D1C0EE011
:1029D00005EB450101EBC501E06900EB8107387AA1
:1029E000022803D10020F96848F801006D1CA06995
:1029F000A842EDD874E004E00698396948F801006F
:102A000000BF21E0387AF8B9B869E8B90BEBD50016
:102A1000007805F00702012191400840A0B96D1C23
:102A20000EE005EB450101EBC501E06900EB810714
:102A3000387A022803D10020F96848F801006D1C9B
:102A4000A069A842EDD84BE06D1CA069A8428FD8C0
:102A5000129850B1129801017E9800F09DFBC8F8C1
:102A60000800D8F8080000B93AE00020119021E0F1
:102A70001198484501D1139804E01198001D0121D7
:102A800001FA00F0099014A9119851F8207000265D
:102A90000AE006EB860107EB810041467E9AFFF7CC
:102AA00015FD00B91CE0761C09988642F1D31198F7
:102AB000401C119011984845DAD9012606E014A867
:102AC00050F826107E9800F06FFB761C4E45F6D924
:102AD0000A9818B159467E9800F066FB4046F8E522
:102AE00040467E99FFF7E3F9012606E014A850F866
:102AF00026107E9800F058FB761C4E45F6D90A98B1
:102B000018B159467E9800F04FFB0020E1E54146A0
:102B10007E9800F049FB012606E014A850F8261024
:102B20007E9800F041FB761C4E45F6D90A9818B104
:102B300059467E9800F038FB0020CAE52DE9FF4F8A
:102B400083B004460D469A46E768D4F8109026797B
:102B5000A068407A112870D2DFE800F00A202D3AF0
:102B60004655162E3B562F57680970ABE90000BF3B
:102B70001EB1002007B0BDE8F08F4946384600F08E
:102B8000CBFB28600120F5E70EB10020F2E74946B3
:102B90003846FFF712F928600120EBE70EB100205C
:102BA000E8E749463846FFF708F9804600F0BCFBE5
:102BB00028600120DEE700BF00BF052E01D0002005
:102BC000D8E700BFD9F8000000BF28600120D1E796
:102BD00000BF0EB10020CDE749463846FFF70CF99B
:102BE000C5E900010120C5E70EB10020C2E7494652
:102BF0003846FFF701F9CDE9000100F09DFBC5E97A
:102C000000010120B6E700BF00BF012E01D0002067
:102C1000B0E700BFD9F800000090D9F80400019097
:102C2000DDE90010C5E900100120A3E74946384658
:102C3000FFF72EF9286001209CE7C1E0A84694F830
:102C400005B0022E01D0002094E7BAF1000F13D096
:102C5000D8F8000080B1A06880690290D8F8000020
:102C600048B1D8F800100298814204D0D8F800107A
:102C7000059800F099FA00BFA7EB0B00411C0598DE
:102C800000F08AFAC8F80000D8F8000008B900205F
:102C900070E7A7EB0B0209EB0B01D8F8000003F07B
:102CA000C4FD0020A7EB0B02D8F8001088540120C7
:102CB00060E7A84694F805B0022E01D0002059E73D
:102CC000A06880690290BAF1000F0FD0D8F8040014
:102CD00060B1029828B1D8F8041002984068814287
:102CE00004D0D8F80410059800F05EFAB7EB0B009A
:102CF00014D0A7EB0B01059800F04EFAC8F80400B9
:102D0000D8F8040008B9002034E7A7EB0B0209EB60
:102D10000B01D8F8040003F088FD02E00020C8F899
:102D20000400A7EB0B00C8F80000012022E7AB4627
:102D30000120019060790090022E01D0002019E757
:102D4000A06880690290009909EB01037A1AA168D2
:102D500048690599FFF792FC8046BAF1000F16D03A
:102D6000DBF8000098B1DBF80010029881420ED029
:102D7000B8F1000F06D0DBF800004146059AFEF7D7
:102D800087FE0190DBF800000599FFF790F8CBF87B
:102D90000080B8F1000F01D0019878B90020E9E671
:102DA000BC0C000872762D3E6465736372697074A2
:102DB0006F7220213D204E554C4C00000120D9E679
:102DC0000020D7E62DE9F84F044634B1206820B141
:102DD00020680068F949884202D00020BDE8F88FD9
:102DE0004FF0000890E02068C06908EB480101EB53
:102DF000C80100EB81056F7A95F8089028690619DB
:102E0000287F00F0040038B1E96808196968026891
:102E1000914200D076E000BFB9F1020F44D1E868DA
:102E200000EB040ADAF8000018B1306808B9002095
:102E3000D4E7102F13D1306800904FF0000B09E059
:102E4000009951F82B00FFF7BDFF08B90020C5E736
:102E50000BF1010BDAF800005845F1D823E00E2FF2
:102E60000DD13268002105E052F8210008B9002098
:102E7000B4E7491CDAF800008842F5D813E00F2FB8
:102E800011D13268002109E052F8310028B102EB7B
:102E9000C100406808B90020A0E7491CDAF800002A
:102EA0008842F1D800BF2CE0102F0ED1D6F800A038
:102EB000B9F1000F02D0BAF1000F05D05046FFF76C
:102EC00081FF08B9002089E71BE00E2F07D1316888
:102ED000B9F1000F02D109B900207FE711E00F2FEF
:102EE0000FD1E86802193146B9F1000F02D010681D
:102EF000012805D1086818B1486808B900206DE7B5
:102F000000BF00BF08F101082068806940453FF616
:102F10006AAF012062E72DE9F04704460D461646E8
:102F20001F46DDF820A020684069A84200D905E0CE
:102F300040F6B952A249A3A003F018FC04F10C0812
:102F400058F8259053463A4631462046C847BDE8D2
:102F5000F08770B504460D461646A6492868884293
:102F600000D105E040F6CE529549A3A003F0FEFB48
:102F70002560A660AFF2610060606869810004F1BD
:102F80000C0003F02DFD70BD10B504462046A1686D
:102F9000884710BD2DE9F0470446894600250CB14D
:102FA000206A10B90020BDE8F087E6691FE005EB54
:102FB0005607216A51F83700494603F039FD80462B
:102FC000B8F1000F09D1206A00EBC700406800EBA0
:102FD0004000A16901EB8000E5E7B8F1000F04DAD9
:102FE000A919781C0E1A7D1C00E07E1B00BF012E63
:102FF000DDD80EB90020D6E7216A51F835004946E0
:1030000003F016FD48B9206A00EBC500406800EBEC
:103010004000A16901EB8000C5E70020C3E770B55F
:1030200004460D462A46D4E90901FEF7A1FC0646EE
:10303000002E01DA002070BD06EB4601A06900EB0E
:103040008100F8E72DE9F04704468A4600270CB1D5
:10305000206A10B90020BDE8F087A56921E007EBE0
:103060005508206A50F8280000EB400101EBC00031
:10307000E16901EB80065146306803F0D9FC8146D6
:10308000B9F1000F01D13046E5E7B9F1000F05DADB
:10309000791908F101000D1A074601E0A8EB0705B0
:1030A00000BF012DDBD80DB90020D4E7206A50F80D
:1030B000270000EB400101EBC000E16901EB800655
:1030C0005146306803F0B4FC08B93046C3E700202D
:1030D000C1E770B504460D462A46D4E90901FEF75A
:1030E00047FC0646002E01DA002070BD06EB4601C3
:1030F00001EBC601E06900EB8100F6E72DE9F05F26
:103100000446894600250CB1E06910B90020BDE8ED
:10311000F09F666924E005EB5607E06950F827A0A8
:103120000AEB4A01A06950F821B04946584603F01D
:103130007FFC8046B8F1000F08D1E06950F8270005
:1031400000EB4000A16901EB8000E0E7B8F1000F5F
:1031500004DAA919781C0E1A7D1C00E07E1B00BF42
:10316000012ED8D80EB90020D1E7E16951F8251019
:1031700001EB4101A26952F82100494603F058FCD5
:1031800040B9E06950F8250000EB4000A16901EB6F
:103190008000BCE70020BAE770B504460D4629461A
:1031A0002268A068904770BD70B504460D461DB1F9
:1031B0002946D4E90120904770BD0000F9EEAA2805
:1031C000BC0C00086D6574686F645F696E64657837
:1031D000203C20736572766963652D3E6465736378
:1031E000726970746F722D3E6E5F6D6574686F6486
:1031F00073000000C39B15142864657363726970C3
:10320000746F72292D3E6D61676963203D3D2050CA
:10321000524F544F4255465F435F5F5345525649A4
:1032200043455F44455343524950544F525F4D41CB
:103230004749430070B50446204600F098F805461B
:10324000FDF799F970BD2DE9F04104460D46204681
:10325000294600F091F80646FDF7BDF9BDE8F0817A
:1032600070B504460D46204600F081F80646294612
:10327000FDF71AFC70BD2DE9F04104460D4690465D
:103280002046294600F078F806464246FDF75EFCE7
:10329000BDE8F08102460A600420704707B5009837
:1032A00010600198506008200EBD02460AB101204E
:1032B00000E00020087001207047F0B504460D467C
:1032C0001746052C01D2204600E005208446002246
:1032D000002600210BE0685C00F07F00B040024354
:1032E000F61D685C00F0800000B902E0491C6145F1
:1032F000F1D300BF614501D10020F0BD4B1C3B6004
:10330000B2F1004F01D30020F7E79818A04201D98D
:103310000020F2E79818F0E770B504460D462946FC
:103320002046FEF74AFD70BD014601F00100C04392
:10333000401C80EA51007047F0B502460B465D081C
:103340004FEA32064FF0010102EA01004FF000049B
:103350006FEA00016FEA04044F1C44F100042846A0
:10336000254686EA070480EA05012046F0BD0146AD
:10337000480080EAE170704730B502460B4691186C
:1033800043EB030081EAE37480EAE371204630BD39
:1033900010B5044644222C49204603F0CDFA10BD56
:1033A00010B5044629492068884200D104E0132260
:1033B00027A134A003F0DAF92046FDF79CFA10BDEE
:1033C00070B504460D4621492068884200D104E0CA
:1033D0001A221FA12BA003F0C9F929462046FDF7A8
:1033E00092FE70BD70B504460D46184920688842AB
:1033F00000D104E0212216A122A003F0B7F929464A
:103400002046FEF705F970BD70B504460D46164618
:1034100033462A4621460D48FFF730F970BD70B596
:1034200004460D4604B970BD08492068884200D1A1
:1034300004E0342206A113A003F098F9294620469F
:10344000FEF735FD00BFEEE7B4730008787300089F
:103450002E2E5C454D4245444445445C73656E697F
:103460006F725C4175746F5F53686F6F745C7072DC
:103470006F746F5C526563696576652E70622D634B
:103480002E6300006D6573736167652D3E62617325
:10349000652E64657363726970746F72203D3D20A0
:1034A000266465766963655F746F5F686F73745FC8
:1034B0005F6672616D655F5F646573637269707486
:1034C0006F72000010B5044624222C49204603F0F8
:1034D00033FA10BD10B5044629492068884200D14E
:1034E00004E0132227A133A003F040F92046FDF7A2
:1034F00002FA10BD70B504460D4621492068884285
:1035000000D104E01A221FA12AA003F02FF92946B6
:103510002046FDF7F8FD70BD70B504460D4618490C
:103520002068884200D104E0212216A121A003F0E6
:103530001DF929462046FEF76BF870BD70B50446AC
:103540000D46164633462A4621460D48FFF796F8A3
:1035500070BD70B504460D4604B970BD08492068B9
:10356000884200D104E0342206A112A003F0FEF844
:1035700029462046FEF79BFC00BFEEE76475000875
:10358000287500082E2E5C454D4245444445445C58
:1035900073656E696F725C4175746F5F53686F6FAE
:1035A000745C70726F746F5C53656E642E70622D04
:1035B000632E63006D6573736167652D3E62617391
:1035C000652E64657363726970746F72203D3D206F
:1035D00026686F73745F746F5F6465766963655F97
:1035E0005F6672616D655F5F646573637269707455
:1035F0006F72000070B505460C464C22A91D384874
:1036000003F013F9364890ED0C0AB1EE400A84ED50
:10361000000A344890ED000A334880ED000A304833
:1036200090ED0E0A2F4880ED000A90ED000A2E481A
:10363000D0ED000A30EE600ADFED2C0AB4EEE00AAD
:10364000F1EE10FA05DB2A480068401E28490860A0
:1036500013E0244890ED000A2348D0ED000A30EE34
:10366000600ADFED240AB4EEE00AF1EE10FA04D8A5
:103670001F480068401C1E4908601D4800684FF440
:10368000B471484300EE100AB8EEC00A1548D0EDF8
:10369000000A30EE200AB1EE400A84ED010A10481B
:1036A00090ED0D0A84ED020A90ED070A84ED030AFD
:1036B00090ED080AB1EE400A84ED040A90ED060A86
:1036C00084ED050A90ED030A84ED060A90ED050AE3
:1036D00084ED070A90ED040A84ED080A70BD00002D
:1036E000A408002024000020200000200000A243A5
:1036F000280000200000A2C330B5034605E013F8FF
:10370000010B80EA0204B048025D081EA1F101012C
:10371000F5D1104630BD70B505460C4600260DB1FA
:10372000022C01D8002070BD611EFF222846FFF741
:10373000E3FF0646601E285CB04201D10120F2E79B
:103740000020F0E770B505460C4600260DB1022CAE
:1037500000D870BD611EFF222846FFF7CDFF064648
:10376000601E2E5400BFF4E730B5034613B94FF680
:10377000FF7030BD09E013F8014B82EA0400C0B2CB
:10378000924D35F8100080EA2222081EA1F10101B5
:10379000F1D11046EDE770B505460C4600260DB197
:1037A000022C01D8002070BDA11E8948028828463D
:1037B000FFF7DAFF0646F1B2A01E285C814206D16F
:1037C000601E285CB0EB162F01D10120EBE7002032
:1037D000E9E770B505460C4600260DB1022C00D86D
:1037E00070BDA11E7A4802882846FFF7BDFF064635
:1037F000A01E2E54310A601E295400BFF0E770B598
:1038000004460D4600260CB1022D01D8FF2070BDE4
:10381000FF2229462046FFF76FFFF8E72DE9FC5FFE
:10382000054688460024A346C8E015F80490601CAD
:10383000295CA01C285C41EA0026601D295CA01DB3
:10384000285C41EA002A2819C71D2819016800913F
:1038500000798DF8040006F109001FFA80FBB9F128
:10386000A50F6ED105216846FFF755FF002868D0E7
:1038700028195946FFF78FFF0028F8D0BAF5017FC5
:1038800069D012DC40F20311AAEB01008A452BD06B
:1038900006DCBAF1010F1AD0BAF1030F72D11CE0A5
:1038A000FE2828D0FF28F9D14CE0BAF5027F6BD072
:1038B00006DCAAF20620002854D0012879D158E06D
:1038C000AAF20130002866D0022872D16AE032469E
:1038D0003946404802F0A9FF6CE0324639463D487F
:1038E0000C3002F0A2FF65E03246394639483630E6
:1038F00002F09BFF5EE01B2E22D13246394635484E
:10390000393002F092FF334890F83900012809DB82
:10391000304890F83900072804DC02202D4981F84E
:10392000C5000DE02B4890F839000B2808DB29482A
:1039300090F83900112803DC0120264981F8C500E0
:1039400038E038E0102E05D132463946214854304F
:1039500002F06BFF2EE0012E03D138781D4981F86B
:10396000740027E0324639461A48763002F05DFF8F
:1039700020E0072E05D1324639461648773002F04E
:1039800054FF17E015E0FFE73246394611487E3014
:1039900002F04BFF0EE0324639460E48843002F00A
:1039A00044FF07E0324639460A48AC3002F03DFF9A
:1039B00000E000BF00BF04EB0B0084B2A0453FF75E
:1039C00034AFBDE8FC9F0000897500088A760008C6
:1039D0002C000020A00700202DE9F0412DED088BE0
:1039E00004460E4600272078BE2803D0BDEC088B85
:1039F000BDE8F081002007E0215CED2902D1AA4951
:103A0000C8557F1C411CC8B2B042F5D3A648007807
:103A1000C01EA6490880002004E0811C615CA44A05
:103A20001154401CA14909888842F6DB9F48008850
:103A3000C01C205CED2800D0D8E79D4D9B48008835
:103A4000801C14F80080994801882846FFF7D7FEAB
:103A5000404500D0CAE72A46944801880020FFF775
:103A60006DFD944908600846006890ED048A084698
:103A70000068D0ED038A0846006890ED030AB4EEB2
:103A8000680AF1EE10FA78D10846006890ED040A51
:103A9000B4EE480AF1EE10FA7CD1B5EEC08AF1EE30
:103AA00010FA6BD0F5EEC08AF1EE10FA66D0084637
:103AB000006890ED040A804880ED000A084600681E
:103AC00090ED030A7C4880ED010A0846006890EDFD
:103AD000080A794880ED070A0846006890ED070A51
:103AE000754880ED060A012073498873084690EDF9
:103AF000000A7248D0ED010A30EE600A10EE101A8A
:103B0000084603F05DFA41EC1B0BB0EE4B0AF0EEF9
:103B10006B0A03F03CF9B0EE40AAF0EE60AA9FED0C
:103B2000680B53EC102B51EC1A0B03F013FA21D352
:103B3000614890ED010A6148D0ED000A30EE600A5C
:103B400010EE101A084603F03BFA41EC1B0BB0EEE6
:103B50004B0AF0EE6B0A03F01AF9B0EE40AAF0EE51
:103B600060AA9FED590B53EC102B51EC1A0B03F08C
:103B7000F1F90FD20020504988730BE000204E4924
:103B800088739FED530A084680ED060A9FED500AA0
:103B900080ED070A4748006890ED050AB8EEC09A24
:103BA0004448006890ED060AF8EEC09A4148006863
:103BB00090ED050AB8EEC00AB4EE490AF1EE10FA2B
:103BC00025D13C48006890ED060AB8EEC00AB4EE74
:103BD000690AF1EE10FA1AD1B5EEC09AF1EE10FAB8
:103BE00012D0F5EEC09AF1EE10FA0DD00020324955
:103BF000C87330480068808A00B208812D48006888
:103C0000008B00B2488102E001202B49C8730021DB
:103C100028480068FFF79DFC00BFE7E670B52DED72
:103C2000048B0646B0EE408AF0EE608AB0EE419A10
:103C3000F0EE619A0D4614462648FFF7A9FB0B2DBE
:103C400003D102202349086208E00C2D03D1012092
:103C50002049086202E000201E4908621D48C0EDAC
:103C6000038A80ED048A8661C0ED079A80ED059A8B
:103C7000A11CFFF7A5FB1748FFF792FB1649087038
:103C8000BE20207008460078607008460178491C04
:103C9000A01CFFF757FDED210F480078C01C2154F0
:103CA000BDEC048B70BD0000350000203A00002000
:103CB0003409002030000020680800206000002047
:103CC00000000000008046400000000000805140DD
:103CD00000000000F00800203400002000B9704708
:103CE0000178427841EA0221C1F30A01284A118091
:103CF0004178C910827841EA4211C1F30A01244A8D
:103D0000518081788911C27841EA8201027941EAC1
:103D10008221C1F30A011E4A91800179491042793A
:103D200041EAC211C1F30A01194AD180017C427CE7
:103D300041EA0221C1F30A01154A118141790911B1
:103D4000890891724179C1F30111D1728179C279E7
:103D500041EA022109B20E4A9181017A427A41EA8E
:103D600002210AB20A49CA81817AC27A41EA022151
:103D70000AB207490A82027B0A75427B4A75817B37
:103D8000C27B41EA0221024AD18200BFA7E70000BC
:103D900088080020F0B58BB004460D4616461F4635
:103DA0000121084602F0DAF80121480602F01FF965
:103DB0004FF4C050099002208DF8280009A9FB4853
:103DC00001F02EFE09220B21F84801F0B4FE092271
:103DD0000C21F64801F0AFFEF54800F0CFFE06A832
:103DE00000F0F0FF00208DF81E0001208DF81F006C
:103DF00000208DF820008DF821008DF822008DF82C
:103E000023008DF81A708DF81B008DF81C508DF86A
:103E10001D40ADF8186006A9E54800F0C8FE002076
:103E20008DF812008DF8130001208DF81400002089
:103E3000ADF80800ADF80A00ADF80C00ADF80E00C2
:103E4000ADF8100001208DF8150002A800F039FF30
:103E500001220221D64801F033FA14208DF8040023
:103E600003208DF8050001208DF806008DF807006D
:103E700001A800F018FE13208DF8040003208DF82F
:103E8000050001208DF806008DF8070001A800F05C
:103E90000AFE01220221C64801F012FA00200BB0EE
:103EA000F0BDF0B58BB004460D4616461F46012105
:103EB000022002F053F80121880602F098F84FF42E
:103EC0004050099002208DF8280000208DF82A002B
:103ED00003208DF8290001208DF82B0009A9B54891
:103EE00001F09EFD09220C21B24801F024FE0922B6
:103EF0000D21B04801F01FFEAF4800F03FFE06A8BC
:103F000000F060FF00208DF81E0001208DF81F00DA
:103F100000208DF820008DF821008DF822008DF80A
:103F200023008DF81A708DF81B008DF81C508DF849
:103F30001D40ADF8186006A99F4800F038FE0E201D
:103F40008DF8120000208DF8130001208DF8140068
:103F50000020ADF80800ADF80A00ADF80C00ADF88F
:103F60000E00ADF8100001208DF8150002A800F039
:103F7000A8FE40208DF8040003208DF805008DF880
:103F8000060001208DF8070001A800F08CFD3F20FD
:103F90008DF8040003208DF805008DF8060001203F
:103FA0008DF8070001A800F07EFD01220221824861
:103FB00001F086F900200BB0F0BD10B501217C485E
:103FC00001F0E6F918B10121794801F07CFA10BD41
:103FD00010B50121784801F0DBF918B101217648CC
:103FE00001F071FA10BD10B586B00221724801F0DF
:103FF000CFF9A8B10221704801F065FA01AA0021A9
:104000006D4801F042F800BF00BF002406E00DF14A
:104010000F00005D69490855601CC4B2082CF6DB2E
:1040200006B010BD10B586B00221614801F0B0F9AC
:10403000A8B102215E4801F046FA01AA00215C48BD
:1040400001F023F800BF00BF002406E00DF10F00CF
:10405000005D5B490855601CC4B2082CF6DB06B055
:1040600010BDF0B585B007460D46002440F2512042
:1040700000901220019000208DF808008DF80900B2
:104080008DF80A5000BF05E0395D0DF10B000155B8
:10409000601C84B2AC42F7DB6946454800F000FF83
:1040A0000646002401E0601C84B23146404800F01E
:1040B0008FFF18B940F6FF708442F4DB40F6FF70C2
:1040C000844202DB012005B0F0BD0020FBE730B5E3
:1040D00085B005460021364801F05AF810B9002095
:1040E00005B030BD6A460021314800F0CEFF002403
:1040F00004E00DF10B00005D2855641C9DF80A00DA
:10410000A042F6D89DF80B00EAE730B585B0054629
:1041100040F20520009000208DF809008DF808007D
:104120000021254801F034F810B9002005B030BD59
:104130006A460021204800F0A8FF002404E00DF1A9
:104140000B00005D2855641C9DF80A00A042F6D8BB
:104150009DF80B00EAE700B585B04FF414700090AD
:10416000002001908DF808008DF8090008208DF8D6
:104170000A00124880788DF80B001048C1788DF83D
:104180000C1081798DF80D1000218DF80E108DF82E
:104190000F108DF810108DF811108DF8121069465F
:1041A000034800F07DFE05B000BD000000000240A5
:1041B000006400400004024000680040AC09002098
:1041C000980900202DE9F04186B080460C4615463E
:1041D0001E460C9F40F2FF10019000208DF80C004D
:1041E0008DF80D0008208DF80E00200A8DF80F00C4
:1041F0008DF81040290A8DF811108DF81250310AEF
:104200008DF813108DF81460390A8DF815108DF89B
:10421000167001A9404600F043FE06B0BDE8F081EB
:1042200010B596B004460121022001F097FE01214D
:10423000102001F0EDFE07221146FB4801F07BFC47
:1042400007220621F84801F076FC14A801F030FCA2
:10425000C020149002208DF8540000208DF85500E5
:1042600001208DF8570014A9EF4801F0D9FBEF4861
:1042700001F0C8FF10A802F092F810940020ADF8E9
:104280004400ADF84600ADF84800ADF84C000C20F5
:10429000ADF84A0010A9E54802F01BF8012240F2EF
:1042A0002551E24802F053F925208DF83C0000200A
:1042B0008DF83D008DF83E0001208DF83F000FA8DD
:1042C00000F0F1FB0121880501F048FE01224021A8
:1042D000D64802F033F9D64801F048F9684601F0B3
:1042E00010FAD4480290642004904FF000600090CF
:1042F000CE48001D01900020039005904FF480608F
:1043000006900020079008904FF4807009900002FA
:104310000A9000200B900C900D900E906946C448B6
:1043200001F0C6F90022C3496431C14801F021FA05
:104330000121BF4801F029FA0121BD4801F0F2F93D
:104340000121BA4802F04DF816B010BD10B540F288
:104350002441B64802F036F9002853D0B34800880B
:10436000B2488088B24801F020FA28BB0021B0484A
:1043700001F0D8F9B049AE4801F04DFAAC4801F06F
:10438000F4F9C0F16400AD4908606420A849091D32
:104390000860081F006840F40020091F0860012120
:1043A000A34801F0BFF9A548006812282AD100BF30
:1043B000A048FFF793FC25E000219D4801F0B2F9E9
:1043C0009D499B4801F027FA994801F0CEF9C0F1C8
:1043D00064009A49086064209549091D0860081F17
:1043E000006820F40020091F08600121904801F0B6
:1043F00099F992480068122804D100BF8D48FFF750
:104400006DFC00BF10BD10B596B00446012104201C
:1044100001F0A4FD0121C80401F0E9FD08220A21F0
:10442000874801F088FB08220B21854801F083FBB7
:104430004FF44060149002208DF8540003208DF852
:10444000550000208DF8560001208DF8570014A962
:104450007B4801F0E5FA10940020ADF84400ADF877
:104460004600ADF84800ADF84C000C20ADF84A000D
:1044700010A9744801F02DFF0121480501F06EFDDF
:10448000012240216F4802F059F86F4801F06EF8A0
:10449000684601F036F96D480290642004904FF0B0
:1044A000006000906748001D019000200390059077
:1044B0004FF48060069000200790089009904FF418
:1044C00080300A9000200B900C900D900E90694661
:1044D0005D4801F0EDF801215B4801F023F901226C
:1044E0008021584802F02AF800215748303001F066
:1044F00019F95548303001F039F800BF52483030D2
:1045000001F05DF90028F9D14FF0006000904D48AE
:10451000001D01904E48029040200390002004901E
:1045200005904FF480600690002007900890099055
:104530004FF480300A9000200B9003200C90002054
:104540000D900E9069464048303001F0B1F80122DC
:1045500010213D48303001F072F90F208DF83C00F9
:1045600003208DF83D008DF83E0001208DF83F00BE
:104570000FA800F098FA012240F22441314801F0DE
:10458000E6FF34208DF83C0003208DF83D008DF8C7
:104590003E0001208DF83F000FA800F084FA0121B1
:1045A000284801F01EFF16B010BD10B540F224419E
:1045B000244802F007F810B3224800882148001D63
:1045C00000880021204801F0ADF81B491E4801F089
:1045D00022F91D4801F0C9F8C0F164001D490870B6
:1045E00000BF084601781948FFF7F6F900BF6421BB
:1045F000154801F0B8F80121134801F093F810BDF7
:1046000010B5044600BF1048303001F0D8F800283B
:10461000F9D121460C48303001F0A5F801210A48B3
:10462000303001F07FF810BD00040240001001405E
:1046300040640240240A00200000301040000020A6
:1046400000080240004C004040600240500B002037
:10465000EC0A00203C00002010B5F449F44801F0B9
:10466000BEF838B10021F24801F05CF8EF49F0489B
:1046700001F0D1F810BD10B596B004460121042018
:1046800001F06CFC0121082001F068FC0121080503
:1046900001F0ADFC02208DF8540000208DF856008A
:1046A0004FF48050149001208DF8570003208DF8AE
:1046B000550014A9DF4801F0B3F902208DF8540029
:1046C00000208DF856000420149001208DF857002A
:1046D00003208DF8550014A9D74801F0A1F908224C
:1046E0000C21D44801F027FA08220221D24801F017
:1046F00022FA10940020ADF84C000C20ADF84A00CE
:104700000020ADF84800ADF84600ADF8440010A90F
:10471000CA4801F0DEFD0121480501F01FFC01221D
:104720004021C64801F00AFF684600F0EAFFC4488D
:104730000290642004904FF000600090BF48001D7C
:1047400001900020039005904FF4806006900020B7
:104750000890079009904FF480300A9000200B9049
:104760000C900D900E906946B148603800F0A0FFA3
:104770000121AF48603800F0D5FF0022B049643114
:10478000AB48603800F0F5FF0121A948603800F01F
:10479000FCFF35208DF83C0001208DF83F008DF89E
:1047A0003D0002208DF83E000FA800F07CF90122A8
:1047B00040F22441A14801F0CAFE01219F4801F0C6
:1047C00010FE01219D4801F00CFE16B010BD10B581
:1047D00040F22441994801F0F5FE002867D097483F
:1047E0000088964880889248603800F0DEFF78BBE9
:1047F00000218F48603800F095FF92498C4860385E
:1048000001F009F88A48603800F0AFFFC0F1640099
:104810008D49086064218648603800F0A4FF4FF499
:104820000022874964318248603800F0B9FF0121D5
:104830007F48603800F076FF83480068092836D941
:1048400000BF8148008881B27D48FEF7E7FF2EE077
:10485000FFE700217648603800F064FF794974482A
:10486000603800F0D8FF7248603800F07EFFC0F179
:1048700064007549086064216D48603800F073FF7A
:1048800000226F496A48603800F08AFF01216848B9
:10489000603800F047FF6C480068092807D900BF5E
:1048A0006948008881B26648FEF7B8FF00BF10BDB6
:1048B00010B596B004460121042001F04FFB012100
:1048C000202001F0A5FB02208DF8540000208DF877
:1048D0005600C020149001208DF8570003208DF859
:1048E000550014A9534801F09BF8082206215148AD
:1048F00001F021F9082207214E4801F01CF9534824
:1049000001F080FC10940020ADF84C000C20ADF8B4
:104910004A000020ADF84800ADF84600ADF844006C
:1049200010A94A4801F0D5FC0121880501F016FBC9
:1049300001224021454801F001FE684600F0E1FEF9
:1049400043480290642004904FF0206000903F485C
:10495000001D01900020039005904FF480600690A8
:1049600000200890079009904FF480300A900020B2
:104970000B900C900D900E906946364800F098FE12
:104980000121344800F0CEFE47208DF83C00012084
:104990008DF83F008DF83D0002208DF83E000FA8F5
:1049A00000F081F8012240F22441284801F0CFFDB7
:1049B0000121264801F015FD0121244801F011FDD7
:1049C00016B010BD10B540F22441204801F0FAFDA8
:1049D00050B31E4800881D48001D0088002114485F
:1049E000603800F09FFE17491148603800F013FF4F
:1049F0000F48603800F0B9FEC0F164001649086045
:104A000064210B48603800F0AEFE01210848603890
:104A100000F088FE10480068092805D900BF0F493A
:104A20000B48FEF7E7FD00BF10BD0000200000208E
:104A30007060024000080240000C0240005000403C
:104A4000180C002030000010440000200014014029
:104A5000440D00202864024048000020600000202F
:104A60001CB50121042001F079FA062000900120F4
:104A70008DF8040000208DF8060003208DF8050055
:104A800001208DF807006946034800F0C9FF0621A0
:104A9000014801F041F81CBD0008024032490143C1
:104AA000324A1160704770B5002100230F22C4788C
:104AB0001CB32E4C246804F4E064C4F5E064C4F331
:104AC0000721C1F10404E3B20A4144789C40E1B2F9
:104AD0008478144021430C07210E254C057861553C
:104AE000047804F01F050124AC4005786D11AD0079
:104AF00005F1E025C5F8004109E0047804F01F0540
:104B00000124AC401B4D0678761145F8264070BD57
:104B1000194A0A400243154B1B1F1A60704739B1EE
:104B2000124A121D12680243104B1B1D1A6006E048
:104B30000E4A121D126882430C4B1B1D1A607047EF
:104B4000042808D14FF0E021096941F004014FF039
:104B5000E022116107E04FF0E021096921F0040132
:104B60004FF0E022116170470000FA050CED00E003
:104B700000E400E080E100E080FFFF1F10B5044684
:104B8000FE48844209D10121480601F085FA00213E
:104B90004FF0007001F080FA08E00121880601F072
:104BA0007BFA00214FF0806001F076FA10BD30B53D
:104BB000024600200023146824F0020414601468E4
:104BC00044F00104146000E05B1C546804F001042C
:104BD0001CB94FF6FF74A342F6D1546804F00104E7
:104BE0000CB900206CE08C79012C04D1146844F0DD
:104BF0008004146003E0146824F080041460CC790D
:104C0000012C04D1146844F04004146003E01468DB
:104C100024F0400414600C7A012C04D1146844F090
:104C20002004146003E0146824F0200414604C7A1B
:104C3000012C04D1146844F01004146003E01468DB
:104C400024F0100414608C7A012C04D1146844F010
:104C50000804146003E0146824F008041460CC7A9B
:104C6000012C04D1146844F00404146003E01468B7
:104C700024F0040414608C78A407CD7844EA056419
:104C80000D7944EA05444D7944EA05540D886D1EBA
:104C90002C43D461146824F001041460002300E064
:104CA0005B1C546804F001041CB14FF6FF74A3426E
:104CB000F6D1546804F001040CB1002000E001209A
:104CC00030BD10B50021837A012202FA03F1AC4A0B
:104CD000126842F00102AA4B1A60A94A1C321268FB
:104CE0008A43A74B1C331A60027BCAB9A44A0C3210
:104CF00012688A43A24B0C331A604288C38842EA86
:104D000003439F4A4032847A42F8343002888388D1
:104D100042EA03439A4A4032847A02EBC402536067
:104D2000027B012A19D1964A0C3212680A43944B2D
:104D30000C331A604288038842EA0343904A4032A7
:104D4000847A42F83430C288838842EA03438C4A2A
:104D50004032847A02EBC4025360C27A3AB9884A7C
:104D6000121D12688A43864B1B1D1A6006E0844A96
:104D7000121D12680A43824B1B1D1A60028932B948
:104D80007F4A143212688A437D4B14331A600289B9
:104D9000012A06D17A4A143212680A43784B143336
:104DA0001A60427B012A06D1754A1C3212680A43F6
:104DB000734B1C331A60724A126822F00102704B66
:104DC0001A6010BD00218171C1710172417281723E
:104DD000C1728170C17003210171022141710121F1
:104DE000018070476649096841F00101644A116019
:104DF0001146096843F60E729143614A11601146EB
:104E0000096841EA002111601146096821F0010199
:104E10001160704721B1026842F48032026003E001
:104E2000026822F4803202607047E1B1026842F009
:104E3000800202604FF4C272125842F480734FF441
:104E4000C27213504FF4CA72125842F480734FF476
:104E5000CA7213504FF4D272125842F480734FF456
:104E6000D27213501BE0026822F0800202604FF4FD
:104E7000C272125822F480734FF4C27213504FF46E
:104E8000CA72125822F480734FF4CA7213504FF44E
:104E9000D272125822F480734FF4D27213507047BA
:104EA00010B502460020936803F08063B3F1806F71
:104EB00000D110E0936803F00063B3F1006F01D1FB
:104EC000012008E0936803F08053B3F1805F01D1C3
:104ED000022000E00420042879D002F5C07303EB1F
:104EE00000131B6803F0010402F5C07303EB001309
:104EF0001C600B7A7BB94B7A0C8843EA445302F569
:104F0000C07404EB00142468234302F5C07404EB5E
:104F10000014236010E00B7A4C6843EAC4034C7A17
:104F2000234302F5C07404EB00142468234302F504
:104F3000C07404EB001423608B7A03F00F038B72B0
:104F400002F5C07303EB00135B6823F00F0402F556
:104F5000C07303EB00135C6002F5C07303EB001336
:104F60005B688C7A234302F5C07404EB0014636021
:104F70008B7B1C064B7B44EA034403E00064004047
:104F8000006600400B7B44EA0323CC7A234302F5FE
:104F9000C07404EB0014A3608B7C1C064B7C44EAB9
:104FA00003440B7C44EA0323CC7B234302F5C07407
:104FB00004EB0014E36002F5C07303EB00131B68FD
:104FC00043F0010402F5C07303EB00131C6010BD35
:104FD00010B50246002321B1012907D002290FD1C3
:104FE00009E09068F94C00EA04030BE09068F84C83
:104FF00000EA040306E09068F64C00EA040301E0CE
:10500000002300BF00BFF44C181BA34216D007DCDE
:1050100083B16FF08060184470B1022818D111E09C
:10502000B0F5007F10D0ED4C204448B1B0F5003F02
:105030000ED10BE002230DE000230BE0002309E07A
:10504000002307E0012305E0012303E0012301E041
:10505000002300BF00BFD8B210BD21B1012907D085
:1050600002290FD109E0826842F0800282600AE0E2
:10507000826842F40042826005E0826842F40002E5
:10508000826000E000BF00BF704710B500F5D87324
:1050900003EB01131B6803F004031372137A53B973
:1050A00000F5D87303EB01131B6840F2FF7404EAA8
:1050B0005353136009E000F5D87303EB01131B6829
:1050C0006FF0604404EAD303536000F5D87303EB38
:1050D00001131B6803F00203537200F5D87303EB4E
:1050E00001135B6803F00F03937200F5D87303EBB1
:1050F00001135B681B0AD37400F5D87303EB01132B
:105100009B68D37200F5D87303EB01139B681C0AEC
:10511000147300F5D87303EB01139B681C0C5473D4
:1051200000F5D87303EB01139B681B0E937300F516
:10513000D87303EB0113DB68D37300F5D87303EB6B
:105140000113DB681C0A147400F5D87303EB011318
:10515000DB681C0C547400F5D87303EB0113DB6897
:105160001B0E937421B9C36843F02003C36003E0AE
:10517000036943F02003036110BD21B9C26842F006
:105180002002C26003E0026942F02002026170471F
:105190000246002019B9D36803F0030006E0012994
:1051A00003D1136903F0030000E00020704710B53D
:1051B00002460B4600204FF6FF71BBB9146824F07D
:1051C000020444F00104146000E0491E546804F035
:1051D0000304012C01D00029F7D1546804F0030422
:1051E000012C01D0002032E0012030E0012B13D14E
:1051F000146824F00304146000E0491E546804F0AD
:1052000003040CB10029F8D1546804F003040CB174
:1052100000201CE001201AE0022B17D1146824F0B2
:10522000010444F00204146000E0491E546804F0D4
:105230000304022C01D00029F7D1546804F00304C0
:10524000022C01D0002002E0012000E0002010BD6F
:10525000014600200A6822F0010242F002020A60C0
:105260004A6802F00302022A00D101207047014679
:105270004FF6FF7200200B6823F002030B6000E082
:10528000521E4B6803F00203022B01D1002AF7D112
:105290004B6803F00203022B00D001207047014647
:1052A00000208A6902F070007047014600208A6978
:1052B000100E7047014600208A69C2F3074070470C
:1052C0001AB143690B43436102E043698B43436175
:1052D000704710B50246002001F4700343B1936992
:1052E000C1F3130423400BB101202DE000202BE07B
:1052F00001F0807343B15368C1F3130423400BB131
:10530000012021E000201FE001F0006343B1936819
:10531000C1F3130423400BB1012015E0002013E07A
:1053200001F0007343B1D368C1F3130423400BB100
:10533000012009E0002007E01369C1F313042340B2
:105340000BB1012000E0002010BD0022244B994247
:1053500002D10023836111E0C1F3130201F0007355
:105360000BB1C2600AE001F080630BB1026105E09D
:1053700001F000630BB1826000E0426070470246BA
:10538000002002EA01030BB1012000E00020704779
:1053900070B504460D46002660692840002872D08A
:1053A000B5F5807F69D01DDC082D42D006DC012DCB
:1053B0002DD0022D31D0042D7FD134E0102D3ED0E0
:1053C000202D42D0402D78D145E00000030000049C
:1053D0000003000800000310000100080001FFF7AF
:1053E0007000F030B5F5004F61D009DCB5F5007FF5
:1053F0004AD0B5F5806F4DD0B5F5006F5DD150E066
:10540000B5F5803F2DD0B5F5003F56D12FE0A0680F
:105410005549FFF7B4FF064651E0E0680321FFF766
:10542000AEFF06464BE0E0680821FFF7A8FF0646FE
:1054300045E0E0681021FFF7A2FF06463FE0206943
:105440000321FFF79CFF064639E020690821FFF79A
:1054500096FF064633E020691021FFF790FF0646CD
:105460002DE060680821FFF78AFF064627E06068A4
:105470001021FFF784FF064621E0A0690121FFF714
:105480007EFF06461BE01BE0A0690221FFF777FFC5
:10549000064614E0A0690421FFF771FF06460EE0FE
:1054A0000BE0A0697021FFF76AFF064607E060681D
:1054B0000421FFF764FF064601E0002600BF00E07C
:1054C0000026304670BDB1F5007F3AD00FDC2029B0
:1054D00028D006DC01291CD004291DD0082940D180
:1054E0001DE0402921D0B1F5807F3AD126E0B1F509
:1054F000004F31D006DCB1F5806F25D0B1F5006FDB
:105500002FD124E0B1F5803F12D0B1F5003F28D172
:1055100011E0154A826025E00822C26022E01022D4
:10552000C2601FE0082202611CE01022026119E043
:105530000822426016E01022426013E0042242601A
:1055400010E0042242600DE0042242600AE00022E2
:1055500082610422426005E00022826104224260EE
:1055600000E000BF00BF704701010100016821F0A9
:10557000010101600021016041608160C160016141
:1055800021214161DB49884204D13D21D94A103AA9
:1055900091608CE0D7491831884205D14FF474618D
:1055A000D44A103A916082E0D2493031884205D124
:1055B0004FF47411CF4A103A916078E0CD494831E8
:1055C000884205D14FF07461CA4A103A91606EE08A
:1055D000C8496031884204D1C749C64A103AD160EF
:1055E00065E0C4497831884204D1C449C14A103ABF
:1055F000D1605CE0BF499031884204D1C049BD4AC6
:10560000103AD16053E0BB49A831884205D14FF030
:105610003D51B84A103AD16049E0BA49884204D1B4
:105620003D21B84A083A116041E0B6491831884234
:1056300005D14FF47461B34A083A116037E0B149BB
:105640003031884205D14FF47411AE4A083A1160E6
:105650002DE0AC494831884205D14FF07461A94A28
:10566000083A116023E0A7496031884204D1A24979
:10567000A44A121F11601AE0A2497831884204D16D
:105680009E49A04A121F116011E09E499031884244
:1056900004D19B499B4A121F116008E09949A83127
:1056A000884204D14FF03D51964A121F1160704755
:1056B00010B500220268944B1A40CC680B68234353
:1056C0004C6923438C692343CC6923430C6A2343ED
:1056D0004C6A23438C6A23434C6B23438C6B2343D8
:1056E0001A430260426922F00702D1E90B342343D6
:1056F0001A4342610B6943604B6883608B68C360E7
:1057000010BD0021016041608160C16001614161A3
:105710008161C161016241628162C1620163416371
:105720008163704721B1026842F00102026003E028
:10573000026822F001020260704721B1026842F45F
:105740000042026003E0026822F4004202607047F7
:1057500021B1026842F02002026003E0026822F0F8
:10576000200202607047416070470146486880B27D
:10577000704722B1036843F40023036003E0036829
:1057800023F4002303600161704721B1026842F4F1
:105790008022026003E0026822F4802202607047E7
:1057A0000AB1016100E0C1607047014600200A684B
:1057B00002F400220AB1012000E0002070470146F7
:1057C00000200A6802F001020AB1012000E0002076
:1057D0007047014600204A6902F03800704730B532
:1057E00003460A4600200024464DAB4202D24149FE
:1057F000103901E04349103902F000550DB14C68F1
:1058000000E00C68414D2C4004EA02050DB1012076
:1058100000E0002030BD02463A4B9A4202D23548A1
:10582000103801E03748103801F000531BB1374BF6
:105830000B40C36002E0354B0B408360704710B5EE
:1058400001F080034BB122B1436943F0800343610F
:1058500003E0436923F08003436180290BD02AB120
:10586000036801F01E042343036004E0036801F0B1
:105870001E04A343036010BD70B50246002000243F
:105880000025204EB24202D21A4B103B01E01D4BC4
:10589000103B1F4E0E4036B11E2606EAD124166874
:1058A00006EA040502E0566906F0800501F000569C
:1058B0000EB15C6800E01C68144E344004EA010636
:1058C00016B10DB1012000E0002070BD02460D4B65
:1058D0009A4202D20748103801E00A48103801F015
:1058E00000531BB1094B0B40C36002E0074B0B4058
:1058F00083607047106002403D000020400F002090
:1059000000003D20106402403F801CF07D0F7D0FA1
:105910003C0F3C0F10B504469848844208D1012141
:10592000084600F086FB0021012000F082FB76E0B3
:105930009348844208D10121022000F07AFB002123
:10594000022000F076FB6AE08E48844208D10121F3
:10595000042000F06EFB0021042000F06AFB5EE0F2
:105960008948844208D10121082000F062FB00210F
:10597000082000F05EFB52E08448844208D10121F7
:10598000102000F056FB0021102000F052FB46E0F2
:105990007F48844208D10121202000F04AFB0021E9
:1059A000202000F046FB3AE07A48844208D10121E9
:1059B000402000F03EFB0021402000F03AFB2EE0AA
:1059C0007548844208D10121802000F032FB00217B
:1059D000802000F02EFB22E07048844208D1012193
:1059E000801500F026FB0021A01500F022FB16E038
:1059F0006B48844208D10121401500F01AFB0021B8
:105A0000601500F016FB0AE06648844207D10121C8
:105A1000001500F00EFB0021201500F00AFB10BD60
:105A2000F0B50A4600210023002400BF3DE0012517
:105A300005FA01F3156805EA03049C4234D10568B0
:105A40004F000326BE40B543056015794E00B540B2
:105A50000668354305601579012D02D01579022DB0
:105A600016D185684F000326BE40B5438560557941
:105A70004E00B540866835438560456801268E40F6
:105A8000B5434560456896798E40B6B2354345606A
:105A9000C5684F000326BE40B543C560D5794E00AA
:105AA000B540C6683543C560491C1029BFD3F0BD59
:105AB0004FF6FF7101600021017141718171C17167
:105AC000704708B54FF480320092009A0A43009262
:105AD000009AC261C161009AC261C2690092C26942
