:020000040800F2
:1000000088130020ED3400082F0200083102000898
:1000100035020008390200083D0200080000000017
:100020000000000000000000000000004102000885
:1000300043020008000000004502000847020008D3
:1000400007350008073500080735000807350008A0
:100050000735000807350008073500080735000890
:100060000735000807350008073500080735000880
:100070000735000807350008073500080735000870
:10008000073500080735000807350008CF0E0008BF
:10009000890F0008073500080735000807350008F4
:1000A0000735000807350008073500080735000840
:1000B0000735000807350008073500080735000830
:1000C0000735000807350008073500080735000820
:1000D00007350008B9120008073500080735000881
:1000E0000735000807350008073500080735000800
:1000F000073500080735000807350008BF15000858
:1001000007350008073500080735000807350008DF
:1001100007350008E1150008073500080735000815
:1001200007350008073500080735000807350008BF
:10013000073500080735000807350008E50E0008F8
:10014000470F000807350008073500080735000885
:10015000073500080735000807350008073500088F
:10016000073500080735000807350008073500087F
:10017000073500080735000807350008073500086F
:10018000073500080735000800F002F800F03CF8D9
:100190000AA090E8000C82448344AAF10107DA45E2
:1001A00001D100F031F8AFF2090EBAE80F0013F0F8
:1001B000010F18BFFB1A43F001031847D83700009E
:1001C000F8370000103A24BF78C878C1FAD852072F
:1001D00024BF30C830C144BF04680C6070470000C1
:1001E0000023002400250026103A28BF78C1FBD840
:1001F000520728BF30C148BF0B6070471FB503F0DE
:1002000043FA1FBD10B510BD03F010FA1146FFF7F9
:10021000F5FF00F008F803F02EFA03B4FFF7F2FF41
:1002200003BC00F0A5FF00F017F900BFFEE7704720
:1002300000BFFEE700BFFEE700BFFEE700BFFEE72E
:1002400070477047704770470CB5002001900090D0
:100250007648006840F480307449086000BF7348F5
:10026000006800F4003000900198401C0190009854
:1002700018B90198B0F5A06FF1D16C48006800F48E
:10028000003010B10120009001E0002000900098A3
:10029000012846D165484030006840F080506349ED
:1002A000403108606248006840F44040604908609E
:1002B0005E48083000685D490831086008460068FB
:1002C00040F4004008600846006840F4A050086010
:1002D0005848091F0860081F006840F08070091F17
:1002E000086000BF5148006800F000700028F9D095
:1002F00040F20570504908604C480830006820F012
:1003000003004A49083108600846006840F00200CE
:10031000086000BF45480830006800F00C0008285D
:10032000F8D10CBD10B54548006840F47000434951
:1003300008603E48006840F001003C490860002029
:100340003A4908310860394800683D490840374952
:1003500008603C48091D0860081F006820F48020E0
:10036000091F0860002031490C310860FFF76CFF5D
:100370004FF0006031498039086010BD70B5002031
:100380000022022300240221284D08352D6805F0A3
:100390000C0020B1042806D0082834D107E02A4DEB
:1003A0002A4E356033E02A4D284E35602FE01F4D30
:1003B0002D1D2D68C5F380541C4D2D1D2D6805F095
:1003C0003F0154B1224DB5FBF1F5184E361D36688C
:1003D000C6F3881605FB06F209E01B4DB5FBF1F5E7
:1003E000124E361D3668C6F3881605FB06F20F4D11
:1003F0002D1D2D68C5F301456D1C6B00B2FBF3F597
:10040000124E356003E0104D104E356000BF00BF46
:10041000064D08352D68C5F303150E4E705D0B4D66
:100420002D68C540094E356070BD0000003802409F
:100430000070004008544007003C024088ED00E096
:10044000FFFFF6FE103000240024F400000000201E
:1004500000127A000400002010B54FF4A06001F0F3
:1004600067FA0D4800F092FE4FF4E13000F081FF92
:100470004FF4612001F01EF900F05CFE002303221E
:100480000821104600F010FC00230322082110462A
:1004900000F091FC10BD0000A086010070B505467B
:1004A0000C464C22A91D384803F041F8364890ED1F
:1004B0000C0AB1EE400A84ED000A344890ED000ABF
:1004C000334880ED000A304890ED0E0A2F4880ED49
:1004D000000A90ED000A2E48D0ED000A30EE600AC6
:1004E000DFED2C0AB4EEE00AF1EE10FA05DB2A4843
:1004F0000068401E2849086013E0244890ED000A77
:100500002348D0ED000A30EE600ADFED240AB4EE95
:10051000E00AF1EE10FA04D81F480068401C1E499A
:1005200008601D4800684FF4B471484300EE100A9B
:10053000B8EEC00A1548D0ED000A30EE200AB1EE40
:10054000400A84ED010A104890ED0D0A84ED020A7C
:1005500090ED070A84ED030A90ED080AB1EE400A17
:1005600084ED040A90ED060A84ED050A90ED030A75
:1005700084ED060A90ED050A84ED070A90ED040A61
:1005800084ED080A70BD00009009002018000020CA
:10059000140000200000A2431C0000200000A2C3A1
:1005A00030B5034605E013F8010B80EA0204B048B9
:1005B000025D081EA1F10101F5D1104630BD70B5F4
:1005C00005460C4600260DB1022C01D8002070BD56
:1005D000611EFF222846FFF7E3FF0646601E285CE7
:1005E000B04201D10120F2E70020F0E770B50546E6
:1005F0000C4600260DB1022C00D870BD611EFF22F2
:100600002846FFF7CDFF0646601E2E5400BFF4E7D4
:1006100030B5034613B94FF6FF7030BD09E013F84B
:10062000014B82EA0400C0B2924D35F8100080EA16
:100630002222081EA1F10101F1D11046EDE770B5AB
:1006400005460C4600260DB1022C01D8002070BDD5
:10065000A11E894802882846FFF7DAFF0646F1B254
:10066000A01E285C814206D1601E285CB0EB162FCC
:1006700001D10120EBE70020E9E770B505460C4603
:1006800000260DB1022C00D870BDA11E7A48028848
:100690002846FFF7BDFF0646A01E2E54310A601EF5
:1006A000295400BFF0E770B504460D4600260CB192
:1006B000022D01D8FF2070BDFF2229462046FFF7FA
:1006C0006FFFF8E72DE9FC5F054688460024A34646
:1006D000C8E015F80490601C295CA01C285C41EA65
:1006E0000026601D295CA01D285C41EA002A28190B
:1006F000C71D28190168009100798DF8040006F1E2
:1007000009001FFA80FBB9F1A50F6ED105216846DB
:10071000FFF755FF002868D028195946FFF78FFFCB
:100720000028F8D0BAF5017F69D012DC40F203113D
:10073000AAEB01008A452BD006DCBAF1010F1AD0D2
:10074000BAF1030F72D11CE0FE2828D0FF28F9D19E
:100750004CE0BAF5027F6BD006DCAAF20620002836
:1007600054D0012879D158E0AAF20130002866D08F
:10077000022872D16AE032463946404802F0D7FE7C
:100780006CE0324639463D480C3002F0D0FE65E060
:10079000324639463948363002F0C9FE5EE01B2E3B
:1007A00022D1324639463548393002F0C0FE33484E
:1007B00090F83900012809DB304890F83900072803
:1007C00004DC02202D4981F8C5000DE02B4890F88B
:1007D00039000B2808DB294890F83900112803DC80
:1007E0000120264981F8C50038E038E0102E05D1F7
:1007F000324639462148543002F099FE2EE0012E4F
:1008000003D138781D4981F8740027E03246394613
:100810001A48763002F08BFE20E0072E05D13246D2
:1008200039461648773002F082FE17E015E0FFE700
:100830003246394611487E3002F079FE0EE03246EB
:1008400039460E48843002F072FE07E032463946DF
:100850000A48AC3002F06BFE00E000BF00BF04EBC2
:100860000B0084B2A0453FF734AFBDE8FC9F000009
:10087000933600089437000820000020A8070020C5
:1008800010B503462BB1087828B901200870521C16
:1008900001E000200870107800EBD0746410A0EB29
:1008A00044040CB9002010BD0120FCE7CB8A0340B2
:1008B0000BB1012300E000231370704710B504460C
:1008C00004F1320221460120FFF7F0FF04F1330268
:1008D00021460420FFF7EAFF04F1340221460220FA
:1008E000FFF7E4FF04F1350221460820FFF7DEFFA1
:1008F00004F1360221461020FFF7D8FF04F1380238
:1009000021462020FFF7D2FF04F139022146402082
:10091000FFF7CCFF04F13A0221468020FFF7C6FF23
:1009200004F13B0221464FF48070FFF7BFFF04F152
:100930003C0221464FF40070FFF7B8FF04F13D027E
:1009400021464FF48060FFF7B1FF04F13E022146DB
:100950004FF40060FFF7AAFF04F1370221464FF47D
:100960008050FFF7A3FF04F13F0221464FF40050EF
:10097000FFF79CFF04F1400221464FF48040FFF74F
:1009800095FF04F1410221464FF40040FFF78EFF2E
:1009900094F83200A24AA349FFF772FF422108559A
:1009A0003321085DA04AA149FFF76AFF432108559A
:1009B0003421085D9E4A9F49FFF762FF4421085594
:1009C0003521085D9C4A9D49FFF75AFF452108558E
:1009D0003621085D9A4A9B49FFF752FF4621085588
:1009E0003821085D984A9949FFF74AFF4821085580
:1009F0003921085D964A9749FFF742FF492108557A
:100A00003A21085D944A9549FFF73AFF4A21085573
:100A10003B21085D924A9349FFF732FF4B2108556D
:100A20003C21085D904A9149FFF72AFF4C21085567
:100A30003D21085D8E4A8F49FFF722FF4D21085561
:100A40003E21085D8C4A8D49FFF71AFF4E2108555B
:100A50003721085D8A4A8B49FFF712FF4721085565
:100A60003F21085D884A8949FFF70AFF4F21085551
:100A70004021085D864A8749FFF702FF502108554B
:100A80004121085D844A8549FFF7FAFE5121085546
:100A900010BD817AC176C27E2F210B5C00F11F014F
:100AA000CA542F210A5C00F11F018A5C30210B5CC3
:100AB00000F11F01C95C42EA810101772F21095C25
:100AC000491C01F00F0231210A54027F0B5C00F136
:100AD0001F01C95C42EA011141772F210A5C00F134
:100AE0001F018A5C30210B5C00F11F01C95C8A4246
:100AF00005D16B490968491C694A116002E000216F
:100B0000674A116066490968282905D32F210A5CC4
:100B100000F11F018A5C82772F210A5C30210A5480
:100B20002F21095C491CCAB22F210A54095C1029E3
:100B300002D100222F210A547047C17A012901D124
:100B4000817608E0C17A032901D1817603E0C17A78
:100B5000022900D18176704710B5044604B910BD52
:100B60002078617840EA0120C0F30A004D490880EE
:100B70006078C010A17840EA4110C0F30A004949EA
:100B80004880A0788011E17840EA8100217940EA2C
:100B90008120C0F30A0043498880207940106179A0
:100BA00040EAC110C0F30A003E49C880207C617C45
:100BB00040EA0120C0F30A003A4908816079001137
:100BC000800888726079C0F30110C872A079E17959
:100BD00040EA012000B233498881207A617A40EAF4
:100BE000012001B22F48C181A07AE17A40EA0120B8
:100BF00001B22C480182217B0175617B4175A07B8C
:100C0000E17B40EA01202749C8820846FFF795FFAB
:100C10002448FFF73EFF2348FFF750FE00BF9EE742
:100C200025000020240000202700002026000020AE
:100C300029000020280000202B0000202A0000208E
:100C40002D0000202C0000202F0000202E0000206E
:100C5000310000203000002033000020320000204E
:100C6000350000203400002037000020360000202E
:100C700039000020380000203B0000203A0000200E
:100C80003D0000203C0000203F0000203E000020EE
:100C900041000020400000204300002042000020CE
:100CA0004400002090080020F0B58BB004460D46AB
:100CB00016461F460121084602F09AF8012148060F
:100CC00002F0DFF84FF4C050099002208DF82800A0
:100CD00009A9FB4801F0EEFD09220B21F84801F0BB
:100CE00074FE09220C21F64801F06FFEF54800F071
:100CF0008FFE06A800F0B0FF00208DF81E00012036
:100D00008DF81F0000208DF820008DF821008DF84F
:100D100022008DF823008DF81A708DF81B008DF8D5
:100D20001C508DF81D40ADF8186006A9E54800F08C
:100D300088FE00208DF812008DF8130001208DF838
:100D400014000020ADF80800ADF80A00ADF80C0062
:100D5000ADF80E00ADF8100001208DF8150002A8C6
:100D600000F0F9FE01220221D64801F0F3F9142027
:100D70008DF8040003208DF8050001208DF8060091
:100D80008DF8070001A800F0D8FD13208DF80400AD
:100D900003208DF8050001208DF806008DF807006E
:100DA00001A800F0CAFD01220221C64801F0D2F9D3
:100DB00000200BB0F0BDF0B58BB004460D461646D2
:100DC0001F460121022002F013F80121880602F0DB
:100DD00058F84FF44050099002208DF82800002068
:100DE0008DF82A0003208DF8290001208DF82B00B2
:100DF00009A9B54801F05EFD09220C21B24801F0B5
:100E0000E4FD09220D21B04801F0DFFDAF4800F0FC
:100E1000FFFD06A800F020FF00208DF81E00012035
:100E20008DF81F0000208DF820008DF821008DF82E
:100E300022008DF823008DF81A708DF81B008DF8B4
:100E40001C508DF81D40ADF8186006A99F4800F0B1
:100E5000F8FD0E208DF8120000208DF813000120FF
:100E60008DF814000020ADF80800ADF80A00ADF8C8
:100E70000C00ADF80E00ADF8100001208DF8150043
:100E800002A800F068FE40208DF8040003208DF8D1
:100E900005008DF8060001208DF8070001A800F07C
:100EA0004CFD3F208DF8040003208DF805008DF8DF
:100EB000060001208DF8070001A800F03EFD012288
:100EC0000221824801F046F900200BB0F0BD10B5B8
:100ED00001217C4801F0A6F918B10121794801F0FF
:100EE0003CFA10BD10B50121784801F09BF918B10A
:100EF0000121764801F031FA10BD30B585B00546C4
:100F000040F20520009000208DF809008DF80800BF
:100F100000216E4801F086F810B9002005B030BD00
:100F20006A460021694800F0FAFF002404E00DF150
:100F30000B00005D2855641C9DF80A00A042F6D8FD
:100F40009DF80B00EAE710B586B002215F4801F07A
:100F500069F9B8B102215D4801F0FFF901AA002149
:100F60005A4800F0DCFF0DF10F00FFF7C6FF002428
:100F700006E00DF10F00005D55490855601CC4B234
:100F8000082CF6DB06B010BD10B586B002214D4826
:100F900001F048F998B102214A4801F0DEF901AAAE
:100FA0000021484800F0BBFF002406E00DF10F00CF
:100FB000005D48490855601CC4B2082CF6DB06B039
:100FC00010BDF0B585B007460D46002440F2512013
:100FD00000901220019000208DF808008DF8090083
:100FE0008DF80A5000BF05E0395D0DF10B00015589
:100FF000601C84B2AC42F7DB6946324800F09AFECE
:101000000646002401E0601C84B231462D4800F001
:1010100029FF18B940F6FF708442F4DB40F6FF70F8
:10102000844202DB012005B0F0BD0020FBE730B5B3
:1010300085B005460021234800F0F4FF10B90020D8
:1010400005B030BD6A4600211E4800F068FF00244C
:1010500004E00DF10B00005D2855641C9DF80A00AA
:10106000A042F6D89DF80B00EAE700B585B04FF432
:1010700014700090002001908DF808008DF8090090
:1010800008208DF80A00124880788DF80B0010486F
:10109000C1788DF80C1081798DF80D1000218DF834
:1010A0000E108DF80F108DF810108DF811108DF8AE
:1010B00012106946034800F03DFE05B000BD000077
:1010C000000002400064004000040240006800404C
:1010D000F0090020DC0900202DE9F04186B08046AF
:1010E0000C4615461E460C9F40F2FF100190002052
:1010F0008DF80C008DF80D0008208DF80E00200AE8
:101100008DF80F008DF81040290A8DF811108DF818
:101110001250310A8DF813108DF81460390A8DF8C9
:1011200015108DF8167001A9404600F003FE06B0B8
:10113000BDE8F0811CB50121042001F059FE062014
:10114000009001208DF8040000208DF80600032097
:101150008DF8050001208DF807006946034801F06D
:10116000A9FB0621014801F021FC1CBD000802403A
:1011700000BF704700BFFE4A128802F04002002AFA
:10118000F9D0C2B2FA4B1B1D1A80704710B596B049
:1011900004460121022001F02BFE0121102001F064
:1011A00081FE07221146F34801F00FFC07220621B9
:1011B000F04801F00AFC14A801F0C4FBC020149010
:1011C00002208DF8540000208DF8550001208DF884
:1011D000570014A9E74801F06DFBE74801F05CFFF8
:1011E00010A802F026F810940020ADF84400ADF8E5
:1011F0004600ADF84800ADF84C000C20ADF84A00B0
:1012000010A9DD4801F0AFFF012240F22441DA4885
:1012100002F0E7F825208DF83C0000208DF83D0015
:101220008DF83E0001208DF83F000FA800F085FBEF
:101230000121880501F0DCFD01224021CE4802F0A9
:10124000C7F8CE4801F0DCF8684601F0A4F9CC48B4
:101250000290642004904FF000600090C648001D8A
:1012600001900020039005904FF4806006900020CC
:10127000079008904FF48070099000020A900020B7
:101280000B900C900D900E906946BC4801F05AF9F5
:101290000022BB496431B94801F0B5F90121B748D2
:1012A00001F0BDF90121B54801F086F90121B248EC
:1012B00001F0E1FF16B010BD10B540F22441AE4878
:1012C00002F0CAF8002853D0AB480088AA488088AA
:1012D000AA4801F0B4F928BB0021A84801F06CF934
:1012E000A849A64801F0E1F9A44801F088F9C0F145
:1012F0006400A54908606420A049091D0860081F12
:10130000006840F40020091F086001219B4801F09B
:1013100053F99D48006812282AD100BF9848FFF76A
:101320001BFC25E00021954801F046F995499348BA
:1013300001F0BBF9914801F062F9C0F164009249F3
:10134000086064208D49091D0860081F006820F4AA
:101350000020091F08600121884801F02DF98A4802
:101360000068122804D100BF8548FFF7F5FB00BFD5
:1013700010BD10B596B004460121042001F038FDDF
:101380000121082001F034FD0121080501F079FD5B
:101390000121480501F02CFD02208DF854000020A9
:1013A0008DF856004FF48050149001208DF85700AE
:1013B00003208DF8550014A9744801F07BFA02202F
:1013C0008DF8540000208DF8560004201490012060
:1013D0008DF8570003208DF8550014A96C4801F0D2
:1013E00069FA08220C21694801F0EFFA082202216B
:1013F000674801F0EAFA10940020ADF84C000C2088
:10140000ADF84A000020ADF84800ADF84600ADF850
:10141000440010A95F4801F0A6FE012240215D486A
:1014200001F0D6FF684601F0B6F85B4802906420F0
:1014300004904FF0006000905648001D019000207D
:10144000039005904FF4806006900020089007906C
:1014500009904FF480300A9000200B900C900D9072
:101460000E9069464D4801F06DF801214B4801F09E
:10147000A3F8002248496431484801F0C4F801212A
:10148000464801F0CCF835208DF83C0001208DF85D
:101490003F008DF83D0002208DF83E000FA800F0BF
:1014A0004CFA012240F224413A4801F09AFF01210E
:1014B000384801F0E0FE01228021364801F088FF23
:1014C00000213648A83001F077F83448A83000F001
:1014D00097FF00BF3148A83001F0BBF80028F9D1D0
:1014E0004FF0006000902B48001D01902C480290A6
:1014F0004020039064200490002005904FF4806009
:10150000069000200790089009900A900B90032005
:101510000C9000200D900E9069462048A83001F0F4
:1015200011F801211D48A83001F046F82F208DF850
:101530003C0002208DF83D0001208DF83E008DF822
:101540003F000FA800F0F9F916B010BD10B5044621
:101550004FF020511148A83001F0A7F800210F48A2
:10156000A83001F029F800BF0C48A8301AE00000AC
:101570000048004000040240001001404064024066
:10158000680A0020000030104C00002000080240D3
:10159000000C024000500040940B002010600240FC
:1015A000300B002001F055F80028DDD12146D44849
:1015B00001F023F80121D24800F0FEFF10BD10B564
:1015C0004FF02051CE4801F054F840B10021CC48F2
:1015D00000F0F2FF4FF02051C94801F066F810BD4D
:1015E00010B540F22441C74801F036FF002860D012
:1015F000C4480088C3488088C148A83801F01FF853
:1016000058BB0021BE48A83800F0D6FFBE49BC48F0
:10161000A83801F04AF8BA48A83800F0F0FFC0F145
:101620006400BA4908606421B548A83800F0E5FFB5
:101630004FF40022B649B248A83800F0FBFF012160
:10164000AF48A83800F0B8FF00BFB048008881B2AA
:10165000AF486438FFF736F82BE00021A848A838D7
:1016600000F0AAFFA849A648A83801F01EF8A4482F
:10167000A83800F0C4FFC0F16400A44908606421E8
:101680009F48A83800F0B9FF0022A14964399C485E
:10169000A83800F0CFFF01219948A83800F08CFF4E
:1016A00000BF9A48008881B299486438FFF70AF869
:1016B00000BF10BD10B596B004460121042001F012
:1016C00097FB0121202001F0EDFB0121880501F0AD
:1016D0008FFB02208DF8540000208DF85600C020AA
:1016E000149001208DF8570003208DF8550014A99F
:1016F000884801F0DFF808220621864801F065F9E4
:1017000008220721834801F060F9834801F0C4FCF6
:1017100010940020ADF84C000C20ADF84A000020D9
:10172000ADF84800ADF84600ADF8440010A97A487D
:1017300001F019FD684600F02EFF78480290642001
:1017400004904FF0206000907348001D019000202D
:10175000039005904FF48060069000200890079059
:101760004FF48070099040020A9000200B900C907A
:101770000D900E9069466A4800F0E4FE0121684829
:1017800000F01AFF01224021634801F021FE0122EE
:101790008021614801F01CFE00216148903000F07A
:1017A0000BFF5F48903000F02BFE00BF5C4890308C
:1017B00000F04FFF0028F9D14FF02060009056480C
:1017C000001D01905748029040200390642004902F
:1017D000002005904FF4806006900020079008904C
:1017E00009900A900B9003200C9000200D900E9011
:1017F00069464B48903000F0A5FE012148489030E2
:1018000000F0DAFE46208DF83C0002208DF83D0005
:1018100001208DF83E008DF83F000FA800F08DF8F4
:1018200047208DF83C0001208DF83F008DF83D00E9
:1018300002208DF83E000FA800F07FF8012240F250
:101840002441354801F0CDFD0121334801F013FD5D
:101850000121314801F00FFD16B010BD10B504464E
:101860004FF020512E48903000F01FFF00212C48EF
:10187000903000F0A1FE00BF2948903000F0E9FE52
:101880000028F9D121462648903000F0B6FE01210B
:101890002348903000F090FE10BD10B540F2244176
:1018A0001D4801F0D9FD50B31B4800881A48001D9F
:1018B000008800211248A83800F07EFE1249104826
:1018C000A83800F0F2FE0E48A83800F098FEC0F1EB
:1018D00064001549086064210948A83800F08DFEAD
:1018E00001210748A83800F067FE0F480068092862
:1018F00005D900BF0D490948FEF7D0FD00BF10BD56
:10190000B86002400050004030000010500000203D
:10191000F80B00200008024000140140C00C002019
:10192000286402405C0C0020540000206800002065
:1019300032490143324A1160704770B500210023DB
:101940000F22C4781CB32E4C246804F4E064C4F560
:10195000E064C4F30721C1F10404E3B20A4144780E
:101960009C40E1B28478144021430C07210E254CA1
:1019700005786155047804F01F050124AC40057812
:101980006D11AD0005F1E025C5F8004109E00478CE
:1019900004F01F050124AC401B4D0678761145F874
:1019A000264070BD194A0A400243154B1B1F1A609E
:1019B000704739B1124A121D12680243104B1B1DA9
:1019C0001A6006E00E4A121D126882430C4B1B1D62
:1019D0001A607047042808D14FF0E021096941F0EE
:1019E00004014FF0E022116107E04FF0E0210969A6
:1019F00021F004014FF0E022116170470000FA0568
:101A00000CED00E000E400E080E100E080FFFF1F5B
:101A100010B50446FE48844209D10121480601F070
:101A200085FA00214FF0007001F080FA08E00121F2
:101A3000880601F07BFA00214FF0806001F076FA11
:101A400010BD30B5024600200023146824F00204C3
:101A50001460146844F00104146000E05B1C5468D6
:101A600004F001041CB94FF6FF74A342F6D1546888
:101A700004F001040CB900206CE08C79012C04D135
:101A8000146844F08004146003E0146824F08004B7
:101A90001460CC79012C04D1146844F04004146023
:101AA00003E0146824F0400414600C7A012C04D183
:101AB000146844F02004146003E0146824F0200447
:101AC00014604C7A012C04D1146844F010041460A2
:101AD00003E0146824F0100414608C7A012C04D103
:101AE000146844F00804146003E0146824F0080447
:101AF0001460CC7A012C04D1146844F004041460FE
:101B000003E0146824F0040414608C78A407CD78F2
:101B100044EA05640D7944EA05444D7944EA0554E4
:101B20000D886D1E2C43D461146824F001041460E8
:101B3000002300E05B1C546804F001041CB14FF664
:101B4000FF74A342F6D1546804F001040CB10020E4
:101B500000E0012030BD10B50021837A012202FA95
:101B600003F1AC4A126842F00102AA4B1A60A94A7A
:101B70001C3212688A43A74B1C331A60027BCAB915
:101B8000A44A0C3212688A43A24B0C331A60428872
:101B9000C38842EA03439F4A4032847A42F8343091
:101BA0000288838842EA03439A4A4032847A02EBED
:101BB000C4025360027B012A19D1964A0C32126882
:101BC0000A43944B0C331A604288038842EA034369
:101BD000904A4032847A42F83430C288838842EA9C
:101BE00003438C4A4032847A02EBC4025360C27AC7
:101BF0003AB9884A121D12688A43864B1B1D1A6027
:101C000006E0844A121D12680A43824B1B1D1A60AB
:101C1000028932B97F4A143212688A437D4B1433E9
:101C20001A600289012A06D17A4A143212680A43DC
:101C3000784B14331A60427B012A06D1754A1C3254
:101C400012680A43734B1C331A60724A126822F0FE
:101C50000102704B1A6010BD00218171C1710172C7
:101C600041728172C1728170C170032101710221C0
:101C700041710121018070476649096841F0010105
:101C8000644A11601146096843F60E729143614A35
:101C900011601146096841EA002111601146096886
:101CA00021F001011160704721B1026842F48032D5
:101CB000026003E0026822F4803202607047E1B102
:101CC000026842F0800202604FF4C272125842F47D
:101CD00080734FF4C27213504FF4CA72125842F418
:101CE00080734FF4CA7213504FF4D272125842F4F8
:101CF00080734FF4D27213501BE0026822F080020E
:101D000002604FF4C272125822F480734FF4C27210
:101D100013504FF4CA72125822F480734FF4CA72EF
:101D200013504FF4D272125822F480734FF4D272CF
:101D30001350704710B502460020936803F080638B
:101D4000B3F1806F00D110E0936803F00063B3F14A
:101D5000006F01D1012008E0936803F08053B3F1D4
:101D6000805F01D1022000E00420042879D002F530
:101D7000C07303EB00131B6803F0010402F5C0738A
:101D800003EB00131C600B7A7BB94B7A0C8843EA97
:101D9000445302F5C07404EB00142468234302F595
:101DA000C07404EB0014236010E00B7A4C6843EA23
:101DB000C4034C7A234302F5C07404EB0014246876
:101DC000234302F5C07404EB001423608B7A03F004
:101DD0000F038B7202F5C07303EB00135B6823F0F3
:101DE0000F0402F5C07303EB00135C6002F5C073CF
:101DF00003EB00135B688C7A234302F5C07404EB99
:101E0000001463608B7B1C064B7B44EA034403E0B5
:101E100000640040006600400B7B44EA0323CC7A58
:101E2000234302F5C07404EB0014A3608B7C1C06F2
:101E30004B7C44EA03440B7C44EA0323CC7B2343DE
:101E400002F5C07404EB0014E36002F5C07303EB09
:101E500000131B6843F0010402F5C07303EB001389
:101E60001C6010BD10B50246002321B1012907D026
:101E700002290FD109E09068F94C00EA04030BE055
:101E80009068F84C00EA040306E09068F64C00EA1B
:101E9000040301E0002300BF00BFF44C181BA34261
:101EA00016D007DC83B16FF08060184470B102284F
:101EB00018D111E0B0F5007F10D0ED4C204448B1AE
:101EC000B0F5003F0ED10BE002230DE000230BE044
:101ED000002309E0002307E0012305E0012303E0DC
:101EE000012301E0002300BF00BFD8B210BD21B123
:101EF000012907D002290FD109E0826842F080024F
:101F000082600AE0826842F40042826005E08268F2
:101F100042F40002826000E000BF00BF704710B5CD
:101F200000F5D87303EB01131B6803F0040313726D
:101F3000137A53B900F5D87303EB01131B6840F211
:101F4000FF7404EA5353136009E000F5D87303EB00
:101F500001131B686FF0604404EAD303536000F57B
:101F6000D87303EB01131B6803F00203537200F5EF
:101F7000D87303EB01135B6803F00F03937200F552
:101F8000D87303EB01135B681B0AD37400F5D87395
:101F900003EB01139B68D37200F5D87303EB0113B5
:101FA0009B681C0A147300F5D87303EB01139B683C
:101FB0001C0C547300F5D87303EB01139B681B0EC4
:101FC000937300F5D87303EB0113DB68D37300F54B
:101FD000D87303EB0113DB681C0A147400F5D87383
:101FE00003EB0113DB681C0C547400F5D87303EB8E
:101FF0000113DB681B0E937421B9C36843F02003FF
:10200000C36003E0036943F02003036110BD21B9FD
:10201000C26842F02002C26003E0026942F020027E
:10202000026170470246002019B9D36803F003002B
:1020300006E0012903D1136903F0030000E000204A
:10204000704710B502460B4600204FF6FF71BBB932
:10205000146824F0020444F00104146000E0491EF6
:10206000546804F00304012C01D00029F7D154680E
:1020700004F00304012C01D0002032E0012030E004
:10208000012B13D1146824F00304146000E0491EEE
:10209000546804F003040CB10029F8D1546804F02A
:1020A00003040CB100201CE001201AE0022B17D120
:1020B000146824F0010444F00204146000E0491E96
:1020C000546804F00304022C01D00029F7D15468AD
:1020D00004F00304022C01D0002002E0012000E003
:1020E000002010BD014600200A6822F0010242F0E3
:1020F00002020A604A6802F00302022A00D10120AB
:10210000704701464FF6FF7200200B6823F0020370
:102110000B6000E0521E4B6803F00203022B01D15A
:10212000002AF7D14B6803F00203022B00D00120F4
:102130007047014600208A6902F07000704701462E
:1021400000208A69100E7047014600208A69C2F398
:10215000074070471AB143690B43436102E043698A
:102160008B434361704710B50246002001F47003B1
:1021700043B19369C1F3130423400BB101202DE057
:1021800000202BE001F0807343B15368C1F31304C6
:1021900023400BB1012021E000201FE001F000638B
:1021A00043B19368C1F3130423400BB1012015E040
:1021B000002013E001F0007343B1D368C1F31304AE
:1021C00023400BB1012009E0002007E01369C1F3AF
:1021D000130423400BB1012000E0002010BD0022B9
:1021E000244B994202D10023836111E0C1F3130211
:1021F00001F000730BB1C2600AE001F080630BB123
:10220000026105E001F000630BB1826000E0426012
:1022100070470246002002EA01030BB1012000E0F2
:102220000020704770B504460D46002660692840BE
:10223000002872D0B5F5807F69D01DDC082D42D012
:1022400006DC012D2DD0022D31D0042D7FD134E0BC
:10225000102D3ED0202D42D0402D78D145E00000F9
:102260000300000400030008000003100001000840
:102270000001FFF77000F030B5F5004F61D009DCC8
:10228000B5F5007F4AD0B5F5806F4DD0B5F5006F3C
:102290005DD150E0B5F5803F2DD0B5F5003F56D16A
:1022A0002FE0A0685549FFF7B4FF064651E0E0680B
:1022B0000321FFF7AEFF06464BE0E0680821FFF779
:1022C000A8FF064645E0E0681021FFF7A2FF06469A
:1022D0003FE020690321FFF79CFF064639E02069B3
:1022E0000821FFF796FF064633E020691021FFF72B
:1022F00090FF06462DE060680821FFF78AFF06463A
:1023000027E060681021FFF784FF064621E0A069FE
:102310000121FFF77EFF06461BE01BE0A0690221BA
:10232000FFF777FF064614E0A0690421FFF771FF6D
:1023300006460EE00BE0A0697021FFF76AFF064633
:1023400007E060680421FFF764FF064601E000260D
:1023500000BF00E00026304670BDB1F5007F3AD0E6
:102360000FDC202928D006DC01291CD004291DD02F
:10237000082940D11DE0402921D0B1F5807F3AD114
:1023800026E0B1F5004F31D006DCB1F5806F25D0E5
:10239000B1F5006F2FD124E0B1F5803F12D0B1F537
:1023A000003F28D111E0154A826025E00822C26072
:1023B00022E01022C2601FE0082202611CE010220D
:1023C000026119E00822426016E01022426013E028
:1023D0000422426010E0042242600DE004224260C8
:1023E0000AE0002282610422426005E0002282614C
:1023F0000422426000E000BF00BF704701010100FD
:10240000016821F0010101600021016041608160EB
:10241000C160016121214161DB49884204D13D2134
:10242000D94A103A91608CE0D7491831884205D1D9
:102430004FF47461D44A103A916082E0D24930314D
:10244000884205D14FF47411CF4A103A916078E078
:10245000CD494831884205D14FF07461CA4A103ADB
:1024600091606EE0C8496031884204D1C749C64ACC
:10247000103AD16065E0C4497831884204D1C4493A
:10248000C14A103AD1605CE0BF499031884204D122
:10249000C049BD4A103AD16053E0BB49A8318842D7
:1024A00005D14FF03D51B84A103AD16049E0BA49E0
:1024B000884204D13D21B84A083A116041E0B6494A
:1024C0001831884205D14FF47461B34A083A11605B
:1024D00037E0B1493031884205D14FF47411AE4A2A
:1024E000083A11602DE0AC494831884205D14FF0DF
:1024F0007461A94A083A116023E0A7496031884213
:1025000004D1A249A44A121F11601AE0A2497831ED
:10251000884204D19E49A04A121F116011E09E49D1
:102520009031884204D19B499B4A121F116008E0F8
:102530009949A831884204D14FF03D51964A121F63
:102540001160704710B500220268944B1A40CC68A5
:102550000B6823434C6923438C692343CC69234391
:102560000C6A23434C6A23438C6A23434C6B2343FA
:102570008C6B23431A430260426922F00702D1E9BF
:102580000B3423431A4342610B6943604B688360F9
:102590008B68C36010BD0021016041608160C16033
:1025A000016141618161C161016241628162C16217
:1025B000016341638163704721B1026842F0010207
:1025C000026003E0026822F001020260704721B15C
:1025D000026842F40042026003E0026822F4004212
:1025E0000260704721B1026842F02002026003E0FD
:1025F000026822F020020260704741607047014685
:10260000486880B2704722B1036843F40023036036
:1026100003E0036823F4002303600161704721B1E4
:10262000026842F48022026003E0026822F4802201
:10263000026070470AB1016100E0C1607047014665
:1026400000200A6802F400220AB1012000E0002004
:102650007047014600200A6802F001020AB1012019
:1026600000E000207047014600204A6902F038006F
:10267000704730B503460A4600200024464DAB4261
:1026800002D24149103901E04349103902F00055A6
:102690000DB14C6800E00C68414D2C4004EA020585
:1026A0000DB1012000E0002030BD02463A4B9A42B5
:1026B00002D23548103801E03748103801F0005395
:1026C0001BB1374B0B40C36002E0354B0B408360BE
:1026D000704710B501F080034BB122B1436943F05C
:1026E0008003436103E0436923F080034361802951
:1026F0000BD02AB1036801F01E042343036004E0F9
:10270000036801F01E04A343036010BD70B50246C8
:10271000002000240025204EB24202D21A4B103B6A
:1027200001E01D4B103B1F4E0E4036B11E2606EA3F
:10273000D124166806EA040502E0566906F0800511
:1027400001F000560EB15C6800E01C68144E344085
:1027500004EA010616B10DB1012000E0002070BDB1
:1027600002460D4B9A4202D20748103801E00A484F
:10277000103801F000531BB1094B0B40C36002E05D
:10278000074B0B4083607047106002403D00002003
:10279000400F002000003D20106402403F801CF0EC
:1027A0007D0F7D0F3C0F3C0F10B5044698488442C6
:1027B00008D10121084600F086FB0021012000F02D
:1027C00082FB76E09348844208D10121022000F088
:1027D0007AFB0021022000F076FB6AE08E488442FA
:1027E00008D10121042000F06EFB0021042000F03C
:1027F0006AFB5EE08948844208D10121082000F08C
:1028000062FB0021082000F05EFB52E08448844215
:1028100008D10121102000F056FB0021102000F00B
:1028200052FB46E07F48844208D10121202000F07D
:102830004AFB0021202000F046FB3AE07A4884421F
:1028400008D10121402000F03EFB0021402000F093
:102850003AFB2EE07548844208D10121802000F027
:1028600032FB0021802000F02EFB22E070488442E1
:1028700008D10121801500F026FB0021A01500F0F1
:1028800022FB16E06B48844208D10121401500F07C
:102890001AFB0021601500F016FB0AE0664884422E
:1028A00007D10121001500F00EFB0021201500F0DA
:1028B0000AFB10BDF0B50A4600210023002400BF2A
:1028C0003DE0012505FA01F3156805EA03049C4281
:1028D00034D105684F000326BE40B5430560157925
:1028E0004E00B5400668354305601579012D02D0CC
:1028F0001579022D16D185684F000326BE40B543D9
:10290000856055794E00B5408668354385604568D9
:1029100001268E40B5434560456896798E40B6B233
:1029200035434560C5684F000326BE40B543C560CA
:10293000D5794E00B540C6683543C560491C10299D
:10294000BFD3F0BD4FF6FF710160002101714171ED
:102950008171C171704708B54FF480320092009ABE
:102960000A430092009AC261C161009AC261C269C1
:102970000092C269009208BD0246002013690B4014
:102980000BB1012000E0002070470146086980B2C9
:1029900070470246002053690B400BB1012000E054
:1029A000002070470146486980B270470183704734
:1029B000418370470AB1018300E041837047416160
:1029C000704742694A4042617047F0B500230024D5
:1029D0004D07ED0E02FA05F3CE1000F1200555F873
:1029E00026504E07F70E0F26BE40B543CF1000F11C
:1029F000200646F82750CE1000F1200555F8265045
:102A000045EA0304CE1000F1200545F82640F0BD4C
:102A1000000002400004024000080240000C024096
:102A2000001002400014024000180240001C024046
:102A3000002002400024024000280240F9480068BB
:102A400040F00100F74908600020F64908310860AD
:102A5000F4480068F4490840F2490860F348091D49
:102A60000860F348EF4984310860F0481038091DC8
:102A70000860EC48006820F48020EA4908600020E3
:102A8000E8490C310860E7498C3108607047002143
:102A9000E44A921C117011460870704710B5014647
:102AA0000022002300204A11012A02D1DD4C2368B4
:102AB00008E0022A03D1DB4C7034236802E0D94CD1
:102AC0007434236801F01F02012494401C400CB1AF
:102AD000012000E0002010BD38B500200090002447
:102AE000002500BF3120FFF7D9FF05460098401CA4
:102AF00000900098B0F5A06F01D0002DF2D03120E9
:102B0000FFF7CCFF08B1012400E00024204638BDC7
:102B100001460020C34A106820F0F80040EAC100D6
:102B200010607047C349086070470021BD4A703289
:102B300011701170012802D004280AD104E001218B
:102B4000B84A7032117005E00521B64A7032117032
:102B500000E000BF00BF7047B7490860704770B51C
:102B6000049C41EA82150126C6EB530645EA064558
:102B7000054345EA0465AB4E361D356070BDAD4971
:102B800008667047820142EA0172A64B84331A60DC
:102B90007047A8498866704710B5830143EA01630E
:102BA00043EA02739F4C8834236010BDA149086733
:102BB0007047A049C864704702460020994B08330B
:102BC000186820F0EC6042EA01031843954B083383
:102BD0001860704702460020924B0833186820F0B6
:102BE000784042EA010318438E4B0833186070475F
:102BF000014600208B4A0832106820F00300084389
:102C00001060704787480830006800F00C0070477B
:102C100001460020834A0832106820F0F000084383
:102C200010607047014600207E4A0832106820F488
:102C3000E05008431060704701460020794A08328E
:102C4000106820F4604040EAC10010607047F0B5A1
:102C5000002100220024022500260223714F08379C
:102C60003F6807F00C0121B1042905D0082937D1AC
:102C700005E0724F076036E0714F076033E0694F3F
:102C80003F1D3F68C7F38056664F3F1D3F6807F002
:102C90003F036EB16A4FB7FBF3F7DFF888C10CF161
:102CA000040CDCF800C0CCF3881C07FB0CF40CE02F
:102CB000624FB7FBF3F7DFF86CC10CF1040CDCF8E2
:102CC00000C0CCF3881C07FB0CF4564F3F1D3F6837
:102CD000C7F301477F1C7D00B4FBF5F7076002E0F6
:102CE000564F076000BF00BF4E4F08373F6807F0E0
:102CF000F0010909534F7A5C0768D7404760494F94
:102D000008373F6807F4E051890A4E4F7A5C4768FC
:102D1000D7408760434F08373F6807F46041490B4D
:102D2000484F7A5C4768D740C760F0BD002100F487
:102D30004072B2F5407F0AD13A4A0832116821F454
:102D4000F811414A02401143364A08321160354AAF
:102D500070321268C0F30B031A43324B70331A609F
:102D60007047354944390860704733494039086035
:102D7000704736490860704701460020294A8C3266
:102D8000106820F01F004A1E1043264A8C32106043
:102D9000704701460020234A8C32106820F4F85016
:102DA0004A1E40EA02201F4A8C32106070470146DA
:102DB00000201C4A8C32106820F440100843106038
:102DC000704701460020174A8C32106820F44000FA
:102DD00008431060704701460020124A8C32106888
:102DE00020F440300843106070471949086070476C
:102DF00039B10C4A3032126802430A4B30331A6040
:102E000006E0084A303212688243064B30331A60BB
:102E10007047F9B1034A343212680243014B34332C
:102E20001A601CE000380240FFFFF6EA1030002470
:102E30000030002000004742800E47420024F4008A
:102E400000127A0058000020FFFCFF0F5C0147428F
:102E5000E01147428F4A126882438E4B1A607047D6
:102E600039B18C4A121D126802438A4B1B1D1A602D
:102E700006E0884A121D12688243864B1B1D1A60A9
:102E8000704739B1834A0C3212680243814B0C33CC
:102E90001A6006E07F4A0C32126882437D4B0C3385
:102EA0001A60704739B17B4A103212680243794B7D
:102EB00010331A6006E0774A103212688243754B6D
:102EC00010331A60704739B1724A243A12680243CB
:102ED000704B243B1A6006E06E4A243A1268824323
:102EE0006C4B243B1A60704739B16A4A203A126829
:102EF0000243684B203B1A6006E0664A203A12689B
:102F00008243644B203B1A60704739B1614A1C3AD6
:102F1000126802435F4B1C3B1A6006E05D4A1C3A94
:102F2000126882435B4B1C3B1A60704739B1594AA7
:102F3000143A12680243574B143B1A6006E0554A94
:102F4000143A12688243534B143B1A60704739B1EC
:102F5000504A103A126802434E4B103B1A6006E08A
:102F60004C4A103A126882434A4B103B1A60704731
:102F700039B1484A1C3212680243464B1C331A606E
:102F800006E0444A1C3212688243424B1C331A60EA
:102F9000704739B13F4A2032126802433D4B20331B
:102FA0001A6006E03B4A203212688243394B2033D4
:102FB0001A60704739B1374A243212680243354BE0
:102FC00024331A6006E0334A243212688243314BBC
:102FD00024331A60704739B12E4A2C3212680243EA
:102FE0002C4B2C331A6006E02A4A2C32126882439A
:102FF000284B2C331A60704739B1264A3032126898
:103000000243244B30331A6006E0224A3032126801
:103010008243204B30331A607047012808D11D4984
:103020003C31096841F008011A4A3C32116007E05E
:1030300018493C31096821F00801164A3C321160F8
:10304000704739B1134A273A12780243114B273B94
:103050001A7006E00F4A273A127882430D4B273B3D
:103060001A7070470B484030006840F08070094982
:1030700040310860704701460020064A283A12682D
:103080000A400AB1012000E00020704701492639BA
:10309000087070473438024010B50446FA4884423C
:1030A00008D101211020FFF752FF00211020FFF767
:1030B0004EFF57E0F548844209D101214804FFF74B
:1030C00035FF00214FF40030FFF730FF4AE0F048B1
:1030D000844209D101218804FFF728FF00214FF421
:1030E0008020FFF723FF3DE0EA48844209D1012117
:1030F000C804FFF71BFF00214FF40020FFF716FF65
:1031000030E0E548844209D101210805FFF70EFFB0
:1031100000214FF48010FFF709FF23E0DF488442CD
:1031200008D101212020FFF712FF00212020FFF706
:103130000EFF17E0DA48844209D101218807FFF722
:10314000F5FE00214FF08040FFF7F0FE0AE0D54881
:10315000844207D101214005FFF7E8FE0021600508
:10316000FFF7E4FE10BD2DE9FF4705460E4600249B
:10317000A14600BFA046B08900B100BF2C8A24F44C
:103180004054F08804432C82AC8941F20C608443A3
:10319000B08831890843718908430443AC81AC8A03
:1031A00024F44074B0890443AC826846FFF74FFDB5
:1031B000B548854202D0B948854202D1DDF80C906D
:1031C00001E0DDF80890A88900F4004040B109EB67
:1031D000C90000EB091031684900B0FBF1F707E0C6
:1031E00009EBC90000EB091031688900B0FBF1F769
:1031F0006420B7FBF0F004012009642101FB107882
:10320000A88900F4004040B1322000EBC800B0FBB8
:10321000F1F000F00700044308E0322000EB081052
:103220006421B0FBF1F000F00F0004432C81BDE8F5
:10323000FF874FF41651016000218180C180018118
:103240000C21418100218181704710B50246002088
:10325000108A20F470600B884C8823438C882343A9
:10326000CC8823431843108210BD00210180418087
:103270008180C180704721B1828942F400528281ED
:1032800004E082894DF6FF731A4082817047028BF9
:1032900002F47F420283028B0A430283704721B10A
:1032A000828942F40042828103E08289C2F30E02E5
:1032B0008281704721B1828A42F40062828204E0F6
:1032C000828A4FF2FF731A4082827047C1F308026C
:1032D0008280704701468888C0F308007047028AE0
:1032E0004FF6F0731A400282028A0A430282704744
:1032F00021B1828942F00202828104E082894FF684
:10330000FD731A408281704782894FF2FF731A4021
:10331000828182890A4382817047028A4FF6DF7375
:103320001A400282028A0A430282704721B1028A4D
:1033300042F48042028204E0028A4BF6FF731A4094
:1033400002827047818941F001018181704721B17A
:10335000828A42F00802828204E0828A4FF6F77382
:103360001A4082827047028BD2B20283028B42EAF9
:1033700001220283704721B1828A42F020028282B8
:1033800004E0828A4FF6DF731A408282704721B1CF
:10339000828A42F01002828204E0828A4FF6EF7342
:1033A0001A4082827047828A4FF6FB731A408282EB
:1033B000828A0A438282704721B1828A42F00202E5
:1033C000828204E0828A4FF6FD731A40828270473F
:1033D0001AB1838A0B43838202E0838A8B43838200
:1033E0007047F0B50346002400260025002040F673
:1033F0006A17B94200D100BF1846C1F3421401F068
:103400001F06012707FA06F5012C01D10C3004E054
:10341000022C01D1103000E014301AB107682F439C
:10342000076002E00768AF430760F0BD0246002076
:10343000B1F5007F00D100BF13880B400BB1012014
:1034400000E00020704701F40072B2F5007F00D167
:1034500000BFCA430280704770B5024600240023B3
:103460000025002040F66A16B14200D100BFC1F32A
:10347000421501F01F03012606FA03F3012D13D1B3
:103480009689334017E000000010014000440040DE
:1034900000480040004C0040005000400014014033
:1034A00000780040007C0040022D02D1168A334093
:1034B00001E0968A33400C12012606FA04F41688BD
:1034C000344013B10CB1012000E0002070BD10B5F4
:1034D0000022002340F66A14A14200D100BF0A1264
:1034E00001249440A3B2DC43048010BD0948804706
:1034F00009480047FEE7FEE7FEE7FEE7FEE7FEE7D6
:10350000FEE7FEE7FEE7FEE704480549054A064BED
:10351000704700002503000889010008880D00207D
:1035200088130020880F0020880F00207047032A8E
:1035300040F2308010F0030C00F0158011F8013BD0
:10354000BCF1020F624498BF11F801CB00F8013BB7
:1035500038BF11F8013BA2F1040298BF00F801CB7B
:1035600038BF00F8013B11F0030300F02580083A52
:10357000C0F0088051F8043B083A51F804CBA0E8A9
:103580000810F5E7121D5CBF51F8043B40F8043BFE
:10359000AFF30080D20724BF11F8013B11F801CB33
:1035A00048BF11F8012B24BF00F8013B00F801CB04
:1035B00048BF00F8012B704710B5203AC0F00B80CF
:1035C000B1E81850203AA0E81850B1E81850A0E827
:1035D0001850BFF4F5AF5FEA027C24BFB1E8185081
:1035E000A0E8185044BF18C918C0BDE810405FEAF1
:1035F000827C24BF51F8043B40F8043B08BF70476D
:10360000D20728BF31F8023B48BF11F8012B28BF71
:1036100020F8023B48BF00F8012B70477047704705
:103620007047704700487047240D00207546FFF72B
:10363000F9FFAE4605006946534620F0070085466F
:1036400018B020B5FFF760FFBDE820404FF000063E
:103650004FF000074FF000084FF0000B21F007017A
:10366000AC46ACE8C009ACE8C009ACE8C009ACE8BD
:10367000C0098D46704710B50446AFF30080204660
:10368000BDE81040FCF7C9BD4FF04070E1EE100AF4
:103690007047FF005EBCE2613FDD83C29C7E20A3D9
:1036A000FD1F419DC3217FFCA2401E5F01E3BD3E83
:1036B0006082DC237D9FC1421CFEA0E1BF5D0380D0
:1036C000DE3C62BEE0025CDF81633D7C22C09E1D69
:1036D00043A1FF4618FAA427799BC584DA3866E52A
:1036E000BB5907DB856739BAE406581947A5FB784B
:1036F00026C49A653BD987045AB8E6A7F91B45C684
:10370000987A24F8A6441A99C7257B3A6486D85B30
:1037100005E7B98CD2306EEDB3510F4E10F2AC2FDD
:103720007193CD114FADF3702ECC92D38D6F31B21A
:10373000EC0E50AFF1134DCE90722C6D33D18F0C37
:1037400052B0EE326C8ED0530DEFB1F0AE4C129100
:10375000CF2D73CA947628ABF517490856B4EA6999
:1037600037D58B5709EBB536688AD495CB2977F4D2
:10377000AA4816E9B7550B88D6346A2B7597C94AFB
:1037800014F6A8742AC896154BA9F7B6E80A54D7B8
:10379000896B35000000891112239B322446AD57F6
:1037A0003665BF74488CC19D5AAFD3BE6CCAE5DB89
:1037B0007EE9F7F88110080193331A22A5562C47A9
:1037C000B7753E64C99C408DDBBF52AEEDDA64CB69
:1037D000FFF976E802218B30100299132667AF7645
:1037E0003444BD554AADC3BC588ED19F6EEBE7FA49
:1037F0007CC8F5D983310A2091121803A7772E6669
:10380000B5543C45CBBD42ACD99E508FEFFB66EA28
:10381000FDD874C904428D5316619F702004A91508
:103820003227BB364CCEC5DF5EEDD7FC6888E19908
:103830007AABF3BA85520C4397711E60A114280528
:10384000B3373A26CDDE44CFDFFD56ECE9986089E8
:10385000FBBB72AA06638F7214409D512225AB34C4
:103860003006B9174EEFC7FE5CCCD5DD6AA9E3B8C8
:10387000788AF19B87730E6295501C41A3352A24E8
:10388000B1163807CFFF46EEDDDC54CDEBB962A8A8
:10389000F99A708B088481951AA793B62CC2A5D388
:1038A0003EE1B7F04008C919522BDB3A644EED5F98
:1038B000766DFF7C899400859BB712A6ADD224C398
:1038C000BFF136E0C1184809D33B5A2AE55E6C4F78
:1038D000F77D7E6C0AA583B4188691972EE3A7F234
:1038E0003CC0B5D14229CB38500AD91B666FEF7E58
:1038F000744CFD5D8BB502A499961087AFF326E258
:10390000BDD034C1C3394A28D11A580BE77F6E6E37
:10391000F55C7C4D0CC685D71EE597F42880A191F7
:103920003AA3B3B2444ACD5B5669DF78600CE91D17
:10393000722FFB3E8DD604C79FF516E4A990208117
:10394000BBB332A2C55A4C4BD7795E68E11C680DF7
:10395000F33F7A2E0EE787F61CC495D52AA1A3B0B3
:103960003882B193466BCF7A5448DD59622DEB3CD7
:10397000700EF91F8FF706E69DD414C5ABB122A0D7
:10398000B9923083C77B4E6AD5585C49E33D6A2CB7
:10399000F11E780FB4390008000000206800000014
:1039A000C40100081C3A0008680000202013000031
:1039B000E0010008007A030A000000000000000097
:1039C00001020304060708090000000000000000CF
:1039D00000000000FFFF00000000000000000000E9
:1039E00000000000000000000000000000000000D7
:1039F00000000000000000000000000000000000C7
:103A000000000000000000000000000000000000B6
:0C3A100001020304010203040607080978
:040000050800018965
:00000001FF
